{"contracts/MetaTxRelayer.sol":{"MetaTxRelayer":{"abi":[{"anonymous":false,"inputs":[{"indexed":true,"internalType":"address","name":"from","type":"address"},{"indexed":true,"internalType":"address","name":"to","type":"address"},{"indexed":true,"internalType":"bytes","name":"data","type":"bytes"},{"indexed":false,"internalType":"bool","name":"success","type":"bool"},{"indexed":false,"internalType":"bytes","name":"returndata","type":"bytes"}],"name":"MetaTransactionExecuted","type":"event"},{"inputs":[{"components":[{"internalType":"address","name":"from","type":"address"},{"internalType":"address","name":"to","type":"address"},{"internalType":"uint256","name":"value","type":"uint256"},{"internalType":"uint256","name":"gas","type":"uint256"},{"internalType":"uint256","name":"nonce","type":"uint256"},{"internalType":"bytes","name":"data","type":"bytes"}],"internalType":"struct MetaTxRelayer.ForwardRequest","name":"req","type":"tuple"},{"internalType":"bytes","name":"signature","type":"bytes"}],"name":"execute","outputs":[{"internalType":"bool","name":"success","type":"bool"},{"internalType":"bytes","name":"returndata","type":"bytes"}],"stateMutability":"payable","type":"function"},{"inputs":[{"internalType":"address","name":"from","type":"address"}],"name":"getNonce","outputs":[{"internalType":"uint256","name":"","type":"uint256"}],"stateMutability":"view","type":"function"}],"evm":{"assembly":"// RO data = 0/0 bytes\n// RW data = 328/65920 bytes\n// Stack size = 32768 bytes\n\n// Instructions = 5257\n// Code size = 17775 bytes\n\n      : @0 (gas: 1)\n     0: jump @14 if a0 == a1\n      : @1 (gas: 9)\n     3: a3 = a1 << 0x20\n     6: a3 = a3 >> 0x20\n     9: a4 = a0 << 0x20\n    12: a4 = a4 >> 0x20\n    15: a4 = a4 + a2\n    18: a3 = a3 - a4\n    21: a4 = a2 << 0x1\n    24: a4 = -a4\n    26: jump @7 if a4 >=u a3\n      : @2 (gas: 1)\n    29: jump @11 if a0 >=u a1\n      : @3 (gas: 1)\n    32: jump @14 if a2 == 0\n      : @4 (gas: 3)\n    35: a2 = a2 + a0\n    38: a3 = a0\n    40: fallthrough\n      : @5 (gas: 6)\n    41: a4 = u8 [a1]\n    43: a1 = a1 + 0x1\n    46: a5 = a3 + 0x1\n    49: u8 [a3] = a4\n    51: a3 = a5\n    53: jump @5 if a5 != a2\n      : @6 (gas: 1)\n    56: jump @14\n      : @7 (gas: 1)\n    58: jump @14 if a2 == 0\n      : @8 (gas: 3)\n    61: a2 = a2 + a0\n    64: a3 = a0\n    66: fallthrough\n      : @9 (gas: 6)\n    67: a4 = u8 [a1]\n    69: a1 = a1 + 0x1\n    72: a5 = a3 + 0x1\n    75: u8 [a3] = a4\n    77: a3 = a5\n    79: jump @9 if a5 != a2\n      : @10 (gas: 1)\n    82: jump @14\n      : @11 (gas: 1)\n    84: jump @14 if a2 == 0\n      : @12 (gas: 2)\n    87: i32 a3 = a2 + 0xffffffffffffffff\n    90: fallthrough\n      : @13 (gas: 7)\n    91: a4 = a1 + a3\n    94: a4 = u8 [a4]\n    96: a2 = a2 + 0xffffffffffffffff\n    99: a5 = a0 + a3\n   102: u8 [a5] = a4\n   104: i32 a3 = a3 + 0xffffffffffffffff\n   107: jump @13 if a2 != 0\n      : @14 (gas: 1)\n   110: ret\n      : @15 (gas: 2)\n   112: a1 = i32 [0x20150]\n   117: jump @43 if a1 == 0\n      : @16 (gas: 4)\n   121: a0 = 0x30180\n   126: i32 a0 = a0 + 0\n   128: ecalli 15 // 'set_immutable_data'\n   130: jump @43\n      : @17 (gas: 8)\n   133: sp = sp + 0xfffffffffffffff0\n   136: u64 [sp + 0x8] = ra\n   139: u64 [sp] = s0\n   141: a2 = a1\n   143: s0 = a0\n   145: a1 = 0x20\n   148: a0 = a2\n   150: ra = 2, jump @26\n      : @18 [@dyn 1] (gas: 100)\n   155: a1 = u8 [a0 + 0x1]\n   158: a2 = u8 [a0]\n   160: a3 = u8 [a0 + 0x2]\n   163: a4 = u8 [a0 + 0x3]\n   166: a1 = a1 << 0x8\n   169: a1 = a1 | a2\n   172: a3 = a3 << 0x10\n   175: a4 = a4 << 0x18\n   178: a3 = a3 | a4\n   181: a1 = a1 | a3\n   184: a2 = u8 [a0 + 0x5]\n   187: a3 = u8 [a0 + 0x4]\n   190: a4 = u8 [a0 + 0x6]\n   193: a5 = u8 [a0 + 0x7]\n   196: a2 = a2 << 0x8\n   199: a2 = a2 | a3\n   202: a4 = a4 << 0x10\n   205: a5 = a5 << 0x18\n   208: a4 = a4 | a5\n   211: a2 = a2 | a4\n   214: a2 = a2 << 0x20\n   217: t0 = a2 | a1\n   220: a2 = u8 [a0 + 0x9]\n   223: a3 = u8 [a0 + 0x8]\n   226: a4 = u8 [a0 + 0xa]\n   229: a5 = u8 [a0 + 0xb]\n   232: a2 = a2 << 0x8\n   235: a2 = a2 | a3\n   238: a4 = a4 << 0x10\n   241: a5 = a5 << 0x18\n   244: a4 = a4 | a5\n   247: a2 = a2 | a4\n   250: a3 = u8 [a0 + 0xd]\n   253: a4 = u8 [a0 + 0xc]\n   256: a5 = u8 [a0 + 0xe]\n   259: a1 = u8 [a0 + 0xf]\n   262: a3 = a3 << 0x8\n   265: a3 = a3 | a4\n   268: a5 = a5 << 0x10\n   271: a1 = a1 << 0x18\n   274: a1 = a1 | a5\n   277: a1 = a1 | a3\n   280: a1 = a1 << 0x20\n   283: t1 = a1 | a2\n   286: a1 = u8 [a0 + 0x11]\n   289: a3 = u8 [a0 + 0x10]\n   292: a4 = u8 [a0 + 0x12]\n   295: a5 = u8 [a0 + 0x13]\n   298: a1 = a1 << 0x8\n   301: a1 = a1 | a3\n   304: a4 = a4 << 0x10\n   307: a5 = a5 << 0x18\n   310: a4 = a4 | a5\n   313: a1 = a1 | a4\n   316: a3 = u8 [a0 + 0x15]\n   319: a4 = u8 [a0 + 0x14]\n   322: a5 = u8 [a0 + 0x16]\n   325: a2 = u8 [a0 + 0x17]\n   328: a3 = a3 << 0x8\n   331: a3 = a3 | a4\n   334: a5 = a5 << 0x10\n   337: a2 = a2 << 0x18\n   340: a2 = a2 | a5\n   343: a2 = a2 | a3\n   346: a2 = a2 << 0x20\n   349: a3 = a2 | a1\n   352: a1 = u8 [a0 + 0x19]\n   355: a2 = u8 [a0 + 0x18]\n   358: a4 = u8 [a0 + 0x1a]\n   361: a5 = u8 [a0 + 0x1b]\n   364: a1 = a1 << 0x8\n   367: a1 = a1 | a2\n   370: a4 = a4 << 0x10\n   373: a5 = a5 << 0x18\n   376: a4 = a4 | a5\n   379: a1 = a1 | a4\n   382: a2 = u8 [a0 + 0x1d]\n   385: a4 = u8 [a0 + 0x1c]\n   388: a5 = u8 [a0 + 0x1e]\n   391: a0 = u8 [a0 + 0x1f]\n   394: a2 = a2 << 0x8\n   397: a2 = a2 | a4\n   400: a5 = a5 << 0x10\n   403: a0 = a0 << 0x18\n   406: a0 = a0 | a5\n   409: a0 = a0 | a2\n   412: a0 = a0 << 0x20\n   415: a0 = a0 | a1\n   418: a0 = reverse a0\n   420: a1 = reverse a3\n   422: a2 = reverse t1\n   424: a3 = reverse t0\n   426: u64 [s0 + 0x18] = a3\n   429: u64 [s0 + 0x10] = a2\n   432: u64 [s0 + 0x8] = a1\n   435: u64 [s0] = a0\n   437: ra = u64 [sp + 0x8]\n   440: s0 = u64 [sp]\n   442: sp = sp + 0x10\n   445: ret\n      : @19 (gas: 12)\n   447: sp = sp + 0xffffffffffffffd8\n   450: u64 [sp + 0x20] = ra\n   453: u64 [sp + 0x18] = s0\n   456: u64 [sp + 0x10] = s1\n   459: a2 = u64 [a1]\n   461: u64 [sp + 0x8] = a2\n   464: a2 = u64 [a1 + 0x8]\n   467: u64 [sp] = a2\n   469: s0 = u64 [a1 + 0x10]\n   472: s1 = u64 [a1 + 0x18]\n   475: a1 = 0x20\n   478: ra = 4, jump @26\n      : @20 [@dyn 2] (gas: 71)\n   483: a1 = reverse s1\n   485: a2 = reverse s0\n   487: a3 = u64 [sp]\n   489: a3 = reverse a3\n   491: a4 = u64 [sp + 0x8]\n   494: a4 = reverse a4\n   496: u8 [a0 + 0x18] = a4\n   499: u8 [a0 + 0x10] = a3\n   502: u8 [a0 + 0x8] = a2\n   505: u8 [a0] = a1\n   507: a5 = a4 >> 0x38\n   510: u8 [a0 + 0x1f] = a5\n   513: a5 = a4 >> 0x30\n   516: u8 [a0 + 0x1e] = a5\n   519: a5 = a4 >> 0x28\n   522: u8 [a0 + 0x1d] = a5\n   525: a5 = a4 >> 0x20\n   528: u8 [a0 + 0x1c] = a5\n   531: a5 = a4 >> 0x18\n   534: u8 [a0 + 0x1b] = a5\n   537: a5 = a4 >> 0x10\n   540: u8 [a0 + 0x1a] = a5\n   543: a4 = a4 >> 0x8\n   546: u8 [a0 + 0x19] = a4\n   549: a4 = a3 >> 0x38\n   552: u8 [a0 + 0x17] = a4\n   555: a4 = a3 >> 0x30\n   558: u8 [a0 + 0x16] = a4\n   561: a4 = a3 >> 0x28\n   564: u8 [a0 + 0x15] = a4\n   567: a4 = a3 >> 0x20\n   570: u8 [a0 + 0x14] = a4\n   573: a4 = a3 >> 0x18\n   576: u8 [a0 + 0x13] = a4\n   579: a4 = a3 >> 0x10\n   582: u8 [a0 + 0x12] = a4\n   585: a3 = a3 >> 0x8\n   588: u8 [a0 + 0x11] = a3\n   591: a3 = a2 >> 0x38\n   594: u8 [a0 + 0xf] = a3\n   597: a3 = a2 >> 0x30\n   600: u8 [a0 + 0xe] = a3\n   603: a3 = a2 >> 0x28\n   606: u8 [a0 + 0xd] = a3\n   609: a3 = a2 >> 0x20\n   612: u8 [a0 + 0xc] = a3\n   615: a3 = a2 >> 0x18\n   618: u8 [a0 + 0xb] = a3\n   621: a3 = a2 >> 0x10\n   624: u8 [a0 + 0xa] = a3\n   627: a2 = a2 >> 0x8\n   630: u8 [a0 + 0x9] = a2\n   633: a2 = a1 >> 0x38\n   636: u8 [a0 + 0x7] = a2\n   639: a2 = a1 >> 0x30\n   642: u8 [a0 + 0x6] = a2\n   645: a2 = a1 >> 0x28\n   648: u8 [a0 + 0x5] = a2\n   651: a2 = a1 >> 0x20\n   654: u8 [a0 + 0x4] = a2\n   657: a2 = a1 >> 0x18\n   660: u8 [a0 + 0x3] = a2\n   663: a2 = a1 >> 0x10\n   666: u8 [a0 + 0x2] = a2\n   669: a1 = a1 >> 0x8\n   672: u8 [a0 + 0x1] = a1\n   675: ra = u64 [sp + 0x20]\n   678: s0 = u64 [sp + 0x18]\n   681: s1 = u64 [sp + 0x10]\n   684: sp = sp + 0x28\n   687: ret\n      : @21 (gas: 32)\n   689: sp = sp + 0xffffffffffffffa0\n   692: u64 [sp + 0x58] = ra\n   695: u64 [sp + 0x50] = s0\n   698: u64 [sp + 0x48] = s1\n   701: s0 = sp + 0x60\n   704: sp = sp & 0xffffffffffffffe0\n   707: s1 = a0\n   709: a0 = u64 [a1 + 0x18]\n   712: a2 = u64 [a1 + 0x10]\n   715: a3 = u64 [a1 + 0x8]\n   718: a1 = u64 [a1]\n   720: a0 = reverse a0\n   722: a2 = reverse a2\n   724: a3 = reverse a3\n   726: a1 = reverse a1\n   728: u64 [sp + 0x18] = a1\n   731: u64 [sp + 0x10] = a3\n   734: u64 [sp + 0x8] = a2\n   737: u64 [sp] = a0\n   739: u64 [sp + 56] = 0\n   742: u64 [sp + 48] = 0\n   745: u64 [sp + 40] = 0\n   748: u64 [sp + 32] = 0\n   751: u32 [sp + 64] = 0x20\n   755: i32 a1 = sp + 0\n   757: i32 a3 = sp + 0x20\n   760: i32 a4 = sp + 0x40\n   763: a2 = 0xffffffffffffffff\n   766: a0 = 0\n   768: ra = 0x6\n   771: ecalli 9 // 'get_storage'\n   773: fallthrough\n      : @22 [@dyn 3] (gas: 5)\n   774: a0 = u64 [sp + 0x38]\n   777: a1 = u64 [sp + 0x30]\n   780: a2 = u64 [sp + 0x28]\n   783: a3 = u64 [sp + 0x20]\n   786: t0 = 8, jump @523\n      : @23 [@dyn 4] (gas: 10)\n   791: u64 [s1 + 0x18] = a3\n   794: u64 [s1 + 0x10] = a2\n   797: u64 [s1 + 0x8] = a1\n   800: u64 [s1] = a0\n   802: sp = s0 + 0xffffffffffffffa0\n   805: ra = u64 [sp + 0x58]\n   808: s0 = u64 [sp + 0x50]\n   811: s1 = u64 [sp + 0x48]\n   814: sp = sp + 0x60\n   817: ret\n      : @24 [@dyn 5] (gas: 2)\n   819: u64 [sp + 0x58] = a1\n   822: ra = 12, jump @26\n      : @25 [@dyn 6] (gas: 58)\n   827: a1 = reverse s1\n   829: u64 [sp + 0x98] = a1\n   833: a1 = u64 [sp]\n   835: a1 = reverse a1\n   837: u64 [sp + 0x90] = a1\n   841: a1 = u64 [sp + 0x8]\n   844: a1 = reverse a1\n   846: u64 [sp + 0x88] = a1\n   850: a1 = u64 [sp + 0x10]\n   853: a1 = reverse a1\n   855: u64 [sp + 0x80] = a1\n   859: a1 = u64 [sp + 0x18]\n   862: a1 = reverse a1\n   864: u64 [sp + 0xb8] = a1\n   868: a1 = u64 [sp + 0x20]\n   871: a1 = reverse a1\n   873: u64 [sp + 0xb0] = a1\n   877: a1 = u64 [sp + 0x28]\n   880: a1 = reverse a1\n   882: u64 [sp + 0xa8] = a1\n   886: a1 = u64 [sp + 0x30]\n   889: a1 = reverse a1\n   891: u64 [sp + 0xa0] = a1\n   895: a1 = u64 [sp + 0x38]\n   898: a1 = reverse a1\n   900: u64 [sp + 0xd8] = a1\n   904: a1 = u64 [sp + 0x40]\n   907: a1 = reverse a1\n   909: u64 [sp + 0xd0] = a1\n   913: a1 = u64 [sp + 0x48]\n   916: a1 = reverse a1\n   918: u64 [sp + 0xc8] = a1\n   922: a1 = u64 [sp + 0x50]\n   925: a1 = reverse a1\n   927: u64 [sp + 0xc0] = a1\n   931: a1 = u64 [sp + 0x60]\n   934: a1 = reverse a1\n   936: u64 [sp + 0xf8] = a1\n   940: a1 = u64 [sp + 0x68]\n   943: a1 = reverse a1\n   945: u64 [sp + 0xf0] = a1\n   949: a1 = u64 [sp + 0x70]\n   952: a1 = reverse a1\n   954: u64 [sp + 0xe8] = a1\n   958: a1 = u64 [sp + 0x78]\n   961: a1 = reverse a1\n   963: u64 [sp + 0xe0] = a1\n   967: i32 a2 = a0 + 0\n   969: a3 = i32 [sp + 0x58]\n   972: i32 a0 = sp + 0x80\n   976: a1 = 0x4\n   979: ecalli 8 // 'deposit_event'\n   981: sp = s0 + 0xfffffffffffffee0\n   985: ra = u64 [sp + 0x118]\n   989: s0 = u64 [sp + 0x110]\n   993: s1 = u64 [sp + 0x108]\n   997: sp = sp + 0x120\n  1001: ret\n      : @26 (gas: 2)\n  1003: i32 a2 = a0 >> 0x10\n  1006: jump @31 if a2 != 0\n      : @27 (gas: 4)\n  1009: a1 = a1 + a0\n  1012: i32 a1 = a1 + 0x1f\n  1015: a1 = a1 & 0xffffffffffffffe0\n  1018: jump @31 if a1 >u 65536\n      : @28 (gas: 3)\n  1024: a2 = 0x2014c\n  1029: a3 = i32 [0x2014c]\n  1034: jump @30 if a3 >=u a1\n      : @29 (gas: 2)\n  1037: u32 [0x2014c] = a1\n  1042: fallthrough\n      : @30 (gas: 4)\n  1043: a1 = 0x20160\n  1048: i32 a0 = a0 + 0\n  1050: a0 = a0 + a1\n  1053: ret\n      : @31 (gas: 1)\n  1055: trap\n      : @32 (gas: 6)\n  1056: sp = sp + 0xfffffffffffffff0\n  1059: u64 [sp + 0x8] = ra\n  1062: u64 [sp] = s0\n  1064: s0 = a0 & 0x1\n  1067: ecalli 5 // 'call_data_size'\n  1069: fallthrough\n      : @33 (gas: 2)\n  1070: u32 [0x20148] = a0\n  1075: jump @35 if s0 == 0\n      : @34 (gas: 1)\n  1078: ra = 14, jump @36\n      : @35 [@dyn 7] (gas: 1)\n  1082: ra = 16, jump @45\n      : @36 [@dyn 8] (gas: 12)\n  1087: sp = sp + 0xffffffffffffffa0\n  1090: u64 [sp + 0x58] = ra\n  1093: u64 [sp + 0x50] = s0\n  1096: s0 = sp + 0x60\n  1099: sp = sp & 0xffffffffffffffe0\n  1102: u64 [sp + 24] = 0\n  1105: u64 [sp + 16] = 0\n  1108: u64 [sp + 0] = 0x80\n  1112: a0 = 0x40\n  1115: a1 = sp\n  1117: u64 [sp + 8] = 0\n  1120: ra = 18, jump @19\n      : @37 [@dyn 9] (gas: 7)\n  1125: u64 [sp + 56] = 0\n  1128: u64 [sp + 48] = 0\n  1131: u64 [sp + 40] = 0\n  1134: u64 [sp + 32] = 0\n  1137: i32 a0 = sp + 0x20\n  1140: ecalli 17 // 'value_transferred'\n  1142: fallthrough\n      : @38 (gas: 8)\n  1143: a0 = u64 [sp + 0x30]\n  1146: a1 = u64 [sp + 0x38]\n  1149: a2 = u64 [sp + 0x28]\n  1152: a3 = u64 [sp + 0x20]\n  1155: a1 = a1 | a2\n  1158: a0 = a0 | a3\n  1161: a0 = a0 | a1\n  1164: jump @40 if a0 == 0\n      : @39 (gas: 7)\n  1167: a1 = 0x20160\n  1172: i32 a1 = a1 + 0\n  1174: a0 = 0x1\n  1177: a2 = 0\n  1179: ra = 0x16\n  1182: ecalli 14 // 'seal_return'\n  1184: jump @45\n      : @40 (gas: 2)\n  1186: a1 = i32 [0x2014c]\n  1191: jump @42 if a1 >u 127\n      : @41 (gas: 2)\n  1195: u32 [0x2014c] = 0x80\n  1202: fallthrough\n      : @42 (gas: 6)\n  1203: a0 = 0x20160\n  1208: i32 a0 = a0 + 0x80\n  1212: a1 = 0\n  1214: a2 = 0\n  1216: ecalli 3 // 'call_data_copy'\n  1218: jump @15\n      : @43 (gas: 3)\n  1221: a0 = 0x80\n  1225: a1 = 0\n  1227: ra = 20, jump @26\n      : @44 [@dyn 10] (gas: 6)\n  1232: i32 a1 = a0 + 0\n  1234: a0 = 0\n  1236: a2 = 0\n  1238: ra = 0x16\n  1241: ecalli 14 // 'seal_return'\n  1243: fallthrough\n      : @45 [@dyn 11] (gas: 14)\n  1244: sp = sp + 0xfffffffffffffe80\n  1248: u64 [sp + 0x178] = ra\n  1252: u64 [sp + 0x170] = s0\n  1256: u64 [sp + 0x168] = s1\n  1260: s0 = sp + 0x180\n  1264: sp = sp & 0xffffffffffffffe0\n  1267: s1 = sp\n  1269: u64 [s1 + 216] = 0\n  1273: u64 [s1 + 208] = 0\n  1277: u64 [s1 + 192] = 0x80\n  1283: a0 = 0x40\n  1286: a1 = s1 + 0xc0\n  1290: u64 [s1 + 200] = 0\n  1294: ra = 24, jump @19\n      : @46 [@dyn 12] (gas: 4)\n  1299: a0 = 0x20148\n  1304: u64 [s1 + 0x18] = a0\n  1307: a0 = i32 [0x20148]\n  1312: jump @54 if a0 <u 4\n      : @47 (gas: 4)\n  1316: i32 a0 = s1 + 0xe0\n  1320: a1 = 0\n  1322: ecalli 4 // 'call_data_load'\n  1324: fallthrough\n      : @48 (gas: 2)\n  1325: a0 = i32 [s1 + 0xfc]\n  1329: jump @50 if a0 != 1192574850\n      : @49 (gas: 1)\n  1336: ra = 26, jump @92\n      : @50 [@dyn 13] (gas: 1)\n  1341: jump @54 if a0 != 755185067\n      : @51 (gas: 7)\n  1348: u64 [s1 + 280] = 0\n  1352: u64 [s1 + 272] = 0\n  1356: u64 [s1 + 264] = 0\n  1360: u64 [s1 + 256] = 0\n  1364: i32 a0 = s1 + 0x100\n  1368: ecalli 17 // 'value_transferred'\n  1370: fallthrough\n      : @52 (gas: 9)\n  1371: a4 = s1 + 0x100\n  1375: a0 = u64 [a4 + 0x10]\n  1378: a1 = u64 [a4 + 0x18]\n  1381: a2 = u64 [a4 + 0x8]\n  1384: a3 = u64 [a4]\n  1386: a1 = a1 | a2\n  1389: a0 = a0 | a3\n  1392: a0 = a0 | a1\n  1395: jump @56 if a0 == 0\n      : @53 (gas: 2)\n  1398: a1 = 0x20160\n  1403: jump @55\n      : @54 (gas: 2)\n  1405: a1 = 0x20160\n  1410: fallthrough\n      : @55 (gas: 5)\n  1411: i32 a1 = a1 + 0\n  1413: a0 = 0x1\n  1416: a2 = 0\n  1418: ecalli 14 // 'seal_return'\n  1420: fallthrough\n      : @56 (gas: 3)\n  1421: a0 = u64 [s1 + 0x18]\n  1424: a0 = i32 [a0]\n  1426: jump @58 if a0 >u 35\n      : @57 (gas: 2)\n  1430: a1 = 0x20160\n  1435: jump @55\n      : @58 (gas: 17)\n  1437: i32 a0 = s1 + 0x120\n  1441: a1 = 0x4\n  1444: ecalli 4 // 'call_data_load'\n  1446: a4 = s1 + 0x100\n  1450: a1 = u64 [a4 + 0x20]\n  1453: u64 [s1 + 0x18] = a1\n  1456: a2 = u64 [a4 + 0x28]\n  1459: u64 [s1 + 0x10] = a2\n  1462: a3 = u64 [a4 + 0x30]\n  1465: u64 [s1 + 0x8] = a3\n  1468: a0 = u64 [a4 + 0x38]\n  1471: u64 [s1 + 0xb8] = a0\n  1475: u64 [s1 + 0xb0] = a3\n  1479: u64 [s1 + 0xa8] = a2\n  1483: a0 = s1 + 0xa0\n  1487: u64 [s1 + 0xa0] = a1\n  1491: ra = 28, jump @71\n      : @59 [@dyn 14] (gas: 12)\n  1496: a0 = u64 [s1 + 0x8]\n  1499: a0 = a0 << 0x20\n  1502: a0 = a0 >> 0x20\n  1505: u64 [s1 + 152] = 0\n  1509: u64 [s1 + 0x90] = a0\n  1513: a0 = u64 [s1 + 0x10]\n  1516: u64 [s1 + 0x88] = a0\n  1520: a1 = s1 + 0x80\n  1524: a0 = u64 [s1 + 0x18]\n  1527: u64 [s1 + 0x80] = a0\n  1531: a0 = 0\n  1533: ra = 30, jump @19\n      : @60 [@dyn 15] (gas: 7)\n  1538: u64 [s1 + 120] = 0\n  1541: u64 [s1 + 112] = 0\n  1544: u64 [s1 + 104] = 0\n  1547: a0 = 0x20\n  1550: a1 = s1 + 0x60\n  1553: u64 [s1 + 96] = 0\n  1556: ra = 32, jump @19\n      : @61 [@dyn 16] (gas: 4)\n  1561: a0 = 0x2014c\n  1566: u64 [s1 + 0x18] = a0\n  1569: a0 = i32 [0x2014c]\n  1574: jump @63 if a0 >u 63\n      : @62 (gas: 3)\n  1578: a1 = u64 [s1 + 0x18]\n  1581: u32 [a1 + 0] = 0x40\n  1584: fallthrough\n      : @63 (gas: 12)\n  1585: a0 = sp + 0xffffffffffffffe0\n  1588: a2 = a0 & 0xffffffffffffffe0\n  1591: u64 [s1 + 0x8] = a2\n  1594: sp = a2\n  1596: a0 = 0x20160\n  1601: u64 [s1 + 0x10] = a0\n  1604: i32 a0 = a0 + 0\n  1606: i32 a2 = a2 + 0\n  1608: a1 = 0x40\n  1611: ra = 0x22\n  1614: ecalli 10 // 'hash_keccak_256'\n  1616: fallthrough\n      : @64 [@dyn 17] (gas: 6)\n  1617: a3 = u64 [s1 + 0x8]\n  1620: a0 = u64 [a3 + 0x18]\n  1623: a1 = u64 [a3 + 0x10]\n  1626: a2 = u64 [a3 + 0x8]\n  1629: a3 = u64 [a3]\n  1631: t0 = 36, jump @523\n      : @65 [@dyn 18] (gas: 8)\n  1636: a4 = s1 + 0x100\n  1640: u64 [a4 + 0x58] = a3\n  1643: u64 [a4 + 0x50] = a2\n  1646: u64 [a4 + 0x48] = a1\n  1649: u64 [a4 + 0x40] = a0\n  1652: a0 = s1 + 0x40\n  1655: a1 = s1 + 0x140\n  1659: ra = 38, jump @21\n      : @66 [@dyn 19] (gas: 11)\n  1664: a2 = u64 [s1 + 0x40]\n  1667: a0 = u64 [s1 + 0x48]\n  1670: a1 = u64 [s1 + 0x50]\n  1673: a3 = u64 [s1 + 0x58]\n  1676: u64 [s1 + 0x38] = a3\n  1679: u64 [s1 + 0x30] = a1\n  1682: u64 [s1 + 0x28] = a0\n  1685: a0 = 0x80\n  1689: a1 = s1 + 0x20\n  1692: u64 [s1 + 0x20] = a2\n  1695: ra = 40, jump @19\n      : @67 [@dyn 20] (gas: 3)\n  1700: a0 = u64 [s1 + 0x18]\n  1703: a0 = i32 [a0]\n  1705: jump @69 if a0 >u 159\n      : @68 (gas: 3)\n  1710: a1 = u64 [s1 + 0x18]\n  1713: u32 [a1 + 0] = 0xa0\n  1717: fallthrough\n      : @69 (gas: 7)\n  1718: a0 = u64 [s1 + 0x10]\n  1721: i32 a1 = a0 + 0x80\n  1725: a2 = 0x20\n  1728: a0 = 0\n  1730: ra = 0x2a\n  1733: ecalli 14 // 'seal_return'\n  1735: fallthrough\n      : @70 [@dyn 21] (gas: 8)\n  1736: a2 = u32 [a1 + 0x10]\n  1739: a3 = u64 [a1 + 0x8]\n  1742: a1 = u64 [a1]\n  1744: u64 [a0 + 24] = 0\n  1747: u64 [a0 + 0x10] = a2\n  1750: u64 [a0 + 0x8] = a3\n  1753: u64 [a0] = a1\n  1755: ret\n      : @71 (gas: 10)\n  1757: a1 = u64 [a0 + 0x10]\n  1760: a0 = u64 [a0 + 0x18]\n  1763: a2 = 0x100000000\n  1773: a2 = a2 ^ a1\n  1776: a2 = a2 | a0\n  1779: a1 = a1 >> 0x20\n  1782: a1 = a1 <u 0x1\n  1785: a1 = 0 if a0 != 0\n  1787: a1 = 0 if a2 == 0\n  1789: jump @73 if a1 == 0\n      : @72 (gas: 1)\n  1792: ret\n      : @73 (gas: 9)\n  1794: sp = sp + 0xfffffffffffffff8\n  1797: u64 [sp] = ra\n  1799: a1 = 0x20160\n  1804: i32 a1 = a1 + 0\n  1806: a0 = 0x1\n  1809: a2 = 0\n  1811: ra = 0x2c\n  1814: ecalli 14 // 'seal_return'\n  1816: fallthrough\n      : @74 [@dyn 22] (gas: 21)\n  1817: sp = sp + 0xfffffffffffffed0\n  1821: u64 [sp + 0x128] = ra\n  1825: u64 [sp + 0x120] = s0\n  1829: u64 [sp + 0x118] = s1\n  1833: s0 = sp + 0x130\n  1837: sp = sp & 0xfffffffffffffff0\n  1840: s1 = u64 [a1 + 0x10]\n  1843: a4 = u64 [a1 + 0x18]\n  1846: a5 = u64 [a1 + 0x8]\n  1849: t0 = u64 [a1]\n  1851: u64 [sp + 0x58] = a4\n  1854: u64 [sp + 0x68] = a5\n  1857: a1 = a5 | a4\n  1860: a4 = t0 | s1\n  1863: a4 = a4 | a1\n  1866: a4 = a4 >> 0x20\n  1869: a1 = a1 | s1\n  1872: a1 = a1 << 0x20\n  1875: a1 = a1 | a4\n  1878: u64 [sp] = a0\n  1880: jump @91 if a1 != 0\n      : @75 (gas: 24)\n  1884: a0 = u64 [a3 + 0x18]\n  1887: u64 [sp + 0x48] = a0\n  1890: a0 = u64 [a3 + 0x10]\n  1893: u64 [sp + 0x40] = a0\n  1896: a0 = u64 [a2 + 0x18]\n  1899: a1 = u64 [a2 + 0x10]\n  1902: a4 = u64 [a2]\n  1904: a2 = u64 [a2 + 0x8]\n  1907: a5 = u64 [a3 + 0x8]\n  1910: u64 [sp + 0x38] = a5\n  1913: a3 = u64 [a3]\n  1915: u64 [sp + 0x50] = a3\n  1918: a1 = a1 | a4\n  1921: a0 = a0 | a2\n  1924: a0 = a0 | a1\n  1927: a0 = a0 >u 0\n  1929: u64 [sp + 264] = 0\n  1933: u64 [sp + 256] = 0\n  1937: u64 [sp + 248] = 0\n  1941: a1 = sp + 0xf0\n  1945: u64 [sp + 0xf0] = a0\n  1949: a0 = t0\n  1951: u64 [sp + 0x60] = t0\n  1954: ra = 46, jump @19\n      : @76 [@dyn 23] (gas: 11)\n  1959: a2 = u64 [sp + 0x60]\n  1962: u64 [sp + 0x28] = s1\n  1965: a1 = u64 [sp + 0x58]\n  1968: a1 = a1 | s1\n  1971: a0 = 0xffffffe0\n  1981: a0 = a2 <u a0\n  1984: a3 = u64 [sp + 0x68]\n  1987: a0 = 0 if a3 != 0\n  1989: u64 [sp + 0x30] = a1\n  1992: a0 = 0 if a1 != 0\n  1994: jump @91 if a0 == 0\n      : @77 (gas: 8)\n  1998: i32 a0 = a2 + 0x20\n  2001: u64 [sp + 232] = 0\n  2005: u64 [sp + 224] = 0\n  2009: u64 [sp + 208] = 0x40\n  2014: a1 = sp + 0xd0\n  2018: u64 [sp + 216] = 0\n  2022: s1 = a2\n  2024: ra = 48, jump @19\n      : @78 [@dyn 24] (gas: 12)\n  2029: a2 = u64 [sp + 0x40]\n  2032: a3 = u64 [sp + 0x50]\n  2035: a0 = a3 | a2\n  2038: a1 = u64 [sp + 0x48]\n  2041: a4 = u64 [sp + 0x38]\n  2044: a1 = a1 | a4\n  2047: a0 = a0 | a1\n  2050: a0 = a0 >> 0x20\n  2053: a1 = a1 | a2\n  2056: a1 = a1 << 0x20\n  2059: a0 = a0 | a1\n  2062: jump @91 if a0 != 0\n      : @79 (gas: 3)\n  2066: a1 = a3\n  2068: a0 = sp + 0xb0\n  2072: ra = 50, jump @17\n      : @80 [@dyn 25] (gas: 9)\n  2077: a0 = 0x100000000\n  2087: u64 [sp + 0x8] = a0\n  2090: a0 = 0xffffffc0\n  2100: a0 = s1 <u a0\n  2103: a1 = u64 [sp + 0x68]\n  2106: a0 = 0 if a1 != 0\n  2108: a1 = u64 [sp + 0x30]\n  2111: a0 = 0 if a1 != 0\n  2113: jump @91 if a0 == 0\n      : @81 (gas: 15)\n  2117: a2 = u64 [sp + 0xc8]\n  2121: a3 = u64 [sp + 0xc0]\n  2125: a5 = u64 [sp + 0xb8]\n  2129: a4 = u64 [sp + 0xb0]\n  2133: i32 a0 = s1 + 0x40\n  2136: u64 [sp + 0x10] = a4\n  2139: u64 [sp + 0x90] = a4\n  2143: u64 [sp + 0x18] = a5\n  2146: u64 [sp + 0x98] = a5\n  2150: s1 = a3\n  2152: u64 [sp + 0xa0] = a3\n  2156: a1 = sp + 0x90\n  2160: u64 [sp + 0x20] = a2\n  2163: u64 [sp + 0xa8] = a2\n  2167: ra = 52, jump @19\n      : @82 [@dyn 26] (gas: 9)\n  2172: a2 = u64 [sp + 0x60]\n  2175: a0 = u64 [sp + 0x8]\n  2178: a0 = a0 + 0xffffffffffffffa0\n  2181: a0 = a2 <u a0\n  2184: a1 = u64 [sp + 0x68]\n  2187: a0 = 0 if a1 != 0\n  2189: a1 = u64 [sp + 0x30]\n  2192: a0 = 0 if a1 != 0\n  2194: jump @91 if a0 == 0\n      : @83 (gas: 10)\n  2198: a0 = u64 [sp + 0x48]\n  2201: a1 = u64 [sp + 0x40]\n  2204: a0 = a0 | a1\n  2207: a1 = 0xffffffe0\n  2217: a3 = u64 [sp + 0x50]\n  2220: a1 = a3 <u a1\n  2223: a4 = u64 [sp + 0x38]\n  2226: a1 = 0 if a4 != 0\n  2228: a1 = 0 if a0 != 0\n  2230: jump @91 if a1 == 0\n      : @84 (gas: 12)\n  2234: a1 = u64 [sp + 0x10]\n  2237: a0 = a1 | s1\n  2240: a4 = u64 [sp + 0x20]\n  2243: a5 = u64 [sp + 0x18]\n  2246: a4 = a4 | a5\n  2249: a0 = a0 | a4\n  2252: a0 = a0 >> 0x20\n  2255: u64 [sp + 0x48] = s1\n  2258: a4 = a4 | s1\n  2261: a4 = a4 << 0x20\n  2264: a0 = a0 | a4\n  2267: jump @91 if a0 != 0\n      : @85 (gas: 5)\n  2271: i32 a0 = a2 + 0x60\n  2274: i32 a3 = a3 + 0x20\n  2277: u64 [sp + 0x50] = a3\n  2280: s1 = a1\n  2282: ra = 54, jump @26\n      : @86 [@dyn 27] (gas: 4)\n  2287: u64 [sp + 0x40] = a0\n  2290: a0 = u64 [sp + 0x50]\n  2293: a1 = s1\n  2295: ra = 56, jump @26\n      : @87 [@dyn 28] (gas: 4)\n  2300: a1 = a0\n  2302: a0 = u64 [sp + 0x40]\n  2305: a2 = s1\n  2307: ra = 58, jump @0\n      : @88 [@dyn 29] (gas: 27)\n  2312: a0 = u64 [sp + 0x60]\n  2315: a0 = a0 + s1\n  2318: a1 = a0 <u s1\n  2321: a2 = u64 [sp + 0x68]\n  2324: a4 = u64 [sp + 0x18]\n  2327: a2 = a2 + a4\n  2330: a2 = a2 + a1\n  2333: a3 = a2 ^ a4\n  2336: a4 = a2 <u a4\n  2339: a4 = a1 if a3 == 0\n  2342: a1 = u64 [sp + 0x28]\n  2345: a3 = u64 [sp + 0x48]\n  2348: a1 = a1 + a3\n  2351: a3 = a1 <u a3\n  2354: a5 = u64 [sp + 0x58]\n  2357: s1 = u64 [sp + 0x20]\n  2360: a5 = a5 + s1\n  2363: a3 = a3 + a5\n  2366: a4 = a4 + a1\n  2369: a1 = a4 <u a1\n  2372: a1 = a1 + a3\n  2375: a1 = a1 | a4\n  2378: a3 = 0xffffffa0\n  2388: a3 = a0 <u a3\n  2391: a3 = 0 if a2 != 0\n  2393: a3 = 0 if a1 != 0\n  2395: jump @91 if a3 == 0\n      : @89 (gas: 7)\n  2399: i32 a0 = a0 + 0x60\n  2402: u64 [sp + 136] = 0\n  2406: u64 [sp + 128] = 0\n  2410: u64 [sp + 120] = 0\n  2413: a1 = sp + 0x70\n  2416: u64 [sp + 112] = 0\n  2419: ra = 60, jump @19\n      : @90 [@dyn 30] (gas: 35)\n  2424: s1 = u64 [sp + 0x10]\n  2427: s1 = s1 + 0x1f\n  2430: a0 = 0x1ffffffe0\n  2440: a0 = a0 & s1\n  2443: a1 = u64 [sp + 0x60]\n  2446: a0 = a0 + a1\n  2449: a1 = a0 <u a1\n  2452: a3 = u64 [sp + 0x68]\n  2455: a2 = a3 + a1\n  2458: a3 = a2 <u a3\n  2461: a3 = a1 if a1 == 0\n  2464: a1 = u64 [sp + 0x28]\n  2467: a3 = a3 + a1\n  2470: a1 = a3 <u a1\n  2473: a4 = u64 [sp + 0x58]\n  2476: a1 = a1 + a4\n  2479: a4 = a0 + 0x60\n  2482: a0 = a4 <u a0\n  2485: a5 = a2 + a0\n  2488: a2 = a5 <u a2\n  2491: a2 = a0 if a0 == 0\n  2494: a2 = a2 + a3\n  2497: a0 = a2 <u a3\n  2500: a0 = a0 + a1\n  2503: a1 = u64 [sp]\n  2505: u64 [a1] = a4\n  2507: u64 [a1 + 0x8] = a5\n  2510: u64 [a1 + 0x10] = a2\n  2513: u64 [a1 + 0x18] = a0\n  2516: sp = s0 + 0xfffffffffffffed0\n  2520: ra = u64 [sp + 0x128]\n  2524: s0 = u64 [sp + 0x120]\n  2528: s1 = u64 [sp + 0x118]\n  2532: sp = sp + 0x130\n  2536: ret\n      : @91 (gas: 1)\n  2538: trap\n      : @92 (gas: 11)\n  2539: sp = sp + 0xfffffffffffffde0\n  2543: a0 = sp + 0x200\n  2547: u64 [a0 + 0x18] = ra\n  2550: u64 [a0 + 0x10] = s0\n  2553: u64 [a0 + 0x8] = s1\n  2556: s0 = sp + 0x220\n  2560: sp = sp & 0xffffffffffffffe0\n  2563: a0 = 0x20148\n  2568: u64 [sp + 0x58] = a0\n  2571: a0 = i32 [0x20148]\n  2576: jump @108 if a0 <=u 67\n      : @93 (gas: 4)\n  2581: i32 a0 = sp + 0x1a0\n  2585: a1 = 0x4\n  2588: ecalli 4 // 'call_data_load'\n  2590: fallthrough\n      : @94 (gas: 7)\n  2591: t0 = u64 [sp + 0x1b8]\n  2595: a5 = u64 [sp + 0x1b0]\n  2599: s1 = u64 [sp + 0x1a8]\n  2603: a0 = a5 | t0\n  2606: a1 = s1 <u 0x1\n  2609: a1 = 0 if a0 != 0\n  2611: jump @109 if a1 == 0\n      : @95 (gas: 29)\n  2615: a4 = u64 [sp + 0x1a0]\n  2619: a0 = u64 [sp + 0x58]\n  2622: a0 = u32 [a0]\n  2624: a1 = a0 <u a4\n  2627: a2 = s1 >u 0\n  2629: a2 = a1 if s1 == 0\n  2632: a3 = -a5\n  2634: t1 = a3 - a2\n  2637: a2 = a3 <u a2\n  2640: u64 [sp + 0x48] = a5\n  2643: a3 = a5 >u 0\n  2645: a3 = a3 + t0\n  2648: a3 = -a3\n  2650: a3 = a3 - a2\n  2653: u64 [sp + 0x40] = s1\n  2656: a2 = -s1\n  2658: a2 = a2 - a1\n  2661: u64 [sp + 0x38] = a4\n  2664: a0 = a0 - a4\n  2667: a1 = a3 >s 0\n  2669: a5 = t1 >u 0\n  2671: a5 = a1 if a3 != 0\n  2674: a0 = a0 <u 0xc4\n  2678: a0 = a0 ^ 0x1\n  2681: a1 = a2 >u 0\n  2683: a1 = a0 if a2 == 0\n  2686: a3 = t1 | a3\n  2689: a1 = a5 if a3 != 0\n  2692: jump @110 if a1 == 0\n      : @96 (gas: 5)\n  2696: u64 [sp + 0x50] = t0\n  2699: i32 a0 = sp + 0x1c0\n  2703: a1 = 0x24\n  2706: ecalli 4 // 'call_data_load'\n  2708: fallthrough\n      : @97 (gas: 7)\n  2709: a5 = u64 [sp + 0x1d8]\n  2713: a3 = u64 [sp + 0x1d0]\n  2717: a4 = u64 [sp + 0x1c8]\n  2721: a0 = a3 | a5\n  2724: a1 = a4 <u 0x1\n  2727: a1 = 0 if a0 != 0\n  2729: jump @111 if a1 == 0\n      : @98 (gas: 19)\n  2733: s1 = u64 [sp + 0x1c0]\n  2737: a0 = u64 [sp + 0x58]\n  2740: a0 = u32 [a0]\n  2742: a1 = s1 + 0x23\n  2745: a2 = a1 <u s1\n  2748: t0 = a4 + a2\n  2751: u64 [sp + 0x18] = a4\n  2754: a4 = t0 <u a4\n  2757: a4 = a2 if a2 == 0\n  2760: a4 = a4 + a3\n  2763: u64 [sp + 0x20] = a3\n  2766: a2 = a4 <u a3\n  2769: u64 [sp + 0x28] = a5\n  2772: a2 = a2 + a5\n  2775: a2 = a2 | a4\n  2778: a0 = a1 <u a0\n  2781: a0 = 0 if t0 != 0\n  2783: a0 = 0 if a2 != 0\n  2785: jump @112 if a0 == 0\n      : @99 (gas: 4)\n  2789: i32 a1 = s1 + 0x4\n  2792: i32 a0 = sp + 0x1e0\n  2796: ecalli 4 // 'call_data_load'\n  2798: fallthrough\n      : @100 (gas: 8)\n  2799: a0 = u64 [sp + 0x1f8]\n  2803: t0 = u64 [sp + 0x1f0]\n  2807: a5 = u64 [sp + 0x1e8]\n  2811: u64 [sp + 0x30] = a0\n  2814: a0 = t0 | a0\n  2817: a3 = a5 <u 0x1\n  2820: a3 = 0 if a0 != 0\n  2822: jump @113 if a3 == 0\n      : @101 (gas: 44)\n  2826: a0 = u64 [sp + 0x1e0]\n  2830: a2 = s1 + 0x24\n  2833: a3 = a2 <u s1\n  2836: a1 = u64 [sp + 0x18]\n  2839: ra = a1 + a3\n  2842: a4 = ra <u a1\n  2845: a4 = a3 if a3 == 0\n  2848: a1 = u64 [sp + 0x20]\n  2851: a3 = a1 + a4\n  2854: t1 = a3 <u a1\n  2857: a1 = u64 [sp + 0x28]\n  2860: t2 = a1 + t1\n  2863: u64 [sp + 0x20] = a0\n  2866: a4 = a2 + a0\n  2869: u64 [sp + 0x8] = a2\n  2872: a1 = a4 <u a2\n  2875: u64 [sp + 0x10] = a5\n  2878: s1 = ra + a5\n  2881: s1 = s1 + a1\n  2884: a0 = s1 ^ ra\n  2887: t1 = s1 <u ra\n  2890: t1 = a1 if a0 == 0\n  2893: u64 [sp + 0x28] = t0\n  2896: a1 = a3 + t0\n  2899: a2 = a1 <u a3\n  2902: t0 = u64 [sp + 0x30]\n  2905: u64 [sp + 0x18] = t2\n  2908: a0 = t2 + t0\n  2911: a0 = a0 + a2\n  2914: a2 = u64 [sp + 0x58]\n  2917: a2 = u32 [a2]\n  2919: t1 = t1 + a1\n  2922: a1 = t1 <u a1\n  2925: a0 = a0 + a1\n  2928: a1 = a2 <u a4\n  2931: a2 = s1 <u 0x1\n  2934: a1 = a1 ^ 0x1\n  2937: a1 = a2 if s1 != 0\n  2940: a2 = a0 <u 0x1\n  2943: a4 = t1 <u 0x1\n  2946: a4 = a2 if a0 != 0\n  2949: a0 = t1 | a0\n  2952: a1 = a4 if a0 != 0\n  2955: jump @114 if a1 == 0\n      : @102 (gas: 34)\n  2959: a1 = u64 [sp + 0x38]\n  2962: a0 = a1 + 0x4\n  2965: a1 = a0 <u a1\n  2968: a4 = u64 [sp + 0x40]\n  2971: a2 = a4 + a1\n  2974: a4 = a2 <u a4\n  2977: a4 = a1 if a1 == 0\n  2980: a1 = u64 [sp + 0x48]\n  2983: a4 = a4 + a1\n  2986: a1 = a4 <u a1\n  2989: s1 = u64 [sp + 0x50]\n  2992: s1 = s1 + a1\n  2995: a1 = u64 [sp + 0x20]\n  2998: u64 [sp + 0x100] = a1\n  3002: a1 = u64 [sp + 0x8]\n  3005: u64 [sp + 0x120] = a1\n  3009: a1 = u64 [sp + 0x10]\n  3012: u64 [sp + 0x108] = a1\n  3016: u64 [sp + 0x128] = ra\n  3020: u64 [sp + 0x140] = a0\n  3024: a0 = u64 [sp + 0x28]\n  3027: u64 [sp + 0x110] = a0\n  3031: u64 [sp + 0x130] = a3\n  3035: u64 [sp + 0x118] = t0\n  3039: a0 = u64 [sp + 0x18]\n  3042: u64 [sp + 0x138] = a0\n  3046: u64 [sp + 0x148] = a2\n  3050: u64 [sp + 0x150] = a4\n  3054: a0 = sp + 0x160\n  3058: a1 = sp + 0x140\n  3062: a2 = sp + 0x120\n  3066: a3 = sp + 0x100\n  3070: u64 [sp + 0x158] = s1\n  3074: ra = 62, jump @254\n      : @103 [@dyn 31] (gas: 19)\n  3079: a0 = u64 [sp + 0x160]\n  3083: u64 [sp + 0x50] = a0\n  3086: a0 = u64 [sp + 0x168]\n  3090: u64 [sp + 0x48] = a0\n  3093: a0 = u64 [sp + 0x170]\n  3097: u64 [sp + 0x40] = a0\n  3100: a0 = u64 [sp + 0x178]\n  3104: u64 [sp + 0x38] = a0\n  3107: a0 = u64 [sp + 0x180]\n  3111: u64 [sp + 0x30] = a0\n  3114: a0 = u64 [sp + 0x188]\n  3118: u64 [sp + 0x28] = a0\n  3121: a0 = u64 [sp + 0x190]\n  3125: u64 [sp + 0x20] = a0\n  3128: a0 = u64 [sp + 0x198]\n  3132: u64 [sp + 0x10] = a0\n  3135: a0 = sp + 0xe0\n  3139: a1 = 0x40\n  3142: ra = 64, jump @17\n      : @104 [@dyn 32] (gas: 32)\n  3147: a3 = u64 [sp + 0xf8]\n  3151: u64 [sp + 0x58] = a3\n  3154: a0 = u64 [sp + 0xf0]\n  3158: u64 [sp + 0x18] = a0\n  3161: a2 = u64 [sp + 0xe8]\n  3165: u64 [sp + 0x8] = a2\n  3168: s1 = u64 [sp + 0xe0]\n  3172: a1 = u64 [sp + 0x10]\n  3175: u64 [sp + 0x78] = a1\n  3178: a1 = u64 [sp + 0x20]\n  3181: u64 [sp + 0x70] = a1\n  3184: a1 = u64 [sp + 0x28]\n  3187: u64 [sp + 0x68] = a1\n  3190: a1 = u64 [sp + 0x30]\n  3193: u64 [sp + 0x60] = a1\n  3196: a1 = u64 [sp + 0x38]\n  3199: u64 [sp + 0x98] = a1\n  3203: a1 = u64 [sp + 0x40]\n  3206: u64 [sp + 0x90] = a1\n  3210: a1 = u64 [sp + 0x48]\n  3213: u64 [sp + 0x88] = a1\n  3217: a1 = u64 [sp + 0x50]\n  3220: u64 [sp + 0x80] = a1\n  3224: u64 [sp + 0xb8] = a3\n  3228: u64 [sp + 0xb0] = a0\n  3232: u64 [sp + 0xa8] = a2\n  3236: a0 = sp + 0xc0\n  3240: a1 = sp + 0xa0\n  3244: a2 = sp + 0x80\n  3248: a3 = sp + 0x60\n  3251: u64 [sp + 0xa0] = s1\n  3255: ra = 66, jump @74\n      : @105 [@dyn 33] (gas: 12)\n  3260: a4 = u64 [sp + 0x8]\n  3263: a2 = s1\n  3265: a0 = u64 [sp + 0x58]\n  3268: a0 = a0 | a4\n  3271: s1 = u64 [sp + 0x18]\n  3274: a1 = a2 | s1\n  3277: a1 = a1 | a0\n  3280: a1 = a1 >> 0x20\n  3283: a0 = a0 | s1\n  3286: a0 = a0 << 0x20\n  3289: a0 = a0 | a1\n  3292: jump @107 if a0 != 0\n      : @106 (gas: 29)\n  3295: a0 = u64 [sp + 0xc8]\n  3299: a1 = u64 [sp + 0xd8]\n  3303: u64 [sp + 0x50] = a1\n  3306: t1 = u64 [sp + 0xc0]\n  3310: a1 = u64 [sp + 0xd0]\n  3314: t2 = a0 ^ a4\n  3317: a5 = a0 <u a4\n  3320: ra = t1 <u a2\n  3323: a5 = ra if t2 == 0\n  3326: a3 = a1 - s1\n  3329: t2 = a3 - a5\n  3332: t0 = a3 <u a5\n  3335: a3 = a1 <u s1\n  3338: a1 = u64 [sp + 0x58]\n  3341: a5 = u64 [sp + 0x50]\n  3344: a5 = a5 - a1\n  3347: a5 = a5 - a3\n  3350: a5 = a5 - t0\n  3353: a0 = a0 - a4\n  3356: a0 = a0 - ra\n  3359: s1 = t1 - a2\n  3362: a0 = a0 | a5\n  3365: a1 = s1 | t2\n  3368: a1 = a1 | a0\n  3371: a0 = a0 | t2\n  3374: a1 = a1 >> 0x20\n  3377: a0 = a0 << 0x20\n  3380: a0 = a0 | a1\n  3383: jump @116 if a0 == 0\n      : @107 (gas: 1)\n  3386: trap\n      : @108 (gas: 2)\n  3387: a1 = 0x20160\n  3392: jump @115\n      : @109 (gas: 2)\n  3394: a1 = 0x20160\n  3399: jump @115\n      : @110 (gas: 2)\n  3401: a1 = 0x20160\n  3406: jump @115\n      : @111 (gas: 2)\n  3408: a1 = 0x20160\n  3413: jump @115\n      : @112 (gas: 2)\n  3415: a1 = 0x20160\n  3420: jump @115\n      : @113 (gas: 2)\n  3422: a1 = 0x20160\n  3427: jump @115\n      : @114 (gas: 2)\n  3429: a1 = 0x20160\n  3434: fallthrough\n      : @115 (gas: 5)\n  3435: i32 a1 = a1 + 0\n  3437: a0 = 0x1\n  3440: a2 = 0\n  3442: ecalli 14 // 'seal_return'\n  3444: fallthrough\n      : @116 (gas: 3)\n  3445: a0 = a2\n  3447: a1 = s1\n  3449: ra = 68, jump @26\n      : @117 [@dyn 34] (gas: 6)\n  3454: i32 a1 = a0 + 0\n  3456: i32 a2 = s1 + 0\n  3458: a0 = 0\n  3460: ra = 0x46\n  3463: ecalli 14 // 'seal_return'\n  3465: fallthrough\n      : @118 [@dyn 35] (gas: 18)\n  3466: sp = sp + 0xffffffffffffff80\n  3469: u64 [sp + 0x78] = ra\n  3472: u64 [sp + 0x70] = s0\n  3475: u64 [sp + 0x68] = s1\n  3478: s0 = sp + 0x80\n  3482: sp = sp & 0xffffffffffffffe0\n  3485: s1 = sp\n  3487: a2 = u64 [a1]\n  3489: a3 = u64 [a1 + 0x8]\n  3492: a1 = u32 [a1 + 0x10]\n  3495: u64 [s1 + 0x18] = a0\n  3498: u64 [s1 + 88] = 0\n  3501: u64 [s1 + 0x50] = a1\n  3504: u64 [s1 + 0x48] = a3\n  3507: a1 = s1 + 0x40\n  3510: u64 [s1 + 0x40] = a2\n  3513: a0 = 0\n  3515: ra = 72, jump @19\n      : @119 [@dyn 36] (gas: 7)\n  3520: u64 [s1 + 56] = 0\n  3523: u64 [s1 + 48] = 0\n  3526: u64 [s1 + 40] = 0\n  3529: a0 = 0x20\n  3532: a1 = s1 + a0\n  3535: u64 [s1 + 32] = 0\n  3538: ra = 74, jump @19\n      : @120 [@dyn 37] (gas: 2)\n  3543: a1 = i32 [0x2014c]\n  3548: jump @122 if a1 >u 63\n      : @121 (gas: 2)\n  3552: u32 [0x2014c] = 0x40\n  3558: fallthrough\n      : @122 (gas: 13)\n  3559: a0 = sp + 0xffffffffffffffe0\n  3562: a2 = a0 & 0xffffffffffffffe0\n  3565: u64 [s1 + 0x10] = a2\n  3568: sp = a2\n  3570: a0 = 0x20160\n  3575: i32 a0 = a0 + 0\n  3577: i32 a2 = a2 + 0\n  3579: a1 = 0x40\n  3582: ra = 0x4c\n  3585: ecalli 10 // 'hash_keccak_256'\n  3587: a3 = u64 [s1 + 0x10]\n  3590: t0 = 0x4e\n  3593: jump @520\n      : @123 [@dyn 38] (gas: 2)\n  3596: a3 = u64 [s1 + 0x10]\n  3599: t0 = 78, jump @520\n      : @124 [@dyn 39] (gas: 6)\n  3604: sp = s0 + 0xffffffffffffff80\n  3607: ra = u64 [sp + 0x78]\n  3610: s0 = u64 [sp + 0x70]\n  3613: s1 = u64 [sp + 0x68]\n  3616: sp = sp + 0x80\n  3620: ret\n      : @125 (gas: 12)\n  3622: a2 = u64 [a1 + 0x10]\n  3625: a3 = u64 [a1 + 0x18]\n  3628: a4 = u64 [a1 + 0x8]\n  3631: a1 = u64 [a1]\n  3633: a3 = a3 | a4\n  3636: a4 = a1 | a2\n  3639: a4 = a4 | a3\n  3642: a4 = a4 >> 0x20\n  3645: a2 = a2 | a3\n  3648: a2 = a2 << 0x20\n  3651: a2 = a2 | a4\n  3654: jump @128 if a2 != 0\n      : @126 (gas: 24)\n  3657: sp = sp + 0xffffffffffffff80\n  3660: u64 [sp + 0x78] = ra\n  3663: u64 [sp + 0x70] = s0\n  3666: u64 [sp + 0x68] = s1\n  3669: s0 = sp + 0x80\n  3673: sp = sp & 0xffffffffffffffe0\n  3676: s1 = a0\n  3678: i32 a1 = a1 + 0\n  3680: i32 a0 = sp + 0x40\n  3683: ecalli 4 // 'call_data_load'\n  3685: a1 = u64 [sp + 0x40]\n  3688: u64 [sp] = a1\n  3690: a0 = u64 [sp + 0x48]\n  3693: u64 [sp + 0x18] = a0\n  3696: a2 = u64 [sp + 0x50]\n  3699: u64 [sp + 0x10] = a2\n  3702: a3 = u64 [sp + 0x58]\n  3705: u64 [sp + 0x8] = a3\n  3708: u64 [sp + 0x38] = a3\n  3711: u64 [sp + 0x30] = a2\n  3714: u64 [sp + 0x28] = a0\n  3717: a0 = sp + 0x20\n  3720: u64 [sp + 0x20] = a1\n  3723: ra = 80, jump @71\n      : @127 [@dyn 40] (gas: 14)\n  3728: a0 = u64 [sp + 0x8]\n  3731: u64 [s1 + 0x18] = a0\n  3734: a0 = u64 [sp + 0x10]\n  3737: u64 [s1 + 0x10] = a0\n  3740: a0 = u64 [sp + 0x18]\n  3743: u64 [s1 + 0x8] = a0\n  3746: a0 = u64 [sp]\n  3748: u64 [s1] = a0\n  3750: sp = s0 + 0xffffffffffffff80\n  3753: ra = u64 [sp + 0x78]\n  3756: s0 = u64 [sp + 0x70]\n  3759: s1 = u64 [sp + 0x68]\n  3762: sp = sp + 0x80\n  3766: ret\n      : @128 (gas: 1)\n  3768: trap\n      : @129 [@dyn 41] (gas: 1)\n  3769: jump @131 if a0 == 0\n      : @130 (gas: 6)\n  3772: sp = s0 + 0xffffffffffffff20\n  3776: ra = u64 [sp + 0xd8]\n  3780: s0 = u64 [sp + 0xd0]\n  3784: s1 = u64 [sp + 0xc8]\n  3788: sp = sp + 0xe0\n  3792: ret\n      : @131 (gas: 3)\n  3794: a0 = sp + 0xa0\n  3798: a1 = 0x40\n  3801: ra = 84, jump @17\n      : @132 [@dyn 42] (gas: 5)\n  3806: a2 = u64 [sp + 0xb8]\n  3810: s1 = u64 [sp + 0xb0]\n  3814: a0 = u64 [sp + 0xa8]\n  3818: a1 = u64 [sp + 0xa0]\n  3822: t0 = 86, jump @516\n      : @133 [@dyn 43] (gas: 1)\n  3827: jump @144 if a0 != 0\n      : @134 (gas: 1)\n  3830: t0 = 88, jump @527\n      : @135 [@dyn 44] (gas: 1)\n  3835: ra = 90, jump @19\n      : @136 [@dyn 45] (gas: 1)\n  3840: t0 = 92, jump @513\n      : @137 [@dyn 46] (gas: 1)\n  3845: jump @144 if a0 == 0\n      : @138 (gas: 8)\n  3848: a0 = u64 [sp + 0x18]\n  3851: i32 a0 = a0 + 0x4\n  3854: u64 [sp + 120] = 0\n  3857: u64 [sp + 112] = 0\n  3860: u64 [sp + 96] = 0x20\n  3864: a1 = sp + 0x60\n  3867: u64 [sp + 104] = 0\n  3870: ra = 94, jump @19\n      : @139 [@dyn 47] (gas: 1)\n  3875: t0 = 96, jump @514\n      : @140 [@dyn 48] (gas: 1)\n  3880: jump @144 if a0 == 0\n      : @141 (gas: 8)\n  3883: s1 = u64 [sp + 0x18]\n  3886: i32 a0 = s1 + 0x24\n  3889: u64 [sp + 88] = 0\n  3892: u64 [sp + 80] = 0\n  3895: u64 [sp + 64] = 0x1c\n  3899: a1 = sp + 0x40\n  3902: u64 [sp + 72] = 0\n  3905: ra = 98, jump @19\n      : @142 [@dyn 49] (gas: 2)\n  3910: a0 = 0xffffffbc\n  3920: t0 = 100, jump @515\n      : @143 [@dyn 50] (gas: 1)\n  3925: jump @145 if a0 != 0\n      : @144 (gas: 1)\n  3928: trap\n      : @145 (gas: 12)\n  3929: s1 = u64 [sp + 0x18]\n  3932: i32 a0 = s1 + 0x44\n  3935: a1 = u64 [0x20000]\n  3940: a2 = u64 [0x20008]\n  3945: a3 = u64 [0x20010]\n  3950: u64 [sp + 0x38] = a1\n  3953: u64 [sp + 0x30] = a2\n  3956: u64 [sp + 0x28] = a3\n  3959: a2 = 0x6f6e636500000000\n  3969: a1 = sp + 0x20\n  3972: u64 [sp + 0x20] = a2\n  3975: ra = 102, jump @19\n      : @146 [@dyn 51] (gas: 3)\n  3980: a1 = 0x64\n  3983: a0 = s1\n  3985: ra = 104, jump @26\n      : @147 [@dyn 52] (gas: 6)\n  3990: i32 a1 = a0 + 0\n  3992: a0 = 0x1\n  3995: a2 = 0x64\n  3998: ra = 0x6a\n  4001: ecalli 14 // 'seal_return'\n  4003: fallthrough\n      : @148 [@dyn 53] (gas: 6)\n  4004: sp = sp + 0xffffffffffffff00\n  4008: u64 [sp + 0xf8] = ra\n  4012: u64 [sp + 0xf0] = s0\n  4016: u64 [sp + 0xe8] = s1\n  4020: s0 = sp + 0x100\n  4024: t0 = 108, jump @518\n      : @149 [@dyn 54] (gas: 1)\n  4029: jump @151 if a0 == 0\n      : @150 (gas: 6)\n  4032: sp = s0 + 0xffffffffffffff00\n  4036: ra = u64 [sp + 0xf8]\n  4040: s0 = u64 [sp + 0xf0]\n  4044: s1 = u64 [sp + 0xe8]\n  4048: sp = sp + 0x100\n  4052: ret\n      : @151 (gas: 3)\n  4054: a0 = sp + 0xc0\n  4058: a1 = 0x40\n  4061: ra = 110, jump @17\n      : @152 [@dyn 55] (gas: 5)\n  4066: a2 = u64 [sp + 0xd8]\n  4070: s1 = u64 [sp + 0xd0]\n  4074: a0 = u64 [sp + 0xc8]\n  4078: a1 = u64 [sp + 0xc0]\n  4082: t0 = 112, jump @516\n      : @153 [@dyn 56] (gas: 1)\n  4087: jump @167 if a0 != 0\n      : @154 (gas: 1)\n  4091: t0 = 114, jump @526\n      : @155 [@dyn 57] (gas: 1)\n  4096: ra = 116, jump @19\n      : @156 [@dyn 58] (gas: 1)\n  4101: t0 = 118, jump @513\n      : @157 [@dyn 59] (gas: 1)\n  4106: jump @167 if a0 == 0\n      : @158 (gas: 8)\n  4110: a0 = u64 [sp + 0x18]\n  4113: i32 a0 = a0 + 0x4\n  4116: u64 [sp + 152] = 0\n  4120: u64 [sp + 144] = 0\n  4124: u64 [sp + 128] = 0x20\n  4129: a1 = sp + 0x80\n  4133: u64 [sp + 136] = 0\n  4137: ra = 120, jump @19\n      : @159 [@dyn 60] (gas: 1)\n  4142: t0 = 122, jump @514\n      : @160 [@dyn 61] (gas: 1)\n  4147: jump @167 if a0 == 0\n      : @161 (gas: 8)\n  4150: s1 = u64 [sp + 0x18]\n  4153: i32 a0 = s1 + 0x24\n  4156: u64 [sp + 120] = 0\n  4159: u64 [sp + 112] = 0\n  4162: u64 [sp + 96] = 0x2c\n  4166: a1 = sp + 0x60\n  4169: u64 [sp + 104] = 0\n  4172: ra = 124, jump @19\n      : @162 [@dyn 62] (gas: 4)\n  4177: a0 = 0x100000000\n  4187: u64 [sp] = a0\n  4189: a0 = 0xffffffbc\n  4199: t0 = 126, jump @515\n      : @163 [@dyn 63] (gas: 1)\n  4204: jump @167 if a0 == 0\n      : @164 (gas: 12)\n  4207: s1 = u64 [sp + 0x18]\n  4210: i32 a0 = s1 + 0x44\n  4213: a1 = u64 [0x20018]\n  4218: u64 [sp + 0x58] = a1\n  4221: a1 = u64 [0x20020]\n  4226: a2 = u64 [0x20028]\n  4231: a3 = u64 [0x20030]\n  4236: u64 [sp + 0x50] = a1\n  4239: u64 [sp + 0x48] = a2\n  4242: a1 = sp + 0x40\n  4245: u64 [sp + 0x40] = a3\n  4248: ra = 128, jump @19\n      : @165 [@dyn 64] (gas: 3)\n  4254: a0 = u64 [sp]\n  4256: a0 = a0 + 0xffffffffffffff9c\n  4259: t0 = 130, jump @515\n      : @166 [@dyn 65] (gas: 1)\n  4265: jump @168 if a0 != 0\n      : @167 (gas: 1)\n  4268: trap\n      : @168 (gas: 10)\n  4269: s1 = u64 [sp + 0x18]\n  4272: i32 a0 = s1 + 0x64\n  4275: a1 = u64 [0x20038]\n  4280: u64 [sp + 40] = 0\n  4283: u64 [sp + 0x38] = a1\n  4286: a1 = 0x696c656400000000\n  4296: u64 [sp + 0x30] = a1\n  4299: a1 = sp + 0x20\n  4302: u64 [sp + 32] = 0\n  4305: ra = 132, jump @19\n      : @169 [@dyn 66] (gas: 3)\n  4311: a1 = 0x84\n  4315: a0 = s1\n  4317: ra = 134, jump @26\n      : @170 [@dyn 67] (gas: 6)\n  4323: i32 a1 = a0 + 0\n  4325: a0 = 0x1\n  4328: a2 = 0x84\n  4332: ra = 0x88\n  4336: ecalli 14 // 'seal_return'\n  4338: fallthrough\n      : @171 [@dyn 68] (gas: 16)\n  4339: a2 = u64 [a1]\n  4341: t0 = u64 [a1 + 0x18]\n  4344: a3 = u64 [a1 + 0x8]\n  4347: a5 = u64 [a1 + 0x10]\n  4350: a4 = a2 + 0x1\n  4353: a2 = a4 <u 0x1\n  4356: a2 = a2 + a3\n  4359: a3 = a4 | a2\n  4362: a3 = a3 <u 0x1\n  4365: a3 = a3 + a5\n  4368: a5 = a3 <u a5\n  4371: a5 = a5 + t0\n  4374: t0 = a2 | a5\n  4377: a1 = a4 | a3\n  4380: a1 = a1 | t0\n  4383: jump @173 if a1 == 0\n      : @172 (gas: 5)\n  4386: u64 [a0] = a4\n  4388: u64 [a0 + 0x8] = a2\n  4391: u64 [a0 + 0x10] = a3\n  4394: u64 [a0 + 0x18] = a5\n  4397: ret\n      : @173 (gas: 1)\n  4399: t0 = 138, jump @519\n      : @174 [@dyn 69] (gas: 1)\n  4405: ra = 140, jump @19\n      : @175 [@dyn 70] (gas: 7)\n  4411: u64 [sp + 24] = 0\n  4414: u64 [sp + 16] = 0\n  4417: u64 [sp + 0] = 0x11\n  4420: a0 = 0x4\n  4423: a1 = sp\n  4425: u64 [sp + 8] = 0\n  4428: ra = 142, jump @19\n      : @176 [@dyn 71] (gas: 2)\n  4434: a1 = i32 [0x2014c]\n  4439: jump @178 if a1 >u 63\n      : @177 (gas: 2)\n  4443: u32 [0x2014c] = 0x40\n  4449: fallthrough\n      : @178 (gas: 7)\n  4450: a1 = 0x20160\n  4455: i32 a1 = a1 + 0\n  4457: a0 = 0x1\n  4460: a2 = 0x24\n  4463: ra = 0x90\n  4467: ecalli 14 // 'seal_return'\n  4469: fallthrough\n      : @179 [@dyn 72] (gas: 19)\n  4470: sp = sp + 0xffffffffffffff60\n  4474: u64 [sp + 0x98] = ra\n  4478: u64 [sp + 0x90] = s0\n  4482: u64 [sp + 0x88] = s1\n  4486: s0 = sp + 0xa0\n  4490: sp = sp & 0xffffffffffffffe0\n  4493: a3 = u64 [a2 + 0x10]\n  4496: a4 = u64 [a2 + 0x18]\n  4499: a5 = u64 [a2 + 0x8]\n  4502: a2 = u64 [a2]\n  4504: a4 = a4 | a5\n  4507: a5 = a2 | a3\n  4510: a5 = a5 | a4\n  4513: a5 = a5 >> 0x20\n  4516: a3 = a3 | a4\n  4519: a3 = a3 << 0x20\n  4522: a3 = a3 | a5\n  4525: u64 [sp + 0x20] = a0\n  4528: jump @187 if a3 != 0\n      : @180 (gas: 11)\n  4532: a0 = u64 [a1 + 0x18]\n  4535: u64 [sp + 0x38] = a0\n  4538: a0 = u64 [a1 + 0x10]\n  4541: u64 [sp + 0x30] = a0\n  4544: s1 = u64 [a1 + 0x8]\n  4547: a0 = u64 [a1]\n  4549: u64 [sp + 0x28] = a0\n  4552: i32 a1 = a2 + 0\n  4554: i32 a0 = sp + 0x40\n  4557: ecalli 4 // 'call_data_load'\n  4559: fallthrough\n      : @181 (gas: 51)\n  4560: a0 = 0x20148\n  4565: u64 [sp + 0x8] = a0\n  4568: a2 = u32 [0x20148]\n  4573: a0 = u64 [sp + 0x58]\n  4576: u64 [sp + 0x10] = a0\n  4579: t1 = u64 [sp + 0x50]\n  4582: a1 = u64 [sp + 0x28]\n  4585: a3 = a2 <u a1\n  4588: a4 = s1 >u 0\n  4590: a4 = a3 if s1 == 0\n  4593: t0 = u64 [sp + 0x30]\n  4596: t2 = -t0\n  4598: u64 [sp + 0x18] = s1\n  4601: a5 = s1 + a3\n  4604: a0 = -a5\n  4606: a2 = a2 - a1\n  4609: a3 = a2 + 0xffffffffffffffe1\n  4612: a2 = a3 <u a2\n  4615: a5 = a5 ^ 0xffffffffffffffff\n  4618: a5 = a5 + a2\n  4621: a1 = a5 ^ a0\n  4624: a0 = a5 <u a0\n  4627: a0 = a2 if a1 == 0\n  4630: a1 = t2 <u a4\n  4633: a2 = t0\n  4635: t0 = u64 [sp + 0x10]\n  4638: a2 = a2 >u 0\n  4640: s1 = u64 [sp + 0x38]\n  4643: a2 = a2 + s1\n  4646: a1 = a1 + a2\n  4649: a2 = u64 [sp + 0x48]\n  4652: s1 = t2 - a4\n  4655: a4 = s1 <u 0x1\n  4658: a1 = a1 + a4\n  4661: a4 = u64 [sp + 0x40]\n  4664: s1 = s1 + 0xffffffffffffffff\n  4667: a0 = a0 + s1\n  4670: s1 = a0 <u s1\n  4673: s1 = s1 - a1\n  4676: a1 = a2 ^ a5\n  4679: a5 = a2 <u a5\n  4682: a3 = a4 <u a3\n  4685: a3 = a5 if a1 != 0\n  4688: a1 = t1 <u a0\n  4691: a5 = t0 ^ s1\n  4694: s1 = t0 <s s1\n  4697: s1 = a1 if a5 == 0\n  4700: a0 = t1 ^ a0\n  4703: a0 = a0 | a5\n  4706: a3 = s1 if a0 != 0\n  4709: jump @188 if a3 == 0\n      : @182 (gas: 28)\n  4713: a0 = u64 [sp + 0x28]\n  4716: a5 = a4 + a0\n  4719: a0 = a5 <u a4\n  4722: s1 = u64 [sp + 0x18]\n  4725: s1 = s1 + a2\n  4728: s1 = s1 + a0\n  4731: a1 = s1 ^ a2\n  4734: a2 = s1 <u a2\n  4737: a2 = a0 if a1 == 0\n  4740: a0 = u64 [sp + 0x30]\n  4743: a0 = a0 + t1\n  4746: a3 = a0 + a2\n  4749: a1 = a3 <u a0\n  4752: a0 = a0 <u t1\n  4755: a2 = u64 [sp + 0x38]\n  4758: t0 = t0 + a2\n  4761: a0 = a0 + t0\n  4764: a1 = a1 + a0\n  4767: a0 = a5 | a3\n  4770: u64 [sp + 0x30] = a1\n  4773: a1 = a1 | s1\n  4776: a0 = a0 | a1\n  4779: a0 = a0 >> 0x20\n  4782: u64 [sp + 0x38] = a3\n  4785: a1 = a1 | a3\n  4788: a1 = a1 << 0x20\n  4791: a0 = a0 | a1\n  4794: jump @187 if a0 != 0\n      : @183 (gas: 5)\n  4798: u64 [sp + 0x28] = a5\n  4801: i32 a1 = a5 + 0\n  4803: i32 a0 = sp + 0x60\n  4806: ecalli 4 // 'call_data_load'\n  4808: fallthrough\n      : @184 (gas: 7)\n  4809: ra = u64 [sp + 0x78]\n  4812: a2 = u64 [sp + 0x70]\n  4815: a5 = u64 [sp + 0x68]\n  4818: a0 = a2 | ra\n  4821: a3 = a5 <u 0x1\n  4824: a3 = 0 if a0 != 0\n  4826: jump @189 if a3 == 0\n      : @185 (gas: 51)\n  4830: t1 = u64 [sp + 0x60]\n  4833: a0 = u64 [sp + 0x28]\n  4836: a1 = a0 + 0x20\n  4839: u64 [sp + 0x18] = a1\n  4842: a0 = a1 <u a0\n  4845: a1 = s1 + a0\n  4848: u64 [sp + 0x10] = a1\n  4851: a3 = a1 <u s1\n  4854: a3 = a0 if a0 == 0\n  4857: a0 = u64 [sp + 0x8]\n  4860: s1 = u32 [a0]\n  4862: a0 = u64 [sp + 0x38]\n  4865: a3 = a3 + a0\n  4868: a0 = a3 <u a0\n  4871: a1 = u64 [sp + 0x30]\n  4874: a0 = a0 + a1\n  4877: u64 [sp + 0x8] = a0\n  4880: a4 = s1 <u t1\n  4883: a1 = a5 >u 0\n  4885: a1 = a4 if a5 == 0\n  4888: t0 = -a2\n  4890: a0 = t0 <u a1\n  4893: u64 [sp + 0x28] = a0\n  4896: u64 [sp + 0x30] = a2\n  4899: t2 = a2 >u 0\n  4901: u64 [sp + 0x38] = ra\n  4904: t2 = t2 + ra\n  4907: ra = u64 [sp + 0x8]\n  4910: a0 = -t2\n  4912: a2 = u64 [sp + 0x28]\n  4915: a0 = a0 - a2\n  4918: a2 = u64 [sp + 0x10]\n  4921: a1 = t0 - a1\n  4924: u64 [sp + 0x28] = t1\n  4927: t2 = s1 - t1\n  4930: t1 = a5\n  4932: s1 = -a5\n  4934: s1 = s1 - a4\n  4937: a4 = a2 ^ s1\n  4940: s1 = s1 <u a2\n  4943: t0 = u64 [sp + 0x18]\n  4946: a5 = t2 <u t0\n  4949: a5 = s1 if a4 != 0\n  4952: a4 = a1 <u a3\n  4955: s1 = ra ^ a0\n  4958: a0 = a0 <s ra\n  4961: a0 = a4 if s1 == 0\n  4964: a1 = a1 ^ a3\n  4967: a1 = a1 | s1\n  4970: a5 = a0 if a1 != 0\n  4973: jump @190 if a5 != 0\n      : @186 (gas: 18)\n  4976: a0 = u64 [sp + 0x20]\n  4979: a1 = u64 [sp + 0x28]\n  4982: u64 [a0 + 0x20] = a1\n  4985: u64 [a0] = t0\n  4987: u64 [a0 + 0x28] = t1\n  4990: u64 [a0 + 0x8] = a2\n  4993: a1 = u64 [sp + 0x30]\n  4996: u64 [a0 + 0x30] = a1\n  4999: u64 [a0 + 0x10] = a3\n  5002: a1 = u64 [sp + 0x38]\n  5005: u64 [a0 + 0x38] = a1\n  5008: u64 [a0 + 0x18] = ra\n  5011: sp = s0 + 0xffffffffffffff60\n  5015: ra = u64 [sp + 0x98]\n  5019: s0 = u64 [sp + 0x90]\n  5023: s1 = u64 [sp + 0x88]\n  5027: sp = sp + 0xa0\n  5031: ret\n      : @187 (gas: 1)\n  5033: trap\n      : @188 (gas: 2)\n  5034: a1 = 0x20160\n  5039: jump @191\n      : @189 (gas: 2)\n  5041: a1 = 0x20160\n  5046: jump @191\n      : @190 (gas: 2)\n  5048: a1 = 0x20160\n  5053: fallthrough\n      : @191 (gas: 6)\n  5054: i32 a1 = a1 + 0\n  5056: a0 = 0x1\n  5059: a2 = 0\n  5061: ra = 0x92\n  5065: ecalli 14 // 'seal_return'\n  5067: fallthrough\n      : @192 [@dyn 73] (gas: 18)\n  5068: sp = sp + 0xffffffffffffff60\n  5072: u64 [sp + 0x98] = ra\n  5076: u64 [sp + 0x90] = s0\n  5080: u64 [sp + 0x88] = s1\n  5084: s0 = sp + 0xa0\n  5088: sp = sp & 0xfffffffffffffff0\n  5091: a5 = u64 [a2 + 0x10]\n  5094: t0 = u64 [a2 + 0x18]\n  5097: s1 = u64 [a2 + 0x8]\n  5100: t1 = u64 [a2]\n  5102: s1 = s1 | t0\n  5105: a2 = t1 | a5\n  5108: a2 = a2 | s1\n  5111: a2 = a2 >> 0x20\n  5114: a5 = a5 | s1\n  5117: a5 = a5 << 0x20\n  5120: a2 = a2 | a5\n  5123: jump @200 if a2 != 0\n      : @193 (gas: 12)\n  5127: t0 = u64 [a3 + 0x18]\n  5130: a5 = u64 [a3 + 0x10]\n  5133: t2 = u64 [a3]\n  5135: s1 = u64 [a3 + 0x8]\n  5138: a3 = t2 | a5\n  5141: a2 = s1 | t0\n  5144: a3 = a3 | a2\n  5147: a3 = a3 >> 0x20\n  5150: a2 = a2 | a5\n  5153: a2 = a2 << 0x20\n  5156: a2 = a2 | a3\n  5159: jump @200 if a2 != 0\n      : @194 (gas: 19)\n  5163: u64 [sp + 0x48] = s1\n  5166: u64 [sp + 0x50] = a5\n  5169: u64 [sp + 0x58] = t0\n  5172: u64 [sp + 0x28] = a0\n  5175: a2 = u64 [a1 + 0x18]\n  5178: a3 = u64 [a1 + 0x10]\n  5181: a5 = u64 [a1]\n  5183: a1 = u64 [a1 + 0x8]\n  5186: a0 = a5 | a3\n  5189: u64 [sp + 0x40] = a2\n  5192: u64 [sp + 0x30] = a1\n  5195: a1 = a1 | a2\n  5198: a0 = a0 | a1\n  5201: a0 = a0 >> 0x20\n  5204: u64 [sp + 0x38] = a3\n  5207: a1 = a1 | a3\n  5210: a1 = a1 << 0x20\n  5213: a0 = a0 | a1\n  5216: jump @200 if a0 != 0\n      : @195 (gas: 13)\n  5220: a0 = u64 [a4 + 0x10]\n  5223: u64 [sp] = a0\n  5225: a0 = u64 [a4 + 0x8]\n  5228: u64 [sp + 0x8] = a0\n  5231: a0 = u64 [a4]\n  5233: u64 [sp + 0x10] = a0\n  5236: i32 t1 = t1 + 0\n  5238: u64 [sp + 0x20] = t1\n  5241: a0 = a5\n  5243: a1 = t2\n  5245: s1 = t2\n  5247: u64 [sp + 0x18] = a5\n  5250: ra = 148, jump @26\n      : @196 [@dyn 74] (gas: 5)\n  5256: i32 a0 = a0 + 0\n  5258: i32 a1 = s1 + 0\n  5260: a2 = u64 [sp + 0x20]\n  5263: ecalli 3 // 'call_data_copy'\n  5265: fallthrough\n      : @197 (gas: 32)\n  5266: a4 = u64 [sp + 0x18]\n  5269: a4 = a4 + s1\n  5272: a0 = a4 <u s1\n  5275: a2 = u64 [sp + 0x48]\n  5278: a1 = u64 [sp + 0x30]\n  5281: a1 = a1 + a2\n  5284: a3 = a1 + a0\n  5287: a1 = a3 ^ a2\n  5290: s1 = a3 <u a2\n  5293: s1 = a0 if a1 == 0\n  5296: a2 = u64 [sp + 0x50]\n  5299: a0 = u64 [sp + 0x38]\n  5302: a0 = a0 + a2\n  5305: s1 = s1 + a0\n  5308: a1 = s1 <u a0\n  5311: a0 = a0 <u a2\n  5314: a2 = u64 [sp + 0x58]\n  5317: a5 = u64 [sp + 0x40]\n  5320: a2 = a2 + a5\n  5323: a0 = a0 + a2\n  5326: a1 = a1 + a0\n  5329: a0 = a4 | s1\n  5332: u64 [sp + 0x58] = a3\n  5335: u64 [sp + 0x48] = a1\n  5338: a1 = a1 | a3\n  5341: a0 = a0 | a1\n  5344: a0 = a0 >> 0x20\n  5347: u64 [sp + 0x50] = s1\n  5350: a1 = a1 | s1\n  5353: a1 = a1 << 0x20\n  5356: a0 = a0 | a1\n  5359: jump @200 if a0 != 0\n      : @198 (gas: 18)\n  5362: a2 = u64 [sp + 0x8]\n  5365: a0 = a2 >> 0x20\n  5368: a1 = u64 [sp]\n  5370: a1 = a1 << 0x20\n  5373: a0 = a0 | a1\n  5376: a3 = u64 [sp + 0x10]\n  5379: a1 = a3 >> 0x20\n  5382: a2 = a2 << 0x20\n  5385: a1 = a1 | a2\n  5388: a2 = a3 << 0x20\n  5391: u64 [sp + 96] = 0\n  5394: u64 [sp + 0x68] = a2\n  5397: u64 [sp + 0x70] = a1\n  5400: a1 = sp + 0x60\n  5403: u64 [sp + 0x78] = a0\n  5406: a0 = a4\n  5408: s1 = a4\n  5410: ra = 150, jump @19\n      : @199 [@dyn 75] (gas: 22)\n  5416: a0 = s1 + 0x14\n  5419: a1 = a0 <u s1\n  5422: a3 = u64 [sp + 0x58]\n  5425: a2 = a3 + a1\n  5428: a3 = a2 <u a3\n  5431: a3 = a1 if a1 == 0\n  5434: a1 = u64 [sp + 0x50]\n  5437: a3 = a3 + a1\n  5440: a1 = a3 <u a1\n  5443: a4 = u64 [sp + 0x48]\n  5446: a1 = a1 + a4\n  5449: a4 = u64 [sp + 0x28]\n  5452: u64 [a4 + 0x10] = a3\n  5455: u64 [a4 + 0x8] = a2\n  5458: u64 [a4] = a0\n  5460: u64 [a4 + 0x18] = a1\n  5463: sp = s0 + 0xffffffffffffff60\n  5467: ra = u64 [sp + 0x98]\n  5471: s0 = u64 [sp + 0x90]\n  5475: s1 = u64 [sp + 0x88]\n  5479: sp = sp + 0xa0\n  5483: ret\n      : @200 (gas: 1)\n  5485: trap\n      : @201 [@dyn 76] (gas: 1)\n  5486: ra = 154, jump @19\n      : @202 [@dyn 77] (gas: 7)\n  5492: u64 [sp + 24] = 0\n  5495: u64 [sp + 16] = 0\n  5498: u64 [sp + 0] = 0x41\n  5501: a0 = 0x4\n  5504: a1 = sp\n  5506: u64 [sp + 8] = 0\n  5509: ra = 156, jump @19\n      : @203 [@dyn 78] (gas: 2)\n  5515: a1 = i32 [0x2014c]\n  5520: jump @205 if a1 >u 63\n      : @204 (gas: 2)\n  5524: u32 [0x2014c] = 0x40\n  5530: fallthrough\n      : @205 (gas: 7)\n  5531: a1 = 0x20160\n  5536: i32 a1 = a1 + 0\n  5538: a0 = 0x1\n  5541: a2 = 0x24\n  5544: ra = 0x9e\n  5548: ecalli 14 // 'seal_return'\n  5550: fallthrough\n      : @206 [@dyn 79] (gas: 46)\n  5551: sp = sp + 0xffffffffffffffb0\n  5554: u64 [sp + 0x48] = ra\n  5557: u64 [sp + 0x40] = s0\n  5560: u64 [sp + 0x38] = s1\n  5563: s0 = sp + 0x50\n  5566: sp = sp & 0xfffffffffffffff0\n  5569: t0 = a0\n  5571: a2 = u64 [a1]\n  5573: t2 = u64 [a0 + 0x8]\n  5576: a5 = u64 [a1 + 0x8]\n  5579: t1 = u64 [a0]\n  5581: a3 = a2 + 0x1f\n  5584: ra = a3 <u a2\n  5587: a2 = a5 + ra\n  5590: a3 = a3 & 0xffffffffffffffe0\n  5593: u64 [sp + 0x8] = t1\n  5596: t1 = t1 + a3\n  5599: a4 = t1 <u a3\n  5602: a3 = a2 + t2\n  5605: a3 = a3 + a4\n  5608: s1 = a3 ^ a2\n  5611: a0 = a3 <u a2\n  5614: a0 = a4 if s1 == 0\n  5617: a4 = u64 [t0 + 0x18]\n  5620: a5 = a2 <u a5\n  5623: s1 = u64 [a1 + 0x10]\n  5626: t0 = u64 [t0 + 0x10]\n  5629: a1 = u64 [a1 + 0x18]\n  5632: a5 = ra if ra == 0\n  5635: a5 = a5 + s1\n  5638: s1 = a5 <u s1\n  5641: a2 = a5 + t0\n  5644: a0 = a0 + a2\n  5647: a5 = a2 <u a5\n  5650: a2 = a0 <u a2\n  5653: a1 = a1 + a4\n  5656: a1 = a1 + s1\n  5659: a1 = a1 + a5\n  5662: a5 = a1 + a2\n  5665: a1 = a5 >u 0\n  5667: a2 = a0 >u 0\n  5669: a2 = a1 if a5 != 0\n  5672: a1 = a0 | a5\n  5675: s1 = a3 >u 0\n  5677: s1 = a2 if a1 != 0\n  5680: jump @210 if s1 != 0\n      : @207 (gas: 13)\n  5683: a1 = u64 [sp + 0x8]\n  5686: a1 = t1 <u a1\n  5689: a2 = a3 ^ t2\n  5692: s1 = a3 <u t2\n  5695: s1 = a1 if a2 == 0\n  5698: a1 = a0 <u t0\n  5701: a2 = a5 ^ a4\n  5704: a4 = a5 <u a4\n  5707: a4 = a1 if a2 == 0\n  5710: a1 = a0 ^ t0\n  5713: a1 = a1 | a2\n  5716: a4 = s1 if a1 == 0\n  5719: jump @210 if a4 != 0\n      : @208 (gas: 7)\n  5722: u64 [sp + 0x10] = t1\n  5725: u64 [sp + 0x18] = a3\n  5728: u64 [sp + 0x20] = a0\n  5731: a0 = 0x40\n  5734: a1 = sp + 0x10\n  5737: u64 [sp + 0x28] = a5\n  5740: ra = 160, jump @19\n      : @209 [@dyn 80] (gas: 6)\n  5746: sp = s0 + 0xffffffffffffffb0\n  5749: ra = u64 [sp + 0x48]\n  5752: s0 = u64 [sp + 0x40]\n  5755: s1 = u64 [sp + 0x38]\n  5758: sp = sp + 0x50\n  5761: ret\n      : @210 (gas: 3)\n  5763: ra = 0xa2\n  5767: t0 = 0x98\n  5771: jump @519\n      : @211 [@dyn 81] (gas: 7)\n  5774: a3 = u64 [a1 + 0x18]\n  5777: a4 = u64 [a1 + 0x10]\n  5780: a2 = u64 [a1 + 0x8]\n  5783: a3 = a3 | a4\n  5786: a4 = a2 <u 0x1\n  5789: a4 = 0 if a3 != 0\n  5791: jump @213 if a4 == 0\n      : @212 (gas: 16)\n  5794: a1 = u64 [a1]\n  5796: a3 = a1 + 0x1f\n  5799: a1 = a3 <u a1\n  5802: a1 = a1 + a2\n  5805: a1 = a1 & 0x1\n  5808: a3 = a3 & 0xffffffffffffffe0\n  5811: a2 = a3 + 0x20\n  5814: a3 = a2 <u a3\n  5817: a4 = a1 + a3\n  5820: a1 = a4 <u a1\n  5823: a1 = a3 if a3 == 0\n  5826: u64 [a0 + 24] = 0\n  5829: u64 [a0] = a2\n  5831: u64 [a0 + 0x8] = a4\n  5834: u64 [a0 + 0x10] = a1\n  5837: ret\n      : @213 (gas: 3)\n  5839: ra = 0xa4\n  5843: t0 = 0x98\n  5847: jump @519\n      : @214 [@dyn 82] (gas: 9)\n  5850: sp = sp + 0xfffffffffffffec0\n  5854: u64 [sp + 0x138] = ra\n  5858: u64 [sp + 0x130] = s0\n  5862: u64 [sp + 0x128] = s1\n  5866: s0 = sp + 0x140\n  5870: sp = sp & 0xffffffffffffffe0\n  5873: s1 = a0\n  5875: ecalli 13 // 'return_data_size'\n  5877: fallthrough\n      : @215 (gas: 1)\n  5878: jump @228 if a0 == 0\n      : @216 (gas: 11)\n  5882: u64 [sp + 0x18] = s1\n  5885: ecalli 13 // 'return_data_size'\n  5887: a2 = a0\n  5889: u64 [sp + 248] = 0\n  5893: u64 [sp + 240] = 0\n  5897: u64 [sp + 232] = 0\n  5901: a0 = sp + 0x100\n  5905: a1 = sp + 0xe0\n  5909: u64 [sp + 0x20] = a2\n  5912: u64 [sp + 0xe0] = a2\n  5916: ra = 166, jump @211\n      : @217 [@dyn 83] (gas: 11)\n  5922: a0 = u64 [sp + 0x100]\n  5926: u64 [sp + 0x40] = a0\n  5929: a0 = u64 [sp + 0x108]\n  5933: u64 [sp + 0x38] = a0\n  5936: a0 = u64 [sp + 0x110]\n  5940: u64 [sp + 0x30] = a0\n  5943: a0 = u64 [sp + 0x118]\n  5947: u64 [sp + 0x28] = a0\n  5950: a0 = sp + 0xc0\n  5954: a1 = 0x40\n  5957: ra = 168, jump @17\n      : @218 [@dyn 84] (gas: 22)\n  5963: a0 = u64 [sp + 0xd8]\n  5967: u64 [sp + 0x58] = a0\n  5970: s1 = u64 [sp + 0xd0]\n  5974: a2 = u64 [sp + 0xc8]\n  5978: u64 [sp + 0x50] = a2\n  5981: a3 = u64 [sp + 0xc0]\n  5985: u64 [sp + 0x48] = a3\n  5988: a1 = u64 [sp + 0x28]\n  5991: u64 [sp + 0x98] = a1\n  5995: a1 = u64 [sp + 0x30]\n  5998: u64 [sp + 0x90] = a1\n  6002: a1 = u64 [sp + 0x38]\n  6005: u64 [sp + 0x88] = a1\n  6009: a1 = u64 [sp + 0x40]\n  6012: u64 [sp + 0x80] = a1\n  6016: u64 [sp + 0xb8] = a0\n  6020: u64 [sp + 0xb0] = s1\n  6024: u64 [sp + 0xa8] = a2\n  6028: a0 = sp + 0xa0\n  6032: a1 = sp + 0x80\n  6036: u64 [sp + 0xa0] = a3\n  6040: ra = 170, jump @206\n      : @219 [@dyn 85] (gas: 12)\n  6046: a0 = u64 [sp + 0x48]\n  6049: a1 = u64 [sp + 0x58]\n  6052: a2 = u64 [sp + 0x50]\n  6055: a2 = a2 | a1\n  6058: a1 = a0 | s1\n  6061: a1 = a1 | a2\n  6064: a1 = a1 >> 0x20\n  6067: u64 [sp + 0x40] = s1\n  6070: a2 = a2 | s1\n  6073: a2 = a2 << 0x20\n  6076: a1 = a1 | a2\n  6079: jump @227 if a1 != 0\n      : @220 (gas: 7)\n  6083: u64 [sp + 120] = 0\n  6086: u64 [sp + 112] = 0\n  6089: u64 [sp + 104] = 0\n  6092: a1 = sp + 0x60\n  6095: a2 = u64 [sp + 0x20]\n  6098: u64 [sp + 0x60] = a2\n  6101: ra = 172, jump @19\n      : @221 [@dyn 86] (gas: 2)\n  6107: ecalli 13 // 'return_data_size'\n  6109: fallthrough\n      : @222 (gas: 10)\n  6110: a3 = u64 [sp + 0x48]\n  6113: a1 = u64 [sp + 0x40]\n  6116: a2 = u64 [sp + 0x58]\n  6119: a1 = a1 | a2\n  6122: a2 = 0xffffffe0\n  6132: a2 = a3 <u a2\n  6135: a4 = u64 [sp + 0x50]\n  6138: a2 = 0 if a4 != 0\n  6140: a2 = 0 if a1 != 0\n  6142: jump @227 if a2 == 0\n      : @223 (gas: 3)\n  6145: s1 = a0\n  6147: a0 = a0 >> 0x20\n  6150: jump @227 if a0 != 0\n      : @224 (gas: 5)\n  6153: i32 a0 = a3 + 0x20\n  6156: i32 a1 = s1 + 0\n  6158: u64 [sp + 0x38] = a1\n  6161: a1 = s1\n  6163: ra = 174, jump @26\n      : @225 [@dyn 87] (gas: 6)\n  6169: u32 [sp + 0x120] = s1\n  6173: i32 a0 = a0 + 0\n  6175: i32 a1 = sp + 0x120\n  6179: a2 = 0\n  6181: ecalli 12 // 'return_data_copy'\n  6183: fallthrough\n      : @226 (gas: 8)\n  6184: a4 = u64 [sp + 0x48]\n  6187: a0 = i32 [sp + 0x120]\n  6191: s1 = u64 [sp + 0x18]\n  6194: a1 = u64 [sp + 0x58]\n  6197: a2 = u64 [sp + 0x40]\n  6200: a3 = u64 [sp + 0x50]\n  6203: a5 = u64 [sp + 0x38]\n  6206: jump @229 if a0 >=u a5\n      : @227 (gas: 1)\n  6209: trap\n      : @228 (gas: 5)\n  6210: a3 = 0\n  6212: a2 = 0\n  6214: a1 = 0\n  6216: a4 = 0x60\n  6219: fallthrough\n      : @229 (gas: 10)\n  6220: u64 [s1] = a4\n  6222: u64 [s1 + 0x8] = a3\n  6225: u64 [s1 + 0x10] = a2\n  6228: u64 [s1 + 0x18] = a1\n  6231: sp = s0 + 0xfffffffffffffec0\n  6235: ra = u64 [sp + 0x138]\n  6239: s0 = u64 [sp + 0x130]\n  6243: s1 = u64 [sp + 0x128]\n  6247: sp = sp + 0x140\n  6251: ret\n      : @230 [@dyn 88] (gas: 12)\n  6253: t0 = u64 [s1 + 0x28]\n  6256: a0 = u64 [s1 + 0x30]\n  6259: a1 = u64 [s1 + 0x20]\n  6262: a0 = a0 | a1\n  6265: a2 = u64 [s1 + 0x58]\n  6268: a1 = t0 | a2\n  6271: a1 = a1 | a0\n  6274: a1 = a1 >> 0x20\n  6277: a0 = a0 | a2\n  6280: a0 = a0 << 0x20\n  6283: a0 = a0 | a1\n  6286: jump @241 if a0 != 0\n      : @231 (gas: 12)\n  6290: a2 = u64 [s1 + 0x48]\n  6293: a4 = u64 [s1 + 0x38]\n  6296: a0 = a4 | a2\n  6299: a1 = u64 [s1 + 0x50]\n  6302: a3 = u64 [s1 + 0x40]\n  6305: a1 = a1 | a3\n  6308: a0 = a0 | a1\n  6311: a0 = a0 >> 0x20\n  6314: a1 = a1 | a2\n  6317: a1 = a1 << 0x20\n  6320: a0 = a0 | a1\n  6323: jump @241 if a0 != 0\n      : @232 (gas: 15)\n  6327: a5 = u64 [s1 + 0x98]\n  6331: a3 = u64 [s1 + 0x90]\n  6335: a0 = u64 [s1 + 0x80]\n  6339: a1 = u64 [s1 + 0x88]\n  6343: a2 = a0 | a3\n  6346: u64 [s1 + 0x20] = a5\n  6349: u64 [s1 + 0x8] = a1\n  6352: a1 = a1 | a5\n  6355: a2 = a2 | a1\n  6358: a2 = a2 >> 0x20\n  6361: u64 [s1 + 0x10] = a3\n  6364: a1 = a1 | a3\n  6367: a1 = a1 << 0x20\n  6370: a1 = a1 | a2\n  6373: jump @241 if a1 != 0\n      : @233 (gas: 6)\n  6377: i32 t0 = t0 + 0\n  6379: u64 [s1 + 0x28] = t0\n  6382: i32 a1 = a4 + 0\n  6384: u64 [s1 + 0x58] = a1\n  6387: u64 [s1 + 0x30] = a0\n  6390: ra = 178, jump @26\n      : @234 [@dyn 89] (gas: 5)\n  6396: i32 a0 = a0 + 0\n  6398: a1 = u64 [s1 + 0x58]\n  6401: a2 = u64 [s1 + 0x28]\n  6404: ecalli 3 // 'call_data_copy'\n  6406: fallthrough\n      : @235 (gas: 30)\n  6407: a1 = u64 [s1 + 0x30]\n  6410: a0 = u64 [s1 + 0x38]\n  6413: a0 = a0 + a1\n  6416: a1 = a0 <u a1\n  6419: a2 = u64 [s1 + 0x40]\n  6422: a4 = u64 [s1 + 0x8]\n  6425: a2 = a2 + a4\n  6428: a2 = a2 + a1\n  6431: a3 = a2 ^ a4\n  6434: a4 = a2 <u a4\n  6437: a4 = a1 if a3 == 0\n  6440: a1 = u64 [s1 + 0x48]\n  6443: a3 = u64 [s1 + 0x10]\n  6446: a1 = a1 + a3\n  6449: a4 = a4 + a1\n  6452: t0 = a4 <u a1\n  6455: a1 = a1 <u a3\n  6458: a5 = u64 [s1 + 0x50]\n  6461: a3 = u64 [s1 + 0x20]\n  6464: a5 = a5 + a3\n  6467: a1 = a1 + a5\n  6470: a1 = a1 + t0\n  6473: a3 = a0 | a4\n  6476: a1 = a1 | a2\n  6479: a3 = a3 | a1\n  6482: a3 = a3 >> 0x20\n  6485: a1 = a1 | a4\n  6488: a1 = a1 << 0x20\n  6491: a1 = a1 | a3\n  6494: jump @241 if a1 != 0\n      : @236 (gas: 6)\n  6497: u64 [s1 + 120] = 0\n  6500: u64 [s1 + 112] = 0\n  6503: u64 [s1 + 104] = 0\n  6506: a1 = s1 + 0x60\n  6509: u64 [s1 + 96] = 0\n  6512: ra = 180, jump @19\n      : @237 [@dyn 90] (gas: 3)\n  6518: a0 = u64 [s1 + 0x30]\n  6521: a1 = u64 [s1 + 0x58]\n  6524: ra = 182, jump @26\n      : @238 [@dyn 91] (gas: 12)\n  6530: a1 = sp + 0xffffffffffffffe0\n  6533: a1 = a1 & 0xffffffffffffffe0\n  6536: u64 [s1 + 0x50] = a1\n  6539: sp = a1\n  6541: i32 a0 = a0 + 0\n  6543: i32 a2 = a1 + 0\n  6545: a1 = u64 [s1 + 0x58]\n  6548: ra = 0xb8\n  6552: ecalli 10 // 'hash_keccak_256'\n  6554: a3 = u64 [s1 + 0x50]\n  6557: t0 = 0xba\n  6561: jump @520\n      : @239 [@dyn 92] (gas: 2)\n  6564: a3 = u64 [s1 + 0x50]\n  6567: t0 = 186, jump @520\n      : @240 [@dyn 93] (gas: 6)\n  6573: sp = s0 + 0xffffffffffffff40\n  6577: ra = u64 [sp + 0xb8]\n  6581: s0 = u64 [sp + 0xb0]\n  6585: s1 = u64 [sp + 0xa8]\n  6589: sp = sp + 0xc0\n  6593: ret\n      : @241 (gas: 1)\n  6595: trap\n      : @242 (gas: 9)\n  6596: sp = sp + 0xffffffffffffffa0\n  6599: u64 [sp + 0x58] = ra\n  6602: u64 [sp + 0x50] = s0\n  6605: u64 [sp + 0x48] = s1\n  6608: s0 = sp + 0x60\n  6611: sp = sp & 0xffffffffffffffe0\n  6614: a0 = sp + 0x20\n  6617: a1 = 0x40\n  6620: ra = 188, jump @17\n      : @243 [@dyn 94] (gas: 9)\n  6626: a0 = u64 [sp + 0x38]\n  6629: u64 [sp + 0x18] = a0\n  6632: a0 = u64 [sp + 0x30]\n  6635: u64 [sp + 0x10] = a0\n  6638: a0 = u64 [sp + 0x28]\n  6641: u64 [sp + 0x8] = a0\n  6644: s1 = u64 [sp + 0x20]\n  6647: ecalli 13 // 'return_data_size'\n  6649: fallthrough\n      : @244 (gas: 12)\n  6650: a1 = u64 [sp + 0x18]\n  6653: a2 = u64 [sp + 0x8]\n  6656: a1 = a1 | a2\n  6659: u64 [sp + 0x18] = s1\n  6662: a3 = u64 [sp + 0x10]\n  6665: a2 = s1 | a3\n  6668: a2 = a2 | a1\n  6671: a2 = a2 >> 0x20\n  6674: a1 = a1 | a3\n  6677: a1 = a1 << 0x20\n  6680: a1 = a1 | a2\n  6683: jump @251 if a1 != 0\n      : @245 (gas: 3)\n  6686: s1 = a0\n  6688: a0 = a0 >> 0x20\n  6691: jump @251 if a0 != 0\n      : @246 (gas: 5)\n  6694: i32 a0 = s1 + 0\n  6696: u64 [sp + 0x10] = a0\n  6699: a0 = u64 [sp + 0x18]\n  6702: a1 = s1\n  6704: ra = 190, jump @26\n      : @247 [@dyn 95] (gas: 6)\n  6710: u32 [sp + 0x40] = s1\n  6713: i32 a0 = a0 + 0\n  6715: i32 a1 = sp + 0x40\n  6718: a2 = 0\n  6720: ecalli 12 // 'return_data_copy'\n  6722: fallthrough\n      : @248 (gas: 3)\n  6723: a0 = i32 [sp + 0x40]\n  6726: a1 = u64 [sp + 0x10]\n  6729: jump @251 if a0 <u a1\n      : @249 (gas: 2)\n  6732: ecalli 13 // 'return_data_size'\n  6734: fallthrough\n      : @250 (gas: 3)\n  6735: s1 = a0\n  6737: a0 = a0 >> 0x20\n  6740: jump @252 if a0 == 0\n      : @251 (gas: 1)\n  6743: trap\n      : @252 (gas: 3)\n  6744: a0 = u64 [sp + 0x18]\n  6747: a1 = s1\n  6749: ra = 192, jump @26\n      : @253 [@dyn 96] (gas: 6)\n  6755: i32 a1 = a0 + 0\n  6757: i32 a2 = s1 + 0\n  6759: a0 = 0x1\n  6762: ra = 0xc2\n  6766: ecalli 14 // 'seal_return'\n  6768: fallthrough\n      : @254 [@dyn 97] (gas: 45)\n  6769: sp = sp + 0xfffffffffffff808\n  6773: a4 = sp + 0x700\n  6777: u64 [a4 + 0xf0] = ra\n  6781: u64 [a4 + 0xe8] = s0\n  6785: u64 [a4 + 0xe0] = s1\n  6789: s0 = sp + 0x7f8\n  6793: sp = sp + 0xfffffffffffffdd8\n  6797: sp = sp & 0xffffffffffffffe0\n  6800: a4 = u64 [a3 + 0x18]\n  6803: u64 [sp + 0x100] = a4\n  6807: a4 = u64 [a3 + 0x10]\n  6810: u64 [sp + 0x108] = a4\n  6814: a4 = u64 [a3 + 0x8]\n  6817: u64 [sp + 0x110] = a4\n  6821: a3 = u64 [a3]\n  6823: u64 [sp + 0x118] = a3\n  6827: a3 = u64 [a2 + 0x18]\n  6830: u64 [sp + 0x120] = a3\n  6834: a3 = u64 [a2 + 0x10]\n  6837: u64 [sp + 0x128] = a3\n  6841: a3 = u64 [a2 + 0x8]\n  6844: u64 [sp + 0x130] = a3\n  6848: a2 = u64 [a2]\n  6850: u64 [sp + 0x138] = a2\n  6854: s1 = u64 [a1]\n  6856: a3 = u64 [a1 + 0x8]\n  6859: u64 [sp + 0x150] = a3\n  6863: a2 = u64 [a1 + 0x10]\n  6866: u64 [sp + 0x148] = a2\n  6870: a1 = u64 [a1 + 0x18]\n  6873: u64 [sp + 0x158] = a1\n  6877: u64 [sp + 0x60] = a0\n  6880: a0 = sp + 0x1000\n  6884: u64 [a0 + 0xfffffffffffff838] = a1\n  6888: a0 = sp + 0x1000\n  6892: u64 [a0 + 0xfffffffffffff830] = a2\n  6896: a0 = sp + 0x1000\n  6900: u64 [a0 + 0xfffffffffffff828] = a3\n  6904: a0 = sp + 0x7ff\n  6908: a0 = a0 + 0x41\n  6911: a1 = sp + 0x7ff\n  6915: a1 = a1 + 0x21\n  6918: a2 = sp + 0x1000\n  6922: u64 [a2 + 0xfffffffffffff820] = s1\n  6926: ra = 196, jump @125\n      : @255 [@dyn 98] (gas: 17)\n  6932: a0 = sp + 0x1000\n  6936: a2 = u64 [a0 + 0xfffffffffffff840]\n  6940: a0 = sp + 0x1000\n  6944: a0 = u64 [a0 + 0xfffffffffffff848]\n  6948: a1 = sp + 0x1000\n  6952: a1 = u64 [a1 + 0xfffffffffffff850]\n  6956: a3 = sp + 0x1000\n  6960: a3 = u64 [a3 + 0xfffffffffffff858]\n  6964: a4 = sp + 0x700\n  6968: u64 [a4 + 0xf8] = a3\n  6972: u64 [a4 + 0xf0] = a1\n  6976: u64 [a4 + 0xe8] = a0\n  6980: a0 = sp + 0x7ff\n  6984: a0 = a0 + 0x1\n  6987: a1 = sp + 0x7e0\n  6991: u64 [a4 + 0xe0] = a2\n  6995: ra = 198, jump @118\n      : @256 [@dyn 99] (gas: 20)\n  7001: a0 = sp + 0x1000\n  7005: a0 = u64 [a0 + 0xfffffffffffff818]\n  7009: a1 = sp + 0x1000\n  7013: a1 = u64 [a1 + 0xfffffffffffff810]\n  7017: a2 = sp + 0x1000\n  7021: a2 = u64 [a2 + 0xfffffffffffff808]\n  7025: a3 = sp + 0x1000\n  7029: a3 = u64 [a3 + 0xfffffffffffff800]\n  7033: a4 = sp + 0x1000\n  7037: u64 [a4 + 0xfffffffffffff878] = a0\n  7041: a0 = sp + 0x1000\n  7045: u64 [a0 + 0xfffffffffffff870] = a1\n  7049: a0 = sp + 0x1000\n  7053: u64 [a0 + 0xfffffffffffff868] = a2\n  7057: a0 = sp + 0x1000\n  7061: u64 [a0 + 0xfffffffffffff860] = a3\n  7065: a0 = sp + 0x7c0\n  7069: a1 = sp + 0x7ff\n  7073: a1 = a1 + 0x61\n  7076: ra = 200, jump @21\n      : @257 [@dyn 100] (gas: 4)\n  7082: a1 = s1 + 0x80\n  7086: u64 [sp + 0x140] = s1\n  7090: a0 = a1 <u s1\n  7093: t0 = 202, jump @517\n      : @258 [@dyn 101] (gas: 1)\n  7099: jump @297 if a0 != 0\n      : @259 (gas: 49)\n  7103: a2 = sp + 0x700\n  7107: a0 = u64 [a2 + 0xd8]\n  7111: u64 [sp + 0xd0] = a0\n  7115: s1 = u64 [a2 + 0xd0]\n  7119: a0 = u64 [a2 + 0xc8]\n  7123: u64 [sp + 0xc8] = a0\n  7127: a0 = u64 [a2 + 0xc0]\n  7131: u64 [sp + 0xd8] = a0\n  7135: i32 a1 = a1 + 0\n  7137: a0 = sp + 0x1000\n  7141: i32 a0 = a0 + 0xfffffffffffff880\n  7145: ecalli 4 // 'call_data_load'\n  7147: a0 = sp + 0x1000\n  7151: a0 = u64 [a0 + 0xfffffffffffff898]\n  7155: u64 [sp + 0xe8] = a0\n  7159: a1 = sp + 0x1000\n  7163: a2 = u64 [a1 + 0xfffffffffffff888]\n  7167: u64 [sp + 0xf0] = a2\n  7171: a1 = sp + 0x1000\n  7175: a3 = u64 [a1 + 0xfffffffffffff880]\n  7179: u64 [sp + 0xf8] = a3\n  7183: a1 = sp + 0x1000\n  7187: a4 = u64 [a1 + 0xfffffffffffff890]\n  7191: u64 [sp + 0xe0] = a4\n  7195: a1 = u64 [sp + 0xd0]\n  7199: a0 = a0 ^ a1\n  7202: a1 = u64 [sp + 0xc8]\n  7206: a1 = a1 ^ a2\n  7209: a0 = a0 | a1\n  7212: a1 = s1 ^ a4\n  7215: a2 = u64 [sp + 0xd8]\n  7219: a2 = a2 ^ a3\n  7222: a1 = a1 | a2\n  7225: a0 = a0 | a1\n  7228: a0 = a0 <u 0x1\n  7231: a1 = sp + 0x700\n  7235: u64 [a1 + 184] = 0\n  7239: u64 [a1 + 176] = 0\n  7243: u64 [a1 + 0xa0] = a0\n  7247: a0 = sp + 0x7a0\n  7251: u64 [a1 + 168] = 0\n  7255: ra = 0xcc\n  7259: sp = sp + 0xffffffffffffff20\n  7263: u64 [sp + 0xd8] = ra\n  7267: u64 [sp + 0xd0] = s0\n  7271: u64 [sp + 0xc8] = s1\n  7275: s0 = sp + 0xe0\n  7279: t0 = 0x52\n  7282: jump @518\n      : @260 [@dyn 102] (gas: 30)\n  7285: a0 = u64 [sp + 0x100]\n  7289: a4 = sp + 0x700\n  7293: u64 [a4 + 0x38] = a0\n  7296: a0 = u64 [sp + 0x108]\n  7300: u64 [a4 + 0x30] = a0\n  7303: a0 = u64 [sp + 0x110]\n  7307: u64 [a4 + 0x28] = a0\n  7310: a0 = u64 [sp + 0x118]\n  7314: u64 [a4 + 0x20] = a0\n  7317: a0 = u64 [sp + 0x120]\n  7321: u64 [a4 + 0x58] = a0\n  7324: a0 = u64 [sp + 0x128]\n  7328: u64 [a4 + 0x50] = a0\n  7331: a0 = u64 [sp + 0x130]\n  7335: u64 [a4 + 0x48] = a0\n  7338: a0 = u64 [sp + 0x138]\n  7342: u64 [a4 + 0x40] = a0\n  7345: a0 = u64 [sp + 0x158]\n  7349: u64 [a4 + 0x78] = a0\n  7352: a0 = u64 [sp + 0x148]\n  7356: u64 [a4 + 0x70] = a0\n  7359: a0 = u64 [sp + 0x150]\n  7363: u64 [a4 + 0x68] = a0\n  7366: a0 = sp + 0x780\n  7370: a1 = sp + 0x760\n  7374: a2 = sp + 0x740\n  7378: a3 = sp + 0x720\n  7382: s1 = u64 [sp + 0x140]\n  7386: u64 [a4 + 0x60] = s1\n  7389: ra = 206, jump @315\n      : @261 [@dyn 103] (gas: 11)\n  7395: a4 = sp + 0x700\n  7399: a1 = u64 [a4 + 0x80]\n  7403: a0 = u64 [a4 + 0x88]\n  7407: a2 = u64 [a4 + 0x90]\n  7411: a3 = u64 [a4 + 0x98]\n  7415: u64 [a4 + 0x18] = a3\n  7418: u64 [a4 + 0x10] = a2\n  7421: u64 [a4 + 0x8] = a0\n  7424: a0 = sp + 0x700\n  7428: u64 [a4] = a1\n  7430: ra = 208, jump @148\n      : @262 [@dyn 104] (gas: 12)\n  7436: a0 = u64 [sp + 0xe8]\n  7440: a3 = sp + 0x600\n  7444: u64 [a3 + 0xd8] = a0\n  7448: a0 = u64 [sp + 0xe0]\n  7452: u64 [a3 + 0xd0] = a0\n  7456: a0 = u64 [sp + 0xf0]\n  7460: u64 [a3 + 0xc8] = a0\n  7464: a0 = sp + 0x6e0\n  7468: a1 = sp + 0x6c0\n  7472: a2 = u64 [sp + 0xf8]\n  7476: u64 [a3 + 0xc0] = a2\n  7480: ra = 210, jump @171\n      : @263 [@dyn 105] (gas: 19)\n  7486: a2 = sp + 0x600\n  7490: a0 = u64 [a2 + 0xe0]\n  7494: u64 [sp + 0x138] = a0\n  7498: a0 = u64 [a2 + 0xe8]\n  7502: u64 [sp + 0x130] = a0\n  7506: a0 = u64 [a2 + 0xf0]\n  7510: u64 [sp + 0x128] = a0\n  7514: a0 = u64 [a2 + 0xf8]\n  7518: u64 [sp + 0x120] = a0\n  7522: a0 = u64 [sp + 0x158]\n  7526: u64 [a2 + 0x98] = a0\n  7530: a0 = u64 [sp + 0x148]\n  7534: u64 [a2 + 0x90] = a0\n  7538: a0 = u64 [sp + 0x150]\n  7542: u64 [a2 + 0x88] = a0\n  7546: a0 = sp + 0x6a0\n  7550: a1 = sp + 0x680\n  7554: u64 [a2 + 0x80] = s1\n  7558: ra = 212, jump @125\n      : @264 [@dyn 106] (gas: 12)\n  7564: a4 = sp + 0x600\n  7568: a2 = u64 [a4 + 0xa0]\n  7572: a0 = u64 [a4 + 0xa8]\n  7576: a1 = u64 [a4 + 0xb0]\n  7580: a3 = u64 [a4 + 0xb8]\n  7584: u64 [a4 + 0x58] = a3\n  7587: u64 [a4 + 0x50] = a1\n  7590: u64 [a4 + 0x48] = a0\n  7593: a0 = sp + 0x660\n  7597: a1 = sp + 0x640\n  7601: u64 [a4 + 0x40] = a2\n  7604: ra = 214, jump @118\n      : @265 [@dyn 107] (gas: 70)\n  7610: a4 = sp + 0x600\n  7614: a0 = u64 [a4 + 0x78]\n  7617: a1 = u64 [a4 + 0x70]\n  7620: a2 = u64 [a4 + 0x68]\n  7623: a3 = u64 [a4 + 0x60]\n  7626: a4 = sp + 0x1000\n  7630: u64 [a4 + 0xfffffffffffff8b8] = a0\n  7634: a0 = sp + 0x1000\n  7638: u64 [a0 + 0xfffffffffffff8b0] = a1\n  7642: a0 = sp + 0x1000\n  7646: u64 [a0 + 0xfffffffffffff8a8] = a2\n  7650: a0 = sp + 0x1000\n  7654: u64 [a0 + 0xfffffffffffff8a0] = a3\n  7658: a0 = sp + 0x7ff\n  7662: a0 = a0 + 0xd9\n  7666: a1 = u64 [sp + 0x120]\n  7670: u64 [a0] = a1\n  7672: a1 = u64 [sp + 0x128]\n  7676: u64 [a0 + 0xfffffffffffffff8] = a1\n  7679: a0 = u64 [sp + 0x130]\n  7683: a1 = sp + 0x1000\n  7687: u64 [a1 + 0xfffffffffffff8c8] = a0\n  7691: a0 = u64 [sp + 0x138]\n  7695: a1 = sp + 0x1000\n  7699: u64 [a1 + 0xfffffffffffff8c0] = a0\n  7703: a0 = sp + 0x7ff\n  7707: a0 = a0 + 0xa1\n  7711: a1 = sp + 0x7ff\n  7715: a1 = a1 + 0xc1\n  7719: ra = 0xd8\n  7723: sp = sp + 0xffffffffffffffa0\n  7726: u64 [sp + 0x58] = ra\n  7729: u64 [sp + 0x50] = s0\n  7732: s0 = sp + 0x60\n  7735: sp = sp & 0xffffffffffffffe0\n  7738: t0 = u64 [a0]\n  7740: a3 = u64 [a0 + 0x8]\n  7743: a4 = u64 [a0 + 0x10]\n  7746: a0 = u64 [a0 + 0x18]\n  7749: t1 = u64 [a1]\n  7751: a2 = u64 [a1 + 0x8]\n  7754: a5 = u64 [a1 + 0x10]\n  7757: a1 = u64 [a1 + 0x18]\n  7760: t2 = reverse a0\n  7762: a4 = reverse a4\n  7764: a3 = reverse a3\n  7766: a0 = reverse t0\n  7768: t0 = reverse a1\n  7770: a5 = reverse a5\n  7772: a2 = reverse a2\n  7774: a1 = reverse t1\n  7776: u64 [sp + 0x18] = a0\n  7779: u64 [sp + 0x10] = a3\n  7782: u64 [sp + 0x8] = a4\n  7785: u64 [sp] = t2\n  7787: u64 [sp + 0x38] = a1\n  7790: u64 [sp + 0x30] = a2\n  7793: u64 [sp + 0x28] = a5\n  7796: u64 [sp + 0x20] = t0\n  7799: i32 a1 = sp + 0\n  7801: i32 a3 = sp + 0x20\n  7804: a2 = 0xffffffffffffffff\n  7807: a4 = 0x20\n  7810: a0 = 0\n  7812: ecalli 16 // 'set_storage'\n  7814: sp = s0 + 0xffffffffffffffa0\n  7817: ra = u64 [sp + 0x58]\n  7820: s0 = u64 [sp + 0x50]\n  7823: sp = sp + 0x60\n  7826: ret\n      : @266 [@dyn 108] (gas: 23)\n  7828: a2 = s1 + 0x20\n  7831: a0 = a2 <u s1\n  7834: a1 = u64 [sp + 0x150]\n  7838: a3 = a1 + a0\n  7841: a1 = a3 <u a1\n  7844: a1 = a0 if a0 == 0\n  7847: s1 = u64 [sp + 0x148]\n  7851: a1 = a1 + s1\n  7854: a0 = a1 <u s1\n  7857: a4 = u64 [sp + 0x158]\n  7861: a0 = a0 + a4\n  7864: u64 [sp + 0x90] = a0\n  7868: a4 = sp + 0x600\n  7872: u64 [a4 + 0x18] = a0\n  7875: u64 [sp + 0x98] = a1\n  7879: u64 [a4 + 0x10] = a1\n  7882: u64 [sp + 0xa0] = a3\n  7886: u64 [a4 + 0x8] = a3\n  7889: a0 = sp + 0x620\n  7893: a1 = sp + 0x600\n  7897: u64 [sp + 0xa8] = a2\n  7901: u64 [a4] = a2\n  7903: ra = 218, jump @125\n      : @267 [@dyn 109] (gas: 19)\n  7909: a0 = u64 [sp + 0x140]\n  7913: a1 = a0 + 0x60\n  7916: a0 = a1 <u a0\n  7919: a3 = u64 [sp + 0x150]\n  7923: a2 = a3 + a0\n  7926: a3 = a2 <u a3\n  7929: a3 = a0 if a0 == 0\n  7932: a3 = a3 + s1\n  7935: a0 = a3 <u s1\n  7938: a4 = u64 [sp + 0x158]\n  7942: a0 = a0 + a4\n  7945: a4 = a1 | a3\n  7948: a0 = a0 | a2\n  7951: a4 = a4 | a0\n  7954: a4 = a4 >> 0x20\n  7957: a0 = a0 | a3\n  7960: a0 = a0 << 0x20\n  7963: a0 = a0 | a4\n  7966: jump @297 if a0 != 0\n      : @268 (gas: 13)\n  7970: a2 = sp + 0x600\n  7974: a0 = u64 [a2 + 0x30]\n  7977: u64 [sp + 0x118] = a0\n  7981: a0 = u64 [a2 + 0x28]\n  7984: u64 [sp + 0x110] = a0\n  7988: a0 = u64 [a2 + 0x20]\n  7991: u64 [sp + 0x120] = a0\n  7995: i32 a1 = a1 + 0\n  7997: a0 = sp + 0x1000\n  8001: i32 a0 = a0 + 0xfffffffffffff8e0\n  8005: ra = 0xdc\n  8009: ecalli 4 // 'call_data_load'\n  8011: fallthrough\n      : @269 [@dyn 110] (gas: 4)\n  8012: a0 = u64 [sp + 0x140]\n  8016: a1 = a0 + 0x40\n  8019: a0 = a1 <u a0\n  8022: t0 = 222, jump @517\n      : @270 [@dyn 111] (gas: 1)\n  8028: jump @297 if a0 != 0\n      : @271 (gas: 52)\n  8032: s1 = sp + 0x7ff\n  8036: s1 = s1 + 0xd9\n  8040: a0 = u64 [s1 + 0x20]\n  8043: u64 [sp + 0x38] = a0\n  8046: a0 = u64 [s1 + 0x18]\n  8049: u64 [sp + 0x30] = a0\n  8052: a0 = u64 [s1 + 0x10]\n  8055: u64 [sp + 0x28] = a0\n  8058: a0 = u64 [s1 + 0x8]\n  8061: u64 [sp + 0x20] = a0\n  8064: i32 a1 = a1 + 0\n  8066: a0 = sp + 0x1000\n  8070: i32 a0 = a0 + 0xfffffffffffff900\n  8074: ecalli 4 // 'call_data_load'\n  8076: a0 = u64 [s1 + 0x40]\n  8079: u64 [sp + 0x70] = a0\n  8082: a0 = u64 [s1 + 0x38]\n  8085: u64 [sp + 0x78] = a0\n  8088: a0 = u64 [s1 + 0x30]\n  8091: u64 [sp + 0x80] = a0\n  8095: a0 = u64 [s1 + 0x28]\n  8098: u64 [sp + 0x88] = a0\n  8102: a1 = u64 [sp + 0x140]\n  8106: a2 = a1 + 0xa0\n  8110: a0 = a2 <u a1\n  8113: t1 = a1\n  8115: a4 = u64 [sp + 0x150]\n  8119: a3 = a4 + a0\n  8122: a1 = a3 <u a4\n  8125: a1 = a0 if a0 == 0\n  8128: s1 = u64 [sp + 0x148]\n  8132: a1 = a1 + s1\n  8135: a0 = a1 <u s1\n  8138: a5 = u64 [sp + 0x158]\n  8142: t0 = a5 + a0\n  8145: u64 [sp + 0x50] = a3\n  8148: u64 [sp + 0x588] = a3\n  8152: u64 [sp + 0x58] = a2\n  8155: a3 = sp + 0x500\n  8159: u64 [a3 + 0x80] = a2\n  8163: u64 [a3 + 0xb8] = a5\n  8167: u64 [a3 + 0xb0] = s1\n  8171: u64 [a3 + 0xa8] = a4\n  8175: u64 [a3 + 0xa0] = t1\n  8179: u64 [sp + 0x48] = a1\n  8182: u64 [a3 + 0x90] = a1\n  8186: a0 = sp + 0x5c0\n  8190: a1 = sp + 0x5a0\n  8194: a2 = sp + 0x580\n  8198: u64 [sp + 0x40] = t0\n  8201: u64 [a3 + 0x98] = t0\n  8205: ra = 224, jump @179\n      : @272 [@dyn 112] (gas: 27)\n  8211: a3 = sp + 0x500\n  8215: a0 = u64 [a3 + 0xc0]\n  8219: u64 [sp + 0x108] = a0\n  8223: a0 = u64 [a3 + 0xc8]\n  8227: u64 [sp + 0x100] = a0\n  8231: a0 = u64 [a3 + 0xd0]\n  8235: u64 [sp + 0xf8] = a0\n  8239: a0 = u64 [a3 + 0xd8]\n  8243: u64 [sp + 0xf0] = a0\n  8247: a0 = u64 [a3 + 0xe0]\n  8251: u64 [sp + 0xe8] = a0\n  8255: a0 = u64 [a3 + 0xe8]\n  8259: u64 [sp + 0xe0] = a0\n  8263: a0 = u64 [a3 + 0xf0]\n  8267: u64 [sp + 0xd8] = a0\n  8271: a0 = u64 [a3 + 0xf8]\n  8275: u64 [sp + 0xd0] = a0\n  8279: a0 = u64 [sp + 0x158]\n  8283: u64 [a3 + 0x58] = a0\n  8286: u64 [a3 + 0x50] = s1\n  8289: a0 = u64 [sp + 0x150]\n  8293: u64 [a3 + 0x48] = a0\n  8296: a0 = sp + 0x560\n  8300: a1 = sp + 0x540\n  8304: a2 = u64 [sp + 0x140]\n  8308: u64 [a3 + 0x40] = a2\n  8311: ra = 226, jump @125\n      : @273 [@dyn 113] (gas: 12)\n  8317: a1 = sp + 0x500\n  8321: a0 = u64 [a1 + 0x60]\n  8324: u64 [sp + 0xc8] = a0\n  8328: a0 = u64 [a1 + 0x68]\n  8331: u64 [sp + 0xc0] = a0\n  8335: a0 = u64 [a1 + 0x70]\n  8338: u64 [sp + 0xb8] = a0\n  8342: a0 = u64 [a1 + 0x78]\n  8345: u64 [sp + 0xb0] = a0\n  8349: a0 = sp + 0x520\n  8353: a1 = 0x40\n  8356: ra = 228, jump @17\n      : @274 [@dyn 114] (gas: 54)\n  8362: a2 = sp + 0x500\n  8366: a0 = u64 [a2 + 0x20]\n  8369: u64 [sp + 0x130] = a0\n  8373: a5 = u64 [a2 + 0x38]\n  8376: u64 [sp + 0x138] = a5\n  8380: a1 = u64 [a2 + 0x28]\n  8383: u64 [sp + 0x128] = a1\n  8387: s1 = u64 [a2 + 0x30]\n  8390: a2 = a0 + 0x20\n  8393: a0 = a2 <u a0\n  8396: a3 = a1 + a0\n  8399: a1 = a3 <u a1\n  8402: a1 = a0 if a0 == 0\n  8405: a1 = a1 + s1\n  8408: a0 = a1 <u s1\n  8411: a5 = a5 + a0\n  8414: a0 = u64 [sp + 0xb0]\n  8418: u64 [sp + 0x498] = a0\n  8422: a0 = u64 [sp + 0xb8]\n  8426: u64 [sp + 0x490] = a0\n  8430: a0 = u64 [sp + 0xc0]\n  8434: u64 [sp + 0x488] = a0\n  8438: a0 = u64 [sp + 0xc8]\n  8442: u64 [sp + 0x480] = a0\n  8446: a0 = u64 [sp + 0xd0]\n  8450: u64 [sp + 0x4b8] = a0\n  8454: a0 = u64 [sp + 0xd8]\n  8458: u64 [sp + 0x4b0] = a0\n  8462: a0 = u64 [sp + 0xe0]\n  8466: u64 [sp + 0x4a8] = a0\n  8470: a0 = u64 [sp + 0xe8]\n  8474: u64 [sp + 0x4a0] = a0\n  8478: a0 = u64 [sp + 0xf0]\n  8482: u64 [sp + 0x4d8] = a0\n  8486: a0 = u64 [sp + 0xf8]\n  8490: u64 [sp + 0x4d0] = a0\n  8494: a0 = u64 [sp + 0x100]\n  8498: u64 [sp + 0x4c8] = a0\n  8502: a0 = u64 [sp + 0x108]\n  8506: u64 [sp + 0x4c0] = a0\n  8510: u64 [sp + 0x108] = a2\n  8514: u64 [sp + 0x4e0] = a2\n  8518: u64 [sp + 0x100] = a3\n  8522: u64 [sp + 0x4e8] = a3\n  8526: u64 [sp + 0xf8] = a1\n  8530: u64 [sp + 0x4f0] = a1\n  8534: a0 = sp + 0x500\n  8538: a1 = sp + 0x4e0\n  8542: a2 = sp + 0x4c0\n  8546: a3 = sp + 0x4a0\n  8550: a4 = sp + 0x480\n  8554: u64 [sp + 0xf0] = a5\n  8558: u64 [sp + 0x4f8] = a5\n  8562: ra = 230, jump @192\n      : @275 [@dyn 115] (gas: 13)\n  8568: a1 = u64 [sp + 0x128]\n  8572: a4 = a1\n  8574: a0 = u64 [sp + 0x138]\n  8578: a0 = a0 | a1\n  8581: a1 = u64 [sp + 0x130]\n  8585: t0 = a1\n  8587: a1 = a1 | s1\n  8590: a1 = a1 | a0\n  8593: a1 = a1 >> 0x20\n  8596: a0 = a0 | s1\n  8599: a0 = a0 << 0x20\n  8602: a0 = a0 | a1\n  8605: jump @297 if a0 != 0\n      : @276 (gas: 49)\n  8609: t1 = s1\n  8611: a2 = sp + 0x500\n  8615: ra = u64 [a2]\n  8617: a1 = u64 [a2 + 0x8]\n  8620: a0 = u64 [a2 + 0x18]\n  8623: u64 [sp + 0xe8] = a0\n  8627: a3 = u64 [a2 + 0x10]\n  8630: t2 = ra <u t0\n  8633: a5 = a1 ^ a4\n  8636: s1 = a1 <u a4\n  8639: s1 = t2 if a5 == 0\n  8642: a2 = t1\n  8644: u64 [sp + 0x68] = t1\n  8647: a5 = a3 - t1\n  8650: t1 = a5 <u s1\n  8653: a3 = a3 <u a2\n  8656: a0 = u64 [sp + 0x138]\n  8660: a2 = u64 [sp + 0xe8]\n  8664: a2 = a2 - a0\n  8667: a2 = a2 - a3\n  8670: t1 = a2 - t1\n  8673: u64 [sp + 0xe0] = t1\n  8677: a3 = a5 - s1\n  8680: s1 = a1 - a4\n  8683: s1 = s1 - t2\n  8686: a1 = ra - t0\n  8689: u64 [sp + 0xe8] = a1\n  8693: a0 = t0\n  8695: a5 = a1 + 0xffffffffffffffe0\n  8698: a1 = a5 <u a1\n  8701: a2 = s1 + a1\n  8704: a2 = a2 + 0xffffffffffffffff\n  8707: t0 = a2 ^ s1\n  8710: a4 = a2 <u s1\n  8713: a4 = a1 if t0 == 0\n  8716: u64 [sp + 0xd8] = a3\n  8720: a1 = a3 <u 0x1\n  8723: t0 = t1 - a1\n  8726: a1 = a3 + 0xffffffffffffffff\n  8729: a4 = a4 + a1\n  8732: a3 = a4 <u a1\n  8735: a3 = a3 + t0\n  8738: u64 [sp + 0x460] = a5\n  8742: a5 = sp + 0x400\n  8746: u64 [a5 + 0x68] = a2\n  8749: u64 [a5 + 0x70] = a4\n  8752: a1 = sp + 0x460\n  8756: u64 [a5 + 0x78] = a3\n  8759: ra = 232, jump @19\n      : @277 [@dyn 116] (gas: 19)\n  8765: a0 = u64 [sp + 0xe0]\n  8769: a2 = sp + 0x400\n  8773: u64 [a2 + 0x38] = a0\n  8776: a0 = u64 [sp + 0xd8]\n  8780: u64 [a2 + 0x30] = a0\n  8783: u64 [a2 + 0x28] = s1\n  8786: a0 = u64 [sp + 0xe8]\n  8790: u64 [a2 + 0x20] = a0\n  8793: a0 = u64 [sp + 0x138]\n  8797: u64 [a2 + 0x58] = a0\n  8800: a0 = u64 [sp + 0x68]\n  8803: u64 [a2 + 0x50] = a0\n  8806: a0 = u64 [sp + 0x128]\n  8810: u64 [a2 + 0x48] = a0\n  8813: a0 = sp + 0x440\n  8817: a1 = sp + 0x420\n  8821: s1 = u64 [sp + 0x130]\n  8825: u64 [a2 + 0x40] = s1\n  8828: ra = 234, jump @206\n      : @278 [@dyn 117] (gas: 3)\n  8834: a0 = sp + 0x400\n  8838: a1 = s1\n  8840: ra = 236, jump @17\n      : @279 [@dyn 118] (gas: 45)\n  8846: a0 = u64 [sp + 0x110]\n  8850: a0 = reverse a0\n  8852: a1 = a0 << 0x20\n  8855: a2 = u64 [sp + 0x118]\n  8859: a2 = reverse a2\n  8861: a2 = a2 >> 0x20\n  8864: a3 = a2 | a1\n  8867: a1 = u64 [sp + 0x120]\n  8871: a4 = reverse a1\n  8873: a1 = a4 << 0x20\n  8876: a0 = a0 >> 0x20\n  8879: a5 = a1 | a0\n  8882: s1 = 0x30160\n  8887: a0 = sp + 0x400\n  8891: t0 = u64 [a0 + 0x18]\n  8894: a2 = u64 [a0 + 0x10]\n  8897: t1 = u64 [a0 + 0x8]\n  8900: a1 = u64 [a0]\n  8902: u64 [0x30168] = a5\n  8907: u64 [0x30160] = a3\n  8912: a4 = a4 >> 0x20\n  8915: u64 [sp + 0x110] = s1\n  8919: u32 [0x30170] = a4\n  8924: a3 = u64 [sp + 0x70]\n  8927: a0 = sp + 0x7ff\n  8931: a0 = a0 + 0xd9\n  8935: u64 [a0 + 0x60] = a3\n  8938: a3 = u64 [sp + 0x78]\n  8941: u64 [a0 + 0x58] = a3\n  8944: a3 = u64 [sp + 0x80]\n  8948: u64 [a0 + 0x50] = a3\n  8951: a3 = u64 [sp + 0x100]\n  8955: s1 = u64 [sp + 0xf0]\n  8959: s1 = s1 | a3\n  8962: a5 = u64 [sp + 0x108]\n  8966: a3 = u64 [sp + 0xf8]\n  8970: a4 = a5 | a3\n  8973: a4 = a4 | s1\n  8976: a3 = a3 | s1\n  8979: a4 = a4 >> 0x20\n  8982: a3 = a3 << 0x20\n  8985: a3 = a3 | a4\n  8988: a4 = u64 [sp + 0x88]\n  8992: u64 [a0 + 0x48] = a4\n  8995: jump @297 if a3 != 0\n      : @280 (gas: 8)\n  8999: a3 = a1 | a2\n  9002: a4 = t1 | t0\n  9005: a3 = a3 | a4\n  9008: a3 = a3 >> 0x20\n  9011: a2 = a2 | a4\n  9014: a2 = a2 << 0x20\n  9017: a2 = a2 | a3\n  9020: jump @297 if a2 != 0\n      : @281 (gas: 4)\n  9024: a0 = a5\n  9026: i32 s1 = a1 + 0\n  9028: u64 [sp + 0x138] = a1\n  9032: ra = 238, jump @26\n      : @282 [@dyn 119] (gas: 58)\n  9038: t1 = sp + 0x7ff\n  9042: t1 = t1 + 0xd9\n  9046: u32 [t1 + 104] = 0\n  9049: t0 = s1 >u 0\n  9051: a1 = u64 [sp + 0x30]\n  9054: a2 = a1 >u 0\n  9056: s1 = u64 [sp + 0x38]\n  9059: a3 = s1 >u 0\n  9061: a3 = a2 if s1 == 0\n  9064: a4 = u64 [sp + 0x20]\n  9067: a2 = a4 >u 0x8fc\n  9071: a5 = u64 [sp + 0x28]\n  9074: a4 = a5 >u 0\n  9076: a4 = a2 if a5 == 0\n  9079: a2 = a1 | s1\n  9082: a4 = a3 if a2 != 0\n  9085: a1 = a4 | t0\n  9088: a2 = -a1\n  9090: a3 = t1\n  9092: u64 [a3 + 0xa0] = a2\n  9096: u64 [a3 + 0x98] = a2\n  9100: u64 [a3 + 0x90] = a2\n  9104: u64 [a3 + 0x88] = a2\n  9108: a2 = u64 [sp + 0x110]\n  9112: a2 = a2 << 0x20\n  9115: a2 = a2 >> 0x20\n  9118: a1 = a1 << 0x23\n  9121: u64 [sp + 0xc0] = a2\n  9125: t0 = a1 | a2\n  9128: a1 = sp + 0x7ff\n  9132: a1 = a1 + 0x121\n  9136: a1 = a1 << 0x20\n  9139: a1 = a1 >> 0x20\n  9142: a2 = sp + 0x7ff\n  9146: a2 = a2 + 0x161\n  9150: a2 = a2 << 0x20\n  9153: a3 = a2 | a1\n  9156: a0 = a0 << 0x20\n  9159: a1 = 0x20160\n  9164: a0 = a0 >> 0x20\n  9167: a4 = u64 [sp + 0x138]\n  9171: a4 = a4 << 0x20\n  9174: a4 = a4 | a0\n  9177: a1 = a1 << 0x20\n  9180: a1 = a1 >> 0x20\n  9183: a0 = sp + 0x7ff\n  9187: a0 = a0 + 0x141\n  9191: a0 = a0 << 0x20\n  9194: u64 [sp + 0xb8] = a1\n  9198: a5 = a0 | a1\n  9201: a1 = 0xffffffffffffffff\n  9204: a2 = 0xffffffffffffffff\n  9207: a0 = t0\n  9209: ecalli 2 // 'call'\n  9211: a0 = a0 <u 0x1\n  9214: u64 [sp + 0x138] = a0\n  9218: a0 = sp + 0x3e0\n  9222: ra = 240, jump @214\n      : @283 [@dyn 120] (gas: 20)\n  9228: a3 = sp + 0x300\n  9232: a0 = u64 [a3 + 0xf8]\n  9236: u64 [sp + 0x130] = a0\n  9240: a0 = u64 [a3 + 0xf0]\n  9244: u64 [sp + 0x128] = a0\n  9248: a0 = u64 [a3 + 0xe8]\n  9252: u64 [sp + 0x120] = a0\n  9256: a0 = u64 [a3 + 0xe0]\n  9260: u64 [sp + 0x118] = a0\n  9264: a0 = u64 [sp + 0x158]\n  9268: u64 [a3 + 0xb8] = a0\n  9272: a0 = u64 [sp + 0x148]\n  9276: u64 [a3 + 0xb0] = a0\n  9280: s1 = u64 [sp + 0x150]\n  9284: u64 [a3 + 0xa8] = s1\n  9288: a0 = sp + 0x3c0\n  9292: a1 = sp + 0x3a0\n  9296: a2 = u64 [sp + 0x140]\n  9300: u64 [a3 + 0xa0] = a2\n  9304: ra = 242, jump @125\n      : @284 [@dyn 121] (gas: 18)\n  9310: a3 = sp + 0x300\n  9314: a0 = u64 [a3 + 0xc8]\n  9318: u64 [sp + 0xf8] = a0\n  9322: a0 = u64 [a3 + 0xc0]\n  9326: u64 [sp + 0xf0] = a0\n  9330: a0 = u32 [sp + 0x3d0]\n  9334: u64 [sp + 0x108] = a0\n  9338: a0 = u64 [sp + 0x90]\n  9342: u64 [a3 + 0x78] = a0\n  9345: a0 = u64 [sp + 0x98]\n  9349: u64 [a3 + 0x70] = a0\n  9352: a0 = u64 [sp + 0xa0]\n  9356: u64 [a3 + 0x68] = a0\n  9359: a0 = sp + 0x380\n  9363: a1 = sp + 0x360\n  9367: a2 = u64 [sp + 0xa8]\n  9371: u64 [a3 + 0x60] = a2\n  9374: ra = 244, jump @125\n      : @285 [@dyn 122] (gas: 27)\n  9380: a4 = sp + 0x300\n  9384: a0 = u64 [a4 + 0x88]\n  9388: u64 [sp + 0xe8] = a0\n  9392: a0 = u64 [a4 + 0x80]\n  9396: u64 [sp + 0xe0] = a0\n  9400: a0 = u32 [sp + 0x390]\n  9404: u64 [sp + 0x100] = a0\n  9408: a0 = u64 [sp + 0x40]\n  9411: a1 = sp + 0x200\n  9415: u64 [a1 + 0xf8] = a0\n  9419: a0 = u64 [sp + 0x48]\n  9422: u64 [a1 + 0xf0] = a0\n  9426: a0 = u64 [sp + 0x50]\n  9429: u64 [a1 + 0xe8] = a0\n  9433: a0 = u64 [sp + 0x58]\n  9436: u64 [a1 + 0xe0] = a0\n  9440: a0 = u64 [sp + 0x158]\n  9444: u64 [a4 + 0x18] = a0\n  9447: a0 = u64 [sp + 0x148]\n  9451: u64 [a4 + 0x10] = a0\n  9454: u64 [a4 + 0x8] = s1\n  9457: a0 = sp + 0x320\n  9461: a1 = sp + 0x300\n  9465: a2 = sp + 0x2e0\n  9469: a3 = u64 [sp + 0x140]\n  9473: u64 [a4] = a3\n  9475: ra = 246, jump @179\n      : @286 [@dyn 123] (gas: 49)\n  9481: t0 = u64 [sp + 0x320]\n  9485: a0 = u64 [sp + 0x328]\n  9489: a1 = u64 [sp + 0x330]\n  9493: a2 = u64 [sp + 0x338]\n  9497: a4 = u64 [sp + 0x340]\n  9501: a5 = u64 [sp + 0x348]\n  9505: s1 = u64 [sp + 0x350]\n  9509: a3 = u64 [sp + 0x358]\n  9513: u64 [sp + 0x298] = a3\n  9517: a3 = sp + 0x200\n  9521: u64 [a3 + 0x90] = s1\n  9525: u64 [a3 + 0x88] = a5\n  9529: u64 [a3 + 0x80] = a4\n  9533: u64 [a3 + 0xb8] = a2\n  9537: u64 [a3 + 0xb0] = a1\n  9541: u64 [a3 + 0xa8] = a0\n  9545: a0 = sp + 0x2c0\n  9549: a1 = sp + 0x2a0\n  9553: a2 = sp + 0x280\n  9557: u64 [a3 + 0xa0] = t0\n  9561: ra = 0xf8\n  9565: sp = sp + 0xffffffffffffff40\n  9569: u64 [sp + 0xb8] = ra\n  9573: u64 [sp + 0xb0] = s0\n  9577: u64 [sp + 0xa8] = s1\n  9581: s0 = sp + 0xc0\n  9585: sp = sp & 0xffffffffffffffe0\n  9588: s1 = sp\n  9590: a3 = u64 [a2 + 0x18]\n  9593: u64 [s1 + 0x50] = a3\n  9596: a3 = u64 [a2 + 0x10]\n  9599: u64 [s1 + 0x48] = a3\n  9602: a3 = u64 [a2 + 0x8]\n  9605: u64 [s1 + 0x40] = a3\n  9608: a2 = u64 [a2]\n  9610: u64 [s1 + 0x38] = a2\n  9613: a2 = u64 [a1 + 0x10]\n  9616: u64 [s1 + 0x58] = a2\n  9619: a2 = u64 [a1]\n  9621: u64 [s1 + 0x28] = a2\n  9624: a2 = u64 [a1 + 0x18]\n  9627: u64 [s1 + 0x30] = a2\n  9630: a1 = u64 [a1 + 0x8]\n  9633: u64 [s1 + 0x20] = a1\n  9636: u64 [s1 + 0x18] = a0\n  9639: a0 = s1 + 0x80\n  9643: a1 = 0x40\n  9646: ra = 0xb0\n  9650: jump @17\n      : @287 [@dyn 124] (gas: 12)\n  9653: a1 = sp + 0x200\n  9657: a0 = u64 [a1 + 0xd8]\n  9661: u64 [sp + 0x140] = a0\n  9665: a0 = u64 [a1 + 0xd0]\n  9669: u64 [sp + 0xd8] = a0\n  9673: a0 = u64 [a1 + 0xc8]\n  9677: u64 [sp + 0xd0] = a0\n  9681: a0 = u64 [a1 + 0xc0]\n  9685: u64 [sp + 0xc8] = a0\n  9689: a0 = sp + 0x260\n  9693: a1 = 0x40\n  9696: ra = 250, jump @17\n      : @288 [@dyn 125] (gas: 30)\n  9702: a5 = sp + 0x200\n  9706: a1 = u64 [a5 + 0x78]\n  9709: u64 [sp + 0x158] = a1\n  9713: s1 = u64 [a5 + 0x70]\n  9716: a2 = u64 [a5 + 0x68]\n  9719: u64 [sp + 0x150] = a2\n  9723: a4 = u64 [a5 + 0x60]\n  9726: u64 [sp + 0x148] = a4\n  9730: a0 = u64 [sp + 0x130]\n  9734: u64 [sp + 0x1f8] = a0\n  9738: a0 = u64 [sp + 0x128]\n  9742: u64 [sp + 0x1f0] = a0\n  9746: a0 = u64 [sp + 0x120]\n  9750: u64 [sp + 0x1e8] = a0\n  9754: a0 = u64 [sp + 0x118]\n  9758: u64 [sp + 0x1e0] = a0\n  9762: u64 [a5 + 24] = 0\n  9765: u64 [a5 + 16] = 0\n  9768: u64 [a5 + 8] = 0\n  9771: a0 = u64 [sp + 0x138]\n  9775: u64 [a5] = a0\n  9777: u64 [a5 + 0x38] = a1\n  9780: u64 [a5 + 0x30] = s1\n  9783: u64 [a5 + 0x28] = a2\n  9786: a0 = sp + 0x240\n  9790: a1 = sp + 0x220\n  9794: a2 = sp + 0x200\n  9798: a3 = sp + 0x1e0\n  9802: u64 [a5 + 0x20] = a4\n  9805: ra = 252, jump @74\n      : @289 [@dyn 126] (gas: 11)\n  9811: a2 = u64 [sp + 0x150]\n  9815: t2 = u64 [sp + 0x148]\n  9819: a0 = u64 [sp + 0x158]\n  9823: a0 = a0 | a2\n  9826: a1 = t2 | s1\n  9829: a1 = a1 | a0\n  9832: a1 = a1 >> 0x20\n  9835: a0 = a0 | s1\n  9838: a0 = a0 << 0x20\n  9841: a0 = a0 | a1\n  9844: jump @297 if a0 != 0\n      : @290 (gas: 28)\n  9848: a1 = sp + 0x200\n  9852: a0 = u64 [a1 + 0x48]\n  9855: t0 = u64 [a1 + 0x58]\n  9858: t1 = u64 [a1 + 0x40]\n  9861: a3 = u64 [a1 + 0x50]\n  9864: a4 = a0 ^ a2\n  9867: a5 = a0 <u a2\n  9870: a1 = t1 <u t2\n  9873: a5 = a1 if a4 == 0\n  9876: a4 = a3 - s1\n  9879: ra = a4 - a5\n  9882: a4 = a4 <u a5\n  9885: a3 = a3 <u s1\n  9888: a5 = u64 [sp + 0x158]\n  9892: a5 = t0 - a5\n  9895: a5 = a5 - a3\n  9898: a5 = a5 - a4\n  9901: a0 = a0 - a2\n  9904: a0 = a0 - a1\n  9907: a1 = t1 - t2\n  9910: a0 = a0 | a5\n  9913: a3 = a1 | ra\n  9916: a3 = a3 | a0\n  9919: a0 = a0 | ra\n  9922: a3 = a3 >> 0x20\n  9925: a0 = a0 << 0x20\n  9928: a0 = a0 | a3\n  9931: jump @297 if a0 != 0\n      : @291 (gas: 77)\n  9935: a0 = u64 [sp + 0xc8]\n  9939: u64 [sp + 0x160] = a0\n  9943: a0 = u64 [sp + 0xe0]\n  9947: u64 [sp + 0x180] = a0\n  9951: u64 [sp + 408] = 0\n  9955: u64 [sp + 440] = 0\n  9959: a0 = u64 [sp + 0xf0]\n  9963: u64 [sp + 0x1a0] = a0\n  9967: a0 = u64 [sp + 0xd0]\n  9971: u64 [sp + 0x168] = a0\n  9975: a0 = u64 [sp + 0xe8]\n  9979: u64 [sp + 0x188] = a0\n  9983: a0 = u64 [sp + 0xf8]\n  9987: u64 [sp + 0x1a8] = a0\n  9991: a0 = u64 [0x20040]\n  9996: a2 = u64 [0x20048]\n 10001: a3 = u64 [0x20050]\n 10006: a4 = u64 [0x20058]\n 10011: u64 [sp + 0x1d8] = a0\n 10015: u64 [sp + 0x1d0] = a2\n 10019: u64 [sp + 0x1c8] = a3\n 10023: u64 [sp + 0x1c0] = a4\n 10027: a0 = u64 [sp + 0xd8]\n 10031: u64 [sp + 0x170] = a0\n 10035: a0 = u64 [sp + 0x100]\n 10039: u64 [sp + 0x190] = a0\n 10043: a0 = u64 [sp + 0x108]\n 10047: u64 [sp + 0x1b0] = a0\n 10051: a2 = sp + 0x1c0\n 10055: a3 = sp + 0x1a0\n 10059: a4 = sp + 0x180\n 10063: a5 = sp + 0x160\n 10067: a0 = u64 [sp + 0x140]\n 10071: u64 [sp + 0x178] = a0\n 10075: a0 = t2\n 10077: ra = 0xfe\n 10081: sp = sp + 0xfffffffffffffee0\n 10085: u64 [sp + 0x118] = ra\n 10089: u64 [sp + 0x110] = s0\n 10093: u64 [sp + 0x108] = s1\n 10097: s0 = sp + 0x120\n 10101: sp = sp & 0xffffffffffffffe0\n 10104: s1 = u64 [a5]\n 10106: u64 [sp + 0x60] = s1\n 10109: s1 = u64 [a5 + 0x8]\n 10112: u64 [sp + 0x68] = s1\n 10115: s1 = u64 [a5 + 0x10]\n 10118: u64 [sp + 0x70] = s1\n 10121: a5 = u64 [a5 + 0x18]\n 10124: u64 [sp + 0x78] = a5\n 10127: a5 = u64 [a4]\n 10129: u64 [sp + 0x38] = a5\n 10132: a5 = u64 [a4 + 0x8]\n 10135: u64 [sp + 0x40] = a5\n 10138: a5 = u64 [a4 + 0x10]\n 10141: u64 [sp + 0x48] = a5\n 10144: a4 = u64 [a4 + 0x18]\n 10147: u64 [sp + 0x50] = a4\n 10150: t0 = 0xa\n 10153: a4 = u64 [a3]\n 10155: u64 [sp + 0x18] = a4\n 10158: a4 = u64 [a3 + 0x8]\n 10161: u64 [sp + 0x20] = a4\n 10164: a4 = u64 [a3 + 0x10]\n 10167: u64 [sp + 0x28] = a4\n 10170: a3 = u64 [a3 + 0x18]\n 10173: u64 [sp + 0x30] = a3\n 10176: s1 = u64 [a2]\n 10178: a3 = u64 [a2 + 0x8]\n 10181: u64 [sp] = a3\n 10183: a3 = u64 [a2 + 0x10]\n 10186: u64 [sp + 0x8] = a3\n 10189: a2 = u64 [a2 + 0x18]\n 10192: u64 [sp + 0x10] = a2\n 10195: u64 [sp + 0x58] = a1\n 10198: ra = 0xc\n 10201: jump @26\n      : @292 [@dyn 127] (gas: 2)\n 10204: ecalli 11 // 'ref_time_left'\n 10206: fallthrough\n      : @293 (gas: 3)\n 10207: s1 = sp + 0x7ff\n 10211: s1 = s1 + 0xd9\n 10215: jump @296 if a0 == 0\n      : @294 (gas: 44)\n 10219: a0 = sp + 0x1000\n 10223: i32 a0 = a0 + 0xfffffffffffff980\n 10227: ecalli 1 // 'balance'\n 10229: a0 = u64 [s1 + 0xa8]\n 10233: u64 [sp + 0x158] = a0\n 10237: a0 = u64 [s1 + 0xb0]\n 10241: u64 [sp + 0x150] = a0\n 10245: a0 = u64 [s1 + 0xb8]\n 10249: u64 [sp + 0x148] = a0\n 10253: a0 = u64 [s1 + 0xc0]\n 10257: u64 [sp + 0x140] = a0\n 10261: a0 = i32 [sp + 0x110]\n 10265: ecalli 6 // 'caller'\n 10267: a0 = u64 [sp + 0x140]\n 10271: u64 [s1 + 0xe0] = a0\n 10275: a0 = u64 [sp + 0x148]\n 10279: u64 [s1 + 0xd8] = a0\n 10283: a0 = u64 [sp + 0x150]\n 10287: u64 [s1 + 0xd0] = a0\n 10291: a0 = u64 [sp + 0x158]\n 10295: u64 [s1 + 0xc8] = a0\n 10299: u32 [s1 + 232] = 0\n 10303: u64 [s1 + 288] = 0\n 10307: u64 [s1 + 280] = 0\n 10311: u64 [s1 + 272] = 0\n 10315: u64 [s1 + 264] = 0\n 10319: a0 = sp + 0x7ff\n 10323: a0 = a0 + 0x1a1\n 10327: a0 = a0 << 0x20\n 10330: a0 = a0 >> 0x20\n 10333: a1 = sp + 0x7ff\n 10337: a1 = a1 + 0x1e1\n 10341: a1 = a1 << 0x20\n 10344: a3 = a1 | a0\n 10347: a0 = sp + 0x7ff\n 10351: a0 = a0 + 0x1c1\n 10355: a0 = a0 << 0x20\n 10358: a4 = u64 [sp + 0xb8]\n 10362: a5 = a0 | a4\n 10365: a1 = 0xffffffffffffffff\n 10368: a2 = 0xffffffffffffffff\n 10371: a0 = u64 [sp + 0xc0]\n 10375: ecalli 2 // 'call'\n 10377: fallthrough\n      : @295 (gas: 1)\n 10378: jump @298 if a0 != 0\n      : @296 (gas: 23)\n 10381: a0 = u64 [sp + 0x60]\n 10384: a1 = u64 [sp + 0x118]\n 10388: u64 [a0 + 0x20] = a1\n 10391: u64 [a0 + 24] = 0\n 10394: u64 [a0 + 16] = 0\n 10397: u64 [a0 + 8] = 0\n 10400: a1 = u64 [sp + 0x120]\n 10404: u64 [a0 + 0x28] = a1\n 10407: a1 = u64 [sp + 0x138]\n 10411: u64 [a0] = a1\n 10413: a1 = u64 [sp + 0x128]\n 10417: u64 [a0 + 0x30] = a1\n 10420: a1 = u64 [sp + 0x130]\n 10424: u64 [a0 + 0x38] = a1\n 10427: sp = s0 + 0xfffffffffffff800\n 10431: sp = sp + 0xfffffffffffffde0\n 10435: sp = sp + 0x228\n 10439: a0 = sp + 0x700\n 10443: ra = u64 [a0 + 0xf0]\n 10447: s0 = u64 [a0 + 0xe8]\n 10451: s1 = u64 [a0 + 0xe0]\n 10455: sp = sp + 0x7f8\n 10459: ret\n      : @297 (gas: 1)\n 10461: trap\n      : @298 (gas: 1)\n 10462: ra = 256, jump @242\n      : @299 [@dyn 128] (gas: 38)\n 10468: sp = sp + 0xfffffffffffffe50\n 10472: u64 [sp + 0x1a8] = ra\n 10476: u64 [sp + 0x1a0] = s0\n 10480: u64 [sp + 0x198] = s1\n 10484: s0 = sp + 0x1b0\n 10488: sp = sp & 0xfffffffffffffff0\n 10491: a4 = u64 [a3 + 0x18]\n 10494: u64 [sp + 0x20] = a4\n 10497: a4 = u64 [a3 + 0x10]\n 10500: u64 [sp + 0x28] = a4\n 10503: a4 = u64 [a3 + 0x8]\n 10506: u64 [sp + 0x10] = a4\n 10509: a3 = u64 [a3]\n 10511: u64 [sp + 0x18] = a3\n 10514: a3 = u64 [a1 + 0x18]\n 10517: u64 [sp + 0x30] = a3\n 10520: a3 = u64 [a1 + 0x10]\n 10523: u64 [sp + 0x38] = a3\n 10526: a3 = u64 [a1 + 0x8]\n 10529: u64 [sp + 0x70] = a3\n 10532: a1 = u64 [a1]\n 10534: u64 [sp + 0x68] = a1\n 10537: a3 = u64 [a2]\n 10539: a1 = u64 [a2 + 0x8]\n 10542: a4 = u64 [a2 + 0x10]\n 10545: a2 = u64 [a2 + 0x18]\n 10548: u64 [sp + 0x8] = a0\n 10551: u64 [sp + 0x98] = a2\n 10555: u64 [sp + 0x168] = a2\n 10559: u64 [sp + 0x90] = a4\n 10563: u64 [sp + 0x160] = a4\n 10567: u64 [sp + 0x88] = a1\n 10571: u64 [sp + 0x158] = a1\n 10575: a0 = sp + 0x170\n 10579: a1 = sp + 0x150\n 10583: u64 [sp + 0x60] = a3\n 10586: u64 [sp + 0x150] = a3\n 10590: ra = 258, jump @211\n      : @300 [@dyn 129] (gas: 11)\n 10596: a0 = u64 [sp + 0x170]\n 10600: u64 [sp + 0x58] = a0\n 10603: a0 = u64 [sp + 0x178]\n 10607: u64 [sp + 0x50] = a0\n 10610: a0 = u64 [sp + 0x180]\n 10614: u64 [sp + 0x48] = a0\n 10617: a0 = u64 [sp + 0x188]\n 10621: u64 [sp + 0x40] = a0\n 10624: a0 = sp + 0x130\n 10628: a1 = 0x40\n 10631: ra = 260, jump @17\n      : @301 [@dyn 130] (gas: 23)\n 10637: a1 = u64 [sp + 0x148]\n 10641: u64 [sp + 0xa8] = a1\n 10645: a2 = u64 [sp + 0x140]\n 10649: u64 [sp + 0xa0] = a2\n 10653: s1 = u64 [sp + 0x138]\n 10657: a0 = u64 [sp + 0x130]\n 10661: a3 = u64 [sp + 0x40]\n 10664: u64 [sp + 0x108] = a3\n 10668: a3 = a0\n 10670: u64 [sp + 0x80] = a0\n 10674: a0 = u64 [sp + 0x48]\n 10677: u64 [sp + 0x100] = a0\n 10681: a0 = u64 [sp + 0x50]\n 10684: u64 [sp + 0xf8] = a0\n 10688: a0 = u64 [sp + 0x58]\n 10691: u64 [sp + 0xf0] = a0\n 10695: u64 [sp + 0x128] = a1\n 10699: u64 [sp + 0x120] = a2\n 10703: u64 [sp + 0x118] = s1\n 10707: a0 = sp + 0x110\n 10711: a1 = sp + 0xf0\n 10715: u64 [sp + 0x110] = a3\n 10719: ra = 262, jump @206\n      : @302 [@dyn 131] (gas: 12)\n 10725: a0 = u64 [sp + 0x80]\n 10729: u64 [sp + 0x78] = s1\n 10732: a2 = u64 [sp + 0xa8]\n 10736: a2 = a2 | s1\n 10739: a3 = u64 [sp + 0xa0]\n 10743: a1 = a0 | a3\n 10746: a1 = a1 | a2\n 10749: a1 = a1 >> 0x20\n 10752: a2 = a2 | a3\n 10755: a2 = a2 << 0x20\n 10758: a1 = a1 | a2\n 10761: jump @313 if a1 != 0\n      : @303 (gas: 10)\n 10765: s1 = u64 [sp + 0x60]\n 10768: u64 [sp + 0xd0] = s1\n 10772: a1 = u64 [sp + 0x88]\n 10776: u64 [sp + 0xd8] = a1\n 10780: a1 = u64 [sp + 0x90]\n 10784: u64 [sp + 0xe0] = a1\n 10788: a1 = sp + 0xd0\n 10792: a2 = u64 [sp + 0x98]\n 10796: u64 [sp + 0xe8] = a2\n 10800: ra = 264, jump @19\n      : @304 [@dyn 132] (gas: 41)\n 10806: a1 = u64 [sp + 0x68]\n 10809: a1 = a1 + s1\n 10812: a2 = a1 <u s1\n 10815: a0 = u64 [sp + 0x70]\n 10818: t2 = u64 [sp + 0x88]\n 10822: a0 = a0 + t2\n 10825: a3 = a0 + a2\n 10828: a4 = a3 ^ t2\n 10831: a0 = a3 <u t2\n 10834: a0 = a2 if a4 == 0\n 10837: a4 = u64 [sp + 0x10]\n 10840: a2 = a3 ^ a4\n 10843: a3 = a4 <u a3\n 10846: a4 = u64 [sp + 0x18]\n 10849: a1 = a4 <u a1\n 10852: s1 = u64 [sp + 0x38]\n 10855: t1 = u64 [sp + 0x90]\n 10859: a4 = t1 + s1\n 10862: a1 = a3 if a2 != 0\n 10865: a2 = a4 <u t1\n 10868: ra = u64 [sp + 0x30]\n 10871: t0 = u64 [sp + 0x98]\n 10875: a3 = t0 + ra\n 10878: a2 = a2 + a3\n 10881: a0 = a0 + a4\n 10884: a3 = a0 <u a4\n 10887: a2 = a2 + a3\n 10890: a4 = u64 [sp + 0x20]\n 10893: a3 = a2 ^ a4\n 10896: a2 = a4 <u a2\n 10899: a5 = u64 [sp + 0x28]\n 10902: a4 = a5 <u a0\n 10905: a2 = a4 if a3 == 0\n 10908: a0 = a0 ^ a5\n 10911: a0 = a0 | a3\n 10914: a1 = a2 if a0 != 0\n 10917: a4 = t0\n 10919: a3 = t1\n 10921: t0 = u64 [sp + 0x60]\n 10924: t1 = u64 [sp + 0x68]\n 10927: jump @314 if a1 != 0\n      : @305 (gas: 9)\n 10931: a0 = t1 | s1\n 10934: a1 = u64 [sp + 0x70]\n 10937: a1 = a1 | ra\n 10940: a0 = a0 | a1\n 10943: a0 = a0 >> 0x20\n 10946: a1 = a1 | s1\n 10949: a1 = a1 << 0x20\n 10952: a0 = a0 | a1\n 10955: jump @313 if a0 != 0\n      : @306 (gas: 10)\n 10959: a0 = t0 | a3\n 10962: a1 = t2 | a4\n 10965: a0 = a0 | a1\n 10968: a0 = a0 >> 0x20\n 10971: a1 = a1 | a3\n 10974: a1 = a1 << 0x20\n 10977: a0 = a0 | a1\n 10980: a2 = u64 [sp + 0x78]\n 10983: a3 = u64 [sp + 0xa8]\n 10987: jump @313 if a0 != 0\n      : @307 (gas: 9)\n 10991: a0 = u64 [sp + 0xa0]\n 10995: a0 = a0 | a3\n 10998: a1 = 0xffffffe0\n 11008: a4 = u64 [sp + 0x80]\n 11012: u64 [sp + 0x70] = a1\n 11015: a1 = a4 <u a1\n 11018: a1 = 0 if a2 != 0\n 11020: a1 = 0 if a0 != 0\n 11022: jump @313 if a1 == 0\n      : @308 (gas: 6)\n 11026: i32 t1 = t1 + 0\n 11028: u64 [sp + 0x68] = t1\n 11031: i32 a0 = a4 + 0x20\n 11034: a1 = t0\n 11036: s1 = t0\n 11038: ra = 266, jump @26\n      : @309 [@dyn 133] (gas: 5)\n 11044: i32 a0 = a0 + 0\n 11046: i32 a1 = s1 + 0\n 11048: a2 = u64 [sp + 0x68]\n 11051: ecalli 3 // 'call_data_copy'\n 11053: fallthrough\n      : @310 (gas: 27)\n 11054: t0 = u64 [sp + 0x80]\n 11058: a0 = t0 + s1\n 11061: a1 = a0 <u t0\n 11064: a2 = u64 [sp + 0x88]\n 11068: a4 = u64 [sp + 0x78]\n 11071: a2 = a2 + a4\n 11074: a2 = a2 + a1\n 11077: a3 = a2 ^ a4\n 11080: a4 = a2 <u a4\n 11083: a4 = a1 if a3 == 0\n 11086: a1 = u64 [sp + 0x90]\n 11090: a3 = u64 [sp + 0xa0]\n 11094: a1 = a1 + a3\n 11097: a3 = a1 <u a3\n 11100: a5 = u64 [sp + 0x98]\n 11104: s1 = u64 [sp + 0xa8]\n 11108: a5 = a5 + s1\n 11111: a3 = a3 + a5\n 11114: a4 = a4 + a1\n 11117: a1 = a4 <u a1\n 11120: a1 = a1 + a3\n 11123: a1 = a1 | a4\n 11126: a3 = u64 [sp + 0x70]\n 11129: a3 = a0 <u a3\n 11132: a3 = 0 if a2 != 0\n 11134: a3 = 0 if a1 != 0\n 11136: jump @313 if a3 == 0\n      : @311 (gas: 8)\n 11139: s1 = t0\n 11141: i32 a0 = a0 + 0x20\n 11144: u64 [sp + 200] = 0\n 11148: u64 [sp + 192] = 0\n 11152: u64 [sp + 184] = 0\n 11156: a1 = sp + 0xb0\n 11160: u64 [sp + 176] = 0\n 11164: ra = 268, jump @19\n      : @312 [@dyn 134] (gas: 14)\n 11170: a0 = u64 [sp + 0x8]\n 11173: a1 = u64 [sp + 0xa8]\n 11177: u64 [a0 + 0x18] = a1\n 11180: a1 = u64 [sp + 0xa0]\n 11184: u64 [a0 + 0x10] = a1\n 11187: a1 = u64 [sp + 0x78]\n 11190: u64 [a0 + 0x8] = a1\n 11193: u64 [a0] = s1\n 11195: sp = s0 + 0xfffffffffffffe50\n 11199: ra = u64 [sp + 0x1a8]\n 11203: s0 = u64 [sp + 0x1a0]\n 11207: s1 = u64 [sp + 0x198]\n 11211: sp = sp + 0x1b0\n 11215: ret\n      : @313 (gas: 1)\n 11217: trap\n      : @314 (gas: 7)\n 11218: a1 = 0x20160\n 11223: i32 a1 = a1 + 0\n 11225: a0 = 0x1\n 11228: a2 = 0\n 11230: ra = 0x10e\n 11234: ecalli 14 // 'seal_return'\n 11236: fallthrough\n      : @315 [@dyn 135] (gas: 24)\n 11237: sp = sp + 0xfffffffffffff9a0\n 11241: a4 = sp + 0x600\n 11245: u64 [a4 + 0x58] = ra\n 11248: u64 [a4 + 0x50] = s0\n 11251: u64 [a4 + 0x48] = s1\n 11254: s0 = sp + 0x660\n 11258: sp = sp & 0xffffffffffffffe0\n 11261: s1 = sp\n 11263: a5 = u64 [a1 + 0x10]\n 11266: t1 = u64 [a1 + 0x18]\n 11269: a4 = u64 [a1 + 0x8]\n 11272: t0 = u64 [a1]\n 11274: u64 [s1 + 0x138] = a4\n 11278: u64 [s1 + 0x120] = t1\n 11282: a1 = a4 | t1\n 11285: a4 = t0 | a5\n 11288: a4 = a4 | a1\n 11291: a4 = a4 >> 0x20\n 11294: u64 [s1 + 0x128] = a5\n 11298: a1 = a1 | a5\n 11301: a1 = a1 << 0x20\n 11304: a1 = a1 | a4\n 11307: u64 [s1 + 0xc8] = a0\n 11311: jump @369 if a1 != 0\n      : @316 (gas: 35)\n 11315: a0 = u64 [a3 + 0x18]\n 11318: u64 [s1 + 0x88] = a0\n 11322: a0 = u64 [a3 + 0x10]\n 11325: u64 [s1 + 0x90] = a0\n 11329: a0 = u64 [a3 + 0x8]\n 11332: u64 [s1 + 0x98] = a0\n 11336: a0 = u64 [a3]\n 11338: u64 [s1 + 0xa0] = a0\n 11342: a0 = u64 [a2 + 0x18]\n 11345: u64 [s1 + 0xa8] = a0\n 11349: a0 = u64 [a2 + 0x10]\n 11352: u64 [s1 + 0xb0] = a0\n 11356: a0 = u64 [a2 + 0x8]\n 11359: u64 [s1 + 0xb8] = a0\n 11363: a0 = u64 [a2]\n 11365: u64 [s1 + 0xc0] = a0\n 11369: i32 a1 = t0 + 0\n 11371: i32 a0 = s1 + 0x5a0\n 11375: u64 [s1 + 0x158] = a1\n 11379: u64 [s1 + 0x130] = t0\n 11383: ecalli 4 // 'call_data_load'\n 11385: a4 = s1 + 0x500\n 11389: a0 = u64 [a4 + 0xb8]\n 11393: a3 = u64 [a4 + 0xb0]\n 11397: a1 = u64 [a4 + 0xa8]\n 11401: a2 = u64 [a4 + 0xa0]\n 11405: u64 [a4 + 0x98] = a0\n 11409: u64 [s1 + 0x108] = a3\n 11413: u64 [a4 + 0x90] = a3\n 11417: u64 [s1 + 0x118] = a1\n 11421: u64 [a4 + 0x88] = a1\n 11425: a0 = s1 + 0x580\n 11429: u64 [s1 + 0x110] = a2\n 11433: u64 [a4 + 0x80] = a2\n 11437: ra = 272, jump @71\n      : @317 [@dyn 136] (gas: 14)\n 11443: a3 = s1 + 0x100\n 11447: a0 = u64 [a3 + 0x28]\n 11450: a2 = u64 [a3 + 0x20]\n 11453: a2 = a2 | a0\n 11456: a0 = 0x100000000\n 11466: u64 [a3 + 0x48] = a0\n 11469: a0 = 0xffffffe0\n 11479: a1 = u64 [a3 + 0x30]\n 11482: a0 = a1 <u a0\n 11485: a1 = u64 [a3 + 0x38]\n 11488: a0 = 0 if a1 != 0\n 11490: u64 [a3 + 0x50] = a2\n 11493: a0 = 0 if a2 != 0\n 11495: jump @369 if a0 == 0\n      : @318 (gas: 18)\n 11499: a0 = u64 [s1 + 0x158]\n 11503: i32 a1 = a0 + 0x20\n 11506: i32 a0 = s1 + 0x5c0\n 11510: ecalli 4 // 'call_data_load'\n 11512: a4 = s1 + 0x500\n 11516: a0 = u64 [a4 + 0xd8]\n 11520: a3 = u64 [a4 + 0xd0]\n 11524: a2 = u64 [a4 + 0xc8]\n 11528: a1 = u64 [a4 + 0xc0]\n 11532: u64 [a4 + 0x78] = a0\n 11535: u64 [s1 + 0xf0] = a3\n 11539: u64 [a4 + 0x70] = a3\n 11542: u64 [s1 + 0xf8] = a2\n 11546: u64 [a4 + 0x68] = a2\n 11549: a0 = s1 + 0x560\n 11553: u64 [s1 + 0x100] = a1\n 11557: u64 [a4 + 0x60] = a1\n 11560: ra = 274, jump @71\n      : @319 [@dyn 137] (gas: 4)\n 11566: a2 = s1 + 0x100\n 11570: a0 = u64 [a2 + 0x48]\n 11573: a0 = a0 + 0xffffffffffffffc0\n 11576: t0 = 276, jump @521\n      : @320 [@dyn 138] (gas: 1)\n 11582: jump @369 if a0 == 0\n      : @321 (gas: 6)\n 11586: a0 = u64 [s1 + 0x158]\n 11590: i32 a1 = a0 + 0x40\n 11593: i32 a0 = s1 + 0x5e0\n 11597: ra = 0x116\n 11601: ecalli 4 // 'call_data_load'\n 11603: fallthrough\n      : @322 [@dyn 139] (gas: 5)\n 11604: a0 = 0x100000000\n 11614: a2 = s1 + 0x100\n 11618: u64 [a2 + 0x48] = a0\n 11621: a0 = 0xffffffa0\n 11631: t0 = 280, jump @521\n      : @323 [@dyn 140] (gas: 1)\n 11637: jump @369 if a0 == 0\n      : @324 (gas: 15)\n 11641: a1 = s1 + 0x500\n 11645: a0 = u64 [a1 + 0xf8]\n 11649: u64 [s1 + 0xe8] = a0\n 11653: a0 = u64 [a1 + 0xf0]\n 11657: u64 [s1 + 0xe0] = a0\n 11661: a0 = u64 [a1 + 0xe8]\n 11665: u64 [s1 + 0xd8] = a0\n 11669: a0 = u64 [a1 + 0xe0]\n 11673: u64 [s1 + 0xd0] = a0\n 11677: a0 = u64 [s1 + 0x158]\n 11681: i32 a1 = a0 + 0x60\n 11684: i32 a0 = s1 + 0x600\n 11688: ra = 0x11a\n 11692: ecalli 4 // 'call_data_load'\n 11694: fallthrough\n      : @325 [@dyn 141] (gas: 4)\n 11695: a2 = s1 + 0x100\n 11699: a0 = u64 [a2 + 0x48]\n 11702: a0 = a0 + 0xffffffffffffff80\n 11705: t0 = 284, jump @521\n      : @326 [@dyn 142] (gas: 1)\n 11711: jump @369 if a0 == 0\n      : @327 (gas: 45)\n 11715: a0 = u64 [s1 + 0x618]\n 11719: u64 [s1 + 0x80] = a0\n 11723: a0 = u64 [s1 + 0x610]\n 11727: u64 [s1 + 0x78] = a0\n 11730: a0 = u64 [s1 + 0x608]\n 11734: u64 [s1 + 0x70] = a0\n 11737: a0 = u64 [s1 + 0x600]\n 11741: u64 [s1 + 0x68] = a0\n 11744: a0 = u64 [s1 + 0x158]\n 11748: i32 a1 = a0 + 0x80\n 11752: i32 a0 = s1 + 0x620\n 11756: ecalli 4 // 'call_data_load'\n 11758: a1 = s1 + 0x600\n 11762: a0 = u64 [a1 + 0x38]\n 11765: u64 [s1 + 0x60] = a0\n 11768: a0 = u64 [a1 + 0x30]\n 11771: u64 [s1 + 0x58] = a0\n 11774: a0 = u64 [a1 + 0x28]\n 11777: u64 [s1 + 0x50] = a0\n 11780: a0 = u64 [a1 + 0x20]\n 11783: u64 [s1 + 0x48] = a0\n 11786: a0 = u64 [s1 + 0x130]\n 11790: t1 = a0 + 0xa0\n 11794: a1 = t1 <u a0\n 11797: a2 = u64 [s1 + 0x138]\n 11801: t2 = a2 + a1\n 11804: a3 = t2 <u a2\n 11807: a3 = a1 if a1 == 0\n 11810: a5 = u64 [s1 + 0x128]\n 11814: a3 = a3 + a5\n 11817: a1 = a3 <u a5\n 11820: a4 = u64 [s1 + 0x120]\n 11824: t0 = a4 + a1\n 11827: u64 [s1 + 0x4e8] = t2\n 11831: u64 [s1 + 0x4e0] = t1\n 11835: u64 [s1 + 0x518] = a4\n 11839: u64 [s1 + 0x510] = a5\n 11843: u64 [s1 + 0x508] = a2\n 11847: u64 [s1 + 0x500] = a0\n 11851: u64 [s1 + 0x4f0] = a3\n 11855: a0 = s1 + 0x520\n 11859: a1 = s1 + 0x500\n 11863: a2 = s1 + 0x4e0\n 11867: u64 [s1 + 0x4f8] = t0\n 11871: ra = 286, jump @179\n      : @328 [@dyn 143] (gas: 28)\n 11877: t0 = u64 [s1 + 0x520]\n 11881: t1 = u64 [s1 + 0x528]\n 11885: t2 = u64 [s1 + 0x530]\n 11889: a2 = u64 [s1 + 0x538]\n 11893: a3 = u64 [s1 + 0x540]\n 11897: a1 = 0x20148\n 11902: a5 = u64 [s1 + 0x548]\n 11906: a4 = u64 [s1 + 0x550]\n 11910: a0 = u64 [s1 + 0x558]\n 11914: u64 [s1 + 0x40] = a1\n 11917: a1 = u32 [0x20148]\n 11922: u64 [s1 + 1144] = 0\n 11926: u64 [s1 + 1136] = 0\n 11930: u64 [s1 + 1128] = 0\n 11934: u64 [s1 + 0x460] = a1\n 11938: u64 [s1 + 0x498] = a0\n 11942: u64 [s1 + 0x490] = a4\n 11946: u64 [s1 + 0x488] = a5\n 11950: u64 [s1 + 0x480] = a3\n 11954: u64 [s1 + 0x4b8] = a2\n 11958: u64 [s1 + 0x4b0] = t2\n 11962: u64 [s1 + 0x4a8] = t1\n 11966: a0 = s1 + 0x4c0\n 11970: a1 = s1 + 0x4a0\n 11974: a2 = s1 + 0x480\n 11978: a3 = s1 + 0x460\n 11982: u64 [s1 + 0x4a0] = t0\n 11986: ra = 288, jump @299\n      : @329 [@dyn 144] (gas: 17)\n 11992: a4 = s1 + 0x400\n 11996: a2 = u64 [a4 + 0xd8]\n 12000: a3 = u64 [a4 + 0xd0]\n 12004: a0 = u64 [a4 + 0xc8]\n 12008: a1 = u64 [a4 + 0xc0]\n 12012: a4 = s1 + 0x100\n 12016: u64 [a4 + 0x58] = a0\n 12019: u64 [a4 + 0x50] = a2\n 12022: a0 = a0 | a2\n 12025: a2 = a1 | a3\n 12028: a2 = a2 | a0\n 12031: a2 = a2 >> 0x20\n 12034: u64 [a4 + 0x48] = a3\n 12037: a0 = a0 | a3\n 12040: a0 = a0 << 0x20\n 12043: a0 = a0 | a2\n 12046: jump @369 if a0 != 0\n      : @330 (gas: 3)\n 12050: a0 = s1 + 0x440\n 12054: u64 [s1 + 0x140] = a1\n 12058: ra = 290, jump @17\n      : @331 [@dyn 145] (gas: 11)\n 12064: a3 = s1 + 0x100\n 12068: a4 = u64 [a3 + 0x40]\n 12071: a0 = u64 [a3 + 0x50]\n 12074: a1 = u64 [a3 + 0x48]\n 12077: a0 = a0 | a1\n 12080: a1 = 0xffffffe0\n 12090: a1 = a4 <u a1\n 12093: a2 = u64 [a3 + 0x58]\n 12096: a1 = 0 if a2 != 0\n 12098: a1 = 0 if a0 != 0\n 12100: jump @369 if a1 == 0\n      : @332 (gas: 13)\n 12104: a3 = s1 + 0x400\n 12108: a0 = u64 [a3 + 0x58]\n 12111: a5 = u64 [a3 + 0x50]\n 12114: a1 = u64 [a3 + 0x40]\n 12117: a2 = u64 [a3 + 0x48]\n 12120: a3 = a1 | a5\n 12123: a0 = a0 | a2\n 12126: a3 = a3 | a0\n 12129: a3 = a3 >> 0x20\n 12132: a0 = a0 | a5\n 12135: a0 = a0 << 0x20\n 12138: a0 = a0 | a3\n 12141: jump @369 if a0 != 0\n      : @333 (gas: 3)\n 12145: i32 a0 = a4 + 0x20\n 12148: u64 [s1 + 0x158] = a1\n 12152: ra = 292, jump @26\n      : @334 [@dyn 146] (gas: 1)\n 12158: t0 = 294, jump @525\n      : @335 [@dyn 147] (gas: 13)\n 12164: ecalli 10 // 'hash_keccak_256'\n 12166: a1 = u64 [s1 + 0x150]\n 12170: a0 = u64 [a1 + 0x18]\n 12173: u64 [s1 + 0x38] = a0\n 12176: a0 = u64 [a1 + 0x10]\n 12179: u64 [s1 + 0x30] = a0\n 12182: a0 = u64 [a1 + 0x8]\n 12185: u64 [s1 + 0x28] = a0\n 12188: a0 = u64 [a1]\n 12190: u64 [s1 + 0x20] = a0\n 12193: a0 = s1 + 0x420\n 12197: a1 = 0x40\n 12200: ra = 296, jump @17\n      : @336 [@dyn 148] (gas: 25)\n 12206: a1 = s1 + 0x400\n 12210: a0 = u64 [a1 + 0x20]\n 12213: a3 = u64 [a1 + 0x38]\n 12216: a2 = u64 [a1 + 0x28]\n 12219: a5 = u64 [a1 + 0x30]\n 12222: a4 = a0 + 0x20\n 12225: u64 [s1 + 0x158] = a0\n 12229: a0 = a4 <u a0\n 12232: a1 = a2 + a0\n 12235: u64 [s1 + 0x150] = a2\n 12239: a2 = a1 <u a2\n 12242: a2 = a0 if a0 == 0\n 12245: a2 = a2 + a5\n 12248: u64 [s1 + 0x140] = a5\n 12252: a0 = a2 <u a5\n 12255: u64 [s1 + 0x148] = a3\n 12259: a0 = a0 + a3\n 12262: a3 = a4 | a2\n 12265: a0 = a0 | a1\n 12268: a3 = a3 | a0\n 12271: a3 = a3 >> 0x20\n 12274: a0 = a0 | a2\n 12277: a0 = a0 << 0x20\n 12280: a0 = a0 | a3\n 12283: jump @369 if a0 != 0\n      : @337 (gas: 13)\n 12287: a0 = u64 [0x20060]\n 12292: a3 = s1 + 0x400\n 12296: u64 [a3 + 0x18] = a0\n 12299: a0 = u64 [0x20068]\n 12304: a1 = u64 [0x20070]\n 12309: a2 = u64 [0x20078]\n 12314: u64 [a3 + 0x10] = a0\n 12317: u64 [a3 + 0x8] = a1\n 12320: a1 = s1 + 0x400\n 12324: u64 [a3] = a2\n 12326: u64 [s1 + 0x18] = a4\n 12329: a0 = a4\n 12331: ra = 298, jump @19\n      : @338 [@dyn 149] (gas: 4)\n 12337: a5 = s1 + 0x100\n 12341: a1 = u64 [a5 + 0x58]\n 12344: a0 = a1 + 0x40\n 12347: t0 = 300, jump @512\n      : @339 [@dyn 150] (gas: 1)\n 12353: jump @369 if a1 != 0\n      : @340 (gas: 12)\n 12357: a1 = u64 [s1 + 0x108]\n 12361: a1 = a1 << 0x20\n 12364: a2 = a1 >> 0x20\n 12367: u64 [s1 + 1016] = 0\n 12371: a1 = u64 [s1 + 0x110]\n 12375: a3 = s1 + 0x300\n 12379: u64 [a3 + 0xe0] = a1\n 12383: a1 = u64 [s1 + 0x118]\n 12387: u64 [a3 + 0xe8] = a1\n 12391: a1 = s1 + 0x3e0\n 12395: u64 [a3 + 0xf0] = a2\n 12399: ra = 302, jump @19\n      : @341 [@dyn 151] (gas: 4)\n 12405: a5 = s1 + 0x100\n 12409: a1 = u64 [a5 + 0x58]\n 12412: a0 = a1 + 0x60\n 12415: t0 = 304, jump @512\n      : @342 [@dyn 152] (gas: 1)\n 12421: jump @369 if a1 != 0\n      : @343 (gas: 15)\n 12425: a1 = 0xffffffff\n 12435: u64 [s1 + 0x118] = a1\n 12439: a2 = u64 [s1 + 0xf0]\n 12443: a2 = a2 & a1\n 12446: a1 = u64 [s1 + 0xf8]\n 12450: a1 = a1 & 0xffffffffffffffff\n 12453: a4 = u64 [s1 + 0x100]\n 12457: a3 = a4 & 0xffffffffffffffff\n 12460: u64 [s1 + 984] = 0\n 12464: a4 = s1 + 0x300\n 12468: u64 [a4 + 0xc0] = a3\n 12472: u64 [a4 + 0xc8] = a1\n 12476: a1 = s1 + 0x3c0\n 12480: u64 [a4 + 0xd0] = a2\n 12484: ra = 306, jump @19\n      : @344 [@dyn 153] (gas: 4)\n 12490: a5 = s1 + 0x100\n 12494: a1 = u64 [a5 + 0x58]\n 12497: a0 = a1 + 0x80\n 12501: t0 = 308, jump @512\n      : @345 [@dyn 154] (gas: 1)\n 12507: jump @369 if a1 != 0\n      : @346 (gas: 11)\n 12511: a1 = u64 [s1 + 0xd0]\n 12515: a3 = s1 + 0x300\n 12519: u64 [a3 + 0xa0] = a1\n 12523: a1 = u64 [s1 + 0xd8]\n 12527: u64 [a3 + 0xa8] = a1\n 12531: a1 = u64 [s1 + 0xe0]\n 12535: u64 [a3 + 0xb0] = a1\n 12539: a1 = s1 + 0x3a0\n 12543: a2 = u64 [s1 + 0xe8]\n 12547: u64 [a3 + 0xb8] = a2\n 12551: ra = 310, jump @19\n      : @347 [@dyn 155] (gas: 4)\n 12557: a5 = s1 + 0x100\n 12561: a1 = u64 [a5 + 0x58]\n 12564: a0 = a1 + 0xa0\n 12568: t0 = 312, jump @512\n      : @348 [@dyn 156] (gas: 1)\n 12574: jump @369 if a1 != 0\n      : @349 (gas: 11)\n 12578: a1 = u64 [s1 + 0x68]\n 12581: a3 = s1 + 0x300\n 12585: u64 [a3 + 0x80] = a1\n 12589: a1 = u64 [s1 + 0x70]\n 12592: u64 [a3 + 0x88] = a1\n 12596: a1 = u64 [s1 + 0x78]\n 12599: u64 [a3 + 0x90] = a1\n 12603: a1 = s1 + 0x380\n 12607: a2 = u64 [s1 + 0x80]\n 12611: u64 [a3 + 0x98] = a2\n 12615: ra = 314, jump @19\n      : @350 [@dyn 157] (gas: 4)\n 12621: a5 = s1 + 0x100\n 12625: a1 = u64 [a5 + 0x58]\n 12628: a0 = a1 + 0xc0\n 12632: t0 = 316, jump @512\n      : @351 [@dyn 158] (gas: 1)\n 12638: jump @369 if a1 != 0\n      : @352 (gas: 11)\n 12642: a1 = u64 [s1 + 0x48]\n 12645: a3 = s1 + 0x300\n 12649: u64 [a3 + 0x60] = a1\n 12652: a1 = u64 [s1 + 0x50]\n 12655: u64 [a3 + 0x68] = a1\n 12658: a1 = u64 [s1 + 0x58]\n 12661: u64 [a3 + 0x70] = a1\n 12664: a1 = s1 + 0x360\n 12668: a2 = u64 [s1 + 0x60]\n 12671: u64 [a3 + 0x78] = a2\n 12674: ra = 318, jump @19\n      : @353 [@dyn 159] (gas: 4)\n 12680: a5 = s1 + 0x100\n 12684: a1 = u64 [a5 + 0x58]\n 12687: a0 = a1 + 0xe0\n 12691: t0 = 320, jump @512\n      : @354 [@dyn 160] (gas: 1)\n 12697: jump @369 if a1 != 0\n      : @355 (gas: 15)\n 12701: a1 = u64 [s1 + 0x20]\n 12704: a2 = reverse a1\n 12706: a1 = u64 [s1 + 0x28]\n 12709: a1 = reverse a1\n 12711: a3 = u64 [s1 + 0x30]\n 12714: a3 = reverse a3\n 12716: a4 = u64 [s1 + 0x38]\n 12719: a4 = reverse a4\n 12721: a5 = s1 + 0x300\n 12725: u64 [a5 + 0x40] = a4\n 12728: u64 [a5 + 0x48] = a3\n 12731: u64 [a5 + 0x50] = a1\n 12734: a1 = s1 + 0x340\n 12738: u64 [a5 + 0x58] = a2\n 12741: ra = 322, jump @19\n      : @356 [@dyn 161] (gas: 13)\n 12747: a4 = s1 + 0x100\n 12751: a0 = u64 [a4 + 0x58]\n 12754: a3 = u64 [a4 + 0x40]\n 12757: a0 = a0 | a3\n 12760: a1 = u64 [a4 + 0x50]\n 12763: a2 = u64 [a4 + 0x48]\n 12766: a1 = a1 | a2\n 12769: a0 = a0 | a1\n 12772: a0 = a0 >> 0x20\n 12775: a1 = a1 | a3\n 12778: a1 = a1 << 0x20\n 12781: a0 = a0 | a1\n 12784: jump @369 if a0 != 0\n      : @357 (gas: 7)\n 12788: u64 [s1 + 824] = 0\n 12792: u64 [s1 + 816] = 0\n 12796: u64 [s1 + 808] = 0\n 12800: a1 = s1 + 0x320\n 12804: u64 [s1 + 800] = 0xe0\n 12810: a0 = u64 [s1 + 0x158]\n 12814: ra = 324, jump @19\n      : @358 [@dyn 162] (gas: 16)\n 12820: u64 [s1 + 760] = 0\n 12824: u64 [s1 + 752] = 0\n 12828: u64 [s1 + 744] = 0\n 12832: u64 [s1 + 736] = 0x100\n 12838: a0 = u64 [s1 + 0x148]\n 12842: a3 = s1 + 0x300\n 12846: u64 [a3 + 0x18] = a0\n 12849: a0 = u64 [s1 + 0x140]\n 12853: u64 [a3 + 0x10] = a0\n 12856: a0 = u64 [s1 + 0x150]\n 12860: u64 [a3 + 0x8] = a0\n 12863: a0 = s1 + 0x300\n 12867: a1 = s1 + 0x2e0\n 12871: a2 = u64 [s1 + 0x158]\n 12875: u64 [a3] = a2\n 12877: ra = 326, jump @206\n      : @359 [@dyn 163] (gas: 3)\n 12883: a0 = s1 + 0x2c0\n 12887: a1 = u64 [s1 + 0x158]\n 12891: ra = 328, jump @17\n      : @360 [@dyn 164] (gas: 6)\n 12897: a4 = s1 + 0x200\n 12901: a0 = u64 [a4 + 0xd8]\n 12905: a3 = u64 [a4 + 0xd0]\n 12909: a2 = u64 [a4 + 0xc8]\n 12913: a1 = u64 [a4 + 0xc0]\n 12917: t0 = 330, jump @522\n      : @361 [@dyn 165] (gas: 1)\n 12923: jump @369 if a0 != 0\n      : @362 (gas: 3)\n 12927: a0 = u64 [s1 + 0x18]\n 12930: u64 [s1 + 0x158] = a1\n 12934: ra = 332, jump @26\n      : @363 [@dyn 166] (gas: 1)\n 12940: t0 = 334, jump @525\n      : @364 [@dyn 167] (gas: 38)\n 12946: ecalli 10 // 'hash_keccak_256'\n 12948: a3 = u64 [s1 + 0x150]\n 12952: a0 = u64 [a3 + 0x18]\n 12955: a1 = u64 [a3 + 0x10]\n 12958: a2 = u64 [a3 + 0x8]\n 12961: a3 = u64 [a3]\n 12963: a4 = reverse a0\n 12965: a0 = reverse a1\n 12967: a1 = reverse a2\n 12969: a2 = reverse a3\n 12971: u64 [s1 + 0x298] = a2\n 12975: u64 [s1 + 0x290] = a1\n 12979: u64 [s1 + 0x288] = a0\n 12983: a0 = s1 + 0x2a0\n 12987: a1 = s1 + 0x280\n 12991: u64 [s1 + 0x280] = a4\n 12995: ra = 0x150\n 12999: sp = sp + 0xfffffffffffffd00\n 13003: a2 = sp + 0x200\n 13007: u64 [a2 + 0xf8] = ra\n 13011: u64 [a2 + 0xf0] = s0\n 13015: u64 [a2 + 0xe8] = s1\n 13019: s0 = sp + 0x300\n 13023: sp = sp & 0xffffffffffffffe0\n 13026: s1 = sp\n 13028: a2 = u64 [a1 + 0x18]\n 13031: u64 [s1 + 0x48] = a2\n 13034: a2 = u64 [a1 + 0x10]\n 13037: u64 [s1 + 0x40] = a2\n 13040: a2 = u64 [a1 + 0x8]\n 13043: u64 [s1 + 0x38] = a2\n 13046: a1 = u64 [a1]\n 13048: u64 [s1 + 0x30] = a1\n 13051: u64 [s1 + 0x28] = a0\n 13054: a0 = s1 + 0x2a0\n 13058: a1 = 0x40\n 13061: ra = 0x158\n 13065: jump @17\n      : @365 [@dyn 168] (gas: 35)\n 13068: a0 = u64 [s1 + 0x2a0]\n 13072: u64 [s1 + 0x158] = a0\n 13076: a0 = u64 [s1 + 0x2a8]\n 13080: u64 [s1 + 0x150] = a0\n 13084: a0 = u64 [s1 + 0x2b0]\n 13088: u64 [s1 + 0x148] = a0\n 13092: a0 = u64 [s1 + 0x2b8]\n 13096: u64 [s1 + 0x140] = a0\n 13100: a0 = u64 [s1 + 0x40]\n 13103: a0 = u32 [a0]\n 13105: u64 [s1 + 536] = 0\n 13109: u64 [s1 + 528] = 0\n 13113: u64 [s1 + 520] = 0\n 13117: u64 [s1 + 0x200] = a0\n 13121: a0 = u64 [s1 + 0x88]\n 13125: u64 [s1 + 0x238] = a0\n 13129: a0 = u64 [s1 + 0x90]\n 13133: u64 [s1 + 0x230] = a0\n 13137: a0 = u64 [s1 + 0x98]\n 13141: u64 [s1 + 0x228] = a0\n 13145: a0 = u64 [s1 + 0xa0]\n 13149: u64 [s1 + 0x220] = a0\n 13153: a0 = u64 [s1 + 0xa8]\n 13157: u64 [s1 + 0x258] = a0\n 13161: a0 = u64 [s1 + 0xb0]\n 13165: u64 [s1 + 0x250] = a0\n 13169: a0 = u64 [s1 + 0xb8]\n 13173: u64 [s1 + 0x248] = a0\n 13177: a0 = s1 + 0x260\n 13181: a1 = s1 + 0x240\n 13185: a2 = s1 + 0x220\n 13189: a3 = s1 + 0x200\n 13193: a4 = u64 [s1 + 0xc0]\n 13197: u64 [s1 + 0x240] = a4\n 13201: ra = 338, jump @299\n      : @366 [@dyn 169] (gas: 21)\n 13207: a4 = s1 + 0x200\n 13211: a0 = u64 [a4 + 0x60]\n 13214: a1 = u64 [a4 + 0x68]\n 13217: a2 = u64 [a4 + 0x70]\n 13220: a3 = u64 [a4 + 0x78]\n 13223: u64 [s1 + 0x1b8] = a3\n 13227: u64 [s1 + 0x1b0] = a2\n 13231: u64 [s1 + 0x1a8] = a1\n 13235: u64 [s1 + 0x1a0] = a0\n 13239: a0 = u64 [s1 + 0x140]\n 13243: u64 [s1 + 0x1d8] = a0\n 13247: a0 = u64 [s1 + 0x148]\n 13251: u64 [s1 + 0x1d0] = a0\n 13255: a0 = u64 [s1 + 0x150]\n 13259: u64 [s1 + 0x1c8] = a0\n 13263: a0 = s1 + 0x1e0\n 13267: a1 = s1 + 0x1c0\n 13271: a2 = s1 + 0x1a0\n 13275: a3 = u64 [s1 + 0x158]\n 13279: u64 [s1 + 0x1c0] = a3\n 13283: ra = 340, jump @415\n      : @367 [@dyn 170] (gas: 17)\n 13289: a0 = u64 [s1 + 0x1e8]\n 13293: u64 [s1 + 0x158] = a0\n 13297: a0 = u64 [s1 + 0x1f0]\n 13301: u64 [s1 + 0x150] = a0\n 13305: a0 = u64 [s1 + 0x1e0]\n 13309: u64 [s1 + 0x148] = a0\n 13313: a0 = u64 [s1 + 0x120]\n 13317: u64 [s1 + 0x178] = a0\n 13321: a0 = u64 [s1 + 0x128]\n 13325: u64 [s1 + 0x170] = a0\n 13329: a0 = u64 [s1 + 0x138]\n 13333: u64 [s1 + 0x168] = a0\n 13337: a0 = s1 + 0x180\n 13341: a1 = s1 + 0x160\n 13345: a2 = u64 [s1 + 0x130]\n 13349: u64 [s1 + 0x160] = a2\n 13353: ra = 342, jump @125\n      : @368 [@dyn 171] (gas: 31)\n 13359: a5 = s1 + 0x100\n 13363: a0 = u64 [a5 + 0x80]\n 13367: a1 = u64 [a5 + 0x90]\n 13371: a2 = u64 [a5 + 0x88]\n 13375: a3 = u64 [a5 + 0x48]\n 13378: a0 = a0 ^ a3\n 13381: a3 = u64 [a5 + 0x50]\n 13384: a1 = a1 ^ a3\n 13387: a3 = u64 [a5 + 0x58]\n 13390: a2 = a2 ^ a3\n 13393: a3 = 0xffffffffffffffff\n 13396: a2 = a2 & a3\n 13399: a4 = u64 [a5 + 0x18]\n 13402: a1 = a1 & a4\n 13405: a0 = a0 & a3\n 13408: a0 = a0 | a1\n 13411: a0 = a0 | a2\n 13414: a0 = a0 <u 0x1\n 13417: a1 = u64 [s1 + 0xc8]\n 13421: a2 = 0\n 13423: u64 [a1 + 16] = 0\n 13426: u64 [a1 + 24] = 0\n 13429: u64 [a1 + 8] = 0\n 13432: u64 [a1] = a0\n 13434: sp = s0 + 0xfffffffffffff9a0\n 13438: a0 = sp + 0x600\n 13442: ra = u64 [a0 + 0x58]\n 13445: s0 = u64 [a0 + 0x50]\n 13448: s1 = u64 [a0 + 0x48]\n 13451: sp = sp + 0x660\n 13455: ret\n      : @369 (gas: 1)\n 13457: trap\n      : @370 [@dyn 172] (gas: 25)\n 13458: a1 = s1 + 0x200\n 13462: a0 = u64 [a1 + 0xa0]\n 13466: a3 = u64 [a1 + 0xb8]\n 13470: a2 = u64 [a1 + 0xa8]\n 13474: a5 = u64 [a1 + 0xb0]\n 13478: a4 = a0 + 0x20\n 13481: u64 [s1 + 0x78] = a0\n 13484: a0 = a4 <u a0\n 13487: a1 = a2 + a0\n 13490: u64 [s1 + 0x70] = a2\n 13493: a2 = a1 <u a2\n 13496: a2 = a0 if a0 == 0\n 13499: a2 = a2 + a5\n 13502: u64 [s1 + 0x60] = a5\n 13505: a0 = a2 <u a5\n 13508: u64 [s1 + 0x68] = a3\n 13511: a0 = a0 + a3\n 13514: a3 = a4 | a2\n 13517: a0 = a0 | a1\n 13520: a3 = a3 | a0\n 13523: a3 = a3 >> 0x20\n 13526: a0 = a0 | a2\n 13529: a0 = a0 << 0x20\n 13532: a0 = a0 | a3\n 13535: jump @414 if a0 != 0\n      : @371 (gas: 13)\n 13539: a0 = u64 [0x20080]\n 13544: a3 = s1 + 0x200\n 13548: u64 [a3 + 0x98] = a0\n 13552: a0 = u64 [0x20088]\n 13557: a1 = u64 [0x20090]\n 13562: a2 = u64 [0x20098]\n 13567: u64 [a3 + 0x90] = a0\n 13571: u64 [a3 + 0x88] = a1\n 13575: a1 = s1 + 0x280\n 13579: u64 [a3 + 0x80] = a2\n 13583: u64 [s1 + 0x58] = a4\n 13586: a0 = a4\n 13588: ra = 346, jump @19\n      : @372 [@dyn 173] (gas: 3)\n 13594: a1 = u64 [s1 + 0x78]\n 13597: a0 = a1 + 0x40\n 13600: t0 = 348, jump @511\n      : @373 [@dyn 174] (gas: 1)\n 13606: jump @414 if a1 != 0\n      : @374 (gas: 11)\n 13610: a1 = u64 [0x200a0]\n 13615: a4 = s1 + 0x200\n 13619: u64 [a4 + 0x78] = a1\n 13622: a1 = u64 [0x200a8]\n 13627: a2 = u64 [0x200b0]\n 13632: a3 = u64 [0x200b8]\n 13637: u64 [a4 + 0x70] = a1\n 13640: u64 [a4 + 0x68] = a2\n 13643: a1 = s1 + 0x260\n 13647: u64 [a4 + 0x60] = a3\n 13650: ra = 350, jump @19\n      : @375 [@dyn 175] (gas: 3)\n 13656: a1 = u64 [s1 + 0x78]\n 13659: a0 = a1 + 0x60\n 13662: t0 = 352, jump @511\n      : @376 [@dyn 176] (gas: 1)\n 13668: jump @414 if a1 != 0\n      : @377 (gas: 11)\n 13672: a1 = u64 [0x200c0]\n 13677: a4 = s1 + 0x200\n 13681: u64 [a4 + 0x58] = a1\n 13684: a1 = u64 [0x200c8]\n 13689: a2 = u64 [0x200d0]\n 13694: a3 = u64 [0x200d8]\n 13699: u64 [a4 + 0x50] = a1\n 13702: u64 [a4 + 0x48] = a2\n 13705: a1 = s1 + 0x240\n 13709: u64 [a4 + 0x40] = a3\n 13712: ra = 354, jump @19\n      : @378 [@dyn 177] (gas: 4)\n 13718: i32 a0 = s1 + 0x2c0\n 13722: ra = 0x164\n 13726: ecalli 7 // 'chain_id'\n 13728: fallthrough\n      : @379 [@dyn 178] (gas: 3)\n 13729: a1 = u64 [s1 + 0x78]\n 13732: a0 = a1 + 0x80\n 13736: t0 = 358, jump @511\n      : @380 [@dyn 179] (gas: 1)\n 13742: jump @414 if a1 != 0\n      : @381 (gas: 11)\n 13746: a5 = s1 + 0x200\n 13750: a2 = u64 [a5 + 0xc0]\n 13754: a1 = u64 [a5 + 0xc8]\n 13758: a3 = u64 [a5 + 0xd0]\n 13762: a4 = u64 [a5 + 0xd8]\n 13766: u64 [a5 + 0x38] = a4\n 13769: u64 [a5 + 0x30] = a3\n 13772: u64 [a5 + 0x28] = a1\n 13775: a1 = s1 + 0x220\n 13779: u64 [a5 + 0x20] = a2\n 13782: ra = 360, jump @19\n      : @382 [@dyn 180] (gas: 6)\n 13788: a0 = 0x30160\n 13793: u64 [s1 + 0x50] = a0\n 13796: i32 a0 = a0 + 0\n 13798: ra = 0x16a\n 13802: ecalli 0 // 'address'\n 13803: fallthrough\n      : @383 [@dyn 181] (gas: 3)\n 13804: a1 = u64 [s1 + 0x78]\n 13807: a0 = a1 + 0xa0\n 13811: t0 = 364, jump @511\n      : @384 [@dyn 182] (gas: 1)\n 13817: jump @414 if a1 != 0\n      : @385 (gas: 21)\n 13821: a3 = u64 [s1 + 0x50]\n 13824: a1 = u64 [a3 + 0x8]\n 13827: a2 = i32 [a3 + 0x10]\n 13830: a3 = u64 [a3]\n 13832: a1 = reverse a1\n 13834: a4 = a1 << 0x20\n 13837: a2 = reverse a2\n 13839: a2 = a2 >> 0x20\n 13842: a2 = a2 | a4\n 13845: a1 = a1 >> 0x20\n 13848: a3 = reverse a3\n 13850: a4 = a3 << 0x20\n 13853: a1 = a1 | a4\n 13856: a3 = a3 >> 0x20\n 13859: u64 [s1 + 536] = 0\n 13863: a4 = s1 + 0x200\n 13867: u64 [a4 + 0x10] = a3\n 13870: u64 [a4 + 0x8] = a1\n 13873: a1 = s1 + 0x200\n 13877: u64 [a4] = a2\n 13879: ra = 366, jump @19\n      : @386 [@dyn 183] (gas: 1)\n 13885: t0 = 368, jump @524\n      : @387 [@dyn 184] (gas: 1)\n 13891: jump @414 if a0 != 0\n      : @388 (gas: 7)\n 13895: u64 [s1 + 504] = 0\n 13899: u64 [s1 + 496] = 0\n 13903: u64 [s1 + 488] = 0\n 13907: a1 = s1 + 0x1e0\n 13911: u64 [s1 + 480] = 0xa0\n 13917: a0 = u64 [s1 + 0x78]\n 13920: ra = 370, jump @19\n      : @389 [@dyn 185] (gas: 15)\n 13926: u64 [s1 + 440] = 0\n 13930: u64 [s1 + 432] = 0\n 13934: u64 [s1 + 424] = 0\n 13938: u64 [s1 + 416] = 0xc0\n 13944: a0 = u64 [s1 + 0x68]\n 13947: u64 [s1 + 0x1d8] = a0\n 13951: a0 = u64 [s1 + 0x60]\n 13954: u64 [s1 + 0x1d0] = a0\n 13958: a0 = u64 [s1 + 0x70]\n 13961: u64 [s1 + 0x1c8] = a0\n 13965: a0 = s1 + 0x1c0\n 13969: a1 = s1 + 0x1a0\n 13973: a2 = u64 [s1 + 0x78]\n 13976: u64 [s1 + 0x1c0] = a2\n 13980: ra = 372, jump @206\n      : @390 [@dyn 186] (gas: 3)\n 13986: a0 = s1 + 0x180\n 13990: a1 = u64 [s1 + 0x78]\n 13993: ra = 374, jump @17\n      : @391 [@dyn 187] (gas: 6)\n 13999: a4 = s1 + 0x100\n 14003: a0 = u64 [a4 + 0x98]\n 14007: a3 = u64 [a4 + 0x90]\n 14011: a2 = u64 [a4 + 0x88]\n 14015: a1 = u64 [a4 + 0x80]\n 14019: t0 = 376, jump @522\n      : @392 [@dyn 188] (gas: 1)\n 14025: jump @414 if a0 != 0\n      : @393 (gas: 3)\n 14029: a0 = u64 [s1 + 0x58]\n 14032: u64 [s1 + 0x78] = a1\n 14035: ra = 378, jump @26\n      : @394 [@dyn 189] (gas: 20)\n 14041: a1 = sp + 0xffffffffffffffe0\n 14044: a2 = a1 & 0xffffffffffffffe0\n 14047: u64 [s1 + 0x70] = a2\n 14050: sp = a2\n 14052: i32 a0 = a0 + 0\n 14054: a1 = i32 [s1 + 0x78]\n 14057: i32 a2 = a2 + 0\n 14059: ecalli 10 // 'hash_keccak_256'\n 14061: a1 = u64 [s1 + 0x70]\n 14064: a0 = u64 [a1 + 0x18]\n 14067: u64 [s1 + 0x58] = a0\n 14070: a0 = u64 [a1 + 0x10]\n 14073: u64 [s1 + 0x50] = a0\n 14076: a0 = u64 [a1 + 0x8]\n 14079: u64 [s1 + 0x20] = a0\n 14082: a0 = u64 [a1]\n 14084: u64 [s1 + 0x18] = a0\n 14087: a0 = s1 + 0x160\n 14091: a1 = 0x40\n 14094: ra = 380, jump @17\n      : @395 [@dyn 190] (gas: 25)\n 14100: a0 = s1 + 0x100\n 14104: a1 = u64 [a0 + 0x60]\n 14107: a4 = u64 [a0 + 0x78]\n 14110: a2 = u64 [a0 + 0x68]\n 14113: a5 = u64 [a0 + 0x70]\n 14116: a0 = a1 + 0x20\n 14119: u64 [s1 + 0x78] = a1\n 14122: a3 = a0 <u a1\n 14125: a1 = a2 + a3\n 14128: u64 [s1 + 0x70] = a2\n 14131: a2 = a1 <u a2\n 14134: a2 = a3 if a3 == 0\n 14137: a2 = a2 + a5\n 14140: u64 [s1 + 0x60] = a5\n 14143: a3 = a2 <u a5\n 14146: u64 [s1 + 0x68] = a4\n 14149: a4 = a4 + a3\n 14152: a3 = a0 | a2\n 14155: a1 = a1 | a4\n 14158: a3 = a3 | a1\n 14161: a3 = a3 >> 0x20\n 14164: a1 = a1 | a2\n 14167: a1 = a1 << 0x20\n 14170: a1 = a1 | a3\n 14173: jump @414 if a1 != 0\n      : @396 (gas: 8)\n 14177: u64 [s1 + 336] = 0\n 14181: u64 [s1 + 328] = 0\n 14185: u64 [s1 + 320] = 0\n 14189: a2 = 0x1901000000000000\n 14199: a1 = s1 + 0x140\n 14203: u64 [s1 + 0x158] = a2\n 14207: u64 [s1 + 0x10] = a0\n 14210: ra = 382, jump @19\n      : @397 [@dyn 191] (gas: 3)\n 14216: a1 = u64 [s1 + 0x78]\n 14219: a0 = a1 + 0x22\n 14222: t0 = 384, jump @511\n      : @398 [@dyn 192] (gas: 1)\n 14228: jump @414 if a1 != 0\n      : @399 (gas: 15)\n 14232: a1 = u64 [s1 + 0x18]\n 14235: a2 = reverse a1\n 14237: a1 = u64 [s1 + 0x20]\n 14240: a1 = reverse a1\n 14242: a3 = u64 [s1 + 0x50]\n 14245: a3 = reverse a3\n 14247: a4 = u64 [s1 + 0x58]\n 14250: a4 = reverse a4\n 14252: a5 = s1 + 0x100\n 14256: u64 [a5 + 0x20] = a4\n 14259: u64 [a5 + 0x28] = a3\n 14262: u64 [a5 + 0x30] = a1\n 14265: a1 = s1 + 0x120\n 14269: u64 [a5 + 0x38] = a2\n 14272: ra = 386, jump @19\n      : @400 [@dyn 193] (gas: 3)\n 14278: a1 = u64 [s1 + 0x78]\n 14281: a0 = a1 + 0x42\n 14284: t0 = 388, jump @511\n      : @401 [@dyn 194] (gas: 1)\n 14290: jump @414 if a1 != 0\n      : @402 (gas: 11)\n 14294: a1 = u64 [s1 + 0x30]\n 14297: a3 = s1 + 0x100\n 14301: u64 [a3] = a1\n 14303: a1 = u64 [s1 + 0x38]\n 14306: u64 [a3 + 0x8] = a1\n 14309: a1 = u64 [s1 + 0x40]\n 14312: u64 [a3 + 0x10] = a1\n 14315: a1 = s1 + 0x100\n 14319: a2 = u64 [s1 + 0x48]\n 14322: u64 [a3 + 0x18] = a2\n 14325: ra = 390, jump @19\n      : @403 [@dyn 195] (gas: 1)\n 14331: t0 = 392, jump @524\n      : @404 [@dyn 196] (gas: 1)\n 14337: jump @414 if a0 != 0\n      : @405 (gas: 7)\n 14341: u64 [s1 + 248] = 0\n 14345: u64 [s1 + 240] = 0\n 14349: u64 [s1 + 232] = 0\n 14353: a1 = s1 + 0xe0\n 14357: u64 [s1 + 224] = 0x42\n 14362: a0 = u64 [s1 + 0x78]\n 14365: ra = 394, jump @19\n      : @406 [@dyn 197] (gas: 15)\n 14371: u64 [s1 + 184] = 0\n 14375: u64 [s1 + 176] = 0\n 14379: u64 [s1 + 168] = 0\n 14383: u64 [s1 + 160] = 0x62\n 14388: a0 = u64 [s1 + 0x68]\n 14391: u64 [s1 + 0xd8] = a0\n 14395: a0 = u64 [s1 + 0x60]\n 14398: u64 [s1 + 0xd0] = a0\n 14402: a0 = u64 [s1 + 0x70]\n 14405: u64 [s1 + 0xc8] = a0\n 14409: a0 = s1 + 0xc0\n 14413: a1 = s1 + 0xa0\n 14417: a2 = u64 [s1 + 0x78]\n 14420: u64 [s1 + 0xc0] = a2\n 14424: ra = 396, jump @206\n      : @407 [@dyn 198] (gas: 3)\n 14430: a0 = s1 + 0x80\n 14434: a1 = u64 [s1 + 0x78]\n 14437: ra = 398, jump @17\n      : @408 [@dyn 199] (gas: 5)\n 14443: a0 = u64 [s1 + 0x98]\n 14447: a3 = u64 [s1 + 0x90]\n 14451: a2 = u64 [s1 + 0x88]\n 14455: a1 = u64 [s1 + 0x80]\n 14459: t0 = 400, jump @522\n      : @409 [@dyn 200] (gas: 1)\n 14465: jump @414 if a0 != 0\n      : @410 (gas: 3)\n 14468: a0 = u64 [s1 + 0x10]\n 14471: u64 [s1 + 0x78] = a1\n 14474: ra = 402, jump @26\n      : @411 [@dyn 201] (gas: 10)\n 14480: a1 = sp + 0xffffffffffffffe0\n 14483: a2 = a1 & 0xffffffffffffffe0\n 14486: u64 [s1 + 0x70] = a2\n 14489: sp = a2\n 14491: i32 a0 = a0 + 0\n 14493: a1 = i32 [s1 + 0x78]\n 14496: i32 a2 = a2 + 0\n 14498: ra = 0x194\n 14502: ecalli 10 // 'hash_keccak_256'\n 14504: fallthrough\n      : @412 [@dyn 202] (gas: 6)\n 14505: a3 = u64 [s1 + 0x70]\n 14508: a0 = u64 [a3 + 0x18]\n 14511: a1 = u64 [a3 + 0x10]\n 14514: a2 = u64 [a3 + 0x8]\n 14517: a3 = u64 [a3]\n 14519: t0 = 406, jump @523\n      : @413 [@dyn 203] (gas: 12)\n 14525: a4 = u64 [s1 + 0x28]\n 14528: u64 [a4 + 0x18] = a3\n 14531: u64 [a4 + 0x10] = a2\n 14534: u64 [a4 + 0x8] = a1\n 14537: u64 [a4] = a0\n 14539: sp = s0 + 0xfffffffffffffd00\n 14543: a0 = sp + 0x200\n 14547: ra = u64 [a0 + 0xf8]\n 14551: s0 = u64 [a0 + 0xf0]\n 14555: s1 = u64 [a0 + 0xe8]\n 14559: sp = sp + 0x300\n 14563: ret\n      : @414 (gas: 1)\n 14565: trap\n      : @415 (gas: 22)\n 14566: sp = sp + 0xfffffffffffffc60\n 14570: a3 = sp + 0x300\n 14574: u64 [a3 + 0x98] = ra\n 14578: u64 [a3 + 0x90] = s0\n 14582: u64 [a3 + 0x88] = s1\n 14586: s0 = sp + 0x3a0\n 14590: sp = sp & 0xffffffffffffffe0\n 14593: s1 = u64 [a2 + 0x10]\n 14596: a5 = u64 [a2 + 0x18]\n 14599: a3 = u64 [a2 + 0x8]\n 14602: a4 = u64 [a2]\n 14604: u64 [sp + 0x78] = a3\n 14607: u64 [sp + 0x60] = a5\n 14610: a2 = a3 | a5\n 14613: a3 = a4 | s1\n 14616: a3 = a3 | a2\n 14619: a3 = a3 >> 0x20\n 14622: a2 = a2 | s1\n 14625: a2 = a2 << 0x20\n 14628: a2 = a2 | a3\n 14631: u64 [sp + 0x68] = a0\n 14634: jump @452 if a2 != 0\n      : @416 (gas: 12)\n 14638: a0 = u64 [a1 + 0x18]\n 14641: u64 [sp + 0x40] = a0\n 14644: a0 = u64 [a1 + 0x10]\n 14647: u64 [sp + 0x48] = a0\n 14650: a0 = u64 [a1 + 0x8]\n 14653: u64 [sp + 0x50] = a0\n 14656: a0 = u64 [a1]\n 14658: u64 [sp + 0x58] = a0\n 14661: a0 = sp + 0x300\n 14665: u64 [sp + 0x70] = a4\n 14668: a1 = a4\n 14670: ra = 408, jump @17\n      : @417 [@dyn 204] (gas: 10)\n 14676: a4 = sp + 0x300\n 14680: a0 = u64 [a4 + 0x18]\n 14683: a1 = u64 [a4 + 0x8]\n 14686: a2 = u64 [a4]\n 14688: a3 = u64 [a4 + 0x10]\n 14691: a0 = a0 | a1\n 14694: a1 = a2 ^ 0x41\n 14697: a1 = a1 | a3\n 14700: a0 = a0 | a1\n 14703: jump @440 if a0 != 0\n      : @418 (gas: 11)\n 14707: a2 = u64 [sp + 0x60]\n 14710: a2 = a2 | s1\n 14713: s1 = 0x100000000\n 14723: a0 = 0xffffffe0\n 14733: a1 = u64 [sp + 0x70]\n 14736: a0 = a1 <u a0\n 14739: a3 = u64 [sp + 0x78]\n 14742: a0 = 0 if a3 != 0\n 14744: u64 [sp + 0x60] = a2\n 14747: a0 = 0 if a2 != 0\n 14749: jump @452 if a0 == 0\n      : @419 (gas: 3)\n 14753: i32 a1 = a1 + 0x20\n 14756: a0 = sp + 0x2e0\n 14760: ra = 410, jump @17\n      : @420 [@dyn 205] (gas: 8)\n 14766: a1 = u64 [sp + 0x70]\n 14769: a0 = s1 + 0xffffffffffffffc0\n 14772: a0 = a1 <u a0\n 14775: a2 = u64 [sp + 0x78]\n 14778: a0 = 0 if a2 != 0\n 14780: a2 = u64 [sp + 0x60]\n 14783: a0 = 0 if a2 != 0\n 14785: jump @452 if a0 == 0\n      : @421 (gas: 11)\n 14789: a2 = sp + 0x200\n 14793: a0 = u64 [a2 + 0xf8]\n 14797: u64 [sp + 0x20] = a0\n 14800: a0 = u64 [a2 + 0xf0]\n 14804: u64 [sp + 0x28] = a0\n 14807: a0 = u64 [a2 + 0xe8]\n 14811: u64 [sp + 0x30] = a0\n 14814: s1 = u64 [a2 + 0xe0]\n 14818: i32 a1 = a1 + 0x40\n 14821: a0 = sp + 0x2c0\n 14825: ra = 412, jump @17\n      : @422 [@dyn 206] (gas: 8)\n 14831: a1 = u64 [sp + 0x70]\n 14834: a0 = 0xffffffa0\n 14844: a0 = a1 <u a0\n 14847: a2 = u64 [sp + 0x78]\n 14850: a0 = 0 if a2 != 0\n 14852: a2 = u64 [sp + 0x60]\n 14855: a0 = 0 if a2 != 0\n 14857: jump @452 if a0 == 0\n      : @423 (gas: 12)\n 14861: u64 [sp + 0x18] = s1\n 14864: a2 = sp + 0x200\n 14868: a0 = u64 [a2 + 0xd8]\n 14872: u64 [sp + 0x38] = a0\n 14875: a0 = u64 [a2 + 0xd0]\n 14879: u64 [sp + 0x60] = a0\n 14882: s1 = u64 [a2 + 0xc8]\n 14886: a0 = u64 [a2 + 0xc0]\n 14890: u64 [sp + 0x78] = a0\n 14893: i32 a1 = a1 + 0x60\n 14896: a0 = sp + 0x2a0\n 14900: ra = 414, jump @17\n      : @424 [@dyn 207] (gas: 18)\n 14906: a0 = u64 [0x200e0]\n 14911: a1 = u64 [0x200e8]\n 14916: a2 = s1 ^ a0\n 14919: u64 [sp + 0x70] = s1\n 14922: a0 = s1 <u a0\n 14925: a3 = u64 [sp + 0x78]\n 14928: a1 = a3 <u a1\n 14931: a1 = a0 if a2 != 0\n 14934: a0 = 0x7fffffffffffffff\n 14944: a3 = u64 [sp + 0x38]\n 14947: a2 = a3 ^ a0\n 14950: a0 = a3 <u a0\n 14953: a4 = u64 [sp + 0x60]\n 14956: a3 = a4 <u 0xffffffffffffffff\n 14959: a3 = a0 if a2 != 0\n 14962: a0 = a2 | ~a4\n 14965: a3 = a1 if a0 == 0\n 14968: jump @442 if a3 == 0\n      : @425 (gas: 15)\n 14972: a2 = sp + 0x200\n 14976: s1 = u64 [a2 + 0xb8]\n 14980: s1 = s1 >> 0x38\n 14983: a0 = s1 + 0xffffffffffffffe5\n 14986: a1 = a0 <u s1\n 14989: a0 = a0 <u 0x2\n 14992: a0 = 0 if a1 == 0\n 14994: a1 = 0 if a1 == 0\n 14996: a0 = 0 if a1 == 0\n 14998: u64 [a2 + 152] = 0\n 15002: u64 [a2 + 144] = 0\n 15006: u64 [a2 + 0x80] = a0\n 15010: a0 = sp + 0x280\n 15014: u64 [a2 + 136] = 0\n 15018: ra = 416, jump @457\n      : @426 [@dyn 208] (gas: 3)\n 15024: a0 = sp + 0x260\n 15028: a1 = 0x40\n 15031: ra = 418, jump @17\n      : @427 [@dyn 209] (gas: 47)\n 15037: a1 = u64 [sp + 0x278]\n 15041: u64 [sp + 0x10] = a1\n 15044: a2 = u64 [sp + 0x270]\n 15048: u64 [sp + 0x8] = a2\n 15051: a3 = u64 [sp + 0x268]\n 15055: t0 = u64 [sp + 0x260]\n 15059: u64 [sp] = t0\n 15061: a0 = u64 [sp + 0x38]\n 15064: u64 [sp + 0x1b8] = a0\n 15068: a0 = u64 [sp + 0x60]\n 15071: u64 [sp + 0x1b0] = a0\n 15075: a0 = u64 [sp + 0x70]\n 15078: u64 [sp + 0x1a8] = a0\n 15082: a0 = u64 [sp + 0x78]\n 15085: u64 [sp + 0x1a0] = a0\n 15089: a0 = u64 [sp + 0x20]\n 15092: u64 [sp + 0x1d8] = a0\n 15096: a0 = u64 [sp + 0x28]\n 15099: u64 [sp + 0x1d0] = a0\n 15103: a0 = u64 [sp + 0x30]\n 15106: u64 [sp + 0x1c8] = a0\n 15110: a0 = u64 [sp + 0x18]\n 15113: u64 [sp + 0x1c0] = a0\n 15117: u64 [sp + 504] = 0\n 15121: u64 [sp + 496] = 0\n 15125: u64 [sp + 488] = 0\n 15129: u64 [sp + 0x1e0] = s1\n 15133: a0 = u64 [sp + 0x40]\n 15136: u64 [sp + 0x218] = a0\n 15140: a0 = u64 [sp + 0x48]\n 15143: u64 [sp + 0x210] = a0\n 15147: a0 = u64 [sp + 0x50]\n 15150: u64 [sp + 0x208] = a0\n 15154: a0 = u64 [sp + 0x58]\n 15157: u64 [sp + 0x200] = a0\n 15161: u64 [sp + 0x238] = a1\n 15165: u64 [sp + 0x230] = a2\n 15169: u64 [sp + 0x228] = a3\n 15173: s1 = a3\n 15175: a0 = sp + 0x240\n 15179: a1 = sp + 0x220\n 15183: a2 = sp + 0x200\n 15187: a3 = sp + 0x1e0\n 15191: a4 = sp + 0x1c0\n 15195: a5 = sp + 0x1a0\n 15199: u64 [sp + 0x220] = t0\n 15203: ra = 420, jump @480\n      : @428 [@dyn 210] (gas: 16)\n 15209: a1 = sp + 0x200\n 15213: a0 = u64 [a1 + 0x58]\n 15216: u64 [sp + 0x70] = a0\n 15219: a0 = u64 [a1 + 0x50]\n 15222: u64 [sp + 0x58] = a0\n 15225: a0 = u64 [a1 + 0x40]\n 15228: u64 [sp + 0x78] = a0\n 15231: a0 = u64 [a1 + 0x48]\n 15234: u64 [sp + 0x60] = a0\n 15237: u64 [sp + 408] = 0\n 15241: u64 [sp + 400] = 0\n 15245: u64 [sp + 392] = 0\n 15249: a1 = sp + 0x180\n 15253: u64 [sp + 384] = 0\n 15257: a0 = 0\n 15259: ra = 422, jump @19\n      : @429 [@dyn 211] (gas: 2)\n 15265: ecalli 11 // 'ref_time_left'\n 15267: fallthrough\n      : @430 (gas: 20)\n 15268: a4 = u64 [sp + 0x8]\n 15271: t0 = u64 [sp + 0x10]\n 15274: t1 = u64 [sp]\n 15276: a2 = 0x30160\n 15281: u64 [0x30168] = 0\n 15286: u64 [0x30160] = 0\n 15291: u32 [0x30170] = 0x1000000\n 15300: a3 = sp + 0x300\n 15304: u64 [a3 + 56] = 0\n 15307: u64 [a3 + 48] = 0\n 15310: u64 [a3 + 40] = 0\n 15313: a0 = s1 | t0\n 15316: a1 = t1 | a4\n 15319: a1 = a1 | a0\n 15322: a1 = a1 >> 0x20\n 15325: a0 = a0 | a4\n 15328: a0 = a0 << 0x20\n 15331: a0 = a0 | a1\n 15334: u64 [a3 + 32] = 0\n 15337: jump @452 if a0 != 0\n      : @431 (gas: 27)\n 15341: u64 [sp + 0x50] = a2\n 15344: a3 = u64 [sp + 0x60]\n 15347: a0 = a3 ^ s1\n 15350: a1 = a3 <u s1\n 15353: ra = u64 [sp + 0x78]\n 15356: a2 = ra <u t1\n 15359: a1 = a2 if a0 == 0\n 15362: a5 = u64 [sp + 0x58]\n 15365: a0 = a5 - a4\n 15368: t2 = a0 - a1\n 15371: a0 = a0 <u a1\n 15374: a1 = a5 <u a4\n 15377: a4 = u64 [sp + 0x70]\n 15380: a4 = a4 - t0\n 15383: a4 = a4 - a1\n 15386: a4 = a4 - a0\n 15389: a0 = a3 - s1\n 15392: a0 = a0 - a2\n 15395: s1 = ra - t1\n 15398: a0 = a0 | a4\n 15401: a1 = s1 | t2\n 15404: a1 = a1 | a0\n 15407: a0 = a0 | t2\n 15410: a1 = a1 >> 0x20\n 15413: a0 = a0 << 0x20\n 15416: a0 = a0 | a1\n 15419: jump @452 if a0 != 0\n      : @432 (gas: 3)\n 15423: a0 = t1\n 15425: a1 = s1\n 15427: ra = 424, jump @26\n      : @433 [@dyn 212] (gas: 3)\n 15433: a3 = i32 [0x2014c]\n 15438: a1 = a0\n 15440: jump @435 if a3 >u 31\n      : @434 (gas: 2)\n 15444: u32 [0x2014c] = 0x20\n 15450: fallthrough\n      : @435 (gas: 31)\n 15451: a2 = sp + 0x300\n 15455: u32 [a2 + 64] = 0x20\n 15459: u64 [a2 + 120] = 0\n 15462: u64 [a2 + 112] = 0\n 15465: u64 [a2 + 104] = 0\n 15468: u64 [a2 + 96] = 0\n 15471: a0 = u64 [sp + 0x50]\n 15474: a0 = a0 << 0x20\n 15477: a0 = a0 >> 0x20\n 15480: a2 = 0x1800000000\n 15490: a0 = a0 | a2\n 15493: a2 = sp + 0x320\n 15497: a2 = a2 << 0x20\n 15500: a2 = a2 >> 0x20\n 15503: a3 = sp + 0x360\n 15507: a3 = a3 << 0x20\n 15510: a3 = a3 | a2\n 15513: a1 = a1 << 0x20\n 15516: a2 = 0x20160\n 15521: a1 = a1 >> 0x20\n 15524: a4 = s1 << 0x20\n 15527: a4 = a4 | a1\n 15530: a2 = a2 << 0x20\n 15533: a2 = a2 >> 0x20\n 15536: a1 = sp + 0x340\n 15540: a1 = a1 << 0x20\n 15543: a5 = a1 | a2\n 15546: a1 = 0xffffffffffffffff\n 15549: a2 = 0xffffffffffffffff\n 15552: ecalli 2 // 'call'\n 15554: fallthrough\n      : @436 (gas: 1)\n 15555: jump @453 if a0 != 0\n      : @437 (gas: 3)\n 15559: a0 = sp + 0x160\n 15563: a1 = 0\n 15565: ra = 426, jump @17\n      : @438 [@dyn 213] (gas: 25)\n 15571: a1 = u64 [sp + 0x170]\n 15575: u64 [sp + 0x70] = a1\n 15578: a2 = u64 [sp + 0x168]\n 15582: u64 [sp + 0x60] = a2\n 15585: s1 = u64 [sp + 0x160]\n 15589: a0 = u64 [sp + 0x178]\n 15593: u64 [sp + 0x78] = a0\n 15596: a0 = a1 << 0x20\n 15599: a0 = a0 >> 0x20\n 15602: a1 = s1 | a2\n 15605: a0 = a0 | a1\n 15608: a0 = a0 >u 0\n 15610: u64 [sp + 344] = 0\n 15614: u64 [sp + 336] = 0\n 15618: u64 [sp + 0x140] = a0\n 15622: a0 = sp + 0x140\n 15626: u64 [sp + 328] = 0\n 15630: ra = 0x1ac\n 15634: sp = sp + 0xffffffffffffff20\n 15638: u64 [sp + 0xd8] = ra\n 15642: u64 [sp + 0xd0] = s0\n 15646: u64 [sp + 0xc8] = s1\n 15650: s0 = sp + 0xe0\n 15654: t0 = 0x1e6\n 15658: jump @518\n      : @439 [@dyn 214] (gas: 4)\n 15661: a3 = u64 [sp + 0x78]\n 15664: a2 = u64 [sp + 0x60]\n 15667: a1 = u64 [sp + 0x70]\n 15670: jump @441\n      : @440 (gas: 5)\n 15672: s1 = 0\n 15674: a2 = 0\n 15676: a1 = 0\n 15678: a3 = 0\n 15680: fallthrough\n      : @441 (gas: 12)\n 15681: a0 = u64 [sp + 0x68]\n 15684: u64 [a0] = s1\n 15686: u64 [a0 + 0x8] = a2\n 15689: u64 [a0 + 0x10] = a1\n 15692: u64 [a0 + 0x18] = a3\n 15695: sp = s0 + 0xfffffffffffffc60\n 15699: a0 = sp + 0x300\n 15703: ra = u64 [a0 + 0x98]\n 15707: s0 = u64 [a0 + 0x90]\n 15711: s1 = u64 [a0 + 0x88]\n 15715: sp = sp + 0x3a0\n 15719: ret\n      : @442 (gas: 3)\n 15721: a0 = sp + 0x120\n 15725: a1 = 0x40\n 15728: ra = 430, jump @17\n      : @443 [@dyn 215] (gas: 15)\n 15734: a2 = u64 [sp + 0x138]\n 15738: s1 = u64 [sp + 0x130]\n 15742: a0 = u64 [sp + 0x128]\n 15746: a1 = u64 [sp + 0x120]\n 15750: u64 [sp + 0x70] = a0\n 15753: u64 [sp + 0x68] = a2\n 15756: a0 = a0 | a2\n 15759: u64 [sp + 0x78] = a1\n 15762: a1 = a1 | s1\n 15765: a1 = a1 | a0\n 15768: a1 = a1 >> 0x20\n 15771: a0 = a0 | s1\n 15774: a0 = a0 << 0x20\n 15777: a0 = a0 | a1\n 15780: jump @452 if a0 != 0\n      : @444 (gas: 8)\n 15784: u64 [sp + 272] = 0\n 15788: u64 [sp + 264] = 0\n 15792: u64 [sp + 256] = 0\n 15796: a0 = 0x8c379a000000000\n 15806: a1 = sp + 0x100\n 15810: u64 [sp + 0x118] = a0\n 15814: a0 = u64 [sp + 0x78]\n 15817: ra = 432, jump @19\n      : @445 [@dyn 216] (gas: 11)\n 15823: a2 = u64 [sp + 0x68]\n 15826: a2 = a2 | s1\n 15829: s1 = 0x100000000\n 15839: a0 = 0xfffffffc\n 15849: a1 = u64 [sp + 0x78]\n 15852: a0 = a1 <u a0\n 15855: a1 = u64 [sp + 0x70]\n 15858: a0 = 0 if a1 != 0\n 15860: u64 [sp + 0x68] = a2\n 15863: a0 = 0 if a2 != 0\n 15865: jump @452 if a0 == 0\n      : @446 (gas: 8)\n 15869: a0 = u64 [sp + 0x78]\n 15872: i32 a0 = a0 + 0x4\n 15875: u64 [sp + 248] = 0\n 15879: u64 [sp + 240] = 0\n 15883: u64 [sp + 224] = 0x20\n 15888: a1 = sp + 0xe0\n 15892: u64 [sp + 232] = 0\n 15896: ra = 434, jump @19\n      : @447 [@dyn 217] (gas: 8)\n 15902: a0 = s1 + 0xffffffffffffffdc\n 15905: a1 = u64 [sp + 0x78]\n 15908: a0 = a1 <u a0\n 15911: a1 = u64 [sp + 0x70]\n 15914: a0 = 0 if a1 != 0\n 15916: a1 = u64 [sp + 0x68]\n 15919: a0 = 0 if a1 != 0\n 15921: jump @452 if a0 == 0\n      : @448 (gas: 8)\n 15925: s1 = u64 [sp + 0x78]\n 15928: i32 a0 = s1 + 0x24\n 15931: u64 [sp + 216] = 0\n 15935: u64 [sp + 208] = 0\n 15939: u64 [sp + 192] = 0x22\n 15944: a1 = sp + 0xc0\n 15948: u64 [sp + 200] = 0\n 15952: ra = 436, jump @19\n      : @449 [@dyn 218] (gas: 9)\n 15958: a0 = 0x100000000\n 15968: u64 [sp + 0x60] = a0\n 15971: a0 = 0xffffffbc\n 15981: a0 = s1 <u a0\n 15984: a1 = u64 [sp + 0x70]\n 15987: a0 = 0 if a1 != 0\n 15989: a1 = u64 [sp + 0x68]\n 15992: a0 = 0 if a1 != 0\n 15994: jump @452 if a0 == 0\n      : @450 (gas: 12)\n 15997: s1 = u64 [sp + 0x78]\n 16000: i32 a0 = s1 + 0x44\n 16003: a1 = u64 [0x200f0]\n 16008: u64 [sp + 0xb8] = a1\n 16012: a1 = u64 [0x200f8]\n 16017: a2 = u64 [0x20100]\n 16022: a3 = u64 [0x20108]\n 16027: u64 [sp + 0xb0] = a1\n 16031: u64 [sp + 0xa8] = a2\n 16035: a1 = sp + 0xa0\n 16039: u64 [sp + 0xa0] = a3\n 16043: ra = 438, jump @19\n      : @451 [@dyn 219] (gas: 8)\n 16049: a0 = u64 [sp + 0x60]\n 16052: a0 = a0 + 0xffffffffffffff9c\n 16055: a0 = s1 <u a0\n 16058: a1 = u64 [sp + 0x70]\n 16061: a0 = 0 if a1 != 0\n 16063: a1 = u64 [sp + 0x68]\n 16066: a0 = 0 if a1 != 0\n 16068: jump @454 if a0 != 0\n      : @452 (gas: 1)\n 16071: trap\n      : @453 (gas: 1)\n 16072: ra = 440, jump @242\n      : @454 [@dyn 220] (gas: 9)\n 16078: s1 = u64 [sp + 0x78]\n 16081: i32 a0 = s1 + 0x64\n 16084: u64 [sp + 144] = 0\n 16088: u64 [sp + 136] = 0\n 16092: a1 = 0x7565000000000000\n 16102: u64 [sp + 0x98] = a1\n 16106: a1 = sp + 0x80\n 16110: u64 [sp + 128] = 0\n 16114: ra = 442, jump @19\n      : @455 [@dyn 221] (gas: 3)\n 16120: a1 = 0x84\n 16124: a0 = s1\n 16126: ra = 444, jump @26\n      : @456 [@dyn 222] (gas: 6)\n 16132: i32 a1 = a0 + 0\n 16134: a0 = 0x1\n 16137: a2 = 0x84\n 16141: ra = 0x1be\n 16145: ecalli 14 // 'seal_return'\n 16147: fallthrough\n      : @457 [@dyn 223] (gas: 6)\n 16148: sp = sp + 0xffffffffffffff00\n 16152: u64 [sp + 0xf8] = ra\n 16156: u64 [sp + 0xf0] = s0\n 16160: u64 [sp + 0xe8] = s1\n 16164: s0 = sp + 0x100\n 16168: t0 = 448, jump @518\n      : @458 [@dyn 224] (gas: 1)\n 16174: jump @460 if a0 == 0\n      : @459 (gas: 6)\n 16177: sp = s0 + 0xffffffffffffff00\n 16181: ra = u64 [sp + 0xf8]\n 16185: s0 = u64 [sp + 0xf0]\n 16189: s1 = u64 [sp + 0xe8]\n 16193: sp = sp + 0x100\n 16197: ret\n      : @460 (gas: 3)\n 16199: a0 = sp + 0xc0\n 16203: a1 = 0x40\n 16206: ra = 450, jump @17\n      : @461 [@dyn 225] (gas: 5)\n 16212: a2 = u64 [sp + 0xd8]\n 16216: s1 = u64 [sp + 0xd0]\n 16220: a0 = u64 [sp + 0xc8]\n 16224: a1 = u64 [sp + 0xc0]\n 16228: t0 = 452, jump @516\n      : @462 [@dyn 226] (gas: 1)\n 16234: jump @476 if a0 != 0\n      : @463 (gas: 1)\n 16238: t0 = 454, jump @526\n      : @464 [@dyn 227] (gas: 1)\n 16244: ra = 456, jump @19\n      : @465 [@dyn 228] (gas: 1)\n 16250: t0 = 458, jump @513\n      : @466 [@dyn 229] (gas: 1)\n 16256: jump @476 if a0 == 0\n      : @467 (gas: 8)\n 16260: a0 = u64 [sp + 0x18]\n 16263: i32 a0 = a0 + 0x4\n 16266: u64 [sp + 152] = 0\n 16270: u64 [sp + 144] = 0\n 16274: u64 [sp + 128] = 0x20\n 16279: a1 = sp + 0x80\n 16283: u64 [sp + 136] = 0\n 16287: ra = 460, jump @19\n      : @468 [@dyn 230] (gas: 1)\n 16293: t0 = 462, jump @514\n      : @469 [@dyn 231] (gas: 1)\n 16299: jump @476 if a0 == 0\n      : @470 (gas: 8)\n 16302: s1 = u64 [sp + 0x18]\n 16305: i32 a0 = s1 + 0x24\n 16308: u64 [sp + 120] = 0\n 16311: u64 [sp + 112] = 0\n 16314: u64 [sp + 96] = 0x22\n 16318: a1 = sp + 0x60\n 16321: u64 [sp + 104] = 0\n 16324: ra = 464, jump @19\n      : @471 [@dyn 232] (gas: 4)\n 16330: a0 = 0x100000000\n 16340: u64 [sp] = a0\n 16342: a0 = 0xffffffbc\n 16352: t0 = 466, jump @515\n      : @472 [@dyn 233] (gas: 1)\n 16358: jump @476 if a0 == 0\n      : @473 (gas: 12)\n 16361: s1 = u64 [sp + 0x18]\n 16364: i32 a0 = s1 + 0x44\n 16367: a1 = u64 [0x20110]\n 16372: u64 [sp + 0x58] = a1\n 16375: a1 = u64 [0x20118]\n 16380: a2 = u64 [0x20120]\n 16385: a3 = u64 [0x20128]\n 16390: u64 [sp + 0x50] = a1\n 16393: u64 [sp + 0x48] = a2\n 16396: a1 = sp + 0x40\n 16399: u64 [sp + 0x40] = a3\n 16402: ra = 468, jump @19\n      : @474 [@dyn 234] (gas: 3)\n 16408: a0 = u64 [sp]\n 16410: a0 = a0 + 0xffffffffffffff9c\n 16413: t0 = 470, jump @515\n      : @475 [@dyn 235] (gas: 1)\n 16419: jump @477 if a0 != 0\n      : @476 (gas: 1)\n 16422: trap\n      : @477 (gas: 9)\n 16423: s1 = u64 [sp + 0x18]\n 16426: i32 a0 = s1 + 0x64\n 16429: u64 [sp + 48] = 0\n 16432: u64 [sp + 40] = 0\n 16435: a1 = 0x7565000000000000\n 16445: u64 [sp + 0x38] = a1\n 16448: a1 = sp + 0x20\n 16451: u64 [sp + 32] = 0\n 16454: ra = 472, jump @19\n      : @478 [@dyn 236] (gas: 3)\n 16460: a1 = 0x84\n 16464: a0 = s1\n 16466: ra = 474, jump @26\n      : @479 [@dyn 237] (gas: 6)\n 16472: i32 a1 = a0 + 0\n 16474: a0 = 0x1\n 16477: a2 = 0x84\n 16481: ra = 0x1dc\n 16485: ecalli 14 // 'seal_return'\n 16487: fallthrough\n      : @480 [@dyn 238] (gas: 23)\n 16488: sp = sp + 0xfffffffffffffee0\n 16492: u64 [sp + 0x118] = ra\n 16496: u64 [sp + 0x110] = s0\n 16500: u64 [sp + 0x108] = s1\n 16504: s0 = sp + 0x120\n 16508: sp = sp & 0xfffffffffffffff0\n 16511: t1 = u64 [a1 + 0x10]\n 16514: t2 = u64 [a1 + 0x18]\n 16517: t0 = u64 [a1 + 0x8]\n 16520: s1 = u64 [a1]\n 16522: u64 [sp + 0x70] = t0\n 16525: u64 [sp + 0x60] = t2\n 16528: a1 = t0 | t2\n 16531: u64 [sp + 0x78] = s1\n 16534: s1 = s1 | t1\n 16537: s1 = s1 | a1\n 16540: s1 = s1 >> 0x20\n 16543: u64 [sp + 0x68] = t1\n 16546: a1 = a1 | t1\n 16549: a1 = a1 << 0x20\n 16552: a1 = a1 | s1\n 16555: u64 [sp + 0x40] = a0\n 16558: jump @489 if a1 != 0\n      : @481 (gas: 30)\n 16562: a0 = u64 [a5 + 0x18]\n 16565: u64 [sp + 0x18] = a0\n 16568: a0 = u64 [a5 + 0x10]\n 16571: u64 [sp + 0x10] = a0\n 16574: a0 = u64 [a5 + 0x8]\n 16577: u64 [sp + 0x8] = a0\n 16580: a0 = u64 [a5]\n 16582: u64 [sp] = a0\n 16584: a0 = u64 [a4 + 0x18]\n 16587: u64 [sp + 0x38] = a0\n 16590: a0 = u64 [a4 + 0x10]\n 16593: u64 [sp + 0x30] = a0\n 16596: a0 = u64 [a4 + 0x8]\n 16599: u64 [sp + 0x28] = a0\n 16602: a0 = u64 [a4]\n 16604: u64 [sp + 0x20] = a0\n 16607: a0 = u64 [a3]\n 16609: u64 [sp + 0x50] = a0\n 16612: a0 = u64 [a2 + 0x18]\n 16615: a1 = u64 [a2 + 0x10]\n 16618: a3 = u64 [a2 + 0x8]\n 16621: a2 = u64 [a2]\n 16623: u64 [sp + 0xe0] = a2\n 16627: u64 [sp + 0xe8] = a3\n 16631: u64 [sp + 0xf0] = a1\n 16635: a1 = sp + 0xe0\n 16639: u64 [sp + 0xf8] = a0\n 16643: s1 = u64 [sp + 0x78]\n 16646: a0 = s1\n 16648: ra = 478, jump @19\n      : @482 [@dyn 239] (gas: 12)\n 16654: a0 = u64 [sp + 0x68]\n 16657: a2 = u64 [sp + 0x60]\n 16660: a2 = a2 | a0\n 16663: a0 = 0x100000000\n 16673: u64 [sp + 0x48] = a0\n 16676: a0 = 0xffffffe0\n 16686: a0 = s1 <u a0\n 16689: a1 = u64 [sp + 0x70]\n 16692: a0 = 0 if a1 != 0\n 16694: u64 [sp + 0x58] = a2\n 16697: a0 = 0 if a2 != 0\n 16699: jump @489 if a0 == 0\n      : @483 (gas: 9)\n 16703: a1 = u8 [sp + 0x50]\n 16706: s1 = u64 [sp + 0x78]\n 16709: i32 a0 = s1 + 0x20\n 16712: u64 [sp + 216] = 0\n 16716: u64 [sp + 208] = 0\n 16720: u64 [sp + 0xc0] = a1\n 16724: a1 = sp + 0xc0\n 16728: u64 [sp + 200] = 0\n 16732: ra = 480, jump @19\n      : @484 [@dyn 240] (gas: 8)\n 16738: a0 = u64 [sp + 0x48]\n 16741: a0 = a0 + 0xffffffffffffffc0\n 16744: a0 = s1 <u a0\n 16747: a1 = u64 [sp + 0x70]\n 16750: a0 = 0 if a1 != 0\n 16752: a1 = u64 [sp + 0x58]\n 16755: a0 = 0 if a1 != 0\n 16757: jump @489 if a0 == 0\n      : @485 (gas: 12)\n 16761: s1 = u64 [sp + 0x78]\n 16764: i32 a0 = s1 + 0x40\n 16767: a1 = u64 [sp + 0x20]\n 16770: u64 [sp + 0xa0] = a1\n 16774: a1 = u64 [sp + 0x28]\n 16777: u64 [sp + 0xa8] = a1\n 16781: a1 = u64 [sp + 0x30]\n 16784: u64 [sp + 0xb0] = a1\n 16788: a1 = sp + 0xa0\n 16792: a2 = u64 [sp + 0x38]\n 16795: u64 [sp + 0xb8] = a2\n 16799: ra = 482, jump @19\n      : @486 [@dyn 241] (gas: 7)\n 16805: a0 = 0xffffffa0\n 16815: a0 = s1 <u a0\n 16818: a1 = u64 [sp + 0x70]\n 16821: a0 = 0 if a1 != 0\n 16823: a1 = u64 [sp + 0x58]\n 16826: a0 = 0 if a1 != 0\n 16828: jump @489 if a0 == 0\n      : @487 (gas: 26)\n 16832: a2 = u64 [sp + 0x78]\n 16835: a0 = a2 + 0x80\n 16839: u64 [sp + 0x58] = a0\n 16842: a0 = a0 <u a2\n 16845: a1 = u64 [sp + 0x70]\n 16848: a3 = a1 + a0\n 16851: u64 [sp + 0x50] = a3\n 16854: a1 = a3 <u a1\n 16857: a1 = a0 if a0 == 0\n 16860: a0 = u64 [sp + 0x68]\n 16863: s1 = a0 + a1\n 16866: a0 = s1 <u a0\n 16869: a1 = u64 [sp + 0x60]\n 16872: a0 = a0 + a1\n 16875: u64 [sp + 0x70] = a0\n 16878: i32 a0 = a2 + 0x60\n 16881: a1 = u64 [sp]\n 16883: u64 [sp + 0x80] = a1\n 16887: a1 = u64 [sp + 0x8]\n 16890: u64 [sp + 0x88] = a1\n 16894: a1 = u64 [sp + 0x10]\n 16897: u64 [sp + 0x90] = a1\n 16901: a1 = sp + 0x80\n 16905: a2 = u64 [sp + 0x18]\n 16908: u64 [sp + 0x98] = a2\n 16912: ra = 484, jump @19\n      : @488 [@dyn 242] (gas: 14)\n 16918: a0 = u64 [sp + 0x40]\n 16921: u64 [a0 + 0x10] = s1\n 16924: a1 = u64 [sp + 0x50]\n 16927: u64 [a0 + 0x8] = a1\n 16930: a1 = u64 [sp + 0x58]\n 16933: u64 [a0] = a1\n 16935: a1 = u64 [sp + 0x70]\n 16938: u64 [a0 + 0x18] = a1\n 16941: sp = s0 + 0xfffffffffffffee0\n 16945: ra = u64 [sp + 0x118]\n 16949: s0 = u64 [sp + 0x110]\n 16953: s1 = u64 [sp + 0x108]\n 16957: sp = sp + 0x120\n 16961: ret\n      : @489 (gas: 1)\n 16963: trap\n      : @490 [@dyn 243] (gas: 1)\n 16964: jump @492 if a0 == 0\n      : @491 (gas: 6)\n 16967: sp = s0 + 0xffffffffffffff20\n 16971: ra = u64 [sp + 0xd8]\n 16975: s0 = u64 [sp + 0xd0]\n 16979: s1 = u64 [sp + 0xc8]\n 16983: sp = sp + 0xe0\n 16987: ret\n      : @492 (gas: 3)\n 16989: a0 = sp + 0xa0\n 16993: a1 = 0x40\n 16996: ra = 488, jump @17\n      : @493 [@dyn 244] (gas: 5)\n 17002: a2 = u64 [sp + 0xb8]\n 17006: s1 = u64 [sp + 0xb0]\n 17010: a0 = u64 [sp + 0xa8]\n 17014: a1 = u64 [sp + 0xa0]\n 17018: t0 = 490, jump @516\n      : @494 [@dyn 245] (gas: 1)\n 17024: jump @505 if a0 != 0\n      : @495 (gas: 1)\n 17027: t0 = 492, jump @527\n      : @496 [@dyn 246] (gas: 1)\n 17033: ra = 494, jump @19\n      : @497 [@dyn 247] (gas: 1)\n 17039: t0 = 496, jump @513\n      : @498 [@dyn 248] (gas: 1)\n 17045: jump @505 if a0 == 0\n      : @499 (gas: 8)\n 17048: a0 = u64 [sp + 0x18]\n 17051: i32 a0 = a0 + 0x4\n 17054: u64 [sp + 120] = 0\n 17057: u64 [sp + 112] = 0\n 17060: u64 [sp + 96] = 0x20\n 17064: a1 = sp + 0x60\n 17067: u64 [sp + 104] = 0\n 17070: ra = 498, jump @19\n      : @500 [@dyn 249] (gas: 1)\n 17076: t0 = 500, jump @514\n      : @501 [@dyn 250] (gas: 1)\n 17082: jump @505 if a0 == 0\n      : @502 (gas: 8)\n 17085: s1 = u64 [sp + 0x18]\n 17088: i32 a0 = s1 + 0x24\n 17091: u64 [sp + 88] = 0\n 17094: u64 [sp + 80] = 0\n 17097: u64 [sp + 64] = 0x18\n 17101: a1 = sp + 0x40\n 17104: u64 [sp + 72] = 0\n 17107: ra = 502, jump @19\n      : @503 [@dyn 251] (gas: 2)\n 17113: a0 = 0xffffffbc\n 17123: t0 = 504, jump @515\n      : @504 [@dyn 252] (gas: 1)\n 17129: jump @506 if a0 != 0\n      : @505 (gas: 1)\n 17132: trap\n      : @506 (gas: 11)\n 17133: s1 = u64 [sp + 0x18]\n 17136: i32 a0 = s1 + 0x44\n 17139: a1 = u64 [0x20130]\n 17144: a2 = u64 [0x20138]\n 17149: a3 = u64 [0x20140]\n 17154: u64 [sp + 0x38] = a1\n 17157: u64 [sp + 0x30] = a2\n 17160: u64 [sp + 0x28] = a3\n 17163: a1 = sp + 0x20\n 17166: u64 [sp + 32] = 0\n 17169: ra = 506, jump @19\n      : @507 [@dyn 253] (gas: 3)\n 17175: a1 = 0x64\n 17178: a0 = s1\n 17180: ra = 508, jump @26\n      : @508 [@dyn 254] (gas: 7)\n 17186: i32 a1 = a0 + 0\n 17188: a0 = 0x1\n 17191: a2 = 0x64\n 17194: ecalli 14 // 'seal_return'\n 17196: a0 = 0\n 17198: ra = 0x1fe\n 17202: jump @32\n      : @509 [export #0: 'call'] (gas: 2)\n 17205: a0 = 0\n 17207: ra = 510, jump @32\n      : @510 [@dyn 255] [export #1: 'deploy'] (gas: 2)\n 17213: a0 = 0x1\n 17216: ra = 512, jump @32\n      : @511 [@dyn 256] (gas: 18)\n 17222: a1 = a0 <u a1\n 17225: a3 = u64 [s1 + 0x70]\n 17228: a2 = a3 + a1\n 17231: a3 = a2 <u a3\n 17234: a3 = a1 if a1 == 0\n 17237: a1 = u64 [s1 + 0x60]\n 17240: a3 = a3 + a1\n 17243: a1 = a3 <u a1\n 17246: a4 = u64 [s1 + 0x68]\n 17249: a1 = a1 + a4\n 17252: a4 = a0 | a3\n 17255: a1 = a1 | a2\n 17258: a4 = a4 | a1\n 17261: a4 = a4 >> 0x20\n 17264: a1 = a1 | a3\n 17267: a1 = a1 << 0x20\n 17270: a1 = a1 | a4\n 17273: jump [t0]\n      : @512 (gas: 18)\n 17275: a1 = a0 <u a1\n 17278: a3 = u64 [a5 + 0x50]\n 17281: a2 = a3 + a1\n 17284: a3 = a2 <u a3\n 17287: a3 = a1 if a1 == 0\n 17290: a1 = u64 [a5 + 0x40]\n 17293: a3 = a3 + a1\n 17296: a1 = a3 <u a1\n 17299: a4 = u64 [a5 + 0x48]\n 17302: a1 = a1 + a4\n 17305: a4 = a0 | a3\n 17308: a1 = a1 | a2\n 17311: a4 = a4 | a1\n 17314: a4 = a4 >> 0x20\n 17317: a1 = a1 | a3\n 17320: a1 = a1 << 0x20\n 17323: a1 = a1 | a4\n 17326: jump [t0]\n      : @513 (gas: 11)\n 17328: a2 = u64 [sp + 0x8]\n 17331: a2 = a2 | s1\n 17334: s1 = 0x100000000\n 17344: a0 = 0xfffffffc\n 17354: a1 = u64 [sp + 0x18]\n 17357: a0 = a1 <u a0\n 17360: a1 = u64 [sp + 0x10]\n 17363: a0 = 0 if a1 != 0\n 17365: u64 [sp + 0x8] = a2\n 17368: a0 = 0 if a2 != 0\n 17370: jump [t0]\n      : @514 (gas: 8)\n 17372: a0 = s1 + 0xffffffffffffffdc\n 17375: a1 = u64 [sp + 0x18]\n 17378: a0 = a1 <u a0\n 17381: a1 = u64 [sp + 0x10]\n 17384: a0 = 0 if a1 != 0\n 17386: a1 = u64 [sp + 0x8]\n 17389: a0 = 0 if a1 != 0\n 17391: jump [t0]\n      : @515 (gas: 6)\n 17393: a0 = s1 <u a0\n 17396: a1 = u64 [sp + 0x10]\n 17399: a0 = 0 if a1 != 0\n 17401: a1 = u64 [sp + 0x8]\n 17404: a0 = 0 if a1 != 0\n 17406: jump [t0]\n      : @516 (gas: 11)\n 17408: u64 [sp + 0x10] = a0\n 17411: u64 [sp + 0x8] = a2\n 17414: a0 = a0 | a2\n 17417: u64 [sp + 0x18] = a1\n 17420: a1 = a1 | s1\n 17423: a1 = a1 | a0\n 17426: a1 = a1 >> 0x20\n 17429: a0 = a0 | s1\n 17432: a0 = a0 << 0x20\n 17435: a0 = a0 | a1\n 17438: jump [t0]\n      : @517 (gas: 17)\n 17440: a3 = u64 [sp + 0x150]\n 17444: a2 = a3 + a0\n 17447: a3 = a2 <u a3\n 17450: a3 = a0 if a0 == 0\n 17453: a0 = u64 [sp + 0x148]\n 17457: a3 = a3 + a0\n 17460: a0 = a3 <u a0\n 17463: a4 = u64 [sp + 0x158]\n 17467: a0 = a0 + a4\n 17470: a4 = a1 | a3\n 17473: a0 = a0 | a2\n 17476: a4 = a4 | a0\n 17479: a4 = a4 >> 0x20\n 17482: a0 = a0 | a3\n 17485: a0 = a0 << 0x20\n 17488: a0 = a0 | a4\n 17491: jump [t0]\n      : @518 (gas: 9)\n 17493: sp = sp & 0xfffffffffffffff0\n 17496: a1 = u64 [a0 + 0x10]\n 17499: a2 = u64 [a0 + 0x18]\n 17502: a3 = u64 [a0 + 0x8]\n 17505: a0 = u64 [a0]\n 17507: a2 = a2 | a3\n 17510: a0 = a0 | a1\n 17513: a0 = a0 | a2\n 17516: jump [t0]\n      : @519 (gas: 13)\n 17518: sp = sp + 0xffffffffffffffb0\n 17521: u64 [sp + 0x48] = ra\n 17524: u64 [sp + 0x40] = s0\n 17527: s0 = sp + 0x50\n 17530: sp = sp & 0xfffffffffffffff0\n 17533: u64 [sp + 48] = 0\n 17536: u64 [sp + 40] = 0\n 17539: u64 [sp + 32] = 0\n 17542: a0 = 0x4e487b7100000000\n 17552: a1 = sp + 0x20\n 17555: u64 [sp + 0x38] = a0\n 17558: a0 = 0\n 17560: jump [t0]\n      : @520 (gas: 14)\n 17562: a0 = u64 [a3 + 0x18]\n 17565: a1 = u64 [a3 + 0x10]\n 17568: a2 = u64 [a3 + 0x8]\n 17571: a3 = u64 [a3]\n 17573: a0 = reverse a0\n 17575: a1 = reverse a1\n 17577: a2 = reverse a2\n 17579: a3 = reverse a3\n 17581: a4 = u64 [s1 + 0x18]\n 17584: u64 [a4 + 0x18] = a3\n 17587: u64 [a4 + 0x10] = a2\n 17590: u64 [a4 + 0x8] = a1\n 17593: u64 [a4] = a0\n 17595: jump [t0]\n      : @521 (gas: 7)\n 17597: a1 = u64 [a2 + 0x30]\n 17600: a0 = a1 <u a0\n 17603: a1 = u64 [a2 + 0x38]\n 17606: a0 = 0 if a1 != 0\n 17608: a1 = u64 [a2 + 0x50]\n 17611: a0 = 0 if a1 != 0\n 17613: jump [t0]\n      : @522 (gas: 8)\n 17615: a0 = a0 | a2\n 17618: a2 = a1 | a3\n 17621: a2 = a2 | a0\n 17624: a2 = a2 >> 0x20\n 17627: a0 = a0 | a3\n 17630: a0 = a0 << 0x20\n 17633: a0 = a0 | a2\n 17636: jump [t0]\n      : @523 (gas: 5)\n 17638: a0 = reverse a0\n 17640: a1 = reverse a1\n 17642: a2 = reverse a2\n 17644: a3 = reverse a3\n 17646: jump [t0]\n      : @524 (gas: 12)\n 17648: a0 = u64 [s1 + 0x78]\n 17651: a3 = u64 [s1 + 0x60]\n 17654: a0 = a0 | a3\n 17657: a1 = u64 [s1 + 0x70]\n 17660: a2 = u64 [s1 + 0x68]\n 17663: a1 = a1 | a2\n 17666: a0 = a0 | a1\n 17669: a0 = a0 >> 0x20\n 17672: a1 = a1 | a3\n 17675: a1 = a1 << 0x20\n 17678: a0 = a0 | a1\n 17681: jump [t0]\n      : @525 (gas: 8)\n 17683: a1 = sp + 0xffffffffffffffe0\n 17686: a2 = a1 & 0xffffffffffffffe0\n 17689: u64 [s1 + 0x150] = a2\n 17693: sp = a2\n 17695: i32 a0 = a0 + 0\n 17697: a1 = i32 [s1 + 0x158]\n 17701: i32 a2 = a2 + 0\n 17703: jump [t0]\n      : @526 (gas: 8)\n 17705: u64 [sp + 176] = 0\n 17709: u64 [sp + 168] = 0\n 17713: u64 [sp + 160] = 0\n 17717: a0 = 0x8c379a000000000\n 17727: a1 = sp + 0xa0\n 17731: u64 [sp + 0xb8] = a0\n 17735: a0 = u64 [sp + 0x18]\n 17738: jump [t0]\n      : @527 (gas: 8)\n 17740: u64 [sp + 144] = 0\n 17744: u64 [sp + 136] = 0\n 17748: u64 [sp + 128] = 0\n 17752: a0 = 0x8c379a000000000\n 17762: a1 = sp + 0x80\n 17766: u64 [sp + 0x98] = a0\n 17770: a0 = u64 [sp + 0x18]\n 17773: jump [t0]\n","bytecode":{"object":"50564d0000c152000000000000010700c18001c00080038148655278546174654d69203a726579616c6e2064696c61766e655278546174654d73203a726579616c65727574616e676963696669726576206166206e6f697461b00d39413842573e969a1fc9d1483a468298eddbf300e2a66ea17fcdef6f8cb43e39f4b0704b8fdd2806a32891d39b8819b89e6a81618ba7487e6549a3e759973dfeb89bc6c3738b79cc59f74ccc2e51cafa0f9b177b9f230f40392b525da7a9ee4ae4cb6dcee6e077d9865552498d3b684d03e9fb09a473e16a88c7f9618cff0cf2c054aafd9ec85009df822861df7acd07037e6351a9f5c68b8b292f674ccb1d50a457736e575da1201b68462fe9df69203a4153444345732064696c61766e65727574616e67696c6176202773272069203a4153444345732064696c61766e65727574616e67696c6176202776272069203a4153444345732064696c61766e65727574616e67690481201200000000070000000e00000012000000200000002e0000003c000000420000004a0000005700000062000000710000007e0000008e0000009e000000a9000000bb000000c60000006164647265737362616c616e636563616c6c63616c6c5f646174615f636f707963616c6c5f646174615f6c6f616463616c6c5f646174615f73697a6563616c6c6572636861696e5f69646465706f7369745f6576656e746765745f73746f72616765686173685f6b656363616b5f3235367265665f74696d655f6c65667472657475726e5f646174615f636f707972657475726e5f646174615f73697a657365616c5f72657475726e7365745f696d6d757461626c655f646174617365745f73746f7261676576616c75655f7472616e73666572726564051302c035430463616c6cc03d43066465706c6f7906c02350810002c06f459b00e3010603170333033b033a043f046504d004dc0413053d05d80502061906510664068006a406c8061907a707ed071d087c08ef08fc0808097809070c4b0cbc0c7e0d8a0dc00dd70d0c0e140e900eb90ede0ef30efb0e000f050f230f280f460f550f8c0f960fa40fbd0fe20ff70f001005100a102e10331051106c109e10a910d710e310f31035113b1152117611cc13881428156e1574158b15af1572168e16da1622174b179e17db1719186d18fc1876198219a419ad19e219361a631a711a141b591baa1bbb1b751ce31c0c1d3e1d8c1dba1d941ee51e4c1f5c1f13207d20aa2078213d2282228e224e230c245e24a4240925b525e6255326dc27e42864298d29e529362a242ba22be52bb32c2e2d3e2d542d752daf2dbf2d652ed82e202f7e2f842fae2f3130413075308530ca30db300d311e314d315e3188319931cb311432533261327b328c3292320c339733e9332f3492341a352635583564359635a135ae35dc35ec35f9353d3643366636a236af36c936d936143788379437c637d237fb37013823385e386b3881389038a938bd385439ae39ef393a3ab03abd3a693ba13b493cd33c2d3d763dcf3d1e3e563eb13ece3ef83e043f143f2e3f543f6a3f743f7a3f803fa53fab3fca3fe63f184023404c40584068400e416241a541164244426a42804289428f429542b442ba42d942e942174322433d434643aa876e978a2098aa20977b2098bb20c89b0bc9ba0a979b019abbaeab20ae873751094ec87909647a017c8b95880195ac0178ab64caab9cf42836510934c87909647a017c8b95880195ac0178ab64caab9cf4281c51091a839aff01c8a80b7cbb9599ffc8a70c78cb83aaff5209f03200390850010251085004330780010383770a0f2843049511f07b10087b1564896475330820649750100255037c78017c797c7a027c7b03978808d4980897aa1097bb18d4ba0ad4a8087c79057c7a047c7b067c7c07979908d4a90997bb1097cc18d4cb0bd4b909979920d489027c79097c7a087c7b0a7c7c0b979908d4a90997bb1097cc18d4cb0bd4b9097c7a0d7c7b0c7c7c0e7c780f97aa08d4ba0a97cc10978818d4c808d4a808978820d498037c78117c7a107c7b127c7c13978808d4a80897bb1097cc18d4cb0bd4b8087c7a157c7b147c7c167c791797aa08d4ba0a97cc10979918d4c909d4a909979920d4890a7c78197c79187c7b1a7c7c1b978808d4980897bb1097cc18d4cb0bd4b8087c791d7c7b1c7c7c1e7c771f979908d4b90997cc10977718d4c707d49707977720d487076f776fa86f396f2a7b5a187b59107b58087b57821008821595111032009511d87b10207b15187b161082897b19088289087b198285108286183308205010040d026f686f59821a6faa821b086fbb787b18787a10787908787898bc38787c1f98bc30787c1e98bc28787c1d98bc20787c1c98bc18787c1b98bc10787c1a98bb08787b1998ab38787b1798ab30787b1698ab28787b1598ab20787b1498ab18787b1398ab10787b1298aa08787a11989a38787a0f989a30787a0e989a28787a0d989a20787a0c989a18787a0b989a10787a0a98990878790998893878790798893078790698892878790598892078790498891878790398891078790298880878780182102082151882161095112832009511a07b10587b15507b16489515608411e06476828718828910828a0882886f776f996faa6f887b18187b1a107b19087b17491138491130491128491120481140208318831a20831b403309ff33073300060a0901821738821830821928821a20501208d4417b6a187b69107b68087b679551a082105882155082164895116032007b185850100cb5006f687b18980082186f887b1890008218086f887b1888008218106f887b1880008218186f887b18b8008218206f887b18b0008218286f887b18a8008218306f887b18a0008218386f887b18d8008218406f887b18d0008218486f887b18c8008218506f887b18c0008218606f887b18f8008218686f887b18f0008218706f887b18e8008218786f887b18e0008379811a58831780003308040a089551e0fe8210180182151001821608019511200132008b7910520931c8780883881f8488e056380000012533094c0102390a4c0102ae8a093d084c01020133086001028377c887073200009511f07b10087b158475010a05013d0748010251050750100e09501010a2009511a07b10587b15509515608411e04911184911104901800033074064184911085010125ffd4911384911304911284911208317200a1101821730821838821928821a20d49808d4a707d487075107163308600102838833070133093300160a0e283c39084c010256187f0c20034c0102800001330760010283778000330833090a0328aefb33078000330850101420ff8378330733093300160a0e01951180fe7b1078017b1570017b166801951580018411e064164926d8004926d0004926c00080003307409568c0004926c800501018b1fc33074801027b671839074801025317045d8367e00033080a04018167fc005247823f15470c50101ab3045247ab35032d4049261801492610014926080149260001836700010a1101956b000182b71082b81882b90882bad49808d4a707d4870751071a33086001022808330860010201838833070133090a0e0182671881775617230b330860010228e8836720013308040a04956b000182b8207b681882b9287b691082ba307b6a0882b7387b67b8007b6ab0007b69a8009567a0007b68a00050101c0a01826708977720987720492698007b6790008267107b678800956880008267187b678000330750101ec2fb491678491670491668330720956860491660501020abfb33074c01027b671839074c010256173f0b826818480840019517e08479e07b6908649133076001027b6710837783993308403300220a0a01826a0882a71882a81082a90882aa501224873e956b00017bba587bb9507bb8487bb7409567409568400150102636fc826940826748826850826a587b6a387b68307b6728330780009568207b692050102820fb826718817756279f000d8268184808a0000182671083788000330920330733002a0a0e01808910828a0882884917187b79107b7a087b78320082781082771814090000000001000000d38909d479099888208888019478939851080532009511f87b1033086001028388330701330933002c0a0e019511d0fe7b1028017b1520017b161801951530018411f0828610828b18828c0882827b1b587b1c68d4bc08d4620bd48b0b98bb20d46808978820d4b8087b175208920282a7187b174882a7107b1740829718829810829b82990882ac087b1c3882aa7b1a50d4b808d49707d487078e7749210801492100014921f8009518f0007b17f00064277b126050102e1dfa8219607b1628821858d468081407e0ffffff00000000d87907821a6894a77b18309487510720028397204921e8004921e0004921d000409518d0004921d8006496501030d7f9821940821a50d49a07821848821b38d4b808d48707987720d49808978820d487075207dc0164a89517b0005010326df8140700000000010000007b17081407c0ffffff00000000d87607821868948782183094875107a9018219c800821ac000821cb800821bb0008367407b1b107b1b90007b1c187b1c980064a67b1aa000951890007b19207b19a80050103448f98219608217089577a0d879078218689487821830948751075801821748821840d487071408e0ffffff00000000821a50d88a08821b3894b8947851083401821810d46807821b20821c18d4cb0bd4b7079877207b1648d46b0b97bb20d4b70752070f0183976083aa207b1a50648650103601fb7b17408217506468501038f4fa6478821740646950103afdf6821760c86707d86708821968821b18c8b909c88909d3b90ad8b90bdaa80b821828821a48c8a808d8a80a821c58821620c86c0cc8ca0ac88b0bd88b08c8a808d4b808140aa0ffffff00000000d8a70a949a948a510a8f00837760492188004921800049117895187049117050103c4cf882161095661f1407e0ffffff01000000d26707821860c88707d88708821a68c88a09d8a90ada880a821828c88a0ad88a08821b58c8b808957b60d87b07c8790cd89c09da7709c8a909d8a907c8870782187b8b7b8c087b89107b87189551d0fe821028018215200182161801951130013200009511e0fd951700027b70187b75107b7608951520028411e033074801027b175839074801025417432b038317a0013308040a04018212b801821cb0018216a801d42c07886801947851080f03821ba0018217588077d8b7088e69da68099acac99a03d89a097b1c488ecac82a0a9aaac99a0a7b16409a69c989097b1b38c9b7078fa88e3cdba80c8877c4008577018e98da9708d4a30adbac085108c5027b12508317c0013308240a0401821cd801821ad001821bc801d4ca0788b80194785108a7028216c0018217588077956823d86809c89b027b1b18d8b20bda990bc8ab0b7b1a20d8ab097b1c28c8c909d4b909d8780794279497510776028368048317e0010a04018217f8018212f001821ce8017b1730d4720788ca01947a510a58028217e001956924d8690a821818c8a800d8800bdaaa0b821820c8b80ad88a03821828c838047b1720c8790b7b1908d89b087b1c10c8c006c88606d30607d80603da78037b1228c82a08d8a8098212307b1418c82407c897078219588099c88303d88308c88707d8b908886901858801db6908887901883b01db790bd47307db7b085108da01821838958704d88708821b40c88b09d8b90bda880b821848c88b0bd88b08821650c886068218207b1800018218087b1820018218107b1808017b1028017b1740018217287b1710017b1a30017b1218018217187b1738017b1948017b1b5001951760019518400195192001951a00017b16580150103e6f0e821760017b1750821768017b1748821770017b1740821778017b1738821780017b1730821788017b1728821790017b1720821798017b17109517e0003308405010403ff4821af8007b1a588217f0007b17188219e8007b19088216e0008218107b18788218207b18708218287b18688218307b18608218387b1898008218407b1890008218487b1888008218507b1880007b1ab8007b17b0007b19a8009517c0009518a00095198000951a607b16a00050104262fa821b086469821758d4b707821618d46908d47808988820d46707977720d4870752075e8217c8008218d8007b18508213c0008218d000d3b704d8b70cd89300da400cc9680ac9ca04d8ca02d8680a821858821c50c98c0cc9ac0cc92c0cc9b707c90707c99306d4c707d44608d47808d44707988820977720d4870751073e003308600102282b330860010228243308600102281d330860010228163308600102280f33086001022808330860010201838833070133090a0e016497646850104472f68378836933073300460a0e019511807b10787b15707b1668951580008411e064168289828a088088107b67184916587b68507b6a489568407b6940330750104804f4491638491630491628330720c8760849162050104aedf339084c010256183f0b20034c010240019517e08479e07b6910649133076001028377839933084033004c0a0a826a1033024e289136826a1050124e8b36955180821078821570821668951180003200828910828a18828b088288d4ba0ad4980bd4ab0b98bb20d4a909979920d4b9095209729511807b10787b15707b1668951580008411e0647683888317400a048218407b188217487b17188219507b1910821a587b1a087b1a387b19307b17289517207b182050105052f88217087b67188217107b67108217187b670882177b6795518082107882157082166895118000320000510719955120ff8210d8008215d0008216c8009511e00032009517a000330840501054acf18219b8008216b0008217a8008218a0005012561235520765501258563650105ac4f250125cb0345107538217188377044911784911704911602095186049116850105ea1f2501260b9345107308216188367244911584911504911401c9518404911485010627ef21407bcffffff00000000501264a134520704008216188367443a080000023a090800023a0a1000027b18387b19307b1a2814090000000065636e6f9518207b192050106638f233086464675010685af4837833070133096433006a0a0e01951100ff7b10f8007b15f0007b16e8009515000150126c9d34510719955100ff8210f8008215f0008216e8009511000132009517c00033084050106ea8f08219d8008216d0008217c8008218c0005012700e345207b5005012722e35501074bff1501276ab335107a20082171883770449219800492190004921800020951880004921880050107896f150127aae335107798216188367244911784911704911602c95186049116850107c73f1140700000000010000007b171407bcffffff0000000050127e8a335107408216188367443a081800027b18583a082000023a092800023a0a3000027b18507b19489518407b1a405020800027f1821795779c502282004e33520704008216188367643a083800024911287b183814080000000064656c697b183095182049112050208400eef0330884006467502086000ef3837833070133098400330088000a0e018289828218828a08828c10959b0188b901c8a909d49b0a88aa01c8ca0ad8ca0cc82c0cd4c902d4ab08d428085108107b7b7b79087b7a107b7c18320050228a003f3350208c008af0491118491110490111330704641849110850208e0073f039084c010256183f0b20034c0102400133086001028388330701330924330090000a0e01951160ff7b1098007b1590007b1688009515a0008411e0829a10829b18829c088299d4cb0bd4a90cd4bc0c98cc20d4ba0a97aa20d4ca0a7b1720520af9018287187b17388287107b173082860882877b172883988317400a040133074801027b170838094801028217587b1710821350821828d8890a8e6bda6a0b8212309a247b1618c8a60c9ac7c98909959ae1d89a0985ccffc89c0cd37c08d87c07da8907d8b40864298212108e99821638c86909c89808821948c9b406886b01c8b808821b409566ffc86707d86706c98606d3c908d8c90cd8ab0adb8c0ad87308d3620cd96206dac806d37307d4c707db760a510a4501821728c87b0cd8bc07821618c89606c87606d39608d89609da8709821730c83707c8970ad87a08d83707821938c89202c82707c87808d4ac077b1830d46808d487079877207b1a38d4a808978820d487075207ef007b1c2883c88317600a0401821078821970821c68d4090788ca01947a510ad7008213608217289578207b1818d87807c876087b1810d8680ada770a8217088076821738c87a0ad87a07821830c887077b1708d8360b8ec8dacb089a92d882077b17287b19308e947b1038c804048210089a47821928c99707821910c982087b1328c9360464c39ac6c9b606d3690bd89606821218d8240cdbb60cd8a80bd37006d90707da6b07d3a808d46808db870c520c4b8217208218287b78207b727b73287b79088218307b78307b7a108218387b78387b7018955160ff8210980082159000821688009511a0003200003308600102280f3308600102280833086001020183883307013309330092000a0e01951160ff7b1098007b1590007b1688009515a0008411f0829c108292188296088293d42606d4c309d46909989920d46c0c97cc20d4c90952096a0182a21882ac1082a482a608d4c40ad42609d49a0a98aa20d4c909979920d4a909520946017b16487b1c507b12587b1728828918828a10828c828808d4ac077b19407b1830d49808d487079877207b1a38d4a808978820d4870752070d0182b7107b1782b7087b170882b77b171083337b132064c7644864467b1c185020940069ef837783688219200a0301821b18c86b0bd86b07821948821830c89808c8780ad39a08d89a06da8706821950821738c89707c87606d87608d89707821958821c40c8c909c89707c87808d46b077b1a587b1848d4a808d487079877207b1650d46808978820d4870752077e8219089897208218978820d48707821a1098a820979920d4980897a9204911607b19687b18709518607b177864b764b6502096009dec956714d86708821a58c88a09d8a90ada880a821850c88a0ad88a08821b48c8b808821b287bba107bb9087bb77bb818955160ff8210980082159000821688009511a00032000050209a0051ec491118491110490141330704641849110850209c003aec39084c010256183f0b20034c010240013308600102838833070133092433009e000a0e019511b07b10487b15407b16389515508411f064728289827408828c088273959a1fd89a00c80c0984aae07b1308c8a303d8a30bc8490ac8ba0ad39a06d89a07da6b07822b18d8c90c828610822210828818da000cc86c0cd86c06c82c09c89707d8c90cd89709c8b808c86808c8c808c8980c8ec88e79dbc809d4c7088ea6db8906520653821808d88308d34a09d84a06da9806d82708d3bc09d8bc0bda980bd32708d49808da860b520b2c7b13107b1a187b17203307409518107b1c285020a00053eb9551b082104882154082163895115032003300a2003302980028e32d828a18828b10828908d4ba0a889b0194ab510b308288958a1fd88a08c8980884880184aae095a920d8a90ac8a80bd88b08daaa084917187b797b7b087b781032003300a4003302980028972d9511c0fe7b1038017b1530017b162801951540018411e064760a0d0151074c017b16180a0d64794921f8004921f0004921e800951700019518e0007b19207b19e0005020a60072ff821700017b1740821708017b1738821710017b1730821718017b17289517c0003308405020a80040e98217d8007b17588216d0008219c8007b1950821ac0007b1a488218287b1898008218307b1890008218387b1888008218407b1880007b17b8007b16b0007b19a8009517a000951880007b1aa0005020aa0017fe821748821858821950d48909d46708d498089888207b1640d46909979920d49808520882004911784911704911689518608219207b19605020ac00eae90a0d01821a48821840821958d498081409e0ffffff00000000d89a09821b5094b99489510943647698772052073b83a72083687b183864685020ae00d8eb7a16200183778318200133090a0c01821b4881172001821618821858821940821a50821c38aec70e00330a33093308330b60017b6b7b6a087b69107b68189551c0fe821038018215300182162801951140013200826228826730826820d48707826958d49208d47808988820d49707977720d4870752073501826948826b38d49b07826850826a40d4a808d48707987720d49808978820d4870752071001826c9800826a90008267800082688800d4a7097b6c207b6808d4c808d489099899207b6a10d4a808978820d498085208de0083227b622883b87b68587b67305020b200f5ea83778268588269280a0301826830826738c88707d88708826940826b08c8b909c88909d3b90ad8b90bdaa80b826848826a10c8a808c88b0bd88b02d8a808826c50826a20c8ac0cc8c808c82808d4b70ad49808d48a0a98aa20d4b808978820d4a8085208654916784916704916689568604916605020b4004fe88267308268585020b6006fea9518e08488e07b68506481837783898268583300b8000a0a826a503302ba0028f92a826a505022ba00f32a955140ff8210b8008215b0008216a8009511c0003200009511a07b10587b15507b16489515608411e09517203308405020bc00a9e68217387b17188217307b17108217287b17088216200a0d01821818821908d498087b1618821a10d4a609d48909989920d4a808978820d4980852083c647698772052073483677b171082171864685020be00bbe97a1640837783184033090a0c01811740821810ac870e0a0d0164769877205107040082171864685020c0008ee9837883693307013300c2000a0e01951108f8951b00077bb0f0007bb5e8007bb6e0009515f8079511d8fd8411e082ab187b1b000182ab107b1b080182ab087b1b100182aa7b1a1801829a187b1a2001829a107b1a2801829a087b1a300182997b1938018286828a087b1a50018289107b1948018288187b1858017b1760951700107b7838f8951700107b7930f8951700107b7a28f89517ff079577419518ff07958821951900107b9620f85020c40018f395170010827940f895170010827748f895180010828850f8951a001082aa58f8951b00077bbaf8007bb8f0007bb7e8009517ff079577019518e0077bb9e0005020c60037f295170010827718f895180010828810f895190010829908f8951a001082aa00f8951b00107bb778f8951700107b7870f8951700107b7968f8951700107b7a60f89517c0079518ff079588615020c8000de7956880007b164001d868075022ca006b285207220d951900078297d8007b17d0008296d0008297c8007b17c8008297c0007b17d800838895170010837780f80a0495170010827798f87b17e80095180010828988f87b19f00095180010828a80f87b1af80095180010828b90f87b1be0008218d000d387078218c800d39808d48707d3b6088219d800d3a909d49808d48707887701951800074928b8004928b0007b87a0009517a0074928a8003300cc00951120ff7b10d8007b15d0007b16c8009515e00033025228e32782170001951b00077bb738821708017bb730821710017bb728821718017bb720821720017bb758821728017bb750821730017bb748821738017bb740821758017bb778821748017bb770821750017bb768951780079518600795194007951a2007821640017bb6605020ce00080f951b000782b8800082b7880082b9900082ba98007bba187bb9107bb708951700077bb85020d0009ef28217e800951a00067ba7d8008217e0007ba7d0008217f0007ba7c8009517e0069518c0068219f8007ba9c0005020d200bbf3951900068297e0007b1738018297e8007b1730018297f0007b1728018297f8007b172001821758017b979800821748017b979000821750017b9788009517a006951880067b9680005020d400a0f0951b000682b9a00082b7a80082b8b00082bab8007bba587bb8507bb74895176006951840067bb9405020d600d6ef951b000682b77882b87082b96882ba60951b00107bb7b8f8951700107b78b0f8951700107b79a8f8951700107b7aa0f89517ff079577d900821820017b78821828017b78f882173001951800107b87c8f882173801951800107b87c0f89517ff079577a1009518ff079588c1003300d8009511a07b10587b15509515608411e08272827a08827b108277188283828908828c108288186f746fbb6faa6f276f826fcc6f996f387b17187b1a107b1b087b147b18387b19307b1c287b12208318831a203309ff330b2033070a109551a08210588215509511603200956920d8690782185001c8780ad88a08da770882164801c86808d86807821b5801c8b7077b179000951b00067bb7187b1898007bb8107b1aa0007bba0895172006951800067b19a8007bb95020da0047ef82174001957860d87807821a5001c87a09d8a90ada770ac86a0ad86a07821b5801c8b707d4a80bd49707d47b0b98bb20d4a707977720d4b7075207bf09951900068297307b1718018297287b1710018297207b1720018388951700108377e0f83300dc000a040182174001957840d878075022de00ca24520781099516ff079566d9008267207b17388267187b17308267107b17288267087b1720838895170010837700f90a048267407b17708267387b17788267307b1780008267287b178800821840019589a000d889076483821b5001c87b0ad8ba08da770882164801c86808d86807821c5801c87c027b1a507b1a88057b1958951a00057ba980007bacb8007ba6b0007baba8007ba3a0007b18487ba890009517c0059518a005951980057b12407ba298005020e00069f1951a000582a7c0007b17080182a7c8007b17000182a7d0007b17f80082a7d8007b17f00082a7e0007b17e80082a7e8007b17e00082a7f0007b17d80082a7f8007b17d000821758017ba7587ba650821750017ba7489517600595184005821940017ba9405020e200afed951800058287607b17c8008287687b17c0008287707b17b8008287787b17b000951720053308405020e400e1df951900058297207b173001829c387b1c38018298287b182801829630957920d87907c8780ad88a08da7708c86808d86807c87c0c8217b0007b1798048217b8007b1790048217c0007b1788048217c8007b1780048217d0007b17b8048217d8007b17b0048217e0007b17a8048217e8007b17a0048217f0007b17d8048217f8007b17d004821700017b17c804821708017b17c0047b1908017b19e0047b1a00017b1ae8047b18f8007b18f004951700059518e0049519c004951aa004951b80047b1cf0007b1cf8045020e6005af282182801648b82173801d48707821830016482d46808d47808988820d46707977720d487075207400764639519000582908298088297187b17e800829a10d82004d3b80cd8b806dac40664397b1368c93a0cd86c03d89a0a821738018219e800c97909c9a909c939037b13e000c96c0ac9b806c94606c920087b18e8006427958ce0d88c08c886099599ffd36902d8690bda280b7b1ad80088a801c9830295a8ffc88b0bd88b0ac82a0a7b1c6004951c00047bc9687bcb70951860047bca785020e80088df8217e000951900047b97388217d8007b97307b96288217e8007b9720821738017b97588217687b9750821728017b97489517400495182004821630017b96405020ea0033f39517000464685020ec00fddd821710016f77977820821918016f99989920d4890a821820016f8b97b820987720d4780c33066001039517000482721882791082730882783e0c6801033e0a60010398bb207b1610013d0b700103821a709517ff079577d9007b7a60821a787b7a58821a80007b7a50821a00018216f000d4a606821c0801821af800d4ac0bd46b0bd46a0a98bb2097aa20d4ba0a821b88007b7b48520aba05d4980ad4230bd4ba0a98aa20d4b909979920d4a9095209a10564c783867b1838015020ee00a3e09513ff079533d9004813688e628218308e898216388e6ada690a821b208eb9fc08821c288ecbdac90bd46809db9a0bd42b089a89643a7ba9a0007ba998007ba990007ba98800821910019799209899209788237b19c000d498029518ff07958821019788209888209519ff0795996101979920d4890a9777203308600102987720821b380197bb20d47b0b9788209888209517ff07957741019777207b18b800d4870c3308ff3309ff64270a028877017b1738019517e0035020f000d4f2951a000382a7f8007b17300182a7f0007b17280182a7e8007b17200182a7e0007b171801821758017ba7b800821748017ba7b000821650017ba6a8009517c0039518a003821940017ba9a0005020f200cee9951a000382a7c8007b17f80082a7c0007b17f0008017d0037b170801821790007ba778821798007ba7708217a0007ba76895178003951860038219a8007ba9605020f40088e9951b000382b788007b17e80082b780007b17e000801790037b170001821740951800027b87f8008217487b87f0008217507b87e8008217587b87e000821758017bb718821748017bb7107bb60895172003951800039519e002821a40017bba5020f60073ec82122003821728038218300382193803821b4003821c480382165003821a58037b1a9802951a00027ba690007bac88007bab80007ba9b8007ba8b0007ba7a8009517c0029518a002951980027ba2a0003300f800951140ff7b10b8007b15b0007b16a8009515c0008411e06416829a187b6a50829a107b6a48829a087b6a4082997b69388289107b695882897b69288289187b69308288087b68207b6718956780003308403300b00028d3da951800028287d8007b1740018287d0007b17d8008287c8007b17d0008287c0007b17c800951760023308405020fa00a5da951c000282c8787b18580182c67082c9687b19500182cb607b1b4801821730017b17f801821728017b17f001821720017b17e801821718017b17e001491c18491c10491c08821738017bc77bc8387bc6307bc928951740029518200295190002951ae0017bcb205020fc00cce0821950018214480182175801d49707d46408d47808988820d46707977720d487075207690295180002828748828258828340828a50d3970bd8970cd84308dab80cc96a0bc9cb00d8cb0bd86a0a821c5801c9c20cc9ac0cc9bc0cc99707c98707c94308d4c707d4080ad47a0ad4070798aa20977720d4a707520712028217c8007b1760018217e0007b178001492198014921b8018217f0007b17a0018217d0007b1768018217e8007b1788018217f8007b17a8013a074000023a094800023a0a5000023a0b5800027b17d8017b19d0017b1ac8017b1bc0018217d8007b177001821700017b179001821708017b17b0019519c001951aa001951b8001951c6001821740017b17780164473300fe009511e0fe7b1018017b1510017b160801951520018411e082c67b166082c6087b166882c6107b167082cc187b1c7882bc7b1c3882bc087b1c4082bc107b1c4882bb187b1b5033020a82ab7b1b1882ab087b1b2082ab107b1b2882aa187b1a308296829a087b1a829a107b1a088299187b19107b185833000c2812dc0a0b019516ff079566d9005107a60095170010837780f90a018267a8007b1758018267b0007b1750018267b8007b1748018267c0007b174001811710010a06821740017b67e000821748017b67d800821750017b67d000821758017b67c8004826e800492620014926180149261001492608019517ff079577a1019777209877209518ff079588e101978820d4780a9517ff079577c101977720821bb800d4b70c3308ff3309ff8217c0000a0201520754821760821818017b7820491718491710491708821820017b7828821838017b78821828017b7830821830017b7838955100f89511e0fd95112802951700078270f0008275e8008276e0009511f80732000050200001e6f0951150fe7b10a8017b15a0017b1698019515b0018411f082ab187b1b2082ab107b1b2882ab087b1b1082aa7b1a18828a187b1a30828a107b1a38828a087b1a7082887b1868829a829808829b108299187b17087b1998007b1968017b1b90007b1b60017b1888007b18580195177001951850017b1a607b1a50015020020130ed821770017b1758821778017b1750821780017b1748821788017b17409517300133084050200401fed6821848017b18a800821940017b19a0008216380182173001821a407b1a0801647a7b1780008217487b1700018217507b17f8008217587b17f0007b1828017b1920017b161801951710019518f0007b1a100150200601d0eb821780007b16788219a800d46909821aa000d4a708d49808988820d4a909979920d498085208c8018216607b16d000821888007b18d800821890007b18e0009518d000821998007b19e800502008018fd7821868c86808d8680982177082148800c84707c8970ad34a0bd84a07dab907821b10d3ba09d8ab0a821b18d88b0882163882139000c8630bdb9a08d83b0982103082129800c8020ac8a909c8b707d8b70ac8a909821b20d3b90ad89b09821c28d87c0bdaab09d3c707d4a707db7908642b643a82126082136852082301d46307821870d40808d48707987720d46808978820d4870752070601d4a207d4b408d48707987720d4a808978820d48707821978821aa8005207e6008217a000d4a7071408e0ffffff00000000821b80007b1870d88b08949894785108c30083337b136883b7206428642650200a01cdd8837783688219680a030182128000c86207d8270882198800821b78c8b909c88909d3b90ad8b90bdaa80b82189000821aa000c8a808d8a80a821c98008216a800c86c0cc8ca0ac88b0bd88b08c8a808d4b808821a70d8a70a949a948a510a5164268377204921c8004921c0004921b8009518b0004921b00050200c0123d68217088218a8007b78188218a0007b78108218787b78087b76955150fe8210a8018215a001821698019511b00132000033086001028388330701330933000e010a0e019511a0f9951b00067bb0587bb5507bb648951560068411e06416828c10828318828b0882827b6b38017b632001d43b08d4c20bd48b0b98bb207b6c2801d4c808978820d4b8087b67c8005208620882a7187b67880082a7107b67900082a7087b67980082a77b67a0008297187b67a8008297107b67b0008297087b67b80082977b67c00083288367a0057b6858017b6230010a04956b000582b7b80082bab00082b8a80082b9a0007bb798007b6a08017bba90007b6818017bb88800956780057b6910017bb980005020100130da956a000182a72882a920d47909140700000000010000007ba7481407e0ffffff0000000082a830d8780782a83894877ba95094975107aa07826758018378208367c0050a04956b000582b7d80082bad00082b9c80082b8c0007bb7787b6af0007bba707b69f8007bb968956760057b6800017bb86050201201b5d9956900018297489577c050221401851751075307826758018378408367e005330016010a040114070000000001000000956900017b97481407a0ffffff00000000502218014e1751071c07956800058287f8007b67e8008287f0007b67e0008287e8007b67d8008287e0007b67d000826758018378608367000633001a010a04019569000182974895778050221c0104175107d206826718067b678000826710067b6778826708067b6770826700067b67688267580183788000836720060a04956800068287387b67608287307b67588287287b67508287207b6748826730019573a000d8730882693801c88904d8940ada880a826c2801c8ca0ad8ca08826b2001c88b027b64e8047b63e0047b6b18057b6c10057b6908057b6700057b6af00495672005956800059569e0047b62f80450201e0117e382622005826328058264300582693805826a40053308480102826c4805826b5005826758057b684038084801024926780449267004492668047b6860047b6798047b6b90047b6c88047b6a80047b69b8047b64b0047b63a8049567c0049568a00495698004956a60047b62a0045020200112fa956b000482b9d80082bad00082b7c80082b8c000956b00017bb7587bb950d49707d4a809d479099899207bba48d4a707977720d4970752078305956740047b684001502022016bd1956a000182ab4082a75082a848d487071408e0ffffff00000000d88b0882a9589498947851084d05956a000482a75882ac5082a84082a948d4c80ad49707d47a0a98aa20d4c707977720d4a7075207240583b7207b6858015020240173d45022260195150a0a826850018287187b67388287107b67308287087b672882877b67209567200433084050202801ddd095680004828720828a38828928828c30957b207b675801d87b07c879087b695001d89809da7709c8c9097b6c4001d8c9077b6a4801c8a707d49b0ad48707d47a0a98aa20d49707977720d4a707520796043a07600002956a00047ba7183a076800023a087000023a097800027ba7107ba808956800047ba97b6b1864b750202a0194d1956c000182c85895874050222c01401352085004826808019788209889204926f80382681001956a00037ba8e000826818017ba8e8009568e0037ba9f00050202e0150d1956c000182c85895876050223001fc1252080c041408ffffffff000000007b6818018269f000d289098268f8008488ff826b000184baff4926d803956b00037bbac0007bb8c8009568c0037bb9d00050203201fbd0956c000182c8589587800050223401a6125208b6038268d000956a00037ba8a0008268d8007ba8a8008268e0007ba8b0009568a0038269e8007ba9b80050203601b8d0956c000182c8589587a00050223801631252087303826868956a00037ba880008268707ba888008268787ba8900095688003826980007ba9980050203a0178d0956c000182c8589587c00050223c01231252083303826848956a00037ba8608268507ba8688268587ba870956860038269607ba97850203e013dd0956c000182c8589587e00050224001e8115208f8028268206f898268286f88826a306faa826b386fbb956c00037bcb407bca487bc850956840037bc95850204201facf956b000182b75882ba40d4a70782b85082b948d49808d48707987720d4a808978820d487075207a1024926380349263003492628039568200349262003e0008267580150204401b1cf4926f8024926f0024926e8024926e002000182674801956a00037ba718826740017ba710826750017ba708956700039568e002826958017ba95020460162e39567c00282685801502048012ace956b000282b7d80082bad00082b9c80082b8c00050224a015a12520716028267187b68580150204c0165d150224e0187120a0a826a500182a71882a81082a90882aa6f7b6f876f986fa97b6998027b6890027b6788029567a002956880027b6b800233005001951100fd951900027b90f8007b95f0007b96e800951500038411e064168289187b69488289107b69408289087b693882887b68307b67289567a00233084033005801287ccd8267a0027b6758018267a8027b6750018267b0027b6748018267b8027b67400182674080774926180249261002492608027b670002826788007b673802826790007b673002826798007b6728028267a0007b6720028267a8007b6758028267b0007b6750028267b8007b674802956760029568400295692002956a0002826bc0007b6b40025020520153f5956b000282b76082b86882b97082ba787b6ab8017b69b0017b68a8017b67a001826740017b67d801826748017b67d001826750017b67c8019567e0019568c0019569a001826a58017b6ac0015020540103058267e8017b6758018267f0017b6750018267e0017b674801826720017b677801826728017b677001826738017b6768019567800195686001826930017b69600150205601fdd9956c000182c7800082c8900082c9880082ca48d3a70782ca50d3a80882ca58d3a909330affd2a90982cb18d2b808d2a707d48707d497078877018268c80033094918104918184918087b879551a0f99517000682705882755082764895116006320000956800028287a000828ab8008289a800828cb000957b207b6778d87b07c879087b6970d89809da7709c8c9097b6c60d8c9077b6a68c8a707d49b0ad48707d47a0a98aa20d49707977720d4a707520706043a07800002956a00027ba798003a078800023a089000023a099800027ba790007ba88800956880027ba980007b6b5864b750205a01abcc82687895874050225c01260e5208bf033a08a00002956b00027bb8783a08a800023a09b000023a0ab800027bb8707bb968956860027bba6050205e016dcc82687895876050226001e80d520881033a08c00002956b00027bb8583a08c800023a09d000023a0ad800027bb8507bb948956840027bba40502062012fcc8367c002330064010a070182687895878000502266019e0d52083703956c000282c9c00082c8c80082cad00082cbd8007bcb387bca307bc828956820027bc92050206801e9cb33076001037b6750837733006a010a018268789587a00050226c01530d5208ec02826a5082a80881a91082aa6f88978b206f99989920d4b9099888206faa97ab20d4b80898aa2049261802956b00027bba107bb808956800027bb950206e0188cb50227001b30e5207a2024926f8014926f0014926e8019568e0014926e001a000826778502072015fcb4926b8014926b0014926a8014926a001c0008267687b67d8018267607b67d0018267707b67c8019567c0019568a0018269787b69c0015020740113df9567800182687850207601dcc9956b000182b7980082ba900082b9880082b88000502278010c0e52071c028267587b687850207a0118cd9518e08489e07b69706491837781687883990a0a8268708287187b67588287107b67508287087b672082877b67189567600133084050207c0177c995670001827860827b78827968827c709587207b6878d8870ac8a9087b6970d89809daaa09c8c9097b6c60d8c90a7b6b68c8ab0bd4970ad4b808d48a0a98aa20d49808978820d4a8085208880149265001492648014926400114090000000000000119956840017b6958017b671050207e013dca82687895872250228001b80b520851018268186f898268206f88826a506faa826b586fbb956c00017bcb207bca287bc830956820017bc93850208201ffc9826878958742502284017a0b52081301826830956a00017ba88268387ba8088268407ba810956800018269487ba91850208601cac950228801f50c5207e4004926f8004926f0004926e8009568e0004926e0004282677850208a01a2c94926b8004926b0004926a8004926a000628267687b67d8008267607b67d0008267707b67c8009567c0009568a0008269787b69c00050208c0157dd9567800082687850208e0120c882679800826a9000826988008268800050229001540c5207648267107b68785020920161cb9518e08489e07b6970649183778168788399330094010a0a01826a7082a71882a81082a90882aa502296012f0c826b287bba187bb9107bb8087bb7955100fd951700028270f8008275f0008276e80095110003320000951160fc951a00037ba098007ba590007ba688009515a0038411e0829610829c18829a08829b7b1a787b1c60d4ca09d46b0ad49a0a98aa20d46909979920d4a9097b176852099d058287187b17408287107b17488287087b175082877b1758951700037b1b7064b85020980137c7951b000382b71882b80882b982ba10d48707859841d4a808d487075207c903821960d46909140600000000010000001407e0ffffff00000000821870d87807821a7894a77b1960949751072a058388209517e00250209a01ddc68218709567c0d878078219789497821960949751070605951900028297f8007b17208297f0007b17288297e8007b17308296e0008388409517c00250209c019cc68218701407a0ffffff00000000d87807821978949782196094975107be047b1618951900028297d8007b17388297d0007b17608296c8008297c0007b17788388609517a00250209e0151c63a07e000023a08e80002d376097b1670d87607821a78d88a08db97081407ffffffffffffff7f821a38d37a09d87a07821b6088baffdb970ae1b907da780a510af102951900028296b8009866389567e5d8670888770293879388938749299800492990007b97800095178002492988005020a0016a04951760023308405020a201cec5821878027b1810821970027b1908821a6802821260027b128217387b17b8018217607b17b0018217707b17a8018217787b17a0018217207b17d8018217287b17d0018217307b17c8018217187b17c0014921f8014921f0014921e8017b16e0018217407b1718028217487b1710028217507b1708028217587b1700027b1838027b1930027b1a280264a6951740029518200295190002951ae001951bc001951ca0017b1220025020a4010505951800028287587b17708287507b17588287407b17788287487b1760492198014921900149218801951880014921800133075020a60124c60a0b01821b088212108213330960010321036801032103600103200370010300000001951a0003491a38491a30491a28d42607d4b308d47808988820d4b707977720d48707491a205207de027b1950821a60d36a07d86a08821078d83009da7908821c58c9bc07c98704d88707d8bc08821b70c92b0bc98b0bc97b0bc96a07c99707c93006d4b707d44608d47808d44707988820977720d4870752078c02643764685020a801a8c7390a4c01026478561a1f0b20034c01022001951900034819402049197849197049196849196082175097772098772014090000000018000000d4970795192003979920989920951a600397aa20d49a0a9788203309600102988820976b20d48b0b97992098992095184003978820d4980c3308ff3309ff0a0201520705029517600133085020aa01b8c3821870017b1870821968017b196082166001821778017b1778978720987720d49608d487078e7749215801492150017b17400195174001492148013300ac01951120ff7b10d8007b15d0007b16c8009515e0003302e601282b07821a78821960821870280b330633093308330a018217687b767b79087b78107b7a18955160fc951700038270980082759000827688009511a0033200951720013308405020ae0115c3821938018216300182172801821820017b17707b1968d497077b1878d46808d47808988820d46707977720d4870752072301492110014921080149210001140700000000a079c308951800017b1718018217785020b001f6c3821968d46909140600000000010000001407fcffffff00000000821878d8780782187094877b196894975107ce008217788377044921f8004921f0004921e000209518e0004921e8005020b201a7c39567dc821878d8780782187094878218689487510796008216788367244921d8004921d0004921c000229518c0004921c8005020b4016fc3140700000000010000007b17601407bcffffff00000000d876078218709487821868948751074d8216788367443a08f000027b18b8003a08f800023a090001023a0a0801027b18b0007b19a8009518a0007b1aa0005020b60114c382176095779cd876078218709487821868948752070a005020b801fcda8216788367644921900049218800140800000000000065757b18980095188000492180005020ba01cdc23308840064675020bc01edc48378330701330984003300be010a0e01951100ff7b10f8007b15f0007b16e800951500015022c0012d05510719955100ff8210f8008215f0008216e8009511000132009517c0003308405020c20137c18219d8008216d0008217c8008218c0005022c4019c045207bc005022c601bb055020c8014bc25022ca0136045107a6008217188377044921980049219000492180002095188000492188005020cc0120c25022ce01370451077b821618836724491178491170491160229518604911685020d001fbc1140700000000010000007b171407bcffffff000000005022d20111045107408216188367443a081001027b18583a081801023a092001023a0a2801027b18507b19489518407b1a405020d401adc1821795779c5022d601d40352070400821618836764491130491128140800000000000065757b18389518204911205020d80179c13308840064675020da0199c38378330701330984003300dc010a0e019511e0fe7b1018017b1510017b160801951520018411f082831082841882820882867b12707b1460d442087b1678d43606d486069866207b1368d43808978820d468087b17405208950182c7187b171882c7107b171082c7087b170882c77b1782b7187b173882b7107b173082b7087b172882b77b172082a77b1750829718829810829a0882997b19e0007b1ae8007b18f0009518e0007b17f80082167864675020de01b7c0821768821960d47909140700000000010000007b17481407e0ffffff00000000d8760782187094877b19589497510708017c18508216788367204921d8004921d0007b18c0009518c0004921c8005020e00163c08217489577c0d87607821870948782185894875107ce008216788367408218207b18a0008218287b18a8008218307b18b0009518a0008219387b19b8005020e20120c01407a0ffffff00000000d876078218709487821858948751078700821978959780007b1758d89707821870c8780a7b1a50d88a08da7708821768c88706d87607821860c887077b177083976082187b1880008218087b1888008218107b189000951880008219187b1998005020e401afbf8217407b76108218507b78088218587b788218707b78189551e0fe82101801821510018216080195112001320000510719955120ff8210d8008215d0008216c8009511e00032009517a0003308405020e80121be8219b8008216b0008217a8008218a0005022ea01860152076c5022ec01c9025020ee0136bf5022f0012101510757821718837704491178491170491160209518604911685020f20111bf5022f4012801510732821618836724491158491150491140189518404911485020f601ecbe1407bcffffff000000005022f8010e01520704008216188367443a083001023a093801023a0a4001027b18387b19307b1a289518204911205020fa01aebe33086464675020fc01cfc083783307013309640a0e33073300fe0128eec033075020fe01e9c033070150200002e0c0d88708826a70c88a09d8a90ada880a826860c88a0ad88a08826b68c8b808d4a70bd49808d48b0b98bb20d4a808978820d4b8083202d8870882ca50c88a09d8a90ada880a82c840c88a0ad88a0882cb48c8b808d4a70bd49808d48b0b98bb20d4a808978820d4b8083202821908d46909140600000000010000001407fcffffff00000000821818d8780782181094877b1908949732029567dc821818d87807821810948782180894873202d876078218109487821808948732027b17107b1908d497077b1818d46808d47808988820d46707977720d487073202821a5001c87a09d8a90ada770a82174801c87a0ad87a07821b5801c8b707d4a80bd49707d47b0b98bb20d4a707977720d4b70732028411f0827810827918827a088277d4a909d48707d4970732029511b07b10487b15409515508411f0491130491128491120140700000000717b484e9518207b17383307320282a71882a81082a90882aa6f776f886f996faa826b187bba187bb9107bb8087bb73202829830d87807829838948782985094873202d49707d4a809d47909989920d4a707977720d4970732026f776f886f996faa3202826778826a60d4a707826870826968d49808d48707987720d4a808978820d4870732029518e08489e07b6950016491837781685801839932024921b0004921a8004921a000140700000000a079c3089518a0007b17b8008217183202492190004921880049218000140700000000a079c308951880007b179800821718320249922425494b2a252da9944c4949214225a952484992244992244992244992244992244992244992244992244992244992244992542529a524292949a84a494a922449922449922449922449922449922449922449929224294955494a9228496992842425494a282a52a4489122458a142952a4489122458a122922224a920421240ca549694884244912292149d2244992504a85080c51250a551a1111292248440809113502211011118d242549282c3545285224499288880849221291282449124242249314524993a4104992084992249290426222a549492a0920492aa5504a232222494a922449912449494a922222a2842409202945224244214992244914218004909422222289441189902429459200925424499224892485a4500a499224499224499204908a442409490049922449922449924a1211118d4812090921d288488a482925292525a9444a1289342292225292244992a422d18848524492244992244992244992a4244992248924499224492412118988444444448448241289442291488844229124499248241211111189909224499288442449922449922449920c8542a150282cb542952649a49224490a49928410c124854a4a9290245192922449922452292549922409499254924413111145424444480821491249084992484200219310429200929042491a11112111115124444484082144121122424892441202288090242484902441093209490049822828112d499224499294a420489212840886926844442449499224912429a52121495252529224494a49922449922449922492244992244992244992444a932445922449529224292529494992549224499224494a9224898888864261291a11114952922489a42449924892a424499224919252aa04952649922449922449922449922425499224490549922449929488886890242508110c25d124492a29499224499224499224492a29499224499224491224498a4892a494244992a4a4884444446aa422222211442291482488442492482412111111419224499248922468920490544a520aa2a88924495659928888284992244924499224898888244992244a4950d224499224499224499224499224411224a91225922022229a24491224499226499224494949414a4dd29229a844232222228944a2482412458944221111119148441011111111111189082222222222222222221244248888888888228a8888888888884492489288888888888824229148241289442291484444248888882451101111111111414444444444444444441011114922124492444444444444918888888888489294a4245555494a92925492944492482211894422a2209248924492244944229128221a4910114992244594248944448a249144128988884844442288888888888888888848221191201289442212442291489224494444444444444444444444444444444444440451244a92248a924892942411492249a224491249924424912022914422492422124441942889928448520889908824918844244912892449121541444a298994241511114922114944929048928844924a44101111111111111111114144444444229188481011111189482412914822220a2222222222222222222222222252922425294992482422222222224124924844444444248992444424888824491291244992249124499224898888888888888810428888888888888888282222222549929224494a9224a52449d2888828222222228a8888888888888824228948248926912491281289888888681011114992a42449524a92888888884410894422912022222251241289888888201289244922111111114192449224499248924892244992a4924892248924499288480091549454506924912449441291244952291111112412498a88888652342249a4244524492489482412452291288a8822222222222222882401248024a5884411119148242241244144221a40248020222222222212d1488288884422115124499244249244128988888888882022224244244444444444444444041111114992244944049124012415912449922412415024495222412449228924914892248910092124510a22092292888888882092200288482412111111442288888888888820124124229188882012412492249104910822a594224924882449922411111144101141442291882888082222228844101449aa8a88888888888894244949241211111191222222222222222222222222824892888888888888880822222222222222228288882449922449a224452489464444922449922449920811218488881424418448082189044910211242482241441341444444924810529c082249a524258948a2208888882041440489442222114482888808220992542a49929448104992244992244992242222808804491029a5144922411244a224892408222222248888904824221241248888089204492a4593a420498a888868444444929424499244922425521049499248020820492912419294222291482482049094221189442411849024490049922411912455444404912012892891482412894422222291482422a2888888082249922422220a9a144208104992244922499224499224499224890a42118c4892240124924812922491248d2888442292244544444444442449555392888888224144449224491211114044822480009294228908114192942289081141000920292509114288880892a4944112114044045150221a1111412222a2481011114410049144848820489244120450004192901042920425c824092049100525a211119124254992244924495249929492a48888484192001240528a2411111124492992442211892080a4148924499224498a4422124192a42422229a8888281244440409822049124910244922090208320921244982149454a420419224499224494a92244992244949000124299524a592524992244991249248922429494a52922449004925a92a492a49a924495255499224494aa2a222228088141101442400"},"methodIdentifiers":{"execute((address,address,uint256,uint256,uint256,bytes),bytes)":"47153f82","getNonce(address)":"2d0335ab"}},"hash":"b4ddd8745e1e288fa9bab937556d514f0b1fa3ccf09716814ad2cdec67478cce","factoryDependencies":{}}}}