{"contracts/GreetingContract.sol":{"GreetingContract":{"abi":[{"inputs":[{"internalType":"address","name":"trustedForwarder","type":"address"}],"stateMutability":"nonpayable","type":"constructor"},{"anonymous":false,"inputs":[{"indexed":true,"internalType":"address","name":"sender","type":"address"},{"indexed":false,"internalType":"string","name":"newGreeting","type":"string"}],"name":"GreetingChanged","type":"event"},{"inputs":[],"name":"getCurrentSender","outputs":[{"internalType":"address","name":"","type":"address"}],"stateMutability":"view","type":"function"},{"inputs":[],"name":"getGreeting","outputs":[{"internalType":"string","name":"","type":"string"}],"stateMutability":"view","type":"function"},{"inputs":[],"name":"getMessageInfo","outputs":[{"internalType":"address","name":"sender","type":"address"},{"internalType":"bytes","name":"data","type":"bytes"},{"internalType":"uint256","name":"dataLength","type":"uint256"}],"stateMutability":"view","type":"function"},{"inputs":[{"internalType":"address","name":"forwarder","type":"address"}],"name":"isTrustedForwarder","outputs":[{"internalType":"bool","name":"","type":"bool"}],"stateMutability":"view","type":"function"},{"inputs":[{"internalType":"string","name":"newGreeting","type":"string"}],"name":"setGreeting","outputs":[],"stateMutability":"nonpayable","type":"function"}],"evm":{"assembly":"// RO data = 0/0 bytes\n// RW data = 72/65664 bytes\n// Stack size = 32768 bytes\n\n// Instructions = 3040\n// Code size = 10047 bytes\n\n      : @0 (gas: 1)\n     0: jump @14 if a0 == a1\n      : @1 (gas: 9)\n     3: a3 = a1 << 0x20\n     6: a3 = a3 >> 0x20\n     9: a4 = a0 << 0x20\n    12: a4 = a4 >> 0x20\n    15: a4 = a4 + a2\n    18: a3 = a3 - a4\n    21: a4 = a2 << 0x1\n    24: a4 = -a4\n    26: jump @7 if a4 >=u a3\n      : @2 (gas: 1)\n    29: jump @11 if a0 >=u a1\n      : @3 (gas: 1)\n    32: jump @14 if a2 == 0\n      : @4 (gas: 3)\n    35: a2 = a2 + a0\n    38: a3 = a0\n    40: fallthrough\n      : @5 (gas: 6)\n    41: a4 = u8 [a1]\n    43: a1 = a1 + 0x1\n    46: a5 = a3 + 0x1\n    49: u8 [a3] = a4\n    51: a3 = a5\n    53: jump @5 if a5 != a2\n      : @6 (gas: 1)\n    56: jump @14\n      : @7 (gas: 1)\n    58: jump @14 if a2 == 0\n      : @8 (gas: 3)\n    61: a2 = a2 + a0\n    64: a3 = a0\n    66: fallthrough\n      : @9 (gas: 6)\n    67: a4 = u8 [a1]\n    69: a1 = a1 + 0x1\n    72: a5 = a3 + 0x1\n    75: u8 [a3] = a4\n    77: a3 = a5\n    79: jump @9 if a5 != a2\n      : @10 (gas: 1)\n    82: jump @14\n      : @11 (gas: 1)\n    84: jump @14 if a2 == 0\n      : @12 (gas: 2)\n    87: i32 a3 = a2 + 0xffffffffffffffff\n    90: fallthrough\n      : @13 (gas: 7)\n    91: a4 = a1 + a3\n    94: a4 = u8 [a4]\n    96: a2 = a2 + 0xffffffffffffffff\n    99: a5 = a0 + a3\n   102: u8 [a5] = a4\n   104: i32 a3 = a3 + 0xffffffffffffffff\n   107: jump @13 if a2 != 0\n      : @14 (gas: 1)\n   110: ret\n      : @15 (gas: 2)\n   112: a1 = i32 [0x20050]\n   117: jump @69 if a1 == 0\n      : @16 (gas: 4)\n   121: a0 = 0x30080\n   126: i32 a0 = a0 + 0\n   128: ecalli 8 // 'set_immutable_data'\n   130: jump @69\n      : @17 (gas: 8)\n   133: sp = sp + 0xfffffffffffffff0\n   136: u64 [sp + 0x8] = ra\n   139: u64 [sp] = s0\n   141: a2 = a1\n   143: s0 = a0\n   145: a1 = 0x20\n   148: a0 = a2\n   150: ra = 2, jump @25\n      : @18 [@dyn 1] (gas: 100)\n   155: a1 = u8 [a0 + 0x1]\n   158: a2 = u8 [a0]\n   160: a3 = u8 [a0 + 0x2]\n   163: a4 = u8 [a0 + 0x3]\n   166: a1 = a1 << 0x8\n   169: a1 = a1 | a2\n   172: a3 = a3 << 0x10\n   175: a4 = a4 << 0x18\n   178: a3 = a3 | a4\n   181: a1 = a1 | a3\n   184: a2 = u8 [a0 + 0x5]\n   187: a3 = u8 [a0 + 0x4]\n   190: a4 = u8 [a0 + 0x6]\n   193: a5 = u8 [a0 + 0x7]\n   196: a2 = a2 << 0x8\n   199: a2 = a2 | a3\n   202: a4 = a4 << 0x10\n   205: a5 = a5 << 0x18\n   208: a4 = a4 | a5\n   211: a2 = a2 | a4\n   214: a2 = a2 << 0x20\n   217: t0 = a2 | a1\n   220: a2 = u8 [a0 + 0x9]\n   223: a3 = u8 [a0 + 0x8]\n   226: a4 = u8 [a0 + 0xa]\n   229: a5 = u8 [a0 + 0xb]\n   232: a2 = a2 << 0x8\n   235: a2 = a2 | a3\n   238: a4 = a4 << 0x10\n   241: a5 = a5 << 0x18\n   244: a4 = a4 | a5\n   247: a2 = a2 | a4\n   250: a3 = u8 [a0 + 0xd]\n   253: a4 = u8 [a0 + 0xc]\n   256: a5 = u8 [a0 + 0xe]\n   259: a1 = u8 [a0 + 0xf]\n   262: a3 = a3 << 0x8\n   265: a3 = a3 | a4\n   268: a5 = a5 << 0x10\n   271: a1 = a1 << 0x18\n   274: a1 = a1 | a5\n   277: a1 = a1 | a3\n   280: a1 = a1 << 0x20\n   283: t1 = a1 | a2\n   286: a1 = u8 [a0 + 0x11]\n   289: a3 = u8 [a0 + 0x10]\n   292: a4 = u8 [a0 + 0x12]\n   295: a5 = u8 [a0 + 0x13]\n   298: a1 = a1 << 0x8\n   301: a1 = a1 | a3\n   304: a4 = a4 << 0x10\n   307: a5 = a5 << 0x18\n   310: a4 = a4 | a5\n   313: a1 = a1 | a4\n   316: a3 = u8 [a0 + 0x15]\n   319: a4 = u8 [a0 + 0x14]\n   322: a5 = u8 [a0 + 0x16]\n   325: a2 = u8 [a0 + 0x17]\n   328: a3 = a3 << 0x8\n   331: a3 = a3 | a4\n   334: a5 = a5 << 0x10\n   337: a2 = a2 << 0x18\n   340: a2 = a2 | a5\n   343: a2 = a2 | a3\n   346: a2 = a2 << 0x20\n   349: a3 = a2 | a1\n   352: a1 = u8 [a0 + 0x19]\n   355: a2 = u8 [a0 + 0x18]\n   358: a4 = u8 [a0 + 0x1a]\n   361: a5 = u8 [a0 + 0x1b]\n   364: a1 = a1 << 0x8\n   367: a1 = a1 | a2\n   370: a4 = a4 << 0x10\n   373: a5 = a5 << 0x18\n   376: a4 = a4 | a5\n   379: a1 = a1 | a4\n   382: a2 = u8 [a0 + 0x1d]\n   385: a4 = u8 [a0 + 0x1c]\n   388: a5 = u8 [a0 + 0x1e]\n   391: a0 = u8 [a0 + 0x1f]\n   394: a2 = a2 << 0x8\n   397: a2 = a2 | a4\n   400: a5 = a5 << 0x10\n   403: a0 = a0 << 0x18\n   406: a0 = a0 | a5\n   409: a0 = a0 | a2\n   412: a0 = a0 << 0x20\n   415: a0 = a0 | a1\n   418: a0 = reverse a0\n   420: a1 = reverse a3\n   422: a2 = reverse t1\n   424: a3 = reverse t0\n   426: u64 [s0 + 0x18] = a3\n   429: u64 [s0 + 0x10] = a2\n   432: u64 [s0 + 0x8] = a1\n   435: u64 [s0] = a0\n   437: ra = u64 [sp + 0x8]\n   440: s0 = u64 [sp]\n   442: sp = sp + 0x10\n   445: ret\n      : @19 (gas: 12)\n   447: sp = sp + 0xffffffffffffffd8\n   450: u64 [sp + 0x20] = ra\n   453: u64 [sp + 0x18] = s0\n   456: u64 [sp + 0x10] = s1\n   459: a2 = u64 [a1]\n   461: u64 [sp + 0x8] = a2\n   464: a2 = u64 [a1 + 0x8]\n   467: u64 [sp] = a2\n   469: s0 = u64 [a1 + 0x10]\n   472: s1 = u64 [a1 + 0x18]\n   475: a1 = 0x20\n   478: ra = 4, jump @25\n      : @20 [@dyn 2] (gas: 71)\n   483: a1 = reverse s1\n   485: a2 = reverse s0\n   487: a3 = u64 [sp]\n   489: a3 = reverse a3\n   491: a4 = u64 [sp + 0x8]\n   494: a4 = reverse a4\n   496: u8 [a0 + 0x18] = a4\n   499: u8 [a0 + 0x10] = a3\n   502: u8 [a0 + 0x8] = a2\n   505: u8 [a0] = a1\n   507: a5 = a4 >> 0x38\n   510: u8 [a0 + 0x1f] = a5\n   513: a5 = a4 >> 0x30\n   516: u8 [a0 + 0x1e] = a5\n   519: a5 = a4 >> 0x28\n   522: u8 [a0 + 0x1d] = a5\n   525: a5 = a4 >> 0x20\n   528: u8 [a0 + 0x1c] = a5\n   531: a5 = a4 >> 0x18\n   534: u8 [a0 + 0x1b] = a5\n   537: a5 = a4 >> 0x10\n   540: u8 [a0 + 0x1a] = a5\n   543: a4 = a4 >> 0x8\n   546: u8 [a0 + 0x19] = a4\n   549: a4 = a3 >> 0x38\n   552: u8 [a0 + 0x17] = a4\n   555: a4 = a3 >> 0x30\n   558: u8 [a0 + 0x16] = a4\n   561: a4 = a3 >> 0x28\n   564: u8 [a0 + 0x15] = a4\n   567: a4 = a3 >> 0x20\n   570: u8 [a0 + 0x14] = a4\n   573: a4 = a3 >> 0x18\n   576: u8 [a0 + 0x13] = a4\n   579: a4 = a3 >> 0x10\n   582: u8 [a0 + 0x12] = a4\n   585: a3 = a3 >> 0x8\n   588: u8 [a0 + 0x11] = a3\n   591: a3 = a2 >> 0x38\n   594: u8 [a0 + 0xf] = a3\n   597: a3 = a2 >> 0x30\n   600: u8 [a0 + 0xe] = a3\n   603: a3 = a2 >> 0x28\n   606: u8 [a0 + 0xd] = a3\n   609: a3 = a2 >> 0x20\n   612: u8 [a0 + 0xc] = a3\n   615: a3 = a2 >> 0x18\n   618: u8 [a0 + 0xb] = a3\n   621: a3 = a2 >> 0x10\n   624: u8 [a0 + 0xa] = a3\n   627: a2 = a2 >> 0x8\n   630: u8 [a0 + 0x9] = a2\n   633: a2 = a1 >> 0x38\n   636: u8 [a0 + 0x7] = a2\n   639: a2 = a1 >> 0x30\n   642: u8 [a0 + 0x6] = a2\n   645: a2 = a1 >> 0x28\n   648: u8 [a0 + 0x5] = a2\n   651: a2 = a1 >> 0x20\n   654: u8 [a0 + 0x4] = a2\n   657: a2 = a1 >> 0x18\n   660: u8 [a0 + 0x3] = a2\n   663: a2 = a1 >> 0x10\n   666: u8 [a0 + 0x2] = a2\n   669: a1 = a1 >> 0x8\n   672: u8 [a0 + 0x1] = a1\n   675: ra = u64 [sp + 0x20]\n   678: s0 = u64 [sp + 0x18]\n   681: s1 = u64 [sp + 0x10]\n   684: sp = sp + 0x28\n   687: ret\n      : @21 (gas: 43)\n   689: sp = sp + 0xffffffffffffffa0\n   692: u64 [sp + 0x58] = ra\n   695: u64 [sp + 0x50] = s0\n   698: u64 [sp + 0x48] = s1\n   701: s0 = sp + 0x60\n   704: sp = sp & 0xffffffffffffffe0\n   707: s1 = a0\n   709: a0 = u64 [a1 + 0x18]\n   712: a2 = u64 [a1 + 0x10]\n   715: a3 = u64 [a1 + 0x8]\n   718: a1 = u64 [a1]\n   720: a0 = reverse a0\n   722: a2 = reverse a2\n   724: a3 = reverse a3\n   726: a1 = reverse a1\n   728: u64 [sp + 0x18] = a1\n   731: u64 [sp + 0x10] = a3\n   734: u64 [sp + 0x8] = a2\n   737: u64 [sp] = a0\n   739: u64 [sp + 56] = 0\n   742: u64 [sp + 48] = 0\n   745: u64 [sp + 40] = 0\n   748: u64 [sp + 32] = 0\n   751: u32 [sp + 64] = 0x20\n   755: i32 a1 = sp + 0\n   757: i32 a3 = sp + 0x20\n   760: i32 a4 = sp + 0x40\n   763: a2 = 0xffffffffffffffff\n   766: a0 = 0\n   768: ecalli 5 // 'get_storage'\n   770: a0 = u64 [sp + 0x38]\n   773: a1 = u64 [sp + 0x30]\n   776: a2 = u64 [sp + 0x28]\n   779: a3 = u64 [sp + 0x20]\n   782: a0 = reverse a0\n   784: a1 = reverse a1\n   786: a2 = reverse a2\n   788: a3 = reverse a3\n   790: u64 [s1 + 0x18] = a3\n   793: u64 [s1 + 0x10] = a2\n   796: u64 [s1 + 0x8] = a1\n   799: u64 [s1] = a0\n   801: t0 = 6, jump @284\n      : @22 [@dyn 3] (gas: 1)\n   806: ret\n      : @23 (gas: 40)\n   808: sp = sp + 0xffffffffffffffa0\n   811: u64 [sp + 0x58] = ra\n   814: u64 [sp + 0x50] = s0\n   817: s0 = sp + 0x60\n   820: sp = sp & 0xffffffffffffffe0\n   823: t0 = u64 [a0]\n   825: a3 = u64 [a0 + 0x8]\n   828: a4 = u64 [a0 + 0x10]\n   831: a0 = u64 [a0 + 0x18]\n   834: t1 = u64 [a1]\n   836: a2 = u64 [a1 + 0x8]\n   839: a5 = u64 [a1 + 0x10]\n   842: a1 = u64 [a1 + 0x18]\n   845: t2 = reverse a0\n   847: a4 = reverse a4\n   849: a3 = reverse a3\n   851: a0 = reverse t0\n   853: t0 = reverse a1\n   855: a5 = reverse a5\n   857: a2 = reverse a2\n   859: a1 = reverse t1\n   861: u64 [sp + 0x18] = a0\n   864: u64 [sp + 0x10] = a3\n   867: u64 [sp + 0x8] = a4\n   870: u64 [sp] = t2\n   872: u64 [sp + 0x38] = a1\n   875: u64 [sp + 0x30] = a2\n   878: u64 [sp + 0x28] = a5\n   881: u64 [sp + 0x20] = t0\n   884: i32 a1 = sp + 0\n   886: i32 a3 = sp + 0x20\n   889: a2 = 0xffffffffffffffff\n   892: a4 = 0x20\n   895: a0 = 0\n   897: ecalli 9 // 'set_storage'\n   899: sp = s0 + 0xffffffffffffffa0\n   902: ra = u64 [sp + 0x58]\n   905: s0 = u64 [sp + 0x50]\n   908: sp = sp + 0x60\n   911: ret\n      : @24 [@dyn 4] (gas: 35)\n   913: a1 = u64 [sp]\n   915: a1 = reverse a1\n   917: a2 = u64 [sp + 0x8]\n   920: a2 = reverse a2\n   922: a3 = u64 [sp + 0x10]\n   925: a3 = reverse a3\n   927: a4 = u64 [sp + 0x18]\n   930: a4 = reverse a4\n   932: u64 [sp + 0x58] = a4\n   935: u64 [sp + 0x50] = a3\n   938: u64 [sp + 0x48] = a2\n   941: u64 [sp + 0x40] = a1\n   944: a1 = u64 [sp + 0x20]\n   947: a1 = reverse a1\n   949: a2 = u64 [sp + 0x28]\n   952: a2 = reverse a2\n   954: a3 = u64 [sp + 0x30]\n   957: a3 = reverse a3\n   959: a4 = u64 [sp + 0x38]\n   962: a4 = reverse a4\n   964: u64 [sp + 0x78] = a4\n   967: u64 [sp + 0x70] = a3\n   970: u64 [sp + 0x68] = a2\n   973: u64 [sp + 0x60] = a1\n   976: i32 a2 = a0 + 0\n   978: i32 a3 = s1 + 0\n   980: i32 a0 = sp + 0x40\n   983: a1 = 0x2\n   986: ecalli 4 // 'deposit_event'\n   988: sp = s0 + 0xffffffffffffff60\n   992: ra = u64 [sp + 0x98]\n   996: s0 = u64 [sp + 0x90]\n  1000: s1 = u64 [sp + 0x88]\n  1004: sp = sp + 0xa0\n  1008: ret\n      : @25 (gas: 2)\n  1010: i32 a2 = a0 >> 0x10\n  1013: jump @30 if a2 != 0\n      : @26 (gas: 4)\n  1016: a1 = a1 + a0\n  1019: i32 a1 = a1 + 0x1f\n  1022: a1 = a1 & 0xffffffffffffffe0\n  1025: jump @30 if a1 >u 65536\n      : @27 (gas: 3)\n  1031: a2 = 0x2004c\n  1036: a3 = i32 [0x2004c]\n  1041: jump @29 if a3 >=u a1\n      : @28 (gas: 2)\n  1044: u32 [0x2004c] = a1\n  1049: fallthrough\n      : @29 (gas: 4)\n  1050: a1 = 0x20060\n  1055: i32 a0 = a0 + 0\n  1057: a0 = a0 + a1\n  1060: ret\n      : @30 (gas: 1)\n  1062: trap\n      : @31 (gas: 6)\n  1063: sp = sp + 0xfffffffffffffff0\n  1066: u64 [sp + 0x8] = ra\n  1069: u64 [sp] = s0\n  1071: s0 = a0 & 0x1\n  1074: ecalli 2 // 'call_data_size'\n  1076: fallthrough\n      : @32 (gas: 2)\n  1077: u32 [0x20048] = a0\n  1082: jump @34 if s0 == 0\n      : @33 (gas: 1)\n  1085: ra = 10, jump @35\n      : @34 [@dyn 5] (gas: 1)\n  1089: ra = 12, jump @72\n      : @35 [@dyn 6] (gas: 15)\n  1094: sp = sp + 0xfffffffffffffd80\n  1098: a0 = sp + 0x200\n  1102: u64 [a0 + 0x78] = ra\n  1105: u64 [a0 + 0x70] = s0\n  1108: u64 [a0 + 0x68] = s1\n  1111: s0 = sp + 0x280\n  1115: sp = sp & 0xffffffffffffffe0\n  1118: s1 = sp\n  1120: u64 [s1 + 376] = 0\n  1124: u64 [s1 + 368] = 0\n  1128: u64 [s1 + 360] = 0\n  1132: u64 [s1 + 352] = 0\n  1136: i32 a0 = s1 + 0x160\n  1140: ecalli 10 // 'value_transferred'\n  1142: fallthrough\n      : @36 (gas: 9)\n  1143: a4 = s1 + 0x100\n  1147: a0 = u64 [a4 + 0x70]\n  1150: a1 = u64 [a4 + 0x78]\n  1153: a2 = u64 [a4 + 0x68]\n  1156: a3 = u64 [a4 + 0x60]\n  1159: a1 = a1 | a2\n  1162: a0 = a0 | a3\n  1165: a0 = a0 | a1\n  1168: jump @59 if a0 != 0\n      : @37 (gas: 17)\n  1172: a0 = i32 [0x20048]\n  1177: u64 [s1 + 0x58] = a0\n  1180: a0 = a0 << 0x20\n  1183: a0 = a0 >> 0x20\n  1186: a0 = a0 + 0x1f\n  1189: a0 = a0 & 0xffffffffffffffe0\n  1192: a1 = a0 + 0x80\n  1196: a0 = a1 <u a0\n  1199: a2 = s1 + 0x100\n  1203: u64 [a2 + 0x40] = a1\n  1206: u64 [a2 + 0x48] = a0\n  1209: a0 = 0 if a0 != 0\n  1211: u64 [a2 + 0x50] = a0\n  1214: a0 = 0x40\n  1217: a1 = s1 + 0x140\n  1221: u64 [s1 + 344] = 0\n  1225: ra = 14, jump @19\n      : @38 [@dyn 7] (gas: 3)\n  1230: a0 = 0x80\n  1234: a1 = u64 [s1 + 0x58]\n  1237: ra = 16, jump @25\n      : @39 [@dyn 8] (gas: 5)\n  1242: i32 a0 = a0 + 0\n  1244: a1 = u64 [s1 + 0x58]\n  1247: a2 = 0\n  1249: ecalli 0 // 'call_data_copy'\n  1250: fallthrough\n      : @40 (gas: 2)\n  1251: a1 = u64 [s1 + 0x58]\n  1254: jump @60 if a1 <=u 31\n      : @41 (gas: 3)\n  1259: a0 = s1 + 0x120\n  1263: a1 = 0x80\n  1267: ra = 18, jump @17\n      : @42 [@dyn 9] (gas: 12)\n  1272: a1 = u64 [s1 + 0x130]\n  1276: a2 = u64 [s1 + 0x138]\n  1280: a0 = 0x100000000\n  1290: a0 = a0 ^ a1\n  1293: a0 = a0 | a2\n  1296: u64 [s1 + 0x58] = a1\n  1299: a1 = a1 >> 0x20\n  1302: a1 = a1 <u 0x1\n  1305: u64 [s1 + 0x50] = a2\n  1308: a1 = 0 if a2 != 0\n  1310: a1 = 0 if a0 == 0\n  1312: jump @61 if a1 == 0\n      : @43 (gas: 11)\n  1316: a0 = u64 [s1 + 0x128]\n  1320: u64 [s1 + 0x40] = a0\n  1323: a0 = u64 [s1 + 0x120]\n  1327: u64 [s1 + 0x48] = a0\n  1330: u64 [s1 + 408] = 0\n  1334: u64 [s1 + 400] = 0\n  1338: u64 [s1 + 392] = 0\n  1342: u64 [s1 + 384] = 0\n  1346: a0 = s1 + 0x100\n  1350: a1 = s1 + 0x180\n  1354: ra = 20, jump @21\n      : @44 [@dyn 10] (gas: 20)\n  1359: a0 = u32 [s1 + 0x114]\n  1363: a1 = u64 [s1 + 0x118]\n  1367: a0 = a0 << 0x20\n  1370: a2 = u64 [s1 + 0x58]\n  1373: a0 = a0 | a2\n  1376: a2 = u64 [s1 + 0x50]\n  1379: a1 = a1 | a2\n  1382: u64 [s1 + 440] = 0\n  1386: u64 [s1 + 432] = 0\n  1390: u64 [s1 + 424] = 0\n  1394: u64 [s1 + 416] = 0\n  1398: a2 = u64 [s1 + 0x40]\n  1401: u64 [s1 + 0x1c8] = a2\n  1405: a2 = u64 [s1 + 0x48]\n  1408: u64 [s1 + 0x1c0] = a2\n  1412: u64 [s1 + 0x1d8] = a1\n  1416: u64 [s1 + 0x1d0] = a0\n  1420: a0 = s1 + 0x1a0\n  1424: a1 = s1 + 0x1c0\n  1428: ra = 22, jump @23\n      : @45 [@dyn 11] (gas: 7)\n  1433: u64 [s1 + 504] = 0\n  1437: u64 [s1 + 496] = 0\n  1441: u64 [s1 + 488] = 0\n  1445: u64 [s1 + 480] = 0x1\n  1450: a0 = s1 + 0xe0\n  1454: a1 = s1 + 0x1e0\n  1458: ra = 24, jump @21\n      : @46 [@dyn 12] (gas: 28)\n  1463: a0 = u64 [s1 + 0xf0]\n  1467: a1 = u64 [s1 + 0xe8]\n  1471: a2 = u64 [s1 + 0xe0]\n  1475: a3 = u64 [s1 + 0xf8]\n  1479: a4 = a0 << 0x3f\n  1482: a5 = a1 >> 0x1\n  1485: t1 = a5 | a4\n  1488: a5 = a3 << 0x3f\n  1491: a0 = a0 >> 0x1\n  1494: a0 = a0 | a5\n  1497: a1 = a1 << 0x3f\n  1500: a5 = a2 >> 0x1\n  1503: a1 = a1 | a5\n  1506: a3 = a3 >> 0x1\n  1509: a2 = a2 & 0x1\n  1512: a5 = -a2\n  1514: t0 = a2 <u 0x1\n  1517: a4 = a1 & 0x7f\n  1520: t2 = a5 & a0\n  1523: a0 = a5 & t1\n  1526: a4 = a1 if a2 != 0\n  1529: a1 = a4 <u 0x20\n  1532: a5 = a5 & a3\n  1535: a2 = a1\n  1537: a2 = 0 if a0 != 0\n  1539: t1 = t2 | a5\n  1542: a2 = 0 if t1 != 0\n  1544: jump @62 if t0 != a2\n      : @47 (gas: 8)\n  1548: a2 = a0 >u 0\n  1550: a1 = a1 ^ 0x1\n  1553: a1 = a2 if a0 != 0\n  1556: a2 = t2 >u 0\n  1558: a3 = a5 >u 0\n  1560: a3 = a2 if a5 == 0\n  1563: a3 = a1 if t1 == 0\n  1566: jump @55 if a3 == 0\n      : @48 (gas: 11)\n  1570: u64 [s1 + 0x40] = a0\n  1573: u64 [s1 + 0x48] = a4\n  1576: u64 [s1 + 0x50] = a5\n  1579: u64 [s1 + 0x58] = t2\n  1582: u64 [s1 + 216] = 0\n  1586: u64 [s1 + 208] = 0\n  1590: u64 [s1 + 200] = 0\n  1594: a1 = s1 + 0xc0\n  1598: u64 [s1 + 192] = 0x1\n  1603: a0 = 0\n  1605: ra = 26, jump @19\n      : @49 [@dyn 13] (gas: 2)\n  1610: a1 = i32 [0x2004c]\n  1615: jump @51 if a1 >u 31\n      : @50 (gas: 2)\n  1619: u32 [0x2004c] = 0x20\n  1625: fallthrough\n      : @51 (gas: 63)\n  1626: a0 = sp + 0xffffffffffffffe0\n  1629: a2 = a0 & 0xffffffffffffffe0\n  1632: u64 [s1 + 0x30] = a2\n  1635: sp = a2\n  1637: a0 = 0x20060\n  1642: i32 a0 = a0 + 0\n  1644: i32 a2 = a2 + 0\n  1646: a1 = 0x20\n  1649: ecalli 6 // 'hash_keccak_256'\n  1651: t2 = u64 [s1 + 0x30]\n  1654: a0 = u64 [t2 + 0x18]\n  1657: a1 = u64 [t2 + 0x10]\n  1660: t1 = reverse a0\n  1662: ra = reverse a1\n  1664: a0 = u64 [s1 + 0x48]\n  1667: a1 = a0 + 0x1f\n  1670: a0 = a1 <u a0\n  1673: a3 = u64 [s1 + 0x40]\n  1676: a2 = a3 + a0\n  1679: a3 = a2 <u a3\n  1682: a3 = a0 if a0 == 0\n  1685: a5 = u64 [s1 + 0x58]\n  1688: a0 = a5 + a3\n  1691: a3 = a0 << 0x3b\n  1694: a4 = a2 >> 0x5\n  1697: a3 = a3 | a4\n  1700: a2 = a2 << 0x3b\n  1703: a1 = a1 >> 0x5\n  1706: a1 = a1 | a2\n  1709: a1 = a1 + t1\n  1712: u64 [s1 + 0x38] = a1\n  1715: a1 = a1 <u t1\n  1718: a2 = ra + a1\n  1721: a3 = a3 + a2\n  1724: t0 = u64 [t2 + 0x8]\n  1727: a2 = u64 [t2]\n  1729: a4 = a3 ^ ra\n  1732: u64 [s1 + 0x30] = a3\n  1735: a3 = a3 <u ra\n  1738: a3 = a1 if a4 == 0\n  1741: t2 = reverse a2\n  1743: t0 = reverse t0\n  1745: a1 = a0 <u a5\n  1748: a2 = u64 [s1 + 0x50]\n  1751: a1 = a1 + a2\n  1754: a0 = a0 >> 0x5\n  1757: a2 = a1 << 0x3b\n  1760: a0 = a0 | a2\n  1763: a1 = a1 >> 0x5\n  1766: a0 = a0 + t0\n  1769: a2 = a0 <u t0\n  1772: a1 = a1 + t2\n  1775: a1 = a1 + a2\n  1778: a3 = a3 + a0\n  1781: u64 [s1 + 0x28] = a3\n  1784: a0 = a3 <u a0\n  1787: a0 = a0 + a1\n  1790: u64 [s1 + 0x20] = a0\n  1793: a0 = sp + 0xffffffffffffffe0\n  1796: a4 = a0 & 0xffffffffffffffe0\n  1799: sp = a4\n  1801: u64 [s1 + 0x18] = a4\n  1804: fallthrough\n      : @52 (gas: 20)\n  1805: a0 = u64 [s1 + 0x38]\n  1808: a0 = t1 <u a0\n  1811: a2 = u64 [s1 + 0x30]\n  1814: a1 = ra ^ a2\n  1817: a2 = ra <u a2\n  1820: a2 = a0 if a1 == 0\n  1823: a5 = u64 [s1 + 0x28]\n  1826: a0 = t0 <u a5\n  1829: a3 = u64 [s1 + 0x20]\n  1832: a1 = t2 ^ a3\n  1835: a3 = t2 <u a3\n  1838: a3 = a0 if a1 == 0\n  1841: a0 = t0 ^ a5\n  1844: a0 = a0 | a1\n  1847: a3 = a2 if a0 == 0\n  1850: u64 [a4] = t1\n  1852: u64 [a4 + 0x8] = ra\n  1855: u64 [a4 + 0x10] = t0\n  1858: u64 [a4 + 0x18] = t2\n  1861: jump @55 if a3 == 0\n      : @53 (gas: 11)\n  1864: u64 [s1 + 536] = 0\n  1868: u64 [s1 + 528] = 0\n  1872: u64 [s1 + 520] = 0\n  1876: u64 [s1 + 512] = 0\n  1880: a1 = s1 + 0x200\n  1884: a0 = a4\n  1886: u64 [s1 + 0x58] = t1\n  1889: u64 [s1 + 0x50] = ra\n  1892: u64 [s1 + 0x48] = t2\n  1895: u64 [s1 + 0x40] = t0\n  1898: ra = 28, jump @23\n      : @54 [@dyn 14] (gas: 15)\n  1903: a4 = u64 [s1 + 0x18]\n  1906: t2 = u64 [s1 + 0x48]\n  1909: ra = u64 [s1 + 0x50]\n  1912: t1 = u64 [s1 + 0x58]\n  1915: t1 = t1 + 0x1\n  1918: a0 = t1 <u 0x1\n  1921: ra = ra + a0\n  1924: a0 = t1 | ra\n  1927: a0 = a0 <u 0x1\n  1930: a1 = u64 [s1 + 0x40]\n  1933: a0 = a0 + a1\n  1936: a1 = a0 <u a1\n  1939: t2 = t2 + a1\n  1942: t0 = a0\n  1944: jump @52\n      : @55 (gas: 14)\n  1947: u64 [s1 + 568] = 0\n  1951: a1 = s1 + 0x200\n  1955: u64 [a1 + 32] = 0x1\n  1959: u64 [a1 + 64] = 0x1a\n  1963: a0 = u64 [0x20000]\n  1968: u64 [s1 + 560] = 0\n  1972: u64 [s1 + 552] = 0\n  1976: u64 [s1 + 584] = 0\n  1980: u64 [a1 + 0x58] = a0\n  1983: a0 = 0x6f726c6421000000\n  1993: u64 [a1 + 0x50] = a0\n  1996: a0 = s1 + 0x220\n  2000: a1 = s1 + 0x240\n  2004: ra = 30, jump @23\n      : @56 [@dyn 15] (gas: 3)\n  2009: a0 = s1 + 0xa0\n  2013: a1 = 0x40\n  2016: ra = 32, jump @17\n      : @57 [@dyn 16] (gas: 12)\n  2021: a3 = u64 [s1 + 0xb8]\n  2025: a1 = u64 [s1 + 0xb0]\n  2029: a2 = u64 [s1 + 0xa8]\n  2033: a0 = u64 [s1 + 0xa0]\n  2037: a3 = a3 | a2\n  2040: a2 = a0 | a1\n  2043: a2 = a2 | a3\n  2046: a2 = a2 >> 0x20\n  2049: a1 = a1 | a3\n  2052: a1 = a1 << 0x20\n  2055: a1 = a1 | a2\n  2058: jump @67 if a1 == 0\n      : @58 (gas: 1)\n  2062: trap\n      : @59 (gas: 4)\n  2063: a1 = 0x20060\n  2068: i32 a1 = a1 + 0\n  2070: a0 = 0x1\n  2073: jump @71\n      : @60 (gas: 4)\n  2076: a1 = 0x20060\n  2081: i32 a1 = a1 + 0\n  2083: a0 = 0x1\n  2086: jump @71\n      : @61 (gas: 4)\n  2089: a1 = 0x20060\n  2094: i32 a1 = a1 + 0\n  2096: a0 = 0x1\n  2099: jump @71\n      : @62 (gas: 8)\n  2102: u64 [s1 + 144] = 0\n  2106: u64 [s1 + 136] = 0\n  2110: u64 [s1 + 128] = 0\n  2114: a0 = 0x4e487b7100000000\n  2124: a1 = s1 + 0x80\n  2128: u64 [s1 + 0x98] = a0\n  2132: a0 = 0\n  2134: ra = 34, jump @19\n      : @63 [@dyn 17] (gas: 7)\n  2139: u64 [s1 + 120] = 0\n  2142: u64 [s1 + 112] = 0\n  2145: u64 [s1 + 96] = 0x22\n  2149: a0 = 0x4\n  2152: a1 = s1 + 0x60\n  2155: u64 [s1 + 104] = 0\n  2158: ra = 36, jump @19\n      : @64 [@dyn 18] (gas: 2)\n  2163: a1 = i32 [0x2004c]\n  2168: jump @66 if a1 >u 63\n      : @65 (gas: 2)\n  2172: u32 [0x2004c] = 0x40\n  2178: fallthrough\n      : @66 (gas: 8)\n  2179: a1 = 0x20060\n  2184: i32 a1 = a1 + 0\n  2186: a0 = 0x1\n  2189: a2 = 0x24\n  2192: ecalli 7 // 'seal_return'\n  2194: u64 [s1 + 0x58] = a0\n  2197: ra = 0x26\n  2200: jump @25\n      : @67 (gas: 2)\n  2203: u64 [s1 + 0x58] = a0\n  2206: ra = 38, jump @25\n      : @68 [@dyn 19] (gas: 5)\n  2211: i32 a0 = a0 + 0\n  2213: a1 = 0\n  2215: a2 = 0\n  2217: ecalli 0 // 'call_data_copy'\n  2218: jump @15\n      : @69 (gas: 3)\n  2221: a0 = u64 [s1 + 0x58]\n  2224: a1 = 0\n  2226: ra = 40, jump @25\n      : @70 [@dyn 20] (gas: 6)\n  2231: i32 a1 = a0 + 0\n  2233: a0 = 0\n  2235: a2 = 0\n  2237: ra = 0x2a\n  2240: ecalli 7 // 'seal_return'\n  2242: jump @72\n      : @71 (gas: 4)\n  2244: a2 = 0\n  2246: ra = 0x2a\n  2249: ecalli 7 // 'seal_return'\n  2251: fallthrough\n      : @72 [@dyn 21] (gas: 16)\n  2252: sp = sp + 0xfffffffffffff808\n  2256: a0 = sp + 0x700\n  2260: u64 [a0 + 0xf0] = ra\n  2264: u64 [a0 + 0xe8] = s0\n  2268: u64 [a0 + 0xe0] = s1\n  2272: s0 = sp + 0x7f8\n  2276: sp = sp + 0xfffffffffffffdf8\n  2280: sp = sp & 0xffffffffffffffe0\n  2283: s1 = sp\n  2285: u64 [s1 + 1816] = 0\n  2289: u64 [s1 + 1808] = 0\n  2293: u64 [s1 + 1792] = 0x80\n  2299: a0 = 0x40\n  2302: a1 = s1 + 0x700\n  2306: u64 [s1 + 1800] = 0\n  2310: ra = 44, jump @19\n      : @73 [@dyn 22] (gas: 4)\n  2315: a0 = 0x20048\n  2320: u64 [s1 + 0xd8] = a0\n  2324: a0 = i32 [0x20048]\n  2329: jump @75 if a0 >=u 4\n      : @74 (gas: 1)\n  2333: jump @215\n      : @75 (gas: 5)\n  2336: i32 a0 = s1 + 0x720\n  2340: a1 = 0\n  2342: ra = 0x2e\n  2345: ecalli 1 // 'call_data_load'\n  2347: fallthrough\n      : @76 [@dyn 23] (gas: 2)\n  2348: a0 = i32 [s1 + 0x73c]\n  2352: jump @149 if a0 == 2752735330\n      : @77 (gas: 1)\n  2360: jump @103 if a0 == 4090952761\n      : @78 (gas: 1)\n  2368: jump @113 if a0 == 4266708082\n      : @79 (gas: 1)\n  2376: jump @174 if a0 != 398995045\n      : @80 (gas: 7)\n  2384: u64 [s1 + 1880] = 0\n  2388: u64 [s1 + 1872] = 0\n  2392: u64 [s1 + 1864] = 0\n  2396: u64 [s1 + 1856] = 0\n  2400: i32 a0 = s1 + 0x740\n  2404: ecalli 10 // 'value_transferred'\n  2406: fallthrough\n      : @81 (gas: 9)\n  2407: a4 = s1 + 0x700\n  2411: a0 = u64 [a4 + 0x50]\n  2414: a1 = u64 [a4 + 0x58]\n  2417: a2 = u64 [a4 + 0x48]\n  2420: a3 = u64 [a4 + 0x40]\n  2423: a1 = a1 | a2\n  2426: a0 = a0 | a3\n  2429: a0 = a0 | a1\n  2432: jump @83 if a0 == 0\n      : @82 (gas: 1)\n  2435: jump @218\n      : @83 (gas: 3)\n  2438: a0 = u64 [s1 + 0xd8]\n  2442: a0 = i32 [a0]\n  2444: jump @85 if a0 >u 3\n      : @84 (gas: 1)\n  2448: jump @219\n      : @85 (gas: 2)\n  2451: a0 = s1 + 0x260\n  2455: ra = 48, jump @259\n      : @86 [@dyn 24] (gas: 10)\n  2460: a0 = u64 [s1 + 0x278]\n  2464: u64 [s1 + 0xd0] = a0\n  2468: a0 = u64 [s1 + 0x270]\n  2472: u64 [s1 + 0xc8] = a0\n  2476: a0 = u64 [s1 + 0x268]\n  2480: u64 [s1 + 0xc0] = a0\n  2484: a0 = u64 [s1 + 0x260]\n  2488: u64 [s1 + 0xb8] = a0\n  2492: a0 = s1 + 0x220\n  2496: ra = 50, jump @268\n      : @87 [@dyn 25] (gas: 18)\n  2501: a0 = u64 [s1 + 0x238]\n  2505: u64 [s1 + 0x88] = a0\n  2509: a0 = u64 [s1 + 0x230]\n  2513: u64 [s1 + 0x90] = a0\n  2517: a0 = u64 [s1 + 0x228]\n  2521: u64 [s1 + 0x98] = a0\n  2525: a0 = u64 [s1 + 0x220]\n  2529: u64 [s1 + 0xa0] = a0\n  2533: a0 = u64 [s1 + 0x258]\n  2537: u64 [s1 + 0x68] = a0\n  2540: a0 = u64 [s1 + 0x250]\n  2544: u64 [s1 + 0x70] = a0\n  2547: a0 = u64 [s1 + 0x248]\n  2551: u64 [s1 + 0x78] = a0\n  2554: a0 = u64 [s1 + 0x240]\n  2558: u64 [s1 + 0x80] = a0\n  2562: a0 = s1 + 0x1e0\n  2566: ra = 52, jump @268\n      : @88 [@dyn 26] (gas: 12)\n  2571: a1 = s1 + 0x200\n  2575: a0 = u64 [a1 + 0x18]\n  2578: u64 [s1 + 0x60] = a0\n  2581: a0 = u64 [a1 + 0x10]\n  2584: u64 [s1 + 0x58] = a0\n  2587: a0 = u64 [a1 + 0x8]\n  2590: u64 [s1 + 0x50] = a0\n  2593: a0 = u64 [a1]\n  2595: u64 [s1 + 0x48] = a0\n  2598: a0 = s1 + 0x1c0\n  2602: a1 = 0x40\n  2605: ra = 54, jump @17\n      : @89 [@dyn 27] (gas: 14)\n  2610: a2 = s1 + 0x100\n  2614: a3 = u64 [a2 + 0xd8]\n  2618: a4 = u64 [a2 + 0xd0]\n  2622: a1 = u64 [a2 + 0xc8]\n  2626: a0 = u64 [a2 + 0xc0]\n  2630: u64 [s1 + 0xd8] = a1\n  2634: a2 = a1 | a3\n  2637: a1 = a0 | a4\n  2640: a1 = a1 | a2\n  2643: a1 = a1 >> 0x20\n  2646: a2 = a2 | a4\n  2649: a2 = a2 << 0x20\n  2652: a1 = a1 | a2\n  2655: jump @91 if a1 == 0\n      : @90 (gas: 1)\n  2658: jump @214\n      : @91 (gas: 14)\n  2661: a1 = u64 [s1 + 0xb8]\n  2665: a5 = s1 + 0x100\n  2669: u64 [a5 + 0xa0] = a1\n  2673: a1 = u64 [s1 + 0xc0]\n  2677: u64 [a5 + 0xa8] = a1\n  2681: a1 = u64 [s1 + 0xc8]\n  2685: u64 [a5 + 0xb0] = a1\n  2689: a1 = s1 + 0x1a0\n  2693: a2 = u64 [s1 + 0xd0]\n  2697: u64 [a5 + 0xb8] = a2\n  2701: u64 [s1 + 0xd0] = a0\n  2705: u64 [s1 + 0xb0] = a3\n  2709: u64 [s1 + 0xa8] = a4\n  2713: ra = 56, jump @19\n      : @92 [@dyn 28] (gas: 11)\n  2718: a4 = u64 [s1 + 0xa8]\n  2722: t0 = u64 [s1 + 0xb0]\n  2726: a1 = u64 [s1 + 0xd0]\n  2730: a5 = a4 | t0\n  2733: a3 = 0x100000000\n  2743: a0 = 0xffffffe0\n  2753: a0 = a1 <u a0\n  2756: a2 = u64 [s1 + 0xd8]\n  2760: a0 = 0 if a2 != 0\n  2762: a0 = 0 if a5 != 0\n  2764: jump @94 if a0 != 0\n      : @93 (gas: 1)\n  2767: jump @214\n      : @94 (gas: 9)\n  2770: i32 a0 = a1 + 0x20\n  2773: u64 [s1 + 408] = 0\n  2777: u64 [s1 + 400] = 0\n  2781: u64 [s1 + 384] = 0x60\n  2786: a1 = s1 + 0x180\n  2790: u64 [s1 + 392] = 0\n  2794: u64 [s1 + 0xc8] = a5\n  2798: u64 [s1 + 0xc0] = a3\n  2802: ra = 58, jump @19\n      : @95 [@dyn 29] (gas: 39)\n  2807: a0 = u64 [s1 + 0xd0]\n  2811: a0 = a0 + 0x60\n  2814: a1 = u64 [s1 + 0xd0]\n  2818: a1 = a0 <u a1\n  2821: a3 = u64 [s1 + 0xd8]\n  2825: a2 = a3 + a1\n  2828: a3 = a2 <u a3\n  2831: a3 = a1 if a1 == 0\n  2834: a1 = u64 [s1 + 0xa8]\n  2838: a3 = a3 + a1\n  2841: a4 = a3 <u a1\n  2844: a1 = u64 [s1 + 0xb0]\n  2848: a4 = a4 + a1\n  2851: a5 = s1 + 0x100\n  2855: u64 [a5 + 0x8] = a2\n  2858: u64 [a5] = a0\n  2860: a0 = u64 [s1 + 0x68]\n  2863: u64 [a5 + 0x38] = a0\n  2866: a0 = u64 [s1 + 0x70]\n  2869: u64 [a5 + 0x30] = a0\n  2872: a0 = u64 [s1 + 0x78]\n  2875: u64 [a5 + 0x28] = a0\n  2878: a0 = u64 [s1 + 0x80]\n  2882: u64 [a5 + 0x20] = a0\n  2885: a0 = u64 [s1 + 0x88]\n  2889: u64 [a5 + 0x58] = a0\n  2892: a0 = u64 [s1 + 0x90]\n  2896: u64 [a5 + 0x50] = a0\n  2899: a0 = u64 [s1 + 0x98]\n  2903: u64 [a5 + 0x48] = a0\n  2906: a0 = u64 [s1 + 0xa0]\n  2910: u64 [a5 + 0x40] = a0\n  2913: u64 [a5 + 0x10] = a3\n  2916: a0 = s1 + 0x160\n  2920: a1 = s1 + 0x140\n  2924: a2 = s1 + 0x120\n  2928: a3 = s1 + 0x100\n  2932: u64 [a5 + 0x18] = a4\n  2935: ra = 60, jump @240\n      : @96 [@dyn 30] (gas: 9)\n  2940: a1 = u64 [s1 + 0xd0]\n  2944: a0 = u64 [s1 + 0xc0]\n  2948: a0 = a0 + 0xffffffffffffffc0\n  2951: a0 = a1 <u a0\n  2954: a2 = u64 [s1 + 0xd8]\n  2958: a0 = 0 if a2 != 0\n  2960: a2 = u64 [s1 + 0xc8]\n  2964: a0 = 0 if a2 != 0\n  2966: jump @98 if a0 != 0\n      : @97 (gas: 1)\n  2969: jump @214\n      : @98 (gas: 20)\n  2972: a2 = s1 + 0x100\n  2976: a0 = u64 [a2 + 0x78]\n  2979: u64 [s1 + 0xc8] = a0\n  2983: a0 = u64 [a2 + 0x70]\n  2986: u64 [s1 + 0xc0] = a0\n  2990: a0 = u64 [a2 + 0x68]\n  2993: u64 [s1 + 0xb8] = a0\n  2997: a0 = u64 [a2 + 0x60]\n  3000: u64 [s1 + 0xa0] = a0\n  3004: i32 a0 = a1 + 0x40\n  3007: a1 = u64 [s1 + 0x48]\n  3010: u64 [s1 + 0xe0] = a1\n  3014: a1 = u64 [s1 + 0x50]\n  3017: u64 [s1 + 0xe8] = a1\n  3021: a1 = u64 [s1 + 0x58]\n  3024: u64 [s1 + 0xf0] = a1\n  3028: a1 = s1 + 0xe0\n  3032: a2 = u64 [s1 + 0x60]\n  3035: u64 [s1 + 0xf8] = a2\n  3039: ra = 62, jump @19\n      : @99 [@dyn 31] (gas: 32)\n  3044: a0 = u64 [s1 + 0xd0]\n  3048: t1 = u64 [s1 + 0xa0]\n  3052: t0 = t1 <u a0\n  3055: a5 = u64 [s1 + 0xd8]\n  3059: a0 = u64 [s1 + 0xb8]\n  3063: a1 = a0 ^ a5\n  3066: a2 = a0 <u a5\n  3069: t2 = a0\n  3071: a2 = t0 if a1 == 0\n  3074: a0 = u64 [s1 + 0xa8]\n  3078: a3 = u64 [s1 + 0xc0]\n  3082: a1 = a3 - a0\n  3085: a3 = a3 <u a0\n  3088: a0 = u64 [s1 + 0xb0]\n  3092: a4 = u64 [s1 + 0xc8]\n  3096: a4 = a4 - a0\n  3099: a4 = a4 - a3\n  3102: a3 = a1 <u a2\n  3105: a3 = a4 - a3\n  3108: a0 = u64 [s1 + 0xd0]\n  3112: a4 = a1 - a2\n  3115: a2 = t2 - a5\n  3118: a2 = a2 - t0\n  3121: a1 = t1 - a0\n  3124: a2 = a2 | a3\n  3127: a3 = a1 | a4\n  3130: a3 = a3 | a2\n  3133: a2 = a2 | a4\n  3136: a3 = a3 >> 0x20\n  3139: a2 = a2 << 0x20\n  3142: a2 = a2 | a3\n  3145: jump @101 if a2 == 0\n      : @100 (gas: 1)\n  3148: jump @214\n      : @101 (gas: 2)\n  3151: u64 [s1 + 0xd8] = a1\n  3155: ra = 64, jump @25\n      : @102 [@dyn 32] (gas: 5)\n  3160: i32 a1 = a0 + 0\n  3162: a2 = i32 [s1 + 0xd8]\n  3166: a0 = 0\n  3168: ecalli 7 // 'seal_return'\n  3170: jump @186\n      : @103 (gas: 10)\n  3173: a0 = s1 + 0x7ff\n  3177: a0 = a0 + 0x59\n  3180: u64 [a0 + 320] = 0\n  3184: u64 [a0 + 312] = 0\n  3188: u64 [a0 + 304] = 0\n  3192: u64 [a0 + 296] = 0\n  3196: a0 = s1 + 0x1000\n  3200: i32 a0 = a0 + 0xfffffffffffff980\n  3204: ecalli 10 // 'value_transferred'\n  3206: fallthrough\n      : @104 (gas: 11)\n  3207: a3 = s1 + 0x7ff\n  3211: a3 = a3 + 0x59\n  3214: a4 = a3 + 0x100\n  3218: a0 = u64 [a4 + 0x38]\n  3221: a1 = u64 [a4 + 0x40]\n  3224: a2 = u64 [a4 + 0x30]\n  3227: a3 = u64 [a4 + 0x28]\n  3230: a1 = a1 | a2\n  3233: a0 = a0 | a3\n  3236: a0 = a0 | a1\n  3239: jump @106 if a0 == 0\n      : @105 (gas: 1)\n  3242: jump @220\n      : @106 (gas: 3)\n  3245: a0 = u64 [s1 + 0xd8]\n  3249: a0 = i32 [a0]\n  3251: jump @108 if a0 >u 3\n      : @107 (gas: 1)\n  3255: jump @221\n      : @108 (gas: 2)\n  3258: a0 = s1 + 0x4e0\n  3262: ra = 66, jump @259\n      : @109 [@dyn 33] (gas: 11)\n  3267: a0 = u64 [s1 + 0x4f8]\n  3271: u64 [s1 + 0xd8] = a0\n  3275: a0 = u64 [s1 + 0x4f0]\n  3279: u64 [s1 + 0xd0] = a0\n  3283: a0 = u64 [s1 + 0x4e8]\n  3287: u64 [s1 + 0xc8] = a0\n  3291: a0 = u64 [s1 + 0x4e0]\n  3295: u64 [s1 + 0xc0] = a0\n  3299: a0 = s1 + 0x4c0\n  3303: a1 = 0x40\n  3306: ra = 68, jump @17\n      : @110 [@dyn 34] (gas: 13)\n  3311: a4 = s1 + 0x400\n  3315: a0 = u64 [a4 + 0xd8]\n  3319: a1 = u64 [a4 + 0xd0]\n  3323: a2 = u64 [a4 + 0xc8]\n  3327: a3 = u64 [a4 + 0xc0]\n  3331: a0 = a0 | a2\n  3334: a2 = a3 | a1\n  3337: a2 = a2 | a0\n  3340: a2 = a2 >> 0x20\n  3343: a0 = a0 | a1\n  3346: a0 = a0 << 0x20\n  3349: a0 = a0 | a2\n  3352: jump @112 if a0 == 0\n      : @111 (gas: 1)\n  3355: jump @214\n      : @112 (gas: 14)\n  3358: a0 = u64 [s1 + 0xc0]\n  3362: a2 = s1 + 0x400\n  3366: u64 [a2 + 0xa0] = a0\n  3370: a0 = u64 [s1 + 0xc8]\n  3374: u64 [a2 + 0xa8] = a0\n  3378: a0 = u64 [s1 + 0xd0]\n  3382: u64 [a2 + 0xb0] = a0\n  3386: a1 = s1 + 0x4a0\n  3390: a0 = u64 [s1 + 0xd8]\n  3394: u64 [a2 + 0xb8] = a0\n  3398: a0 = a3\n  3400: u64 [s1 + 0xd8] = a3\n  3404: ra = 0x74\n  3407: jump @19\n      : @113 (gas: 10)\n  3410: a0 = s1 + 0x7ff\n  3414: a0 = a0 + 0x59\n  3417: u64 [a0 + 352] = 0\n  3421: u64 [a0 + 344] = 0\n  3425: u64 [a0 + 336] = 0\n  3429: u64 [a0 + 328] = 0\n  3433: a0 = s1 + 0x1000\n  3437: i32 a0 = a0 + 0xfffffffffffff9a0\n  3441: ecalli 10 // 'value_transferred'\n  3443: fallthrough\n      : @114 (gas: 11)\n  3444: a3 = s1 + 0x7ff\n  3448: a3 = a3 + 0x59\n  3451: a4 = a3 + 0x100\n  3455: a0 = u64 [a4 + 0x58]\n  3458: a1 = u64 [a4 + 0x60]\n  3461: a2 = u64 [a4 + 0x50]\n  3464: a3 = u64 [a4 + 0x48]\n  3467: a1 = a1 | a2\n  3470: a0 = a0 | a3\n  3473: a0 = a0 | a1\n  3476: jump @116 if a0 == 0\n      : @115 (gas: 1)\n  3479: jump @222\n      : @116 (gas: 3)\n  3482: a0 = u64 [s1 + 0xd8]\n  3486: a0 = i32 [a0]\n  3488: jump @118 if a0 >u 3\n      : @117 (gas: 1)\n  3492: jump @223\n      : @118 (gas: 3)\n  3495: a0 = s1 + 0x6e0\n  3499: a1 = 0x40\n  3502: ra = 70, jump @17\n      : @119 [@dyn 35] (gas: 18)\n  3507: a0 = u64 [s1 + 0x6f8]\n  3511: u64 [s1 + 0x38] = a0\n  3514: a0 = u64 [s1 + 0x6f0]\n  3518: u64 [s1 + 0x40] = a0\n  3521: a0 = u64 [s1 + 0x6e8]\n  3525: u64 [s1 + 0x48] = a0\n  3528: a0 = u64 [s1 + 0x6e0]\n  3532: u64 [s1 + 0x50] = a0\n  3535: a1 = s1 + 0x7ff\n  3539: a1 = a1 + 0x59\n  3542: u64 [a1 + 384] = 0\n  3546: u64 [a1 + 376] = 0\n  3550: u64 [a1 + 368] = 0\n  3554: u64 [a1 + 360] = 0x1\n  3559: a0 = s1 + 0x6c0\n  3563: a1 = s1 + 0x7ff\n  3567: a1 = a1 + 0x1c1\n  3571: ra = 72, jump @21\n      : @120 [@dyn 36] (gas: 16)\n  3576: a4 = s1 + 0x600\n  3580: a0 = u64 [a4 + 0xd8]\n  3584: a1 = u64 [a4 + 0xd0]\n  3588: a2 = u64 [a4 + 0xc8]\n  3592: a3 = u64 [a4 + 0xc0]\n  3596: u64 [s1 + 0xd0] = a0\n  3600: u64 [a4 + 0x98] = a0\n  3604: u64 [s1 + 0xc8] = a1\n  3608: u64 [a4 + 0x90] = a1\n  3612: u64 [s1 + 0xc0] = a2\n  3616: u64 [a4 + 0x88] = a2\n  3620: a0 = s1 + 0x6a0\n  3624: a1 = s1 + 0x680\n  3628: u64 [s1 + 0xd8] = a3\n  3632: u64 [a4 + 0x80] = a3\n  3636: ra = 74, jump @251\n      : @121 [@dyn 37] (gas: 12)\n  3641: a1 = u64 [s1 + 0x48]\n  3644: a2 = u64 [s1 + 0x38]\n  3647: a3 = u64 [s1 + 0x40]\n  3650: a0 = u64 [s1 + 0x50]\n  3653: a2 = a2 | a1\n  3656: a1 = a0 | a3\n  3659: a1 = a1 | a2\n  3662: a1 = a1 >> 0x20\n  3665: a2 = a2 | a3\n  3668: a2 = a2 << 0x20\n  3671: a1 = a1 | a2\n  3674: jump @123 if a1 == 0\n      : @122 (gas: 1)\n  3677: jump @214\n      : @123 (gas: 15)\n  3680: a5 = s1 + 0x600\n  3684: a2 = u64 [a5 + 0xb8]\n  3688: a3 = u64 [a5 + 0xb0]\n  3692: a1 = u64 [a5 + 0xa8]\n  3696: a4 = u64 [a5 + 0xa0]\n  3700: u64 [s1 + 0x80] = a4\n  3704: u64 [a5 + 0x60] = a4\n  3707: u64 [s1 + 0x90] = a1\n  3711: u64 [a5 + 0x68] = a1\n  3714: u64 [s1 + 0x88] = a3\n  3718: u64 [a5 + 0x70] = a3\n  3721: a1 = s1 + 0x660\n  3725: u64 [s1 + 0x98] = a2\n  3729: u64 [a5 + 0x78] = a2\n  3732: ra = 76, jump @19\n      : @124 [@dyn 38] (gas: 6)\n  3737: a2 = u64 [s1 + 0x50]\n  3740: a4 = u64 [s1 + 0xd8]\n  3744: a1 = a4 & 0x1\n  3747: a0 = a2 + 0x20\n  3750: u64 [s1 + 0x78] = a0\n  3753: jump @196 if a1 != 0\n      : @125 (gas: 9)\n  3757: a1 = u64 [s1 + 0x40]\n  3760: a3 = u64 [s1 + 0x38]\n  3763: a3 = a3 | a1\n  3766: a1 = 0xffffffe0\n  3776: a1 = a2 <u a1\n  3779: a2 = u64 [s1 + 0x48]\n  3782: a1 = 0 if a2 != 0\n  3784: a1 = 0 if a3 != 0\n  3786: jump @127 if a1 != 0\n      : @126 (gas: 1)\n  3789: jump @214\n      : @127 (gas: 11)\n  3792: a1 = a4 & 0xffffffffffffff00\n  3796: a2 = u64 [s1 + 0xc0]\n  3800: a3 = s1 + 0x500\n  3804: u64 [a3 + 0xe8] = a2\n  3808: u64 [a3 + 0xe0] = a1\n  3812: a1 = u64 [s1 + 0xc8]\n  3816: u64 [a3 + 0xf0] = a1\n  3820: a1 = s1 + 0x5e0\n  3824: a2 = u64 [s1 + 0xd0]\n  3828: u64 [a3 + 0xf8] = a2\n  3832: ra = 78, jump @19\n      : @128 [@dyn 39] (gas: 14)\n  3837: ra = 0\n  3839: t0 = 0\n  3841: u64 [s1 + 216] = 0\n  3845: a0 = u64 [s1 + 0x88]\n  3849: a1 = u64 [s1 + 0x80]\n  3853: a0 = a0 | a1\n  3856: a1 = u64 [s1 + 0x98]\n  3860: a2 = u64 [s1 + 0x90]\n  3864: a1 = a1 | a2\n  3867: a0 = a0 | a1\n  3870: a0 = a0 >u 0\n  3872: a0 = a0 << 0x5\n  3875: u64 [s1 + 0xd0] = a0\n  3879: fallthrough\n      : @129 (gas: 37)\n  3880: a1 = u64 [s1 + 0xd0]\n  3884: a0 = a1 + 0x3f\n  3887: a1 = a0 <u a1\n  3890: a2 = ra + a1\n  3893: a0 = a0 & 0xffffffffffffffe0\n  3896: t1 = u64 [s1 + 0x50]\n  3899: t1 = t1 + a0\n  3902: a0 = t1 <u a0\n  3905: a3 = u64 [s1 + 0x48]\n  3908: a3 = a3 + a2\n  3911: t2 = a3 + a0\n  3914: a3 = t2 ^ a2\n  3917: a4 = t2 <u a2\n  3920: a4 = a0 if a3 == 0\n  3923: a0 = a2 <u ra\n  3926: a0 = a1 if a1 == 0\n  3929: a0 = a0 + t0\n  3932: a1 = a0 <u t0\n  3935: ra = u64 [s1 + 0x40]\n  3938: a2 = a0 + ra\n  3941: a4 = a4 + a2\n  3944: a0 = a2 <u a0\n  3947: a2 = a4 <u a2\n  3950: t0 = u64 [s1 + 0x38]\n  3953: a3 = u64 [s1 + 0xd8]\n  3957: a3 = a3 + t0\n  3960: a1 = a1 + a3\n  3963: a0 = a0 + a1\n  3966: a2 = a2 + a0\n  3969: a0 = a2 >u 0\n  3971: a1 = a4 >u 0\n  3973: a1 = a0 if a2 != 0\n  3976: a3 = a4 | a2\n  3979: a0 = t2 >u 0\n  3981: u64 [s1 + 0xb8] = a3\n  3985: a0 = a1 if a3 != 0\n  3988: jump @131 if a0 == 0\n      : @130 (gas: 1)\n  3991: jump @233\n      : @131 (gas: 15)\n  3994: a5 = a4\n  3996: a0 = u64 [s1 + 0x50]\n  3999: a0 = t1 <u a0\n  4002: a3 = u64 [s1 + 0x48]\n  4005: a1 = t2 ^ a3\n  4008: a4 = t2 <u a3\n  4011: a4 = a0 if a1 == 0\n  4014: a0 = a5 <u ra\n  4017: a1 = a2 ^ t0\n  4020: a3 = a2 <u t0\n  4023: a3 = a0 if a1 == 0\n  4026: a0 = a5 ^ ra\n  4029: a0 = a0 | a1\n  4032: a3 = a4 if a0 == 0\n  4035: jump @133 if a3 == 0\n      : @132 (gas: 1)\n  4038: jump @233\n      : @133 (gas: 11)\n  4041: u64 [s1 + 0x5c0] = t1\n  4045: u64 [s1 + 0x5c8] = t2\n  4049: u64 [s1 + 0x5d0] = a5\n  4053: a0 = 0x40\n  4056: a1 = s1 + 0x5c0\n  4060: u64 [s1 + 0x5d8] = a2\n  4064: u64 [s1 + 0xd8] = t1\n  4068: u64 [s1 + 0xc8] = a5\n  4072: u64 [s1 + 0xd0] = t2\n  4076: u64 [s1 + 0xc0] = a2\n  4080: ra = 80, jump @19\n      : @134 [@dyn 40] (gas: 12)\n  4085: a3 = u64 [s1 + 0xc8]\n  4089: a0 = u64 [s1 + 0xd8]\n  4093: a2 = a0 | a3\n  4096: a1 = u64 [s1 + 0xd0]\n  4100: a4 = u64 [s1 + 0xc0]\n  4104: a1 = a1 | a4\n  4107: a2 = a2 | a1\n  4110: a2 = a2 >> 0x20\n  4113: a1 = a1 | a3\n  4116: a1 = a1 << 0x20\n  4119: a1 = a1 | a2\n  4122: jump @214 if a1 != 0\n      : @135 (gas: 6)\n  4126: u64 [s1 + 1464] = 0\n  4130: u64 [s1 + 1456] = 0\n  4134: u64 [s1 + 1448] = 0\n  4138: a1 = s1 + 0x5a0\n  4142: u64 [s1 + 1440] = 0x20\n  4147: ra = 82, jump @19\n      : @136 [@dyn 41] (gas: 3)\n  4152: a0 = s1 + 0x580\n  4156: a1 = u64 [s1 + 0x50]\n  4159: ra = 84, jump @17\n      : @137 [@dyn 42] (gas: 9)\n  4164: a1 = u64 [s1 + 0xd8]\n  4168: a3 = 0x100000000\n  4178: a0 = 0xffffffe0\n  4188: a0 = a1 <u a0\n  4191: a2 = u64 [s1 + 0xd0]\n  4195: a0 = 0 if a2 != 0\n  4197: a2 = u64 [s1 + 0xb8]\n  4201: a0 = 0 if a2 != 0\n  4203: jump @214 if a0 == 0\n      : @138 (gas: 17)\n  4207: t0 = u64 [s1 + 0x598]\n  4211: a2 = s1 + 0x500\n  4215: a4 = u64 [a2 + 0x90]\n  4219: a5 = u64 [a2 + 0x88]\n  4223: u64 [s1 + 0xa8] = a3\n  4227: a3 = u64 [a2 + 0x80]\n  4231: i32 a0 = a1 + 0x20\n  4234: u64 [s1 + 0xb0] = a3\n  4238: u64 [a2 + 0x60] = a3\n  4241: u64 [s1 + 0x90] = a5\n  4245: u64 [a2 + 0x68] = a5\n  4248: u64 [s1 + 0xa0] = a4\n  4252: u64 [a2 + 0x70] = a4\n  4255: a1 = s1 + 0x560\n  4259: u64 [s1 + 0x98] = t0\n  4263: u64 [s1 + 0x578] = t0\n  4267: ra = 86, jump @19\n      : @139 [@dyn 43] (gas: 9)\n  4272: a3 = u64 [s1 + 0xd0]\n  4276: a2 = u64 [s1 + 0xd8]\n  4280: a0 = u64 [s1 + 0xa8]\n  4284: a0 = a0 + 0xffffffffffffffc0\n  4287: a0 = a2 <u a0\n  4290: a0 = 0 if a3 != 0\n  4292: a1 = u64 [s1 + 0xb8]\n  4296: a0 = 0 if a1 != 0\n  4298: jump @214 if a0 == 0\n      : @140 (gas: 12)\n  4302: a0 = u64 [s1 + 0xb0]\n  4306: a4 = u64 [s1 + 0xa0]\n  4310: a0 = a0 | a4\n  4313: a1 = u64 [s1 + 0x98]\n  4317: a5 = u64 [s1 + 0x90]\n  4321: a1 = a1 | a5\n  4324: a0 = a0 | a1\n  4327: a0 = a0 >> 0x20\n  4330: a1 = a1 | a4\n  4333: a1 = a1 << 0x20\n  4336: a0 = a0 | a1\n  4339: jump @214 if a0 != 0\n      : @141 (gas: 3)\n  4343: i32 a0 = a2 + 0x40\n  4346: a1 = u64 [s1 + 0xb0]\n  4350: ra = 88, jump @25\n      : @142 [@dyn 44] (gas: 4)\n  4355: u64 [s1 + 0xb8] = a0\n  4359: a0 = u64 [s1 + 0x78]\n  4362: a1 = u64 [s1 + 0xb0]\n  4366: ra = 90, jump @25\n      : @143 [@dyn 45] (gas: 4)\n  4371: a1 = a0\n  4373: a0 = u64 [s1 + 0xb8]\n  4377: a2 = u64 [s1 + 0xb0]\n  4381: ra = 92, jump @0\n      : @144 [@dyn 46] (gas: 28)\n  4386: a0 = u64 [s1 + 0xd8]\n  4390: a1 = u64 [s1 + 0xb0]\n  4394: a0 = a0 + a1\n  4397: a2 = a0 <u a1\n  4400: a4 = u64 [s1 + 0x90]\n  4404: a1 = u64 [s1 + 0xd0]\n  4408: a1 = a1 + a4\n  4411: a1 = a1 + a2\n  4414: a3 = a1 ^ a4\n  4417: a4 = a1 <u a4\n  4420: a4 = a2 if a3 == 0\n  4423: a2 = u64 [s1 + 0xc0]\n  4427: a3 = u64 [s1 + 0x98]\n  4431: a2 = a2 + a3\n  4434: a3 = u64 [s1 + 0xc8]\n  4438: a5 = u64 [s1 + 0xa0]\n  4442: a3 = a3 + a5\n  4445: a4 = a4 + a3\n  4448: a5 = a3 <u a5\n  4451: a3 = a4 <u a3\n  4454: a2 = a2 + a5\n  4457: a2 = a2 + a3\n  4460: a2 = a2 | a4\n  4463: a4 = 0xffffffc0\n  4473: a3 = a0 <u a4\n  4476: a3 = 0 if a1 != 0\n  4478: a3 = 0 if a2 != 0\n  4480: jump @214 if a3 == 0\n      : @145 (gas: 8)\n  4484: i32 a0 = a0 + 0x40\n  4487: u64 [s1 + 1368] = 0\n  4491: u64 [s1 + 1360] = 0\n  4495: u64 [s1 + 1352] = 0\n  4499: a1 = s1 + 0x540\n  4503: u64 [s1 + 1344] = 0\n  4507: u64 [s1 + 0xd0] = a4\n  4511: ra = 94, jump @19\n      : @146 [@dyn 47] (gas: 6)\n  4516: a0 = u64 [s1 + 0xb0]\n  4520: a0 = a0 + 0x1f\n  4523: a1 = 0x1ffffffe0\n  4533: a0 = a0 & a1\n  4536: a1 = u64 [s1 + 0xd0]\n  4540: jump @214 if a0 >=u a1\n      : @147 (gas: 4)\n  4544: i32 a1 = a0 + 0x40\n  4547: u64 [s1 + 0xd0] = a1\n  4551: a0 = u64 [s1 + 0xd8]\n  4555: ra = 96, jump @25\n      : @148 [@dyn 48] (gas: 5)\n  4560: i32 a1 = a0 + 0\n  4562: a0 = 0\n  4564: a2 = u64 [s1 + 0xd0]\n  4568: ecalli 7 // 'seal_return'\n  4570: fallthrough\n      : @149 (gas: 7)\n  4571: u64 [s1 + 2008] = 0\n  4575: u64 [s1 + 2000] = 0\n  4579: u64 [s1 + 1992] = 0\n  4583: u64 [s1 + 1984] = 0\n  4587: i32 a0 = s1 + 0x7c0\n  4591: ecalli 10 // 'value_transferred'\n  4593: fallthrough\n      : @150 (gas: 9)\n  4594: a4 = s1 + 0x700\n  4598: a0 = u64 [a4 + 0xd0]\n  4602: a1 = u64 [a4 + 0xd8]\n  4606: a2 = u64 [a4 + 0xc8]\n  4610: a3 = u64 [a4 + 0xc0]\n  4614: a1 = a1 | a2\n  4617: a0 = a0 | a3\n  4620: a0 = a0 | a1\n  4623: jump @224 if a0 != 0\n      : @151 (gas: 3)\n  4627: a0 = u64 [s1 + 0xd8]\n  4631: a0 = i32 [a0]\n  4633: jump @225 if a0 <=u 35\n      : @152 (gas: 4)\n  4638: i32 a0 = s1 + 0x7e0\n  4642: a1 = 0x4\n  4645: ecalli 1 // 'call_data_load'\n  4647: fallthrough\n      : @153 (gas: 8)\n  4648: a0 = s1 + 0x700\n  4652: a3 = u64 [a0 + 0xf8]\n  4656: a1 = u64 [a0 + 0xf0]\n  4660: a4 = u64 [a0 + 0xe8]\n  4664: a2 = a1 | a3\n  4667: a0 = a4 <u 0x1\n  4670: a0 = 0 if a2 != 0\n  4672: jump @226 if a0 == 0\n      : @154 (gas: 20)\n  4676: u64 [s1 + 0x30] = a2\n  4679: a5 = u64 [s1 + 0x7e0]\n  4683: a0 = u64 [s1 + 0xd8]\n  4687: t1 = u32 [a0]\n  4689: a0 = a5 + 0x23\n  4692: a2 = a0 <u a5\n  4695: t0 = a4 + a2\n  4698: u64 [s1 + 0x40] = a4\n  4701: a4 = t0 <u a4\n  4704: a4 = a2 if a2 == 0\n  4707: a4 = a4 + a1\n  4710: u64 [s1 + 0xc8] = a1\n  4714: a2 = a4 <u a1\n  4717: u64 [s1 + 0xd0] = a3\n  4721: a2 = a2 + a3\n  4724: a2 = a2 | a4\n  4727: a0 = a0 <u t1\n  4730: a0 = 0 if t0 != 0\n  4732: a0 = 0 if a2 != 0\n  4734: jump @227 if a0 == 0\n      : @155 (gas: 6)\n  4738: i32 a1 = a5 + 0x4\n  4741: a0 = s1 + 0x1000\n  4745: i32 a0 = a0 + 0xfffffffffffff800\n  4749: u64 [s1 + 0x38] = a5\n  4752: ecalli 1 // 'call_data_load'\n  4754: fallthrough\n      : @156 (gas: 11)\n  4755: a0 = s1 + 0x1000\n  4759: t1 = u64 [a0 + 0xfffffffffffff818]\n  4763: a0 = s1 + 0x1000\n  4767: t2 = u64 [a0 + 0xfffffffffffff810]\n  4771: a0 = s1 + 0x1000\n  4775: a4 = u64 [a0 + 0xfffffffffffff808]\n  4779: a1 = t2 | t1\n  4782: a0 = a4 <u 0x1\n  4785: u64 [s1 + 0x70] = a1\n  4788: a0 = 0 if a1 != 0\n  4790: jump @228 if a0 == 0\n      : @157 (gas: 48)\n  4794: a0 = s1 + 0x1000\n  4798: t0 = u64 [a0 + 0xfffffffffffff800]\n  4802: a1 = u64 [s1 + 0x38]\n  4805: a0 = a1 + 0x24\n  4808: ra = a0 <u a1\n  4811: a1 = u64 [s1 + 0x40]\n  4814: a2 = a1 + ra\n  4817: u64 [s1 + 0x60] = t0\n  4820: t0 = t0 + a0\n  4823: u64 [s1 + 0x80] = a0\n  4827: a3 = t0 <u a0\n  4830: u64 [s1 + 0x58] = a4\n  4833: a0 = a2 + a4\n  4836: a0 = a0 + a3\n  4839: a4 = a0 ^ a2\n  4842: a5 = a0 <u a2\n  4845: a5 = a3 if a4 == 0\n  4848: u64 [s1 + 0x90] = a2\n  4852: a3 = a2 <u a1\n  4855: a3 = ra if ra == 0\n  4858: a1 = u64 [s1 + 0xc8]\n  4862: a3 = a3 + a1\n  4865: a2 = a3 <u a1\n  4868: a4 = u64 [s1 + 0xd0]\n  4872: a4 = a4 + a2\n  4875: u64 [s1 + 0x50] = t2\n  4878: a2 = a3 + t2\n  4881: u64 [s1 + 0x88] = a3\n  4885: a3 = a2 <u a3\n  4888: u64 [s1 + 0x48] = t1\n  4891: u64 [s1 + 0x78] = a4\n  4894: a4 = a4 + t1\n  4897: a3 = a3 + a4\n  4900: a1 = u64 [s1 + 0xd8]\n  4904: a4 = u32 [a1]\n  4906: a5 = a5 + a2\n  4909: a2 = a5 <u a2\n  4912: a2 = a2 + a3\n  4915: a1 = a4 <u t0\n  4918: a3 = a0 <u 0x1\n  4921: a1 = a1 ^ 0x1\n  4924: a1 = a3 if a0 != 0\n  4927: a0 = a2 <u 0x1\n  4930: a3 = a5 <u 0x1\n  4933: a3 = a0 if a2 != 0\n  4936: a2 = a2 | a5\n  4939: a1 = a3 if a2 != 0\n  4942: jump @229 if a1 == 0\n      : @158 (gas: 2)\n  4946: a0 = s1 + 0x480\n  4950: ra = 98, jump @259\n      : @159 [@dyn 49] (gas: 20)\n  4955: a0 = u64 [s1 + 0x498]\n  4959: u64 [s1 + 0x28] = a0\n  4962: a0 = u64 [s1 + 0x490]\n  4966: u64 [s1 + 0x20] = a0\n  4969: a0 = u64 [s1 + 0x488]\n  4973: u64 [s1 + 0x18] = a0\n  4976: a0 = u64 [s1 + 0x480]\n  4980: u64 [s1 + 0x10] = a0\n  4983: a0 = s1 + 0x1000\n  4987: u64 [a0 + 4294965304] = 0\n  4991: a0 = s1 + 0x1000\n  4995: u64 [a0 + 4294965296] = 0\n  4999: a0 = s1 + 0x1000\n  5003: u64 [a0 + 4294965288] = 0\n  5007: a1 = s1 + 0x1000\n  5011: u64 [a1 + 4294965280] = 0x1\n  5016: a0 = s1 + 0x460\n  5020: a1 = s1 + 0x7ff\n  5024: a1 = a1 + 0x21\n  5027: ra = 100, jump @21\n      : @160 [@dyn 50] (gas: 11)\n  5032: a2 = u64 [s1 + 0x460]\n  5036: a0 = u64 [s1 + 0x468]\n  5040: a1 = u64 [s1 + 0x470]\n  5044: a3 = u64 [s1 + 0x478]\n  5048: u64 [s1 + 0x438] = a3\n  5052: u64 [s1 + 0x430] = a1\n  5056: u64 [s1 + 0x428] = a0\n  5060: a0 = s1 + 0x440\n  5064: a1 = s1 + 0x420\n  5068: u64 [s1 + 0x420] = a2\n  5072: ra = 102, jump @251\n      : @161 [@dyn 51] (gas: 13)\n  5077: a0 = s1 + 0x400\n  5081: a2 = u64 [a0 + 0x58]\n  5084: a3 = u64 [a0 + 0x50]\n  5087: a5 = u64 [a0 + 0x40]\n  5090: a4 = u64 [a0 + 0x48]\n  5093: a0 = a3 | a2\n  5096: a1 = a5 <u 0x20\n  5099: a1 = 0 if a4 != 0\n  5101: a1 = 0 if a0 != 0\n  5103: a0 = u64 [s1 + 0x60]\n  5106: a0 = a0 <u 0x20\n  5109: u64 [s1 + 0x68] = a0\n  5112: jump @167 if a1 != 0\n      : @162 (gas: 11)\n  5116: u64 [s1 + 1048] = 0\n  5120: u64 [s1 + 1040] = 0\n  5124: u64 [s1 + 1032] = 0\n  5128: a1 = s1 + 0x400\n  5132: u64 [s1 + 1024] = 0x1\n  5137: a0 = 0\n  5139: u64 [s1 + 0xc8] = a2\n  5143: u64 [s1 + 0xd0] = a3\n  5147: u64 [s1 + 0xc0] = a4\n  5151: u64 [s1 + 0xb8] = a5\n  5155: ra = 104, jump @19\n      : @163 [@dyn 52] (gas: 104)\n  5160: a0 = u64 [s1 + 0x60]\n  5163: a1 = a0 + 0x1f\n  5166: a0 = a1 <u a0\n  5169: a3 = u64 [s1 + 0x58]\n  5172: a2 = a3 + a0\n  5175: a3 = a2 <u a3\n  5178: a3 = a0 if a0 == 0\n  5181: ra = u64 [s1 + 0x50]\n  5184: ra = ra + a3\n  5187: a3 = ra << 0x3b\n  5190: a4 = a2 >> 0x5\n  5193: a3 = a3 | a4\n  5196: a4 = a2 << 0x3b\n  5199: a5 = a1 >> 0x5\n  5202: t0 = u64 [0x20020]\n  5207: u64 [s1 + 0xa0] = t0\n  5211: t2 = u64 [0x20018]\n  5216: a4 = a4 | a5\n  5219: t0 = t0 + a4\n  5222: a4 = t0 <u a4\n  5225: a5 = a4 + t2\n  5228: u64 [s1 + 0x98] = t2\n  5232: a0 = a3 + a5\n  5235: u64 [s1 + 0xd8] = a0\n  5239: a5 = a0 ^ a3\n  5242: a0 = a0 <u a3\n  5245: a0 = a4 if a5 == 0\n  5248: u64 [s1 + 0xa8] = a0\n  5252: a0 = u64 [s1 + 0xb8]\n  5256: a5 = a0 + 0x1f\n  5259: a0 = a5 <u a0\n  5262: a1 = u64 [s1 + 0xc0]\n  5266: a2 = a1 + a0\n  5269: a4 = a2 <u a1\n  5272: a4 = a0 if a0 == 0\n  5275: t1 = u64 [s1 + 0xd0]\n  5279: a4 = a4 + t1\n  5282: a0 = a4 << 0x3b\n  5285: a1 = a2 >> 0x5\n  5288: a0 = a0 | a1\n  5291: a2 = a2 << 0x3b\n  5294: a5 = a5 >> 0x5\n  5297: a2 = a2 | a5\n  5300: a5 = u64 [s1 + 0xa0]\n  5304: a1 = a2 + a5\n  5307: u64 [s1 + 0xb8] = a1\n  5311: a1 = a1 <u a2\n  5314: a2 = a1 + t2\n  5317: a3 = a0 + a2\n  5320: a2 = a3 ^ a0\n  5323: u64 [s1 + 0xb0] = a3\n  5327: t2 = a3 <u a0\n  5330: t2 = a1 if a2 == 0\n  5333: a0 = u64 [s1 + 0x50]\n  5336: a0 = ra <u a0\n  5339: a3 = u64 [s1 + 0x48]\n  5342: a3 = a3 + a0\n  5345: a2 = ra >> 0x5\n  5348: a0 = u64 [0x20010]\n  5353: a1 = a3 << 0x3b\n  5356: a1 = a1 | a2\n  5359: a3 = a3 >> 0x5\n  5362: a2 = a1 + a0\n  5365: a1 = a2 <u a1\n  5368: a1 = a1 + a3\n  5371: ra = u64 [s1 + 0xa8]\n  5375: ra = ra + a2\n  5378: t1 = u64 [s1 + 0xd8]\n  5382: a3 = ra <u a2\n  5385: a3 = a3 + a1\n  5388: a1 = u64 [s1 + 0x68]\n  5391: a2 = u64 [s1 + 0x58]\n  5394: a1 = 0 if a2 != 0\n  5396: a2 = u64 [s1 + 0x70]\n  5399: a1 = 0 if a2 != 0\n  5401: a2 = u64 [s1 + 0x98]\n  5405: t1 = a2 if a1 != 0\n  5408: t0 = a5 if a1 != 0\n  5411: a3 = 0 if a1 != 0\n  5413: ra = a0 if a1 != 0\n  5416: a1 = u64 [s1 + 0xd0]\n  5420: a1 = a4 <u a1\n  5423: a2 = u64 [s1 + 0xc8]\n  5427: a1 = a1 + a2\n  5430: a4 = a4 >> 0x5\n  5433: a2 = a1 << 0x3b\n  5436: a2 = a2 | a4\n  5439: a1 = a1 >> 0x5\n  5442: a0 = a0 + a2\n  5445: a2 = a0 <u a2\n  5448: a1 = a1 + a2\n  5451: a2 = u64 [0x20008]\n  5456: t2 = t2 + a0\n  5459: u64 [s1 + 0xa8] = t2\n  5463: a0 = t2 <u a0\n  5466: a0 = a0 + a1\n  5469: a4 = a2 + a3\n  5472: a0 = a0 + a2\n  5475: u64 [s1 + 0xa0] = a0\n  5479: a0 = sp + 0xffffffffffffffe0\n  5482: a5 = a0 & 0xffffffffffffffe0\n  5485: sp = a5\n  5487: u64 [s1 + 0x98] = a5\n  5491: fallthrough\n      : @164 (gas: 20)\n  5492: a0 = u64 [s1 + 0xb8]\n  5496: a0 = t0 <u a0\n  5499: a2 = u64 [s1 + 0xb0]\n  5503: a1 = t1 ^ a2\n  5506: a2 = t1 <u a2\n  5509: a2 = a0 if a1 == 0\n  5512: a0 = u64 [s1 + 0xa8]\n  5516: t2 = ra <u a0\n  5519: a3 = u64 [s1 + 0xa0]\n  5523: a1 = a4 ^ a3\n  5526: a3 = a4 <u a3\n  5529: a3 = t2 if a1 == 0\n  5532: a0 = ra ^ a0\n  5535: a0 = a0 | a1\n  5538: a3 = a2 if a0 == 0\n  5541: u64 [a5] = t0\n  5543: u64 [a5 + 0x8] = t1\n  5546: u64 [a5 + 0x10] = ra\n  5549: u64 [a5 + 0x18] = a4\n  5552: jump @167 if a3 == 0\n      : @165 (gas: 16)\n  5555: a0 = s1 + 0x7ff\n  5559: a0 = a0 + 0x59\n  5562: u64 [a0 + 0] = 0\n  5564: u64 [a0 + 4294967288] = 0\n  5567: a0 = s1 + 0x1000\n  5571: u64 [a0 + 4294965320] = 0\n  5575: a0 = s1 + 0x1000\n  5579: u64 [a0 + 4294965312] = 0\n  5583: a1 = s1 + 0x7ff\n  5587: a1 = a1 + 0x41\n  5590: a0 = a5\n  5592: u64 [s1 + 0xd0] = t0\n  5596: u64 [s1 + 0xd8] = t1\n  5600: u64 [s1 + 0xc0] = ra\n  5604: u64 [s1 + 0xc8] = a4\n  5608: ra = 106, jump @23\n      : @166 [@dyn 53] (gas: 14)\n  5613: a5 = u64 [s1 + 0x98]\n  5617: a4 = u64 [s1 + 0xc8]\n  5621: t1 = u64 [s1 + 0xd8]\n  5625: t0 = u64 [s1 + 0xd0]\n  5629: t0 = t0 + 0x1\n  5632: a0 = t0 <u 0x1\n  5635: t1 = t1 + a0\n  5638: a0 = t0 | t1\n  5641: a0 = a0 <u 0x1\n  5644: a1 = u64 [s1 + 0xc0]\n  5648: ra = a1 + a0\n  5651: a1 = ra <u a1\n  5654: a4 = a4 + a1\n  5657: jump @164\n      : @167 (gas: 13)\n  5660: a3 = u64 [s1 + 0x58]\n  5663: a0 = a3 >u 0\n  5665: a1 = u64 [s1 + 0x68]\n  5668: a1 = a1 ^ 0x1\n  5671: a1 = a0 if a3 != 0\n  5674: a4 = u64 [s1 + 0x50]\n  5677: a0 = a4 >u 0\n  5679: a5 = u64 [s1 + 0x48]\n  5682: a2 = a5 >u 0\n  5684: a2 = a0 if a5 == 0\n  5687: a0 = u64 [s1 + 0x70]\n  5690: a2 = a1 if a0 == 0\n  5693: jump @186 if a2 == 0\n      : @168 (gas: 10)\n  5697: a0 = u64 [s1 + 0x60]\n  5700: a0 = a0 & 0xffffffffffffffe0\n  5703: u64 [s1 + 0x70] = a0\n  5706: u64 [s1 + 1016] = 0\n  5710: u64 [s1 + 1008] = 0\n  5714: u64 [s1 + 1000] = 0\n  5718: a1 = s1 + 0x3e0\n  5722: u64 [s1 + 992] = 0x1\n  5727: a0 = 0\n  5729: ra = 108, jump @19\n      : @169 [@dyn 54] (gas: 24)\n  5734: a0 = sp + 0xffffffffffffffe0\n  5737: a1 = a0 & 0xffffffffffffffe0\n  5740: sp = a1\n  5742: a2 = 0\n  5744: ra = 0\n  5746: t1 = 0\n  5748: u64 [s1 + 216] = 0\n  5752: a4 = u64 [0x20008]\n  5757: a5 = u64 [0x20010]\n  5762: a3 = u64 [0x20018]\n  5767: a0 = u64 [0x20020]\n  5772: u64 [s1 + 0xc8] = a4\n  5776: u64 [a1 + 0x18] = a4\n  5779: u64 [s1 + 0xc0] = a5\n  5783: u64 [a1 + 0x10] = a5\n  5786: t2 = a3\n  5788: u64 [a1 + 0x8] = a3\n  5791: u64 [s1 + 0xd0] = a1\n  5795: a3 = a0\n  5797: u64 [a1] = a0\n  5799: a0 = s1 + 0x1000\n  5803: i32 a0 = a0 + 0xfffffffffffff860\n  5807: u64 [s1 + 0x68] = a0\n  5810: fallthrough\n      : @170 (gas: 20)\n  5811: u64 [s1 + 0xb8] = a3\n  5815: a0 = u64 [s1 + 0x70]\n  5818: a0 = a2 <u a0\n  5821: a3 = a0 ^ 0x1\n  5824: a3 = 0x1 if ra != 0\n  5827: a4 = u64 [s1 + 0xd8]\n  5831: a0 = t1 | a4\n  5834: a3 = 0x1 if a0 != 0\n  5837: a5 = u64 [s1 + 0x80]\n  5841: u64 [s1 + 0xa8] = a2\n  5845: t0 = a5 + a2\n  5848: a2 = u64 [s1 + 0x90]\n  5852: u64 [s1 + 0xa0] = ra\n  5856: ra = ra + a2\n  5859: a1 = u64 [s1 + 0x88]\n  5863: u64 [s1 + 0xb0] = t1\n  5867: t1 = t1 + a1\n  5870: a0 = u64 [s1 + 0x78]\n  5873: a0 = a0 + a4\n  5876: jump @188 if a3 != 0\n      : @171 (gas: 19)\n  5880: a3 = t0 <u a5\n  5883: ra = ra + a3\n  5886: a4 = ra ^ a2\n  5889: a5 = ra <u a2\n  5892: a5 = a3 if a4 == 0\n  5895: a5 = a5 + t1\n  5898: a3 = a5 <u t1\n  5901: a1 = t1 <u a1\n  5904: a0 = a0 + a1\n  5907: a0 = a0 + a3\n  5910: a1 = t0 | a5\n  5913: a0 = ra | a0\n  5916: a1 = a1 | a0\n  5919: a1 = a1 >> 0x20\n  5922: a0 = a0 | a5\n  5925: a0 = a0 << 0x20\n  5928: a0 = a0 | a1\n  5931: u64 [s1 + 0x98] = t2\n  5935: jump @214 if a0 != 0\n      : @172 (gas: 17)\n  5939: i32 a1 = t0 + 0\n  5941: a0 = u64 [s1 + 0x68]\n  5944: ecalli 1 // 'call_data_load'\n  5946: a4 = s1 + 0x7ff\n  5950: a4 = a4 + 0x59\n  5953: a0 = u64 [a4 + 0x20]\n  5956: a1 = u64 [a4 + 0x18]\n  5959: a2 = u64 [a4 + 0x10]\n  5962: a3 = u64 [a4 + 0x8]\n  5965: u64 [a4 + 0x40] = a0\n  5968: u64 [a4 + 0x38] = a1\n  5971: u64 [a4 + 0x30] = a2\n  5974: u64 [a4 + 0x28] = a3\n  5977: a1 = s1 + 0x7ff\n  5981: a1 = a1 + 0x81\n  5985: a0 = u64 [s1 + 0xd0]\n  5989: ra = 110, jump @23\n      : @173 [@dyn 55] (gas: 38)\n  5994: t0 = u64 [s1 + 0xc8]\n  5998: a5 = u64 [s1 + 0xb8]\n  6002: a5 = a5 + 0x1\n  6005: a0 = a5 <u 0x1\n  6008: a3 = u64 [s1 + 0x98]\n  6012: a3 = a3 + a0\n  6015: a0 = a5 | a3\n  6018: a0 = a0 <u 0x1\n  6021: a1 = u64 [s1 + 0xc0]\n  6025: a0 = a0 + a1\n  6028: a1 = a0 <u a1\n  6031: t0 = t0 + a1\n  6034: a1 = u64 [s1 + 0xa8]\n  6038: t1 = a1 + 0x20\n  6041: a2 = t1 <u a1\n  6044: a1 = u64 [s1 + 0xa0]\n  6048: ra = a1 + a2\n  6051: a4 = ra <u a1\n  6054: a4 = a2 if a2 == 0\n  6057: a1 = u64 [s1 + 0xb0]\n  6061: a4 = a4 + a1\n  6064: a2 = a4 <u a1\n  6067: a1 = u64 [s1 + 0xd8]\n  6071: a1 = a1 + a2\n  6074: u64 [s1 + 0xd8] = a1\n  6078: a1 = u64 [s1 + 0xd0]\n  6082: u64 [a1 + 0x10] = a0\n  6085: t2 = a3\n  6087: u64 [a1 + 0x8] = a3\n  6090: a3 = a5\n  6092: u64 [a1] = a5\n  6094: a2 = t0\n  6096: u64 [s1 + 0xc8] = a2\n  6100: u64 [a1 + 0x18] = a2\n  6103: u64 [s1 + 0xc0] = a0\n  6107: a2 = t1\n  6109: t1 = a4\n  6111: jump @170\n      : @174 (gas: 1)\n  6114: jump @215 if a0 != 1462463493\n      : @175 (gas: 7)\n  6122: u64 [s1 + 1912] = 0\n  6126: u64 [s1 + 1904] = 0\n  6130: u64 [s1 + 1896] = 0\n  6134: u64 [s1 + 1888] = 0\n  6138: i32 a0 = s1 + 0x760\n  6142: ecalli 10 // 'value_transferred'\n  6144: fallthrough\n      : @176 (gas: 9)\n  6145: a4 = s1 + 0x700\n  6149: a0 = u64 [a4 + 0x70]\n  6152: a1 = u64 [a4 + 0x78]\n  6155: a2 = u64 [a4 + 0x68]\n  6158: a3 = u64 [a4 + 0x60]\n  6161: a1 = a1 | a2\n  6164: a0 = a0 | a3\n  6167: a0 = a0 | a1\n  6170: jump @230 if a0 != 0\n      : @177 (gas: 3)\n  6174: a0 = u64 [s1 + 0xd8]\n  6178: a0 = i32 [a0]\n  6180: jump @231 if a0 <=u 35\n      : @178 (gas: 4)\n  6185: i32 a0 = s1 + 0x780\n  6189: a1 = 0x4\n  6192: ecalli 1 // 'call_data_load'\n  6194: fallthrough\n      : @179 (gas: 12)\n  6195: a1 = u64 [s1 + 0x790]\n  6199: a2 = u64 [s1 + 0x798]\n  6203: a0 = 0x100000000\n  6213: a0 = a0 ^ a1\n  6216: a0 = a0 | a2\n  6219: u64 [s1 + 0xd0] = a1\n  6223: a1 = a1 >> 0x20\n  6226: a1 = a1 <u 0x1\n  6229: u64 [s1 + 0xd8] = a2\n  6233: a1 = 0 if a2 != 0\n  6235: a1 = 0 if a0 == 0\n  6237: jump @232 if a1 == 0\n      : @180 (gas: 11)\n  6241: a0 = u64 [s1 + 0x788]\n  6245: u64 [s1 + 0xc8] = a0\n  6249: a0 = u64 [s1 + 0x780]\n  6253: u64 [s1 + 0xc0] = a0\n  6257: u64 [s1 + 1976] = 0\n  6261: u64 [s1 + 1968] = 0\n  6265: u64 [s1 + 1960] = 0\n  6269: u64 [s1 + 1952] = 0\n  6273: a0 = s1 + 0x2c0\n  6277: a1 = s1 + 0x7a0\n  6281: ra = 112, jump @21\n      : @181 [@dyn 56] (gas: 9)\n  6286: a0 = u64 [s1 + 0x2d0]\n  6290: u64 [s1 + 0xa8] = a0\n  6294: a0 = u64 [s1 + 0x2c8]\n  6298: u64 [s1 + 0xb8] = a0\n  6302: a0 = u64 [s1 + 0x2c0]\n  6306: u64 [s1 + 0xb0] = a0\n  6310: a0 = s1 + 0x2a0\n  6314: a1 = 0x40\n  6317: ra = 114, jump @17\n      : @182 [@dyn 57] (gas: 13)\n  6322: a3 = s1 + 0x200\n  6326: a0 = u64 [a3 + 0xb8]\n  6330: a1 = u64 [a3 + 0xb0]\n  6334: a2 = u64 [a3 + 0xa8]\n  6338: a4 = u64 [a3 + 0xa0]\n  6342: a0 = a0 | a2\n  6345: a2 = a4 | a1\n  6348: a2 = a2 | a0\n  6351: a2 = a2 >> 0x20\n  6354: a0 = a0 | a1\n  6357: a0 = a0 << 0x20\n  6360: a0 = a0 | a2\n  6363: jump @214 if a0 != 0\n      : @183 (gas: 24)\n  6367: a0 = u64 [s1 + 0xa8]\n  6371: a0 = a0 << 0x20\n  6374: a0 = a0 >> 0x20\n  6377: a1 = u64 [s1 + 0xc0]\n  6381: a2 = u64 [s1 + 0xb0]\n  6385: a1 = a1 ^ a2\n  6388: a2 = u64 [s1 + 0xd0]\n  6392: a0 = a0 ^ a2\n  6395: a2 = u64 [s1 + 0xc8]\n  6399: a3 = u64 [s1 + 0xb8]\n  6403: a2 = a2 ^ a3\n  6406: a3 = u64 [s1 + 0xd8]\n  6410: a2 = a2 | a3\n  6413: a1 = a1 | a2\n  6416: a0 = a0 | a1\n  6419: a0 = a0 <u 0x1\n  6422: u64 [s1 + 664] = 0\n  6426: u64 [s1 + 656] = 0\n  6430: u64 [s1 + 648] = 0\n  6434: a1 = s1 + 0x280\n  6438: u64 [s1 + 0x280] = a0\n  6442: a0 = a4\n  6444: u64 [s1 + 0xd8] = a4\n  6448: ra = 116, jump @19\n      : @184 [@dyn 58] (gas: 3)\n  6453: a1 = 0x20\n  6456: a0 = u64 [s1 + 0xd8]\n  6460: ra = 118, jump @25\n      : @185 [@dyn 59] (gas: 5)\n  6465: i32 a1 = a0 + 0\n  6467: a2 = 0x20\n  6470: a0 = 0\n  6472: ecalli 7 // 'seal_return'\n  6474: fallthrough\n      : @186 (gas: 5)\n  6475: a2 = u64 [s1 + 0x60]\n  6478: a0 = a2 | a4\n  6481: a1 = a3 | a5\n  6484: a0 = a0 | a1\n  6487: jump @203 if a0 != 0\n      : @187 (gas: 5)\n  6491: u64 [s1 + 192] = 0\n  6495: u64 [s1 + 184] = 0\n  6499: u64 [s1 + 200] = 0\n  6503: u64 [s1 + 208] = 0\n  6507: jump @205\n      : @188 (gas: 12)\n  6510: u64 [s1 + 0xd8] = t0\n  6514: t0 = u64 [s1 + 0x60]\n  6517: a1 = u64 [s1 + 0x70]\n  6520: a3 = a1 ^ t0\n  6523: t2 = u64 [s1 + 0x50]\n  6526: a3 = a3 | t2\n  6529: a4 = u64 [s1 + 0x58]\n  6532: a1 = u64 [s1 + 0x48]\n  6535: a2 = a4\n  6537: a4 = a4 | a1\n  6540: a3 = a3 | a4\n  6543: jump @195 if a3 == 0\n      : @189 (gas: 21)\n  6547: a4 = u64 [s1 + 0xd8]\n  6551: a3 = a4 <u a5\n  6554: a2 = ra + a3\n  6557: a5 = u64 [s1 + 0x90]\n  6561: a1 = a2 ^ a5\n  6564: a5 = a2 <u a5\n  6567: a5 = a3 if a1 == 0\n  6570: a5 = a5 + t1\n  6573: a3 = a5 <u t1\n  6576: a1 = u64 [s1 + 0x88]\n  6580: a1 = t1 <u a1\n  6583: a0 = a0 + a1\n  6586: a0 = a0 + a3\n  6589: a1 = a4 | a5\n  6592: a0 = a0 | a2\n  6595: a1 = a1 | a0\n  6598: a1 = a1 >> 0x20\n  6601: a0 = a0 | a5\n  6604: a0 = a0 << 0x20\n  6607: a0 = a0 | a1\n  6610: jump @214 if a0 != 0\n      : @190 (gas: 7)\n  6614: a0 = t0 << 0x3b\n  6617: a1 = a0 >> 0x38\n  6620: u64 [s1 + 0xc0] = a1\n  6624: a2 = 0x80 - a1\n  6628: a0 = 0xffffffffffffffff\n  6631: a1 = 0xffffffffffffffff\n  6634: ra = 120, jump @290\n      : @191 [@dyn 60] (gas: 6)\n  6639: u64 [s1 + 0xb0] = a0\n  6643: u64 [s1 + 0xa8] = a1\n  6647: a0 = 0xffffffffffffffff\n  6650: a1 = 0xffffffffffffffff\n  6653: a2 = u64 [s1 + 0xc0]\n  6657: ra = 122, jump @285\n      : @192 [@dyn 61] (gas: 10)\n  6662: u64 [s1 + 0xb8] = a0\n  6666: u64 [s1 + 0xc8] = a1\n  6670: a0 = u64 [s1 + 0xa8]\n  6674: a0 = a0 | a1\n  6677: u64 [s1 + 0xa8] = a0\n  6681: a0 = u64 [s1 + 0xc0]\n  6685: a2 = a0 + 0xffffffffffffff80\n  6688: a0 = 0xffffffffffffffff\n  6691: a1 = 0xffffffffffffffff\n  6694: ra = 124, jump @285\n      : @193 [@dyn 62] (gas: 44)\n  6699: a2 = u64 [s1 + 0xc0]\n  6703: a5 = a2 <u 0x80\n  6707: a3 = u64 [s1 + 0xa8]\n  6711: a1 = a3 if a5 != 0\n  6714: a1 = 0xffffffffffffffff if a2 == 0\n  6717: u64 [s1 + 0xa8] = a1\n  6721: a3 = a2\n  6723: a2 = u64 [s1 + 0xb8]\n  6727: a1 = u64 [s1 + 0xb0]\n  6731: a1 = a1 | a2\n  6734: a1 = a0 if a5 == 0\n  6737: a1 = 0xffffffffffffffff if a3 == 0\n  6740: u64 [s1 + 0xc0] = a1\n  6744: a0 = u64 [s1 + 0xc8]\n  6748: a0 = 0 if a5 == 0\n  6750: u64 [s1 + 0xc8] = a0\n  6754: a2 = 0 if a5 == 0\n  6756: u64 [s1 + 0xb8] = a2\n  6760: a1 = i32 [s1 + 0xd8]\n  6764: a0 = s1 + 0x1000\n  6768: i32 a0 = a0 + 0xfffffffffffff8a0\n  6772: ecalli 1 // 'call_data_load'\n  6774: a4 = s1 + 0x7ff\n  6778: a4 = a4 + 0x59\n  6781: a0 = u64 [a4 + 0x48]\n  6784: a1 = u64 [a4 + 0x50]\n  6787: a2 = u64 [a4 + 0x58]\n  6790: a3 = u64 [a4 + 0x60]\n  6793: a5 = u64 [s1 + 0xc0]\n  6797: a0 = a0 & ~a5\n  6800: a5 = u64 [s1 + 0xa8]\n  6804: a1 = a1 & ~a5\n  6807: a5 = u64 [s1 + 0xb8]\n  6811: a2 = a2 & ~a5\n  6814: a5 = u64 [s1 + 0xc8]\n  6818: a3 = a3 & ~a5\n  6821: u64 [a4 + 0x80] = a3\n  6825: u64 [a4 + 0x78] = a2\n  6828: u64 [a4 + 0x70] = a1\n  6831: u64 [a4 + 0x68] = a0\n  6834: a1 = s1 + 0x7ff\n  6838: a1 = a1 + 0xc1\n  6842: a0 = u64 [s1 + 0xd0]\n  6846: ra = 126, jump @23\n      : @194 [@dyn 63] (gas: 5)\n  6851: t0 = u64 [s1 + 0x60]\n  6854: a2 = u64 [s1 + 0x58]\n  6857: t2 = u64 [s1 + 0x50]\n  6860: a1 = u64 [s1 + 0x48]\n  6863: fallthrough\n      : @195 (gas: 28)\n  6864: a0 = t2 >> 0x3f\n  6867: a1 = a1 << 0x1\n  6870: a0 = a0 | a1\n  6873: a3 = a2\n  6875: a1 = a2 >> 0x3f\n  6878: a2 = t2 << 0x1\n  6881: a1 = a1 | a2\n  6884: a2 = t0 >> 0x3f\n  6887: a3 = a3 << 0x1\n  6890: a2 = a2 | a3\n  6893: a3 = t0 << 0x1\n  6896: a3 = a3 + 0x1\n  6899: a5 = s1 + 0x7ff\n  6903: a5 = a5 + 0x59\n  6906: u64 [a5 + 160] = 0\n  6910: u64 [a5 + 152] = 0\n  6914: u64 [a5 + 144] = 0\n  6918: u64 [a5 + 136] = 0x1\n  6923: u64 [a5 + 0xa8] = a3\n  6927: u64 [a5 + 0xb0] = a2\n  6931: u64 [a5 + 0xb8] = a1\n  6935: u64 [a5 + 0xc0] = a0\n  6939: a0 = s1 + 0x7ff\n  6943: a0 = a0 + 0xe1\n  6947: a1 = s1 + 0x7ff\n  6951: a1 = a1 + 0x101\n  6955: ra = 0x8c\n  6959: jump @23\n      : @196 (gas: 20)\n  6962: a0 = a0 <u a2\n  6965: a1 = u64 [s1 + 0x48]\n  6968: a2 = a1 + a0\n  6971: u64 [s1 + 0x70] = a2\n  6974: a1 = a2 <u a1\n  6977: a1 = a0 if a0 == 0\n  6980: a0 = u64 [s1 + 0x40]\n  6983: a1 = a1 + a0\n  6986: u64 [s1 + 0x68] = a1\n  6989: a0 = a1 <u a0\n  6992: a1 = u64 [s1 + 0x38]\n  6995: a0 = a0 + a1\n  6998: u64 [s1 + 0x60] = a0\n  7001: u64 [s1 + 1624] = 0\n  7005: u64 [s1 + 1616] = 0\n  7009: u64 [s1 + 1608] = 0\n  7013: a1 = s1 + 0x640\n  7017: u64 [s1 + 1600] = 0x1\n  7022: a0 = 0\n  7024: ra = 128, jump @19\n      : @197 [@dyn 64] (gas: 21)\n  7030: a0 = sp + 0xffffffffffffffe0\n  7033: a1 = a0 & 0xffffffffffffffe0\n  7036: sp = a1\n  7038: u64 [s1 + 208] = 0\n  7042: ra = 0\n  7044: t0 = 0\n  7046: u64 [s1 + 216] = 0\n  7050: a3 = u64 [0x20008]\n  7055: a5 = u64 [0x20010]\n  7060: a4 = u64 [0x20018]\n  7065: a0 = u64 [0x20020]\n  7070: a2 = a3\n  7072: u64 [a1 + 0x18] = a3\n  7075: u64 [s1 + 0xb8] = a5\n  7079: u64 [a1 + 0x10] = a5\n  7082: t2 = a4\n  7084: u64 [a1 + 0x8] = a4\n  7087: a3 = a0\n  7089: u64 [a1] = a0\n  7091: u64 [s1 + 0x58] = a1\n  7094: fallthrough\n      : @198 (gas: 21)\n  7095: u64 [s1 + 0xa0] = a3\n  7099: u64 [s1 + 0xa8] = t2\n  7103: u64 [s1 + 0xb0] = a2\n  7107: a0 = u64 [s1 + 0x80]\n  7111: a2 = u64 [s1 + 0xd0]\n  7115: a0 = a2 <u a0\n  7118: a2 = u64 [s1 + 0x90]\n  7122: a3 = ra ^ a2\n  7125: a2 = ra <u a2\n  7128: a2 = a0 if a3 == 0\n  7131: a0 = u64 [s1 + 0x88]\n  7135: t1 = t0 <u a0\n  7138: a3 = u64 [s1 + 0x98]\n  7142: a5 = u64 [s1 + 0xd8]\n  7146: a4 = a5 ^ a3\n  7149: a3 = a5 <u a3\n  7152: a3 = t1 if a4 == 0\n  7155: a0 = t0 ^ a0\n  7158: a0 = a0 | a4\n  7161: a3 = a2 if a0 == 0\n  7164: jump @129 if a3 == 0\n      : @199 (gas: 4)\n  7168: a0 = s1 + 0x620\n  7172: u64 [s1 + 0xc8] = t0\n  7176: u64 [s1 + 0xc0] = ra\n  7180: ra = 130, jump @21\n      : @200 [@dyn 65] (gas: 30)\n  7186: t2 = u64 [s1 + 0xc0]\n  7190: t1 = u64 [s1 + 0xc8]\n  7194: a1 = u64 [s1 + 0x78]\n  7197: a0 = u64 [s1 + 0xd0]\n  7201: a0 = a0 + a1\n  7204: a1 = a0 <u a1\n  7207: a4 = u64 [s1 + 0x70]\n  7210: a2 = a4 + t2\n  7213: a2 = a2 + a1\n  7216: a3 = a2 ^ a4\n  7219: a4 = a2 <u a4\n  7222: a4 = a1 if a3 == 0\n  7225: a3 = u64 [s1 + 0x68]\n  7228: a1 = a3 + t1\n  7231: t0 = a1 <u a3\n  7234: a5 = u64 [s1 + 0xd8]\n  7238: a3 = u64 [s1 + 0x60]\n  7241: a5 = a5 + a3\n  7244: a3 = a5 + t0\n  7247: a4 = a4 + a1\n  7250: a1 = a4 <u a1\n  7253: a1 = a1 + a3\n  7256: a1 = a1 | a2\n  7259: a2 = a0 | a4\n  7262: a2 = a2 | a1\n  7265: a1 = a1 | a4\n  7268: a2 = a2 >> 0x20\n  7271: a1 = a1 << 0x20\n  7274: a1 = a1 | a2\n  7277: jump @214 if a1 != 0\n      : @201 (gas: 11)\n  7281: a5 = s1 + 0x600\n  7285: a2 = u64 [a5 + 0x38]\n  7288: a1 = u64 [a5 + 0x30]\n  7291: a3 = u64 [a5 + 0x28]\n  7294: a4 = u64 [a5 + 0x20]\n  7297: u64 [a5] = a4\n  7299: u64 [a5 + 0x8] = a3\n  7302: u64 [a5 + 0x10] = a1\n  7305: a1 = s1 + 0x600\n  7309: u64 [a5 + 0x18] = a2\n  7312: ra = 132, jump @19\n      : @202 [@dyn 66] (gas: 39)\n  7318: a5 = u64 [s1 + 0xa0]\n  7322: a5 = a5 + 0x1\n  7325: a0 = a5 <u 0x1\n  7328: a3 = u64 [s1 + 0xa8]\n  7332: a3 = a3 + a0\n  7335: a0 = a5 | a3\n  7338: a0 = a0 <u 0x1\n  7341: a1 = u64 [s1 + 0xb8]\n  7345: ra = a1 + a0\n  7348: a1 = ra <u a1\n  7351: a0 = u64 [s1 + 0xb0]\n  7355: a0 = a0 + a1\n  7358: a1 = u64 [s1 + 0xd0]\n  7362: t0 = a1 + 0x20\n  7365: a2 = t0 <u a1\n  7368: a1 = u64 [s1 + 0xc0]\n  7372: t1 = a1 + a2\n  7375: a4 = t1 <u a1\n  7378: a4 = a2 if a2 == 0\n  7381: a1 = u64 [s1 + 0xc8]\n  7385: a4 = a4 + a1\n  7388: a2 = a4 <u a1\n  7391: a1 = u64 [s1 + 0xd8]\n  7395: a1 = a1 + a2\n  7398: u64 [s1 + 0xd8] = a1\n  7402: t2 = a3\n  7404: a1 = u64 [s1 + 0x58]\n  7407: u64 [a1 + 0x8] = a3\n  7410: a3 = a5\n  7412: u64 [a1] = a5\n  7414: a5 = ra\n  7416: u64 [a1 + 0x10] = a5\n  7419: a2 = a0\n  7421: u64 [a1 + 0x18] = a0\n  7424: u64 [s1 + 0xb8] = a5\n  7428: u64 [s1 + 0xd0] = t0\n  7432: ra = t1\n  7434: t0 = a4\n  7436: jump @198\n      : @203 (gas: 8)\n  7439: a0 = 0xffffffdc\n  7449: a2 = u64 [s1 + 0x38]\n  7452: a0 = a2 <u a0\n  7455: a1 = u64 [s1 + 0x40]\n  7458: a0 = 0 if a1 != 0\n  7460: a1 = u64 [s1 + 0x30]\n  7463: a0 = 0 if a1 != 0\n  7465: jump @214 if a0 == 0\n      : @204 (gas: 19)\n  7469: i32 a1 = a2 + 0x24\n  7472: a0 = s1 + 0x1000\n  7476: i32 a0 = a0 + 0xfffffffffffff920\n  7480: ecalli 1 // 'call_data_load'\n  7482: a2 = u64 [s1 + 0x60]\n  7485: a5 = u64 [s1 + 0x48]\n  7488: a4 = u64 [s1 + 0x50]\n  7491: a3 = u64 [s1 + 0x58]\n  7494: a0 = s1 + 0x7ff\n  7498: a0 = a0 + 0x59\n  7501: a1 = u64 [a0 + 0xe0]\n  7505: u64 [s1 + 0xd0] = a1\n  7509: a1 = u64 [a0 + 0xd8]\n  7513: u64 [s1 + 0xc8] = a1\n  7517: a1 = u64 [a0 + 0xd0]\n  7521: u64 [s1 + 0xb8] = a1\n  7525: a0 = u64 [a0 + 0xc8]\n  7529: u64 [s1 + 0xc0] = a0\n  7533: fallthrough\n      : @205 (gas: 20)\n  7534: a0 = a3 >> 0x3f\n  7537: a1 = a4 << 0x1\n  7540: a0 = a0 | a1\n  7543: u64 [s1 + 0xb0] = a0\n  7547: a0 = a4 >> 0x3f\n  7550: a1 = a5 << 0x1\n  7553: a0 = a0 | a1\n  7556: u64 [s1 + 0xa8] = a0\n  7560: a0 = a2 >> 0x3f\n  7563: a1 = a3 << 0x1\n  7566: a0 = a0 | a1\n  7569: u64 [s1 + 0xa0] = a0\n  7573: a0 = a2 << 0x1\n  7576: u64 [s1 + 0x98] = a0\n  7580: a1 = a2 << 0x3\n  7583: u64 [s1 + 0xd8] = a1\n  7587: i32 a2 = 0x80 - a1\n  7591: a0 = 0xffffffffffffffff\n  7594: a1 = 0xffffffffffffffff\n  7597: ra = 134, jump @290\n      : @206 [@dyn 67] (gas: 7)\n  7603: u64 [s1 + 0x38] = a0\n  7606: u64 [s1 + 0x70] = a1\n  7609: a0 = u64 [s1 + 0x60]\n  7612: i32 a2 = a0 << 0x3\n  7615: a0 = 0xffffffffffffffff\n  7618: a1 = 0xffffffffffffffff\n  7621: ra = 136, jump @285\n      : @207 [@dyn 68] (gas: 10)\n  7627: u64 [s1 + 0x68] = a0\n  7630: u64 [s1 + 0x40] = a1\n  7633: a1 = u64 [s1 + 0x38]\n  7636: a0 = a0 | a1\n  7639: u64 [s1 + 0x38] = a0\n  7642: a0 = u64 [s1 + 0xd8]\n  7646: i32 a2 = a0 + 0xffffffffffffff80\n  7649: a0 = 0xffffffffffffffff\n  7652: a1 = 0xffffffffffffffff\n  7655: ra = 138, jump @285\n      : @208 [@dyn 69] (gas: 45)\n  7661: a4 = u64 [s1 + 0xd8]\n  7665: a2 = a4 <u 0x80\n  7669: a3 = u64 [s1 + 0x38]\n  7672: a0 = a3 if a2 != 0\n  7675: a5 = u64 [s1 + 0x40]\n  7678: a3 = u64 [s1 + 0x70]\n  7681: a3 = a3 | a5\n  7684: a3 = a1 if a2 == 0\n  7687: a0 = 0xffffffffffffffff if a4 == 0\n  7690: a3 = 0xffffffffffffffff if a4 == 0\n  7693: a5 = 0 if a2 == 0\n  7695: a4 = u64 [s1 + 0x68]\n  7698: a4 = 0 if a2 == 0\n  7700: a1 = u64 [s1 + 0xb8]\n  7704: a1 = a1 & ~a3\n  7707: a2 = u64 [s1 + 0xc0]\n  7711: a0 = a2 & ~a0\n  7714: a2 = u64 [s1 + 0xc8]\n  7718: a2 = a2 & ~a4\n  7721: a3 = u64 [s1 + 0xd0]\n  7725: a3 = a3 & ~a5\n  7728: a4 = u64 [s1 + 0x98]\n  7732: a0 = a0 | a4\n  7735: a4 = u64 [s1 + 0xa0]\n  7739: a1 = a1 | a4\n  7742: a4 = u64 [s1 + 0xa8]\n  7746: a3 = a3 | a4\n  7749: a4 = u64 [s1 + 0xb0]\n  7753: a2 = a2 | a4\n  7756: a5 = s1 + 0x7ff\n  7760: a5 = a5 + 0x59\n  7763: u64 [a5 + 232] = 0x1\n  7768: a4 = a5 + 0x100\n  7772: u64 [a4 + 0x18] = a2\n  7775: u64 [a4 + 0x20] = a3\n  7778: u64 [a4 + 0x10] = a1\n  7781: u64 [a4 + 0x8] = a0\n  7784: u64 [a5 + 256] = 0\n  7788: u64 [a5 + 248] = 0\n  7792: u64 [a5 + 240] = 0\n  7796: a0 = s1 + 0x7ff\n  7800: a0 = a0 + 0x141\n  7804: a1 = s1 + 0x7ff\n  7808: a1 = a1 + 0x161\n  7812: ra = 140, jump @23\n      : @209 [@dyn 70] (gas: 3)\n  7818: a0 = s1 + 0x3c0\n  7822: a1 = 0x40\n  7825: ra = 142, jump @17\n      : @210 [@dyn 71] (gas: 13)\n  7831: a1 = s1 + 0x300\n  7835: a4 = u64 [a1 + 0xd8]\n  7839: a5 = u64 [a1 + 0xd0]\n  7843: a3 = u64 [a1 + 0xc8]\n  7847: a0 = u64 [a1 + 0xc0]\n  7851: a2 = a3 | a4\n  7854: a1 = a0 | a5\n  7857: a1 = a1 | a2\n  7860: a1 = a1 >> 0x20\n  7863: a2 = a2 | a5\n  7866: a2 = a2 << 0x20\n  7869: a1 = a1 | a2\n  7872: jump @214 if a1 != 0\n      : @211 (gas: 10)\n  7876: u64 [s1 + 952] = 0\n  7880: u64 [s1 + 944] = 0\n  7884: u64 [s1 + 936] = 0\n  7888: a1 = s1 + 0x3a0\n  7892: u64 [s1 + 928] = 0x20\n  7897: u64 [s1 + 0xd8] = a0\n  7901: u64 [s1 + 0xc0] = a3\n  7905: u64 [s1 + 0xd0] = a4\n  7909: u64 [s1 + 0xc8] = a5\n  7913: ra = 144, jump @19\n      : @212 [@dyn 72] (gas: 38)\n  7919: a0 = u64 [s1 + 0xd8]\n  7923: a0 = a0 + 0x20\n  7926: a1 = u64 [s1 + 0xd8]\n  7930: a1 = a0 <u a1\n  7933: a3 = u64 [s1 + 0xc0]\n  7937: a2 = a3 + a1\n  7940: a3 = a2 <u a3\n  7943: a3 = a1 if a1 == 0\n  7946: a1 = u64 [s1 + 0xc8]\n  7950: a3 = a3 + a1\n  7953: a4 = a3 <u a1\n  7956: a1 = u64 [s1 + 0xd0]\n  7960: a4 = a4 + a1\n  7963: u64 [s1 + 0x328] = a2\n  7967: u64 [s1 + 0x320] = a0\n  7971: a0 = u64 [s1 + 0x48]\n  7974: u64 [s1 + 0x358] = a0\n  7978: a0 = u64 [s1 + 0x50]\n  7981: u64 [s1 + 0x350] = a0\n  7985: a0 = u64 [s1 + 0x58]\n  7988: u64 [s1 + 0x348] = a0\n  7992: a0 = u64 [s1 + 0x60]\n  7995: u64 [s1 + 0x340] = a0\n  7999: a0 = u64 [s1 + 0x78]\n  8002: u64 [s1 + 0x378] = a0\n  8006: a0 = u64 [s1 + 0x88]\n  8010: u64 [s1 + 0x370] = a0\n  8014: a0 = u64 [s1 + 0x90]\n  8018: u64 [s1 + 0x368] = a0\n  8022: a0 = u64 [s1 + 0x80]\n  8026: u64 [s1 + 0x360] = a0\n  8030: u64 [s1 + 0x330] = a3\n  8034: a0 = s1 + 0x380\n  8038: a1 = s1 + 0x360\n  8042: a2 = s1 + 0x340\n  8046: a3 = s1 + 0x320\n  8050: u64 [s1 + 0x338] = a4\n  8054: ra = 146, jump @240\n      : @213 [@dyn 73] (gas: 32)\n  8060: a0 = u64 [s1 + 0x388]\n  8064: t0 = u64 [s1 + 0x398]\n  8068: t1 = u64 [s1 + 0x380]\n  8072: a3 = u64 [s1 + 0x390]\n  8076: a1 = u64 [s1 + 0xc0]\n  8080: a4 = a0 ^ a1\n  8083: a5 = a0 <u a1\n  8086: t2 = a1\n  8088: a1 = u64 [s1 + 0xd8]\n  8092: a1 = t1 <u a1\n  8095: a5 = a1 if a4 == 0\n  8098: a2 = u64 [s1 + 0xc8]\n  8102: a4 = a3 - a2\n  8105: a3 = a3 <u a2\n  8108: a2 = u64 [s1 + 0xd0]\n  8112: a2 = t0 - a2\n  8115: a2 = a2 - a3\n  8118: a3 = a4 <u a5\n  8121: a2 = a2 - a3\n  8124: a4 = a4 - a5\n  8127: a5 = u64 [s1 + 0xd8]\n  8131: a0 = a0 - t2\n  8134: a0 = a0 - a1\n  8137: a1 = t1 - a5\n  8140: a0 = a0 | a2\n  8143: a2 = a1 | a4\n  8146: a2 = a2 | a0\n  8149: a0 = a0 | a4\n  8152: a2 = a2 >> 0x20\n  8155: a0 = a0 << 0x20\n  8158: a0 = a0 | a2\n  8161: jump @238 if a0 == 0\n      : @214 (gas: 1)\n  8165: trap\n      : @215 (gas: 4)\n  8166: a1 = 0x20060\n  8171: i32 a1 = a1 + 0\n  8173: a0 = 0x1\n  8176: jump @217\n      : @216 (gas: 6)\n  8178: i32 a1 = a1 + 0\n  8180: a0 = 0x1\n  8183: a2 = 0\n  8185: ecalli 7 // 'seal_return'\n  8187: a1 = 0x20060\n  8192: jump @216\n      : @217 (gas: 4)\n  8194: a2 = 0\n  8196: ecalli 7 // 'seal_return'\n  8198: a1 = 0x20060\n  8203: jump @216\n      : @218 (gas: 2)\n  8205: a1 = 0x20060\n  8210: jump @216\n      : @219 (gas: 2)\n  8212: a1 = 0x20060\n  8217: jump @216\n      : @220 (gas: 2)\n  8219: a1 = 0x20060\n  8224: jump @216\n      : @221 (gas: 2)\n  8226: a1 = 0x20060\n  8231: jump @216\n      : @222 (gas: 2)\n  8233: a1 = 0x20060\n  8238: jump @216\n      : @223 (gas: 2)\n  8240: a1 = 0x20060\n  8245: jump @216\n      : @224 (gas: 2)\n  8247: a1 = 0x20060\n  8252: jump @216\n      : @225 (gas: 2)\n  8254: a1 = 0x20060\n  8259: jump @216\n      : @226 (gas: 2)\n  8261: a1 = 0x20060\n  8266: jump @216\n      : @227 (gas: 2)\n  8268: a1 = 0x20060\n  8273: jump @216\n      : @228 (gas: 2)\n  8275: a1 = 0x20060\n  8280: jump @216\n      : @229 (gas: 2)\n  8282: a1 = 0x20060\n  8287: jump @216\n      : @230 (gas: 2)\n  8289: a1 = 0x20060\n  8294: jump @216\n      : @231 (gas: 2)\n  8296: a1 = 0x20060\n  8301: jump @216\n      : @232 (gas: 2)\n  8303: a1 = 0x20060\n  8308: jump @216\n      : @233 (gas: 8)\n  8311: u64 [s1 + 1328] = 0\n  8315: u64 [s1 + 1320] = 0\n  8319: u64 [s1 + 1312] = 0\n  8323: a0 = 0x4e487b7100000000\n  8333: a1 = s1 + 0x520\n  8337: u64 [s1 + 0x538] = a0\n  8341: a0 = 0\n  8343: ra = 148, jump @19\n      : @234 [@dyn 74] (gas: 7)\n  8349: u64 [s1 + 1304] = 0\n  8353: u64 [s1 + 1296] = 0\n  8357: u64 [s1 + 1280] = 0x41\n  8362: a0 = 0x4\n  8365: a1 = s1 + 0x500\n  8369: u64 [s1 + 1288] = 0\n  8373: ra = 150, jump @19\n      : @235 [@dyn 75] (gas: 2)\n  8379: a1 = i32 [0x2004c]\n  8384: jump @237 if a1 >u 63\n      : @236 (gas: 2)\n  8388: u32 [0x2004c] = 0x40\n  8394: fallthrough\n      : @237 (gas: 6)\n  8395: a1 = 0x20060\n  8400: i32 a1 = a1 + 0\n  8402: a0 = 0x1\n  8405: a2 = 0x24\n  8408: ecalli 7 // 'seal_return'\n  8410: fallthrough\n      : @238 (gas: 46)\n  8411: a0 = u64 [s1 + 0x10]\n  8414: u64 [s1 + 0x2e0] = a0\n  8418: a0 = u64 [s1 + 0x18]\n  8421: u64 [s1 + 0x2e8] = a0\n  8425: a0 = u64 [0x20028]\n  8430: a2 = u64 [0x20030]\n  8435: a3 = u64 [0x20038]\n  8440: a4 = u64 [0x20040]\n  8445: u64 [s1 + 0x318] = a0\n  8449: a0 = s1 + 0x300\n  8453: u64 [a0 + 0x10] = a2\n  8456: u64 [a0 + 0x8] = a3\n  8459: u64 [a0] = a4\n  8461: a0 = u64 [s1 + 0x20]\n  8464: u64 [s1 + 0x2f0] = a0\n  8468: a2 = s1 + 0x300\n  8472: a3 = s1 + 0x2e0\n  8476: a0 = u64 [s1 + 0x28]\n  8479: u64 [s1 + 0x2f8] = a0\n  8483: a0 = a5\n  8485: ra = 0x98\n  8489: sp = sp + 0xffffffffffffff60\n  8493: u64 [sp + 0x98] = ra\n  8497: u64 [sp + 0x90] = s0\n  8501: u64 [sp + 0x88] = s1\n  8505: s0 = sp + 0xa0\n  8509: sp = sp & 0xffffffffffffffe0\n  8512: a4 = u64 [a3]\n  8514: u64 [sp + 0x38] = a4\n  8517: a4 = u64 [a3 + 0x8]\n  8520: u64 [sp + 0x30] = a4\n  8523: a4 = u64 [a3 + 0x10]\n  8526: u64 [sp + 0x28] = a4\n  8529: a3 = u64 [a3 + 0x18]\n  8532: u64 [sp + 0x20] = a3\n  8535: a3 = u64 [a2]\n  8537: u64 [sp + 0x18] = a3\n  8540: a3 = u64 [a2 + 0x8]\n  8543: u64 [sp + 0x10] = a3\n  8546: a3 = u64 [a2 + 0x10]\n  8549: u64 [sp + 0x8] = a3\n  8552: a2 = u64 [a2 + 0x18]\n  8555: u64 [sp] = a2\n  8557: s1 = a1\n  8559: ra = 0x8\n  8562: jump @25\n      : @239 [@dyn 76] (gas: 4)\n  8565: a1 = 0x20060\n  8570: i32 a1 = a1 + 0\n  8572: a0 = 0\n  8574: jump @217\n      : @240 (gas: 22)\n  8577: sp = sp + 0xffffffffffffff40\n  8581: u64 [sp + 0xb8] = ra\n  8585: u64 [sp + 0xb0] = s0\n  8589: u64 [sp + 0xa8] = s1\n  8593: s0 = sp + 0xc0\n  8597: sp = sp & 0xfffffffffffffff0\n  8600: a5 = u64 [a3 + 0x10]\n  8603: a4 = u64 [a3 + 0x18]\n  8606: s1 = u64 [a3 + 0x8]\n  8609: t0 = u64 [a3]\n  8611: u64 [sp + 0x50] = a4\n  8614: u64 [sp + 0x40] = s1\n  8617: a3 = s1 | a4\n  8620: a4 = t0 | a5\n  8623: a4 = a4 | a3\n  8626: a4 = a4 >> 0x20\n  8629: u64 [sp + 0x58] = a5\n  8632: a3 = a3 | a5\n  8635: a3 = a3 << 0x20\n  8638: a3 = a3 | a4\n  8641: u64 [sp] = a0\n  8643: jump @250 if a3 != 0\n      : @241 (gas: 23)\n  8647: a0 = u64 [a2 + 0x18]\n  8650: a3 = u64 [a2 + 0x10]\n  8653: a4 = u64 [a2 + 0x8]\n  8656: a2 = u64 [a2]\n  8658: a5 = u64 [a1 + 0x18]\n  8661: u64 [sp + 0x18] = a5\n  8664: s1 = u64 [a1 + 0x10]\n  8667: a5 = u64 [a1 + 0x8]\n  8670: u64 [sp + 0x10] = a5\n  8673: a1 = u64 [a1]\n  8675: u64 [sp + 0x8] = a1\n  8678: u64 [sp + 0x20] = a2\n  8681: u64 [sp + 0x80] = a2\n  8685: u64 [sp + 0x28] = a4\n  8688: u64 [sp + 0x88] = a4\n  8692: u64 [sp + 0x30] = a3\n  8695: u64 [sp + 0x90] = a3\n  8699: a1 = sp + 0x80\n  8703: u64 [sp + 0x38] = a0\n  8706: u64 [sp + 0x98] = a0\n  8710: u64 [sp + 0x48] = t0\n  8713: a0 = t0\n  8715: ra = 154, jump @19\n      : @242 [@dyn 77] (gas: 11)\n  8721: t1 = u64 [sp + 0x8]\n  8724: a0 = t1 | s1\n  8727: a1 = u64 [sp + 0x18]\n  8730: a2 = u64 [sp + 0x10]\n  8733: a1 = a1 | a2\n  8736: a0 = a0 | a1\n  8739: a0 = a0 >> 0x20\n  8742: a1 = a1 | s1\n  8745: a1 = a1 << 0x20\n  8748: a0 = a0 | a1\n  8751: jump @250 if a0 != 0\n      : @243 (gas: 15)\n  8755: a2 = u64 [sp + 0x30]\n  8758: a4 = u64 [sp + 0x20]\n  8761: a0 = a4 | a2\n  8764: a1 = u64 [sp + 0x38]\n  8767: a3 = u64 [sp + 0x28]\n  8770: a1 = a1 | a3\n  8773: a0 = a0 | a1\n  8776: a0 = a0 >> 0x20\n  8779: a1 = a1 | a2\n  8782: a1 = a1 << 0x20\n  8785: a0 = a0 | a1\n  8788: a3 = u64 [sp + 0x58]\n  8791: a2 = u64 [sp + 0x50]\n  8794: s1 = u64 [sp + 0x40]\n  8797: jump @250 if a0 != 0\n      : @244 (gas: 9)\n  8801: a1 = a4\n  8803: a0 = a3 | a2\n  8806: a4 = 0xffffffe0\n  8816: a3 = u64 [sp + 0x48]\n  8819: u64 [sp + 0x18] = a4\n  8822: a4 = a3 <u a4\n  8825: a4 = 0 if s1 != 0\n  8827: a4 = 0 if a0 != 0\n  8829: jump @250 if a4 == 0\n      : @245 (gas: 5)\n  8833: i32 t1 = t1 + 0\n  8835: u64 [sp + 0x10] = t1\n  8838: i32 a0 = a3 + 0x20\n  8841: s1 = a1\n  8843: ra = 156, jump @25\n      : @246 [@dyn 78] (gas: 5)\n  8849: i32 a0 = a0 + 0\n  8851: i32 a1 = s1 + 0\n  8853: a2 = u64 [sp + 0x10]\n  8856: ecalli 0 // 'call_data_copy'\n  8857: fallthrough\n      : @247 (gas: 27)\n  8858: a1 = u64 [sp + 0x48]\n  8861: a0 = a1 + s1\n  8864: a1 = a0 <u a1\n  8867: a2 = u64 [sp + 0x28]\n  8870: s1 = u64 [sp + 0x40]\n  8873: a2 = a2 + s1\n  8876: a2 = a2 + a1\n  8879: a3 = a2 ^ s1\n  8882: a4 = a2 <u s1\n  8885: a4 = a1 if a3 == 0\n  8888: a3 = u64 [sp + 0x58]\n  8891: a1 = u64 [sp + 0x30]\n  8894: a1 = a1 + a3\n  8897: t0 = a1 <u a3\n  8900: a5 = u64 [sp + 0x38]\n  8903: a3 = u64 [sp + 0x50]\n  8906: a5 = a5 + a3\n  8909: a3 = a5 + t0\n  8912: a4 = a4 + a1\n  8915: a1 = a4 <u a1\n  8918: a1 = a1 + a3\n  8921: a1 = a1 | a4\n  8924: a3 = u64 [sp + 0x18]\n  8927: a3 = a0 <u a3\n  8930: a3 = 0 if a2 != 0\n  8932: a3 = 0 if a1 != 0\n  8934: jump @250 if a3 == 0\n      : @248 (gas: 7)\n  8938: i32 a0 = a0 + 0x20\n  8941: u64 [sp + 120] = 0\n  8944: u64 [sp + 112] = 0\n  8947: u64 [sp + 104] = 0\n  8950: a1 = sp + 0x60\n  8953: u64 [sp + 96] = 0\n  8956: ra = 158, jump @19\n      : @249 [@dyn 79] (gas: 34)\n  8962: a0 = u64 [sp + 0x20]\n  8965: a0 = a0 + 0x1f\n  8968: a1 = 0x1ffffffe0\n  8978: a0 = a0 & a1\n  8981: a1 = u64 [sp + 0x48]\n  8984: a0 = a0 + a1\n  8987: a1 = a0 <u a1\n  8990: a2 = s1 + a1\n  8993: a3 = a2 <u s1\n  8996: a3 = a1 if a1 == 0\n  8999: a1 = u64 [sp + 0x58]\n  9002: a3 = a3 + a1\n  9005: a1 = a3 <u a1\n  9008: a4 = u64 [sp + 0x50]\n  9011: a1 = a1 + a4\n  9014: a4 = a0 + 0x20\n  9017: a0 = a4 <u a0\n  9020: a5 = a2 + a0\n  9023: a2 = a5 <u a2\n  9026: a2 = a0 if a0 == 0\n  9029: a2 = a2 + a3\n  9032: a0 = a2 <u a3\n  9035: a0 = a0 + a1\n  9038: a1 = u64 [sp]\n  9040: u64 [a1] = a4\n  9042: u64 [a1 + 0x8] = a5\n  9045: u64 [a1 + 0x10] = a2\n  9048: u64 [a1 + 0x18] = a0\n  9051: sp = s0 + 0xffffffffffffff40\n  9055: ra = u64 [sp + 0xb8]\n  9059: s0 = u64 [sp + 0xb0]\n  9063: s1 = u64 [sp + 0xa8]\n  9067: sp = sp + 0xc0\n  9071: ret\n      : @250 (gas: 1)\n  9073: trap\n      : @251 (gas: 33)\n  9074: sp = sp + 0xffffffffffffffa0\n  9077: u64 [sp + 0x58] = ra\n  9080: u64 [sp + 0x50] = s0\n  9083: u64 [sp + 0x48] = s1\n  9086: s0 = sp + 0x60\n  9089: sp = sp & 0xfffffffffffffff0\n  9092: a2 = u64 [a1 + 0x10]\n  9095: a5 = u64 [a1 + 0x8]\n  9098: a4 = u64 [a1]\n  9100: a1 = u64 [a1 + 0x18]\n  9103: t0 = a2 << 0x3f\n  9106: a3 = a5 >> 0x1\n  9109: t0 = a3 | t0\n  9112: a3 = a1 << 0x3f\n  9115: a2 = a2 >> 0x1\n  9118: a3 = a3 | a2\n  9121: a5 = a5 << 0x3f\n  9124: a2 = a4 >> 0x1\n  9127: a5 = a5 | a2\n  9130: t1 = a1 >> 0x1\n  9133: a4 = a4 & 0x1\n  9136: a1 = -a4\n  9138: s1 = a4 <u 0x1\n  9141: a2 = a5 & 0x7f\n  9144: t2 = a1 & a3\n  9147: a3 = a1 & t0\n  9150: a2 = a5 if a4 != 0\n  9153: a4 = a1 & t1\n  9156: a1 = a2 <u 0x20\n  9159: a1 = 0 if a3 != 0\n  9161: a5 = t2 | a4\n  9164: a1 = 0 if a5 != 0\n  9166: jump @254 if s1 != a1\n      : @252 (gas: 5)\n  9169: u64 [a0] = a2\n  9171: u64 [a0 + 0x8] = a3\n  9174: u64 [a0 + 0x10] = t2\n  9177: u64 [a0 + 0x18] = a4\n  9180: t0 = 160, jump @284\n      : @253 [@dyn 80] (gas: 1)\n  9186: ret\n      : @254 (gas: 8)\n  9188: u64 [sp + 48] = 0\n  9191: u64 [sp + 40] = 0\n  9194: u64 [sp + 32] = 0\n  9197: a0 = 0x4e487b7100000000\n  9207: a1 = sp + 0x20\n  9210: u64 [sp + 0x38] = a0\n  9213: a0 = 0\n  9215: ra = 162, jump @19\n      : @255 [@dyn 81] (gas: 7)\n  9221: u64 [sp + 24] = 0\n  9224: u64 [sp + 16] = 0\n  9227: u64 [sp + 0] = 0x22\n  9230: a0 = 0x4\n  9233: a1 = sp\n  9235: u64 [sp + 8] = 0\n  9238: ra = 164, jump @19\n      : @256 [@dyn 82] (gas: 2)\n  9244: a1 = i32 [0x2004c]\n  9249: jump @258 if a1 >u 63\n      : @257 (gas: 2)\n  9253: u32 [0x2004c] = 0x40\n  9259: fallthrough\n      : @258 (gas: 7)\n  9260: a1 = 0x20060\n  9265: i32 a1 = a1 + 0\n  9267: a0 = 0x1\n  9270: a2 = 0x24\n  9273: ra = 0xa6\n  9277: ecalli 7 // 'seal_return'\n  9279: fallthrough\n      : @259 [@dyn 83] (gas: 14)\n  9280: sp = sp + 0xffffffffffffff40\n  9284: u64 [sp + 0xb8] = ra\n  9288: u64 [sp + 0xb0] = s0\n  9292: u64 [sp + 0xa8] = s1\n  9296: s0 = sp + 0xc0\n  9300: sp = sp & 0xffffffffffffffe0\n  9303: u64 [sp + 0x20] = a0\n  9306: u64 [sp + 120] = 0\n  9309: u64 [sp + 112] = 0\n  9312: u64 [sp + 104] = 0\n  9315: u64 [sp + 96] = 0\n  9318: a0 = sp + 0x40\n  9321: a1 = sp + 0x60\n  9324: ra = 168, jump @21\n      : @260 [@dyn 84] (gas: 13)\n  9330: a0 = u64 [sp + 0x48]\n  9333: u64 [sp + 0x38] = a0\n  9336: a0 = u64 [sp + 0x40]\n  9339: u64 [sp + 0x30] = a0\n  9342: a0 = u32 [sp + 0x50]\n  9345: u64 [sp + 0x28] = a0\n  9348: s1 = 0x30060\n  9353: i32 a0 = s1 + 0\n  9355: u64 [sp + 0x18] = a0\n  9358: ra = 0xaa\n  9362: ecalli 3 // 'caller'\n  9364: t0 = 0xac\n  9368: jump @283\n      : @261 [@dyn 85] (gas: 1)\n  9371: t0 = 172, jump @283\n      : @262 [@dyn 86] (gas: 9)\n  9377: a2 = u64 [sp + 0x28]\n  9380: a1 = a1 ^ a2\n  9383: a2 = u64 [sp + 0x30]\n  9386: a0 = a0 ^ a2\n  9389: a0 = a0 | a1\n  9392: a1 = u64 [sp + 0x38]\n  9395: a1 = a1 ^ a3\n  9398: a0 = a0 | a1\n  9401: jump @265 if a0 != 0\n      : @263 (gas: 21)\n  9404: a0 = u32 [0x20048]\n  9409: s1 = a0 + 0xffffffffffffffec\n  9412: a0 = s1 <u a0\n  9415: a2 = a0 + 0xffffffffffffffff\n  9418: a0 = 0 if a2 != 0\n  9420: a3 = a0 <u 0x1\n  9423: a4 = -a3\n  9425: a0 = a0 + 0xffffffffffffffff\n  9428: a3 = a3 << 0x20\n  9431: a5 = a0 >> 0x20\n  9434: a5 = a5 - a3\n  9437: a3 = a2 << 0x20\n  9440: a1 = s1 >> 0x20\n  9443: a1 = a1 | a3\n  9446: a1 = a1 | a5\n  9449: a0 = a0 << 0x20\n  9452: a2 = a2 | a4\n  9455: a2 = a2 >> 0x20\n  9458: a0 = a0 | a2\n  9461: a0 = a0 | a1\n  9464: jump @267 if a0 != 0\n      : @264 (gas: 14)\n  9467: i32 a1 = s1 + 0\n  9469: i32 a0 = sp + 0x80\n  9473: ecalli 1 // 'call_data_load'\n  9475: a2 = u64 [sp + 0x90]\n  9479: a3 = u64 [sp + 0x98]\n  9483: a0 = 0\n  9485: a4 = u32 [sp + 0x8c]\n  9489: a1 = a2 >> 0x20\n  9492: a5 = a3 << 0x20\n  9495: a1 = a1 | a5\n  9498: a2 = a2 << 0x20\n  9501: a2 = a2 | a4\n  9504: a3 = a3 >> 0x20\n  9507: jump @266\n      : @265 (gas: 17)\n  9509: a0 = u64 [sp + 0x18]\n  9512: ecalli 3 // 'caller'\n  9514: a1 = u64 [s1 + 0x8]\n  9517: a0 = 0\n  9519: a2 = u64 [s1]\n  9521: a3 = i32 [s1 + 0x10]\n  9524: a4 = reverse a1\n  9526: a1 = a4 >> 0x20\n  9529: a5 = reverse a2\n  9531: a2 = a5 << 0x20\n  9534: a1 = a1 | a2\n  9537: a4 = a4 << 0x20\n  9540: a2 = reverse a3\n  9542: a2 = a2 >> 0x20\n  9545: a2 = a2 | a4\n  9548: a3 = a5 >> 0x20\n  9551: fallthrough\n      : @266 (gas: 11)\n  9552: a4 = u64 [sp + 0x20]\n  9555: u64 [a4] = a2\n  9557: u64 [a4 + 0x8] = a1\n  9560: u64 [a4 + 0x10] = a3\n  9563: u64 [a4 + 24] = 0\n  9566: sp = s0 + 0xffffffffffffff40\n  9570: ra = u64 [sp + 0xb8]\n  9574: s0 = u64 [sp + 0xb0]\n  9578: s1 = u64 [sp + 0xa8]\n  9582: sp = sp + 0xc0\n  9586: ret\n      : @267 (gas: 1)\n  9588: trap\n      : @268 (gas: 14)\n  9589: sp = sp + 0xffffffffffffff40\n  9593: u64 [sp + 0xb8] = ra\n  9597: u64 [sp + 0xb0] = s0\n  9601: u64 [sp + 0xa8] = s1\n  9605: s0 = sp + 0xc0\n  9609: sp = sp & 0xffffffffffffffe0\n  9612: u64 [sp + 0x18] = a0\n  9615: u64 [sp + 152] = 0\n  9619: u64 [sp + 144] = 0\n  9623: u64 [sp + 136] = 0\n  9627: u64 [sp + 128] = 0\n  9631: a0 = sp + 0x60\n  9634: a1 = sp + 0x80\n  9638: ra = 174, jump @21\n      : @269 [@dyn 87] (gas: 12)\n  9644: a0 = u64 [sp + 0x68]\n  9647: u64 [sp + 0x10] = a0\n  9650: a0 = u64 [sp + 0x60]\n  9653: u64 [sp + 0x8] = a0\n  9656: a0 = u32 [sp + 0x70]\n  9659: u64 [sp] = a0\n  9661: s1 = 0x30060\n  9666: i32 a0 = s1 + 0\n  9668: ra = 0xb0\n  9672: ecalli 3 // 'caller'\n  9674: t0 = 0xb2\n  9678: jump @283\n      : @270 [@dyn 88] (gas: 1)\n  9681: t0 = 178, jump @283\n      : @271 [@dyn 89] (gas: 10)\n  9687: a4 = u64 [sp]\n  9689: a1 = a1 ^ a4\n  9692: a4 = u64 [sp + 0x8]\n  9695: a0 = a0 ^ a4\n  9698: a1 = a1 | a0\n  9701: a0 = u32 [0x20048]\n  9706: a2 = u64 [sp + 0x10]\n  9709: a2 = a2 ^ a3\n  9712: a1 = a1 | a2\n  9715: jump @274 if a1 != 0\n      : @272 (gas: 1)\n  9718: jump @276 if a0 <=u 19\n      : @273 (gas: 9)\n  9722: a4 = a0 + 0xffffffffffffffec\n  9725: a0 = a4 <u a0\n  9728: a1 = a0 + 0xffffffffffffffff\n  9731: a0 = 0 if a1 != 0\n  9733: a2 = a0 + 0xffffffffffffffff\n  9736: a3 = a0 >u 0\n  9738: a3 = a3 + 0xffffffffffffffff\n  9741: a0 = a4\n  9743: jump @275\n      : @274 (gas: 4)\n  9745: a1 = 0\n  9747: a2 = 0\n  9749: a3 = 0\n  9751: fallthrough\n      : @275 (gas: 16)\n  9752: a4 = u64 [sp + 0x18]\n  9755: u64 [a4 + 0x20] = a0\n  9758: a0 = 0\n  9760: u64 [a4 + 24] = 0\n  9763: u64 [a4 + 16] = 0\n  9766: u64 [a4 + 8] = 0\n  9769: u64 [a4 + 0] = 0\n  9771: u64 [a4 + 0x28] = a1\n  9774: u64 [a4 + 0x30] = a2\n  9777: u64 [a4 + 0x38] = a3\n  9780: sp = s0 + 0xffffffffffffff40\n  9784: ra = u64 [sp + 0xb8]\n  9788: s0 = u64 [sp + 0xb0]\n  9792: s1 = u64 [sp + 0xa8]\n  9796: sp = sp + 0xc0\n  9800: ret\n      : @276 (gas: 8)\n  9802: u64 [sp + 80] = 0\n  9805: u64 [sp + 72] = 0\n  9808: u64 [sp + 64] = 0\n  9811: a0 = 0x4e487b7100000000\n  9821: a1 = sp + 0x40\n  9824: u64 [sp + 0x58] = a0\n  9827: a0 = 0\n  9829: ra = 180, jump @19\n      : @277 [@dyn 90] (gas: 7)\n  9835: u64 [sp + 56] = 0\n  9838: u64 [sp + 48] = 0\n  9841: u64 [sp + 32] = 0x11\n  9845: a0 = 0x4\n  9848: a1 = sp + 0x20\n  9851: u64 [sp + 40] = 0\n  9854: ra = 182, jump @19\n      : @278 [@dyn 91] (gas: 2)\n  9860: a1 = i32 [0x2004c]\n  9865: jump @280 if a1 >u 63\n      : @279 (gas: 2)\n  9869: u32 [0x2004c] = 0x40\n  9875: fallthrough\n      : @280 (gas: 8)\n  9876: a1 = 0x20060\n  9881: i32 a1 = a1 + 0\n  9883: a0 = 0x1\n  9886: a2 = 0x24\n  9889: ecalli 7 // 'seal_return'\n  9891: a0 = 0\n  9893: ra = 0xb8\n  9897: jump @31\n      : @281 [export #0: 'call'] (gas: 2)\n  9900: a0 = 0\n  9902: ra = 184, jump @31\n      : @282 [@dyn 92] [export #1: 'deploy'] (gas: 2)\n  9908: a0 = 0x1\n  9911: ra = 186, jump @31\n      : @283 [@dyn 93] (gas: 14)\n  9917: a0 = u64 [s1 + 0x8]\n  9920: a1 = u64 [s1]\n  9922: a2 = i32 [s1 + 0x10]\n  9925: a0 = reverse a0\n  9927: a3 = a0 >> 0x20\n  9930: a1 = reverse a1\n  9932: a4 = a1 << 0x20\n  9935: a3 = a3 | a4\n  9938: a0 = a0 << 0x20\n  9941: a2 = reverse a2\n  9943: a2 = a2 >> 0x20\n  9946: a0 = a0 | a2\n  9949: a1 = a1 >> 0x20\n  9952: jump [t0]\n      : @284 (gas: 6)\n  9954: sp = s0 + 0xffffffffffffffa0\n  9957: ra = u64 [sp + 0x58]\n  9960: s0 = u64 [sp + 0x50]\n  9963: s1 = u64 [sp + 0x48]\n  9966: sp = sp + 0x60\n  9969: jump [t0]\n      : @285 (gas: 2)\n  9971: a3 = a2 & 0x40\n  9974: jump @289 if a3 != 0\n      : @286 (gas: 1)\n  9977: jump @288 if a2 == 0\n      : @287 (gas: 6)\n  9980: i32 a3 = 0x40 - a2\n  9983: a3 = 0xffffffffffffffff << a3\n  9986: a1 = 0xffffffffffffffff >> a2\n  9989: a0 = 0xffffffffffffffff >> a2\n  9992: a0 = a0 | a3\n  9995: ret\n      : @288 (gas: 1)\n  9997: ret\n      : @289 (gas: 4)\n  9999: a0 = a2 + 0xffffffffffffffc0\n 10002: a0 = 0xffffffffffffffff >> a0\n 10005: a1 = 0\n 10007: ret\n      : @290 (gas: 2)\n 10009: a3 = a2 & 0x40\n 10012: jump @294 if a3 != 0\n      : @291 (gas: 1)\n 10015: jump @293 if a2 == 0\n      : @292 (gas: 6)\n 10018: i32 a3 = 0x40 - a2\n 10021: a3 = 0xffffffffffffffff >> a3\n 10024: a0 = 0xffffffffffffffff << a2\n 10027: a1 = 0xffffffffffffffff << a2\n 10030: a1 = a1 | a3\n 10033: ret\n      : @293 (gas: 1)\n 10035: ret\n      : @294 (gas: 4)\n 10037: a1 = a2 + 0xffffffffffffffc0\n 10040: a1 = 0xffffffffffffffff << a1\n 10043: a0 = 0\n 10045: ret\n","bytecode":{"object":"50564d00001c2e000000000000010700c18000c00080034857202c6f6c6c65483b071276522d0eb1326a7e71fdcdee2673b0c2fa4a4bf40cf60cfab7e2cb9f2dfa2c8b8bcaf707ead89a45e1b61412ab8a940ad6f21fcf5950890c9744469c1f0480bd0b000000000e0000001c0000002a000000300000003d000000480000005700000062000000740000007f00000063616c6c5f646174615f636f707963616c6c5f646174615f6c6f616463616c6c5f646174615f73697a6563616c6c65726465706f7369745f6576656e746765745f73746f72616765686173685f6b656363616b5f3235367365616c5f72657475726e7365745f696d6d757461626c655f646174617365745f73746f7261676576616c75655f7472616e73666572726564051102a6ac0463616c6ca6b4066465706c6f7906ace55d02a73f9b00e3012603910341044604ce04da04f8044f059905b7054a066f07d907e5075b087308a308b708cc080b092c099c09c5090b0a320a9e0af70a7c0be40b580cc30cef0cb30df80d390e990efd0ef50f38104410b010031113112211a411d0115b13a813d5132814ed1566166a178e18b21835194119ef19061a2b1ac31a761b121c961cb31dcb1ded1d8a1e971eef1e7c1f9d20bb207521112291220223e22305241c24402472249b24a124ac25d125d7256b268426b426bd26aa876e978a2098aa20977b2098bb20c89b0bc9ba0a979b019abbaeab20ae873751094ec87909647a017c8b95880195ac0178ab64caab9cf42836510934c87909647a017c8b95880195ac0178ab64caab9cf4281c51091a839aff01c8a80b7cbb9599ffc8a70c78cb83aaff5209f03200390850000251083808330780000383770a08282b089511f07b10087b156489647533082064975010025c037c78017c797c7a027c7b03978808d4980897aa1097bb18d4ba0ad4a8087c79057c7a047c7b067c7c07979908d4a90997bb1097cc18d4cb0bd4b909979920d489027c79097c7a087c7b0a7c7c0b979908d4a90997bb1097cc18d4cb0bd4b9097c7a0d7c7b0c7c7c0e7c780f97aa08d4ba0a97cc10978818d4c808d4a808978820d498037c78117c7a107c7b127c7c13978808d4a80897bb1097cc18d4cb0bd4b8087c7a157c7b147c7c167c791797aa08d4ba0a97cc10979918d4c909d4a909979920d4890a7c78197c79187c7b1a7c7c1b978808d4980897bb1097cc18d4cb0bd4b8087c791d7c7b1c7c7c1e7c771f979908d4b90997cc10977718d4c707d49707977720d487076f776fa86f396f2a7b5a187b59107b58087b57821008821595111032009511d87b10207b15187b161082897b19088289087b1982851082861833082050100414026f686f59821a6faa821b086fbb787b18787a10787908787898bc38787c1f98bc30787c1e98bc28787c1d98bc20787c1c98bc18787c1b98bc10787c1a98bb08787b1998ab38787b1798ab30787b1698ab28787b1598ab20787b1498ab18787b1398ab10787b1298aa08787a11989a38787a0f989a30787a0e989a28787a0d989a20787a0c989a18787a0b989a10787a0a98990878790998893878790798893078790698892878790598892078790498891878790398891078790298880878780182102082151882161095112832009511a07b10587b15507b16489515608411e06476828718828910828a0882886f776f996faa6f887b18187b1a107b19087b17491138491130491128491120481140208318831a20831b403309ff33070a05821738821830821928821a206f776f886f996faa7b6a187b69107b68087b67501206c12332009511a07b10587b15509515608411e08272827a08827b108277188283828908828c108288186f746fbb6faa6f276f826fcc6f996f387b17187b1a107b1b087b147b18387b19307b1c287b12208318831a203309ff330b2033070a099551a0821058821550951160320082186f888219086f99821a106faa821b186fbb7b1b587b1a507b19487b18408218206f888219286f99821a306faa821b386fbb7b1b787b1a707b19687b18608379836a8317403308020a04955160ff8210980082159000821688009511a00032008b7910520931c8780883881f8488e056380000012533094c0002390a4c0002ae8a093d084c00020133086000028377c887073200009511f07b10087b158475010a02013d0748000251050750100a0950100c8b04951180fd951700027b70787b75707b7668951580028411e0641649267801492670014926680149266001836760010a0a01956b000182b77082b87882b96882ba60d49808d4a707d4870752077f0339074800027b675897772098772095771f8477e095788000d87807956900017b98407b974894777b9750330740956840014926580150100ef6fc330780008268585010101dff837782685833090a0182685854181f3603956720013308800050101292fb826830018269380114070000000001000000d38707d497077b68589888208888017b69509498937851080903826728017b6740826720017b674849269801492690014926880149268001956700019568800150101467fd8067140182681801977720826958d49707826950d498084926b8014926b0014926a8014926a0018269407b69c8018269487b69c0017b68d8017b67d0019567a0019568c00150101694fd4926f8014926f0014926e8014926e001019567e0009568e001501018fffc8267f0008268e8008269e000826af800977b3f988c01d4bc0397ac3f987701d4c70797883f989c01d4c80898aa018499019a9c889201848b7fd27c04d23c07db980b88b820d2ac0c64899479d4c4039439ab922e028e79858801db79088e498ecadac90ada380a510a7d017b67407b6b487b6c507b64584926d8004926d0004926c8009568c0004926c00001330750101a7afb39084c000256181f0b20034c000220019517e08479e07b693064913307600002837783993308200a068264308247188248106f736f8082674895781fd87807826a40c87a09d8a90ada770a826c58c8ac07977a3b989b05d4ba0a97993b988805d49808c838087b6838d83808c88009c89a0a8242088249d30a0b7b6a30d80a0adab80a6f946f22d8c708826950c8980898770597893bd49707988805c82707d82709c84808c89808c87a0a7b6a28d87a07c887077b67209517e0847be064b17b6b1801826738d87307826930d39008d89009da8709826c28d8c207826a20d3a408d8a40ada870ad3c207d48707da790a7bb37bb0087bb2107bb418510a56492618024926100249260802492600029568000264b77b63587b60507b64487b624050101cbefb826b18826448826050826358953301883701c87000d40307887701826840c88707d88708c8840464722875ff4926380295680002491820014918401a3a070000024926300249262802492648027b8758140700000021646c726f7b8750956720029568400250101e54fb9567a000330840501020a5f8826ab8008268b0008269a8008267a000d49a0ad48709d4a909989920d4a808978820d4980851089100003308600002838833070128ab0033086000028388330701289e0033086000028388330701289100492690004926880049268000140700000000717b484e956880007b679800330750102269f94916784916704916602233070495686049166850102451f939084c000256183f0b20034c00024001330860000283883307013309240a077b6758330026285afb7b675850102654fb8377330833090a28c6f7826758330850102840fb83783307330933002a0a07280a330933002a0a0701951108f8951700077b70f0007b75e8007b76e0009515f8079511f8fd8411e064164926180749261007492600078000330740956800074926080750102cb9f833074800027b67d80039074800025517040728c91683672007330833002e0a010181673c075147626813a4ab08514739fcd6f32d03514772cc50fe12045247652ec8179a0e49265807492650074926480749264007836740070a0a01956b000782b75082b85882b94882ba40d49808d4a707d48707510706288a168267d80081775617030728841695676002501030a91a826778027b67d000826770027b67c800826768027b67c000826760027b67b80095672002501032b51b826738027b678800826730027b679000826728027b679800826720027b67a000826758027b6768826750027b6770826748027b6778826740027b6780009567e0015010346f1b956800028287187b67608287107b67588287087b675082877b67489567c00133084050103658f695690001829ad800829bd0008298c8008297c0007b68d800d4a809d4b708d49808988820d4b909979920d498085108062883158268b800956c00017bc8a0008268c0007bc8a8008268c8007bc8b0009568a0018269d0007bc9b8007b67d0007b6ab0007b6ba80050103826f7826ba8008262b0008268d000d42b0c140a00000000010000001407e0ffffff00000000d878078269d800949794c75207062816158387204926980149269001492680016095688001492688017b6cc8007b6ac00050103acdf68267d0009577608268d000d88708826ad800c88a09d8a90ada880a8268a800c88a0ad88a0b8268b000c88b0b956c00017bc9087bc78267687bc7388267707bc7308267787bc728826780007bc720826788007bc758826790007bc750826798007bc7488267a0007bc7407bca10956760019568400195692001956a00017bcb1850103c0a168268d0008267c0009577c0d878078269d80094978269c8009497520706284c14956900018297787b67c8008297707b67c0008297687b67b8008297607b67a0008387408268487b68e0008268507b68e8008268587b68f0009568e0008269607b69f80050103ee0f58267d0008263a000d87302826cd8008267b800d3c708d8c7096474da82098267a800826ac000c97a08d87a0a8267b000826bc800c97b0bc9ab0bd8980ac9ab0a8267d000c9980bc9c409c92909c97308d4a909d4b80ad49a0ad4b90998aa20979920d4a9095109062899137b68d8005010409ff783788169d80033070a0728e90c9567ff079577594927400149273801492730014927280195670010837780f90a0a01956aff0795aa5995ab000182b73882b84082b93082ba28d49808d4a707d487075107062871138267d800817756170307286b139567e00450104282178267f8047b67d8008267f0047b67d0008267e8047b67c8008267e0047b67c0009567c0043308405010449bf3956b000482b7d80082b8d00082b9c80082bac000d49707d48a09d47909989920d48707977720d4970751070628ca128267c000956900047b97a0008267c8007b97a8008267d0007b97b0009568a0048267d8007b97b80064a77b6ad8003300742870f49567ff0795775949276001492758014927500149274801956700108377a0f90a0a01956aff0795aa5995ab000182b75882b86082b95082ba48d49808d4a707d487075107062892128267d800817756170307288c129567e006330840501046d7f28267f8067b67388267f0067b67408267e8067b67488267e0067b67509568ff0795885949288001492878014928700149286801019567c0069568ff079588c101501048bef4956b000682b7d80082b8d00082b9c80082bac0007b67d0007bb798007b68c8007bb890007b69c0007bb988009567a006956880067b6ad8007bba800050104a3e15826848826938826a40826750d48909d4a708d49808988820d4a909979920d49808510806288811956c000682c9b80082cab00082c8a80082cba0007b6b80007bcb607b6890007bc8687b6a88007bca70956860067b6998007bc97850104c2bf3826950826bd80084b8019597207b67785208890c826840826a38d48a0a1408e0ffffff00000000d88908826948949894a852080628181184b800ff8269c000956a00057ba9e8007ba8e0008268c8007ba8f0009568e0058269d0007ba9f80050104ec7f2330033024926d8008267880082688000d487078268980082699000d49808d487078e779777057b67d000018268d00095873fd88708c880098477e0826350c87303d87307826a48c89a0ac87a04d3940ad8940bdaa70bd80907da8807c82707d82708826040c80709c89b0bd87907d89b09826238826ad800c82a0ac8a808c88707c879098e978eb8db9708d49b0a8e477b6ab800dba80751070628e01064bc826750d87307826a48d3a408d8a40bda870bd80c07d32908d8290ada870ad30c07d48707da7b0a510a0628b1107b63c0057b64c8057b6cd0053307409568c0057b69d8057b63d8007b6cc8007b64d0007b69c000501050cff1826ac8008267d800d4a7098268d000826bc000d4b808d48909989920d4a808978820d498085208cb0f4926b8054926b0054926a8059568a0054926a005205010528cf19567800582685050105446f08268d800140a00000000010000001407e0ffffff00000000d878078269d00094978269b800949751077a0f8262980595690005829b9000829c88007b6aa800829a80008387207b6ab0007b9a607b6c90007b9c687b6ba0007b9b70956860057b6298007b62780550105614f1826ad0008269d8008267a8009577c0d8790794a78268b800948751071b0f8267b000826ba000d4b70782689800826c9000d4c808d48707987720d4b808978820d487075207f20e8397408268b000501058f4f27b67b8008267788268b00050105ae4f264788267b8008269b00050105ce3ee8267d8008268b000c88707d88709826b90008268d000c8b808c89808d3b80ad8b80bdaa90b8269c000826a9800c8a909826ac800826ca000c8ca0ac8ab0bd8ca0cd8ab0ac8c909c8a909d4b909140bc0ffffff00000000d8b70a948a949a510a650e83774049265805492650054926480595684005492640057b6bd00050105e20f08267b00095771f1408e0ffffff01000000d287078268d000ae87290e8378407b68d0008267d80050106027f2837833078269d0000a07014926d8074926d0074926c8074926c0078367c0070a0a01956b000782b7d00082b8d80082b9c80082bac000d49808d4a707d487075207280e8267d8008177541723250e8367e0073308040a010195670007827af8008278f000827be800d4a80988b70194975107050e7b6930826ce0078267d800807395c723d8c709c89b027b6b40d8b20bda990bc88b0b7b68c800d88b097b6ad000c8a909d4b909d83707942794975107ce0d83c80495670010837700f87b6c380a010195670010827318f895670010827410f895670010827b08f8d4340888b7017b6870948751079d0d95670010827200f8826838958724d88700826840c808097b6260c872027b678000d8720a7b6b58c8b907c8a707d3970bd8970cdaba0c7b699000d8890ada000a8268c800c88a0ad88a09826bd000c89b0b7b6450c84a097b6a8800d8a90a7b63487b6b78c83b0bc8ba0a8268d800808bc89c0cd89c09c8a909d82b08887a01858801db7a0888970188ca01db970ad4c909db9a0851080c0d95678004501062ea10826798047b6728826790047b6720826788047b6718826780047b671095670010492738f895670010492730f895670010492728f895680010492820f801956760049568ff079588215010640eef826960048267680482687004826a78047b6a38047b6830047b67280495674004956820047b692004501066a20f95670004827958827a50827c40827b48d49a0788c82094b894788267608877207b67685208240249261804492610044926080495680004492600040133077b69c8007b6ad0007b6bc0007b6cb8005010689ced82676095781fd87807826a58c87a09d8a90ada770a826050c8a000970a3b989b05d4ba0a979b3b988c053a022000027b62a0003a04180002d4cb0bc8b202d8b20bc84b0c7b649800c8ca077b67d800d3a70cd8a707dacb077b67a8008267b800957c1fd87c078268c000c87809d8890bda770b8263d000c83b0b97b73b989805d4870797993b98cc05d4c909826ca000c8c9087b68b800d89808c84809c8970ad37a097b6ab000d87a04da9804826750d87007826a48c87a0a9809053a0710000297a83bd4980898aa05c87809d88908c8a8088260a800c890008263d800d8900ac88a0a8268688269589498826970949882699800db8903db8c02948adb87008268d000d88b088269c800c8980898bb0597893bd4b909988805c89707d89709c898083a09080002c874047b64a800d87407c88707c8a90bc897077b67a0009517e0847ce064c17b6c9800018267b800d872078269b000d39308d89309da87098267a800d87004826aa000d3ab08d8ab0ada840ad37007d48707da790a7bc27bc3087bc0107bcb18510a6c9567ff0795775949074917f895670010492748f895670010492740f89568ff0795884164c77b62d0007b63d8007b60c0007b6bc80050106a40ed826c9800826bc8008263d8008262d000952201882701c87303d432078877018268c000c87800d88008c88b0b285bff826a588ea7826868858801dba708826b508eb7826c488ec9dac709826770da780951090e038267608477e07b67704926f8034926f0034926e8039568e0034926e00301330750106c5eeb9517e08478e064813309330033034926d8003a0b0800023a0c1000023a0a1800023a072000027b6bc8007b8b187b6cc0007b8c1064a47b8a087b68d000647a7b8795670010837760f87b6768017b6ab800826770d87907857a01940a01826bd800d4b307947a01826c80007b69a800c89c02826990007b60a000c89000826888007b63b000c88303826778c8b707520a7a02d8c20ac8a000d3900bd8900cdaba0cc83c0cd83c0ad88308c88707c8a707d4c208d47007d47808988820d4c707977720d487077b6498005207b60883288267680a01956bff0795bb5982b72082b81882b91082ba087bb7407bb8387bb9307bba289568ff07958881008267d00050106ec3eb8262c800826cb80095cc0188c701826a9800c87a0ad4ac078877018268c000c88707d88708c882028268a800958320d883098268a000c89800d8800bda990b8268b000c88b0bd88b098268d800c898087b68d8008268d0007b871064a47b8a0864ca7b8c64297b69c8007b89187b67c000643964b328d4fe5247056c2b57040849267807492670074926680749266007836760070a0a01956b000782b77082b87882b96882ba60d49808d4a707d48707520747088267d80081775417234408836780073308040a0101826890078269980714070000000001000000d38707d497077b68d0009888208888017b69d8009498937851081208826788077b67c800826780077b67c0004926b8074926b0074926a8074926a0079567c0029568a00750107028ea8267d0027b67a8008267c8027b67b8008267c0027b67b0009567a002330840501072d8e7956a000282a7b80082a8b00082a9a80082aba000d49707d48b09d47909989920d48707977720d4970752070a078267a8009777209877208268c0008269b000d398088269d000d397078269c800826ab800d3a909826ad800d4a909d49808d48707887701492698024926900249268802956880027b67800264b77b6bd8005010748fe83308208267d800501076b6ea837833092033070a0701826960d4b907d4ca08d487075207b8034926c0004926b8004926c8004926d0002803047b62d800826260826870d3280a826450d44a0a826b5882684864b9d48b0bd4ba0a510a4101826bd800d8cb0ac8a009826c9000d3c908d8c90cda8a0cc83c0cd83c0a82688800d88308c88707c8a707d4cb08d49707d47808988820d4c707977720d487075207130697273b9878387b68c0009a8980003307ff3308ff5010782f0d7b67b0007b68a8003307ff3308ff8269c00050107af20c7b67b8007b68c8008267a800d487077b67a8008267c0009579803307ff3308ff50107ccd0c8269c000889c8000826aa800dbca089398ff7b68a800649a8269b8008268b000d49808dac70893a8ff7b68c0008267c80093c77b67c80093c97b69b8008168d800956700108377a0f80a01956bff0795bb5982b74882b85082b95882ba60826cc000e0c707826ca800e0c808826cb800e0c909826cc800e0ca0a7bba80007bb9787bb8707bb7689568ff079588c1008267d00050107e6ae88262608269588264508268480198473f978801d48707649a98983f974901d4980898293f97aa01d4a909972a0195aa01956cff0795cc59492ca000492c9800492c9000492c8800017bcaa8007bc9b0007bc8b8007bc7c0009567ff079577e1009568ff079588010133008c0028f9e7d89707826848c878097b6970d88908da7708826740c878087b6868d87807826838c887077b67604926580649265006492648069568400649264006013307502080004fe69517e08478e064814926d000330033024926d8003a0a0800023a0c1000023a0b1800023a0720000264a97b8a187b6cb8007b8c1064b47b8b08647a7b877b6858017b6aa0007b64a8007b69b000826780008269d000d8790782699000d3900ad89009daa70982678800d87203826a9800826cd800d3ac0bd8ac0adab30ad37207d4b707da790a510a2cf3956720067b62c8007b60c00050208200a5e68264c0008263c8008268788267d000c88707d88708826b70c84b09c88909d3b90ad8b90bdaa80b826a68c83a08d8a802826cd800826a60c8ac0cc82c0ac88b0bd88b08c8a808d49808d4b709d48909d4b808989920978820d4980852087803956c000682c93882c83082ca2882cb207bcb7bca087bc810956800067bc918502084002fe5826ca00095cc0188c701826aa800c87a0ad4ac078877018268b800c87800d880088267b000c887078268d000958220d882098268c000c89803d8830bda990b8268c800c88b0bd88b098268d800c898087b68d80064a48268587b8a0864ca7b8c640c7b8c1064797b87187b6cb8007b62d000643064b228abfe1407dcffffff00000000826938d87907826840948782683094875107bc0283982495670010837720f90a01826960826c48826b50826a589567ff079577598278e0007b68d0008278d8007b68c8008278d0007b68b8008277c8007b67c0000198a73f97b801d487077b67b00098b73f97c801d487077b67a80098973f97a801d487077b67a0009797017b6798009798037b68d8008d8980003307ff3308ff502086006c097b67387b68708267608a79033307ff3308ff502088002e097b67687b6840826838d487077b67388267d8008379803307ff3308ff50208a000c09826bd80088b98000826a38db9a07826c40826a70d4ca0ada980a93b7ff93baff939c826b68939b8268b800e0a8088269c000e079078269c800e0b909826ad000e0ca0a826b9800d4b707826ba000d4b808826ba800d4ba0a826bb000d4b909956cff0795cc59492ce8000195cb00017bb9187bba207bb8107bb708492c0001492cf800492cf0009567ff07957741019568ff079588610150208c00a4e49567c00333084050208e00f4e195680003828bd800828cd000828ac8008287c000d4ba09d4c708d49808988820d4c909979920d49808520825014926b8034926b0034926a8039568a0034926a003207b67d8007b6ac0007b6bd0007b6cc80050209000d6e28267d8009577208268d800d88708826ac000c88a09d8a90ada880a8268c800c88a0ad88a0b8268d000c88b0b7b6928037b6720038267487b6758038267507b6750038267587b6748038267607b6740038267787b677803826788007b677003826790007b676803826780007b6760037b6a3003956780039568600395694003956a20037b6b3803502092000b02826788038262980382638003826a90038268c000d3870bd8870c64848268d800d88308dab80c8269c800c99a0bd89a0a8269d000c99209c9a909d8cb0ac9a909c9cb0b826cd800c94707c98707c9c308d49707d4b809d47909d4b707989920977720d497075107fa0000330860000283883307012812838833070133090a07330860000228f233090a07330860000228e7330860000228e0330860000228d9330860000228d2330860000228cb330860000228c4330860000228bd330860000228b6330860000228af330860000228a8330860000228a13308600002289a330860000228933308600002288c330860000228853308600002287eff492630054926280549262005140700000000717b484e956820057b67380533075020940028e1492618054926100549260005413307049568000549260805502096000ae139084c000256183f0b20034c00024001330860000283883307013309240a07018267107b67e0028267187b67e8023a072800023a093000023a0a3800023a0b4000027b671803956700037b79107b7a087b7b8267207b67f00295690003956ae0028267287b67f80264c733009800951160ff7b1098007b1590007b1688009515a0008411e082ab7b1b3882ab087b1b3082ab107b1b2882aa187b1a20829a7b1a18829a087b1a10829a107b1a088299187b1964863300082880e23308600002838833072884fe951140ff7b10b8007b15b0007b16a8009515c0008411f082ac1082ab1882a60882a27b1b507b1640d4b60ad4c20bd4ab0b98bb207b1c58d4ca0a97aa20d4ba0a7b17520aae01829718829a10829b088299828c187b1c18828610828c087b1c1082887b18087b19207b1980007b1b287b1b88007b1a307b1a9000951880007b17387b1798007b1248642750209a00b4df821308d46307821818821910d49808d48707987720d46808978820d4870752074201821930821b20d49b07821838821a28d4a808d48707987720d49808978820d48707821a588219508216405207140164b8d49a07140be0ffffff00000000821a487b1b18d8ba0b946b947b510bf40083337b131083a720648650209c0067e1837783688219100a01821848c86807d88708821928821640c86909c88909d3690ad8690bdaa80b821a58821830c8a808d8a802821c38821a50c8ac0cc82c0ac88b0bd88b08c8a808d4b808821a18d8a70a949a948a510a8b0083772049117849117049116895186049116050209e00c3de82172095771f1408e0ffffff01000000d28707821848c88707d88708c88609d8690ada880a821858c88a0ad88a08821b50c8b808957b20d87b07c8790cd89c09da7709c8a909d8a907c8870782187b8b7b8c087b89107b8718955140ff8210b8008215b0008216a8009511c0003200009511a07b10587b15507b16489515608411f0828910828c08828b82881897923f98ca01d42a02978a3f989901d49a0a97cc3f98b901d49c0c98830184bb019ab888b60184c97fd2a804d2280adbbc09d2380b88982094a8d4b40c94c8ab86167b797b7a087b74107b7b185022a00006033200491130491128491120140700000000717b484e9518207b173833075020a200c0dd49111849111049012233070464184911085020a400a9dd39084c000256183f0b20034c00024001330860000283883307013309243300a6000a0701951140ff7b10b8007b15b0007b16a8009515c0008411e07b17204911784911704911684911609517409518605020a80045de8217487b17388217407b17308017507b1728330660000383677b17183300aa000a033302ac002825025022ac002202821928d39808821930d39707d48707821838d3a808d4870752076c38074800029576ecd876079579ff9497887a019aab9577ff97aa20987c20c9ac0c979a20986820d4a808d4c808977720d4b909989920d49707d4870752077c8368831780000a0182199000821a98003307801b8c0098982097ac20d4c808979920d4b90998aa20282d8217180a0382680833078269816a106f8b98b8206f9c97c920d4980897bb206fa9989920d4b90998ca2001821b207bb97bb8087bba10491b18955140ff8210b8008215b0008216a8009511c000320000951140ff7b10b8007b15b0007b16a8009515c0008411e07b171849219800492190004921880049218000951760951880005020ae000bdd8217687b17108217607b17088017707b17330660000383673300b0000a033302b20028ef005022b200ec00821bd3b808821b08d3b707d478083807480002821910d3a909d4980852081e54171354957becd87b079578ff94879579ff8e7a95aaff64b7280933083309330a01821b187bb7203307491b18491b10491b08490b7bb8287bb9307bba38955140ff8210b8008215b0008216a8009511c0003200491150491148491140140700000000717b484e9518407b175833075020b4005adb491138491130491120113307049518204911285020b60041db39084c000256183f0b20034c00024001330860000283883307013309240a0733073300b800287edd33075020b80079dd3307015020ba0070dd82670882688169106f77987a206f88978b20d4ba0a9777206f99989920d4970798882032029551a08210588215508216489511603202849a40520a195109148d9a409baaff9c98ff9c97ffd4a707320032009597c09c77ff33083200849a40520a195109148d9a409caaff9b97ff9b98ffd4a808320032009598c09b88ff3307320049922425494b2a252da9944c4949214225a952484992244992244992244992244992244992244992244992244992244992244992542529a524292949a84a494a922449922449922449922449922449922449922449929224294955494a922849254955924249929294a4aa2a494952924a922aa5942429a5942495141111254982101286d2a43424424492481111d148922411922491484a224224944e88081101244952118944444484882449444422111111222244848888244992242549924a515249244944442884082629544a52499224499224499292a4922449922449923249922449929424111151928424499224498988081191001211222122224992c450124a42494404105148224908110c252549a826852a551a11111129224844081122511a010101011111d148922449148910111111112122222222128944448824494a24444444244992242222222222224244248000129524224444844824924412899424492412894412119110914451128944229144221189109188a444241149124992244992084525121111d148244992248a44888888888884888848922449444444444491442222221a892449924491488844229148448488081111111111111111922449922411111189442212124922490049251111111111a1222211498991244992244992244922492a299294244992244922221111112122114992444444089110010490288a8888884422918808119114454422922489448844282244241149928844244992005291888888100920118908158d8888464444928842a4111149918892244924925424228d888848524424499248922491441249224912254992244944884422918888880811091111111111219224a9241111118a880849922449928408491289241149248924491289248924491292248944929422299148922409892489a4188924914892a424899488884811112122224912499292a49424924444844252152184108994a8888c248924221189481249922449922489284592244922224424912492441249228944a45491a8044444442349924414228d082089242a222222222242444444244444449224894822128948244944441421114a4d9288884824499292882492249124499244129184882442442422498888248a4812511411512449229148249244444892494a9224894444888888888824499224492222424152548410428994ca888848248944244912111144249224499244922449922422494a224124912492482491249248945429119500929422112549242222226292481249229188244892244892449220224992a4148944229148241209912411111111448288884892241111112222824824924412894824128944444444444444101111499144124992489224496228950a5528140a8542a15028140a8542a190880820a22022242208110c254d2442082122291191282222222549929224a92454222222494a9224498a2425494a229188440a922449924892244992244a00492a4a0a2a2749922449922449925424491224012449922449922449258988882649929424499224254992524a12942480a420494a1022184aa21111912449122449124a14099224491292949224499224298a28922429a5524a52922949444434222292888844902429144582922424492429a5aa49494a121111250920294822491022184a2a529020a594a42425494a9224a9a49224492a2900"},"methodIdentifiers":{"getCurrentSender()":"f3d6fc39","getGreeting()":"fe50cc72","getMessageInfo()":"17c82e65","isTrustedForwarder(address)":"572b6c05","setGreeting(string)":"a4136862"}},"hash":"d129619006ae54f8e48f844f367f117c0c0c5fc32c2135a34f0d05bcd6a81fb1","factoryDependencies":{}}}}