{"contracts/RaffleContract.sol":{"RaffleContract":{"abi":[{"inputs":[{"internalType":"address","name":"trustedForwarder","type":"address"}],"stateMutability":"nonpayable","type":"constructor"},{"anonymous":false,"inputs":[{"indexed":true,"internalType":"uint256","name":"raffleId","type":"uint256"},{"indexed":true,"internalType":"address","name":"participant","type":"address"},{"indexed":false,"internalType":"uint256","name":"participantCount","type":"uint256"}],"name":"ParticipantJoined","type":"event"},{"anonymous":false,"inputs":[{"indexed":true,"internalType":"uint256","name":"raffleId","type":"uint256"},{"indexed":true,"internalType":"address","name":"winner","type":"address"},{"indexed":false,"internalType":"uint256","name":"amount","type":"uint256"}],"name":"PrizeClaimed","type":"event"},{"anonymous":false,"inputs":[{"indexed":true,"internalType":"uint256","name":"raffleId","type":"uint256"},{"indexed":true,"internalType":"address","name":"creator","type":"address"},{"indexed":false,"internalType":"string","name":"title","type":"string"},{"indexed":false,"internalType":"uint256","name":"entryFee","type":"uint256"},{"indexed":false,"internalType":"uint256","name":"maxParticipants","type":"uint256"},{"indexed":false,"internalType":"uint256","name":"endTime","type":"uint256"}],"name":"RaffleCreated","type":"event"},{"anonymous":false,"inputs":[{"indexed":true,"internalType":"uint256","name":"raffleId","type":"uint256"}],"name":"RaffleEnded","type":"event"},{"anonymous":false,"inputs":[{"indexed":true,"internalType":"uint256","name":"raffleId","type":"uint256"},{"indexed":true,"internalType":"address","name":"winner","type":"address"},{"indexed":false,"internalType":"uint256","name":"prizeAmount","type":"uint256"}],"name":"WinnerDrawn","type":"event"},{"inputs":[{"internalType":"uint256","name":"raffleId","type":"uint256"}],"name":"cancelRaffle","outputs":[],"stateMutability":"nonpayable","type":"function"},{"inputs":[{"internalType":"uint256","name":"raffleId","type":"uint256"}],"name":"claimPrize","outputs":[],"stateMutability":"nonpayable","type":"function"},{"inputs":[{"internalType":"string","name":"title","type":"string"},{"internalType":"string","name":"description","type":"string"},{"internalType":"uint256","name":"entryFee","type":"uint256"},{"internalType":"uint256","name":"maxParticipants","type":"uint256"},{"internalType":"uint256","name":"durationInHours","type":"uint256"}],"name":"createRaffle","outputs":[{"internalType":"uint256","name":"raffleId","type":"uint256"}],"stateMutability":"payable","type":"function"},{"inputs":[{"internalType":"uint256","name":"raffleId","type":"uint256"}],"name":"drawWinner","outputs":[],"stateMutability":"nonpayable","type":"function"},{"inputs":[],"name":"getActiveRafflesCount","outputs":[{"internalType":"uint256","name":"count","type":"uint256"}],"stateMutability":"view","type":"function"},{"inputs":[],"name":"getAllRaffleIds","outputs":[{"internalType":"uint256[]","name":"","type":"uint256[]"}],"stateMutability":"view","type":"function"},{"inputs":[],"name":"getCurrentRaffleId","outputs":[{"internalType":"uint256","name":"","type":"uint256"}],"stateMutability":"view","type":"function"},{"inputs":[{"internalType":"uint256","name":"raffleId","type":"uint256"}],"name":"getRaffle","outputs":[{"internalType":"uint256","name":"id","type":"uint256"},{"internalType":"address","name":"creator","type":"address"},{"internalType":"string","name":"title","type":"string"},{"internalType":"string","name":"description","type":"string"},{"internalType":"uint256","name":"entryFee","type":"uint256"},{"internalType":"uint256","name":"maxParticipants","type":"uint256"},{"internalType":"uint256","name":"endTime","type":"uint256"},{"internalType":"uint256","name":"participantCount","type":"uint256"},{"internalType":"address","name":"winner","type":"address"},{"internalType":"uint256","name":"prizePool","type":"uint256"},{"internalType":"bool","name":"isActive","type":"bool"},{"internalType":"bool","name":"prizeClaimable","type":"bool"}],"stateMutability":"view","type":"function"},{"inputs":[{"internalType":"uint256","name":"raffleId","type":"uint256"}],"name":"getRaffleParticipants","outputs":[{"internalType":"address[]","name":"","type":"address[]"}],"stateMutability":"view","type":"function"},{"inputs":[{"internalType":"uint256","name":"","type":"uint256"},{"internalType":"address","name":"","type":"address"}],"name":"hasJoined","outputs":[{"internalType":"bool","name":"","type":"bool"}],"stateMutability":"view","type":"function"},{"inputs":[{"internalType":"address","name":"forwarder","type":"address"}],"name":"isTrustedForwarder","outputs":[{"internalType":"bool","name":"","type":"bool"}],"stateMutability":"view","type":"function"},{"inputs":[{"internalType":"uint256","name":"raffleId","type":"uint256"}],"name":"joinRaffle","outputs":[],"stateMutability":"payable","type":"function"},{"inputs":[{"internalType":"uint256","name":"","type":"uint256"}],"name":"raffles","outputs":[{"internalType":"uint256","name":"id","type":"uint256"},{"internalType":"address","name":"creator","type":"address"},{"internalType":"string","name":"title","type":"string"},{"internalType":"string","name":"description","type":"string"},{"internalType":"uint256","name":"entryFee","type":"uint256"},{"internalType":"uint256","name":"maxParticipants","type":"uint256"},{"internalType":"uint256","name":"endTime","type":"uint256"},{"internalType":"address","name":"winner","type":"address"},{"internalType":"uint256","name":"prizePool","type":"uint256"},{"internalType":"bool","name":"isActive","type":"bool"},{"internalType":"bool","name":"prizeClaimable","type":"bool"}],"stateMutability":"view","type":"function"},{"inputs":[{"internalType":"uint256","name":"raffleId","type":"uint256"},{"internalType":"address","name":"user","type":"address"}],"name":"userHasJoined","outputs":[{"internalType":"bool","name":"","type":"bool"}],"stateMutability":"view","type":"function"}],"evm":{"assembly":"// RO data = 0/0 bytes\n// RW data = 520/66112 bytes\n// Stack size = 32768 bytes\n\n// Instructions = 13538\n// Code size = 48749 bytes\n\n      : @0 (gas: 1)\n     0: jump @14 if a0 == a1\n      : @1 (gas: 9)\n     3: a3 = a1 << 0x20\n     6: a3 = a3 >> 0x20\n     9: a4 = a0 << 0x20\n    12: a4 = a4 >> 0x20\n    15: a4 = a4 + a2\n    18: a3 = a3 - a4\n    21: a4 = a2 << 0x1\n    24: a4 = -a4\n    26: jump @7 if a4 >=u a3\n      : @2 (gas: 1)\n    29: jump @11 if a0 >=u a1\n      : @3 (gas: 1)\n    32: jump @14 if a2 == 0\n      : @4 (gas: 3)\n    35: a2 = a2 + a0\n    38: a3 = a0\n    40: fallthrough\n      : @5 (gas: 6)\n    41: a4 = u8 [a1]\n    43: a1 = a1 + 0x1\n    46: a5 = a3 + 0x1\n    49: u8 [a3] = a4\n    51: a3 = a5\n    53: jump @5 if a5 != a2\n      : @6 (gas: 1)\n    56: jump @14\n      : @7 (gas: 1)\n    58: jump @14 if a2 == 0\n      : @8 (gas: 3)\n    61: a2 = a2 + a0\n    64: a3 = a0\n    66: fallthrough\n      : @9 (gas: 6)\n    67: a4 = u8 [a1]\n    69: a1 = a1 + 0x1\n    72: a5 = a3 + 0x1\n    75: u8 [a3] = a4\n    77: a3 = a5\n    79: jump @9 if a5 != a2\n      : @10 (gas: 1)\n    82: jump @14\n      : @11 (gas: 1)\n    84: jump @14 if a2 == 0\n      : @12 (gas: 2)\n    87: i32 a3 = a2 + 0xffffffffffffffff\n    90: fallthrough\n      : @13 (gas: 7)\n    91: a4 = a1 + a3\n    94: a4 = u8 [a4]\n    96: a2 = a2 + 0xffffffffffffffff\n    99: a5 = a0 + a3\n   102: u8 [a5] = a4\n   104: i32 a3 = a3 + 0xffffffffffffffff\n   107: jump @13 if a2 != 0\n      : @14 (gas: 1)\n   110: ret\n      : @15 (gas: 2)\n   112: a1 = i32 [0x20210]\n   117: jump @57 if a1 == 0\n      : @16 (gas: 4)\n   121: a0 = 0x30240\n   126: i32 a0 = a0 + 0\n   128: ecalli 13 // 'set_immutable_data'\n   130: jump @57\n      : @17 (gas: 8)\n   133: sp = sp + 0xfffffffffffffff0\n   136: u64 [sp + 0x8] = ra\n   139: u64 [sp] = s0\n   141: a2 = a1\n   143: s0 = a0\n   145: a1 = 0x20\n   148: a0 = a2\n   150: ra = 2, jump @29\n      : @18 [@dyn 1] (gas: 100)\n   155: a1 = u8 [a0 + 0x1]\n   158: a2 = u8 [a0]\n   160: a3 = u8 [a0 + 0x2]\n   163: a4 = u8 [a0 + 0x3]\n   166: a1 = a1 << 0x8\n   169: a1 = a1 | a2\n   172: a3 = a3 << 0x10\n   175: a4 = a4 << 0x18\n   178: a3 = a3 | a4\n   181: a1 = a1 | a3\n   184: a2 = u8 [a0 + 0x5]\n   187: a3 = u8 [a0 + 0x4]\n   190: a4 = u8 [a0 + 0x6]\n   193: a5 = u8 [a0 + 0x7]\n   196: a2 = a2 << 0x8\n   199: a2 = a2 | a3\n   202: a4 = a4 << 0x10\n   205: a5 = a5 << 0x18\n   208: a4 = a4 | a5\n   211: a2 = a2 | a4\n   214: a2 = a2 << 0x20\n   217: t0 = a2 | a1\n   220: a2 = u8 [a0 + 0x9]\n   223: a3 = u8 [a0 + 0x8]\n   226: a4 = u8 [a0 + 0xa]\n   229: a5 = u8 [a0 + 0xb]\n   232: a2 = a2 << 0x8\n   235: a2 = a2 | a3\n   238: a4 = a4 << 0x10\n   241: a5 = a5 << 0x18\n   244: a4 = a4 | a5\n   247: a2 = a2 | a4\n   250: a3 = u8 [a0 + 0xd]\n   253: a4 = u8 [a0 + 0xc]\n   256: a5 = u8 [a0 + 0xe]\n   259: a1 = u8 [a0 + 0xf]\n   262: a3 = a3 << 0x8\n   265: a3 = a3 | a4\n   268: a5 = a5 << 0x10\n   271: a1 = a1 << 0x18\n   274: a1 = a1 | a5\n   277: a1 = a1 | a3\n   280: a1 = a1 << 0x20\n   283: t1 = a1 | a2\n   286: a1 = u8 [a0 + 0x11]\n   289: a3 = u8 [a0 + 0x10]\n   292: a4 = u8 [a0 + 0x12]\n   295: a5 = u8 [a0 + 0x13]\n   298: a1 = a1 << 0x8\n   301: a1 = a1 | a3\n   304: a4 = a4 << 0x10\n   307: a5 = a5 << 0x18\n   310: a4 = a4 | a5\n   313: a1 = a1 | a4\n   316: a3 = u8 [a0 + 0x15]\n   319: a4 = u8 [a0 + 0x14]\n   322: a5 = u8 [a0 + 0x16]\n   325: a2 = u8 [a0 + 0x17]\n   328: a3 = a3 << 0x8\n   331: a3 = a3 | a4\n   334: a5 = a5 << 0x10\n   337: a2 = a2 << 0x18\n   340: a2 = a2 | a5\n   343: a2 = a2 | a3\n   346: a2 = a2 << 0x20\n   349: a3 = a2 | a1\n   352: a1 = u8 [a0 + 0x19]\n   355: a2 = u8 [a0 + 0x18]\n   358: a4 = u8 [a0 + 0x1a]\n   361: a5 = u8 [a0 + 0x1b]\n   364: a1 = a1 << 0x8\n   367: a1 = a1 | a2\n   370: a4 = a4 << 0x10\n   373: a5 = a5 << 0x18\n   376: a4 = a4 | a5\n   379: a1 = a1 | a4\n   382: a2 = u8 [a0 + 0x1d]\n   385: a4 = u8 [a0 + 0x1c]\n   388: a5 = u8 [a0 + 0x1e]\n   391: a0 = u8 [a0 + 0x1f]\n   394: a2 = a2 << 0x8\n   397: a2 = a2 | a4\n   400: a5 = a5 << 0x10\n   403: a0 = a0 << 0x18\n   406: a0 = a0 | a5\n   409: a0 = a0 | a2\n   412: a0 = a0 << 0x20\n   415: a0 = a0 | a1\n   418: a0 = reverse a0\n   420: a1 = reverse a3\n   422: a2 = reverse t1\n   424: a3 = reverse t0\n   426: u64 [s0 + 0x18] = a3\n   429: u64 [s0 + 0x10] = a2\n   432: u64 [s0 + 0x8] = a1\n   435: u64 [s0] = a0\n   437: ra = u64 [sp + 0x8]\n   440: s0 = u64 [sp]\n   442: sp = sp + 0x10\n   445: ret\n      : @19 (gas: 12)\n   447: sp = sp + 0xffffffffffffffd8\n   450: u64 [sp + 0x20] = ra\n   453: u64 [sp + 0x18] = s0\n   456: u64 [sp + 0x10] = s1\n   459: a2 = u64 [a1]\n   461: u64 [sp + 0x8] = a2\n   464: a2 = u64 [a1 + 0x8]\n   467: u64 [sp] = a2\n   469: s0 = u64 [a1 + 0x10]\n   472: s1 = u64 [a1 + 0x18]\n   475: a1 = 0x20\n   478: ra = 4, jump @29\n      : @20 [@dyn 2] (gas: 71)\n   483: a1 = reverse s1\n   485: a2 = reverse s0\n   487: a3 = u64 [sp]\n   489: a3 = reverse a3\n   491: a4 = u64 [sp + 0x8]\n   494: a4 = reverse a4\n   496: u8 [a0 + 0x18] = a4\n   499: u8 [a0 + 0x10] = a3\n   502: u8 [a0 + 0x8] = a2\n   505: u8 [a0] = a1\n   507: a5 = a4 >> 0x38\n   510: u8 [a0 + 0x1f] = a5\n   513: a5 = a4 >> 0x30\n   516: u8 [a0 + 0x1e] = a5\n   519: a5 = a4 >> 0x28\n   522: u8 [a0 + 0x1d] = a5\n   525: a5 = a4 >> 0x20\n   528: u8 [a0 + 0x1c] = a5\n   531: a5 = a4 >> 0x18\n   534: u8 [a0 + 0x1b] = a5\n   537: a5 = a4 >> 0x10\n   540: u8 [a0 + 0x1a] = a5\n   543: a4 = a4 >> 0x8\n   546: u8 [a0 + 0x19] = a4\n   549: a4 = a3 >> 0x38\n   552: u8 [a0 + 0x17] = a4\n   555: a4 = a3 >> 0x30\n   558: u8 [a0 + 0x16] = a4\n   561: a4 = a3 >> 0x28\n   564: u8 [a0 + 0x15] = a4\n   567: a4 = a3 >> 0x20\n   570: u8 [a0 + 0x14] = a4\n   573: a4 = a3 >> 0x18\n   576: u8 [a0 + 0x13] = a4\n   579: a4 = a3 >> 0x10\n   582: u8 [a0 + 0x12] = a4\n   585: a3 = a3 >> 0x8\n   588: u8 [a0 + 0x11] = a3\n   591: a3 = a2 >> 0x38\n   594: u8 [a0 + 0xf] = a3\n   597: a3 = a2 >> 0x30\n   600: u8 [a0 + 0xe] = a3\n   603: a3 = a2 >> 0x28\n   606: u8 [a0 + 0xd] = a3\n   609: a3 = a2 >> 0x20\n   612: u8 [a0 + 0xc] = a3\n   615: a3 = a2 >> 0x18\n   618: u8 [a0 + 0xb] = a3\n   621: a3 = a2 >> 0x10\n   624: u8 [a0 + 0xa] = a3\n   627: a2 = a2 >> 0x8\n   630: u8 [a0 + 0x9] = a2\n   633: a2 = a1 >> 0x38\n   636: u8 [a0 + 0x7] = a2\n   639: a2 = a1 >> 0x30\n   642: u8 [a0 + 0x6] = a2\n   645: a2 = a1 >> 0x28\n   648: u8 [a0 + 0x5] = a2\n   651: a2 = a1 >> 0x20\n   654: u8 [a0 + 0x4] = a2\n   657: a2 = a1 >> 0x18\n   660: u8 [a0 + 0x3] = a2\n   663: a2 = a1 >> 0x10\n   666: u8 [a0 + 0x2] = a2\n   669: a1 = a1 >> 0x8\n   672: u8 [a0 + 0x1] = a1\n   675: ra = u64 [sp + 0x20]\n   678: s0 = u64 [sp + 0x18]\n   681: s1 = u64 [sp + 0x10]\n   684: sp = sp + 0x28\n   687: ret\n      : @21 (gas: 43)\n   689: sp = sp + 0xffffffffffffffa0\n   692: u64 [sp + 0x58] = ra\n   695: u64 [sp + 0x50] = s0\n   698: u64 [sp + 0x48] = s1\n   701: s0 = sp + 0x60\n   704: sp = sp & 0xffffffffffffffe0\n   707: s1 = a0\n   709: a0 = u64 [a1 + 0x18]\n   712: a2 = u64 [a1 + 0x10]\n   715: a3 = u64 [a1 + 0x8]\n   718: a1 = u64 [a1]\n   720: a0 = reverse a0\n   722: a2 = reverse a2\n   724: a3 = reverse a3\n   726: a1 = reverse a1\n   728: u64 [sp + 0x18] = a1\n   731: u64 [sp + 0x10] = a3\n   734: u64 [sp + 0x8] = a2\n   737: u64 [sp] = a0\n   739: u64 [sp + 56] = 0\n   742: u64 [sp + 48] = 0\n   745: u64 [sp + 40] = 0\n   748: u64 [sp + 32] = 0\n   751: u32 [sp + 64] = 0x20\n   755: i32 a1 = sp + 0\n   757: i32 a3 = sp + 0x20\n   760: i32 a4 = sp + 0x40\n   763: a2 = 0xffffffffffffffff\n   766: a0 = 0\n   768: ecalli 6 // 'get_storage'\n   770: a0 = u64 [sp + 0x38]\n   773: a1 = u64 [sp + 0x30]\n   776: a2 = u64 [sp + 0x28]\n   779: a3 = u64 [sp + 0x20]\n   782: a0 = reverse a0\n   784: a1 = reverse a1\n   786: a2 = reverse a2\n   788: a3 = reverse a3\n   790: u64 [s1 + 0x18] = a3\n   793: u64 [s1 + 0x10] = a2\n   796: u64 [s1 + 0x8] = a1\n   799: u64 [s1] = a0\n   801: t0 = 6, jump @1650\n      : @22 [@dyn 3] (gas: 1)\n   807: ret\n      : @23 (gas: 40)\n   809: sp = sp + 0xffffffffffffffa0\n   812: u64 [sp + 0x58] = ra\n   815: u64 [sp + 0x50] = s0\n   818: s0 = sp + 0x60\n   821: sp = sp & 0xffffffffffffffe0\n   824: t0 = u64 [a0]\n   826: a3 = u64 [a0 + 0x8]\n   829: a4 = u64 [a0 + 0x10]\n   832: a0 = u64 [a0 + 0x18]\n   835: t1 = u64 [a1]\n   837: a2 = u64 [a1 + 0x8]\n   840: a5 = u64 [a1 + 0x10]\n   843: a1 = u64 [a1 + 0x18]\n   846: t2 = reverse a0\n   848: a4 = reverse a4\n   850: a3 = reverse a3\n   852: a0 = reverse t0\n   854: t0 = reverse a1\n   856: a5 = reverse a5\n   858: a2 = reverse a2\n   860: a1 = reverse t1\n   862: u64 [sp + 0x18] = a0\n   865: u64 [sp + 0x10] = a3\n   868: u64 [sp + 0x8] = a4\n   871: u64 [sp] = t2\n   873: u64 [sp + 0x38] = a1\n   876: u64 [sp + 0x30] = a2\n   879: u64 [sp + 0x28] = a5\n   882: u64 [sp + 0x20] = t0\n   885: i32 a1 = sp + 0\n   887: i32 a3 = sp + 0x20\n   890: a2 = 0xffffffffffffffff\n   893: a4 = 0x20\n   896: a0 = 0\n   898: ecalli 14 // 'set_storage'\n   900: sp = s0 + 0xffffffffffffffa0\n   903: ra = u64 [sp + 0x58]\n   906: s0 = u64 [sp + 0x50]\n   909: sp = sp + 0x60\n   912: ret\n      : @24 [@dyn 4] (gas: 18)\n   914: a4 = u64 [a3]\n   916: u64 [sp + 0x38] = a4\n   919: a4 = u64 [a3 + 0x8]\n   922: u64 [sp + 0x30] = a4\n   925: a4 = u64 [a3 + 0x10]\n   928: u64 [sp + 0x28] = a4\n   931: a3 = u64 [a3 + 0x18]\n   934: u64 [sp + 0x20] = a3\n   937: a3 = u64 [a2]\n   939: u64 [sp + 0x18] = a3\n   942: a3 = u64 [a2 + 0x8]\n   945: u64 [sp + 0x10] = a3\n   948: a3 = u64 [a2 + 0x10]\n   951: u64 [sp + 0x8] = a3\n   954: a2 = u64 [a2 + 0x18]\n   957: u64 [sp] = a2\n   959: s1 = a1\n   961: ra = 10, jump @29\n      : @25 [@dyn 5] (gas: 35)\n   966: a1 = u64 [sp]\n   968: a1 = reverse a1\n   970: a2 = u64 [sp + 0x8]\n   973: a2 = reverse a2\n   975: a3 = u64 [sp + 0x10]\n   978: a3 = reverse a3\n   980: a4 = u64 [sp + 0x18]\n   983: a4 = reverse a4\n   985: u64 [sp + 0x58] = a4\n   988: u64 [sp + 0x50] = a3\n   991: u64 [sp + 0x48] = a2\n   994: u64 [sp + 0x40] = a1\n   997: a1 = u64 [sp + 0x20]\n  1000: a1 = reverse a1\n  1002: a2 = u64 [sp + 0x28]\n  1005: a2 = reverse a2\n  1007: a3 = u64 [sp + 0x30]\n  1010: a3 = reverse a3\n  1012: a4 = u64 [sp + 0x38]\n  1015: a4 = reverse a4\n  1017: u64 [sp + 0x78] = a4\n  1020: u64 [sp + 0x70] = a3\n  1023: u64 [sp + 0x68] = a2\n  1026: u64 [sp + 0x60] = a1\n  1029: i32 a2 = a0 + 0\n  1031: i32 a3 = s1 + 0\n  1033: i32 a0 = sp + 0x40\n  1036: a1 = 0x2\n  1039: ecalli 5 // 'deposit_event'\n  1041: sp = s0 + 0xffffffffffffff60\n  1045: ra = u64 [sp + 0x98]\n  1049: s0 = u64 [sp + 0x90]\n  1053: s1 = u64 [sp + 0x88]\n  1057: sp = sp + 0xa0\n  1061: ret\n      : @26 (gas: 33)\n  1063: sp = sp + 0xffffffffffffff20\n  1067: u64 [sp + 0xd8] = ra\n  1071: u64 [sp + 0xd0] = s0\n  1075: u64 [sp + 0xc8] = s1\n  1079: s0 = sp + 0xe0\n  1083: sp = sp & 0xffffffffffffffe0\n  1086: a5 = u64 [a4]\n  1088: u64 [sp + 0x40] = a5\n  1091: a5 = u64 [a4 + 0x8]\n  1094: u64 [sp + 0x48] = a5\n  1097: a5 = u64 [a4 + 0x10]\n  1100: u64 [sp + 0x50] = a5\n  1103: a4 = u64 [a4 + 0x18]\n  1106: u64 [sp + 0x58] = a4\n  1109: t0 = 0xc\n  1112: a4 = u64 [a3]\n  1114: u64 [sp + 0x18] = a4\n  1117: a4 = u64 [a3 + 0x8]\n  1120: u64 [sp + 0x20] = a4\n  1123: a4 = u64 [a3 + 0x10]\n  1126: u64 [sp + 0x28] = a4\n  1129: a3 = u64 [a3 + 0x18]\n  1132: u64 [sp + 0x30] = a3\n  1135: s1 = u64 [a2]\n  1137: a3 = u64 [a2 + 0x8]\n  1140: u64 [sp] = a3\n  1142: a3 = u64 [a2 + 0x10]\n  1145: u64 [sp + 0x8] = a3\n  1148: a2 = u64 [a2 + 0x18]\n  1151: u64 [sp + 0x10] = a2\n  1154: u64 [sp + 0x38] = a1\n  1157: ra = 0xe\n  1160: jump @29\n      : @27 [@dyn 6] (gas: 2)\n  1163: u64 [sp + 0x38] = a1\n  1166: ra = 14, jump @29\n      : @28 [@dyn 7] (gas: 46)\n  1171: a1 = reverse s1\n  1173: u64 [sp + 0x78] = a1\n  1176: a1 = u64 [sp]\n  1178: a1 = reverse a1\n  1180: u64 [sp + 0x70] = a1\n  1183: a1 = u64 [sp + 0x8]\n  1186: a1 = reverse a1\n  1188: u64 [sp + 0x68] = a1\n  1191: a1 = u64 [sp + 0x10]\n  1194: a1 = reverse a1\n  1196: u64 [sp + 0x60] = a1\n  1199: a1 = u64 [sp + 0x18]\n  1202: a1 = reverse a1\n  1204: u64 [sp + 0x98] = a1\n  1208: a1 = u64 [sp + 0x20]\n  1211: a1 = reverse a1\n  1213: u64 [sp + 0x90] = a1\n  1217: a1 = u64 [sp + 0x28]\n  1220: a1 = reverse a1\n  1222: u64 [sp + 0x88] = a1\n  1226: a1 = u64 [sp + 0x30]\n  1229: a1 = reverse a1\n  1231: u64 [sp + 0x80] = a1\n  1235: a1 = u64 [sp + 0x40]\n  1238: a1 = reverse a1\n  1240: u64 [sp + 0xb8] = a1\n  1244: a1 = u64 [sp + 0x48]\n  1247: a1 = reverse a1\n  1249: u64 [sp + 0xb0] = a1\n  1253: a1 = u64 [sp + 0x50]\n  1256: a1 = reverse a1\n  1258: u64 [sp + 0xa8] = a1\n  1262: a1 = u64 [sp + 0x58]\n  1265: a1 = reverse a1\n  1267: u64 [sp + 0xa0] = a1\n  1271: i32 a2 = a0 + 0\n  1273: a3 = i32 [sp + 0x38]\n  1276: i32 a0 = sp + 0x60\n  1279: a1 = 0x3\n  1282: ecalli 5 // 'deposit_event'\n  1284: sp = s0 + 0xffffffffffffff20\n  1288: ra = u64 [sp + 0xd8]\n  1292: s0 = u64 [sp + 0xd0]\n  1296: s1 = u64 [sp + 0xc8]\n  1300: sp = sp + 0xe0\n  1304: ret\n      : @29 (gas: 2)\n  1306: i32 a2 = a0 >> 0x10\n  1309: jump @34 if a2 != 0\n      : @30 (gas: 4)\n  1312: a1 = a1 + a0\n  1315: i32 a1 = a1 + 0x1f\n  1318: a1 = a1 & 0xffffffffffffffe0\n  1321: jump @34 if a1 >u 65536\n      : @31 (gas: 3)\n  1327: a2 = 0x2020c\n  1332: a3 = i32 [0x2020c]\n  1337: jump @33 if a3 >=u a1\n      : @32 (gas: 2)\n  1340: u32 [0x2020c] = a1\n  1345: fallthrough\n      : @33 (gas: 4)\n  1346: a1 = 0x20220\n  1351: i32 a0 = a0 + 0\n  1353: a0 = a0 + a1\n  1356: ret\n      : @34 (gas: 1)\n  1358: trap\n      : @35 (gas: 6)\n  1359: sp = sp + 0xfffffffffffffff0\n  1362: u64 [sp + 0x8] = ra\n  1365: u64 [sp] = s0\n  1367: s0 = a0 & 0x1\n  1370: ecalli 3 // 'call_data_size'\n  1372: fallthrough\n      : @36 (gas: 2)\n  1373: u32 [0x20208] = a0\n  1378: jump @38 if s0 == 0\n      : @37 (gas: 1)\n  1381: ra = 16, jump @39\n      : @38 [@dyn 8] (gas: 1)\n  1385: ra = 18, jump @60\n      : @39 [@dyn 9] (gas: 13)\n  1390: sp = sp + 0xfffffffffffffec0\n  1394: u64 [sp + 0x138] = ra\n  1398: u64 [sp + 0x130] = s0\n  1402: u64 [sp + 0x128] = s1\n  1406: s0 = sp + 0x140\n  1410: sp = sp & 0xffffffffffffffe0\n  1413: u64 [sp + 184] = 0\n  1417: u64 [sp + 176] = 0\n  1421: u64 [sp + 168] = 0\n  1425: u64 [sp + 160] = 0\n  1429: i32 a0 = sp + 0xa0\n  1433: ecalli 15 // 'value_transferred'\n  1435: fallthrough\n      : @40 (gas: 8)\n  1436: a0 = u64 [sp + 0xb0]\n  1440: a1 = u64 [sp + 0xb8]\n  1444: a2 = u64 [sp + 0xa8]\n  1448: a3 = u64 [sp + 0xa0]\n  1452: a1 = a1 | a2\n  1455: a0 = a0 | a3\n  1458: a0 = a0 | a1\n  1461: jump @52 if a0 != 0\n      : @41 (gas: 15)\n  1465: s1 = i32 [0x20208]\n  1470: a0 = s1 << 0x20\n  1473: a0 = a0 >> 0x20\n  1476: a0 = a0 + 0x1f\n  1479: a0 = a0 & 0xffffffffffffffe0\n  1482: a1 = a0 + 0x80\n  1486: a0 = a1 <u a0\n  1489: u64 [sp + 0x80] = a1\n  1493: u64 [sp + 0x88] = a0\n  1497: a0 = 0 if a0 != 0\n  1499: u64 [sp + 0x90] = a0\n  1503: a0 = 0x40\n  1506: a1 = sp + 0x80\n  1510: u64 [sp + 152] = 0\n  1514: ra = 20, jump @19\n      : @42 [@dyn 10] (gas: 3)\n  1519: a0 = 0x80\n  1523: a1 = s1\n  1525: ra = 22, jump @29\n      : @43 [@dyn 11] (gas: 5)\n  1530: i32 a0 = a0 + 0\n  1532: a1 = s1\n  1534: a2 = 0\n  1536: ecalli 1 // 'call_data_copy'\n  1538: fallthrough\n      : @44 (gas: 1)\n  1539: jump @53 if s1 <=u 31\n      : @45 (gas: 3)\n  1544: a0 = sp + 0x60\n  1547: a1 = 0x80\n  1551: ra = 24, jump @17\n      : @46 [@dyn 12] (gas: 11)\n  1556: s1 = u64 [sp + 0x70]\n  1559: a2 = u64 [sp + 0x78]\n  1562: a0 = 0x100000000\n  1572: a0 = a0 ^ s1\n  1575: a0 = a0 | a2\n  1578: a1 = s1 >> 0x20\n  1581: a1 = a1 <u 0x1\n  1584: u64 [sp + 0x18] = a2\n  1587: a1 = 0 if a2 != 0\n  1589: a1 = 0 if a0 == 0\n  1591: jump @54 if a1 == 0\n      : @47 (gas: 11)\n  1595: a0 = u64 [sp + 0x68]\n  1598: u64 [sp + 0x8] = a0\n  1601: a0 = u64 [sp + 0x60]\n  1604: u64 [sp + 0x10] = a0\n  1607: u64 [sp + 216] = 0\n  1611: u64 [sp + 208] = 0\n  1615: u64 [sp + 200] = 0\n  1619: u64 [sp + 192] = 0\n  1623: a0 = sp + 0x40\n  1626: a1 = sp + 0xc0\n  1630: ra = 26, jump @21\n      : @48 [@dyn 13] (gas: 19)\n  1635: a0 = u32 [sp + 0x54]\n  1638: a1 = u64 [sp + 0x58]\n  1641: a0 = a0 << 0x20\n  1644: a0 = a0 | s1\n  1647: a2 = u64 [sp + 0x18]\n  1650: a1 = a1 | a2\n  1653: u64 [sp + 248] = 0\n  1657: u64 [sp + 240] = 0\n  1661: u64 [sp + 232] = 0\n  1665: u64 [sp + 224] = 0\n  1669: a2 = u64 [sp + 0x8]\n  1672: u64 [sp + 0x108] = a2\n  1676: a2 = u64 [sp + 0x10]\n  1679: u64 [sp + 0x100] = a2\n  1683: u64 [sp + 0x118] = a1\n  1687: u64 [sp + 0x110] = a0\n  1691: a0 = sp + 0xe0\n  1695: a1 = sp + 0x100\n  1699: ra = 28, jump @23\n      : @49 [@dyn 14] (gas: 3)\n  1704: a0 = sp + 0x20\n  1707: a1 = 0x40\n  1710: ra = 30, jump @17\n      : @50 [@dyn 15] (gas: 12)\n  1715: a0 = u64 [sp + 0x38]\n  1718: a1 = u64 [sp + 0x30]\n  1721: a2 = u64 [sp + 0x28]\n  1724: s1 = u64 [sp + 0x20]\n  1727: a0 = a0 | a2\n  1730: a2 = s1 | a1\n  1733: a2 = a2 | a0\n  1736: a2 = a2 >> 0x20\n  1739: a0 = a0 | a1\n  1742: a0 = a0 << 0x20\n  1745: a0 = a0 | a2\n  1748: jump @55 if a0 == 0\n      : @51 (gas: 1)\n  1751: trap\n      : @52 (gas: 4)\n  1752: a1 = 0x20220\n  1757: i32 a1 = a1 + 0\n  1759: a0 = 0x1\n  1762: jump @59\n      : @53 (gas: 4)\n  1764: a1 = 0x20220\n  1769: i32 a1 = a1 + 0\n  1771: a0 = 0x1\n  1774: jump @59\n      : @54 (gas: 4)\n  1776: a1 = 0x20220\n  1781: i32 a1 = a1 + 0\n  1783: a0 = 0x1\n  1786: jump @59\n      : @55 (gas: 3)\n  1788: a0 = s1\n  1790: a1 = 0\n  1792: ra = 32, jump @29\n      : @56 [@dyn 16] (gas: 5)\n  1797: i32 a0 = a0 + 0\n  1799: a1 = 0\n  1801: a2 = 0\n  1803: ecalli 1 // 'call_data_copy'\n  1805: jump @15\n      : @57 (gas: 3)\n  1808: a0 = s1\n  1810: a1 = 0\n  1812: ra = 34, jump @29\n      : @58 [@dyn 17] (gas: 6)\n  1817: i32 a1 = a0 + 0\n  1819: a0 = 0\n  1821: a2 = 0\n  1823: ra = 0x24\n  1826: ecalli 12 // 'seal_return'\n  1828: jump @60\n      : @59 (gas: 4)\n  1830: a2 = 0\n  1832: ra = 0x24\n  1835: ecalli 12 // 'seal_return'\n  1837: fallthrough\n      : @60 [@dyn 18] (gas: 16)\n  1838: sp = sp + 0xfffffffffffffe10\n  1842: u64 [sp + 0x1e8] = ra\n  1846: u64 [sp + 0x1e0] = s0\n  1850: u64 [sp + 0x1d8] = s1\n  1854: s0 = sp + 0x1f0\n  1858: sp = sp + 0xffffffffffffc030\n  1862: sp = sp & 0xffffffffffffffe0\n  1865: s1 = sp\n  1867: a2 = s1 + 0x3198\n  1871: u64 [a2 + 640] = 0\n  1875: u64 [a2 + 632] = 0\n  1879: u64 [a2 + 616] = 0x80\n  1885: a0 = 0x40\n  1888: a1 = s1 + 0x3400\n  1892: u64 [a2 + 624] = 0\n  1896: ra = 38, jump @19\n      : @61 [@dyn 19] (gas: 4)\n  1901: a0 = 0x20208\n  1906: u64 [s1 + 0x218] = a0\n  1910: a0 = i32 [0x20208]\n  1915: jump @63 if a0 >=u 4\n      : @62 (gas: 1)\n  1919: jump @1272\n      : @63 (gas: 6)\n  1923: a0 = s1 + 0x3000\n  1927: i32 a0 = a0 + 0x420\n  1931: a1 = 0\n  1933: ra = 0x28\n  1936: ecalli 2 // 'call_data_load'\n  1938: fallthrough\n      : @64 [@dyn 20] (gas: 3)\n  1939: a3 = s1 + 0x3198\n  1943: a0 = i32 [a3 + 0x2a4]\n  1947: jump @66 if a0 != 2152437434\n      : @65 (gas: 1)\n  1954: jump @510\n      : @66 (gas: 1)\n  1957: jump @192 if a0 == 2799905115\n      : @67 (gas: 2)\n  1965: a2 = s1 + 0x3998\n  1969: jump @133 if a0 == 3607724372\n      : @68 (gas: 1)\n  1977: jump @70 if a0 != 3839557321\n      : @69 (gas: 1)\n  1984: jump @559\n      : @70 (gas: 1)\n  1987: jump @72 if a0 != 516101143\n      : @71 (gas: 1)\n  1994: jump @224\n      : @72 (gas: 1)\n  1997: jump @74 if a0 != 578025325\n      : @73 (gas: 1)\n  2004: jump @659\n      : @74 (gas: 1)\n  2007: jump @76 if a0 != 890499090\n      : @75 (gas: 1)\n  2014: jump @377\n      : @76 (gas: 1)\n  2017: jump @78 if a0 != 954981003\n      : @77 (gas: 1)\n  2024: jump @522\n      : @78 (gas: 2)\n  2027: a3 = u64 [s1 + 0x218]\n  2031: jump @80 if a0 != 1197010089\n      : @79 (gas: 1)\n  2038: jump @443\n      : @80 (gas: 1)\n  2041: jump @176 if a0 == 1462463493\n      : @81 (gas: 1)\n  2049: jump @83 if a0 != 1565245646\n      : @82 (gas: 1)\n  2056: jump @286\n      : @83 (gas: 1)\n  2059: jump @85 if a0 != 1606037873\n      : @84 (gas: 1)\n  2066: jump @249\n      : @85 (gas: 1)\n  2069: jump @87 if a0 == 1622320490\n      : @86 (gas: 1)\n  2076: jump @412\n      : @87 (gas: 9)\n  2079: u64 [a2 + 1056] = 0\n  2083: u64 [a2 + 1048] = 0\n  2087: u64 [a2 + 1040] = 0\n  2091: u64 [a2 + 1032] = 0\n  2095: a0 = s1 + 0x4000\n  2099: i32 a0 = a0 + 0xfffffffffffffda0\n  2103: ra = 0x2a\n  2106: ecalli 15 // 'value_transferred'\n  2108: fallthrough\n      : @88 [@dyn 21] (gas: 3)\n  2109: a3 = s1 + 0x3998\n  2113: a4 = a3 + 0x400\n  2117: t0 = 44, jump @1653\n      : @89 [@dyn 22] (gas: 1)\n  2123: jump @91 if a0 == 0\n      : @90 (gas: 1)\n  2126: jump @1275\n      : @91 (gas: 1)\n  2130: t0 = 46, jump @1652\n      : @92 [@dyn 23] (gas: 1)\n  2136: jump @94 if a1 <u a0\n      : @93 (gas: 1)\n  2139: jump @1276\n      : @94 (gas: 23)\n  2143: a0 = s1 + 0x4000\n  2147: i32 a0 = a0 + 0xfffffffffffffdc0\n  2151: a1 = 0x4\n  2154: ecalli 2 // 'call_data_load'\n  2156: a0 = s1 + 0x3998\n  2160: a5 = a0 + 0x400\n  2164: a1 = u64 [a5 + 0x40]\n  2167: a2 = u64 [a5 + 0x38]\n  2170: a3 = u64 [a5 + 0x30]\n  2173: a4 = u64 [a5 + 0x28]\n  2176: a0 = s1 + 0x2198\n  2180: a5 = s1 + 0x100\n  2184: u64 [a5 + 0xd8] = a1\n  2188: u64 [a0 + 0x6e0] = a1\n  2192: u64 [a5 + 0xd0] = a2\n  2196: u64 [a0 + 0x6d8] = a2\n  2200: u64 [a5 + 0xc8] = a3\n  2204: u64 [a0 + 0x6d0] = a3\n  2208: a1 = s1 + 0x2860\n  2212: u64 [a5 + 0xc0] = a4\n  2216: u64 [a0 + 0x6c8] = a4\n  2220: a0 = 0\n  2222: ra = 48, jump @19\n      : @95 [@dyn 24] (gas: 3)\n  2227: t0 = 0x32\n  2230: a1 = s1 + 0x2198\n  2234: fallthrough\n      : @96 [@dyn 25] (gas: 8)\n  2235: u64 [a1 + 1728] = 0\n  2239: u64 [a1 + 1720] = 0\n  2243: u64 [a1 + 1704] = 0x2\n  2248: a2 = a1\n  2250: a0 = 0x20\n  2253: a1 = s1 + 0x2840\n  2257: u64 [a2 + 1712] = 0\n  2261: ra = 52, jump @19\n      : @97 [@dyn 26] (gas: 2)\n  2266: a1 = i32 [0x2020c]\n  2271: jump @99 if a1 >u 63\n      : @98 (gas: 4)\n  2275: a1 = 0x40\n  2278: u32 [0x2020c] = a1\n  2283: t0 = 0x36\n  2286: jump @1615\n      : @99 (gas: 1)\n  2290: t0 = 54, jump @1615\n      : @100 [@dyn 27] (gas: 36)\n  2296: a0 = 0x20220\n  2301: i32 a0 = a0 + 0\n  2303: i32 a2 = a2 + 0\n  2305: a1 = 0x40\n  2308: u64 [s1 + 0x1b8] = a0\n  2312: ecalli 7 // 'hash_keccak_256'\n  2314: a3 = u64 [s1 + 0x218]\n  2318: a0 = u64 [a3]\n  2320: a1 = u64 [a3 + 0x8]\n  2323: a2 = u64 [a3 + 0x10]\n  2326: a3 = u64 [a3 + 0x18]\n  2329: a4 = reverse a0\n  2331: u64 [s1 + 0x210] = a4\n  2335: a5 = reverse a1\n  2337: u64 [s1 + 0x208] = a5\n  2341: a2 = reverse a2\n  2343: u64 [s1 + 0x200] = a2\n  2347: a0 = reverse a3\n  2349: u64 [s1 + 0x218] = a0\n  2353: t0 = a0 + 0xa\n  2356: a1 = t0 <u a0\n  2359: a0 = a2 + a1\n  2362: a3 = a0 <u a2\n  2365: a3 = a1 if a1 == 0\n  2368: a3 = a3 + a5\n  2371: a1 = a3 <u a5\n  2374: a1 = a1 + a4\n  2377: a4 = s1 + 0x3998\n  2381: u64 [a4 + 0x448] = t0\n  2385: a2 = a4 + 0x400\n  2389: u64 [a2 + 0x50] = a0\n  2392: u64 [a2 + 0x58] = a3\n  2395: u64 [a2 + 0x60] = a1\n  2398: a0 = s1 + 0x2820\n  2402: a1 = s1 + 0x3de0\n  2406: ra = 56, jump @21\n      : @101 [@dyn 28] (gas: 3)\n  2411: t0 = 0x3a\n  2414: a1 = s1 + 0x2198\n  2418: fallthrough\n      : @102 [@dyn 29] (gas: 7)\n  2419: a0 = u8 [a1 + 0x688]\n  2423: u64 [a1 + 1664] = 0\n  2427: u64 [a1 + 1656] = 0\n  2431: u64 [a1 + 0x668] = a0\n  2435: a0 = s1 + 0x2800\n  2439: u64 [a1 + 1648] = 0\n  2443: ra = 60, jump @1466\n      : @103 [@dyn 30] (gas: 5)\n  2449: a1 = u64 [s1 + 0x218]\n  2453: a0 = a1 + 0x6\n  2456: a1 = a0 <u a1\n  2459: a3 = u64 [s1 + 0x200]\n  2463: t0 = 62, jump @1621\n      : @104 [@dyn 31] (gas: 14)\n  2469: a1 = u64 [s1 + 0x208]\n  2473: a3 = a3 + a1\n  2476: a1 = a3 <u a1\n  2479: a4 = u64 [s1 + 0x210]\n  2483: a1 = a1 + a4\n  2486: a4 = s1 + 0x3998\n  2490: a5 = a4 + 0x400\n  2494: u64 [a5 + 0x80] = a1\n  2498: u64 [a5 + 0x78] = a3\n  2501: u64 [a5 + 0x70] = a2\n  2504: u64 [a5 + 0x68] = a0\n  2507: a0 = s1 + 0x27e0\n  2511: a1 = s1 + 0x3e00\n  2515: ra = 64, jump @21\n      : @105 [@dyn 32] (gas: 14)\n  2520: a0 = s1 + 0x2198\n  2524: a2 = a0 + 0x600\n  2528: a1 = u64 [a2 + 0x48]\n  2531: u64 [s1 + 0x1e8] = a1\n  2535: a1 = u64 [a2 + 0x50]\n  2538: u64 [s1 + 0x1e0] = a1\n  2542: a1 = u64 [a2 + 0x58]\n  2545: u64 [s1 + 0x1f8] = a1\n  2549: a0 = u64 [a2 + 0x60]\n  2552: u64 [s1 + 0x1f0] = a0\n  2556: a0 = s1 + 0x4000\n  2560: i32 a0 = a0 + 0xfffffffffffffe20\n  2564: ecalli 8 // 'now'\n  2566: fallthrough\n      : @106 (gas: 24)\n  2567: a2 = s1 + 0x3998\n  2571: a0 = u64 [a2 + 0x490]\n  2575: a1 = u64 [a2 + 0x488]\n  2579: a4 = a2\n  2581: a3 = u64 [s1 + 0x1e0]\n  2585: a2 = a0 ^ a3\n  2588: a0 = a0 <u a3\n  2591: a3 = u64 [a4 + 0x4a0]\n  2595: a5 = u64 [s1 + 0x1e8]\n  2599: a1 = a1 <u a5\n  2602: a4 = u64 [a4 + 0x498]\n  2606: a1 = a0 if a2 != 0\n  2609: a2 = u64 [s1 + 0x1f0]\n  2613: a0 = a3 ^ a2\n  2616: a2 = a3 <u a2\n  2619: a5 = u64 [s1 + 0x1f8]\n  2623: a3 = a4 <u a5\n  2626: a3 = a2 if a0 != 0\n  2629: a2 = a4 ^ a5\n  2632: a0 = a0 | a2\n  2635: a1 = a3 if a0 != 0\n  2638: a4 = u64 [s1 + 0x218]\n  2642: a4 = a4 + 0x7\n  2645: jump @112 if a1 == 0\n      : @107 (gas: 21)\n  2649: a0 = u64 [s1 + 0x218]\n  2653: a0 = a4 <u a0\n  2656: a2 = u64 [s1 + 0x200]\n  2660: a1 = a2 + a0\n  2663: a2 = a1 <u a2\n  2666: a2 = a0 if a0 == 0\n  2669: a0 = u64 [s1 + 0x208]\n  2673: a2 = a2 + a0\n  2676: a0 = a2 <u a0\n  2679: a3 = u64 [s1 + 0x210]\n  2683: a0 = a0 + a3\n  2686: a3 = s1 + 0x3998\n  2690: a5 = a3 + 0x400\n  2694: u64 [a5 + 0xa8] = a4\n  2698: u64 [a5 + 0xb0] = a1\n  2702: u64 [a5 + 0xb8] = a2\n  2706: u64 [a5 + 0xc0] = a0\n  2710: a0 = s1 + 0x27c0\n  2714: a1 = s1 + 0x3e40\n  2718: u64 [s1 + 0x1f8] = a4\n  2722: ra = 66, jump @21\n      : @108 [@dyn 33] (gas: 16)\n  2727: a1 = s1 + 0x2198\n  2731: a2 = a1 + 0x600\n  2735: a0 = u64 [a2 + 0x28]\n  2738: u64 [s1 + 0x1f0] = a0\n  2742: a0 = u64 [a2 + 0x38]\n  2745: u64 [s1 + 0x1e8] = a0\n  2749: a0 = u64 [a2 + 0x30]\n  2752: u64 [s1 + 0x1e0] = a0\n  2756: a0 = u64 [a2 + 0x40]\n  2759: u64 [s1 + 0x1b0] = a0\n  2763: a5 = s1 + 0x200\n  2767: a1 = u64 [a5 + 0x18]\n  2770: a0 = a1 + 0x5\n  2773: a1 = a0 <u a1\n  2776: a3 = u64 [a5]\n  2778: t0 = 68, jump @1621\n      : @109 [@dyn 34] (gas: 14)\n  2784: a1 = u64 [a5 + 0x8]\n  2787: a3 = a3 + a1\n  2790: a1 = a3 <u a1\n  2793: a4 = u64 [a5 + 0x10]\n  2796: a1 = a1 + a4\n  2799: a4 = s1 + 0x3998\n  2803: a5 = a4 + 0x400\n  2807: u64 [a5 + 0xe0] = a1\n  2811: u64 [a5 + 0xd8] = a3\n  2815: u64 [a5 + 0xd0] = a2\n  2819: u64 [a5 + 0xc8] = a0\n  2823: a0 = s1 + 0x27a0\n  2827: a1 = s1 + 0x3e60\n  2831: ra = 70, jump @21\n      : @110 [@dyn 35] (gas: 19)\n  2836: a4 = u64 [s1 + 0x1f8]\n  2840: a3 = s1 + 0x2198\n  2844: a5 = a3 + 0x600\n  2848: a0 = u64 [a5 + 0x20]\n  2851: a1 = u64 [a5 + 0x10]\n  2854: a2 = u64 [a5 + 0x8]\n  2857: a3 = u64 [a5 + 0x18]\n  2860: a5 = u64 [s1 + 0x1b0]\n  2864: a0 = a0 ^ a5\n  2867: a5 = u64 [s1 + 0x1e0]\n  2871: a1 = a1 ^ a5\n  2874: a0 = a0 | a1\n  2877: a1 = u64 [s1 + 0x1e8]\n  2881: a1 = a1 ^ a3\n  2884: a3 = u64 [s1 + 0x1f0]\n  2888: a2 = a2 ^ a3\n  2891: a1 = a1 | a2\n  2894: a0 = a0 | a1\n  2897: jump @112 if a0 == 0\n      : @111 (gas: 1)\n  2900: jump @833\n      : @112 (gas: 21)\n  2903: a5 = s1 + 0x200\n  2907: a0 = u64 [a5 + 0x18]\n  2910: a0 = a4 <u a0\n  2913: a2 = u64 [a5]\n  2915: a1 = a2 + a0\n  2918: a2 = a1 <u a2\n  2921: a2 = a0 if a0 == 0\n  2924: a0 = u64 [a5 + 0x8]\n  2927: a2 = a2 + a0\n  2930: a0 = a2 <u a0\n  2933: a3 = u64 [a5 + 0x10]\n  2936: a0 = a0 + a3\n  2939: a3 = s1 + 0x3998\n  2943: a5 = a3 + 0x400\n  2947: u64 [a5 + 0xe8] = a4\n  2951: u64 [a5 + 0xf0] = a1\n  2955: u64 [a5 + 0xf8] = a2\n  2959: u64 [a3 + 0x500] = a0\n  2963: a0 = s1 + 0x26c0\n  2967: a1 = s1 + 0x3e80\n  2971: ra = 72, jump @21\n      : @113 [@dyn 36] (gas: 10)\n  2976: a3 = s1 + 0x2198\n  2980: a4 = a3 + 0x500\n  2984: a0 = u64 [a4 + 0x38]\n  2987: a1 = u64 [a4 + 0x40]\n  2990: a2 = u64 [a4 + 0x30]\n  2993: a3 = u64 [a4 + 0x28]\n  2996: a1 = a1 | a2\n  2999: a0 = a0 | a3\n  3002: a0 = a0 | a1\n  3005: jump @115 if a0 == 0\n      : @114 (gas: 1)\n  3008: jump @1304\n      : @115 (gas: 3)\n  3012: a0 = s1 + 0x2680\n  3016: a1 = 0x40\n  3019: ra = 74, jump @17\n      : @116 [@dyn 37] (gas: 14)\n  3024: a2 = s1 + 0x2198\n  3028: t0 = u64 [a2 + 0x500]\n  3032: a1 = a2 + 0x400\n  3036: a5 = u64 [a1 + 0xf8]\n  3040: a4 = u64 [a1 + 0xf0]\n  3044: a0 = u64 [a1 + 0xe8]\n  3048: a3 = a4 | t0\n  3051: a1 = a0 | a5\n  3054: a1 = a1 | a3\n  3057: a1 = a1 >> 0x20\n  3060: a3 = a3 | a5\n  3063: a3 = a3 << 0x20\n  3066: a1 = a1 | a3\n  3069: jump @118 if a1 == 0\n      : @117 (gas: 1)\n  3072: jump @1111\n      : @118 (gas: 11)\n  3075: u64 [a2 + 1240] = 0\n  3079: u64 [a2 + 1232] = 0\n  3083: u64 [a2 + 1224] = 0\n  3087: a3 = 0x8c379a000000000\n  3097: a1 = s1 + 0x2660\n  3101: u64 [a2 + 0x4e0] = a3\n  3105: u64 [s1 + 0x218] = a0\n  3109: u64 [s1 + 0x210] = a4\n  3113: u64 [s1 + 0x200] = t0\n  3117: u64 [s1 + 0x208] = a5\n  3121: ra = 76, jump @19\n      : @119 [@dyn 38] (gas: 1)\n  3126: t0 = 78, jump @1589\n      : @120 [@dyn 39] (gas: 1)\n  3132: jump @122 if a0 != 0\n      : @121 (gas: 1)\n  3135: jump @1111\n      : @122 (gas: 1)\n  3138: t0 = 80, jump @1618\n      : @123 [@dyn 40] (gas: 8)\n  3144: u64 [a2 + 1216] = 0\n  3148: u64 [a2 + 1208] = 0\n  3152: u64 [a2 + 1192] = 0x20\n  3157: a1 = s1 + 0x2640\n  3161: u64 [a2 + 1200] = 0\n  3165: u64 [s1 + 0x208] = a3\n  3169: u64 [s1 + 0x200] = a4\n  3173: ra = 82, jump @19\n      : @124 [@dyn 41] (gas: 1)\n  3178: t0 = 84, jump @1592\n      : @125 [@dyn 42] (gas: 1)\n  3184: jump @127 if a0 != 0\n      : @126 (gas: 1)\n  3187: jump @1111\n      : @127 (gas: 1)\n  3190: t0 = 86, jump @1638\n      : @128 [@dyn 43] (gas: 6)\n  3196: u64 [a3 + 1184] = 0\n  3200: u64 [a3 + 1176] = 0\n  3204: u64 [a3 + 1160] = 0xf\n  3209: a1 = s1 + 0x2620\n  3213: u64 [a3 + 1168] = 0\n  3217: ra = 88, jump @19\n      : @129 [@dyn 44] (gas: 1)\n  3222: t0 = 90, jump @1593\n      : @130 [@dyn 45] (gas: 1)\n  3228: jump @132 if a0 != 0\n      : @131 (gas: 1)\n  3231: jump @1111\n      : @132 (gas: 11)\n  3234: i32 a0 = a3 + 0x44\n  3237: a1 = u64 [0x20080]\n  3242: a2 = u64 [0x20088]\n  3247: a4 = s1 + 0x2198\n  3251: u64 [a4 + 0x480] = a1\n  3255: u64 [a4 + 1136] = 0\n  3259: u64 [a4 + 0x478] = a2\n  3263: a1 = s1 + 0x2600\n  3267: u64 [a4 + 1128] = 0\n  3271: ra = 0x3ba\n  3275: jump @19\n      : @133 (gas: 10)\n  3278: u64 [a2 + 1504] = 0\n  3282: u64 [a2 + 1496] = 0\n  3286: u64 [a2 + 1488] = 0\n  3290: u64 [a2 + 1480] = 0\n  3294: a0 = s1 + 0x4000\n  3298: i32 a0 = a0 + 0xffffffffffffff60\n  3302: ra = 0x5c\n  3305: ecalli 15 // 'value_transferred'\n  3307: t0 = 0x5e\n  3310: jump @1617\n      : @134 [@dyn 46] (gas: 1)\n  3314: t0 = 94, jump @1617\n      : @135 [@dyn 47] (gas: 1)\n  3320: t0 = 96, jump @1657\n      : @136 [@dyn 48] (gas: 1)\n  3326: jump @138 if a0 == 0\n      : @137 (gas: 1)\n  3329: jump @1277\n      : @138 (gas: 1)\n  3332: t0 = 98, jump @1652\n      : @139 [@dyn 49] (gas: 1)\n  3338: jump @141 if a1 <u a0\n      : @140 (gas: 1)\n  3341: jump @1278\n      : @141 (gas: 24)\n  3344: a0 = s1 + 0x4000\n  3348: i32 a0 = a0 + 0xffffffffffffff80\n  3351: a1 = 0x4\n  3354: ecalli 2 // 'call_data_load'\n  3356: a0 = s1 + 0x3998\n  3360: a4 = u64 [a0 + 0x600]\n  3364: a5 = a0 + 0x500\n  3368: a3 = u64 [a5 + 0xf8]\n  3372: a1 = u64 [a5 + 0xf0]\n  3376: a2 = u64 [a5 + 0xe8]\n  3380: a0 = s1 + 0x2998\n  3384: a5 = s1 + 0x100\n  3388: u64 [a5 + 0xb8] = a4\n  3392: u64 [a0 + 0x620] = a4\n  3396: u64 [a5 + 0xc0] = a3\n  3400: a4 = a0 + 0x600\n  3404: u64 [a4 + 0x18] = a3\n  3407: u64 [a5 + 0xc8] = a1\n  3411: u64 [a4 + 0x10] = a1\n  3414: a1 = s1 + 0x2fa0\n  3418: u64 [a5 + 0xd0] = a2\n  3422: u64 [a4 + 0x8] = a2\n  3425: a0 = 0\n  3427: ra = 100, jump @19\n      : @142 [@dyn 50] (gas: 9)\n  3432: a1 = s1 + 0x2998\n  3436: u64 [a1 + 1536] = 0\n  3440: u64 [a1 + 1528] = 0\n  3444: u64 [a1 + 1512] = 0x2\n  3449: a2 = a1\n  3451: a0 = 0x20\n  3454: a1 = s1 + 0x2f80\n  3458: u64 [a2 + 1520] = 0\n  3462: ra = 102, jump @19\n      : @143 [@dyn 51] (gas: 2)\n  3467: a1 = i32 [0x2020c]\n  3472: jump @145 if a1 >u 63\n      : @144 (gas: 4)\n  3476: a1 = 0x40\n  3479: u32 [0x2020c] = a1\n  3484: t0 = 0x68\n  3487: jump @1615\n      : @145 (gas: 1)\n  3491: t0 = 104, jump @1615\n      : @146 [@dyn 52] (gas: 10)\n  3497: a0 = 0x20220\n  3502: u64 [s1 + 0x1d8] = a0\n  3506: i32 a0 = a0 + 0\n  3508: i32 a2 = a2 + 0\n  3510: a1 = 0x40\n  3513: u64 [s1 + 0x1b0] = a0\n  3517: ra = 0x6a\n  3520: ecalli 7 // 'hash_keccak_256'\n  3522: t0 = 0x6c\n  3525: jump @1607\n      : @147 [@dyn 53] (gas: 1)\n  3529: t0 = 108, jump @1607\n      : @148 [@dyn 54] (gas: 2)\n  3535: a0 = s1 + 0x2f60\n  3539: ra = 110, jump @1508\n      : @149 [@dyn 55] (gas: 15)\n  3545: a1 = s1 + 0x2998\n  3549: a2 = a1 + 0x500\n  3553: a0 = u64 [a2 + 0xe0]\n  3557: u64 [s1 + 0x1e0] = a0\n  3561: a0 = u64 [a2 + 0xd8]\n  3565: u64 [s1 + 0x1f0] = a0\n  3569: a0 = u64 [a2 + 0xd0]\n  3573: a4 = a1\n  3575: u64 [s1 + 0x1f8] = a0\n  3579: a5 = s1 + 0x200\n  3583: a1 = u64 [a5]\n  3585: a0 = a1 + 0x8\n  3588: a1 = a0 <u a1\n  3591: a3 = u64 [a5 + 0x8]\n  3594: t0 = 112, jump @1621\n      : @150 [@dyn 56] (gas: 16)\n  3600: a1 = u64 [a4 + 0x5c8]\n  3604: u64 [s1 + 0x1e8] = a1\n  3608: a1 = s1 + 0x3998\n  3612: a4 = a1 + 0x600\n  3616: u64 [a4 + 0x8] = a0\n  3619: u64 [a4 + 0x10] = a2\n  3622: a0 = u64 [a5 + 0x10]\n  3625: a3 = a3 + a0\n  3628: u64 [a4 + 0x18] = a3\n  3631: a0 = a3 <u a0\n  3634: a2 = u64 [a5 + 0x18]\n  3637: a0 = a0 + a2\n  3640: u64 [a4 + 0x20] = a0\n  3643: a0 = s1 + 0x2f40\n  3647: a1 = s1 + 0x3fa0\n  3651: ra = 114, jump @21\n      : @151 [@dyn 57] (gas: 16)\n  3656: a2 = s1 + 0x2998\n  3660: a0 = u32 [a2 + 0x5b8]\n  3664: a1 = u64 [a2 + 0x5a8]\n  3668: a2 = u64 [a2 + 0x5b0]\n  3672: a4 = s1 + 0x100\n  3676: a3 = u64 [a4 + 0xf0]\n  3680: a0 = a0 ^ a3\n  3683: a3 = u64 [a4 + 0xe8]\n  3687: a1 = a1 ^ a3\n  3690: a0 = a0 | a1\n  3693: a1 = u64 [a4 + 0xf8]\n  3697: a1 = a1 ^ a2\n  3700: a2 = u64 [a4 + 0xe0]\n  3704: a1 = a1 | a2\n  3707: a0 = a0 | a1\n  3710: jump @153 if a0 == 0\n      : @152 (gas: 1)\n  3713: jump @688\n      : @153 (gas: 1)\n  3716: t0 = 116, jump @1651\n      : @154 [@dyn 58] (gas: 7)\n  3722: a0 = a2 + 0xa\n  3725: a4 = a0 <u a2\n  3728: a3 = u64 [s1 + 0x208]\n  3732: a2 = a3 + a4\n  3735: a3 = a2 <u a3\n  3738: a3 = a4 if a4 == 0\n  3741: t0 = 118, jump @1634\n      : @155 [@dyn 59] (gas: 4)\n  3747: i32 a0 = a0 + 0xfffffffffffffe80\n  3751: a0 = a0 + s1\n  3754: u64 [s1 + 0x1a8] = a1\n  3758: ra = 120, jump @21\n      : @156 [@dyn 60] (gas: 4)\n  3763: a3 = s1 + 0x2998\n  3767: a1 = u64 [a3 + 0x4e8]\n  3771: a0 = a1 & 0xff00\n  3776: jump @158 if a0 == 0\n      : @157 (gas: 1)\n  3779: jump @781\n      : @158 (gas: 3)\n  3782: a0 = s1 + 0x2c60\n  3786: a1 = 0x40\n  3789: ra = 122, jump @17\n      : @159 [@dyn 61] (gas: 14)\n  3794: a2 = s1 + 0x2998\n  3798: t0 = u64 [a2 + 0x2e0]\n  3802: a1 = a2 + 0x200\n  3806: a5 = u64 [a1 + 0xd8]\n  3810: a4 = u64 [a1 + 0xd0]\n  3814: a0 = u64 [a1 + 0xc8]\n  3818: a3 = a4 | t0\n  3821: a1 = a0 | a5\n  3824: a1 = a1 | a3\n  3827: a1 = a1 >> 0x20\n  3830: a3 = a3 | a5\n  3833: a3 = a3 << 0x20\n  3836: a1 = a1 | a3\n  3839: jump @161 if a1 == 0\n      : @160 (gas: 1)\n  3842: jump @1111\n      : @161 (gas: 11)\n  3845: u64 [a2 + 696] = 0\n  3849: u64 [a2 + 688] = 0\n  3853: u64 [a2 + 680] = 0\n  3857: a3 = 0x8c379a000000000\n  3867: a1 = s1 + 0x2c40\n  3871: u64 [a2 + 0x2c0] = a3\n  3875: u64 [s1 + 0x218] = a0\n  3879: u64 [s1 + 0x210] = a4\n  3883: u64 [s1 + 0x200] = t0\n  3887: u64 [s1 + 0x208] = a5\n  3891: ra = 124, jump @19\n      : @162 [@dyn 62] (gas: 1)\n  3896: t0 = 126, jump @1589\n      : @163 [@dyn 63] (gas: 1)\n  3902: jump @165 if a0 != 0\n      : @164 (gas: 1)\n  3905: jump @1111\n      : @165 (gas: 1)\n  3908: t0 = 128, jump @1640\n      : @166 [@dyn 64] (gas: 8)\n  3915: u64 [a2 + 672] = 0\n  3919: u64 [a2 + 664] = 0\n  3923: u64 [a2 + 648] = 0x20\n  3928: a1 = s1 + 0x2c20\n  3932: u64 [a2 + 656] = 0\n  3936: u64 [s1 + 0x208] = a3\n  3940: u64 [s1 + 0x200] = a4\n  3944: ra = 130, jump @19\n      : @167 [@dyn 65] (gas: 1)\n  3950: t0 = 132, jump @1592\n      : @168 [@dyn 66] (gas: 1)\n  3957: jump @170 if a0 != 0\n      : @169 (gas: 1)\n  3960: jump @1111\n      : @170 (gas: 1)\n  3963: t0 = 134, jump @1639\n      : @171 [@dyn 67] (gas: 6)\n  3970: u64 [a3 + 640] = 0\n  3974: u64 [a3 + 632] = 0\n  3978: u64 [a3 + 616] = 0x13\n  3983: a1 = s1 + 0x2c00\n  3987: u64 [a3 + 624] = 0\n  3991: ra = 136, jump @19\n      : @172 [@dyn 68] (gas: 1)\n  3997: t0 = 138, jump @1593\n      : @173 [@dyn 69] (gas: 1)\n  4004: jump @175 if a0 != 0\n      : @174 (gas: 1)\n  4007: jump @1111\n      : @175 (gas: 13)\n  4010: i32 a0 = a3 + 0x44\n  4013: a1 = u64 [0x20050]\n  4018: a2 = u64 [0x20058]\n  4023: a4 = s1 + 0x2998\n  4027: a3 = a4 + 0x200\n  4031: u64 [a3 + 0x60] = a1\n  4034: u64 [a3 + 0x58] = a2\n  4037: a1 = 0x626c650000000000\n  4047: u64 [a3 + 0x50] = a1\n  4050: a1 = s1 + 0x2be0\n  4054: u64 [a4 + 584] = 0\n  4058: ra = 0x3ba\n  4062: jump @19\n      : @176 (gas: 10)\n  4065: u64 [a2 + 384] = 0\n  4069: u64 [a2 + 376] = 0\n  4073: u64 [a2 + 368] = 0\n  4077: u64 [a2 + 360] = 0\n  4081: a0 = s1 + 0x4000\n  4085: i32 a0 = a0 + 0xfffffffffffffb00\n  4089: ra = 0x8c\n  4093: ecalli 15 // 'value_transferred'\n  4095: t0 = 0x8e\n  4099: jump @1654\n      : @177 [@dyn 70] (gas: 1)\n  4103: t0 = 142, jump @1654\n      : @178 [@dyn 71] (gas: 8)\n  4110: a0 = u64 [a4 + 0x78]\n  4113: a1 = u64 [a4 + 0x80]\n  4117: a2 = u64 [a4 + 0x70]\n  4120: a3 = u64 [a4 + 0x68]\n  4123: a1 = a1 | a2\n  4126: a0 = a0 | a3\n  4129: a0 = a0 | a1\n  4132: jump @180 if a0 == 0\n      : @179 (gas: 1)\n  4135: jump @1279\n      : @180 (gas: 1)\n  4138: t0 = 144, jump @1652\n      : @181 [@dyn 72] (gas: 1)\n  4145: jump @183 if a1 <u a0\n      : @182 (gas: 1)\n  4148: jump @1280\n      : @183 (gas: 5)\n  4151: a0 = s1 + 0x4000\n  4155: i32 a0 = a0 + 0xfffffffffffffb20\n  4159: a1 = 0x4\n  4162: ecalli 2 // 'call_data_load'\n  4164: fallthrough\n      : @184 (gas: 13)\n  4165: a2 = s1 + 0x3998\n  4169: a1 = u64 [a2 + 0x198]\n  4173: a3 = u64 [a2 + 0x1a0]\n  4177: a0 = 0x100000000\n  4187: a0 = a0 ^ a1\n  4190: a0 = a0 | a3\n  4193: u64 [s1 + 0x210] = a1\n  4197: a1 = a1 >> 0x20\n  4200: a1 = a1 <u 0x1\n  4203: u64 [s1 + 0x218] = a3\n  4207: a1 = 0 if a3 != 0\n  4209: a1 = 0 if a0 == 0\n  4211: jump @186 if a1 != 0\n      : @185 (gas: 1)\n  4214: jump @1281\n      : @186 (gas: 11)\n  4217: a0 = u64 [a2 + 0x190]\n  4221: u64 [s1 + 0x208] = a0\n  4225: a0 = u64 [a2 + 0x188]\n  4229: u64 [s1 + 0x200] = a0\n  4233: u64 [a2 + 448] = 0\n  4237: u64 [a2 + 440] = 0\n  4241: u64 [a2 + 432] = 0\n  4245: u64 [a2 + 424] = 0\n  4249: a0 = s1 + 0x1e20\n  4253: a1 = s1 + 0x3b40\n  4257: ra = 146, jump @21\n      : @187 [@dyn 73] (gas: 3)\n  4263: t0 = 0x94\n  4267: a1 = s1 + 0x1998\n  4271: fallthrough\n      : @188 [@dyn 74] (gas: 11)\n  4272: a2 = a1 + 0x400\n  4276: a0 = u64 [a2 + 0x98]\n  4280: a1 = s1 + 0x100\n  4284: u64 [a1 + 0xe8] = a0\n  4288: a0 = u64 [a2 + 0x90]\n  4292: u64 [a1 + 0xf8] = a0\n  4296: a0 = u64 [a2 + 0x88]\n  4300: u64 [a1 + 0xf0] = a0\n  4304: a0 = s1 + 0x1e00\n  4308: a1 = 0x40\n  4311: ra = 150, jump @17\n      : @189 [@dyn 75] (gas: 14)\n  4317: a3 = s1 + 0x1998\n  4321: a4 = a3 + 0x400\n  4325: a0 = u64 [a4 + 0x80]\n  4329: a1 = u64 [a4 + 0x78]\n  4332: a2 = u64 [a4 + 0x70]\n  4335: a5 = u64 [a4 + 0x68]\n  4338: a0 = a0 | a2\n  4341: a2 = a5 | a1\n  4344: a2 = a2 | a0\n  4347: a2 = a2 >> 0x20\n  4350: a0 = a0 | a1\n  4353: a0 = a0 << 0x20\n  4356: a0 = a0 | a2\n  4359: jump @191 if a0 == 0\n      : @190 (gas: 1)\n  4362: jump @1111\n      : @191 (gas: 25)\n  4365: a0 = u64 [s1 + 0x1e8]\n  4369: a0 = a0 << 0x20\n  4372: a0 = a0 >> 0x20\n  4375: a1 = u64 [s1 + 0x200]\n  4379: a2 = u64 [s1 + 0x1f0]\n  4383: a1 = a1 ^ a2\n  4386: a2 = u64 [s1 + 0x210]\n  4390: a0 = a0 ^ a2\n  4393: a2 = u64 [s1 + 0x208]\n  4397: a4 = u64 [s1 + 0x1f8]\n  4401: a2 = a2 ^ a4\n  4404: a4 = u64 [s1 + 0x218]\n  4408: a2 = a2 | a4\n  4411: a1 = a1 | a2\n  4414: a0 = a0 | a1\n  4417: a0 = a0 <u 0x1\n  4420: u64 [a3 + 1120] = 0\n  4424: u64 [a3 + 1112] = 0\n  4428: u64 [a3 + 0x448] = a0\n  4432: a1 = s1 + 0x1de0\n  4436: u64 [a3 + 1104] = 0\n  4440: a0 = a5\n  4442: u64 [s1 + 0x218] = a5\n  4446: ra = 0x230\n  4450: jump @19\n      : @192 (gas: 11)\n  4453: a0 = s1 + 0x3998\n  4457: u64 [a0 + 1440] = 0\n  4461: u64 [a0 + 1432] = 0\n  4465: u64 [a0 + 1424] = 0\n  4469: u64 [a0 + 1416] = 0\n  4473: a0 = s1 + 0x4000\n  4477: i32 a0 = a0 + 0xffffffffffffff20\n  4481: ra = 0x98\n  4485: ecalli 15 // 'value_transferred'\n  4487: t0 = 0x9a\n  4491: jump @1617\n      : @193 [@dyn 76] (gas: 1)\n  4495: t0 = 154, jump @1617\n      : @194 [@dyn 77] (gas: 8)\n  4502: a0 = u64 [a4 + 0x98]\n  4506: a1 = u64 [a4 + 0xa0]\n  4510: a2 = u64 [a4 + 0x90]\n  4514: a3 = u64 [a4 + 0x88]\n  4518: a1 = a1 | a2\n  4521: a0 = a0 | a3\n  4524: a0 = a0 | a1\n  4527: jump @196 if a0 == 0\n      : @195 (gas: 1)\n  4530: jump @1282\n      : @196 (gas: 1)\n  4533: t0 = 156, jump @1652\n      : @197 [@dyn 78] (gas: 1)\n  4540: jump @199 if a1 <u a0\n      : @198 (gas: 1)\n  4543: jump @1283\n      : @199 (gas: 7)\n  4546: a0 = s1 + 0x4000\n  4550: i32 a0 = a0 + 0xffffffffffffff40\n  4554: a1 = 0x4\n  4557: ra = 0x9e\n  4561: ecalli 2 // 'call_data_load'\n  4563: t0 = 0xa0\n  4567: jump @1617\n      : @200 [@dyn 79] (gas: 1)\n  4571: t0 = 160, jump @1617\n      : @201 [@dyn 80] (gas: 13)\n  4578: a0 = u64 [a4 + 0xa8]\n  4582: a1 = u64 [a4 + 0xb0]\n  4586: a2 = u64 [a4 + 0xb8]\n  4590: a3 = u64 [a4 + 0xc0]\n  4594: a4 = s1 + 0x2998\n  4598: a5 = a4 + 0x200\n  4602: u64 [a5 + 0x40] = a3\n  4605: u64 [a5 + 0x38] = a2\n  4608: u64 [a5 + 0x30] = a1\n  4611: a1 = s1 + 0x2bc0\n  4615: u64 [a5 + 0x28] = a0\n  4618: a0 = 0\n  4620: ra = 162, jump @19\n      : @202 [@dyn 81] (gas: 9)\n  4626: a1 = s1 + 0x2998\n  4630: u64 [a1 + 544] = 0\n  4634: u64 [a1 + 536] = 0\n  4638: u64 [a1 + 520] = 0x2\n  4643: a2 = a1\n  4645: a0 = 0x20\n  4648: a1 = s1 + 0x2ba0\n  4652: u64 [a2 + 528] = 0\n  4656: ra = 164, jump @19\n      : @203 [@dyn 82] (gas: 7)\n  4662: a0 = sp + 0xffffffffffffffe0\n  4665: a0 = a0 & 0xffffffffffffffe0\n  4668: u64 [s1 + 0x218] = a0\n  4672: sp = a0\n  4674: a2 = 0x2020c\n  4679: a0 = i32 [0x2020c]\n  4684: jump @205 if a0 >u 63\n      : @204 (gas: 2)\n  4688: u32 [0x2020c] = 0x40\n  4694: fallthrough\n      : @205 (gas: 15)\n  4695: u64 [s1 + 0x208] = a2\n  4699: a0 = sp + 0xffffffffffffffe0\n  4702: a2 = a0 & 0xffffffffffffffe0\n  4705: u64 [s1 + 0x210] = a2\n  4709: sp = a2\n  4711: a0 = 0x20220\n  4716: i32 a0 = a0 + 0\n  4718: i32 a2 = a2 + 0\n  4720: a1 = 0x40\n  4723: u64 [s1 + 0x200] = a0\n  4727: ra = 0xa6\n  4731: ecalli 7 // 'hash_keccak_256'\n  4733: a3 = u64 [s1 + 0x210]\n  4737: t0 = 0xa8\n  4741: jump @1610\n      : @206 [@dyn 83] (gas: 2)\n  4745: a3 = u64 [s1 + 0x210]\n  4749: t0 = 168, jump @1610\n      : @207 [@dyn 84] (gas: 20)\n  4756: a4 = a3 + 0x7\n  4759: a3 = a4 <u a3\n  4762: a5 = a2 + a3\n  4765: a2 = a5 <u a2\n  4768: a2 = a3 if a3 == 0\n  4771: a2 = a2 + a1\n  4774: a1 = a2 <u a1\n  4777: a0 = a0 + a1\n  4780: u64 [s1 + 0x210] = a4\n  4784: a1 = u64 [s1 + 0x218]\n  4788: u64 [a1] = a4\n  4790: u64 [s1 + 0x1f8] = a5\n  4794: u64 [a1 + 0x8] = a5\n  4797: u64 [s1 + 0x1f0] = a2\n  4801: u64 [a1 + 0x10] = a2\n  4804: u64 [s1 + 0x1e8] = a0\n  4808: u64 [a1 + 0x18] = a0\n  4811: a0 = s1 + 0x2b80\n  4815: a1 = 0x40\n  4818: ra = 170, jump @17\n      : @208 [@dyn 85] (gas: 13)\n  4824: a0 = s1 + 0x2998\n  4828: a1 = u64 [a0 + 0x200]\n  4832: u64 [s1 + 0x150] = a1\n  4836: a2 = a0 + 0x100\n  4840: a1 = u64 [a2 + 0xf8]\n  4844: u64 [s1 + 0x148] = a1\n  4848: a1 = u64 [a2 + 0xf0]\n  4852: u64 [s1 + 0x140] = a1\n  4856: a0 = u64 [a2 + 0xe8]\n  4860: u64 [s1 + 0x158] = a0\n  4864: a0 = s1 + 0x2b60\n  4868: a1 = u64 [s1 + 0x218]\n  4872: ra = 172, jump @21\n      : @209 [@dyn 86] (gas: 7)\n  4878: a1 = s1 + 0x100\n  4882: a4 = u64 [a1 + 0x40]\n  4885: a3 = u64 [a1 + 0x48]\n  4888: a0 = u64 [a1 + 0x58]\n  4891: a2 = u64 [a1 + 0x50]\n  4894: a2 = a2 | a4\n  4897: t0 = 174, jump @1623\n      : @210 [@dyn 87] (gas: 1)\n  4904: jump @212 if a1 == 0\n      : @211 (gas: 1)\n  4907: jump @1111\n      : @212 (gas: 17)\n  4910: a1 = s1 + 0x2998\n  4914: t0 = u64 [a1 + 0x1e0]\n  4918: t1 = u64 [a1 + 0x1d8]\n  4922: a3 = a1 + 0x100\n  4926: a5 = u64 [a3 + 0xd0]\n  4930: a2 = u64 [a3 + 0xc8]\n  4934: u64 [s1 + 0x180] = a2\n  4938: u64 [a3 + 0xa8] = a2\n  4942: u64 [s1 + 0x188] = a5\n  4946: u64 [a3 + 0xb0] = a5\n  4950: u64 [s1 + 0x190] = t1\n  4954: u64 [a1 + 0x1b8] = t1\n  4958: a2 = a1\n  4960: a1 = s1 + 0x2b40\n  4964: u64 [s1 + 0x198] = t0\n  4968: u64 [a2 + 0x1c0] = t0\n  4972: ra = 176, jump @19\n      : @213 [@dyn 88] (gas: 28)\n  4978: a1 = u64 [s1 + 0x158]\n  4982: a0 = a1 + 0x20\n  4985: u64 [s1 + 0x168] = a0\n  4989: a0 = a0 <u a1\n  4992: a2 = u64 [s1 + 0x140]\n  4996: a1 = a2 + a0\n  4999: u64 [s1 + 0x178] = a1\n  5003: a1 = a1 <u a2\n  5006: a1 = a0 if a0 == 0\n  5009: a0 = u64 [s1 + 0x148]\n  5013: a1 = a1 + a0\n  5016: u64 [s1 + 0x160] = a1\n  5020: a0 = a1 <u a0\n  5023: u64 [s1 + 0x218] = a0\n  5027: a0 = u64 [s1 + 0x1e8]\n  5031: a1 = s1 + 0x2998\n  5035: a2 = a1 + 0x100\n  5039: u64 [a2 + 0xa0] = a0\n  5043: a0 = u64 [s1 + 0x1f0]\n  5047: u64 [a2 + 0x98] = a0\n  5051: a0 = u64 [s1 + 0x1f8]\n  5055: u64 [a2 + 0x90] = a0\n  5059: a2 = a1\n  5061: a1 = s1 + 0x2b20\n  5065: a0 = u64 [s1 + 0x210]\n  5069: u64 [a2 + 0x188] = a0\n  5073: a0 = 0\n  5075: ra = 178, jump @19\n      : @214 [@dyn 89] (gas: 7)\n  5081: a0 = sp + 0xffffffffffffffe0\n  5084: a0 = a0 & 0xffffffffffffffe0\n  5087: u64 [s1 + 0x1a0] = a0\n  5091: sp = a0\n  5093: a2 = u64 [s1 + 0x208]\n  5097: a0 = i32 [a2]\n  5099: jump @216 if a0 >u 31\n      : @215 (gas: 2)\n  5103: u32 [a2 + 0] = 0x20\n  5106: fallthrough\n      : @216 (gas: 47)\n  5107: a0 = u64 [s1 + 0x150]\n  5111: a1 = u64 [s1 + 0x218]\n  5115: a0 = a0 + a1\n  5118: u64 [s1 + 0x170] = a0\n  5122: a0 = 0xffffffff\n  5132: u64 [s1 + 0x1a8] = a0\n  5136: a0 = sp + 0xffffffffffffffe0\n  5139: a0 = a0 & 0xffffffffffffffe0\n  5142: u64 [s1 + 0x218] = a0\n  5146: sp = a0\n  5148: i32 a2 = a0 + 0\n  5150: a1 = 0x20\n  5153: a0 = u64 [s1 + 0x200]\n  5157: ecalli 7 // 'hash_keccak_256'\n  5159: t0 = 0\n  5161: t1 = 0\n  5163: ra = 0\n  5165: u64 [s1 + 504] = 0\n  5169: a3 = u64 [s1 + 0x218]\n  5173: a0 = u64 [a3 + 0x18]\n  5176: a1 = u64 [a3 + 0x10]\n  5179: a2 = u64 [a3 + 0x8]\n  5182: a5 = u64 [a3]\n  5184: t2 = reverse a0\n  5186: a4 = reverse a1\n  5188: a3 = reverse a2\n  5190: a2 = reverse a5\n  5192: a1 = u64 [s1 + 0x1a0]\n  5196: a0 = a2\n  5198: u64 [a1 + 0x18] = a2\n  5201: u64 [s1 + 0x1d8] = a3\n  5205: u64 [a1 + 0x10] = a3\n  5208: a5 = a4\n  5210: u64 [a1 + 0x8] = a4\n  5213: u64 [s1 + 0x1e0] = t2\n  5217: u64 [a1] = t2\n  5219: a3 = s1 + 0x100\n  5223: a2 = u64 [a3 + 0x68]\n  5226: a4 = s1 + 0x200\n  5230: u64 [a4 + 0x18] = a2\n  5233: a2 = u64 [a3 + 0x78]\n  5236: u64 [a4 + 0x8] = a2\n  5239: a2 = u64 [a3 + 0x60]\n  5242: u64 [a4] = a2\n  5244: a2 = u64 [a3 + 0x70]\n  5247: u64 [a4 + 0x10] = a2\n  5250: fallthrough\n      : @217 (gas: 20)\n  5251: a4 = s1 + 0x100\n  5255: u64 [a4 + 0xe8] = a0\n  5259: u64 [a4 + 0xf0] = a5\n  5263: a0 = u64 [a4 + 0x80]\n  5267: a0 = t0 <u a0\n  5270: a2 = u64 [a4 + 0x88]\n  5274: a3 = t1 ^ a2\n  5277: a2 = t1 <u a2\n  5280: a2 = a0 if a3 == 0\n  5283: a0 = u64 [a4 + 0x90]\n  5287: t2 = ra <u a0\n  5290: a3 = u64 [a4 + 0x98]\n  5294: a5 = u64 [a4 + 0xf8]\n  5298: a4 = a5 ^ a3\n  5301: a3 = a5 <u a3\n  5304: a3 = t2 if a4 == 0\n  5307: a0 = ra ^ a0\n  5310: a0 = a0 | a4\n  5313: a3 = a2 if a0 == 0\n  5316: jump @219 if a3 != 0\n      : @218 (gas: 1)\n  5319: jump @761\n      : @219 (gas: 5)\n  5322: u64 [s1 + 0x1c0] = ra\n  5326: u64 [s1 + 0x1c8] = t1\n  5330: u64 [s1 + 0x1d0] = t0\n  5334: a0 = s1 + 0x2a00\n  5338: ra = 180, jump @21\n      : @220 [@dyn 90] (gas: 13)\n  5344: a1 = s1 + 0x200\n  5348: a5 = u64 [a1 + 0x18]\n  5351: a3 = u64 [a1]\n  5353: a0 = a5 | a3\n  5356: a2 = u64 [a1 + 0x10]\n  5359: t0 = u64 [s1 + 0x208]\n  5363: a1 = t0 | a2\n  5366: a0 = a0 | a1\n  5369: a0 = a0 >> 0x20\n  5372: a1 = a1 | a3\n  5375: a1 = a1 << 0x20\n  5378: a0 = a0 | a1\n  5381: jump @222 if a0 == 0\n      : @221 (gas: 1)\n  5384: jump @1111\n      : @222 (gas: 21)\n  5387: a0 = s1 + 0x2998\n  5391: u64 [s1 + 0x210] = a2\n  5395: u64 [s1 + 0x200] = a3\n  5399: a3 = a0\n  5401: a0 = u64 [a0 + 0x78]\n  5404: a1 = u64 [a3 + 0x70]\n  5407: a2 = u64 [a3 + 0x68]\n  5410: a4 = u64 [s1 + 0x1a8]\n  5414: a0 = a0 & a4\n  5417: a4 = 0xffffffffffffffff\n  5420: a1 = a1 & a4\n  5423: a2 = a2 & a4\n  5426: u64 [a3 + 96] = 0\n  5429: u64 [a3 + 0x48] = a2\n  5432: u64 [a3 + 0x50] = a1\n  5435: a1 = s1 + 0x29e0\n  5439: u64 [a3 + 0x58] = a0\n  5442: a0 = a5\n  5444: u64 [s1 + 0x218] = a5\n  5448: u64 [s1 + 0x208] = t0\n  5452: ra = 182, jump @19\n      : @223 [@dyn 91] (gas: 56)\n  5458: a1 = u64 [s1 + 0x218]\n  5462: a0 = a1 + 0x20\n  5465: u64 [s1 + 0x1b8] = a0\n  5469: a2 = a0 <u a1\n  5472: a1 = u64 [s1 + 0x208]\n  5476: a0 = a1 + a2\n  5479: u64 [s1 + 0x1b0] = a0\n  5483: a3 = a0 <u a1\n  5486: a3 = a2 if a2 == 0\n  5489: a0 = u64 [s1 + 0x200]\n  5493: ra = a0 + a3\n  5496: a3 = ra <u a0\n  5499: a0 = u64 [s1 + 0x210]\n  5503: a0 = a0 + a3\n  5506: u64 [s1 + 0x210] = a0\n  5510: t2 = u64 [s1 + 0x1e0]\n  5514: t2 = t2 + 0x1\n  5517: u64 [s1 + 0x1e0] = t2\n  5521: a3 = t2 <u 0x1\n  5524: a0 = u64 [s1 + 0x1f0]\n  5528: a0 = a0 + a3\n  5531: a3 = t2 | a0\n  5534: a3 = a3 <u 0x1\n  5537: a1 = u64 [s1 + 0x1d8]\n  5541: a3 = a3 + a1\n  5544: a4 = a3 <u a1\n  5547: a2 = u64 [s1 + 0x1e8]\n  5551: a2 = a2 + a4\n  5554: t0 = u64 [s1 + 0x1d0]\n  5558: t0 = t0 + 0x1\n  5561: a4 = t0 <u 0x1\n  5564: t1 = u64 [s1 + 0x1c8]\n  5568: t1 = t1 + a4\n  5571: a4 = t0 | t1\n  5574: a4 = a4 <u 0x1\n  5577: a5 = u64 [s1 + 0x1c0]\n  5581: a4 = a4 + a5\n  5584: a5 = a4 <u a5\n  5587: a1 = u64 [s1 + 0x1f8]\n  5591: a1 = a1 + a5\n  5594: u64 [s1 + 0x1f8] = a1\n  5598: a5 = a0\n  5600: a1 = u64 [s1 + 0x1a0]\n  5604: u64 [a1 + 0x8] = a0\n  5607: u64 [a1] = t2\n  5609: u64 [a1 + 0x10] = a3\n  5612: a0 = a2\n  5614: u64 [a1 + 0x18] = a2\n  5617: u64 [s1 + 0x1d8] = a3\n  5621: a2 = u64 [s1 + 0x1b8]\n  5625: u64 [s1 + 0x218] = a2\n  5629: a2 = u64 [s1 + 0x1b0]\n  5633: u64 [s1 + 0x208] = a2\n  5637: u64 [s1 + 0x200] = ra\n  5641: ra = a4\n  5643: jump @217\n      : @224 (gas: 8)\n  5646: u64 [a3 + 704] = 0\n  5650: u64 [a3 + 696] = 0\n  5654: u64 [a3 + 688] = 0\n  5658: u64 [a3 + 680] = 0\n  5662: a0 = s1 + 0x3000\n  5666: i32 a0 = a0 + 0x440\n  5670: ecalli 15 // 'value_transferred'\n  5672: fallthrough\n      : @225 (gas: 10)\n  5673: a3 = s1 + 0x3198\n  5677: a4 = a3 + 0x200\n  5681: a0 = u64 [a4 + 0xb8]\n  5685: a1 = u64 [a4 + 0xc0]\n  5689: a2 = u64 [a4 + 0xb0]\n  5693: a3 = u64 [a4 + 0xa8]\n  5697: a1 = a1 | a2\n  5700: a0 = a0 | a3\n  5703: a0 = a0 | a1\n  5706: jump @227 if a0 == 0\n      : @226 (gas: 1)\n  5709: jump @1284\n      : @227 (gas: 3)\n  5712: a0 = u64 [s1 + 0x218]\n  5716: a0 = i32 [a0]\n  5718: jump @229 if a0 >u 67\n      : @228 (gas: 1)\n  5722: jump @1285\n      : @229 (gas: 2)\n  5725: a0 = s1 + 0x300\n  5729: ra = 184, jump @1338\n      : @230 [@dyn 92] (gas: 24)\n  5735: a1 = s1 + 0x300\n  5739: a0 = u64 [a1 + 0x10]\n  5742: u64 [s1 + 0x208] = a0\n  5746: a0 = u64 [a1 + 0x8]\n  5749: u64 [s1 + 0x210] = a0\n  5753: a0 = u64 [a1]\n  5755: u64 [s1 + 0x218] = a0\n  5759: a0 = s1 + 0x3000\n  5763: i32 a0 = a0 + 0x460\n  5767: a1 = 0x4\n  5770: ecalli 2 // 'call_data_load'\n  5772: a3 = s1 + 0x3198\n  5776: a4 = a3 + 0x200\n  5780: a0 = u64 [a4 + 0xc8]\n  5784: a1 = u64 [a4 + 0xd0]\n  5788: a2 = u64 [a4 + 0xd8]\n  5792: a3 = u64 [a4 + 0xe0]\n  5796: u64 [s1 + 0x2f8] = a3\n  5800: u64 [s1 + 0x2f0] = a2\n  5804: u64 [s1 + 0x2e8] = a1\n  5808: a1 = s1 + 0x2e0\n  5812: u64 [s1 + 0x2e0] = a0\n  5816: a0 = 0\n  5818: ra = 186, jump @19\n      : @231 [@dyn 93] (gas: 7)\n  5824: u64 [s1 + 728] = 0\n  5828: u64 [s1 + 720] = 0\n  5832: u64 [s1 + 704] = 0x3\n  5837: a0 = 0x20\n  5840: a1 = s1 + 0x2c0\n  5844: u64 [s1 + 712] = 0\n  5848: ra = 188, jump @19\n      : @232 [@dyn 94] (gas: 3)\n  5854: a1 = 0x2020c\n  5859: a0 = i32 [0x2020c]\n  5864: jump @234 if a0 >u 63\n      : @233 (gas: 2)\n  5868: u32 [0x2020c] = 0x40\n  5874: fallthrough\n      : @234 (gas: 14)\n  5875: a0 = sp + 0xffffffffffffffe0\n  5878: a2 = a0 & 0xffffffffffffffe0\n  5881: u64 [s1 + 0x1f0] = a2\n  5885: sp = a2\n  5887: a0 = 0x20220\n  5892: i32 a0 = a0 + 0\n  5894: i32 a2 = a2 + 0\n  5896: u64 [s1 + 0x200] = a1\n  5900: a1 = 0x40\n  5903: u64 [s1 + 0x1f8] = a0\n  5907: ra = 0xbe\n  5911: ecalli 7 // 'hash_keccak_256'\n  5913: t0 = 0xc0\n  5917: jump @1602\n      : @235 [@dyn 95] (gas: 1)\n  5921: t0 = 192, jump @1602\n      : @236 [@dyn 96] (gas: 9)\n  5928: u64 [s1 + 696] = 0\n  5932: u64 [s1 + 0x2b0] = a0\n  5936: a0 = u64 [s1 + 0x210]\n  5940: u64 [s1 + 0x2a8] = a0\n  5944: a1 = s1 + 0x2a0\n  5948: a0 = u64 [s1 + 0x218]\n  5952: u64 [s1 + 0x2a0] = a0\n  5956: a0 = 0\n  5958: ra = 194, jump @19\n      : @237 [@dyn 97] (gas: 12)\n  5964: a3 = s1 + 0x100\n  5968: a0 = u64 [a3 + 0xd0]\n  5972: u64 [s1 + 0x298] = a0\n  5976: a0 = u64 [a3 + 0xd8]\n  5980: u64 [s1 + 0x290] = a0\n  5984: a0 = u64 [a3 + 0xe0]\n  5988: u64 [s1 + 0x288] = a0\n  5992: a0 = 0x20\n  5995: a1 = s1 + 0x280\n  5999: a2 = u64 [a3 + 0xe8]\n  6003: u64 [s1 + 0x280] = a2\n  6007: ra = 196, jump @19\n      : @238 [@dyn 98] (gas: 3)\n  6013: a1 = u64 [s1 + 0x200]\n  6017: a0 = i32 [a1]\n  6019: jump @240 if a0 >u 63\n      : @239 (gas: 2)\n  6023: u32 [a1 + 0] = 0x40\n  6026: fallthrough\n      : @240 (gas: 4)\n  6027: a0 = sp + 0xffffffffffffffe0\n  6030: a0 = a0 & 0xffffffffffffffe0\n  6033: u64 [s1 + 0x218] = a0\n  6037: t0 = 198, jump @1616\n      : @241 [@dyn 99] (gas: 4)\n  6044: ra = 0xc8\n  6048: ecalli 7 // 'hash_keccak_256'\n  6050: t0 = 0xca\n  6054: jump @1611\n      : @242 [@dyn 100] (gas: 1)\n  6058: t0 = 202, jump @1611\n      : @243 [@dyn 101] (gas: 2)\n  6065: a0 = s1 + 0x260\n  6069: ra = 204, jump @21\n      : @244 [@dyn 102] (gas: 5)\n  6075: a0 = u64 [s1 + 0x260]\n  6079: u64 [s1 + 0x218] = a0\n  6083: a0 = s1 + 0x240\n  6087: a1 = 0x40\n  6090: ra = 206, jump @17\n      : @245 [@dyn 103] (gas: 1)\n  6096: t0 = 208, jump @1633\n      : @246 [@dyn 104] (gas: 1)\n  6103: jump @248 if a1 == 0\n      : @247 (gas: 1)\n  6106: jump @1111\n      : @248 (gas: 10)\n  6109: a1 = u8 [s1 + 0x218]\n  6113: a2 = a1 >u 0\n  6115: u64 [s1 + 568] = 0\n  6119: u64 [s1 + 560] = 0\n  6123: u64 [s1 + 552] = 0\n  6127: a1 = s1 + 0x220\n  6131: u64 [s1 + 0x220] = a2\n  6135: u64 [s1 + 0x218] = a0\n  6139: ra = 0x230\n  6143: jump @19\n      : @249 (gas: 9)\n  6146: u64 [a2 + 768] = 0\n  6150: u64 [a2 + 760] = 0\n  6154: u64 [a2 + 752] = 0\n  6158: u64 [a2 + 744] = 0\n  6162: a0 = s1 + 0x4000\n  6166: i32 a0 = a0 + 0xfffffffffffffc80\n  6170: ra = 0xd2\n  6174: ecalli 15 // 'value_transferred'\n  6176: fallthrough\n      : @250 [@dyn 105] (gas: 10)\n  6177: a3 = s1 + 0x3998\n  6181: a4 = a3 + 0x200\n  6185: a0 = u64 [a4 + 0xf8]\n  6189: a1 = u64 [a3 + 0x300]\n  6193: a2 = u64 [a4 + 0xf0]\n  6197: a3 = u64 [a4 + 0xe8]\n  6201: a1 = a1 | a2\n  6204: a0 = a0 | a3\n  6207: a0 = a0 | a1\n  6210: jump @252 if a0 == 0\n      : @251 (gas: 1)\n  6213: jump @1286\n      : @252 (gas: 1)\n  6216: t0 = 212, jump @1652\n      : @253 [@dyn 106] (gas: 1)\n  6223: jump @255 if a1 <u a0\n      : @254 (gas: 1)\n  6226: jump @1287\n      : @255 (gas: 23)\n  6229: a0 = s1 + 0x4000\n  6233: i32 a0 = a0 + 0xfffffffffffffca0\n  6237: a1 = 0x4\n  6240: ecalli 2 // 'call_data_load'\n  6242: a0 = s1 + 0x3998\n  6246: a5 = a0 + 0x300\n  6250: a1 = u64 [a5 + 0x20]\n  6253: a2 = u64 [a5 + 0x18]\n  6256: a3 = u64 [a5 + 0x10]\n  6259: a4 = u64 [a5 + 0x8]\n  6262: a0 = s1 + 0x2198\n  6266: a5 = s1 + 0x100\n  6270: u64 [a5 + 0xd0] = a1\n  6274: u64 [a0 + 0x460] = a1\n  6278: u64 [a5 + 0xc8] = a2\n  6282: u64 [a0 + 0x458] = a2\n  6286: u64 [a5 + 0xc0] = a3\n  6290: u64 [a0 + 0x450] = a3\n  6294: a1 = s1 + 0x25e0\n  6298: u64 [a5 + 0xb8] = a4\n  6302: u64 [a0 + 0x448] = a4\n  6306: a0 = 0\n  6308: ra = 214, jump @19\n      : @256 [@dyn 107] (gas: 3)\n  6314: t0 = 0xd8\n  6318: a1 = s1 + 0x2198\n  6322: fallthrough\n      : @257 [@dyn 108] (gas: 8)\n  6323: u64 [a1 + 1088] = 0\n  6327: u64 [a1 + 1080] = 0\n  6331: u64 [a1 + 1064] = 0x2\n  6336: a2 = a1\n  6338: a0 = 0x20\n  6341: a1 = s1 + 0x25c0\n  6345: u64 [a2 + 1072] = 0\n  6349: ra = 218, jump @19\n      : @258 [@dyn 109] (gas: 2)\n  6355: a1 = i32 [0x2020c]\n  6360: jump @260 if a1 >u 63\n      : @259 (gas: 4)\n  6364: a1 = 0x40\n  6367: u32 [0x2020c] = a1\n  6372: t0 = 0xdc\n  6376: jump @1615\n      : @260 (gas: 1)\n  6380: t0 = 220, jump @1615\n      : @261 [@dyn 110] (gas: 37)\n  6387: a0 = 0x20220\n  6392: u64 [s1 + 0x1e0] = a0\n  6396: i32 a0 = a0 + 0\n  6398: i32 a2 = a2 + 0\n  6400: a1 = 0x40\n  6403: u64 [s1 + 0x1b0] = a0\n  6407: ecalli 7 // 'hash_keccak_256'\n  6409: a3 = u64 [s1 + 0x218]\n  6413: a0 = u64 [a3]\n  6415: a1 = u64 [a3 + 0x8]\n  6418: a2 = u64 [a3 + 0x10]\n  6421: a3 = u64 [a3 + 0x18]\n  6424: a4 = reverse a0\n  6426: a5 = reverse a1\n  6428: a2 = reverse a2\n  6430: a0 = reverse a3\n  6432: u64 [s1 + 0x1e8] = a0\n  6436: a0 = a0 + 0x1\n  6439: a1 = a0 <u 0x1\n  6442: u64 [s1 + 0x1f0] = a2\n  6446: a1 = a1 + a2\n  6449: a2 = a0 | a1\n  6452: a2 = a2 <u 0x1\n  6455: a2 = a2 + a5\n  6458: u64 [s1 + 0x1f8] = a5\n  6462: a3 = a2 <u a5\n  6465: u64 [s1 + 0x200] = a4\n  6469: a3 = a3 + a4\n  6472: a4 = s1 + 0x3998\n  6476: a5 = a4 + 0x300\n  6480: u64 [a5 + 0x28] = a0\n  6483: u64 [a5 + 0x30] = a1\n  6486: u64 [a5 + 0x38] = a2\n  6489: u64 [a5 + 0x40] = a3\n  6492: a0 = s1 + 0x25a0\n  6496: a1 = s1 + 0x3cc0\n  6500: ra = 222, jump @21\n      : @262 [@dyn 111] (gas: 13)\n  6506: a2 = s1 + 0x2198\n  6510: a3 = a2 + 0x400\n  6514: a0 = u64 [a3 + 0x18]\n  6517: a1 = u64 [a3 + 0x10]\n  6520: u64 [s1 + 0x210] = a1\n  6524: a1 = u64 [a3 + 0x8]\n  6527: u64 [s1 + 0x218] = a1\n  6531: u64 [s1 + 0x1d8] = a0\n  6535: a0 = a0 << 0x20\n  6538: a0 = a0 >> 0x20\n  6541: u64 [s1 + 0x208] = a0\n  6545: a0 = s1 + 0x2580\n  6549: ra = 224, jump @1508\n      : @263 [@dyn 112] (gas: 17)\n  6556: a3 = s1 + 0x2198\n  6560: a4 = a3 + 0x300\n  6564: a0 = u64 [a4 + 0xf8]\n  6568: a1 = u64 [a4 + 0xe8]\n  6572: a2 = u64 [a4 + 0xf0]\n  6576: a3 = u64 [a3 + 0x400]\n  6580: a5 = s1 + 0x200\n  6584: a4 = u64 [a5 + 0x8]\n  6587: a0 = a0 ^ a4\n  6590: a4 = u64 [a5 + 0x18]\n  6593: a1 = a1 ^ a4\n  6596: a4 = u64 [a5 + 0x10]\n  6599: a2 = a2 ^ a4\n  6602: a2 = a2 | a3\n  6605: a1 = a1 | a2\n  6608: a0 = a0 | a1\n  6611: jump @265 if a0 == 0\n      : @264 (gas: 1)\n  6614: jump @706\n      : @265 (gas: 23)\n  6617: a0 = sp + 0xffffffffffffffe0\n  6620: a1 = a0 & 0xffffffffffffffe0\n  6623: sp = a1\n  6625: a5 = s1 + 0x100\n  6629: a2 = u64 [a5 + 0xe8]\n  6633: a0 = a2 + 0xa\n  6636: a4 = a0 <u a2\n  6639: a3 = u64 [a5 + 0xf0]\n  6643: a2 = a3 + a4\n  6646: a3 = a2 <u a3\n  6649: a3 = a4 if a4 == 0\n  6652: a4 = u64 [a5 + 0xf8]\n  6656: a3 = a3 + a4\n  6659: a5 = a3 <u a4\n  6662: a4 = u64 [s1 + 0x200]\n  6666: a4 = a4 + a5\n  6669: u64 [a1 + 0x8] = a2\n  6672: u64 [a1] = a0\n  6674: u64 [a1 + 0x10] = a3\n  6677: u64 [a1 + 0x18] = a4\n  6680: a0 = s1 + 0x24c0\n  6684: u64 [s1 + 0x208] = a1\n  6688: ra = 226, jump @21\n      : @266 [@dyn 113] (gas: 4)\n  6694: a3 = s1 + 0x2198\n  6698: a1 = u64 [a3 + 0x328]\n  6702: a0 = a1 & 0xff\n  6706: jump @268 if a0 == 0\n      : @267 (gas: 1)\n  6709: jump @804\n      : @268 (gas: 3)\n  6712: a0 = s1 + 0x22c0\n  6716: a1 = 0x40\n  6719: ra = 228, jump @17\n      : @269 [@dyn 114] (gas: 14)\n  6725: a2 = s1 + 0x2198\n  6729: t0 = u64 [a2 + 0x140]\n  6733: a1 = a2 + 0x100\n  6737: a5 = u64 [a1 + 0x38]\n  6740: a4 = u64 [a1 + 0x30]\n  6743: a0 = u64 [a1 + 0x28]\n  6746: a3 = a4 | t0\n  6749: a1 = a0 | a5\n  6752: a1 = a1 | a3\n  6755: a1 = a1 >> 0x20\n  6758: a3 = a3 | a5\n  6761: a3 = a3 << 0x20\n  6764: a1 = a1 | a3\n  6767: jump @271 if a1 == 0\n      : @270 (gas: 1)\n  6770: jump @1111\n      : @271 (gas: 11)\n  6773: u64 [a2 + 280] = 0\n  6777: u64 [a2 + 272] = 0\n  6781: u64 [a2 + 264] = 0\n  6785: a3 = 0x8c379a000000000\n  6795: a1 = s1 + 0x22a0\n  6799: u64 [a2 + 0x120] = a3\n  6803: u64 [s1 + 0x218] = a0\n  6807: u64 [s1 + 0x210] = a4\n  6811: u64 [s1 + 0x200] = t0\n  6815: u64 [s1 + 0x208] = a5\n  6819: ra = 230, jump @19\n      : @272 [@dyn 115] (gas: 1)\n  6825: t0 = 232, jump @1589\n      : @273 [@dyn 116] (gas: 1)\n  6832: jump @275 if a0 != 0\n      : @274 (gas: 1)\n  6835: jump @1111\n      : @275 (gas: 1)\n  6838: t0 = 234, jump @1618\n      : @276 [@dyn 117] (gas: 9)\n  6845: u64 [a2 + 256] = 0\n  6849: a5 = 0\n  6851: u64 [a2 + 248] = 0\n  6855: u64 [a2 + 232] = 0x20\n  6860: a1 = s1 + 0x2280\n  6864: u64 [a2 + 240] = 0\n  6868: u64 [s1 + 0x208] = a3\n  6872: u64 [s1 + 0x200] = a4\n  6876: ra = 236, jump @19\n      : @277 [@dyn 118] (gas: 1)\n  6882: t0 = 238, jump @1592\n      : @278 [@dyn 119] (gas: 1)\n  6889: jump @280 if a0 != 0\n      : @279 (gas: 1)\n  6892: jump @1111\n      : @280 (gas: 1)\n  6895: t0 = 240, jump @1638\n      : @281 [@dyn 120] (gas: 6)\n  6902: u64 [a3 + 224] = 0\n  6906: u64 [a3 + 216] = 0\n  6910: u64 [a3 + 200] = 0x11\n  6915: a1 = s1 + 0x2260\n  6919: u64 [a3 + 208] = 0\n  6923: ra = 242, jump @19\n      : @282 [@dyn 121] (gas: 1)\n  6929: t0 = 244, jump @1593\n      : @283 [@dyn 122] (gas: 1)\n  6936: jump @285 if a0 != 0\n      : @284 (gas: 1)\n  6939: jump @1111\n      : @285 (gas: 12)\n  6942: i32 a0 = a3 + 0x44\n  6945: a1 = u64 [0x200d8]\n  6950: a2 = u64 [0x200e0]\n  6955: a4 = s1 + 0x2198\n  6959: u64 [a4 + 0xc0] = a1\n  6963: u64 [a4 + 0xb8] = a2\n  6967: a1 = 0x6500000000000000\n  6977: u64 [a4 + 0xb0] = a1\n  6981: a1 = s1 + 0x2240\n  6985: u64 [a4 + 168] = 0\n  6989: ra = 0x3ba\n  6993: jump @19\n      : @286 (gas: 10)\n  6996: u64 [a2 + 480] = 0\n  7000: u64 [a2 + 472] = 0\n  7004: u64 [a2 + 464] = 0\n  7008: u64 [a2 + 456] = 0\n  7012: a0 = s1 + 0x4000\n  7016: i32 a0 = a0 + 0xfffffffffffffb60\n  7020: ra = 0xf6\n  7024: ecalli 15 // 'value_transferred'\n  7026: t0 = 0xf8\n  7030: jump @1654\n      : @287 [@dyn 123] (gas: 1)\n  7034: t0 = 248, jump @1654\n      : @288 [@dyn 124] (gas: 1)\n  7041: t0 = 250, jump @1657\n      : @289 [@dyn 125] (gas: 1)\n  7048: jump @291 if a0 == 0\n      : @290 (gas: 1)\n  7051: jump @1288\n      : @291 (gas: 1)\n  7054: t0 = 252, jump @1652\n      : @292 [@dyn 126] (gas: 1)\n  7061: jump @294 if a1 <u a0\n      : @293 (gas: 1)\n  7064: jump @1289\n      : @294 (gas: 7)\n  7067: a0 = s1 + 0x4000\n  7071: i32 a0 = a0 + 0xfffffffffffffb80\n  7075: a1 = 0x4\n  7078: ra = 0xfe\n  7082: ecalli 2 // 'call_data_load'\n  7084: t0 = 0x100\n  7088: jump @1654\n      : @295 [@dyn 127] (gas: 1)\n  7092: t0 = 256, jump @1654\n      : @296 [@dyn 128] (gas: 12)\n  7099: a0 = u64 [a4 + 0xe8]\n  7103: a1 = u64 [a4 + 0xf0]\n  7107: a2 = u64 [a4 + 0xf8]\n  7111: a3 = u64 [a3 + 0x200]\n  7115: a4 = s1 + 0x2198\n  7119: u64 [a4 + 0xa0] = a3\n  7123: u64 [a4 + 0x98] = a2\n  7127: u64 [a4 + 0x90] = a1\n  7131: a1 = s1 + 0x2220\n  7135: u64 [a4 + 0x88] = a0\n  7139: a0 = 0\n  7141: ra = 258, jump @19\n      : @297 [@dyn 129] (gas: 3)\n  7147: t0 = 0x104\n  7151: a1 = s1 + 0x2198\n  7155: fallthrough\n      : @298 [@dyn 130] (gas: 8)\n  7156: u64 [a1 + 128] = 0\n  7160: u64 [a1 + 120] = 0\n  7163: u64 [a1 + 104] = 0x2\n  7167: a2 = a1\n  7169: a0 = 0x20\n  7172: a1 = s1 + 0x2200\n  7176: u64 [a2 + 112] = 0\n  7179: ra = 262, jump @19\n      : @299 [@dyn 131] (gas: 6)\n  7185: a0 = sp + 0xffffffffffffffe0\n  7188: a0 = a0 & 0xffffffffffffffe0\n  7191: u64 [s1 + 0x1f8] = a0\n  7195: sp = a0\n  7197: a1 = i32 [0x2020c]\n  7202: jump @301 if a1 >u 63\n      : @300 (gas: 4)\n  7206: a1 = 0x40\n  7209: u32 [0x2020c] = a1\n  7214: t0 = 0x108\n  7218: jump @1615\n      : @301 (gas: 1)\n  7222: t0 = 264, jump @1615\n      : @302 [@dyn 132] (gas: 8)\n  7229: a0 = 0x20220\n  7234: i32 a0 = a0 + 0\n  7236: i32 a2 = a2 + 0\n  7238: a1 = 0x40\n  7241: ra = 0x10a\n  7245: ecalli 7 // 'hash_keccak_256'\n  7247: t0 = 0x10c\n  7251: jump @1605\n      : @303 [@dyn 133] (gas: 1)\n  7255: t0 = 268, jump @1605\n      : @304 [@dyn 134] (gas: 2)\n  7262: a0 = s1 + 0x21e0\n  7266: ra = 270, jump @21\n      : @305 [@dyn 135] (gas: 9)\n  7272: a1 = s1 + 0x2198\n  7276: a0 = u64 [a1 + 0x60]\n  7279: u64 [s1 + 0x1f8] = a0\n  7283: a0 = u64 [a1 + 0x58]\n  7286: u64 [s1 + 0x1f0] = a0\n  7290: a0 = u64 [a1 + 0x50]\n  7293: u64 [s1 + 0x1e8] = a0\n  7297: a0 = u64 [a1 + 0x48]\n  7300: t0 = 272, jump @1629\n      : @306 [@dyn 136] (gas: 2)\n  7307: a3 = a2 + 0x200\n  7311: t0 = 274, jump @1626\n      : @307 [@dyn 137] (gas: 3)\n  7318: a0 = s1 + 0x21c0\n  7322: a1 = s1 + 0x3ba0\n  7326: ra = 276, jump @21\n      : @308 [@dyn 138] (gas: 10)\n  7332: a5 = s1 + 0x2198\n  7336: a0 = u32 [a5 + 0x38]\n  7339: u64 [s1 + 0x1d8] = a0\n  7343: a0 = u64 [a5 + 0x30]\n  7346: u64 [s1 + 0x1d0] = a0\n  7350: a0 = u64 [a5 + 0x28]\n  7353: u64 [s1 + 0x1c8] = a0\n  7357: a0 = u64 [s1 + 0x208]\n  7361: a2 = a0 + 0x2\n  7364: t0 = 278, jump @1603\n      : @309 [@dyn 139] (gas: 8)\n  7371: u64 [a5] = a0\n  7373: a4 = a5 + 0xffffffffffffff00\n  7377: u64 [a4 + 0xf8] = a3\n  7381: u64 [a4 + 0xf0] = a1\n  7385: a0 = s1 + 0x21a0\n  7389: a1 = s1 + 0x2180\n  7393: u64 [a4 + 0xe8] = a2\n  7397: ra = 280, jump @1372\n      : @310 [@dyn 140] (gas: 12)\n  7403: a1 = s1 + 0x2198\n  7407: a0 = u64 [a1 + 0x20]\n  7410: u64 [s1 + 0x1a8] = a0\n  7414: a0 = u64 [a1 + 0x18]\n  7417: u64 [s1 + 0x1b0] = a0\n  7421: a0 = u64 [a1 + 0x10]\n  7424: u64 [s1 + 0x1b8] = a0\n  7428: a0 = u64 [a1 + 0x8]\n  7431: u64 [s1 + 0x1c0] = a0\n  7435: a0 = u64 [s1 + 0x208]\n  7439: a2 = a0 + 0x3\n  7442: t0 = 282, jump @1603\n      : @311 [@dyn 141] (gas: 9)\n  7449: a4 = s1 + 0x1998\n  7453: a5 = a4 + 0x700\n  7457: u64 [a5 + 0xc0] = a0\n  7461: u64 [a5 + 0xb8] = a3\n  7465: u64 [a5 + 0xb0] = a1\n  7469: a0 = s1 + 0x2160\n  7473: a1 = s1 + 0x2140\n  7477: u64 [a5 + 0xa8] = a2\n  7481: ra = 284, jump @1372\n      : @312 [@dyn 142] (gas: 1)\n  7487: t0 = 286, jump @1636\n      : @313 [@dyn 143] (gas: 11)\n  7494: a0 = u64 [a2 + 0xe0]\n  7498: u64 [s1 + 0x188] = a0\n  7502: a0 = u64 [a2 + 0xd8]\n  7506: u64 [s1 + 0x190] = a0\n  7510: a0 = u64 [a2 + 0xd0]\n  7514: u64 [s1 + 0x198] = a0\n  7518: a0 = u64 [a2 + 0xc8]\n  7522: u64 [s1 + 0x1a0] = a0\n  7526: a1 = u64 [s1 + 0x208]\n  7530: a0 = a1 + 0x4\n  7533: t0 = 288, jump @1595\n      : @314 [@dyn 144] (gas: 7)\n  7540: u64 [a5 + 0x40] = a1\n  7543: u64 [a5 + 0x38] = a3\n  7546: u64 [a5 + 0x30] = a2\n  7549: u64 [a5 + 0x28] = a0\n  7552: a0 = s1 + 0x2120\n  7556: a1 = s1 + 0x3bc0\n  7560: ra = 290, jump @21\n      : @315 [@dyn 145] (gas: 1)\n  7566: t0 = 292, jump @1636\n      : @316 [@dyn 146] (gas: 11)\n  7573: a0 = u64 [a2 + 0xa0]\n  7577: u64 [s1 + 0x180] = a0\n  7581: a0 = u64 [a2 + 0x98]\n  7585: u64 [s1 + 0x178] = a0\n  7589: a0 = u64 [a2 + 0x90]\n  7593: u64 [s1 + 0x170] = a0\n  7597: a0 = u64 [a2 + 0x88]\n  7601: u64 [s1 + 0x168] = a0\n  7605: a1 = u64 [s1 + 0x208]\n  7609: a0 = a1 + 0x5\n  7612: t0 = 294, jump @1595\n      : @317 [@dyn 147] (gas: 7)\n  7619: u64 [a5 + 0x60] = a1\n  7622: u64 [a5 + 0x58] = a3\n  7625: u64 [a5 + 0x50] = a2\n  7628: u64 [a5 + 0x48] = a0\n  7631: a0 = s1 + 0x2100\n  7635: a1 = s1 + 0x3be0\n  7639: ra = 296, jump @21\n      : @318 [@dyn 148] (gas: 1)\n  7645: t0 = 298, jump @1636\n      : @319 [@dyn 149] (gas: 11)\n  7652: a0 = u64 [a2 + 0x80]\n  7656: u64 [s1 + 0x160] = a0\n  7660: a0 = u64 [a2 + 0x78]\n  7663: u64 [s1 + 0x158] = a0\n  7667: a0 = u64 [a2 + 0x70]\n  7670: u64 [s1 + 0x150] = a0\n  7674: a0 = u64 [a2 + 0x68]\n  7677: u64 [s1 + 0x148] = a0\n  7681: a1 = u64 [s1 + 0x208]\n  7685: a0 = a1 + 0x6\n  7688: t0 = 300, jump @1595\n      : @320 [@dyn 150] (gas: 7)\n  7695: u64 [a5 + 0x80] = a1\n  7699: u64 [a5 + 0x78] = a3\n  7702: u64 [a5 + 0x70] = a2\n  7705: u64 [a5 + 0x68] = a0\n  7708: a0 = s1 + 0x20e0\n  7712: a1 = s1 + 0x3c00\n  7716: ra = 302, jump @21\n      : @321 [@dyn 151] (gas: 1)\n  7722: t0 = 304, jump @1636\n      : @322 [@dyn 152] (gas: 11)\n  7729: a0 = u64 [a2 + 0x60]\n  7732: u64 [s1 + 0x140] = a0\n  7736: a0 = u64 [a2 + 0x58]\n  7739: u64 [s1 + 0x138] = a0\n  7743: a0 = u64 [a2 + 0x50]\n  7746: u64 [s1 + 0x130] = a0\n  7750: a0 = u64 [a2 + 0x48]\n  7753: u64 [s1 + 0x128] = a0\n  7757: a1 = u64 [s1 + 0x208]\n  7761: a0 = a1 + 0x8\n  7764: t0 = 306, jump @1595\n      : @323 [@dyn 153] (gas: 7)\n  7771: u64 [a5 + 0xa0] = a1\n  7775: u64 [a5 + 0x98] = a3\n  7779: u64 [a5 + 0x90] = a2\n  7783: u64 [a5 + 0x88] = a0\n  7787: a0 = s1 + 0x20c0\n  7791: a1 = s1 + 0x3c20\n  7795: ra = 308, jump @21\n      : @324 [@dyn 154] (gas: 10)\n  7801: a1 = s1 + 0x1998\n  7805: a0 = u32 [a1 + 0x738]\n  7809: u64 [s1 + 0x120] = a0\n  7813: a0 = u64 [a1 + 0x730]\n  7817: u64 [s1 + 0x118] = a0\n  7821: a0 = u64 [a1 + 0x728]\n  7825: u64 [s1 + 0x110] = a0\n  7829: a1 = u64 [s1 + 0x208]\n  7833: a0 = a1 + 0x9\n  7836: t0 = 310, jump @1595\n      : @325 [@dyn 155] (gas: 7)\n  7843: u64 [a5 + 0xc0] = a1\n  7847: u64 [a5 + 0xb8] = a3\n  7851: u64 [a5 + 0xb0] = a2\n  7855: u64 [a5 + 0xa8] = a0\n  7859: a0 = s1 + 0x20a0\n  7863: a1 = s1 + 0x3c40\n  7867: ra = 312, jump @21\n      : @326 [@dyn 156] (gas: 10)\n  7873: a5 = s1 + 0x1998\n  7877: a0 = u64 [a5 + 0x720]\n  7881: u64 [s1 + 0x108] = a0\n  7885: a0 = u64 [a5 + 0x718]\n  7889: u64 [s1 + 0x100] = a0\n  7893: a1 = u64 [s1 + 0x208]\n  7897: a0 = a1 + 0xa\n  7900: a1 = a0 <u a1\n  7903: a3 = u64 [s1 + 0x210]\n  7907: t0 = 314, jump @1621\n      : @327 [@dyn 157] (gas: 18)\n  7914: a1 = u64 [a5 + 0x710]\n  7918: u64 [s1 + 0xf8] = a1\n  7922: a1 = u64 [s1 + 0x200]\n  7926: a3 = a3 + a1\n  7929: a1 = a3 <u a1\n  7932: a4 = u64 [s1 + 0x218]\n  7936: a1 = a1 + a4\n  7939: a4 = u64 [a5 + 0x708]\n  7943: u64 [s1 + 0xf0] = a4\n  7947: a4 = s1 + 0x3998\n  7951: a5 = a4 + 0x200\n  7955: u64 [a5 + 0xe0] = a1\n  7959: u64 [a5 + 0xd8] = a3\n  7963: u64 [a5 + 0xd0] = a2\n  7967: u64 [a5 + 0xc8] = a0\n  7971: a0 = s1 + 0x2080\n  7975: a1 = s1 + 0x3c60\n  7979: ra = 316, jump @21\n      : @328 [@dyn 158] (gas: 6)\n  7985: a0 = s1 + 0x1998\n  7989: a0 = u64 [a0 + 0x6e8]\n  7993: u64 [s1 + 0xe8] = a0\n  7997: a0 = s1 + 0x2060\n  8001: a1 = 0x40\n  8004: ra = 318, jump @17\n      : @329 [@dyn 159] (gas: 7)\n  8010: a2 = s1 + 0x1998\n  8014: a5 = a2 + 0x600\n  8018: a3 = u64 [a5 + 0xe0]\n  8022: a4 = u64 [a5 + 0xd8]\n  8026: a0 = u64 [a5 + 0xd0]\n  8030: a1 = u64 [a5 + 0xc8]\n  8034: t0 = 320, jump @1647\n      : @330 [@dyn 160] (gas: 1)\n  8041: jump @332 if a0 == 0\n      : @331 (gas: 1)\n  8044: jump @1111\n      : @332 (gas: 14)\n  8047: a0 = u64 [s1 + 0x1e0]\n  8051: a5 = a2 + 0x600\n  8055: u64 [a5 + 0xa8] = a0\n  8059: a0 = u64 [s1 + 0x1e8]\n  8063: u64 [a5 + 0xb0] = a0\n  8067: a0 = u64 [s1 + 0x1f0]\n  8071: u64 [a5 + 0xb8] = a0\n  8075: a1 = s1 + 0x2040\n  8079: a0 = u64 [s1 + 0x1f8]\n  8083: u64 [a5 + 0xc0] = a0\n  8087: a0 = u64 [s1 + 0x218]\n  8091: u64 [s1 + 0x208] = a3\n  8095: u64 [s1 + 0x200] = a4\n  8099: ra = 322, jump @19\n      : @333 [@dyn 161] (gas: 1)\n  8105: t0 = 324, jump @1609\n      : @334 [@dyn 162] (gas: 1)\n  8112: jump @336 if a0 != 0\n      : @335 (gas: 1)\n  8115: jump @1111\n      : @336 (gas: 14)\n  8118: a0 = u64 [s1 + 0x218]\n  8122: i32 a0 = a0 + 0x20\n  8125: a2 = s1 + 0x1998\n  8129: u64 [a2 + 1696] = 0\n  8133: a1 = u64 [s1 + 0x1c8]\n  8137: a4 = a2 + 0x600\n  8141: u64 [a4 + 0x88] = a1\n  8145: a1 = u64 [s1 + 0x1d0]\n  8149: u64 [a4 + 0x90] = a1\n  8153: a1 = s1 + 0x2020\n  8157: u64 [s1 + 0x1f0] = a3\n  8161: a3 = u64 [s1 + 0x1d8]\n  8165: u64 [a4 + 0x98] = a3\n  8169: ra = 326, jump @19\n      : @337 [@dyn 163] (gas: 3)\n  8175: a0 = u64 [s1 + 0x1f0]\n  8179: a0 = a0 + 0xffffffffffffffc0\n  8182: t0 = 328, jump @1590\n      : @338 [@dyn 164] (gas: 1)\n  8189: jump @340 if a0 != 0\n      : @339 (gas: 1)\n  8192: jump @1111\n      : @340 (gas: 9)\n  8195: a0 = u64 [s1 + 0x218]\n  8199: i32 a0 = a0 + 0x40\n  8202: a2 = s1 + 0x1998\n  8206: u64 [a2 + 1664] = 0\n  8210: u64 [a2 + 1656] = 0\n  8214: u64 [a2 + 1640] = 0x160\n  8220: a1 = s1 + 0x2000\n  8224: u64 [a2 + 1648] = 0\n  8228: ra = 330, jump @19\n      : @341 [@dyn 165] (gas: 3)\n  8234: a1 = u64 [s1 + 0x218]\n  8238: a0 = a1 + 0x160\n  8242: t0 = 332, jump @1619\n      : @342 [@dyn 166] (gas: 19)\n  8249: a1 = s1 + 0x1998\n  8253: a5 = a1 + 0x600\n  8257: u64 [a5 + 0x10] = a2\n  8260: u64 [a5 + 0x8] = a0\n  8263: a0 = u64 [s1 + 0x1a8]\n  8267: u64 [a5 + 0x40] = a0\n  8270: a0 = u64 [s1 + 0x1b0]\n  8274: u64 [a5 + 0x38] = a0\n  8277: a0 = u64 [s1 + 0x1b8]\n  8281: u64 [a5 + 0x30] = a0\n  8284: a0 = u64 [s1 + 0x1c0]\n  8288: u64 [a5 + 0x28] = a0\n  8291: u64 [a5 + 0x18] = a3\n  8294: a3 = a1\n  8296: a0 = s1 + 0x1fe0\n  8300: a1 = s1 + 0x1fc0\n  8304: a2 = s1 + 0x1fa0\n  8308: u64 [a3 + 0x620] = a4\n  8312: ra = 334, jump @1395\n      : @343 [@dyn 167] (gas: 3)\n  8318: a2 = 0x100000000\n  8328: a0 = 0xffffffa0\n  8338: t0 = 336, jump @1590\n      : @344 [@dyn 168] (gas: 1)\n  8345: jump @346 if a0 != 0\n      : @345 (gas: 1)\n  8348: jump @1111\n      : @346 (gas: 37)\n  8351: a3 = s1 + 0x1998\n  8355: ra = u64 [a3 + 0x648]\n  8359: t0 = u64 [a3 + 0x650]\n  8363: t2 = u64 [a3 + 0x660]\n  8367: u64 [s1 + 0x1e0] = t2\n  8371: a4 = u64 [a3 + 0x658]\n  8375: u64 [s1 + 0x1e8] = a4\n  8379: a5 = u64 [s1 + 0x218]\n  8383: t1 = ra <u a5\n  8386: u64 [s1 + 0x1d0] = ra\n  8390: a3 = u64 [s1 + 0x210]\n  8394: a1 = t0 ^ a3\n  8397: u64 [s1 + 0x1f0] = a2\n  8401: a2 = t0 <u a3\n  8404: u64 [s1 + 0x1d8] = t0\n  8408: a0 = a3\n  8410: a2 = t1 if a1 == 0\n  8413: a3 = u64 [s1 + 0x200]\n  8417: a1 = a4 - a3\n  8420: a3 = a4 <u a3\n  8423: a4 = u64 [s1 + 0x208]\n  8427: a4 = t2 - a4\n  8430: a4 = a4 - a3\n  8433: a3 = a1 <u a2\n  8436: a4 = a4 - a3\n  8439: a1 = a1 - a2\n  8442: a2 = t0 - a0\n  8445: a2 = a2 - t1\n  8448: a3 = ra - a5\n  8451: i32 a0 = a5 + 0x60\n  8454: a5 = s1 + 0x1998\n  8458: u64 [a5 + 0x5e8] = a3\n  8462: u64 [a5 + 0x5f0] = a2\n  8466: u64 [a5 + 0x5f8] = a1\n  8470: a1 = s1 + 0x1f80\n  8474: u64 [a5 + 0x600] = a4\n  8478: ra = 338, jump @19\n      : @347 [@dyn 169] (gas: 3)\n  8484: t0 = 0x154\n  8488: a1 = s1 + 0x1998\n  8492: fallthrough\n      : @348 [@dyn 170] (gas: 22)\n  8493: a0 = u64 [s1 + 0x1e0]\n  8497: a2 = a1 + 0x500\n  8501: u64 [a2 + 0xa0] = a0\n  8505: a0 = u64 [s1 + 0x1e8]\n  8509: u64 [a2 + 0x98] = a0\n  8513: a0 = u64 [s1 + 0x1d8]\n  8517: u64 [a2 + 0x90] = a0\n  8521: a0 = u64 [s1 + 0x1d0]\n  8525: u64 [a2 + 0x88] = a0\n  8529: a0 = u64 [s1 + 0x188]\n  8533: u64 [a2 + 0xc0] = a0\n  8537: a0 = u64 [s1 + 0x190]\n  8541: u64 [a2 + 0xb8] = a0\n  8545: a0 = u64 [s1 + 0x198]\n  8549: u64 [a2 + 0xb0] = a0\n  8553: a4 = a1\n  8555: a0 = s1 + 0x1f60\n  8559: a1 = s1 + 0x1f40\n  8563: a2 = s1 + 0x1f20\n  8567: a3 = u64 [s1 + 0x1a0]\n  8571: u64 [a4 + 0x5a8] = a3\n  8575: ra = 342, jump @1395\n      : @349 [@dyn 171] (gas: 3)\n  8581: a0 = u64 [s1 + 0x1f0]\n  8585: a0 = a0 + 0xffffffffffffff80\n  8588: t0 = 344, jump @1590\n      : @350 [@dyn 172] (gas: 1)\n  8595: jump @352 if a0 != 0\n      : @351 (gas: 1)\n  8598: jump @1111\n      : @352 (gas: 22)\n  8601: a3 = s1 + 0x1998\n  8605: a4 = a3 + 0x500\n  8609: a0 = u64 [a4 + 0xe0]\n  8613: u64 [s1 + 0x1e0] = a0\n  8617: a0 = u64 [a4 + 0xd8]\n  8621: u64 [s1 + 0x1d8] = a0\n  8625: a0 = u64 [a4 + 0xd0]\n  8629: u64 [s1 + 0x1e8] = a0\n  8633: a0 = u64 [a4 + 0xc8]\n  8637: u64 [s1 + 0x1f0] = a0\n  8641: a0 = u64 [s1 + 0x218]\n  8645: i32 a0 = a0 + 0x80\n  8649: a1 = u64 [s1 + 0x168]\n  8653: u64 [a4 + 0x68] = a1\n  8656: a1 = u64 [s1 + 0x170]\n  8660: u64 [a4 + 0x70] = a1\n  8663: a1 = u64 [s1 + 0x178]\n  8667: u64 [a4 + 0x78] = a1\n  8670: a1 = s1 + 0x1f00\n  8674: a2 = u64 [s1 + 0x180]\n  8678: u64 [a4 + 0x80] = a2\n  8682: ra = 346, jump @19\n      : @353 [@dyn 173] (gas: 3)\n  8688: a2 = 0x100000000\n  8698: a0 = 0xffffff60\n  8708: t0 = 348, jump @1590\n      : @354 [@dyn 174] (gas: 1)\n  8715: jump @356 if a0 != 0\n      : @355 (gas: 1)\n  8718: jump @1111\n      : @356 (gas: 15)\n  8721: a0 = u64 [s1 + 0x218]\n  8725: i32 a0 = a0 + 0xa0\n  8729: a1 = u64 [s1 + 0x148]\n  8733: u64 [s1 + 0x1d0] = a2\n  8737: a3 = s1 + 0x1998\n  8741: a4 = a3 + 0x500\n  8745: u64 [a4 + 0x48] = a1\n  8748: a1 = u64 [s1 + 0x150]\n  8752: u64 [a4 + 0x50] = a1\n  8755: a1 = u64 [s1 + 0x158]\n  8759: u64 [a4 + 0x58] = a1\n  8762: a1 = s1 + 0x1ee0\n  8766: a2 = u64 [s1 + 0x160]\n  8770: u64 [a4 + 0x60] = a2\n  8773: ra = 350, jump @19\n      : @357 [@dyn 175] (gas: 3)\n  8779: a0 = u64 [s1 + 0x1d0]\n  8783: a0 = a0 + 0xffffffffffffff40\n  8787: t0 = 352, jump @1590\n      : @358 [@dyn 176] (gas: 1)\n  8794: jump @360 if a0 != 0\n      : @359 (gas: 1)\n  8797: jump @1111\n      : @360 (gas: 14)\n  8800: a0 = u64 [s1 + 0x218]\n  8804: i32 a0 = a0 + 0xc0\n  8808: a1 = u64 [s1 + 0x128]\n  8812: a3 = s1 + 0x1998\n  8816: a4 = a3 + 0x500\n  8820: u64 [a4 + 0x28] = a1\n  8823: a1 = u64 [s1 + 0x130]\n  8827: u64 [a4 + 0x30] = a1\n  8830: a1 = u64 [s1 + 0x138]\n  8834: u64 [a4 + 0x38] = a1\n  8837: a1 = s1 + 0x1ec0\n  8841: a2 = u64 [s1 + 0x140]\n  8845: u64 [a4 + 0x40] = a2\n  8848: ra = 354, jump @19\n      : @361 [@dyn 177] (gas: 3)\n  8854: a2 = 0x100000000\n  8864: a0 = 0xffffff20\n  8874: t0 = 356, jump @1590\n      : @362 [@dyn 178] (gas: 1)\n  8881: jump @364 if a0 != 0\n      : @363 (gas: 1)\n  8884: jump @1111\n      : @364 (gas: 14)\n  8887: a0 = u64 [s1 + 0x218]\n  8891: i32 a0 = a0 + 0xe0\n  8895: a3 = s1 + 0x1998\n  8899: u64 [a3 + 1312] = 0\n  8903: a1 = u64 [s1 + 0x110]\n  8907: a4 = a3 + 0x500\n  8911: u64 [a4 + 0x8] = a1\n  8914: a1 = u64 [s1 + 0x118]\n  8918: u64 [a4 + 0x10] = a1\n  8921: a1 = s1 + 0x1ea0\n  8925: u64 [s1 + 0x1d0] = a2\n  8929: a2 = u64 [s1 + 0x120]\n  8933: u64 [a4 + 0x18] = a2\n  8936: ra = 358, jump @19\n      : @365 [@dyn 179] (gas: 3)\n  8942: a0 = u64 [s1 + 0x1d0]\n  8946: a0 = a0 + 0xffffffffffffff00\n  8950: t0 = 360, jump @1590\n      : @366 [@dyn 180] (gas: 1)\n  8957: jump @368 if a0 != 0\n      : @367 (gas: 1)\n  8960: jump @1111\n      : @368 (gas: 14)\n  8963: a0 = u64 [s1 + 0x218]\n  8967: i32 a0 = a0 + 0x100\n  8971: a1 = u64 [s1 + 0xf0]\n  8975: a3 = s1 + 0x1998\n  8979: a2 = a3 + 0x400\n  8983: u64 [a2 + 0xe8] = a1\n  8987: a1 = u64 [s1 + 0xf8]\n  8991: u64 [a2 + 0xf0] = a1\n  8995: a1 = u64 [s1 + 0x100]\n  8999: u64 [a2 + 0xf8] = a1\n  9003: a1 = s1 + 0x1e80\n  9007: a2 = u64 [s1 + 0x108]\n  9011: u64 [a3 + 0x500] = a2\n  9015: ra = 362, jump @19\n      : @369 [@dyn 181] (gas: 4)\n  9021: a0 = 0x100000000\n  9031: u64 [s1 + 0x1d0] = a0\n  9035: a0 = 0xfffffee0\n  9045: t0 = 364, jump @1590\n      : @370 [@dyn 182] (gas: 1)\n  9052: jump @372 if a0 != 0\n      : @371 (gas: 1)\n  9055: jump @1111\n      : @372 (gas: 11)\n  9058: a0 = u8 [s1 + 0xe8]\n  9062: a1 = a0 >u 0\n  9064: a0 = u64 [s1 + 0x218]\n  9068: i32 a0 = a0 + 0x120\n  9072: a2 = s1 + 0x1998\n  9076: u64 [a2 + 1248] = 0\n  9080: u64 [a2 + 1240] = 0\n  9084: u64 [a2 + 0x4c8] = a1\n  9088: a1 = s1 + 0x1e60\n  9092: u64 [a2 + 1232] = 0\n  9096: ra = 366, jump @19\n      : @373 [@dyn 183] (gas: 3)\n  9102: a0 = u64 [s1 + 0x1d0]\n  9106: a0 = a0 + 0xfffffffffffffec0\n  9110: t0 = 368, jump @1590\n      : @374 [@dyn 184] (gas: 1)\n  9117: jump @376 if a0 != 0\n      : @375 (gas: 1)\n  9120: jump @1111\n      : @376 (gas: 13)\n  9123: a1 = u64 [s1 + 0xe8]\n  9127: a0 = a1 & 0xff00\n  9132: a1 = a0 >u 0\n  9134: a0 = u64 [s1 + 0x218]\n  9138: i32 a0 = a0 + 0x140\n  9142: a2 = s1 + 0x1998\n  9146: u64 [a2 + 1216] = 0\n  9150: u64 [a2 + 1208] = 0\n  9154: u64 [a2 + 0x4a8] = a1\n  9158: a1 = s1 + 0x1e40\n  9162: u64 [a2 + 1200] = 0\n  9166: ra = 0x2b6\n  9170: jump @19\n      : @377 (gas: 8)\n  9173: u64 [a3 + 832] = 0\n  9177: u64 [a3 + 824] = 0\n  9181: u64 [a3 + 816] = 0\n  9185: u64 [a3 + 808] = 0\n  9189: a0 = s1 + 0x3000\n  9193: i32 a0 = a0 + 0x4c0\n  9197: ecalli 15 // 'value_transferred'\n  9199: fallthrough\n      : @378 (gas: 10)\n  9200: a4 = s1 + 0x3198\n  9204: a5 = a4 + 0x300\n  9208: a0 = u64 [a5 + 0x38]\n  9211: a1 = u64 [a5 + 0x40]\n  9214: a2 = u64 [a5 + 0x30]\n  9217: a3 = u64 [a5 + 0x28]\n  9220: a1 = a1 | a2\n  9223: a0 = a0 | a3\n  9226: a0 = a0 | a1\n  9229: jump @380 if a0 == 0\n      : @379 (gas: 1)\n  9232: jump @1290\n      : @380 (gas: 3)\n  9235: a0 = u64 [s1 + 0x218]\n  9239: a0 = i32 [a0]\n  9241: jump @382 if a0 >u 3\n      : @381 (gas: 1)\n  9245: jump @1291\n      : @382 (gas: 7)\n  9248: u64 [a4 + 864] = 0\n  9252: u64 [a4 + 856] = 0\n  9256: u64 [a4 + 848] = 0\n  9260: u64 [a4 + 840] = 0x1\n  9265: a0 = s1 + 0x6c0\n  9269: a1 = s1 + 0x34e0\n  9273: ra = 370, jump @21\n      : @383 [@dyn 185] (gas: 24)\n  9279: a0 = 0x20220\n  9284: u64 [s1 + 400] = 0\n  9288: u64 [s1 + 408] = 0\n  9292: u64 [s1 + 416] = 0\n  9296: u64 [s1 + 424] = 0\n  9300: a4 = 0\n  9302: a5 = 0\n  9304: t2 = 0\n  9306: t0 = 0\n  9308: a1 = 0x2020c\n  9313: a2 = s1 + 0x100\n  9317: u64 [a2 + 0xf8] = a1\n  9321: i32 a0 = a0 + 0\n  9323: u64 [a2 + 0xe8] = a0\n  9327: a1 = s1 + 0x600\n  9331: a0 = u64 [a1 + 0xd8]\n  9335: u64 [a2 + 0xc8] = a0\n  9339: a0 = u64 [a1 + 0xd0]\n  9343: u64 [a2 + 0xc0] = a0\n  9347: a0 = u64 [a1 + 0xc8]\n  9351: u64 [a2 + 0xb8] = a0\n  9355: a0 = u64 [a1 + 0xc0]\n  9359: u64 [a2 + 0xb0] = a0\n  9363: fallthrough\n      : @384 (gas: 16)\n  9364: a0 = u64 [s1 + 0x1b0]\n  9368: a0 = a4 <u a0\n  9371: a2 = u64 [s1 + 0x1b8]\n  9375: a1 = a5 ^ a2\n  9378: a2 = a5 <u a2\n  9381: a2 = a0 if a1 == 0\n  9384: a0 = u64 [s1 + 0x1c0]\n  9388: t1 = t2 <u a0\n  9391: a3 = u64 [s1 + 0x1c8]\n  9395: a1 = t0 ^ a3\n  9398: a3 = t0 <u a3\n  9401: a3 = t1 if a1 == 0\n  9404: a0 = t2 ^ a0\n  9407: a0 = a0 | a1\n  9410: a3 = a2 if a0 == 0\n  9413: jump @386 if a3 != 0\n      : @385 (gas: 1)\n  9416: jump @553\n      : @386 (gas: 11)\n  9419: u64 [s1 + 0x218] = a4\n  9423: u64 [s1 + 0x660] = a4\n  9427: u64 [s1 + 0x210] = a5\n  9431: u64 [s1 + 0x668] = a5\n  9435: u64 [s1 + 0x200] = t2\n  9439: u64 [s1 + 0x670] = t2\n  9443: a1 = s1 + 0x660\n  9447: u64 [s1 + 0x208] = t0\n  9451: u64 [s1 + 0x678] = t0\n  9455: a0 = 0\n  9457: ra = 372, jump @19\n      : @387 [@dyn 186] (gas: 7)\n  9463: u64 [s1 + 1624] = 0\n  9467: u64 [s1 + 1616] = 0\n  9471: u64 [s1 + 1608] = 0\n  9475: a0 = 0x20\n  9478: a1 = s1 + 0x640\n  9482: u64 [s1 + 1600] = 0x2\n  9487: ra = 374, jump @19\n      : @388 [@dyn 187] (gas: 3)\n  9493: a0 = u64 [s1 + 0x1f8]\n  9497: a0 = i32 [a0]\n  9499: jump @390 if a0 >u 63\n      : @389 (gas: 4)\n  9503: a0 = u64 [s1 + 0x1f8]\n  9507: u32 [a0 + 0] = 0x40\n  9510: t0 = 0x178\n  9514: jump @1641\n      : @390 (gas: 1)\n  9518: t0 = 376, jump @1641\n      : @391 [@dyn 188] (gas: 5)\n  9525: ra = 0x17a\n  9529: ecalli 7 // 'hash_keccak_256'\n  9531: a3 = u64 [s1 + 0x1f0]\n  9535: t0 = 0x17c\n  9539: jump @1610\n      : @392 [@dyn 189] (gas: 2)\n  9543: a3 = u64 [s1 + 0x1f0]\n  9547: t0 = 380, jump @1610\n      : @393 [@dyn 190] (gas: 2)\n  9554: a4 = a3 + 0xa\n  9557: t0 = 382, jump @1620\n      : @394 [@dyn 191] (gas: 7)\n  9564: u64 [a3 + 0x68] = a4\n  9567: u64 [a3 + 0x70] = a5\n  9570: u64 [a3 + 0x78] = a2\n  9573: u64 [a3 + 0x80] = a0\n  9577: a0 = s1 + 0x620\n  9581: a1 = s1 + 0x3500\n  9585: ra = 384, jump @21\n      : @395 [@dyn 192] (gas: 2)\n  9591: a0 = u8 [s1 + 0x620]\n  9595: jump @411 if a0 == 0\n      : @396 (gas: 13)\n  9599: a2 = s1 + 0x200\n  9603: a0 = u64 [a2 + 0x18]\n  9606: a3 = s1 + 0x600\n  9610: u64 [a3] = a0\n  9612: a0 = u64 [a2 + 0x10]\n  9615: u64 [a3 + 0x8] = a0\n  9618: a0 = u64 [a2]\n  9620: u64 [a3 + 0x10] = a0\n  9623: a1 = s1 + 0x600\n  9627: a0 = u64 [a2 + 0x8]\n  9630: u64 [a3 + 0x18] = a0\n  9633: a0 = 0\n  9635: ra = 386, jump @19\n      : @397 [@dyn 193] (gas: 7)\n  9641: u64 [s1 + 1528] = 0\n  9645: u64 [s1 + 1520] = 0\n  9649: u64 [s1 + 1512] = 0\n  9653: a0 = 0x20\n  9656: a1 = s1 + 0x5e0\n  9660: u64 [s1 + 1504] = 0x2\n  9665: ra = 388, jump @19\n      : @398 [@dyn 194] (gas: 3)\n  9671: a0 = u64 [s1 + 0x1f8]\n  9675: a0 = i32 [a0]\n  9677: jump @400 if a0 >u 63\n      : @399 (gas: 4)\n  9681: a0 = u64 [s1 + 0x1f8]\n  9685: u32 [a0 + 0] = 0x40\n  9688: t0 = 0x186\n  9692: jump @1641\n      : @400 (gas: 1)\n  9696: t0 = 390, jump @1641\n      : @401 [@dyn 195] (gas: 5)\n  9703: ra = 0x188\n  9707: ecalli 7 // 'hash_keccak_256'\n  9709: a3 = u64 [s1 + 0x1f0]\n  9713: t0 = 0x18a\n  9717: jump @1610\n      : @402 [@dyn 196] (gas: 2)\n  9721: a3 = u64 [s1 + 0x1f0]\n  9725: t0 = 394, jump @1610\n      : @403 [@dyn 197] (gas: 2)\n  9732: a4 = a3 + 0x6\n  9735: t0 = 396, jump @1620\n      : @404 [@dyn 198] (gas: 7)\n  9742: u64 [a3 + 0x88] = a4\n  9746: u64 [a3 + 0x90] = a5\n  9750: u64 [a3 + 0x98] = a2\n  9754: u64 [a3 + 0xa0] = a0\n  9758: a0 = s1 + 0x5c0\n  9762: a1 = s1 + 0x3520\n  9766: ra = 398, jump @21\n      : @405 [@dyn 199] (gas: 15)\n  9772: a1 = s1 + 0x500\n  9776: a0 = u64 [a1 + 0xc0]\n  9780: u64 [s1 + 0x1f0] = a0\n  9784: a0 = u64 [a1 + 0xc8]\n  9788: u64 [s1 + 0x1e0] = a0\n  9792: a0 = u64 [a1 + 0xd0]\n  9796: u64 [s1 + 0x1d8] = a0\n  9800: a0 = u64 [a1 + 0xd8]\n  9804: u64 [s1 + 0x1d0] = a0\n  9808: a0 = s1 + 0x3000\n  9812: i32 a0 = a0 + 0x540\n  9816: ra = 0x190\n  9820: ecalli 8 // 'now'\n  9822: a1 = s1 + 0x3198\n  9826: jump @407\n      : @406 [@dyn 200] (gas: 2)\n  9828: a1 = s1 + 0x3198\n  9832: fallthrough\n      : @407 (gas: 17)\n  9833: a4 = a1 + 0x300\n  9837: a0 = u64 [a4 + 0xc0]\n  9841: t0 = u64 [a1 + 0x3a8]\n  9845: a2 = u64 [a4 + 0xb8]\n  9849: a3 = u64 [a4 + 0xb0]\n  9853: a1 = u64 [s1 + 0x1d0]\n  9857: a4 = a0 ^ a1\n  9860: a1 = a0 <u a1\n  9863: a0 = u64 [s1 + 0x1d8]\n  9867: a5 = a2 <u a0\n  9870: a5 = a1 if a4 != 0\n  9873: a1 = u64 [s1 + 0x1e0]\n  9877: t1 = a3 ^ a1\n  9880: a3 = a3 <u a1\n  9883: a1 = u64 [s1 + 0x1f0]\n  9887: a1 = t0 <u a1\n  9890: t0 = 402, jump @1659\n      : @408 [@dyn 201] (gas: 1)\n  9897: jump @411 if a1 == 0\n      : @409 (gas: 11)\n  9900: a0 = u64 [s1 + 0x190]\n  9904: u64 [s1 + 0x580] = a0\n  9908: a0 = u64 [s1 + 0x198]\n  9912: u64 [s1 + 0x588] = a0\n  9916: a0 = u64 [s1 + 0x1a0]\n  9920: u64 [s1 + 0x590] = a0\n  9924: a0 = s1 + 0x5a0\n  9928: a1 = s1 + 0x580\n  9932: a2 = u64 [s1 + 0x1a8]\n  9936: u64 [s1 + 0x598] = a2\n  9940: ra = 404, jump @1419\n      : @410 [@dyn 202] (gas: 11)\n  9946: a1 = s1 + 0x500\n  9950: a0 = u64 [a1 + 0xb8]\n  9954: a2 = s1 + 0x100\n  9958: u64 [a2 + 0xa8] = a0\n  9962: a0 = u64 [a1 + 0xb0]\n  9966: u64 [a2 + 0xa0] = a0\n  9970: a0 = u64 [a1 + 0xa8]\n  9974: u64 [a2 + 0x98] = a0\n  9978: a0 = u64 [a1 + 0xa0]\n  9982: u64 [a2 + 0x90] = a0\n  9986: fallthrough\n      : @411 (gas: 15)\n  9987: a0 = s1 + 0x200\n  9991: a4 = u64 [a0 + 0x18]\n  9994: a5 = u64 [a0 + 0x10]\n  9997: t0 = u64 [s1 + 0x208]\n 10001: a1 = u64 [a0]\n 10003: a4 = a4 + 0x1\n 10006: a0 = a4 <u 0x1\n 10009: a5 = a5 + a0\n 10012: a0 = a4 | a5\n 10015: a0 = a0 <u 0x1\n 10018: a0 = a0 + a1\n 10021: a1 = a0 <u a1\n 10024: t0 = t0 + a1\n 10027: t2 = a0\n 10029: jump @384\n      : @412 (gas: 1)\n 10032: jump @414 if a0 == 1746487065\n      : @413 (gas: 1)\n 10039: jump @1272\n      : @414 (gas: 10)\n 10042: u64 [a2 + 1312] = 0\n 10046: u64 [a2 + 1304] = 0\n 10050: u64 [a2 + 1296] = 0\n 10054: u64 [a2 + 1288] = 0\n 10058: a0 = s1 + 0x4000\n 10062: i32 a0 = a0 + 0xfffffffffffffea0\n 10066: ra = 0x196\n 10070: ecalli 15 // 'value_transferred'\n 10072: t0 = 0x198\n 10076: jump @1617\n      : @415 [@dyn 203] (gas: 1)\n 10080: t0 = 408, jump @1617\n      : @416 [@dyn 204] (gas: 1)\n 10087: t0 = 410, jump @1653\n      : @417 [@dyn 205] (gas: 1)\n 10094: jump @419 if a0 == 0\n      : @418 (gas: 1)\n 10097: jump @1292\n      : @419 (gas: 3)\n 10100: a0 = u64 [s1 + 0x218]\n 10104: a0 = i32 [a0]\n 10106: jump @421 if a0 >u 67\n      : @420 (gas: 1)\n 10110: jump @1293\n      : @421 (gas: 2)\n 10113: a0 = s1 + 0x2960\n 10117: ra = 412, jump @1338\n      : @422 [@dyn 206] (gas: 16)\n 10123: a1 = s1 + 0x2198\n 10127: a2 = a1 + 0x700\n 10131: a0 = u64 [a2 + 0xd8]\n 10135: a1 = s1 + 0x200\n 10139: u64 [a1 + 0x8] = a0\n 10142: a0 = u64 [a2 + 0xd0]\n 10146: u64 [a1 + 0x10] = a0\n 10149: a0 = u64 [a2 + 0xc8]\n 10153: u64 [a1 + 0x18] = a0\n 10156: a0 = s1 + 0x4000\n 10160: i32 a0 = a0 + 0xfffffffffffffec0\n 10164: a1 = 0x4\n 10167: ra = 0x19e\n 10171: ecalli 2 // 'call_data_load'\n 10173: t0 = 0x1a0\n 10177: jump @1617\n      : @423 [@dyn 207] (gas: 1)\n 10181: t0 = 416, jump @1617\n      : @424 [@dyn 208] (gas: 13)\n 10188: a0 = u64 [a4 + 0x28]\n 10191: a1 = u64 [a4 + 0x30]\n 10194: a2 = u64 [a4 + 0x38]\n 10197: a3 = u64 [a4 + 0x40]\n 10200: a4 = s1 + 0x2198\n 10204: a5 = a4 + 0x700\n 10208: u64 [a5 + 0xc0] = a3\n 10212: u64 [a5 + 0xb8] = a2\n 10216: u64 [a5 + 0xb0] = a1\n 10220: a1 = s1 + 0x2940\n 10224: u64 [a5 + 0xa8] = a0\n 10228: a0 = 0\n 10230: ra = 418, jump @19\n      : @425 [@dyn 209] (gas: 3)\n 10236: t0 = 0x1a4\n 10240: a1 = s1 + 0x2198\n 10244: fallthrough\n      : @426 [@dyn 210] (gas: 8)\n 10245: u64 [a1 + 1952] = 0\n 10249: u64 [a1 + 1944] = 0\n 10253: u64 [a1 + 1928] = 0x3\n 10258: a2 = a1\n 10260: a0 = 0x20\n 10263: a1 = s1 + 0x2920\n 10267: u64 [a2 + 1936] = 0\n 10271: ra = 422, jump @19\n      : @427 [@dyn 211] (gas: 3)\n 10277: a1 = 0x2020c\n 10282: a0 = i32 [0x2020c]\n 10287: jump @429 if a0 >u 63\n      : @428 (gas: 2)\n 10291: u32 [0x2020c] = 0x40\n 10297: fallthrough\n      : @429 (gas: 14)\n 10298: a0 = sp + 0xffffffffffffffe0\n 10301: a2 = a0 & 0xffffffffffffffe0\n 10304: u64 [s1 + 0x1f0] = a2\n 10308: sp = a2\n 10310: a0 = 0x20220\n 10315: i32 a0 = a0 + 0\n 10317: i32 a2 = a2 + 0\n 10319: u64 [s1 + 0x200] = a1\n 10323: a1 = 0x40\n 10326: u64 [s1 + 0x1f8] = a0\n 10330: ra = 0x1a8\n 10334: ecalli 7 // 'hash_keccak_256'\n 10336: t0 = 0x1aa\n 10340: jump @1602\n      : @430 [@dyn 212] (gas: 1)\n 10344: t0 = 426, jump @1602\n      : @431 [@dyn 213] (gas: 11)\n 10351: a2 = s1 + 0x2198\n 10355: u64 [a2 + 1920] = 0\n 10359: a3 = a2 + 0x700\n 10363: u64 [a3 + 0x78] = a0\n 10366: a0 = u64 [s1 + 0x210]\n 10370: u64 [a3 + 0x70] = a0\n 10373: a1 = s1 + 0x2900\n 10377: a0 = u64 [s1 + 0x218]\n 10381: u64 [a3 + 0x68] = a0\n 10384: a0 = 0\n 10386: ra = 428, jump @19\n      : @432 [@dyn 214] (gas: 15)\n 10392: a4 = s1 + 0x100\n 10396: a0 = u64 [a4 + 0xd0]\n 10400: a1 = s1 + 0x2198\n 10404: a2 = a1 + 0x700\n 10408: u64 [a2 + 0x60] = a0\n 10411: a0 = u64 [a4 + 0xd8]\n 10415: u64 [a2 + 0x58] = a0\n 10418: a0 = u64 [a4 + 0xe0]\n 10422: u64 [a2 + 0x50] = a0\n 10425: a3 = a1\n 10427: a0 = 0x20\n 10430: a1 = s1 + 0x28e0\n 10434: a2 = u64 [a4 + 0xe8]\n 10438: u64 [a3 + 0x748] = a2\n 10442: ra = 430, jump @19\n      : @433 [@dyn 215] (gas: 3)\n 10448: a1 = u64 [s1 + 0x200]\n 10452: a0 = i32 [a1]\n 10454: jump @435 if a0 >u 63\n      : @434 (gas: 2)\n 10458: u32 [a1 + 0] = 0x40\n 10461: fallthrough\n      : @435 (gas: 4)\n 10462: a0 = sp + 0xffffffffffffffe0\n 10465: a0 = a0 & 0xffffffffffffffe0\n 10468: u64 [s1 + 0x218] = a0\n 10472: t0 = 432, jump @1616\n      : @436 [@dyn 216] (gas: 4)\n 10479: ra = 0x1b2\n 10483: ecalli 7 // 'hash_keccak_256'\n 10485: t0 = 0x1b4\n 10489: jump @1611\n      : @437 [@dyn 217] (gas: 1)\n 10493: t0 = 436, jump @1611\n      : @438 [@dyn 218] (gas: 2)\n 10500: a0 = s1 + 0x28c0\n 10504: ra = 438, jump @21\n      : @439 [@dyn 219] (gas: 6)\n 10510: a0 = s1 + 0x2198\n 10514: a0 = u64 [a0 + 0x728]\n 10518: u64 [s1 + 0x218] = a0\n 10522: a0 = s1 + 0x28a0\n 10526: a1 = 0x40\n 10529: ra = 440, jump @17\n      : @440 [@dyn 220] (gas: 14)\n 10535: a3 = s1 + 0x2198\n 10539: a5 = a3 + 0x700\n 10543: a4 = u64 [a5 + 0x20]\n 10546: a1 = u64 [a5 + 0x18]\n 10549: a2 = u64 [a5 + 0x10]\n 10552: a0 = u64 [a5 + 0x8]\n 10555: a4 = a4 | a2\n 10558: a2 = a0 | a1\n 10561: a2 = a2 | a4\n 10564: a2 = a2 >> 0x20\n 10567: a1 = a1 | a4\n 10570: a1 = a1 << 0x20\n 10573: a1 = a1 | a2\n 10576: jump @442 if a1 == 0\n      : @441 (gas: 1)\n 10579: jump @1111\n      : @442 (gas: 10)\n 10582: a1 = u8 [s1 + 0x218]\n 10586: a1 = a1 >u 0\n 10588: u64 [a3 + 1792] = 0\n 10592: u64 [a3 + 1784] = 0\n 10596: u64 [a3 + 0x6e8] = a1\n 10600: a1 = s1 + 0x2880\n 10604: u64 [a3 + 1776] = 0\n 10608: u64 [s1 + 0x218] = a0\n 10612: ra = 0x230\n 10616: jump @19\n      : @443 (gas: 2)\n 10619: a0 = i32 [a3]\n 10621: jump @445 if a0 >u 35\n      : @444 (gas: 1)\n 10625: jump @1294\n      : @445 (gas: 22)\n 10628: a0 = s1 + 0x4000\n 10632: i32 a0 = a0 + 0xfffffffffffff9a0\n 10636: a1 = 0x4\n 10639: ecalli 2 // 'call_data_load'\n 10641: a0 = s1 + 0x3998\n 10645: a1 = u64 [a0 + 0x20]\n 10648: a2 = u64 [a0 + 0x18]\n 10651: a3 = u64 [a0 + 0x10]\n 10654: a4 = u64 [a0 + 0x8]\n 10657: a0 = s1 + 0x1998\n 10661: a5 = s1 + 0x100\n 10665: u64 [a5 + 0xa8] = a1\n 10669: u64 [a0 + 0x440] = a1\n 10673: u64 [a5 + 0xa0] = a2\n 10677: u64 [a0 + 0x438] = a2\n 10681: u64 [a5 + 0x98] = a3\n 10685: u64 [a0 + 0x430] = a3\n 10689: a1 = s1 + 0x1dc0\n 10693: u64 [a5 + 0x90] = a4\n 10697: u64 [a0 + 0x428] = a4\n 10701: a0 = 0\n 10703: ra = 442, jump @19\n      : @446 [@dyn 221] (gas: 3)\n 10709: t0 = 0x1bc\n 10713: a1 = s1 + 0x1998\n 10717: fallthrough\n      : @447 [@dyn 222] (gas: 8)\n 10718: u64 [a1 + 1056] = 0\n 10722: u64 [a1 + 1048] = 0\n 10726: u64 [a1 + 1032] = 0x2\n 10731: a2 = a1\n 10733: a0 = 0x20\n 10736: a1 = s1 + 0x1da0\n 10740: u64 [a2 + 1040] = 0\n 10744: ra = 446, jump @19\n      : @448 [@dyn 223] (gas: 4)\n 10750: a2 = 0x2020c\n 10755: a0 = i32 [0x2020c]\n 10760: a1 = 0x3f\n 10763: jump @450 if a1 <u a0\n      : @449 (gas: 4)\n 10766: u32 [0x2020c] = 0x40\n 10772: u64 [s1 + 0x1f0] = a2\n 10776: t0 = 0x1c0\n 10780: jump @1615\n      : @450 (gas: 2)\n 10784: u64 [s1 + 0x1f0] = a2\n 10788: t0 = 448, jump @1615\n      : @451 [@dyn 224] (gas: 9)\n 10795: a0 = 0x20220\n 10800: i32 a0 = a0 + 0\n 10802: i32 a2 = a2 + 0\n 10804: a1 = 0x40\n 10807: u64 [s1 + 0x1f8] = a0\n 10811: ra = 0x1c2\n 10815: ecalli 7 // 'hash_keccak_256'\n 10817: t0 = 0x1c4\n 10821: jump @1607\n      : @452 [@dyn 225] (gas: 1)\n 10825: t0 = 452, jump @1607\n      : @453 [@dyn 226] (gas: 2)\n 10832: a0 = s1 + 0x1d80\n 10836: ra = 454, jump @1508\n      : @454 [@dyn 227] (gas: 13)\n 10842: a1 = s1 + 0x1998\n 10846: a0 = u64 [a1 + 0x400]\n 10850: u64 [s1 + 0x1b0] = a0\n 10854: a0 = u64 [a1 + 0x3f8]\n 10858: u64 [s1 + 0x1b8] = a0\n 10862: a0 = u64 [a1 + 0x3f0]\n 10866: a4 = a1\n 10868: u64 [s1 + 0x1c8] = a0\n 10872: a1 = u64 [s1 + 0x200]\n 10876: a0 = a1 + 0xa\n 10879: a1 = a0 <u a1\n 10882: a3 = u64 [s1 + 0x208]\n 10886: t0 = 456, jump @1621\n      : @455 [@dyn 228] (gas: 15)\n 10893: a1 = u64 [a4 + 0x3e8]\n 10897: u64 [s1 + 0x1c0] = a1\n 10901: a4 = s1 + 0x3998\n 10905: u64 [a4 + 0x28] = a0\n 10908: u64 [a4 + 0x30] = a2\n 10911: a0 = u64 [s1 + 0x210]\n 10915: a3 = a3 + a0\n 10918: u64 [a4 + 0x38] = a3\n 10921: a0 = a3 <u a0\n 10924: a1 = u64 [s1 + 0x218]\n 10928: a0 = a0 + a1\n 10931: u64 [a4 + 0x40] = a0\n 10934: a0 = s1 + 0x1d60\n 10938: a1 = s1 + 0x39c0\n 10942: ra = 458, jump @21\n      : @456 [@dyn 229] (gas: 3)\n 10948: t0 = 0x1cc\n 10952: a1 = s1 + 0x1998\n 10956: fallthrough\n      : @457 [@dyn 230] (gas: 7)\n 10957: a0 = u8 [a1 + 0x3c8]\n 10961: u64 [a1 + 960] = 0\n 10965: u64 [a1 + 952] = 0\n 10969: u64 [a1 + 0x3a8] = a0\n 10973: a0 = s1 + 0x1d40\n 10977: u64 [a1 + 944] = 0\n 10981: ra = 462, jump @1466\n      : @458 [@dyn 231] (gas: 4)\n 10987: a5 = s1 + 0x200\n 10991: a1 = u64 [a5]\n 10993: a0 = a1 + 0x6\n 10996: t0 = 464, jump @1613\n      : @459 [@dyn 232] (gas: 7)\n 11003: u64 [a4 + 0x60] = a1\n 11006: u64 [a4 + 0x58] = a3\n 11009: u64 [a4 + 0x50] = a2\n 11012: u64 [a4 + 0x48] = a0\n 11015: a0 = s1 + 0x1d20\n 11019: a1 = s1 + 0x39e0\n 11023: ra = 466, jump @21\n      : @460 [@dyn 233] (gas: 15)\n 11029: a0 = s1 + 0x1998\n 11033: a2 = a0 + 0x300\n 11037: a1 = u64 [a2 + 0x88]\n 11041: u64 [s1 + 0x1e8] = a1\n 11045: a1 = u64 [a2 + 0x90]\n 11049: u64 [s1 + 0x1e0] = a1\n 11053: a1 = u64 [a2 + 0x98]\n 11057: u64 [s1 + 0x1d8] = a1\n 11061: a0 = u64 [a2 + 0xa0]\n 11065: u64 [s1 + 0x1d0] = a0\n 11069: a0 = s1 + 0x4000\n 11073: i32 a0 = a0 + 0xfffffffffffffa00\n 11077: ra = 0x1d4\n 11081: ecalli 8 // 'now'\n 11083: fallthrough\n      : @461 [@dyn 234] (gas: 17)\n 11084: a1 = s1 + 0x3998\n 11088: a0 = u64 [a1 + 0x80]\n 11092: t0 = u64 [a1 + 0x68]\n 11095: a2 = u64 [a1 + 0x78]\n 11098: a3 = u64 [a1 + 0x70]\n 11101: a1 = u64 [s1 + 0x1d0]\n 11105: a4 = a0 ^ a1\n 11108: a1 = a0 <u a1\n 11111: a0 = u64 [s1 + 0x1d8]\n 11115: a5 = a2 <u a0\n 11118: a5 = a1 if a4 != 0\n 11121: a1 = u64 [s1 + 0x1e0]\n 11125: t1 = a3 ^ a1\n 11128: a3 = a3 <u a1\n 11131: a1 = u64 [s1 + 0x1e8]\n 11135: a1 = t0 <u a1\n 11138: t0 = 470, jump @1659\n      : @462 [@dyn 235] (gas: 1)\n 11145: jump @464 if a1 != 0\n      : @463 (gas: 1)\n 11148: jump @724\n      : @464 (gas: 13)\n 11151: a0 = u64 [s1 + 0x190]\n 11155: a2 = s1 + 0x1998\n 11159: a3 = a2 + 0x200\n 11163: u64 [a3 + 0xc8] = a0\n 11167: a0 = u64 [s1 + 0x198]\n 11171: u64 [a3 + 0xd0] = a0\n 11175: a0 = u64 [s1 + 0x1a0]\n 11179: u64 [a3 + 0xd8] = a0\n 11183: a1 = s1 + 0x1c60\n 11187: a0 = u64 [s1 + 0x1a8]\n 11191: u64 [a3 + 0xe0] = a0\n 11195: a0 = 0\n 11197: ra = 472, jump @19\n      : @465 [@dyn 236] (gas: 3)\n 11203: t0 = 0x1da\n 11207: a1 = s1 + 0x1998\n 11211: fallthrough\n      : @466 [@dyn 237] (gas: 8)\n 11212: u64 [a1 + 704] = 0\n 11216: u64 [a1 + 696] = 0\n 11220: u64 [a1 + 680] = 0x3\n 11225: a2 = a1\n 11227: a0 = 0x20\n 11230: a1 = s1 + 0x1c40\n 11234: u64 [a2 + 688] = 0\n 11238: ra = 476, jump @19\n      : @467 [@dyn 238] (gas: 3)\n 11244: a1 = u64 [s1 + 0x1f0]\n 11248: a0 = i32 [a1]\n 11250: jump @469 if a0 >u 63\n      : @468 (gas: 2)\n 11254: u32 [a1 + 0] = 0x40\n 11257: fallthrough\n      : @469 (gas: 4)\n 11258: a0 = sp + 0xffffffffffffffe0\n 11261: a0 = a0 & 0xffffffffffffffe0\n 11264: u64 [s1 + 0x1e8] = a0\n 11268: t0 = 478, jump @1616\n      : @470 [@dyn 239] (gas: 4)\n 11275: ra = 0x1e0\n 11279: ecalli 7 // 'hash_keccak_256'\n 11281: t0 = 0x1e2\n 11285: jump @1612\n      : @471 [@dyn 240] (gas: 1)\n 11289: t0 = 482, jump @1612\n      : @472 [@dyn 241] (gas: 18)\n 11296: u64 [s1 + 0x188] = a0\n 11300: a0 = sp + 0xffffffffffffffe0\n 11303: a0 = a0 & 0xffffffffffffffe0\n 11306: u64 [s1 + 0x1e8] = a0\n 11310: sp = a0\n 11312: a2 = s1 + 0x1998\n 11316: a0 = u64 [s1 + 0x1b0]\n 11320: a3 = a2 + 0x200\n 11324: u64 [a3 + 0xa0] = a0\n 11328: a0 = u64 [s1 + 0x1b8]\n 11332: u64 [a3 + 0x98] = a0\n 11336: a0 = u64 [s1 + 0x1c8]\n 11340: u64 [a3 + 0x90] = a0\n 11344: a1 = s1 + 0x1c20\n 11348: a0 = u64 [s1 + 0x1c0]\n 11352: u64 [a3 + 0x88] = a0\n 11356: a0 = 0\n 11358: ra = 484, jump @19\n      : @473 [@dyn 242] (gas: 3)\n 11364: t0 = 0x1e6\n 11368: a1 = s1 + 0x1998\n 11372: fallthrough\n      : @474 [@dyn 243] (gas: 13)\n 11373: a0 = u64 [s1 + 0x188]\n 11377: a2 = a1 + 0x200\n 11381: u64 [a2 + 0x80] = a0\n 11385: a0 = u64 [s1 + 0x1d0]\n 11389: u64 [a2 + 0x78] = a0\n 11392: a0 = u64 [s1 + 0x1d8]\n 11396: u64 [a2 + 0x70] = a0\n 11399: a3 = a1\n 11401: a0 = 0x20\n 11404: a1 = s1 + 0x1c00\n 11408: a2 = u64 [s1 + 0x1e0]\n 11412: u64 [a3 + 0x268] = a2\n 11416: ra = 488, jump @19\n      : @475 [@dyn 244] (gas: 3)\n 11422: a1 = u64 [s1 + 0x1f0]\n 11426: a0 = i32 [a1]\n 11428: jump @477 if a0 >u 63\n      : @476 (gas: 2)\n 11432: u32 [a1 + 0] = 0x40\n 11435: fallthrough\n      : @477 (gas: 4)\n 11436: a0 = sp + 0xffffffffffffffe0\n 11439: a0 = a0 & 0xffffffffffffffe0\n 11442: u64 [s1 + 0x1e0] = a0\n 11446: t0 = 490, jump @1616\n      : @478 [@dyn 245] (gas: 5)\n 11453: ra = 0x1ec\n 11457: ecalli 7 // 'hash_keccak_256'\n 11459: a3 = u64 [s1 + 0x1e0]\n 11463: t0 = 0x1ee\n 11467: jump @1614\n      : @479 [@dyn 246] (gas: 2)\n 11471: a3 = u64 [s1 + 0x1e0]\n 11475: t0 = 494, jump @1614\n      : @480 [@dyn 247] (gas: 3)\n 11482: i32 a0 = a0 + 0xfffffffffffffbe0\n 11486: a0 = a0 + s1\n 11489: ra = 496, jump @21\n      : @481 [@dyn 248] (gas: 3)\n 11495: a0 = s1 + 0x1998\n 11499: a0 = u8 [a0 + 0x248]\n 11503: jump @483 if a0 == 0\n      : @482 (gas: 1)\n 11506: jump @853\n      : @483 (gas: 26)\n 11509: a0 = sp + 0xffffffffffffffe0\n 11512: a1 = a0 & 0xffffffffffffffe0\n 11515: sp = a1\n 11517: a0 = u64 [s1 + 0x200]\n 11521: a3 = a0 + 0x7\n 11524: a0 = a3 <u a0\n 11527: a2 = u64 [s1 + 0x208]\n 11531: a4 = a2 + a0\n 11534: a2 = a4 <u a2\n 11537: a2 = a0 if a0 == 0\n 11540: a0 = u64 [s1 + 0x210]\n 11544: a2 = a2 + a0\n 11547: a0 = a2 <u a0\n 11550: a5 = u64 [s1 + 0x218]\n 11554: a0 = a0 + a5\n 11557: u64 [s1 + 0x178] = a4\n 11561: u64 [a1 + 0x8] = a4\n 11564: u64 [s1 + 0x180] = a3\n 11568: u64 [a1] = a3\n 11570: u64 [s1 + 0x170] = a2\n 11574: u64 [a1 + 0x10] = a2\n 11577: u64 [s1 + 0x168] = a0\n 11581: u64 [a1 + 0x18] = a0\n 11584: a0 = s1 + 0x1b20\n 11588: u64 [s1 + 0x188] = a1\n 11592: ra = 498, jump @21\n      : @484 [@dyn 249] (gas: 11)\n 11598: a1 = s1 + 0x1998\n 11602: a2 = a1 + 0x100\n 11606: a0 = u64 [a2 + 0xa0]\n 11610: u64 [s1 + 0x1d0] = a0\n 11614: a0 = u64 [a2 + 0x98]\n 11618: u64 [s1 + 0x1d8] = a0\n 11622: a0 = u64 [a2 + 0x90]\n 11626: u64 [s1 + 0x1e0] = a0\n 11630: a0 = u64 [a2 + 0x88]\n 11634: u64 [s1 + 0x1e8] = a0\n 11638: t0 = 500, jump @1651\n      : @485 [@dyn 250] (gas: 18)\n 11645: a0 = a2 + 0x5\n 11648: a4 = a0 <u a2\n 11651: a3 = u64 [s1 + 0x208]\n 11655: a2 = a3 + a4\n 11658: a3 = a2 <u a3\n 11661: a3 = a4 if a4 == 0\n 11664: a4 = u64 [s1 + 0x210]\n 11668: a3 = a3 + a4\n 11671: a4 = a3 <u a4\n 11674: a5 = u64 [s1 + 0x218]\n 11678: a4 = a4 + a5\n 11681: u64 [a1 + 0x18] = a4\n 11684: u64 [a1 + 0x10] = a3\n 11687: u64 [a1 + 0x8] = a2\n 11690: u64 [a1] = a0\n 11692: a0 = s1 + 0x1b00\n 11696: u64 [s1 + 0x160] = a1\n 11700: ra = 502, jump @21\n      : @486 [@dyn 251] (gas: 22)\n 11706: t0 = u64 [s1 + 0x1d0]\n 11710: a3 = s1 + 0x1998\n 11714: a4 = a3 + 0x100\n 11718: a0 = u64 [a4 + 0x70]\n 11721: a1 = u64 [a4 + 0x68]\n 11724: a2 = u64 [a4 + 0x78]\n 11727: a3 = u64 [a4 + 0x80]\n 11731: a5 = u64 [s1 + 0x1e0]\n 11735: a4 = a5 ^ a0\n 11738: a0 = a5 <u a0\n 11741: a5 = u64 [s1 + 0x1e8]\n 11745: a1 = a5 <u a1\n 11748: a1 = a0 if a4 != 0\n 11751: a0 = t0 ^ a3\n 11754: a5 = t0 <u a3\n 11757: a3 = u64 [s1 + 0x1d8]\n 11761: a4 = a3 <u a2\n 11764: a4 = a5 if a0 != 0\n 11767: a2 = a2 ^ a3\n 11770: a0 = a0 | a2\n 11773: a1 = a4 if a0 != 0\n 11776: jump @488 if a1 != 0\n      : @487 (gas: 1)\n 11779: jump @917\n      : @488 (gas: 4)\n 11782: a5 = s1 + 0x200\n 11786: a1 = u64 [a5]\n 11788: a0 = a1 + 0x4\n 11791: t0 = 504, jump @1613\n      : @489 [@dyn 252] (gas: 7)\n 11798: u64 [a4 + 0x88] = a0\n 11802: u64 [a4 + 0x90] = a2\n 11806: u64 [a4 + 0x98] = a3\n 11810: u64 [a4 + 0xa0] = a1\n 11814: a0 = s1 + 0x1a40\n 11818: a1 = s1 + 0x3a20\n 11822: ra = 506, jump @21\n      : @490 [@dyn 253] (gas: 19)\n 11828: a0 = s1 + 0x1998\n 11832: a1 = u64 [a0 + 0xa8]\n 11836: u64 [s1 + 0x158] = a1\n 11840: a1 = u64 [a0 + 0xb0]\n 11844: u64 [s1 + 0x150] = a1\n 11848: a1 = u64 [a0 + 0xb8]\n 11852: u64 [s1 + 0x148] = a1\n 11856: a0 = u64 [a0 + 0xc0]\n 11860: u64 [s1 + 0x140] = a0\n 11864: a0 = s1 + 0x3998\n 11868: u64 [a0 + 192] = 0\n 11872: u64 [a0 + 184] = 0\n 11876: u64 [a0 + 176] = 0\n 11880: u64 [a0 + 168] = 0\n 11884: a0 = s1 + 0x4000\n 11888: i32 a0 = a0 + 0xfffffffffffffa40\n 11892: ra = 0x1fc\n 11896: ecalli 15 // 'value_transferred'\n 11898: fallthrough\n      : @491 [@dyn 254] (gas: 17)\n 11899: a1 = s1 + 0x3998\n 11903: a0 = u64 [a1 + 0xc0]\n 11907: t0 = u64 [a1 + 0xa8]\n 11911: a2 = u64 [a1 + 0xb8]\n 11915: a3 = u64 [a1 + 0xb0]\n 11919: a1 = u64 [s1 + 0x140]\n 11923: a4 = a0 ^ a1\n 11926: a1 = a0 <u a1\n 11929: a0 = u64 [s1 + 0x148]\n 11933: a5 = a2 <u a0\n 11936: a5 = a1 if a4 != 0\n 11939: a1 = u64 [s1 + 0x150]\n 11943: t1 = a3 ^ a1\n 11946: a3 = a3 <u a1\n 11949: a1 = u64 [s1 + 0x158]\n 11953: a1 = t0 <u a1\n 11956: t0 = 510, jump @1659\n      : @492 [@dyn 255] (gas: 1)\n 11963: jump @494 if a1 != 0\n      : @493 (gas: 1)\n 11966: jump @1050\n      : @494 (gas: 3)\n 11969: a0 = s1 + 0x1720\n 11973: a1 = 0x40\n 11976: ra = 512, jump @17\n      : @495 [@dyn 256] (gas: 14)\n 11982: a2 = s1 + 0x1198\n 11986: t0 = u64 [a2 + 0x5a0]\n 11990: a1 = a2 + 0x500\n 11994: a5 = u64 [a1 + 0x98]\n 11998: a4 = u64 [a1 + 0x90]\n 12002: a0 = u64 [a1 + 0x88]\n 12006: a3 = a4 | t0\n 12009: a1 = a0 | a5\n 12012: a1 = a1 | a3\n 12015: a1 = a1 >> 0x20\n 12018: a3 = a3 | a5\n 12021: a3 = a3 << 0x20\n 12024: a1 = a1 | a3\n 12027: jump @497 if a1 == 0\n      : @496 (gas: 1)\n 12030: jump @1111\n      : @497 (gas: 11)\n 12033: u64 [a2 + 1400] = 0\n 12037: u64 [a2 + 1392] = 0\n 12041: u64 [a2 + 1384] = 0\n 12045: a3 = 0x8c379a000000000\n 12055: a1 = s1 + 0x1700\n 12059: u64 [a2 + 0x580] = a3\n 12063: u64 [s1 + 0x218] = a0\n 12067: u64 [s1 + 0x210] = a4\n 12071: u64 [s1 + 0x200] = t0\n 12075: u64 [s1 + 0x208] = a5\n 12079: ra = 514, jump @19\n      : @498 [@dyn 257] (gas: 1)\n 12085: t0 = 516, jump @1589\n      : @499 [@dyn 258] (gas: 1)\n 12092: jump @501 if a0 != 0\n      : @500 (gas: 1)\n 12095: jump @1111\n      : @501 (gas: 10)\n 12098: i32 a0 = a1 + 0x4\n 12101: a2 = s1 + 0x1198\n 12105: u64 [a2 + 1376] = 0\n 12109: u64 [a2 + 1368] = 0\n 12113: u64 [a2 + 1352] = 0x20\n 12118: a1 = s1 + 0x16e0\n 12122: u64 [a2 + 1360] = 0\n 12126: u64 [s1 + 0x208] = a3\n 12130: u64 [s1 + 0x200] = a4\n 12134: ra = 518, jump @19\n      : @502 [@dyn 259] (gas: 1)\n 12140: t0 = 520, jump @1592\n      : @503 [@dyn 260] (gas: 1)\n 12147: jump @505 if a0 != 0\n      : @504 (gas: 1)\n 12150: jump @1111\n      : @505 (gas: 8)\n 12153: i32 a0 = a1 + 0x24\n 12156: a3 = s1 + 0x1198\n 12160: u64 [a3 + 1344] = 0\n 12164: u64 [a3 + 1336] = 0\n 12168: u64 [a3 + 1320] = 0x16\n 12173: a1 = s1 + 0x16c0\n 12177: u64 [a3 + 1328] = 0\n 12181: ra = 522, jump @19\n      : @506 [@dyn 261] (gas: 1)\n 12187: t0 = 524, jump @1593\n      : @507 [@dyn 262] (gas: 1)\n 12194: jump @509 if a0 != 0\n      : @508 (gas: 1)\n 12197: jump @1111\n      : @509 (gas: 13)\n 12200: i32 a0 = a3 + 0x44\n 12203: a1 = u64 [0x20140]\n 12208: a2 = u64 [0x20148]\n 12213: a3 = u64 [0x20150]\n 12218: a4 = s1 + 0x1198\n 12222: a5 = a4 + 0x500\n 12226: u64 [a5 + 0x20] = a1\n 12229: u64 [a5 + 0x18] = a2\n 12232: u64 [a5 + 0x10] = a3\n 12235: a1 = s1 + 0x16a0\n 12239: u64 [a4 + 1288] = 0\n 12243: ra = 0x3ba\n 12247: jump @19\n      : @510 (gas: 11)\n 12250: a0 = s1 + 0x3998\n 12254: u64 [a0 + 1376] = 0\n 12258: u64 [a0 + 1368] = 0\n 12262: u64 [a0 + 1360] = 0\n 12266: u64 [a0 + 1352] = 0\n 12270: a0 = s1 + 0x4000\n 12274: i32 a0 = a0 + 0xfffffffffffffee0\n 12278: ra = 0x20e\n 12282: ecalli 15 // 'value_transferred'\n 12284: t0 = 0x210\n 12288: jump @1617\n      : @511 [@dyn 263] (gas: 1)\n 12292: t0 = 528, jump @1617\n      : @512 [@dyn 264] (gas: 8)\n 12299: a0 = u64 [a4 + 0x58]\n 12302: a1 = u64 [a4 + 0x60]\n 12305: a2 = u64 [a4 + 0x50]\n 12308: a3 = u64 [a4 + 0x48]\n 12311: a1 = a1 | a2\n 12314: a0 = a0 | a3\n 12317: a0 = a0 | a1\n 12320: jump @514 if a0 == 0\n      : @513 (gas: 1)\n 12323: jump @1295\n      : @514 (gas: 3)\n 12326: a0 = u64 [s1 + 0x218]\n 12330: a0 = i32 [a0]\n 12332: jump @516 if a0 >u 3\n      : @515 (gas: 1)\n 12336: jump @1296\n      : @516 (gas: 8)\n 12339: a1 = s1 + 0x3998\n 12343: u64 [a1 + 1408] = 0\n 12347: u64 [a1 + 1400] = 0\n 12351: u64 [a1 + 1392] = 0\n 12355: u64 [a1 + 1384] = 0x1\n 12360: a0 = s1 + 0x29c0\n 12364: a1 = s1 + 0x3f00\n 12368: ra = 530, jump @21\n      : @517 [@dyn 265] (gas: 13)\n 12374: a1 = s1 + 0x2998\n 12378: a0 = u64 [a1 + 0x40]\n 12381: a2 = s1 + 0x200\n 12385: u64 [a2 + 0x18] = a0\n 12388: a0 = u64 [a1 + 0x38]\n 12391: u64 [a2 + 0x10] = a0\n 12394: a0 = u64 [a1 + 0x30]\n 12397: u64 [a2 + 0x8] = a0\n 12400: a0 = u64 [a1 + 0x28]\n 12403: u64 [a2] = a0\n 12405: a0 = s1 + 0x29a0\n 12409: a1 = 0x40\n 12412: ra = 532, jump @17\n      : @518 [@dyn 266] (gas: 6)\n 12418: a3 = s1 + 0x2998\n 12422: a0 = u64 [a3 + 0x20]\n 12425: a1 = u64 [a3 + 0x18]\n 12428: a2 = u64 [a3 + 0x10]\n 12431: a4 = u64 [a3 + 0x8]\n 12434: t0 = 534, jump @1644\n      : @519 [@dyn 267] (gas: 1)\n 12441: jump @521 if a0 == 0\n      : @520 (gas: 1)\n 12444: jump @1111\n      : @521 (gas: 16)\n 12447: a0 = s1 + 0x2198\n 12451: a2 = s1 + 0x200\n 12455: a1 = u64 [a2]\n 12457: a5 = a0 + 0x700\n 12461: u64 [a5 + 0xe8] = a1\n 12465: a1 = u64 [a2 + 0x8]\n 12468: u64 [a5 + 0xf0] = a1\n 12472: a1 = u64 [a2 + 0x10]\n 12475: u64 [a5 + 0xf8] = a1\n 12479: a1 = s1 + 0x2980\n 12483: a0 = u64 [a2 + 0x18]\n 12486: u64 [a3] = a0\n 12488: a0 = a4\n 12490: u64 [a2 + 0x18] = a4\n 12493: ra = 0x230\n 12497: jump @19\n      : @522 (gas: 3)\n 12500: a0 = u64 [s1 + 0x218]\n 12504: a0 = i32 [a0]\n 12506: jump @524 if a0 >u 163\n      : @523 (gas: 1)\n 12511: jump @1297\n      : @524 (gas: 5)\n 12514: a0 = s1 + 0x3000\n 12518: i32 a0 = a0 + 0x560\n 12522: a1 = 0x4\n 12525: ecalli 2 // 'call_data_load'\n 12527: fallthrough\n      : @525 (gas: 9)\n 12528: a5 = s1 + 0x3198\n 12532: a3 = a5 + 0x300\n 12536: a0 = u64 [a3 + 0xe0]\n 12540: a1 = u64 [a3 + 0xd8]\n 12544: a2 = u64 [a3 + 0xd0]\n 12548: a3 = a1 | a0\n 12551: a4 = a2 <u 0x1\n 12554: a4 = 0 if a3 != 0\n 12556: jump @527 if a4 != 0\n      : @526 (gas: 1)\n 12559: jump @1298\n      : @527 (gas: 28)\n 12562: a3 = u64 [a5 + 0x3c8]\n 12566: a4 = u64 [s1 + 0x218]\n 12570: t0 = u32 [a4]\n 12572: a5 = a3 + 0x4\n 12575: a3 = a5 <u a3\n 12578: a4 = a2 + a3\n 12581: a2 = a4 <u a2\n 12584: a2 = a3 if a3 == 0\n 12587: a2 = a2 + a1\n 12590: a1 = a2 <u a1\n 12593: a3 = a0 + a1\n 12596: a0 = s1 + 0x1198\n 12600: u64 [a0 + 1184] = 0\n 12604: u64 [a0 + 1176] = 0\n 12608: u64 [a0 + 1168] = 0\n 12612: u64 [a0 + 0x488] = t0\n 12616: a1 = a0 + 0x400\n 12620: u64 [a1 + 0xa8] = a5\n 12624: u64 [a1 + 0xb0] = a4\n 12628: u64 [a1 + 0xb8] = a2\n 12632: a4 = a0\n 12634: a0 = s1 + 0x1660\n 12638: a1 = s1 + 0x1640\n 12642: a2 = s1 + 0x1620\n 12646: u64 [a4 + 0x4c0] = a3\n 12650: ra = 0x218\n 12654: t0 = 0x58e\n 12658: jump @1661\n      : @528 [@dyn 268] (gas: 24)\n 12662: a1 = s1 + 0x1198\n 12666: a2 = a1 + 0x400\n 12670: a0 = u64 [a2 + 0xe0]\n 12674: a3 = s1 + 0x100\n 12678: u64 [a3 + 0x58] = a0\n 12681: a0 = u64 [a2 + 0xd8]\n 12685: u64 [a3 + 0x60] = a0\n 12688: a0 = u64 [a2 + 0xd0]\n 12692: u64 [a3 + 0x50] = a0\n 12695: a0 = u64 [a2 + 0xc8]\n 12699: u64 [a3 + 0x68] = a0\n 12702: a0 = u64 [a1 + 0x500]\n 12706: u64 [a3 + 0xa0] = a0\n 12710: a0 = u64 [a2 + 0xf8]\n 12714: u64 [a3 + 0xa8] = a0\n 12718: a0 = u64 [a2 + 0xf0]\n 12722: u64 [a3 + 0x98] = a0\n 12726: a0 = u64 [a2 + 0xe8]\n 12730: u64 [a3 + 0xb0] = a0\n 12734: a0 = s1 + 0x3000\n 12738: i32 a0 = a0 + 0x580\n 12742: a1 = 0x24\n 12745: ecalli 2 // 'call_data_load'\n 12747: fallthrough\n      : @529 (gas: 8)\n 12748: a5 = s1 + 0x3198\n 12752: a0 = u64 [a5 + 0x400]\n 12756: a1 = u64 [a5 + 0x3f8]\n 12760: a2 = u64 [a5 + 0x3f0]\n 12764: a3 = a1 | a0\n 12767: a4 = a2 <u 0x1\n 12770: a4 = 0 if a3 != 0\n 12772: jump @531 if a4 != 0\n      : @530 (gas: 1)\n 12775: jump @1299\n      : @531 (gas: 28)\n 12778: a3 = u64 [a5 + 0x3e8]\n 12782: a4 = u64 [s1 + 0x218]\n 12786: t0 = u32 [a4]\n 12788: a5 = a3 + 0x4\n 12791: a3 = a5 <u a3\n 12794: a4 = a2 + a3\n 12797: a2 = a4 <u a2\n 12800: a2 = a3 if a3 == 0\n 12803: a2 = a2 + a1\n 12806: a1 = a2 <u a1\n 12809: a3 = a0 + a1\n 12812: a0 = s1 + 0x1198\n 12816: u64 [a0 + 1056] = 0\n 12820: u64 [a0 + 1048] = 0\n 12824: u64 [a0 + 1040] = 0\n 12828: u64 [a0 + 0x408] = t0\n 12832: a1 = a0 + 0x400\n 12836: u64 [a1 + 0x28] = a5\n 12839: u64 [a1 + 0x30] = a4\n 12842: u64 [a1 + 0x38] = a2\n 12845: a4 = a0\n 12847: a0 = s1 + 0x15e0\n 12851: a1 = s1 + 0x15c0\n 12855: a2 = s1 + 0x15a0\n 12859: u64 [a4 + 0x440] = a3\n 12863: ra = 0x21a\n 12867: t0 = 0x58e\n 12871: jump @1661\n      : @532 [@dyn 269] (gas: 38)\n 12875: a1 = s1 + 0x1198\n 12879: a2 = a1 + 0x400\n 12883: a0 = u64 [a2 + 0x60]\n 12886: u64 [s1 + 0x1f8] = a0\n 12890: a0 = u64 [a2 + 0x58]\n 12893: a1 = s1 + 0x200\n 12897: u64 [a1] = a0\n 12899: a0 = u64 [a2 + 0x50]\n 12902: u64 [a1 + 0x8] = a0\n 12905: a0 = u64 [a2 + 0x48]\n 12908: u64 [a1 + 0x10] = a0\n 12911: a0 = u64 [a2 + 0x80]\n 12915: u64 [s1 + 0x1d8] = a0\n 12919: a0 = u64 [a2 + 0x78]\n 12922: u64 [s1 + 0x1e0] = a0\n 12926: a0 = u64 [a2 + 0x70]\n 12929: u64 [s1 + 0x1e8] = a0\n 12933: a0 = u64 [a2 + 0x68]\n 12936: u64 [s1 + 0x1f0] = a0\n 12940: a0 = s1 + 0x3000\n 12944: i32 a0 = a0 + 0x5a0\n 12948: a1 = 0x44\n 12951: ecalli 2 // 'call_data_load'\n 12953: a1 = s1 + 0x3198\n 12957: a2 = a1 + 0x400\n 12961: a0 = u64 [a2 + 0x20]\n 12964: u64 [s1 + 0x130] = a0\n 12968: a0 = u64 [a2 + 0x18]\n 12971: u64 [s1 + 0x138] = a0\n 12975: a0 = u64 [a2 + 0x10]\n 12978: u64 [s1 + 0x140] = a0\n 12982: a0 = u64 [a2 + 0x8]\n 12985: u64 [s1 + 0x148] = a0\n 12989: a0 = s1 + 0x3000\n 12993: i32 a0 = a0 + 0x5c0\n 12997: a1 = 0x84\n 13001: ecalli 2 // 'call_data_load'\n 13003: fallthrough\n      : @533 (gas: 9)\n 13004: a2 = s1 + 0x100\n 13008: a0 = u64 [a2 + 0xa8]\n 13012: a1 = u64 [a2 + 0xb0]\n 13016: a0 = a0 | a1\n 13019: a1 = u64 [a2 + 0xa0]\n 13023: a4 = u64 [a2 + 0x98]\n 13027: a4 = a4 | a1\n 13030: a5 = a0 | a4\n 13033: jump @535 if a5 == 0\n      : @534 (gas: 1)\n 13036: jump @741\n      : @535 (gas: 3)\n 13039: a0 = s1 + 0x760\n 13043: a1 = 0x40\n 13046: ra = 540, jump @17\n      : @536 [@dyn 270] (gas: 6)\n 13052: a1 = s1 + 0x700\n 13056: a4 = u64 [a1 + 0x78]\n 13059: a5 = u64 [a1 + 0x70]\n 13062: a3 = u64 [a1 + 0x68]\n 13065: a0 = u64 [a1 + 0x60]\n 13068: t0 = 542, jump @1630\n      : @537 [@dyn 271] (gas: 1)\n 13075: jump @539 if a1 == 0\n      : @538 (gas: 1)\n 13078: jump @1111\n      : @539 (gas: 7)\n 13081: u64 [s1 + 1872] = 0\n 13085: u64 [s1 + 1864] = 0\n 13089: u64 [s1 + 1856] = 0\n 13093: a2 = 0x8c379a000000000\n 13103: a1 = s1 + 0x740\n 13107: u64 [s1 + 0x758] = a2\n 13111: t0 = 544, jump @1643\n      : @540 [@dyn 272] (gas: 1)\n 13118: ra = 546, jump @19\n      : @541 [@dyn 273] (gas: 6)\n 13124: a5 = s1 + 0x200\n 13128: a1 = u64 [a5 + 0x18]\n 13131: a0 = u64 [a5 + 0x8]\n 13134: a3 = u64 [a5]\n 13136: a3 = a3 | a0\n 13139: t0 = 548, jump @1591\n      : @542 [@dyn 274] (gas: 1)\n 13146: jump @544 if a0 != 0\n      : @543 (gas: 1)\n 13149: jump @1111\n      : @544 (gas: 9)\n 13152: i32 a0 = a1 + 0x4\n 13155: u64 [s1 + 1848] = 0\n 13159: u64 [s1 + 1840] = 0\n 13163: u64 [s1 + 1824] = 0x20\n 13168: a1 = s1 + 0x720\n 13172: u64 [s1 + 1832] = 0\n 13176: u64 [s1 + 0x208] = a3\n 13180: u64 [s1 + 0x200] = a4\n 13184: ra = 550, jump @19\n      : @545 [@dyn 275] (gas: 1)\n 13190: t0 = 552, jump @1592\n      : @546 [@dyn 276] (gas: 1)\n 13197: jump @548 if a0 != 0\n      : @547 (gas: 1)\n 13200: jump @1111\n      : @548 (gas: 7)\n 13203: i32 a0 = a1 + 0x24\n 13206: u64 [s1 + 1816] = 0\n 13210: u64 [s1 + 1808] = 0\n 13214: u64 [s1 + 1792] = 0x15\n 13219: a1 = s1 + 0x700\n 13223: u64 [s1 + 1800] = 0\n 13227: ra = 554, jump @19\n      : @549 [@dyn 277] (gas: 1)\n 13233: t0 = 556, jump @1601\n      : @550 [@dyn 278] (gas: 1)\n 13240: jump @552 if a0 != 0\n      : @551 (gas: 1)\n 13243: jump @1111\n      : @552 (gas: 12)\n 13246: i32 a0 = a2 + 0x44\n 13249: a1 = u64 [0x201a8]\n 13254: a2 = u64 [0x201b0]\n 13259: a3 = s1 + 0x600\n 13263: u64 [a3 + 0xf8] = a1\n 13267: u64 [a3 + 0xf0] = a2\n 13271: a1 = 0x656d707479000000\n 13281: u64 [a3 + 0xe8] = a1\n 13285: a1 = s1 + 0x6e0\n 13289: u64 [s1 + 1760] = 0\n 13293: ra = 0x3ba\n 13297: jump @19\n      : @553 (gas: 3)\n 13300: a0 = s1 + 0x6a0\n 13304: a1 = 0x40\n 13307: ra = 558, jump @17\n      : @554 [@dyn 279] (gas: 13)\n 13313: a4 = s1 + 0x600\n 13317: a0 = u64 [a4 + 0xb8]\n 13321: a1 = u64 [a4 + 0xb0]\n 13325: a2 = u64 [a4 + 0xa8]\n 13329: a3 = u64 [a4 + 0xa0]\n 13333: a0 = a0 | a2\n 13336: a2 = a3 | a1\n 13339: a2 = a2 | a0\n 13342: a2 = a2 >> 0x20\n 13345: a0 = a0 | a1\n 13348: a0 = a0 << 0x20\n 13351: a0 = a0 | a2\n 13354: jump @556 if a0 == 0\n      : @555 (gas: 1)\n 13357: jump @1111\n      : @556 (gas: 14)\n 13360: a2 = s1 + 0x100\n 13364: a0 = u64 [a2 + 0x90]\n 13368: a4 = s1 + 0x600\n 13372: u64 [a4 + 0x80] = a0\n 13376: a0 = u64 [a2 + 0x98]\n 13380: u64 [a4 + 0x88] = a0\n 13384: a0 = u64 [a2 + 0xa0]\n 13388: u64 [a4 + 0x90] = a0\n 13392: a1 = s1 + 0x680\n 13396: a0 = u64 [a2 + 0xa8]\n 13400: u64 [a4 + 0x98] = a0\n 13404: a0 = a3\n 13406: u64 [s1 + 0x218] = a3\n 13410: ra = 560, jump @19\n      : @557 [@dyn 280] (gas: 3)\n 13416: a1 = 0x20\n 13419: a0 = u64 [s1 + 0x218]\n 13423: ra = 562, jump @29\n      : @558 [@dyn 281] (gas: 5)\n 13429: i32 a1 = a0 + 0\n 13431: a2 = 0x20\n 13434: a0 = 0\n 13436: ecalli 12 // 'seal_return'\n 13438: fallthrough\n      : @559 (gas: 9)\n 13439: u64 [a2 + 1760] = 0\n 13443: u64 [a2 + 1752] = 0\n 13447: u64 [a2 + 1744] = 0\n 13451: u64 [a2 + 1736] = 0\n 13455: a0 = s1 + 0x4000\n 13459: i32 a0 = a0 + 0x60\n 13462: ra = 0x234\n 13466: ecalli 15 // 'value_transferred'\n 13468: fallthrough\n      : @560 [@dyn 282] (gas: 3)\n 13469: a3 = s1 + 0x3998\n 13473: a4 = a3 + 0x600\n 13477: t0 = 566, jump @1657\n      : @561 [@dyn 283] (gas: 1)\n 13484: jump @563 if a0 == 0\n      : @562 (gas: 1)\n 13487: jump @1300\n      : @563 (gas: 1)\n 13490: t0 = 568, jump @1652\n      : @564 [@dyn 284] (gas: 1)\n 13497: jump @566 if a1 <u a0\n      : @565 (gas: 1)\n 13500: jump @1301\n      : @566 (gas: 19)\n 13503: a0 = s1 + 0x4000\n 13507: i32 a0 = a0 + 0x80\n 13511: a1 = 0x4\n 13514: ecalli 2 // 'call_data_load'\n 13516: a3 = s1 + 0x3998\n 13520: a4 = a3 + 0x600\n 13524: a0 = u64 [a4 + 0xe8]\n 13528: a1 = u64 [a4 + 0xf0]\n 13532: a2 = u64 [a4 + 0xf8]\n 13536: a3 = u64 [a3 + 0x700]\n 13540: a4 = s1 + 0x3198\n 13544: a5 = a4 + 0x200\n 13548: u64 [a5 + 0x60] = a3\n 13551: u64 [a5 + 0x58] = a2\n 13554: u64 [a5 + 0x50] = a1\n 13557: a1 = s1 + 0x33e0\n 13561: u64 [a5 + 0x48] = a0\n 13564: a0 = 0\n 13566: ra = 570, jump @19\n      : @567 [@dyn 285] (gas: 3)\n 13572: t0 = 0x23c\n 13576: a1 = s1 + 0x3198\n 13580: fallthrough\n      : @568 [@dyn 286] (gas: 8)\n 13581: u64 [a1 + 576] = 0\n 13585: u64 [a1 + 568] = 0\n 13589: u64 [a1 + 552] = 0x2\n 13594: a2 = a1\n 13596: a0 = 0x20\n 13599: a1 = s1 + 0x33c0\n 13603: u64 [a2 + 560] = 0\n 13607: ra = 574, jump @19\n      : @569 [@dyn 287] (gas: 6)\n 13613: a0 = sp + 0xffffffffffffffe0\n 13616: a0 = a0 & 0xffffffffffffffe0\n 13619: u64 [s1 + 0x1f8] = a0\n 13623: sp = a0\n 13625: a1 = i32 [0x2020c]\n 13630: jump @571 if a1 >u 63\n      : @570 (gas: 4)\n 13634: a1 = 0x40\n 13637: u32 [0x2020c] = a1\n 13642: t0 = 0x240\n 13646: jump @1615\n      : @571 (gas: 1)\n 13650: t0 = 576, jump @1615\n      : @572 [@dyn 288] (gas: 8)\n 13657: a0 = 0x20220\n 13662: i32 a0 = a0 + 0\n 13664: i32 a2 = a2 + 0\n 13666: a1 = 0x40\n 13669: ra = 0x242\n 13673: ecalli 7 // 'hash_keccak_256'\n 13675: t0 = 0x244\n 13679: jump @1605\n      : @573 [@dyn 289] (gas: 1)\n 13683: t0 = 580, jump @1605\n      : @574 [@dyn 290] (gas: 2)\n 13690: a0 = s1 + 0x33a0\n 13694: ra = 582, jump @21\n      : @575 [@dyn 291] (gas: 10)\n 13700: a1 = s1 + 0x3198\n 13704: a2 = a1 + 0x200\n 13708: a0 = u64 [a2 + 0x20]\n 13711: u64 [s1 + 0x1f8] = a0\n 13715: a0 = u64 [a2 + 0x18]\n 13718: u64 [s1 + 0x1f0] = a0\n 13722: a0 = u64 [a2 + 0x10]\n 13725: u64 [s1 + 0x1e8] = a0\n 13729: a0 = u64 [a2 + 0x8]\n 13732: t0 = 584, jump @1629\n      : @576 [@dyn 292] (gas: 2)\n 13739: a3 = a2 + 0x700\n 13743: t0 = 586, jump @1626\n      : @577 [@dyn 293] (gas: 3)\n 13750: a0 = s1 + 0x3380\n 13754: a1 = s1 + 0x40a0\n 13758: ra = 588, jump @21\n      : @578 [@dyn 294] (gas: 10)\n 13764: a1 = s1 + 0x3198\n 13768: a0 = u32 [a1 + 0x1f8]\n 13772: u64 [s1 + 0x1d8] = a0\n 13776: a0 = u64 [a1 + 0x1f0]\n 13780: u64 [s1 + 0x1d0] = a0\n 13784: a0 = u64 [a1 + 0x1e8]\n 13788: u64 [s1 + 0x1c8] = a0\n 13792: a1 = u64 [s1 + 0x208]\n 13796: a0 = a1 + 0x4\n 13799: t0 = 590, jump @1594\n      : @579 [@dyn 295] (gas: 7)\n 13806: u64 [a5 + 0x40] = a1\n 13809: u64 [a5 + 0x38] = a3\n 13812: u64 [a5 + 0x30] = a2\n 13815: u64 [a5 + 0x28] = a0\n 13818: a0 = s1 + 0x3360\n 13822: a1 = s1 + 0x40c0\n 13826: ra = 592, jump @21\n      : @580 [@dyn 296] (gas: 1)\n 13832: t0 = 594, jump @1624\n      : @581 [@dyn 297] (gas: 11)\n 13839: a0 = u64 [a2 + 0xe0]\n 13843: u64 [s1 + 0x180] = a0\n 13847: a0 = u64 [a2 + 0xd8]\n 13851: u64 [s1 + 0x178] = a0\n 13855: a0 = u64 [a2 + 0xd0]\n 13859: u64 [s1 + 0x170] = a0\n 13863: a0 = u64 [a2 + 0xc8]\n 13867: u64 [s1 + 0x168] = a0\n 13871: a1 = u64 [s1 + 0x208]\n 13875: a0 = a1 + 0x5\n 13878: t0 = 596, jump @1594\n      : @582 [@dyn 298] (gas: 7)\n 13884: u64 [a5 + 0x60] = a1\n 13887: u64 [a5 + 0x58] = a3\n 13890: u64 [a5 + 0x50] = a2\n 13893: u64 [a5 + 0x48] = a0\n 13896: a0 = s1 + 0x3340\n 13900: a1 = s1 + 0x40e0\n 13904: ra = 598, jump @21\n      : @583 [@dyn 299] (gas: 1)\n 13910: t0 = 600, jump @1624\n      : @584 [@dyn 300] (gas: 11)\n 13917: a0 = u64 [a2 + 0xc0]\n 13921: u64 [s1 + 0x160] = a0\n 13925: a0 = u64 [a2 + 0xb8]\n 13929: u64 [s1 + 0x158] = a0\n 13933: a0 = u64 [a2 + 0xb0]\n 13937: u64 [s1 + 0x150] = a0\n 13941: a0 = u64 [a2 + 0xa8]\n 13945: u64 [s1 + 0x148] = a0\n 13949: a1 = u64 [s1 + 0x208]\n 13953: a0 = a1 + 0x6\n 13956: t0 = 602, jump @1594\n      : @585 [@dyn 301] (gas: 7)\n 13962: u64 [a5 + 0x80] = a1\n 13966: u64 [a5 + 0x78] = a3\n 13969: u64 [a5 + 0x70] = a2\n 13972: u64 [a5 + 0x68] = a0\n 13975: a0 = s1 + 0x3320\n 13979: a1 = s1 + 0x4100\n 13983: ra = 604, jump @21\n      : @586 [@dyn 302] (gas: 1)\n 13989: t0 = 606, jump @1624\n      : @587 [@dyn 303] (gas: 11)\n 13996: a0 = u64 [a2 + 0xa0]\n 14000: u64 [s1 + 0x140] = a0\n 14004: a0 = u64 [a2 + 0x98]\n 14008: u64 [s1 + 0x138] = a0\n 14012: a0 = u64 [a2 + 0x90]\n 14016: u64 [s1 + 0x130] = a0\n 14020: a0 = u64 [a2 + 0x88]\n 14024: u64 [s1 + 0x128] = a0\n 14028: a1 = u64 [s1 + 0x208]\n 14032: a0 = a1 + 0x7\n 14035: t0 = 608, jump @1594\n      : @588 [@dyn 304] (gas: 7)\n 14041: u64 [a5 + 0xa0] = a1\n 14045: u64 [a5 + 0x98] = a3\n 14049: u64 [a5 + 0x90] = a2\n 14053: u64 [a5 + 0x88] = a0\n 14057: a0 = s1 + 0x3300\n 14061: a1 = s1 + 0x4120\n 14065: ra = 610, jump @21\n      : @589 [@dyn 305] (gas: 1)\n 14071: t0 = 612, jump @1624\n      : @590 [@dyn 306] (gas: 11)\n 14078: a0 = u64 [a2 + 0x80]\n 14082: u64 [s1 + 0x120] = a0\n 14086: a0 = u64 [a2 + 0x78]\n 14089: u64 [s1 + 0x118] = a0\n 14093: a0 = u64 [a2 + 0x70]\n 14096: u64 [s1 + 0x110] = a0\n 14100: a0 = u64 [a2 + 0x68]\n 14103: u64 [s1 + 0x108] = a0\n 14107: a1 = u64 [s1 + 0x208]\n 14111: a0 = a1 + 0x8\n 14114: t0 = 614, jump @1594\n      : @591 [@dyn 307] (gas: 7)\n 14120: u64 [a5 + 0xc0] = a1\n 14124: u64 [a5 + 0xb8] = a3\n 14128: u64 [a5 + 0xb0] = a2\n 14132: u64 [a5 + 0xa8] = a0\n 14136: a0 = s1 + 0x32e0\n 14140: a1 = s1 + 0x4140\n 14144: ra = 616, jump @21\n      : @592 [@dyn 308] (gas: 10)\n 14150: a1 = s1 + 0x3198\n 14154: a0 = u32 [a1 + 0x158]\n 14158: u64 [s1 + 0x100] = a0\n 14162: a0 = u64 [a1 + 0x150]\n 14166: u64 [s1 + 0xf8] = a0\n 14170: a0 = u64 [a1 + 0x148]\n 14174: u64 [s1 + 0xf0] = a0\n 14178: a1 = u64 [s1 + 0x208]\n 14182: a0 = a1 + 0x9\n 14185: t0 = 618, jump @1594\n      : @593 [@dyn 309] (gas: 7)\n 14191: u64 [a5 + 0xe0] = a1\n 14195: u64 [a5 + 0xd8] = a3\n 14199: u64 [a5 + 0xd0] = a2\n 14203: u64 [a5 + 0xc8] = a0\n 14207: a0 = s1 + 0x32c0\n 14211: a1 = s1 + 0x4160\n 14215: ra = 620, jump @21\n      : @594 [@dyn 310] (gas: 1)\n 14221: t0 = 622, jump @1624\n      : @595 [@dyn 311] (gas: 29)\n 14228: a0 = u64 [a2 + 0x40]\n 14231: u64 [s1 + 0xe8] = a0\n 14235: a0 = u64 [a2 + 0x38]\n 14238: u64 [s1 + 0xe0] = a0\n 14242: a0 = u64 [a2 + 0x30]\n 14245: u64 [s1 + 0xd8] = a0\n 14249: a0 = u64 [a2 + 0x28]\n 14252: u64 [s1 + 0xd0] = a0\n 14256: a1 = u64 [s1 + 0x208]\n 14260: a0 = a1 + 0xa\n 14263: a1 = a0 <u a1\n 14266: a3 = u64 [s1 + 0x210]\n 14270: a2 = a3 + a1\n 14273: a3 = a2 <u a3\n 14276: a3 = a1 if a1 == 0\n 14279: a1 = u64 [s1 + 0x200]\n 14283: a3 = a3 + a1\n 14286: a1 = a3 <u a1\n 14289: a4 = u64 [s1 + 0x218]\n 14293: a1 = a1 + a4\n 14296: a4 = s1 + 0x4198\n 14300: u64 [a4] = a1\n 14302: a1 = a4 + 0xffffffffffffff00\n 14306: u64 [a1 + 0xf8] = a3\n 14310: u64 [a1 + 0xf0] = a2\n 14314: u64 [a1 + 0xe8] = a0\n 14318: a0 = s1 + 0x32a0\n 14322: a1 = s1 + 0x4180\n 14326: ra = 624, jump @21\n      : @596 [@dyn 312] (gas: 6)\n 14332: a5 = s1 + 0x3198\n 14336: a0 = u64 [a5 + 0x108]\n 14340: u64 [s1 + 0xc8] = a0\n 14344: a0 = u64 [s1 + 0x208]\n 14348: a2 = a0 + 0x2\n 14351: t0 = 626, jump @1603\n      : @597 [@dyn 313] (gas: 7)\n 14358: u64 [a5 + 0xe0] = a0\n 14362: u64 [a5 + 0xd8] = a3\n 14366: u64 [a5 + 0xd0] = a1\n 14370: a0 = s1 + 0x3280\n 14374: a1 = s1 + 0x3260\n 14378: u64 [a5 + 0xc8] = a2\n 14382: ra = 628, jump @1372\n      : @598 [@dyn 314] (gas: 28)\n 14388: a4 = s1 + 0x3198\n 14392: a0 = u64 [a4 + 0x100]\n 14396: u64 [s1 + 0x1b0] = a0\n 14400: a0 = u64 [a4 + 0xf8]\n 14404: u64 [s1 + 0x1b8] = a0\n 14408: a0 = u64 [a4 + 0xf0]\n 14412: u64 [s1 + 0x1c0] = a0\n 14416: a0 = u64 [s1 + 0x208]\n 14420: a2 = a0 + 0x3\n 14423: a0 = a2 <u a0\n 14426: a3 = u64 [s1 + 0x210]\n 14430: a1 = a3 + a0\n 14433: a3 = a1 <u a3\n 14436: a3 = a0 if a0 == 0\n 14439: a0 = u64 [a4 + 0xe8]\n 14443: u64 [s1 + 0x1a8] = a0\n 14447: a0 = u64 [s1 + 0x200]\n 14451: a3 = a3 + a0\n 14454: a0 = a3 <u a0\n 14457: a5 = u64 [s1 + 0x218]\n 14461: a0 = a0 + a5\n 14464: u64 [a4 + 0xa0] = a0\n 14468: u64 [a4 + 0x98] = a3\n 14472: u64 [a4 + 0x90] = a1\n 14476: a0 = s1 + 0x3240\n 14480: a1 = s1 + 0x3220\n 14484: u64 [a4 + 0x88] = a2\n 14488: ra = 630, jump @1372\n      : @599 [@dyn 315] (gas: 3)\n 14494: t0 = 0x278\n 14498: a1 = s1 + 0x3198\n 14502: fallthrough\n      : @600 [@dyn 316] (gas: 12)\n 14503: a0 = u64 [a1 + 0xc0]\n 14507: a2 = s1 + 0x100\n 14511: u64 [a2 + 0x88] = a0\n 14515: a0 = u64 [a1 + 0xb8]\n 14519: u64 [a2 + 0x90] = a0\n 14523: a0 = u64 [a1 + 0xb0]\n 14527: u64 [a2 + 0x98] = a0\n 14531: a0 = u64 [a1 + 0xa8]\n 14535: u64 [a2 + 0xa0] = a0\n 14539: a0 = s1 + 0x3200\n 14543: a1 = 0x40\n 14546: ra = 634, jump @17\n      : @601 [@dyn 317] (gas: 6)\n 14552: a2 = s1 + 0x3198\n 14556: a3 = u64 [a2 + 0x80]\n 14560: a4 = u64 [a2 + 0x78]\n 14563: a0 = u64 [a2 + 0x70]\n 14566: a1 = u64 [a2 + 0x68]\n 14569: t0 = 636, jump @1647\n      : @602 [@dyn 318] (gas: 1)\n 14576: jump @604 if a0 == 0\n      : @603 (gas: 1)\n 14579: jump @1111\n      : @604 (gas: 13)\n 14582: a0 = u64 [s1 + 0x1e0]\n 14586: u64 [a2 + 0x48] = a0\n 14589: a0 = u64 [s1 + 0x1e8]\n 14593: u64 [a2 + 0x50] = a0\n 14596: a0 = u64 [s1 + 0x1f0]\n 14600: u64 [a2 + 0x58] = a0\n 14603: a1 = s1 + 0x31e0\n 14607: a0 = u64 [s1 + 0x1f8]\n 14611: u64 [a2 + 0x60] = a0\n 14614: a0 = u64 [s1 + 0x218]\n 14618: u64 [s1 + 0x208] = a3\n 14622: u64 [s1 + 0x200] = a4\n 14626: ra = 638, jump @19\n      : @605 [@dyn 319] (gas: 1)\n 14632: t0 = 640, jump @1609\n      : @606 [@dyn 320] (gas: 1)\n 14639: jump @608 if a0 != 0\n      : @607 (gas: 1)\n 14642: jump @1111\n      : @608 (gas: 14)\n 14645: a0 = u64 [s1 + 0x218]\n 14649: i32 a0 = a0 + 0x20\n 14652: a1 = s1 + 0x3198\n 14656: u64 [s1 + 0x1f0] = a3\n 14660: a3 = a1\n 14662: u64 [a1 + 64] = 0\n 14665: a1 = u64 [s1 + 0x1c8]\n 14669: u64 [a3 + 0x28] = a1\n 14672: a1 = u64 [s1 + 0x1d0]\n 14676: u64 [a3 + 0x30] = a1\n 14679: a1 = s1 + 0x31c0\n 14683: a2 = u64 [s1 + 0x1d8]\n 14687: u64 [a3 + 0x38] = a2\n 14690: ra = 642, jump @19\n      : @609 [@dyn 321] (gas: 3)\n 14696: a0 = u64 [s1 + 0x1f0]\n 14700: a0 = a0 + 0xffffffffffffffc0\n 14703: t0 = 644, jump @1590\n      : @610 [@dyn 322] (gas: 1)\n 14709: jump @612 if a0 != 0\n      : @611 (gas: 1)\n 14712: jump @1111\n      : @612 (gas: 9)\n 14715: a0 = u64 [s1 + 0x218]\n 14719: i32 a0 = a0 + 0x40\n 14722: a2 = s1 + 0x3198\n 14726: u64 [a2 + 32] = 0\n 14729: u64 [a2 + 24] = 0\n 14732: u64 [a2 + 8] = 0x180\n 14737: a1 = s1 + 0x31a0\n 14741: u64 [a2 + 16] = 0\n 14744: ra = 646, jump @19\n      : @613 [@dyn 323] (gas: 3)\n 14750: a1 = u64 [s1 + 0x218]\n 14754: a0 = a1 + 0x180\n 14758: t0 = 648, jump @1619\n      : @614 [@dyn 324] (gas: 17)\n 14765: a5 = s1 + 0x2998\n 14769: u64 [a5 + 0x7b0] = a2\n 14773: u64 [a5 + 0x7a8] = a0\n 14777: a0 = u64 [s1 + 0x1b0]\n 14781: u64 [a5 + 0x7e0] = a0\n 14785: a0 = u64 [s1 + 0x1b8]\n 14789: u64 [a5 + 0x7d8] = a0\n 14793: a0 = u64 [s1 + 0x1c0]\n 14797: u64 [a5 + 0x7d0] = a0\n 14801: a0 = u64 [s1 + 0x1a8]\n 14805: u64 [a5 + 0x7c8] = a0\n 14809: u64 [a5 + 0x7b8] = a3\n 14813: a0 = s1 + 0x3180\n 14817: a1 = s1 + 0x3160\n 14821: a2 = s1 + 0x3140\n 14825: u64 [a5 + 0x7c0] = a4\n 14829: ra = 650, jump @1395\n      : @615 [@dyn 325] (gas: 3)\n 14835: a2 = 0x100000000\n 14845: a0 = 0xffffffa0\n 14855: t0 = 652, jump @1590\n      : @616 [@dyn 326] (gas: 1)\n 14861: jump @618 if a0 != 0\n      : @617 (gas: 1)\n 14864: jump @1111\n      : @618 (gas: 39)\n 14867: a0 = s1 + 0x3198\n 14871: t2 = u64 [a0 + 0xffffffffffffffe8]\n 14874: t0 = u64 [a0 + 0xfffffffffffffff0]\n 14877: ra = u64 [a0]\n 14879: u64 [s1 + 0x1e0] = ra\n 14883: a0 = u64 [a0 + 0xfffffffffffffff8]\n 14886: u64 [s1 + 0x1f0] = a0\n 14890: a5 = u64 [s1 + 0x218]\n 14894: t1 = t2 <u a5\n 14897: u64 [s1 + 0x1d0] = t2\n 14901: a3 = u64 [s1 + 0x210]\n 14905: a1 = t0 ^ a3\n 14908: u64 [s1 + 0x1e8] = a2\n 14912: a2 = t0 <u a3\n 14915: u64 [s1 + 0x1d8] = t0\n 14919: a0 = a3\n 14921: a2 = t1 if a1 == 0\n 14924: a3 = u64 [s1 + 0x200]\n 14928: a4 = u64 [s1 + 0x1f0]\n 14932: a1 = a4 - a3\n 14935: a3 = a4 <u a3\n 14938: a4 = u64 [s1 + 0x208]\n 14942: a4 = ra - a4\n 14945: a4 = a4 - a3\n 14948: a3 = a1 <u a2\n 14951: a4 = a4 - a3\n 14954: a1 = a1 - a2\n 14957: a2 = t0 - a0\n 14960: a2 = a2 - t1\n 14963: a3 = t2 - a5\n 14966: i32 a0 = a5 + 0x60\n 14969: a5 = s1 + 0x2998\n 14973: u64 [a5 + 0x788] = a3\n 14977: a3 = a5 + 0x700\n 14981: u64 [a3 + 0x90] = a2\n 14985: u64 [a3 + 0x98] = a1\n 14989: a1 = s1 + 0x3120\n 14993: u64 [a3 + 0xa0] = a4\n 14997: ra = 654, jump @19\n      : @619 [@dyn 327] (gas: 23)\n 15003: a1 = s1 + 0x2998\n 15007: a0 = u64 [s1 + 0x1e0]\n 15011: a2 = a1 + 0x700\n 15015: u64 [a2 + 0x40] = a0\n 15018: a0 = u64 [s1 + 0x1f0]\n 15022: u64 [a2 + 0x38] = a0\n 15025: a0 = u64 [s1 + 0x1d8]\n 15029: u64 [a2 + 0x30] = a0\n 15032: a0 = u64 [s1 + 0x1d0]\n 15036: u64 [a2 + 0x28] = a0\n 15039: a0 = u64 [s1 + 0x188]\n 15043: u64 [a2 + 0x60] = a0\n 15046: a0 = u64 [s1 + 0x190]\n 15050: u64 [a2 + 0x58] = a0\n 15053: a0 = u64 [s1 + 0x198]\n 15057: u64 [a2 + 0x50] = a0\n 15060: a4 = a1\n 15062: a0 = s1 + 0x3100\n 15066: a1 = s1 + 0x30e0\n 15070: a2 = s1 + 0x30c0\n 15074: a3 = u64 [s1 + 0x1a0]\n 15078: u64 [a4 + 0x748] = a3\n 15082: ra = 656, jump @1395\n      : @620 [@dyn 328] (gas: 3)\n 15088: a0 = u64 [s1 + 0x1e8]\n 15092: a0 = a0 + 0xffffffffffffff80\n 15095: t0 = 658, jump @1590\n      : @621 [@dyn 329] (gas: 1)\n 15101: jump @623 if a0 != 0\n      : @622 (gas: 1)\n 15104: jump @1111\n      : @623 (gas: 22)\n 15107: a3 = s1 + 0x2998\n 15111: a4 = a3 + 0x700\n 15115: a0 = u64 [a4 + 0x80]\n 15119: u64 [s1 + 0x1e0] = a0\n 15123: a0 = u64 [a4 + 0x78]\n 15126: u64 [s1 + 0x1d8] = a0\n 15130: a0 = u64 [a4 + 0x70]\n 15133: u64 [s1 + 0x1e8] = a0\n 15137: a0 = u64 [a4 + 0x68]\n 15140: u64 [s1 + 0x1f0] = a0\n 15144: a0 = u64 [s1 + 0x218]\n 15148: i32 a0 = a0 + 0x80\n 15152: a1 = u64 [s1 + 0x168]\n 15156: u64 [a4 + 0x8] = a1\n 15159: a1 = u64 [s1 + 0x170]\n 15163: u64 [a4 + 0x10] = a1\n 15166: a1 = u64 [s1 + 0x178]\n 15170: u64 [a4 + 0x18] = a1\n 15173: a1 = s1 + 0x30a0\n 15177: a2 = u64 [s1 + 0x180]\n 15181: u64 [a4 + 0x20] = a2\n 15184: ra = 660, jump @19\n      : @624 [@dyn 330] (gas: 3)\n 15190: a2 = 0x100000000\n 15200: a0 = 0xffffff60\n 15210: t0 = 662, jump @1590\n      : @625 [@dyn 331] (gas: 1)\n 15216: jump @627 if a0 != 0\n      : @626 (gas: 1)\n 15219: jump @1111\n      : @627 (gas: 15)\n 15222: a0 = u64 [s1 + 0x218]\n 15226: i32 a0 = a0 + 0xa0\n 15230: a1 = u64 [s1 + 0x148]\n 15234: u64 [s1 + 0x1d0] = a2\n 15238: a3 = s1 + 0x2998\n 15242: a2 = a3 + 0x600\n 15246: u64 [a2 + 0xe8] = a1\n 15250: a1 = u64 [s1 + 0x150]\n 15254: u64 [a2 + 0xf0] = a1\n 15258: a1 = u64 [s1 + 0x158]\n 15262: u64 [a2 + 0xf8] = a1\n 15266: a1 = s1 + 0x3080\n 15270: a2 = u64 [s1 + 0x160]\n 15274: u64 [a3 + 0x700] = a2\n 15278: ra = 664, jump @19\n      : @628 [@dyn 332] (gas: 3)\n 15284: a0 = u64 [s1 + 0x1d0]\n 15288: a0 = a0 + 0xffffffffffffff40\n 15292: t0 = 666, jump @1590\n      : @629 [@dyn 333] (gas: 1)\n 15298: jump @631 if a0 != 0\n      : @630 (gas: 1)\n 15301: jump @1111\n      : @631 (gas: 4)\n 15304: a0 = u64 [s1 + 0x218]\n 15308: i32 a0 = a0 + 0xc0\n 15312: a1 = u64 [s1 + 0x128]\n 15316: t0 = 668, jump @1660\n      : @632 [@dyn 334] (gas: 9)\n 15323: u64 [a4 + 0xc8] = a1\n 15327: a1 = u64 [s1 + 0x130]\n 15331: u64 [a4 + 0xd0] = a1\n 15335: a1 = u64 [s1 + 0x138]\n 15339: u64 [a4 + 0xd8] = a1\n 15343: a1 = s1 + 0x3060\n 15347: a2 = u64 [s1 + 0x140]\n 15351: u64 [a4 + 0xe0] = a2\n 15355: ra = 670, jump @19\n      : @633 [@dyn 335] (gas: 3)\n 15361: a2 = 0x100000000\n 15371: a0 = 0xffffff20\n 15381: t0 = 672, jump @1590\n      : @634 [@dyn 336] (gas: 1)\n 15387: jump @636 if a0 != 0\n      : @635 (gas: 1)\n 15390: jump @1111\n      : @636 (gas: 5)\n 15393: a0 = u64 [s1 + 0x218]\n 15397: i32 a0 = a0 + 0xe0\n 15401: a1 = u64 [s1 + 0x108]\n 15405: u64 [s1 + 0x1d0] = a2\n 15409: t0 = 674, jump @1660\n      : @637 [@dyn 337] (gas: 9)\n 15416: u64 [a4 + 0xa8] = a1\n 15420: a1 = u64 [s1 + 0x110]\n 15424: u64 [a4 + 0xb0] = a1\n 15428: a1 = u64 [s1 + 0x118]\n 15432: u64 [a4 + 0xb8] = a1\n 15436: a1 = s1 + 0x3040\n 15440: a2 = u64 [s1 + 0x120]\n 15444: u64 [a4 + 0xc0] = a2\n 15448: ra = 676, jump @19\n      : @638 [@dyn 338] (gas: 3)\n 15454: a0 = u64 [s1 + 0x1d0]\n 15458: a0 = a0 + 0xffffffffffffff00\n 15462: t0 = 678, jump @1590\n      : @639 [@dyn 339] (gas: 1)\n 15468: jump @641 if a0 != 0\n      : @640 (gas: 1)\n 15471: jump @1111\n      : @641 (gas: 13)\n 15474: a0 = u64 [s1 + 0x218]\n 15478: i32 a0 = a0 + 0x100\n 15482: a3 = s1 + 0x2998\n 15486: u64 [a3 + 1696] = 0\n 15490: a1 = u64 [s1 + 0xf0]\n 15494: a4 = a3 + 0x600\n 15498: u64 [a4 + 0x88] = a1\n 15502: a1 = u64 [s1 + 0xf8]\n 15506: u64 [a4 + 0x90] = a1\n 15510: a1 = s1 + 0x3020\n 15514: a2 = u64 [s1 + 0x100]\n 15518: u64 [a4 + 0x98] = a2\n 15522: ra = 680, jump @19\n      : @642 [@dyn 340] (gas: 4)\n 15528: a0 = 0x100000000\n 15538: u64 [s1 + 0x1d0] = a0\n 15542: a0 = 0xfffffee0\n 15552: t0 = 682, jump @1590\n      : @643 [@dyn 341] (gas: 1)\n 15558: jump @645 if a0 != 0\n      : @644 (gas: 1)\n 15561: jump @1111\n      : @645 (gas: 4)\n 15564: a0 = u64 [s1 + 0x218]\n 15568: i32 a0 = a0 + 0x120\n 15572: a1 = u64 [s1 + 0xd0]\n 15576: t0 = 684, jump @1660\n      : @646 [@dyn 342] (gas: 9)\n 15583: u64 [a4 + 0x68] = a1\n 15586: a1 = u64 [s1 + 0xd8]\n 15590: u64 [a4 + 0x70] = a1\n 15593: a1 = u64 [s1 + 0xe0]\n 15597: u64 [a4 + 0x78] = a1\n 15600: a1 = s1 + 0x3000\n 15604: a2 = u64 [s1 + 0xe8]\n 15608: u64 [a4 + 0x80] = a2\n 15612: ra = 686, jump @19\n      : @647 [@dyn 343] (gas: 3)\n 15618: a0 = u64 [s1 + 0x1d0]\n 15622: a0 = a0 + 0xfffffffffffffec0\n 15626: t0 = 688, jump @1590\n      : @648 [@dyn 344] (gas: 1)\n 15632: jump @650 if a0 != 0\n      : @649 (gas: 1)\n 15635: jump @1111\n      : @650 (gas: 11)\n 15638: a0 = u8 [s1 + 0xc8]\n 15642: a1 = a0 >u 0\n 15644: a0 = u64 [s1 + 0x218]\n 15648: i32 a0 = a0 + 0x140\n 15652: a2 = s1 + 0x2998\n 15656: u64 [a2 + 1632] = 0\n 15660: u64 [a2 + 1624] = 0\n 15664: u64 [a2 + 0x648] = a1\n 15668: a1 = s1 + 0x2fe0\n 15672: u64 [a2 + 1616] = 0\n 15676: ra = 690, jump @19\n      : @651 [@dyn 345] (gas: 2)\n 15682: a0 = 0xfffffea0\n 15692: t0 = 692, jump @1590\n      : @652 [@dyn 346] (gas: 1)\n 15698: jump @654 if a0 != 0\n      : @653 (gas: 1)\n 15701: jump @1111\n      : @654 (gas: 12)\n 15704: a1 = u64 [s1 + 0xc8]\n 15708: a0 = a1 & 0xff00\n 15713: a1 = a0 >u 0\n 15715: a0 = u64 [s1 + 0x218]\n 15719: i32 a0 = a0 + 0x160\n 15723: a2 = s1 + 0x2998\n 15727: u64 [a2 + 1600] = 0\n 15731: u64 [a2 + 1592] = 0\n 15735: u64 [a2 + 0x628] = a1\n 15739: a1 = s1 + 0x2fc0\n 15743: u64 [a2 + 1584] = 0\n 15747: ra = 694, jump @19\n      : @655 [@dyn 347] (gas: 31)\n 15753: t0 = u64 [s1 + 0x1f0]\n 15757: ra = u64 [s1 + 0x218]\n 15761: t1 = t0 <u ra\n 15764: a5 = u64 [s1 + 0x210]\n 15768: a1 = u64 [s1 + 0x1e8]\n 15772: a3 = a1 ^ a5\n 15775: a2 = a1 <u a5\n 15778: a2 = t1 if a3 == 0\n 15781: a3 = u64 [s1 + 0x200]\n 15785: a4 = u64 [s1 + 0x1d8]\n 15789: a0 = a4 - a3\n 15792: t2 = a4 <u a3\n 15795: a4 = u64 [s1 + 0x208]\n 15799: a3 = u64 [s1 + 0x1e0]\n 15803: a4 = a3 - a4\n 15806: a4 = a4 - t2\n 15809: a3 = a0 <u a2\n 15812: a4 = a4 - a3\n 15815: a3 = a0 - a2\n 15818: a2 = a1 - a5\n 15821: a2 = a2 - t1\n 15824: a0 = t0 - ra\n 15827: a2 = a2 | a4\n 15830: a4 = a0\n 15832: a0 = a0 | a3\n 15835: a0 = a0 | a2\n 15838: a1 = a2 | a3\n 15841: a0 = a0 >> 0x20\n 15844: a1 = a1 << 0x20\n 15847: a0 = a0 | a1\n 15850: jump @657 if a0 == 0\n      : @656 (gas: 1)\n 15853: jump @1111\n      : @657 (gas: 4)\n 15856: a0 = u64 [s1 + 0x218]\n 15860: a1 = a4\n 15862: u64 [s1 + 0x210] = a4\n 15866: ra = 696, jump @29\n      : @658 [@dyn 348] (gas: 5)\n 15872: i32 a1 = a0 + 0\n 15874: a2 = i32 [s1 + 0x210]\n 15878: a0 = 0\n 15880: ecalli 12 // 'seal_return'\n 15882: jump @559\n      : @659 (gas: 8)\n 15885: u64 [a3 + 768] = 0\n 15889: u64 [a3 + 760] = 0\n 15893: u64 [a3 + 752] = 0\n 15897: u64 [a3 + 744] = 0\n 15901: a0 = s1 + 0x3000\n 15905: i32 a0 = a0 + 0x480\n 15909: ecalli 15 // 'value_transferred'\n 15911: fallthrough\n      : @660 (gas: 10)\n 15912: a4 = s1 + 0x3198\n 15916: a5 = a4 + 0x200\n 15920: a0 = u64 [a5 + 0xf8]\n 15924: a1 = u64 [a4 + 0x300]\n 15928: a2 = u64 [a5 + 0xf0]\n 15932: a3 = u64 [a5 + 0xe8]\n 15936: a1 = a1 | a2\n 15939: a0 = a0 | a3\n 15942: a0 = a0 | a1\n 15945: jump @662 if a0 == 0\n      : @661 (gas: 1)\n 15948: jump @1302\n      : @662 (gas: 3)\n 15951: a0 = u64 [s1 + 0x218]\n 15955: a0 = i32 [a0]\n 15957: jump @664 if a0 >u 3\n      : @663 (gas: 1)\n 15961: jump @1303\n      : @664 (gas: 7)\n 15964: u64 [a4 + 800] = 0\n 15968: u64 [a4 + 792] = 0\n 15972: u64 [a4 + 784] = 0\n 15976: u64 [a4 + 776] = 0x1\n 15981: a0 = s1 + 0x560\n 15985: a1 = s1 + 0x34a0\n 15989: ra = 698, jump @21\n      : @665 [@dyn 349] (gas: 15)\n 15995: a0 = u64 [s1 + 0x578]\n 15999: a1 = u64 [s1 + 0x570]\n 16003: a3 = u64 [s1 + 0x568]\n 16007: a2 = u64 [s1 + 0x560]\n 16011: u64 [s1 + 0x1c8] = a0\n 16015: u64 [s1 + 0x538] = a0\n 16019: u64 [s1 + 0x1c0] = a1\n 16023: u64 [s1 + 0x530] = a1\n 16027: u64 [s1 + 0x1b8] = a3\n 16031: u64 [s1 + 0x528] = a3\n 16035: a0 = s1 + 0x540\n 16039: a1 = s1 + 0x520\n 16043: u64 [s1 + 0x1b0] = a2\n 16047: u64 [s1 + 0x520] = a2\n 16051: ra = 700, jump @1411\n      : @666 [@dyn 350] (gas: 11)\n 16057: a0 = u64 [s1 + 0x540]\n 16061: u64 [s1 + 0x1f8] = a0\n 16065: a0 = u64 [s1 + 0x548]\n 16069: u64 [s1 + 0x1f0] = a0\n 16073: a0 = u64 [s1 + 0x550]\n 16077: u64 [s1 + 0x1e8] = a0\n 16081: a0 = u64 [s1 + 0x558]\n 16085: u64 [s1 + 0x1e0] = a0\n 16089: a0 = s1 + 0x500\n 16093: a1 = 0x40\n 16096: ra = 702, jump @17\n      : @667 [@dyn 351] (gas: 25)\n 16102: a1 = s1 + 0x500\n 16106: a0 = u64 [a1 + 0x18]\n 16109: u64 [s1 + 0x210] = a0\n 16113: a3 = u64 [a1 + 0x10]\n 16116: u64 [s1 + 0x208] = a3\n 16120: a2 = u64 [a1 + 0x8]\n 16123: u64 [s1 + 0x200] = a2\n 16127: a4 = u64 [a1]\n 16129: u64 [s1 + 0x1d0] = a4\n 16133: a1 = u64 [s1 + 0x1e0]\n 16137: a5 = s1 + 0x400\n 16141: u64 [a5 + 0xd8] = a1\n 16145: a1 = u64 [s1 + 0x1e8]\n 16149: u64 [a5 + 0xd0] = a1\n 16153: a1 = u64 [s1 + 0x1f0]\n 16157: u64 [a5 + 0xc8] = a1\n 16161: a1 = u64 [s1 + 0x1f8]\n 16165: u64 [a5 + 0xc0] = a1\n 16169: u64 [a5 + 0xf8] = a0\n 16173: u64 [a5 + 0xf0] = a3\n 16177: u64 [a5 + 0xe8] = a2\n 16181: a0 = s1 + 0x4e0\n 16185: a1 = s1 + 0x4c0\n 16189: u64 [a5 + 0xe0] = a4\n 16193: ra = 704, jump @1362\n      : @668 [@dyn 352] (gas: 7)\n 16199: a4 = s1 + 0x200\n 16203: a3 = u64 [a4 + 0x8]\n 16206: a0 = u64 [s1 + 0x1d0]\n 16210: a1 = u64 [a4 + 0x10]\n 16213: a2 = u64 [a4]\n 16215: a2 = a2 | a1\n 16218: t0 = 706, jump @1623\n      : @669 [@dyn 353] (gas: 1)\n 16224: jump @671 if a1 == 0\n      : @670 (gas: 1)\n 16227: jump @1111\n      : @671 (gas: 10)\n 16230: a1 = u64 [s1 + 0x1b0]\n 16234: u64 [s1 + 0x4a0] = a1\n 16238: a1 = u64 [s1 + 0x1b8]\n 16242: u64 [s1 + 0x4a8] = a1\n 16246: a1 = u64 [s1 + 0x1c0]\n 16250: u64 [s1 + 0x4b0] = a1\n 16254: a1 = s1 + 0x4a0\n 16258: a2 = u64 [s1 + 0x1c8]\n 16262: u64 [s1 + 0x4b8] = a2\n 16266: ra = 708, jump @19\n      : @672 [@dyn 354] (gas: 12)\n 16272: a3 = s1 + 0x100\n 16276: a0 = u64 [a3 + 0xc8]\n 16280: u64 [s1 + 0x478] = a0\n 16284: a0 = u64 [a3 + 0xc0]\n 16288: u64 [s1 + 0x470] = a0\n 16292: a0 = u64 [a3 + 0xb8]\n 16296: u64 [s1 + 0x468] = a0\n 16300: a0 = s1 + 0x480\n 16304: a1 = s1 + 0x460\n 16308: a2 = u64 [a3 + 0xb0]\n 16312: u64 [s1 + 0x460] = a2\n 16316: ra = 710, jump @1411\n      : @673 [@dyn 355] (gas: 26)\n 16322: a4 = s1 + 0x400\n 16326: a0 = u64 [a4 + 0x80]\n 16330: a1 = u64 [a4 + 0x98]\n 16334: a2 = u64 [a4 + 0x88]\n 16338: a3 = u64 [a4 + 0x90]\n 16342: t0 = a0 + 0xffffffffffffffe0\n 16345: a0 = t0 <u a0\n 16348: a4 = a2 + a0\n 16351: a4 = a4 + 0xffffffffffffffff\n 16354: a5 = a4 ^ a2\n 16357: a2 = a4 <u a2\n 16360: a2 = a0 if a5 == 0\n 16363: a0 = a3 + 0xffffffffffffffff\n 16366: a2 = a2 + a0\n 16369: a0 = a2 <u a0\n 16372: a3 = a3 <u 0x1\n 16375: a1 = a1 - a3\n 16378: a0 = a0 + a1\n 16381: a1 = t0 | a2\n 16384: a0 = a0 | a4\n 16387: a1 = a1 | a0\n 16390: a1 = a1 >> 0x20\n 16393: a0 = a0 | a2\n 16396: a0 = a0 << 0x20\n 16399: a0 = a0 | a1\n 16402: jump @675 if a0 == 0\n      : @674 (gas: 1)\n 16405: jump @1111\n      : @675 (gas: 10)\n 16408: a2 = u64 [s1 + 0x210]\n 16412: a4 = u64 [s1 + 0x208]\n 16416: a0 = a4 | a2\n 16419: a1 = 0xffffffe0\n 16429: a5 = u64 [s1 + 0x1d0]\n 16433: a1 = a5 <u a1\n 16436: a3 = u64 [s1 + 0x200]\n 16440: a1 = 0 if a3 != 0\n 16442: a1 = 0 if a0 != 0\n 16444: jump @677 if a1 != 0\n      : @676 (gas: 1)\n 16447: jump @1111\n      : @677 (gas: 23)\n 16450: a0 = a5\n 16452: a5 = a3\n 16454: a3 = a2\n 16456: a2 = a0 + 0x20\n 16459: a0 = a2 <u a0\n 16462: a1 = a5 + a0\n 16465: u64 [s1 + 0x1e8] = a1\n 16469: a1 = a1 <u a5\n 16472: a1 = a0 if a0 == 0\n 16475: a0 = u64 [s1 + 0x218]\n 16479: a0 = i32 [a0]\n 16481: u64 [s1 + 0x218] = a0\n 16485: a1 = a1 + a4\n 16488: a5 = s1 + 0x100\n 16492: u64 [a5 + 0xe0] = a1\n 16496: a0 = a1 <u a4\n 16499: a0 = a0 + a3\n 16502: u64 [a5 + 0xf0] = a0\n 16506: u64 [a5 + 0xd8] = a2\n 16510: a0 = a2\n 16512: a1 = t0\n 16514: u64 [s1 + 0x210] = t0\n 16518: ra = 712, jump @29\n      : @678 [@dyn 356] (gas: 9)\n 16524: i32 a0 = a0 + 0\n 16526: a1 = i32 [s1 + 0x210]\n 16530: a2 = u64 [s1 + 0x218]\n 16534: ecalli 1 // 'call_data_copy'\n 16536: a5 = 0\n 16538: a4 = 0\n 16540: u64 [s1 + 536] = 0\n 16544: t1 = 0\n 16546: fallthrough\n      : @679 (gas: 17)\n 16547: a0 = u64 [s1 + 0x1b0]\n 16551: a0 = a5 <u a0\n 16554: a2 = u64 [s1 + 0x1b8]\n 16558: a1 = a4 ^ a2\n 16561: a2 = a4 <u a2\n 16564: a2 = a0 if a1 == 0\n 16567: t2 = u64 [s1 + 0x1c0]\n 16571: a0 = u64 [s1 + 0x218]\n 16575: t0 = a0 <u t2\n 16578: a3 = u64 [s1 + 0x1c8]\n 16582: a1 = t1 ^ a3\n 16585: a3 = t1 <u a3\n 16588: a3 = t0 if a1 == 0\n 16591: a0 = a0 ^ t2\n 16594: a0 = a0 | a1\n 16597: a3 = a2 if a0 == 0\n 16600: jump @681 if a3 != 0\n      : @680 (gas: 1)\n 16603: jump @1094\n      : @681 (gas: 6)\n 16606: a0 = s1 + 0x380\n 16610: a1 = u64 [s1 + 0x1d0]\n 16614: u64 [s1 + 0x210] = a5\n 16618: u64 [s1 + 0x208] = a4\n 16622: u64 [s1 + 0x200] = t1\n 16626: ra = 714, jump @17\n      : @682 [@dyn 357] (gas: 21)\n 16632: ra = u64 [s1 + 0x200]\n 16636: t2 = u64 [s1 + 0x208]\n 16640: t1 = u64 [s1 + 0x210]\n 16644: a4 = s1 + 0x300\n 16648: a0 = u64 [a4 + 0x88]\n 16652: a1 = u64 [a4 + 0x98]\n 16656: a2 = u64 [a4 + 0x80]\n 16660: a3 = u64 [a4 + 0x90]\n 16664: a4 = t2 ^ a0\n 16667: a0 = t2 <u a0\n 16670: a2 = t1 <u a2\n 16673: a2 = a0 if a4 != 0\n 16676: a5 = u64 [s1 + 0x218]\n 16680: a0 = a5 <u a3\n 16683: a4 = ra ^ a1\n 16686: a1 = ra <u a1\n 16689: a1 = a0 if a4 == 0\n 16692: a0 = a5 ^ a3\n 16695: a0 = a0 | a4\n 16698: a1 = a2 if a0 == 0\n 16701: jump @684 if a1 != 0\n      : @683 (gas: 1)\n 16704: jump @1113\n      : @684 (gas: 39)\n 16707: t0 = u64 [s1 + 0x218]\n 16711: a0 = t0 >> 0x3b\n 16714: a1 = ra << 0x5\n 16717: a0 = a0 | a1\n 16720: u64 [s1 + 0x1f8] = a0\n 16724: a0 = t1 >> 0x3b\n 16727: a2 = t2 << 0x5\n 16730: a2 = a2 | a0\n 16733: a0 = t1 << 0x5\n 16736: a1 = u64 [s1 + 0x1d8]\n 16740: a0 = a0 + a1\n 16743: a3 = a0 <u a1\n 16746: a1 = u64 [s1 + 0x1e8]\n 16750: a2 = a2 + a1\n 16753: a2 = a2 + a3\n 16756: a4 = a2 ^ a1\n 16759: a5 = a2 <u a1\n 16762: a5 = a3 if a4 == 0\n 16765: a3 = t2 >> 0x3b\n 16768: a4 = t0 << 0x5\n 16771: a3 = a3 | a4\n 16774: a1 = u64 [s1 + 0x1e0]\n 16778: a3 = a3 + a1\n 16781: t0 = a3 <u a1\n 16784: a1 = u64 [s1 + 0x1f0]\n 16788: a4 = u64 [s1 + 0x1f8]\n 16792: a1 = a1 + a4\n 16795: a1 = a1 + t0\n 16798: a5 = a5 + a3\n 16801: a3 = a5 <u a3\n 16804: a1 = a1 + a3\n 16807: a1 = a1 | a2\n 16810: a2 = a0 | a5\n 16813: a2 = a2 | a1\n 16816: a1 = a1 | a5\n 16819: a2 = a2 >> 0x20\n 16822: a1 = a1 << 0x20\n 16825: a1 = a1 | a2\n 16828: jump @686 if a1 == 0\n      : @685 (gas: 1)\n 16831: jump @1111\n      : @686 (gas: 7)\n 16834: u64 [s1 + 0x320] = t1\n 16838: u64 [s1 + 0x328] = t2\n 16842: a1 = u64 [s1 + 0x218]\n 16846: u64 [s1 + 0x330] = a1\n 16850: a1 = s1 + 0x320\n 16854: u64 [s1 + 0x338] = ra\n 16858: ra = 716, jump @19\n      : @687 [@dyn 358] (gas: 15)\n 16864: t1 = u64 [s1 + 0x200]\n 16868: a2 = s1 + 0x200\n 16872: a4 = u64 [a2 + 0x8]\n 16875: a5 = u64 [a2 + 0x10]\n 16878: a5 = a5 + 0x1\n 16881: a0 = a5 <u 0x1\n 16884: a4 = a4 + a0\n 16887: a0 = a5 | a4\n 16890: a0 = a0 <u 0x1\n 16893: a1 = u64 [a2 + 0x18]\n 16896: a0 = a0 + a1\n 16899: a1 = a0 <u a1\n 16902: t1 = t1 + a1\n 16905: u64 [a2 + 0x18] = a0\n 16908: jump @679\n      : @688 (gas: 3)\n 16911: a0 = s1 + 0x2f20\n 16915: a1 = 0x40\n 16918: ra = 718, jump @17\n      : @689 [@dyn 359] (gas: 14)\n 16924: a3 = s1 + 0x2998\n 16928: t0 = u64 [a3 + 0x5a0]\n 16932: a1 = a3 + 0x500\n 16936: a5 = u64 [a1 + 0x98]\n 16940: a4 = u64 [a1 + 0x90]\n 16944: a0 = u64 [a1 + 0x88]\n 16948: a2 = a4 | t0\n 16951: a1 = a0 | a5\n 16954: a1 = a1 | a2\n 16957: a1 = a1 >> 0x20\n 16960: a2 = a2 | a5\n 16963: a2 = a2 << 0x20\n 16966: a1 = a1 | a2\n 16969: jump @691 if a1 == 0\n      : @690 (gas: 1)\n 16972: jump @1111\n      : @691 (gas: 12)\n 16975: a2 = a3\n 16977: u64 [a3 + 1400] = 0\n 16981: u64 [a3 + 1392] = 0\n 16985: u64 [a3 + 1384] = 0\n 16989: a3 = 0x8c379a000000000\n 16999: a1 = s1 + 0x2f00\n 17003: u64 [a2 + 0x580] = a3\n 17007: u64 [s1 + 0x218] = a0\n 17011: u64 [s1 + 0x210] = a4\n 17015: u64 [s1 + 0x200] = t0\n 17019: u64 [s1 + 0x208] = a5\n 17023: ra = 720, jump @19\n      : @692 [@dyn 360] (gas: 1)\n 17029: t0 = 722, jump @1589\n      : @693 [@dyn 361] (gas: 1)\n 17035: jump @695 if a0 != 0\n      : @694 (gas: 1)\n 17038: jump @1111\n      : @695 (gas: 1)\n 17041: t0 = 724, jump @1640\n      : @696 [@dyn 362] (gas: 8)\n 17047: u64 [a2 + 1376] = 0\n 17051: u64 [a2 + 1368] = 0\n 17055: u64 [a2 + 1352] = 0x20\n 17060: a1 = s1 + 0x2ee0\n 17064: u64 [a2 + 1360] = 0\n 17068: u64 [s1 + 0x208] = a3\n 17072: u64 [s1 + 0x200] = a4\n 17076: ra = 726, jump @19\n      : @697 [@dyn 363] (gas: 1)\n 17082: t0 = 728, jump @1592\n      : @698 [@dyn 364] (gas: 1)\n 17088: jump @700 if a0 != 0\n      : @699 (gas: 1)\n 17091: jump @1111\n      : @700 (gas: 1)\n 17094: t0 = 730, jump @1639\n      : @701 [@dyn 365] (gas: 6)\n 17100: u64 [a3 + 1344] = 0\n 17104: u64 [a3 + 1336] = 0\n 17108: u64 [a3 + 1320] = 0xe\n 17113: a1 = s1 + 0x2ec0\n 17117: u64 [a3 + 1328] = 0\n 17121: ra = 732, jump @19\n      : @702 [@dyn 366] (gas: 1)\n 17127: t0 = 734, jump @1593\n      : @703 [@dyn 367] (gas: 1)\n 17133: jump @705 if a0 != 0\n      : @704 (gas: 1)\n 17136: jump @1111\n      : @705 (gas: 11)\n 17139: i32 a0 = a3 + 0x44\n 17142: a1 = u64 [0x20000]\n 17147: a2 = u64 [0x20008]\n 17152: a4 = s1 + 0x2998\n 17156: u64 [a4 + 0x520] = a1\n 17160: u64 [a4 + 1296] = 0\n 17164: u64 [a4 + 0x518] = a2\n 17168: a1 = s1 + 0x2ea0\n 17172: u64 [a4 + 1288] = 0\n 17176: ra = 0x3ba\n 17180: jump @19\n      : @706 (gas: 3)\n 17183: a0 = s1 + 0x2560\n 17187: a1 = 0x40\n 17190: ra = 736, jump @17\n      : @707 [@dyn 368] (gas: 14)\n 17196: a4 = s1 + 0x2198\n 17200: t0 = u64 [a4 + 0x3e0]\n 17204: a1 = a4 + 0x300\n 17208: a5 = u64 [a1 + 0xd8]\n 17212: a3 = u64 [a1 + 0xd0]\n 17216: a0 = u64 [a1 + 0xc8]\n 17220: a2 = a3 | t0\n 17223: a1 = a0 | a5\n 17226: a1 = a1 | a2\n 17229: a1 = a1 >> 0x20\n 17232: a2 = a2 | a5\n 17235: a2 = a2 << 0x20\n 17238: a1 = a1 | a2\n 17241: jump @709 if a1 == 0\n      : @708 (gas: 1)\n 17244: jump @1111\n      : @709 (gas: 11)\n 17247: u64 [a4 + 952] = 0\n 17251: u64 [a4 + 944] = 0\n 17255: u64 [a4 + 936] = 0\n 17259: u64 [s1 + 0x210] = a3\n 17263: a3 = 0x8c379a000000000\n 17273: a1 = s1 + 0x2540\n 17277: u64 [a4 + 0x3c0] = a3\n 17281: u64 [s1 + 0x218] = a0\n 17285: u64 [s1 + 0x208] = t0\n 17289: u64 [s1 + 0x200] = a5\n 17293: ra = 738, jump @19\n      : @710 [@dyn 369] (gas: 6)\n 17299: a5 = s1 + 0x200\n 17303: a1 = u64 [a5 + 0x18]\n 17306: a0 = u64 [a5 + 0x8]\n 17309: a3 = u64 [a5]\n 17311: a3 = a3 | a0\n 17314: t0 = 740, jump @1591\n      : @711 [@dyn 370] (gas: 1)\n 17320: jump @713 if a0 != 0\n      : @712 (gas: 1)\n 17323: jump @1111\n      : @713 (gas: 1)\n 17326: t0 = 742, jump @1618\n      : @714 [@dyn 371] (gas: 8)\n 17332: u64 [a2 + 928] = 0\n 17336: u64 [a2 + 920] = 0\n 17340: u64 [a2 + 904] = 0x20\n 17345: a1 = s1 + 0x2520\n 17349: u64 [a2 + 912] = 0\n 17353: u64 [s1 + 0x208] = a3\n 17357: u64 [s1 + 0x200] = a4\n 17361: ra = 744, jump @19\n      : @715 [@dyn 372] (gas: 1)\n 17367: t0 = 746, jump @1592\n      : @716 [@dyn 373] (gas: 1)\n 17373: jump @718 if a0 != 0\n      : @717 (gas: 1)\n 17376: jump @1111\n      : @718 (gas: 1)\n 17379: t0 = 748, jump @1638\n      : @719 [@dyn 374] (gas: 6)\n 17385: u64 [a3 + 896] = 0\n 17389: u64 [a3 + 888] = 0\n 17393: u64 [a3 + 872] = 0xf\n 17398: a1 = s1 + 0x2500\n 17402: u64 [a3 + 880] = 0\n 17406: ra = 750, jump @19\n      : @720 [@dyn 375] (gas: 1)\n 17412: t0 = 752, jump @1593\n      : @721 [@dyn 376] (gas: 1)\n 17418: jump @723 if a0 != 0\n      : @722 (gas: 1)\n 17421: jump @1111\n      : @723 (gas: 11)\n 17424: i32 a0 = a3 + 0x44\n 17427: a1 = u64 [0x20000]\n 17432: a2 = u64 [0x20090]\n 17437: a4 = s1 + 0x2198\n 17441: u64 [a4 + 0x360] = a1\n 17445: u64 [a4 + 848] = 0\n 17449: u64 [a4 + 0x358] = a2\n 17453: a1 = s1 + 0x24e0\n 17457: u64 [a4 + 840] = 0\n 17461: ra = 0x3ba\n 17465: jump @19\n      : @724 (gas: 3)\n 17468: a0 = s1 + 0x1d00\n 17472: a1 = 0x40\n 17475: ra = 754, jump @17\n      : @725 [@dyn 377] (gas: 14)\n 17481: a2 = s1 + 0x1998\n 17485: t0 = u64 [a2 + 0x380]\n 17489: a1 = a2 + 0x300\n 17493: a5 = u64 [a1 + 0x78]\n 17496: a4 = u64 [a1 + 0x70]\n 17499: a0 = u64 [a1 + 0x68]\n 17502: a3 = a4 | t0\n 17505: a1 = a0 | a5\n 17508: a1 = a1 | a3\n 17511: a1 = a1 >> 0x20\n 17514: a3 = a3 | a5\n 17517: a3 = a3 << 0x20\n 17520: a1 = a1 | a3\n 17523: jump @727 if a1 == 0\n      : @726 (gas: 1)\n 17526: jump @1111\n      : @727 (gas: 11)\n 17529: u64 [a2 + 856] = 0\n 17533: u64 [a2 + 848] = 0\n 17537: u64 [a2 + 840] = 0\n 17541: a3 = 0x8c379a000000000\n 17551: a1 = s1 + 0x1ce0\n 17555: u64 [a2 + 0x360] = a3\n 17559: u64 [s1 + 0x218] = a0\n 17563: u64 [s1 + 0x210] = a4\n 17567: u64 [s1 + 0x200] = t0\n 17571: u64 [s1 + 0x208] = a5\n 17575: ra = 756, jump @19\n      : @728 [@dyn 378] (gas: 1)\n 17581: t0 = 758, jump @1589\n      : @729 [@dyn 379] (gas: 1)\n 17587: jump @731 if a0 != 0\n      : @730 (gas: 1)\n 17590: jump @1111\n      : @731 (gas: 1)\n 17593: t0 = 760, jump @1658\n      : @732 [@dyn 380] (gas: 8)\n 17599: u64 [a2 + 832] = 0\n 17603: u64 [a2 + 824] = 0\n 17607: u64 [a2 + 808] = 0x20\n 17612: a1 = s1 + 0x1cc0\n 17616: u64 [a2 + 816] = 0\n 17620: u64 [s1 + 0x208] = a3\n 17624: u64 [s1 + 0x200] = a4\n 17628: ra = 762, jump @19\n      : @733 [@dyn 381] (gas: 1)\n 17634: t0 = 764, jump @1592\n      : @734 [@dyn 382] (gas: 1)\n 17640: jump @736 if a0 != 0\n      : @735 (gas: 1)\n 17643: jump @1111\n      : @736 (gas: 8)\n 17646: i32 a0 = a1 + 0x24\n 17649: a3 = s1 + 0x1998\n 17653: u64 [a3 + 800] = 0\n 17657: u64 [a3 + 792] = 0\n 17661: u64 [a3 + 776] = 0x10\n 17666: a1 = s1 + 0x1ca0\n 17670: u64 [a3 + 784] = 0\n 17674: ra = 766, jump @19\n      : @737 [@dyn 383] (gas: 1)\n 17680: t0 = 768, jump @1593\n      : @738 [@dyn 384] (gas: 1)\n 17686: jump @740 if a0 != 0\n      : @739 (gas: 1)\n 17689: jump @1111\n      : @740 (gas: 9)\n 17692: i32 a0 = a3 + 0x44\n 17695: a1 = u64 [0x200e8]\n 17700: a2 = u64 [0x200f0]\n 17705: a4 = s1 + 0x1998\n 17709: u64 [a4 + 0x300] = a1\n 17713: u64 [a4 + 752] = 0\n 17717: u64 [a4 + 0x2f8] = a2\n 17721: a1 = 0x2000\n 17725: jump @803\n      : @741 (gas: 18)\n 17728: a2 = s1 + 0x100\n 17732: u64 [a2 + 0x20] = a5\n 17735: u64 [a2 + 0x28] = a4\n 17738: a1 = s1 + 0x3198\n 17742: a3 = a1 + 0x400\n 17746: a0 = u64 [a3 + 0x40]\n 17749: u64 [a2 + 0xc8] = a0\n 17753: a0 = u64 [a3 + 0x38]\n 17756: u64 [a2 + 0xc0] = a0\n 17760: a0 = u64 [a3 + 0x30]\n 17763: u64 [a2 + 0xb8] = a0\n 17767: a0 = u64 [a3 + 0x28]\n 17770: u64 [a2 + 0xd0] = a0\n 17774: a0 = s1 + 0x3000\n 17778: i32 a0 = a0 + 0x5e0\n 17782: a1 = 0x64\n 17785: ecalli 2 // 'call_data_load'\n 17787: fallthrough\n      : @742 (gas: 16)\n 17788: a3 = s1 + 0x3198\n 17792: a4 = a3 + 0x400\n 17796: a0 = u64 [a4 + 0x60]\n 17799: a1 = u64 [a4 + 0x58]\n 17802: a2 = u64 [a4 + 0x48]\n 17805: a3 = u64 [a4 + 0x50]\n 17808: a4 = a0 >u 0\n 17810: a5 = a1 >u 0\n 17812: a5 = a4 if a0 != 0\n 17815: a4 = a3 >u 0\n 17817: a2 = a2 <u 0x2\n 17820: a2 = a2 ^ 0x1\n 17823: a2 = a4 if a3 != 0\n 17826: a0 = a0 | a1\n 17829: a2 = a5 if a0 != 0\n 17832: jump @870 if a2 != 0\n      : @743 (gas: 4)\n 17836: a0 = s1 + 0x7ff\n 17840: a0 = a0 + 0x1\n 17843: a1 = 0x40\n 17846: ra = 770, jump @17\n      : @744 [@dyn 385] (gas: 9)\n 17852: a0 = s1 + 0x1000\n 17856: a4 = u64 [a0 + 0xfffffffffffff818]\n 17860: a0 = s1 + 0x1000\n 17864: a5 = u64 [a0 + 0xfffffffffffff810]\n 17868: a0 = s1 + 0x1000\n 17872: a3 = u64 [a0 + 0xfffffffffffff808]\n 17876: a0 = s1 + 0x1000\n 17880: a0 = u64 [a0 + 0xfffffffffffff800]\n 17884: t0 = 772, jump @1630\n      : @745 [@dyn 386] (gas: 1)\n 17890: jump @747 if a1 == 0\n      : @746 (gas: 1)\n 17893: jump @1111\n      : @747 (gas: 7)\n 17896: u64 [s1 + 2032] = 0\n 17900: u64 [s1 + 2024] = 0\n 17904: u64 [s1 + 2016] = 0\n 17908: a2 = 0x8c379a000000000\n 17918: a1 = s1 + 0x7e0\n 17922: u64 [s1 + 0x7f8] = a2\n 17926: t0 = 774, jump @1643\n      : @748 [@dyn 387] (gas: 1)\n 17932: ra = 776, jump @19\n      : @749 [@dyn 388] (gas: 6)\n 17938: a5 = s1 + 0x200\n 17942: a1 = u64 [a5 + 0x18]\n 17945: a0 = u64 [a5 + 0x8]\n 17948: a3 = u64 [a5]\n 17950: a3 = a3 | a0\n 17953: t0 = 778, jump @1591\n      : @750 [@dyn 389] (gas: 1)\n 17959: jump @752 if a0 != 0\n      : @751 (gas: 1)\n 17962: jump @1111\n      : @752 (gas: 9)\n 17965: i32 a0 = a1 + 0x4\n 17968: u64 [s1 + 2008] = 0\n 17972: u64 [s1 + 2000] = 0\n 17976: u64 [s1 + 1984] = 0x20\n 17981: a1 = s1 + 0x7c0\n 17985: u64 [s1 + 1992] = 0\n 17989: u64 [s1 + 0x208] = a3\n 17993: u64 [s1 + 0x200] = a4\n 17997: ra = 780, jump @19\n      : @753 [@dyn 390] (gas: 1)\n 18003: t0 = 782, jump @1592\n      : @754 [@dyn 391] (gas: 1)\n 18009: jump @756 if a0 != 0\n      : @755 (gas: 1)\n 18012: jump @1111\n      : @756 (gas: 7)\n 18015: i32 a0 = a1 + 0x24\n 18018: u64 [s1 + 1976] = 0\n 18022: u64 [s1 + 1968] = 0\n 18026: u64 [s1 + 1952] = 0x1c\n 18031: a1 = s1 + 0x7a0\n 18035: u64 [s1 + 1960] = 0\n 18039: ra = 784, jump @19\n      : @757 [@dyn 392] (gas: 1)\n 18045: t0 = 786, jump @1601\n      : @758 [@dyn 393] (gas: 1)\n 18051: jump @760 if a0 != 0\n      : @759 (gas: 1)\n 18054: jump @1111\n      : @760 (gas: 13)\n 18057: i32 a0 = a2 + 0x44\n 18060: a1 = u64 [0x20190]\n 18065: a2 = u64 [0x20198]\n 18070: a3 = u64 [0x201a0]\n 18075: a4 = s1 + 0x700\n 18079: u64 [a4 + 0x98] = a1\n 18083: u64 [a4 + 0x90] = a2\n 18087: u64 [a4 + 0x88] = a3\n 18091: a2 = 0x616e747300000000\n 18101: a1 = s1 + 0x780\n 18105: u64 [a4 + 0x80] = a2\n 18109: ra = 0x3ba\n 18113: jump @19\n      : @761 (gas: 38)\n 18116: a0 = u64 [s1 + 0x158]\n 18120: a1 = u64 [s1 + 0x218]\n 18124: t2 = a1 <u a0\n 18127: a1 = u64 [s1 + 0x140]\n 18131: a5 = u64 [s1 + 0x208]\n 18135: a3 = a5 ^ a1\n 18138: a2 = a5 <u a1\n 18141: a2 = t2 if a3 == 0\n 18144: t0 = u64 [s1 + 0x148]\n 18148: a3 = u64 [s1 + 0x200]\n 18152: t1 = a3 - t0\n 18155: a3 = a3 <u t0\n 18158: ra = u64 [s1 + 0x150]\n 18162: a4 = u64 [s1 + 0x210]\n 18166: a4 = a4 - ra\n 18169: a4 = a4 - a3\n 18172: a3 = t1 <u a2\n 18175: a4 = a4 - a3\n 18178: u64 [s1 + 0x210] = a4\n 18182: t1 = t1 - a2\n 18185: a2 = a5 - a1\n 18188: a2 = a2 - t2\n 18191: a4 = u64 [s1 + 0x218]\n 18195: a4 = a4 - a0\n 18198: a3 = s1 + 0x2998\n 18202: a5 = a3 + 0x100\n 18206: u64 [a5 + 0x68] = a0\n 18209: u64 [a5 + 0x48] = a4\n 18212: u64 [a5 + 0x70] = a1\n 18215: u64 [a3 + 0x178] = t0\n 18219: u64 [a5 + 0x50] = a2\n 18222: u64 [a3 + 0x180] = ra\n 18226: u64 [a3 + 0x158] = t1\n 18230: a0 = s1 + 0x2b00\n 18234: a1 = s1 + 0x2ae0\n 18238: a2 = u64 [s1 + 0x210]\n 18242: u64 [a5 + 0x60] = a2\n 18245: ra = 788, jump @1362\n      : @762 [@dyn 394] (gas: 3)\n 18251: a0 = s1 + 0x2ac0\n 18255: a1 = 0x40\n 18258: ra = 790, jump @17\n      : @763 [@dyn 395] (gas: 14)\n 18264: a2 = s1 + 0x2998\n 18268: t0 = u64 [a2 + 0x140]\n 18272: a1 = a2 + 0x100\n 18276: a5 = u64 [a1 + 0x38]\n 18279: a4 = u64 [a1 + 0x30]\n 18282: a0 = u64 [a1 + 0x28]\n 18285: a3 = a4 | t0\n 18288: a1 = a0 | a5\n 18291: a1 = a1 | a3\n 18294: a1 = a1 >> 0x20\n 18297: a3 = a3 | a5\n 18300: a3 = a3 << 0x20\n 18303: a1 = a1 | a3\n 18306: jump @765 if a1 == 0\n      : @764 (gas: 1)\n 18309: jump @1111\n      : @765 (gas: 22)\n 18312: a1 = a0 + 0x20\n 18315: u64 [s1 + 0x210] = a1\n 18319: t1 = a1 <u a0\n 18322: a1 = a4 + t1\n 18325: u64 [s1 + 0x218] = a1\n 18329: a1 = a1 <u a4\n 18332: a1 = t1 if t1 == 0\n 18335: a1 = a1 + a5\n 18338: u64 [s1 + 0x200] = a1\n 18342: a1 = a1 <u a5\n 18345: a1 = a1 + t0\n 18348: u64 [s1 + 0x208] = a1\n 18352: u64 [a2 + 288] = 0\n 18356: u64 [a2 + 280] = 0\n 18360: u64 [a2 + 272] = 0\n 18364: a1 = s1 + 0x2aa0\n 18368: u64 [a2 + 264] = 0x20\n 18373: u64 [s1 + 0x1b0] = a0\n 18377: u64 [s1 + 0x1a0] = a4\n 18381: u64 [s1 + 0x198] = t0\n 18385: u64 [s1 + 0x190] = a5\n 18389: ra = 792, jump @19\n      : @766 [@dyn 396] (gas: 3)\n 18395: a0 = s1 + 0x2a80\n 18399: a1 = u64 [s1 + 0x158]\n 18403: ra = 794, jump @17\n      : @767 [@dyn 397] (gas: 1)\n 18409: t0 = 796, jump @1628\n      : @768 [@dyn 398] (gas: 1)\n 18415: jump @770 if a1 == 0\n      : @769 (gas: 1)\n 18418: jump @1111\n      : @770 (gas: 15)\n 18421: a5 = s1 + 0x2998\n 18425: a4 = u64 [a5 + 0x100]\n 18429: a1 = u64 [a5 + 0xf8]\n 18433: a2 = u64 [a5 + 0xf0]\n 18437: a3 = u64 [a5 + 0xe8]\n 18441: u64 [s1 + 0x1b8] = a3\n 18445: u64 [a5 + 0xc8] = a3\n 18449: u64 [s1 + 0x1c0] = a2\n 18453: u64 [a5 + 0xd0] = a2\n 18457: u64 [s1 + 0x1c8] = a1\n 18461: u64 [a5 + 0xd8] = a1\n 18465: a1 = s1 + 0x2a60\n 18469: u64 [s1 + 0x1d0] = a4\n 18473: u64 [a5 + 0xe0] = a4\n 18477: ra = 798, jump @19\n      : @771 [@dyn 399] (gas: 25)\n 18483: t0 = 0\n 18485: a4 = 0\n 18487: ra = 0\n 18489: t2 = 0\n 18491: a3 = s1 + 0x100\n 18495: a1 = u64 [a3 + 0xb0]\n 18499: a0 = a1 + 0x40\n 18502: a5 = s1 + 0x200\n 18506: u64 [a5 + 0x10] = a0\n 18509: a0 = a0 <u a1\n 18512: a2 = u64 [a3 + 0xa0]\n 18516: a1 = a2 + a0\n 18519: u64 [a5 + 0x8] = a1\n 18522: a1 = a1 <u a2\n 18525: a1 = a0 if a0 == 0\n 18528: a0 = u64 [a3 + 0x90]\n 18532: a1 = a1 + a0\n 18535: u64 [a5] = a1\n 18537: a0 = a1 <u a0\n 18540: a1 = u64 [a3 + 0x98]\n 18544: a0 = a0 + a1\n 18547: u64 [a5 + 0x18] = a0\n 18550: a1 = u64 [a3 + 0x68]\n 18553: t1 = u64 [s1 + 0x160]\n 18557: fallthrough\n      : @772 (gas: 17)\n 18558: a0 = u64 [s1 + 0x1b8]\n 18562: a0 = t0 <u a0\n 18565: a2 = u64 [s1 + 0x1c0]\n 18569: a3 = a4 ^ a2\n 18572: u64 [s1 + 0x1f8] = a4\n 18576: a2 = a4 <u a2\n 18579: a2 = a0 if a3 == 0\n 18582: a5 = u64 [s1 + 0x1c8]\n 18586: a0 = ra <u a5\n 18589: a3 = u64 [s1 + 0x1d0]\n 18593: a4 = t2 ^ a3\n 18596: a3 = t2 <u a3\n 18599: a3 = a0 if a4 == 0\n 18602: a0 = ra ^ a5\n 18605: a0 = a0 | a4\n 18608: a3 = a2 if a0 == 0\n 18611: jump @774 if a3 != 0\n      : @773 (gas: 1)\n 18614: jump @1108\n      : @774 (gas: 10)\n 18617: a0 = a1 | t1\n 18620: a2 = u64 [s1 + 0x170]\n 18624: a3 = u64 [s1 + 0x178]\n 18628: a2 = a2 | a3\n 18631: a0 = a0 | a2\n 18634: a0 = a0 >> 0x20\n 18637: a2 = a2 | t1\n 18640: a2 = a2 << 0x20\n 18643: a0 = a0 | a2\n 18646: jump @776 if a0 == 0\n      : @775 (gas: 1)\n 18649: jump @1111\n      : @776 (gas: 7)\n 18652: u64 [s1 + 0x1e0] = ra\n 18656: u64 [s1 + 0x1e8] = t2\n 18660: u64 [s1 + 0x1f0] = t0\n 18664: u64 [s1 + 0x160] = t1\n 18668: a0 = s1 + 0x2a40\n 18672: u64 [s1 + 0x168] = a1\n 18676: ra = 800, jump @17\n      : @777 [@dyn 400] (gas: 13)\n 18682: a1 = s1 + 0x200\n 18686: a5 = u64 [a1 + 0x10]\n 18689: a3 = u64 [a1]\n 18691: a0 = a5 | a3\n 18694: a2 = u64 [a1 + 0x18]\n 18697: t0 = u64 [s1 + 0x208]\n 18701: a1 = t0 | a2\n 18704: a0 = a0 | a1\n 18707: a0 = a0 >> 0x20\n 18710: a1 = a1 | a3\n 18713: a1 = a1 << 0x20\n 18716: a0 = a0 | a1\n 18719: jump @779 if a0 == 0\n      : @778 (gas: 1)\n 18722: jump @1111\n      : @779 (gas: 21)\n 18725: a0 = s1 + 0x2998\n 18729: u64 [s1 + 0x218] = a2\n 18733: u64 [s1 + 0x200] = a3\n 18737: a3 = a0\n 18739: a0 = u64 [a0 + 0xb8]\n 18743: a1 = u64 [a3 + 0xb0]\n 18747: a2 = u64 [a3 + 0xa8]\n 18751: a4 = u64 [s1 + 0x1a8]\n 18755: a0 = a0 & a4\n 18758: a4 = 0xffffffffffffffff\n 18761: a1 = a1 & a4\n 18764: a2 = a2 & a4\n 18767: u64 [a3 + 160] = 0\n 18771: u64 [a3 + 0x88] = a2\n 18775: u64 [a3 + 0x90] = a1\n 18779: a1 = s1 + 0x2a20\n 18783: u64 [a3 + 0x98] = a0\n 18787: a0 = a5\n 18789: u64 [s1 + 0x210] = a5\n 18793: u64 [s1 + 0x208] = t0\n 18797: ra = 802, jump @19\n      : @780 [@dyn 401] (gas: 51)\n 18803: a1 = u64 [s1 + 0x210]\n 18807: a0 = a1 + 0x20\n 18810: u64 [s1 + 0x1d8] = a0\n 18814: a2 = a0 <u a1\n 18817: a0 = u64 [s1 + 0x208]\n 18821: t1 = a0 + a2\n 18824: a3 = t1 <u a0\n 18827: a3 = a2 if a2 == 0\n 18830: a0 = u64 [s1 + 0x200]\n 18834: a2 = a0 + a3\n 18837: a3 = a2 <u a0\n 18840: a0 = u64 [s1 + 0x218]\n 18844: a0 = a0 + a3\n 18847: u64 [s1 + 0x218] = a0\n 18851: a0 = u64 [s1 + 0x168]\n 18855: a3 = a0 + 0x20\n 18858: a4 = a3 <u a0\n 18861: a0 = u64 [s1 + 0x178]\n 18865: a5 = a0 + a4\n 18868: a0 = a5 <u a0\n 18871: a0 = a4 if a4 == 0\n 18874: a1 = u64 [s1 + 0x160]\n 18878: a0 = a0 + a1\n 18881: a4 = a0 <u a1\n 18884: a1 = u64 [s1 + 0x170]\n 18888: a1 = a1 + a4\n 18891: u64 [s1 + 0x170] = a1\n 18895: t0 = u64 [s1 + 0x1f0]\n 18899: t0 = t0 + 0x1\n 18902: a4 = t0 <u 0x1\n 18905: t2 = u64 [s1 + 0x1f8]\n 18909: t2 = t2 + a4\n 18912: a4 = t0 | t2\n 18915: a4 = a4 <u 0x1\n 18918: a1 = u64 [s1 + 0x1e0]\n 18922: a4 = a4 + a1\n 18925: a1 = a4 <u a1\n 18928: ra = u64 [s1 + 0x1e8]\n 18932: ra = ra + a1\n 18935: a1 = u64 [s1 + 0x1d8]\n 18939: u64 [s1 + 0x210] = a1\n 18943: u64 [s1 + 0x208] = t1\n 18947: u64 [s1 + 0x200] = a2\n 18951: a1 = a3\n 18953: u64 [s1 + 0x178] = a5\n 18957: t1 = a0\n 18959: a0 = a4\n 18961: a4 = t2\n 18963: t2 = ra\n 18965: ra = a0\n 18967: jump @772\n      : @781 (gas: 9)\n 18970: a2 = s1 + 0x100\n 18974: u64 [a2 + 0xa0] = a1\n 18978: a0 = u64 [a3 + 0x500]\n 18982: u64 [a2 + 0x88] = a0\n 18986: a0 = u64 [a3 + 0x4f8]\n 18990: u64 [a2 + 0x90] = a0\n 18994: a0 = u64 [a3 + 0x4f0]\n 18998: u64 [a2 + 0x98] = a0\n 19002: t0 = 804, jump @1651\n      : @782 [@dyn 402] (gas: 7)\n 19008: a0 = a2 + 0x9\n 19011: a5 = a0 <u a2\n 19014: a4 = u64 [s1 + 0x208]\n 19018: a2 = a4 + a5\n 19021: a3 = a2 <u a4\n 19024: a3 = a5 if a5 == 0\n 19027: t0 = 806, jump @1634\n      : @783 [@dyn 403] (gas: 4)\n 19033: i32 a0 = a0 + 0xfffffffffffffe60\n 19037: a0 = a0 + s1\n 19040: u64 [s1 + 0x218] = a1\n 19044: ra = 808, jump @21\n      : @784 [@dyn 404] (gas: 10)\n 19050: a0 = s1 + 0x2998\n 19054: a1 = a0 + 0x400\n 19058: a2 = u64 [a1 + 0xe0]\n 19062: a3 = u64 [a1 + 0xd8]\n 19066: a4 = u64 [a1 + 0xd0]\n 19070: a5 = u64 [a1 + 0xc8]\n 19074: a0 = a4 | a2\n 19077: a1 = a5 | a3\n 19080: a0 = a0 | a1\n 19083: jump @889 if a0 != 0\n      : @785 (gas: 3)\n 19087: a0 = s1 + 0x2d00\n 19091: a1 = 0x40\n 19094: ra = 810, jump @17\n      : @786 [@dyn 405] (gas: 14)\n 19100: a2 = s1 + 0x2998\n 19104: t0 = u64 [a2 + 0x380]\n 19108: a1 = a2 + 0x300\n 19112: a5 = u64 [a1 + 0x78]\n 19115: a4 = u64 [a1 + 0x70]\n 19118: a0 = u64 [a1 + 0x68]\n 19121: a3 = a4 | t0\n 19124: a1 = a0 | a5\n 19127: a1 = a1 | a3\n 19130: a1 = a1 >> 0x20\n 19133: a3 = a3 | a5\n 19136: a3 = a3 << 0x20\n 19139: a1 = a1 | a3\n 19142: jump @788 if a1 == 0\n      : @787 (gas: 1)\n 19145: jump @1111\n      : @788 (gas: 11)\n 19148: u64 [a2 + 856] = 0\n 19152: u64 [a2 + 848] = 0\n 19156: u64 [a2 + 840] = 0\n 19160: a3 = 0x8c379a000000000\n 19170: a1 = s1 + 0x2ce0\n 19174: u64 [a2 + 0x360] = a3\n 19178: u64 [s1 + 0x218] = a0\n 19182: u64 [s1 + 0x210] = a4\n 19186: u64 [s1 + 0x200] = t0\n 19190: u64 [s1 + 0x208] = a5\n 19194: ra = 812, jump @19\n      : @789 [@dyn 406] (gas: 1)\n 19200: t0 = 814, jump @1589\n      : @790 [@dyn 407] (gas: 1)\n 19206: jump @792 if a0 != 0\n      : @791 (gas: 1)\n 19209: jump @1111\n      : @792 (gas: 1)\n 19212: t0 = 816, jump @1640\n      : @793 [@dyn 408] (gas: 8)\n 19218: u64 [a2 + 832] = 0\n 19222: u64 [a2 + 824] = 0\n 19226: u64 [a2 + 808] = 0x20\n 19231: a1 = s1 + 0x2cc0\n 19235: u64 [a2 + 816] = 0\n 19239: u64 [s1 + 0x208] = a3\n 19243: u64 [s1 + 0x200] = a4\n 19247: ra = 818, jump @19\n      : @794 [@dyn 409] (gas: 1)\n 19253: t0 = 820, jump @1592\n      : @795 [@dyn 410] (gas: 1)\n 19259: jump @797 if a0 != 0\n      : @796 (gas: 1)\n 19262: jump @1111\n      : @797 (gas: 1)\n 19265: t0 = 822, jump @1639\n      : @798 [@dyn 411] (gas: 6)\n 19271: u64 [a3 + 800] = 0\n 19275: u64 [a3 + 792] = 0\n 19279: u64 [a3 + 776] = 0x11\n 19284: a1 = s1 + 0x2ca0\n 19288: u64 [a3 + 784] = 0\n 19292: ra = 824, jump @19\n      : @799 [@dyn 412] (gas: 1)\n 19298: t0 = 826, jump @1593\n      : @800 [@dyn 413] (gas: 1)\n 19304: jump @802 if a0 != 0\n      : @801 (gas: 1)\n 19307: jump @1111\n      : @802 (gas: 10)\n 19310: i32 a0 = a3 + 0x44\n 19313: a1 = u64 [0x20040]\n 19318: a2 = u64 [0x20048]\n 19323: a4 = s1 + 0x2998\n 19327: u64 [a4 + 0x300] = a1\n 19331: u64 [a4 + 0x2f8] = a2\n 19335: a1 = 0x6d00000000000000\n 19345: u64 [a4 + 0x2f0] = a1\n 19349: a1 = 0x3000\n 19353: fallthrough\n      : @803 (gas: 5)\n 19354: i32 a1 = a1 + 0xfffffffffffffc80\n 19358: a1 = a1 + s1\n 19361: u64 [a4 + 744] = 0\n 19365: ra = 0x3ba\n 19369: jump @19\n      : @804 (gas: 29)\n 19372: u64 [s1 + 0x1a8] = a1\n 19376: a0 = u64 [a3 + 0x340]\n 19380: u64 [s1 + 0x1a0] = a0\n 19384: a0 = u64 [a3 + 0x338]\n 19388: u64 [s1 + 0x198] = a0\n 19392: a1 = u64 [s1 + 0x1e8]\n 19396: a0 = a1 + 0x7\n 19399: a1 = a0 <u a1\n 19402: a4 = u64 [s1 + 0x1f0]\n 19406: a2 = a4 + a1\n 19409: a5 = a3\n 19411: a3 = a2 <u a4\n 19414: a3 = a1 if a1 == 0\n 19417: a1 = u64 [a5 + 0x330]\n 19421: u64 [s1 + 0x190] = a1\n 19425: a4 = s1 + 0x3998\n 19429: a5 = a4 + 0x300\n 19433: u64 [a5 + 0x48] = a0\n 19436: u64 [a5 + 0x50] = a2\n 19439: a0 = u64 [s1 + 0x1f8]\n 19443: a3 = a3 + a0\n 19446: u64 [a5 + 0x58] = a3\n 19449: a0 = a3 <u a0\n 19452: a1 = u64 [s1 + 0x200]\n 19456: a0 = a0 + a1\n 19459: u64 [a5 + 0x60] = a0\n 19462: a0 = s1 + 0x24a0\n 19466: a1 = s1 + 0x3ce0\n 19470: ra = 828, jump @21\n      : @805 [@dyn 414] (gas: 3)\n 19476: a3 = s1 + 0x2198\n 19480: a4 = a3 + 0x300\n 19484: t0 = 830, jump @1653\n      : @806 [@dyn 415] (gas: 1)\n 19490: jump @900 if a0 != 0\n      : @807 (gas: 14)\n 19494: a0 = u64 [s1 + 0x1a8]\n 19498: a0 = a0 & 0xffffffffffffff00\n 19502: a1 = s1 + 0x3998\n 19506: a2 = u64 [s1 + 0x190]\n 19510: a3 = a1 + 0x300\n 19514: u64 [a3 + 0x70] = a2\n 19517: u64 [a3 + 0x68] = a0\n 19520: a0 = u64 [s1 + 0x198]\n 19524: u64 [a3 + 0x78] = a0\n 19527: a0 = u64 [s1 + 0x1a0]\n 19531: u64 [a3 + 0x80] = a0\n 19535: a1 = s1 + 0x3d00\n 19539: a0 = u64 [s1 + 0x208]\n 19543: ra = 832, jump @23\n      : @808 [@dyn 416] (gas: 22)\n 19549: a0 = sp + 0xffffffffffffffe0\n 19552: a1 = a0 & 0xffffffffffffffe0\n 19555: sp = a1\n 19557: a2 = u64 [s1 + 0x1e8]\n 19561: a0 = a2 + 0x9\n 19564: a4 = a0 <u a2\n 19567: a3 = u64 [s1 + 0x1f0]\n 19571: a2 = a3 + a4\n 19574: a3 = a2 <u a3\n 19577: a3 = a4 if a4 == 0\n 19580: a4 = u64 [s1 + 0x1f8]\n 19584: a3 = a3 + a4\n 19587: a5 = a3 <u a4\n 19590: a4 = u64 [s1 + 0x200]\n 19594: a4 = a4 + a5\n 19597: u64 [a1 + 0x18] = a4\n 19600: u64 [a1 + 0x10] = a3\n 19603: u64 [a1 + 0x8] = a2\n 19606: u64 [a1] = a0\n 19608: a0 = s1 + 0x23e0\n 19612: u64 [s1 + 0x1e8] = a1\n 19616: ra = 834, jump @21\n      : @809 [@dyn 417] (gas: 14)\n 19622: a0 = s1 + 0x2198\n 19626: a5 = a0 + 0x200\n 19630: a4 = u64 [a5 + 0x60]\n 19633: a3 = u64 [a5 + 0x58]\n 19636: a2 = u64 [a5 + 0x50]\n 19639: a1 = u64 [a5 + 0x48]\n 19642: u64 [s1 + 0x200] = a2\n 19646: u64 [s1 + 0x1f0] = a4\n 19650: a0 = a2 | a4\n 19653: u64 [s1 + 0x208] = a1\n 19657: u64 [s1 + 0x1f8] = a3\n 19661: a1 = a1 | a3\n 19664: a0 = a0 | a1\n 19667: jump @811 if a0 != 0\n      : @810 (gas: 1)\n 19670: jump @1306\n      : @811 (gas: 8)\n 19673: a0 = s1 + 0x3998\n 19677: u64 [a0 + 928] = 0\n 19681: u64 [a0 + 920] = 0\n 19685: u64 [a0 + 912] = 0\n 19689: u64 [a0 + 904] = 0\n 19693: a1 = s1 + 0x3d20\n 19697: a0 = u64 [s1 + 0x1e8]\n 19701: ra = 836, jump @23\n      : @812 [@dyn 418] (gas: 58)\n 19707: ecalli 9 // 'ref_time_left'\n 19709: a1 = u64 [s1 + 0x210]\n 19713: a2 = reverse a1\n 19715: a1 = u64 [s1 + 0x1d8]\n 19719: a1 = reverse a1\n 19721: a1 = a1 >> 0x20\n 19724: a3 = a2 << 0x20\n 19727: a3 = a3 | a1\n 19730: a1 = u64 [s1 + 0x218]\n 19734: a4 = reverse a1\n 19736: a1 = 0x30220\n 19741: a2 = a2 >> 0x20\n 19744: a5 = a4 << 0x20\n 19747: a2 = a2 | a5\n 19750: u64 [0x30228] = a2\n 19755: u64 [0x30220] = a3\n 19760: a4 = a4 >> 0x20\n 19763: u32 [0x30230] = a4\n 19768: a3 = s1 + 0x3998\n 19772: a5 = s1 + 0x100\n 19776: a2 = u64 [a5 + 0xf0]\n 19780: a4 = a3 + 0x300\n 19784: u64 [a4 + 0xc0] = a2\n 19788: a2 = u64 [a5 + 0xf8]\n 19792: u64 [a4 + 0xb8] = a2\n 19796: a2 = u64 [s1 + 0x200]\n 19800: u64 [a4 + 0xb0] = a2\n 19804: a2 = u64 [s1 + 0x208]\n 19808: u64 [a4 + 0xa8] = a2\n 19812: a0 = a0 >u 0x8fc\n 19816: a2 = -a0\n 19818: u64 [a3 + 0x400] = a2\n 19822: u64 [a4 + 0xf8] = a2\n 19826: u64 [a4 + 0xf0] = a2\n 19830: u64 [a4 + 0xe8] = a2\n 19834: u32 [a3 + 968] = 0\n 19838: a1 = a1 << 0x20\n 19841: a1 = a1 >> 0x20\n 19844: a0 = a0 << 0x23\n 19847: a0 = a0 | a1\n 19850: a1 = s1 + 0x3d40\n 19854: a1 = a1 << 0x20\n 19857: a1 = a1 >> 0x20\n 19860: a2 = s1 + 0x3d80\n 19864: a2 = a2 << 0x20\n 19867: a3 = a2 | a1\n 19870: a4 = u64 [a5 + 0xe0]\n 19874: a4 = a4 << 0x20\n 19877: a4 = a4 >> 0x20\n 19880: a1 = s1 + 0x3d60\n 19884: a1 = a1 << 0x20\n 19887: a5 = a1 | a4\n 19890: a1 = 0xffffffffffffffff\n 19893: a2 = 0xffffffffffffffff\n 19896: ecalli 0 // 'call'\n 19897: u64 [s1 + 0x218] = a0\n 19901: a0 = s1 + 0x23c0\n 19905: ra = 838, jump @1492\n      : @813 [@dyn 419] (gas: 2)\n 19911: a0 = u64 [s1 + 0x218]\n 19915: jump @815 if a0 != 0\n      : @814 (gas: 1)\n 19918: jump @1306\n      : @815 (gas: 3)\n 19921: a0 = s1 + 0x23a0\n 19925: a1 = 0x40\n 19928: ra = 840, jump @17\n      : @816 [@dyn 420] (gas: 14)\n 19934: a2 = s1 + 0x2198\n 19938: t0 = u64 [a2 + 0x220]\n 19942: a1 = a2 + 0x200\n 19946: a5 = u64 [a1 + 0x18]\n 19949: a4 = u64 [a1 + 0x10]\n 19952: a0 = u64 [a1 + 0x8]\n 19955: a3 = a4 | t0\n 19958: a1 = a0 | a5\n 19961: a1 = a1 | a3\n 19964: a1 = a1 >> 0x20\n 19967: a3 = a3 | a5\n 19970: a3 = a3 << 0x20\n 19973: a1 = a1 | a3\n 19976: jump @818 if a1 == 0\n      : @817 (gas: 1)\n 19979: jump @1111\n      : @818 (gas: 11)\n 19982: u64 [a2 + 504] = 0\n 19986: u64 [a2 + 496] = 0\n 19990: u64 [a2 + 488] = 0\n 19994: a3 = 0x8c379a000000000\n 20004: a1 = s1 + 0x2380\n 20008: u64 [a2 + 0x200] = a3\n 20012: u64 [s1 + 0x218] = a0\n 20016: u64 [s1 + 0x210] = a4\n 20020: u64 [s1 + 0x200] = t0\n 20024: u64 [s1 + 0x208] = a5\n 20028: ra = 842, jump @19\n      : @819 [@dyn 421] (gas: 1)\n 20034: t0 = 844, jump @1589\n      : @820 [@dyn 422] (gas: 1)\n 20040: jump @822 if a0 != 0\n      : @821 (gas: 1)\n 20043: jump @1111\n      : @822 (gas: 1)\n 20046: t0 = 846, jump @1618\n      : @823 [@dyn 423] (gas: 8)\n 20052: u64 [a2 + 480] = 0\n 20056: u64 [a2 + 472] = 0\n 20060: u64 [a2 + 456] = 0x20\n 20065: a1 = s1 + 0x2360\n 20069: u64 [a2 + 464] = 0\n 20073: u64 [s1 + 0x208] = a3\n 20077: u64 [s1 + 0x200] = a4\n 20081: ra = 848, jump @19\n      : @824 [@dyn 424] (gas: 1)\n 20087: t0 = 850, jump @1592\n      : @825 [@dyn 425] (gas: 1)\n 20093: jump @827 if a0 != 0\n      : @826 (gas: 1)\n 20096: jump @1111\n      : @827 (gas: 1)\n 20099: t0 = 852, jump @1638\n      : @828 [@dyn 426] (gas: 6)\n 20105: u64 [a3 + 448] = 0\n 20109: u64 [a3 + 440] = 0\n 20113: u64 [a3 + 424] = 0xd\n 20118: a1 = s1 + 0x2340\n 20122: u64 [a3 + 432] = 0\n 20126: ra = 854, jump @19\n      : @829 [@dyn 427] (gas: 1)\n 20132: t0 = 856, jump @1601\n      : @830 [@dyn 428] (gas: 1)\n 20138: jump @832 if a0 != 0\n      : @831 (gas: 1)\n 20141: jump @1111\n      : @832 (gas: 11)\n 20144: i32 a0 = a2 + 0x44\n 20147: a1 = u64 [0x200b0]\n 20152: a3 = s1 + 0x2198\n 20156: u64 [a3 + 400] = 0\n 20160: u64 [a3 + 0x1a0] = a1\n 20164: a1 = 0x61696c6564000000\n 20174: u64 [a3 + 0x198] = a1\n 20178: a1 = s1 + 0x2320\n 20182: u64 [a3 + 392] = 0\n 20186: ra = 0x3ba\n 20190: jump @19\n      : @833 (gas: 3)\n 20193: a0 = s1 + 0x2780\n 20197: a1 = 0x40\n 20200: ra = 858, jump @17\n      : @834 [@dyn 429] (gas: 14)\n 20206: a2 = s1 + 0x2198\n 20210: t0 = u64 [a2 + 0x600]\n 20214: a1 = a2 + 0x500\n 20218: a5 = u64 [a1 + 0xf8]\n 20222: a4 = u64 [a1 + 0xf0]\n 20226: a0 = u64 [a1 + 0xe8]\n 20230: a3 = a4 | t0\n 20233: a1 = a0 | a5\n 20236: a1 = a1 | a3\n 20239: a1 = a1 >> 0x20\n 20242: a3 = a3 | a5\n 20245: a3 = a3 << 0x20\n 20248: a1 = a1 | a3\n 20251: jump @836 if a1 == 0\n      : @835 (gas: 1)\n 20254: jump @1111\n      : @836 (gas: 11)\n 20257: u64 [a2 + 1496] = 0\n 20261: u64 [a2 + 1488] = 0\n 20265: u64 [a2 + 1480] = 0\n 20269: a3 = 0x8c379a000000000\n 20279: a1 = s1 + 0x2760\n 20283: u64 [a2 + 0x5e0] = a3\n 20287: u64 [s1 + 0x218] = a0\n 20291: u64 [s1 + 0x210] = a4\n 20295: u64 [s1 + 0x200] = t0\n 20299: u64 [s1 + 0x208] = a5\n 20303: ra = 860, jump @19\n      : @837 [@dyn 430] (gas: 1)\n 20309: t0 = 862, jump @1589\n      : @838 [@dyn 431] (gas: 1)\n 20315: jump @840 if a0 != 0\n      : @839 (gas: 1)\n 20318: jump @1111\n      : @840 (gas: 1)\n 20321: t0 = 864, jump @1618\n      : @841 [@dyn 432] (gas: 8)\n 20327: u64 [a2 + 1472] = 0\n 20331: u64 [a2 + 1464] = 0\n 20335: u64 [a2 + 1448] = 0x20\n 20340: a1 = s1 + 0x2740\n 20344: u64 [a2 + 1456] = 0\n 20348: u64 [s1 + 0x208] = a3\n 20352: u64 [s1 + 0x200] = a4\n 20356: ra = 866, jump @19\n      : @842 [@dyn 433] (gas: 10)\n 20362: a3 = s1 + 0x200\n 20366: a1 = u64 [a3 + 0x18]\n 20369: a0 = u64 [a3]\n 20371: a0 = a0 + 0xffffffffffffffdc\n 20374: a0 = a1 <u a0\n 20377: a2 = u64 [a3 + 0x10]\n 20380: a0 = 0 if a2 != 0\n 20382: a2 = u64 [a3 + 0x8]\n 20385: a0 = 0 if a2 != 0\n 20387: jump @844 if a0 != 0\n      : @843 (gas: 1)\n 20390: jump @1111\n      : @844 (gas: 8)\n 20393: i32 a0 = a1 + 0x24\n 20396: a2 = s1 + 0x2198\n 20400: u64 [a2 + 1440] = 0\n 20404: u64 [a2 + 1432] = 0\n 20408: u64 [a2 + 1416] = 0x25\n 20413: a1 = s1 + 0x2720\n 20417: u64 [a2 + 1424] = 0\n 20421: ra = 868, jump @19\n      : @845 [@dyn 434] (gas: 10)\n 20427: a0 = s1 + 0x200\n 20431: a3 = u64 [a0 + 0x8]\n 20434: a4 = u64 [a0 + 0x10]\n 20437: a1 = u64 [a0 + 0x18]\n 20440: a2 = 0x100000000\n 20450: a0 = 0xffffffbc\n 20460: a0 = a1 <u a0\n 20463: a0 = 0 if a4 != 0\n 20465: a0 = 0 if a3 != 0\n 20467: jump @847 if a0 != 0\n      : @846 (gas: 1)\n 20470: jump @1111\n      : @847 (gas: 14)\n 20473: i32 a0 = a1 + 0x44\n 20476: a1 = u64 [0x20060]\n 20481: u64 [s1 + 0x200] = a2\n 20485: a5 = s1 + 0x2198\n 20489: a4 = a5 + 0x500\n 20493: u64 [a4 + 0x80] = a1\n 20497: a1 = u64 [0x20068]\n 20502: a2 = u64 [0x20070]\n 20507: a3 = u64 [0x20078]\n 20512: u64 [a4 + 0x78] = a1\n 20515: u64 [a4 + 0x70] = a2\n 20518: a1 = s1 + 0x2700\n 20522: u64 [a4 + 0x68] = a3\n 20525: ra = 870, jump @19\n      : @848 [@dyn 435] (gas: 10)\n 20531: a3 = s1 + 0x200\n 20535: a2 = u64 [a3 + 0x18]\n 20538: a0 = u64 [a3]\n 20540: a0 = a0 + 0xffffffffffffff9c\n 20543: a0 = a2 <u a0\n 20546: a1 = u64 [a3 + 0x10]\n 20549: a0 = 0 if a1 != 0\n 20551: a1 = u64 [a3 + 0x8]\n 20554: a0 = 0 if a1 != 0\n 20556: jump @850 if a0 != 0\n      : @849 (gas: 1)\n 20559: jump @1111\n      : @850 (gas: 9)\n 20562: i32 a0 = a2 + 0x64\n 20565: a3 = s1 + 0x2198\n 20569: u64 [a3 + 1368] = 0\n 20573: u64 [a3 + 1360] = 0\n 20577: a1 = 0x6177696e67000000\n 20587: u64 [a3 + 0x560] = a1\n 20591: a1 = s1 + 0x26e0\n 20595: u64 [a3 + 1352] = 0\n 20599: ra = 872, jump @19\n      : @851 [@dyn 436] (gas: 3)\n 20605: a1 = 0x84\n 20609: a0 = u64 [s1 + 0x218]\n 20613: ra = 874, jump @29\n      : @852 [@dyn 437] (gas: 5)\n 20619: i32 a1 = a0 + 0\n 20621: a0 = 0x1\n 20624: a2 = 0x84\n 20628: ecalli 12 // 'seal_return'\n 20630: fallthrough\n      : @853 (gas: 3)\n 20631: a0 = s1 + 0x1bc0\n 20635: a1 = 0x40\n 20638: ra = 876, jump @17\n      : @854 [@dyn 438] (gas: 14)\n 20644: a2 = s1 + 0x1998\n 20648: t0 = u64 [a2 + 0x240]\n 20652: a1 = a2 + 0x200\n 20656: a5 = u64 [a1 + 0x38]\n 20659: a4 = u64 [a1 + 0x30]\n 20662: a0 = u64 [a1 + 0x28]\n 20665: a3 = a4 | t0\n 20668: a1 = a0 | a5\n 20671: a1 = a1 | a3\n 20674: a1 = a1 >> 0x20\n 20677: a3 = a3 | a5\n 20680: a3 = a3 << 0x20\n 20683: a1 = a1 | a3\n 20686: jump @856 if a1 == 0\n      : @855 (gas: 1)\n 20689: jump @1111\n      : @856 (gas: 11)\n 20692: u64 [a2 + 536] = 0\n 20696: u64 [a2 + 528] = 0\n 20700: u64 [a2 + 520] = 0\n 20704: a3 = 0x8c379a000000000\n 20714: a1 = s1 + 0x1ba0\n 20718: u64 [a2 + 0x220] = a3\n 20722: u64 [s1 + 0x218] = a0\n 20726: u64 [s1 + 0x210] = a4\n 20730: u64 [s1 + 0x200] = t0\n 20734: u64 [s1 + 0x208] = a5\n 20738: ra = 878, jump @19\n      : @857 [@dyn 439] (gas: 1)\n 20744: t0 = 880, jump @1589\n      : @858 [@dyn 440] (gas: 1)\n 20750: jump @860 if a0 != 0\n      : @859 (gas: 1)\n 20753: jump @1111\n      : @860 (gas: 1)\n 20756: t0 = 882, jump @1658\n      : @861 [@dyn 441] (gas: 8)\n 20762: u64 [a2 + 512] = 0\n 20766: u64 [a2 + 504] = 0\n 20770: u64 [a2 + 488] = 0x20\n 20775: a1 = s1 + 0x1b80\n 20779: u64 [a2 + 496] = 0\n 20783: u64 [s1 + 0x208] = a3\n 20787: u64 [s1 + 0x200] = a4\n 20791: ra = 884, jump @19\n      : @862 [@dyn 442] (gas: 1)\n 20797: t0 = 886, jump @1632\n      : @863 [@dyn 443] (gas: 1)\n 20803: jump @865 if a0 != 0\n      : @864 (gas: 1)\n 20806: jump @1111\n      : @865 (gas: 8)\n 20809: i32 a0 = a1 + 0x24\n 20812: a2 = s1 + 0x1998\n 20816: u64 [a2 + 480] = 0\n 20820: u64 [a2 + 472] = 0\n 20824: u64 [a2 + 456] = 0x1a\n 20829: a1 = s1 + 0x1b60\n 20833: u64 [a2 + 464] = 0\n 20837: ra = 888, jump @19\n      : @866 [@dyn 444] (gas: 1)\n 20843: t0 = 890, jump @1593\n      : @867 [@dyn 445] (gas: 1)\n 20849: jump @869 if a0 != 0\n      : @868 (gas: 1)\n 20852: jump @1111\n      : @869 (gas: 14)\n 20855: i32 a0 = a3 + 0x44\n 20858: a1 = u64 [0x200f8]\n 20863: a2 = u64 [0x20100]\n 20868: a3 = u64 [0x20108]\n 20873: a4 = s1 + 0x1998\n 20877: a5 = a4 + 0x100\n 20881: u64 [a5 + 0xc0] = a1\n 20885: u64 [a5 + 0xb8] = a2\n 20889: u64 [a5 + 0xb0] = a3\n 20893: a2 = 0x6c65000000000000\n 20903: a1 = s1 + 0x1b40\n 20907: u64 [a5 + 0xa8] = a2\n 20911: ra = 0x3ba\n 20915: jump @19\n      : @870 (gas: 9)\n 20918: a3 = s1 + 0x100\n 20922: a0 = u64 [a3 + 0xd0]\n 20926: a1 = u64 [a3 + 0xc0]\n 20930: a0 = a0 | a1\n 20933: a1 = u64 [a3 + 0xc8]\n 20937: a2 = u64 [a3 + 0xb8]\n 20941: a1 = a1 | a2\n 20944: a0 = a0 | a1\n 20947: jump @935 if a0 != 0\n      : @871 (gas: 4)\n 20951: a0 = s1 + 0x7ff\n 20955: a0 = a0 + 0xa1\n 20959: a1 = 0x40\n 20962: ra = 892, jump @17\n      : @872 [@dyn 446] (gas: 9)\n 20968: a0 = s1 + 0x1000\n 20972: a4 = u64 [a0 + 0xfffffffffffff8b8]\n 20976: a0 = s1 + 0x1000\n 20980: a5 = u64 [a0 + 0xfffffffffffff8b0]\n 20984: a0 = s1 + 0x1000\n 20988: a3 = u64 [a0 + 0xfffffffffffff8a8]\n 20992: a0 = s1 + 0x1000\n 20996: a0 = u64 [a0 + 0xfffffffffffff8a0]\n 21000: t0 = 894, jump @1630\n      : @873 [@dyn 447] (gas: 1)\n 21006: jump @875 if a1 == 0\n      : @874 (gas: 1)\n 21009: jump @1111\n      : @875 (gas: 12)\n 21012: a1 = s1 + 0x1000\n 21016: u64 [a1 + 4294965392] = 0\n 21020: a1 = s1 + 0x1000\n 21024: u64 [a1 + 4294965384] = 0\n 21028: a1 = s1 + 0x1000\n 21032: u64 [a1 + 4294965376] = 0\n 21036: a2 = 0x8c379a000000000\n 21046: a1 = s1 + 0x7ff\n 21050: a1 = a1 + 0x81\n 21054: t0 = s1 + 0x1000\n 21058: u64 [t0 + 0xfffffffffffff898] = a2\n 21062: t0 = 896, jump @1643\n      : @876 [@dyn 448] (gas: 1)\n 21068: ra = 898, jump @19\n      : @877 [@dyn 449] (gas: 6)\n 21074: a5 = s1 + 0x200\n 21078: a1 = u64 [a5 + 0x18]\n 21081: a0 = u64 [a5 + 0x8]\n 21084: a3 = u64 [a5]\n 21086: a3 = a3 | a0\n 21089: t0 = 900, jump @1591\n      : @878 [@dyn 450] (gas: 1)\n 21095: jump @880 if a0 != 0\n      : @879 (gas: 1)\n 21098: jump @1111\n      : @880 (gas: 14)\n 21101: i32 a0 = a1 + 0x4\n 21104: a1 = s1 + 0x1000\n 21108: u64 [a1 + 4294965368] = 0\n 21112: a1 = s1 + 0x1000\n 21116: u64 [a1 + 4294965360] = 0\n 21120: a2 = s1 + 0x1000\n 21124: u64 [a2 + 4294965344] = 0x20\n 21129: a1 = s1 + 0x7ff\n 21133: a1 = a1 + 0x61\n 21136: a2 = s1 + 0x1000\n 21140: u64 [a2 + 4294965352] = 0\n 21144: u64 [s1 + 0x208] = a3\n 21148: u64 [s1 + 0x200] = a4\n 21152: ra = 902, jump @19\n      : @881 [@dyn 451] (gas: 1)\n 21158: t0 = 904, jump @1592\n      : @882 [@dyn 452] (gas: 1)\n 21164: jump @884 if a0 != 0\n      : @883 (gas: 1)\n 21167: jump @1111\n      : @884 (gas: 12)\n 21170: i32 a0 = a1 + 0x24\n 21173: a1 = s1 + 0x1000\n 21177: u64 [a1 + 4294965336] = 0\n 21181: a1 = s1 + 0x1000\n 21185: u64 [a1 + 4294965328] = 0\n 21189: a2 = s1 + 0x1000\n 21193: u64 [a2 + 4294965312] = 0x19\n 21198: a1 = s1 + 0x7ff\n 21202: a1 = a1 + 0x41\n 21205: a2 = s1 + 0x1000\n 21209: u64 [a2 + 4294965320] = 0\n 21213: ra = 906, jump @19\n      : @885 [@dyn 453] (gas: 1)\n 21219: t0 = 908, jump @1601\n      : @886 [@dyn 454] (gas: 1)\n 21225: jump @888 if a0 != 0\n      : @887 (gas: 1)\n 21228: jump @1111\n      : @888 (gas: 17)\n 21231: i32 a0 = a2 + 0x44\n 21234: a1 = u64 [0x20178]\n 21239: a2 = u64 [0x20180]\n 21244: a3 = u64 [0x20188]\n 21249: a4 = s1 + 0x1000\n 21253: u64 [a4 + 0xfffffffffffff838] = a1\n 21257: a1 = s1 + 0x1000\n 21261: u64 [a1 + 0xfffffffffffff830] = a2\n 21265: a1 = s1 + 0x1000\n 21269: u64 [a1 + 0xfffffffffffff828] = a3\n 21273: a2 = 0x6500000000000000\n 21283: a1 = s1 + 0x7ff\n 21287: a1 = a1 + 0x21\n 21290: a3 = s1 + 0x1000\n 21294: u64 [a3 + 0xfffffffffffff820] = a2\n 21298: ra = 0x3ba\n 21302: jump @19\n      : @889 (gas: 12)\n 21305: a0 = s1 + 0x3998\n 21309: u64 [a0 + 1600] = 0\n 21313: u64 [a0 + 1592] = 0\n 21317: u64 [a0 + 1584] = 0\n 21321: u64 [a0 + 1576] = 0\n 21325: a1 = s1 + 0x3fc0\n 21329: a0 = u64 [s1 + 0x218]\n 21333: u64 [s1 + 0x218] = a2\n 21337: u64 [s1 + 0x210] = a3\n 21341: u64 [s1 + 0x208] = a4\n 21345: u64 [s1 + 0x200] = a5\n 21349: ra = 910, jump @23\n      : @890 [@dyn 455] (gas: 14)\n 21355: a1 = u64 [s1 + 0x1a0]\n 21359: a0 = a1 & 0xffffffffffff00ff\n 21364: a1 = s1 + 0x3998\n 21368: a2 = u64 [s1 + 0x188]\n 21372: a3 = a1 + 0x600\n 21376: u64 [a3 + 0x60] = a2\n 21379: a2 = u64 [s1 + 0x190]\n 21383: u64 [a3 + 0x58] = a2\n 21386: a2 = u64 [s1 + 0x198]\n 21390: u64 [a3 + 0x50] = a2\n 21393: u64 [a3 + 0x48] = a0\n 21396: a1 = s1 + 0x3fe0\n 21400: a0 = u64 [s1 + 0x1a8]\n 21404: ra = 912, jump @23\n      : @891 [@dyn 456] (gas: 58)\n 21410: ecalli 9 // 'ref_time_left'\n 21412: a1 = u64 [s1 + 0x1f8]\n 21416: a2 = reverse a1\n 21418: a1 = a2 << 0x20\n 21421: a3 = u64 [s1 + 0x1f0]\n 21425: a3 = reverse a3\n 21427: a3 = a3 >> 0x20\n 21430: a3 = a3 | a1\n 21433: a1 = u64 [s1 + 0x1e8]\n 21437: a4 = reverse a1\n 21439: a1 = 0x30220\n 21444: a5 = a4 << 0x20\n 21447: a2 = a2 >> 0x20\n 21450: a2 = a2 | a5\n 21453: u64 [0x30228] = a2\n 21458: u64 [0x30220] = a3\n 21463: a4 = a4 >> 0x20\n 21466: u32 [0x30230] = a4\n 21471: a0 = a0 >u 0x8fc\n 21475: a2 = -a0\n 21477: a3 = s1 + 0x3998\n 21481: a4 = a3 + 0x600\n 21485: u64 [a4 + 0xc0] = a2\n 21489: u64 [a4 + 0xb8] = a2\n 21493: u64 [a4 + 0xb0] = a2\n 21497: u64 [a4 + 0xa8] = a2\n 21501: a5 = s1 + 0x200\n 21505: a2 = u64 [a5 + 0x18]\n 21508: u64 [a4 + 0x80] = a2\n 21512: a2 = u64 [a5 + 0x10]\n 21515: u64 [a4 + 0x78] = a2\n 21518: a2 = u64 [a5 + 0x8]\n 21521: u64 [a4 + 0x70] = a2\n 21524: a2 = u64 [a5]\n 21526: u64 [a4 + 0x68] = a2\n 21529: u32 [a3 + 1672] = 0\n 21533: a1 = a1 << 0x20\n 21536: a1 = a1 >> 0x20\n 21539: a0 = a0 << 0x23\n 21542: a0 = a0 | a1\n 21545: a1 = s1 + 0x4000\n 21549: a1 = a1 << 0x20\n 21552: a1 = a1 >> 0x20\n 21555: a2 = s1 + 0x4040\n 21559: a2 = a2 << 0x20\n 21562: a3 = a2 | a1\n 21565: a4 = u64 [s1 + 0x1d8]\n 21569: a4 = a4 << 0x20\n 21572: a4 = a4 >> 0x20\n 21575: a1 = s1 + 0x4020\n 21579: a1 = a1 << 0x20\n 21582: a5 = a1 | a4\n 21585: a1 = 0xffffffffffffffff\n 21588: a2 = 0xffffffffffffffff\n 21591: ecalli 0 // 'call'\n 21592: u64 [s1 + 0x1d8] = a0\n 21596: a0 = s1 + 0x2e40\n 21600: ra = 914, jump @1492\n      : @892 [@dyn 457] (gas: 3)\n 21606: a0 = s1 + 0x2e20\n 21610: a1 = 0x40\n 21613: ra = 916, jump @17\n      : @893 [@dyn 458] (gas: 8)\n 21619: a2 = s1 + 0x2998\n 21623: a0 = a2 + 0x400\n 21627: a3 = u64 [a0 + 0xa0]\n 21631: a5 = u64 [a0 + 0x98]\n 21635: a4 = u64 [a0 + 0x90]\n 21639: t0 = u64 [a2 + 0x488]\n 21643: a0 = u64 [s1 + 0x1d8]\n 21647: jump @895 if a0 == 0\n      : @894 (gas: 1)\n 21650: jump @1038\n      : @895 (gas: 8)\n 21653: a0 = t0 | a5\n 21656: a1 = a4 | a3\n 21659: a0 = a0 | a1\n 21662: a0 = a0 >> 0x20\n 21665: a1 = a1 | a5\n 21668: a1 = a1 << 0x20\n 21671: a0 = a0 | a1\n 21674: jump @897 if a0 == 0\n      : @896 (gas: 1)\n 21677: jump @1111\n      : @897 (gas: 14)\n 21680: a3 = s1 + 0x200\n 21684: a0 = u64 [a3]\n 21686: a1 = a2 + 0x300\n 21690: u64 [a1 + 0xe8] = a0\n 21694: a0 = u64 [a3 + 0x8]\n 21697: u64 [a1 + 0xf0] = a0\n 21701: a0 = u64 [a3 + 0x10]\n 21704: u64 [a1 + 0xf8] = a0\n 21708: a1 = s1 + 0x2d80\n 21712: a0 = u64 [a3 + 0x18]\n 21715: u64 [a2 + 0x400] = a0\n 21719: a0 = t0\n 21721: u64 [s1 + 0x1a8] = t0\n 21725: ra = 918, jump @19\n      : @898 [@dyn 459] (gas: 33)\n 21731: a0 = u64 [s1 + 0x1e0]\n 21735: a4 = s1 + 0x2998\n 21739: a5 = a4 + 0x300\n 21743: u64 [a5 + 0xa0] = a0\n 21747: a0 = u64 [s1 + 0x1f0]\n 21751: u64 [a5 + 0x98] = a0\n 21755: a0 = u64 [s1 + 0x1f8]\n 21759: u64 [a5 + 0x90] = a0\n 21763: a0 = u64 [s1 + 0x1e8]\n 21767: u64 [a5 + 0x88] = a0\n 21771: a0 = u64 [s1 + 0x1b8]\n 21775: u64 [a5 + 0xc0] = a0\n 21779: a0 = u64 [s1 + 0x1c0]\n 21783: u64 [a5 + 0xb8] = a0\n 21787: a0 = u64 [s1 + 0x1c8]\n 21791: u64 [a5 + 0xb0] = a0\n 21795: a0 = u64 [0x20020]\n 21800: a1 = u64 [0x20028]\n 21805: a2 = u64 [0x20030]\n 21810: a3 = u64 [s1 + 0x1d0]\n 21814: u64 [a5 + 0xa8] = a3\n 21818: u64 [a5 + 0xe0] = a0\n 21822: u64 [a5 + 0xd8] = a1\n 21826: u64 [a5 + 0xd0] = a2\n 21830: a5 = a4\n 21832: a0 = u64 [0x20038]\n 21837: a1 = 0x20\n 21840: a2 = s1 + 0x2d60\n 21844: a3 = s1 + 0x2d40\n 21848: a4 = s1 + 0x2d20\n 21852: u64 [a5 + 0x3c8] = a0\n 21856: a0 = u64 [s1 + 0x1a8]\n 21860: ra = 920, jump @26\n      : @899 [@dyn 460] (gas: 1)\n 21866: jump @1307\n      : @900 (gas: 3)\n 21869: a0 = s1 + 0x2480\n 21873: a1 = 0x40\n 21876: ra = 922, jump @17\n      : @901 [@dyn 461] (gas: 14)\n 21882: a3 = s1 + 0x2198\n 21886: t0 = u64 [a3 + 0x300]\n 21890: a1 = a3 + 0x200\n 21894: a5 = u64 [a1 + 0xf8]\n 21898: a4 = u64 [a1 + 0xf0]\n 21902: a0 = u64 [a1 + 0xe8]\n 21906: a2 = a4 | t0\n 21909: a1 = a0 | a5\n 21912: a1 = a1 | a2\n 21915: a1 = a1 >> 0x20\n 21918: a2 = a2 | a5\n 21921: a2 = a2 << 0x20\n 21924: a1 = a1 | a2\n 21927: jump @903 if a1 == 0\n      : @902 (gas: 1)\n 21930: jump @1111\n      : @903 (gas: 12)\n 21933: a2 = a3\n 21935: u64 [a3 + 728] = 0\n 21939: u64 [a3 + 720] = 0\n 21943: u64 [a3 + 712] = 0\n 21947: a3 = 0x8c379a000000000\n 21957: a1 = s1 + 0x2460\n 21961: u64 [a2 + 0x2e0] = a3\n 21965: u64 [s1 + 0x218] = a0\n 21969: u64 [s1 + 0x210] = a4\n 21973: u64 [s1 + 0x200] = t0\n 21977: u64 [s1 + 0x208] = a5\n 21981: ra = 924, jump @19\n      : @904 [@dyn 462] (gas: 1)\n 21987: t0 = 926, jump @1589\n      : @905 [@dyn 463] (gas: 1)\n 21993: jump @907 if a0 != 0\n      : @906 (gas: 1)\n 21996: jump @1111\n      : @907 (gas: 1)\n 21999: t0 = 928, jump @1618\n      : @908 [@dyn 464] (gas: 8)\n 22005: u64 [a2 + 704] = 0\n 22009: u64 [a2 + 696] = 0\n 22013: u64 [a2 + 680] = 0x20\n 22018: a1 = s1 + 0x2440\n 22022: u64 [a2 + 688] = 0\n 22026: u64 [s1 + 0x208] = a3\n 22030: u64 [s1 + 0x200] = a4\n 22034: ra = 930, jump @19\n      : @909 [@dyn 465] (gas: 1)\n 22040: t0 = 932, jump @1632\n      : @910 [@dyn 466] (gas: 1)\n 22046: jump @912 if a0 != 0\n      : @911 (gas: 1)\n 22049: jump @1111\n      : @912 (gas: 8)\n 22052: i32 a0 = a1 + 0x24\n 22055: a2 = s1 + 0x2198\n 22059: u64 [a2 + 672] = 0\n 22063: u64 [a2 + 664] = 0\n 22067: u64 [a2 + 648] = 0x1f\n 22072: a1 = s1 + 0x2420\n 22076: u64 [a2 + 656] = 0\n 22080: ra = 934, jump @19\n      : @913 [@dyn 467] (gas: 1)\n 22086: t0 = 936, jump @1593\n      : @914 [@dyn 468] (gas: 1)\n 22092: jump @916 if a0 != 0\n      : @915 (gas: 1)\n 22095: jump @1111\n      : @916 (gas: 14)\n 22098: i32 a0 = a3 + 0x44\n 22101: a1 = u64 [0x20098]\n 22106: a4 = s1 + 0x2198\n 22110: a5 = a4 + 0x200\n 22114: u64 [a5 + 0x80] = a1\n 22118: a1 = u64 [0x200a0]\n 22123: a2 = u64 [0x200a8]\n 22128: a3 = u64 [0x20088]\n 22133: u64 [a5 + 0x78] = a1\n 22136: u64 [a5 + 0x70] = a2\n 22139: a1 = s1 + 0x2400\n 22143: u64 [a5 + 0x68] = a3\n 22146: ra = 0x3ba\n 22150: jump @19\n      : @917 (gas: 3)\n 22153: a0 = s1 + 0x1ae0\n 22157: a1 = 0x40\n 22160: ra = 938, jump @17\n      : @918 [@dyn 469] (gas: 14)\n 22166: a2 = s1 + 0x1998\n 22170: t0 = u64 [a2 + 0x160]\n 22174: a1 = a2 + 0x100\n 22178: a5 = u64 [a1 + 0x58]\n 22181: a4 = u64 [a1 + 0x50]\n 22184: a0 = u64 [a1 + 0x48]\n 22187: a3 = a4 | t0\n 22190: a1 = a0 | a5\n 22193: a1 = a1 | a3\n 22196: a1 = a1 >> 0x20\n 22199: a3 = a3 | a5\n 22202: a3 = a3 << 0x20\n 22205: a1 = a1 | a3\n 22208: jump @920 if a1 == 0\n      : @919 (gas: 1)\n 22211: jump @1111\n      : @920 (gas: 11)\n 22214: u64 [a2 + 312] = 0\n 22218: u64 [a2 + 304] = 0\n 22222: u64 [a2 + 296] = 0\n 22226: a3 = 0x8c379a000000000\n 22236: a1 = s1 + 0x1ac0\n 22240: u64 [a2 + 0x140] = a3\n 22244: u64 [s1 + 0x218] = a0\n 22248: u64 [s1 + 0x210] = a4\n 22252: u64 [s1 + 0x200] = t0\n 22256: u64 [s1 + 0x208] = a5\n 22260: ra = 940, jump @19\n      : @921 [@dyn 470] (gas: 1)\n 22266: t0 = 942, jump @1589\n      : @922 [@dyn 471] (gas: 1)\n 22272: jump @924 if a0 != 0\n      : @923 (gas: 1)\n 22275: jump @1111\n      : @924 (gas: 1)\n 22278: t0 = 944, jump @1658\n      : @925 [@dyn 472] (gas: 8)\n 22284: u64 [a2 + 288] = 0\n 22288: u64 [a2 + 280] = 0\n 22292: u64 [a2 + 264] = 0x20\n 22297: a1 = s1 + 0x1aa0\n 22301: u64 [a2 + 272] = 0\n 22305: u64 [s1 + 0x208] = a3\n 22309: u64 [s1 + 0x200] = a4\n 22313: ra = 946, jump @19\n      : @926 [@dyn 473] (gas: 1)\n 22319: t0 = 948, jump @1592\n      : @927 [@dyn 474] (gas: 1)\n 22325: jump @929 if a0 != 0\n      : @928 (gas: 1)\n 22328: jump @1111\n      : @929 (gas: 8)\n 22331: i32 a0 = a1 + 0x24\n 22334: a3 = s1 + 0x1998\n 22338: u64 [a3 + 256] = 0\n 22342: u64 [a3 + 248] = 0\n 22346: u64 [a3 + 232] = 0xe\n 22351: a1 = s1 + 0x1a80\n 22355: u64 [a3 + 240] = 0\n 22359: ra = 950, jump @19\n      : @930 [@dyn 475] (gas: 1)\n 22365: t0 = 952, jump @1593\n      : @931 [@dyn 476] (gas: 1)\n 22371: jump @933 if a0 != 0\n      : @932 (gas: 1)\n 22374: jump @1111\n      : @933 (gas: 10)\n 22377: i32 a0 = a3 + 0x44\n 22380: a1 = u64 [0x20110]\n 22385: a2 = u64 [0x20118]\n 22390: a4 = s1 + 0x1998\n 22394: u64 [a4 + 0xe0] = a1\n 22398: u64 [a4 + 208] = 0\n 22402: u64 [a4 + 0xd8] = a2\n 22406: a1 = s1 + 0x1a60\n 22410: u64 [a4 + 200] = 0\n 22414: ra = 954, jump @19\n      : @934 [@dyn 477] (gas: 4)\n 22420: a1 = 0x64\n 22423: a0 = u64 [s1 + 0x218]\n 22427: ra = 0x43e\n 22431: jump @29\n      : @935 (gas: 8)\n 22434: a1 = s1 + 0x3198\n 22438: u64 [a1 + 1152] = 0\n 22442: u64 [a1 + 1144] = 0\n 22446: u64 [a1 + 1136] = 0\n 22450: u64 [a1 + 1128] = 0x1\n 22455: a0 = s1 + 0x1580\n 22459: a1 = s1 + 0x3600\n 22463: ra = 956, jump @21\n      : @936 [@dyn 478] (gas: 17)\n 22469: a4 = s1 + 0x1198\n 22473: a0 = u64 [a4 + 0x400]\n 22477: a5 = a4 + 0x300\n 22481: a1 = u64 [a5 + 0xf8]\n 22485: a2 = u64 [a5 + 0xf0]\n 22489: a3 = u64 [a5 + 0xe8]\n 22493: u64 [s1 + 0x100] = a0\n 22497: u64 [a5 + 0xc0] = a0\n 22501: u64 [s1 + 0xf8] = a1\n 22505: u64 [a5 + 0xb8] = a1\n 22509: u64 [s1 + 0xf0] = a2\n 22513: u64 [a5 + 0xb0] = a2\n 22517: a0 = s1 + 0x1560\n 22521: a1 = s1 + 0x1540\n 22525: u64 [s1 + 0xe8] = a3\n 22529: u64 [a5 + 0xa8] = a3\n 22533: ra = 958, jump @1419\n      : @937 [@dyn 479] (gas: 19)\n 22539: a3 = s1 + 0x1198\n 22543: a4 = a3 + 0x300\n 22547: a0 = u64 [a4 + 0xc8]\n 22551: a1 = u64 [a4 + 0xd0]\n 22555: a2 = u64 [a4 + 0xd8]\n 22559: a3 = u64 [a4 + 0xe0]\n 22563: a4 = s1 + 0x3198\n 22567: u64 [a4 + 1184] = 0\n 22571: u64 [a4 + 1176] = 0\n 22575: u64 [a4 + 1168] = 0\n 22579: u64 [a4 + 1160] = 0x1\n 22584: a5 = a4 + 0x400\n 22588: u64 [a5 + 0xc0] = a3\n 22592: u64 [a5 + 0xb8] = a2\n 22596: u64 [a5 + 0xb0] = a1\n 22600: u64 [a5 + 0xa8] = a0\n 22604: a0 = s1 + 0x3620\n 22608: a1 = s1 + 0x3640\n 22612: ra = 960, jump @23\n      : @938 [@dyn 480] (gas: 28)\n 22618: a0 = 0xe10\n 22622: a1 = u64 [s1 + 0x1d0]\n 22626: a1 = a1 mulhu a0\n 22629: a3 = u64 [s1 + 0x1b8]\n 22633: a2 = a3 * a0\n 22636: a1 = a1 + a2\n 22639: u64 [s1 + 0x190] = a1\n 22643: a1 = a1 <u a2\n 22646: a2 = a3 mulhu a0\n 22649: a1 = a1 + a2\n 22652: a3 = u64 [s1 + 0x1c0]\n 22656: a2 = a3 * a0\n 22659: a2 = a2 + a1\n 22662: u64 [s1 + 0x1b8] = a2\n 22666: a1 = a2 <u a1\n 22669: a2 = a3 mulhu a0\n 22672: a4 = u64 [s1 + 0x1c8]\n 22676: a3 = a4 * a0\n 22679: a3 = a3 + a2\n 22682: a5 = a3 + a1\n 22685: u64 [s1 + 0x1c0] = a5\n 22689: a1 = 0 if a5 != 0\n 22691: a2 = a3 <u a2\n 22694: a3 = a4 mulhu a0\n 22697: a3 = a3 >u 0\n 22699: a2 = a2 | a3\n 22702: a1 = a1 | a2\n 22705: jump @940 if a1 == 0\n      : @939 (gas: 1)\n 22708: jump @1310\n      : @940 (gas: 30)\n 22711: a1 = u64 [s1 + 0x1d0]\n 22715: a0 = a1 * 0xe10\n 22719: u64 [s1 + 0x1d0] = a0\n 22723: a0 = s1 + 0x3000\n 22727: i32 a0 = a0 + 0x660\n 22731: ecalli 8 // 'now'\n 22733: a2 = s1 + 0x3198\n 22737: a4 = a2 + 0x400\n 22741: a3 = u64 [a4 + 0xc8]\n 22745: a0 = u64 [a4 + 0xd0]\n 22749: a1 = u64 [a4 + 0xd8]\n 22753: a2 = u64 [a4 + 0xe0]\n 22757: a4 = s1 + 0x1198\n 22761: a5 = u64 [s1 + 0x1c0]\n 22765: u64 [a4 + 0x360] = a5\n 22769: a5 = u64 [s1 + 0x1b8]\n 22773: u64 [a4 + 0x358] = a5\n 22777: a5 = u64 [s1 + 0x190]\n 22781: u64 [a4 + 0x350] = a5\n 22785: a5 = u64 [s1 + 0x1d0]\n 22789: u64 [a4 + 0x348] = a5\n 22793: a5 = a4 + 0x300\n 22797: u64 [a5 + 0x80] = a2\n 22801: u64 [a5 + 0x78] = a1\n 22804: u64 [a5 + 0x70] = a0\n 22807: a0 = s1 + 0x1520\n 22811: a1 = s1 + 0x1500\n 22815: a2 = s1 + 0x14e0\n 22819: u64 [a5 + 0x68] = a3\n 22822: ra = 962, jump @1427\n      : @941 [@dyn 481] (gas: 12)\n 22828: a1 = s1 + 0x1198\n 22832: a2 = a1 + 0x300\n 22836: a0 = u64 [a2 + 0xa0]\n 22840: u64 [s1 + 0xc8] = a0\n 22844: a0 = u64 [a2 + 0x98]\n 22848: u64 [s1 + 0xd0] = a0\n 22852: a0 = u64 [a2 + 0x90]\n 22856: u64 [s1 + 0xd8] = a0\n 22860: a0 = u64 [a2 + 0x88]\n 22864: u64 [s1 + 0xe0] = a0\n 22868: a0 = s1 + 0x14c0\n 22872: ra = 964, jump @1508\n      : @942 [@dyn 482] (gas: 13)\n 22878: a1 = s1 + 0x1198\n 22882: a2 = a1 + 0x300\n 22886: a0 = u64 [a2 + 0x40]\n 22889: u64 [s1 + 0x180] = a0\n 22893: a0 = u64 [a2 + 0x38]\n 22896: u64 [s1 + 0x178] = a0\n 22900: a0 = u64 [a2 + 0x30]\n 22903: u64 [s1 + 0x170] = a0\n 22907: a0 = u64 [a2 + 0x28]\n 22910: u64 [s1 + 0x118] = a0\n 22914: a0 = s1 + 0x14a0\n 22918: a1 = 0x40\n 22921: ra = 966, jump @17\n      : @943 [@dyn 483] (gas: 21)\n 22927: a1 = s1 + 0x1198\n 22931: a3 = u64 [a1 + 0x320]\n 22935: u64 [s1 + 0x1d0] = a3\n 22939: a2 = u64 [a1 + 0x318]\n 22943: u64 [s1 + 0x1c8] = a2\n 22947: a4 = u64 [a1 + 0x310]\n 22951: u64 [s1 + 0x1c0] = a4\n 22955: a5 = u64 [a1 + 0x308]\n 22959: u64 [s1 + 0x1b8] = a5\n 22963: u64 [a1 + 736] = 0\n 22967: u64 [a1 + 728] = 0\n 22971: u64 [a1 + 720] = 0\n 22975: u64 [a1 + 712] = 0x20\n 22980: u64 [a1 + 0x300] = a3\n 22984: u64 [a1 + 0x2f8] = a2\n 22988: u64 [a1 + 0x2f0] = a4\n 22992: a2 = a1\n 22994: a0 = s1 + 0x1480\n 22998: a1 = s1 + 0x1460\n 23002: u64 [a2 + 0x2e8] = a5\n 23006: ra = 968, jump @1362\n      : @944 [@dyn 484] (gas: 7)\n 23012: a4 = s1 + 0x100\n 23016: a0 = u64 [a4 + 0xb8]\n 23020: a1 = u64 [a4 + 0xd0]\n 23024: a2 = u64 [a4 + 0xc0]\n 23028: a2 = a2 | a1\n 23031: a3 = u64 [a4 + 0xc8]\n 23035: t0 = 970, jump @1623\n      : @945 [@dyn 485] (gas: 1)\n 23041: jump @947 if a1 == 0\n      : @946 (gas: 1)\n 23044: jump @1111\n      : @947 (gas: 7)\n 23047: a2 = s1 + 0x1198\n 23051: u64 [a2 + 704] = 0\n 23055: u64 [a2 + 696] = 0\n 23059: u64 [a2 + 688] = 0\n 23063: a1 = s1 + 0x1440\n 23067: u64 [a2 + 680] = 0\n 23071: ra = 972, jump @19\n      : @948 [@dyn 486] (gas: 10)\n 23077: a0 = u64 [s1 + 0x218]\n 23081: a2 = i32 [a0]\n 23083: a0 = 0x20220\n 23088: i32 a0 = a0 + 0\n 23090: u64 [s1 + 0xb8] = a0\n 23094: a1 = 0\n 23096: ecalli 1 // 'call_data_copy'\n 23098: a0 = s1 + 0x1420\n 23102: a1 = 0x40\n 23105: ra = 974, jump @17\n      : @949 [@dyn 487] (gas: 17)\n 23111: a5 = s1 + 0x1198\n 23115: t0 = u64 [a5 + 0x2a0]\n 23119: a4 = u64 [a5 + 0x298]\n 23123: a3 = u64 [a5 + 0x290]\n 23127: t1 = u64 [a5 + 0x288]\n 23131: a0 = t0 >u 0\n 23133: a1 = a4 >u 0\n 23135: a1 = a0 if t0 != 0\n 23138: a0 = a3 >u 0\n 23140: a2 = t1 <u 0xfffffffffffffe80\n 23144: a2 = a2 ^ 0x1\n 23147: u64 [s1 + 0x190] = a3\n 23151: a2 = a0 if a3 != 0\n 23154: a0 = a4 | t0\n 23157: u64 [s1 + 0xc0] = a0\n 23161: a2 = a1 if a0 != 0\n 23164: jump @951 if a2 == 0\n      : @950 (gas: 1)\n 23167: jump @1316\n      : @951 (gas: 21)\n 23170: t2 = a5\n 23172: a0 = t1 + 0x180\n 23176: a1 = a0 <u t1\n 23179: a2 = u64 [s1 + 0x190]\n 23183: a5 = a2 + a1\n 23186: a3 = a5 <u a2\n 23189: a3 = a1 if a1 == 0\n 23192: a3 = a3 + a4\n 23195: a1 = a3 <u a4\n 23198: u64 [s1 + 0x108] = a4\n 23202: u64 [s1 + 0x110] = t0\n 23206: t0 = t0 + a1\n 23209: a1 = t2 + 0x200\n 23213: u64 [a1 + 0x68] = a0\n 23216: u64 [a1 + 0x70] = a5\n 23219: u64 [a1 + 0x78] = a3\n 23222: a0 = 0x40\n 23225: a1 = s1 + 0x1400\n 23229: u64 [t2 + 0x280] = t0\n 23233: u64 [s1 + 0x188] = t1\n 23237: ra = 976, jump @19\n      : @952 [@dyn 488] (gas: 13)\n 23243: a5 = s1 + 0x100\n 23247: a2 = u64 [a5 + 0x88]\n 23251: a3 = u64 [a5 + 0x8]\n 23254: a0 = a2 | a3\n 23257: a1 = u64 [a5 + 0x90]\n 23261: a4 = u64 [a5 + 0x10]\n 23264: a1 = a1 | a4\n 23267: a0 = a0 | a1\n 23270: a0 = a0 >> 0x20\n 23273: a1 = a1 | a3\n 23276: a1 = a1 << 0x20\n 23279: a0 = a0 | a1\n 23282: jump @954 if a0 == 0\n      : @953 (gas: 1)\n 23285: jump @1111\n      : @954 (gas: 13)\n 23288: a0 = u64 [s1 + 0xe8]\n 23292: a3 = s1 + 0x1198\n 23296: a4 = a3 + 0x200\n 23300: u64 [a4 + 0x48] = a0\n 23303: a0 = u64 [s1 + 0xf0]\n 23307: u64 [a4 + 0x50] = a0\n 23310: a0 = u64 [s1 + 0xf8]\n 23314: u64 [a4 + 0x58] = a0\n 23317: a1 = s1 + 0x13e0\n 23321: a0 = u64 [s1 + 0x100]\n 23325: u64 [a4 + 0x60] = a0\n 23328: a0 = a2\n 23330: ra = 978, jump @19\n      : @955 [@dyn 489] (gas: 9)\n 23336: a1 = u64 [s1 + 0x188]\n 23340: a3 = 0x100000000\n 23350: a0 = 0xffffffe0\n 23360: a0 = a1 <u a0\n 23363: a2 = u64 [s1 + 0x190]\n 23367: a0 = 0 if a2 != 0\n 23369: a2 = u64 [s1 + 0xc0]\n 23373: a0 = 0 if a2 != 0\n 23375: jump @957 if a0 != 0\n      : @956 (gas: 1)\n 23378: jump @1111\n      : @957 (gas: 15)\n 23381: i32 a0 = a1 + 0x20\n 23384: a4 = s1 + 0x1198\n 23388: a1 = u64 [s1 + 0x118]\n 23392: a5 = a4 + 0x200\n 23396: u64 [a5 + 0x28] = a1\n 23399: a1 = u64 [s1 + 0x170]\n 23403: u64 [a5 + 0x30] = a1\n 23406: a1 = u64 [s1 + 0x178]\n 23410: u64 [a5 + 0x38] = a1\n 23413: a1 = s1 + 0x13c0\n 23417: a2 = u64 [s1 + 0x180]\n 23421: u64 [a5 + 0x40] = a2\n 23424: u64 [s1 + 0x178] = a0\n 23428: u64 [s1 + 0x180] = a3\n 23432: ra = 980, jump @19\n      : @958 [@dyn 490] (gas: 30)\n 23438: a0 = u64 [s1 + 0x218]\n 23442: a0 = u32 [a0]\n 23444: a1 = s1 + 0x1198\n 23448: u64 [a1 + 448] = 0\n 23452: u64 [a1 + 440] = 0\n 23456: u64 [a1 + 432] = 0\n 23460: a2 = a1 + 0x100\n 23464: u64 [a2 + 0xa8] = a0\n 23468: a0 = u64 [s1 + 0x1a0]\n 23472: u64 [a2 + 0xe0] = a0\n 23476: a0 = u64 [s1 + 0x1a8]\n 23480: u64 [a2 + 0xd8] = a0\n 23484: a0 = u64 [s1 + 0x198]\n 23488: u64 [a2 + 0xd0] = a0\n 23492: a0 = u64 [s1 + 0x1b0]\n 23496: u64 [a2 + 0xc8] = a0\n 23500: a0 = u64 [s1 + 0x158]\n 23504: u64 [a1 + 0x200] = a0\n 23508: a0 = u64 [s1 + 0x160]\n 23512: u64 [a2 + 0xf8] = a0\n 23516: a0 = u64 [s1 + 0x150]\n 23520: u64 [a2 + 0xf0] = a0\n 23524: a5 = a1\n 23526: a0 = s1 + 0x13a0\n 23530: a1 = s1 + 0x1380\n 23534: a2 = s1 + 0x1360\n 23538: a3 = s1 + 0x1340\n 23542: a4 = u64 [s1 + 0x168]\n 23546: u64 [a5 + 0x1e8] = a4\n 23550: ra = 982, jump @1443\n      : @959 [@dyn 491] (gas: 10)\n 23556: a2 = s1 + 0x100\n 23560: a4 = u64 [a2 + 0x88]\n 23564: a0 = u64 [a2 + 0x80]\n 23568: a0 = a0 + 0xffffffffffffffc0\n 23571: a0 = a4 <u a0\n 23574: a1 = u64 [a2 + 0x90]\n 23578: a0 = 0 if a1 != 0\n 23580: a1 = u64 [s1 + 0xc0]\n 23584: a0 = 0 if a1 != 0\n 23586: jump @961 if a0 != 0\n      : @960 (gas: 1)\n 23589: jump @1111\n      : @961 (gas: 15)\n 23592: a5 = s1 + 0x1198\n 23596: t0 = u64 [a5 + 0x220]\n 23600: a0 = a5 + 0x200\n 23604: a1 = u64 [a0 + 0x18]\n 23607: a2 = u64 [a0 + 0x10]\n 23610: a3 = u64 [a0 + 0x8]\n 23613: i32 a0 = a4 + 0x40\n 23616: a4 = a5 + 0x100\n 23620: u64 [a4 + 0x88] = a3\n 23624: u64 [a4 + 0x90] = a2\n 23628: u64 [a4 + 0x98] = a1\n 23632: a1 = s1 + 0x1320\n 23636: u64 [a5 + 0x1a0] = t0\n 23640: u64 [s1 + 0x180] = a0\n 23644: ra = 984, jump @19\n      : @962 [@dyn 492] (gas: 30)\n 23650: a0 = u64 [s1 + 0x218]\n 23654: a0 = u32 [a0]\n 23656: a1 = s1 + 0x1198\n 23660: u64 [a1 + 288] = 0\n 23664: u64 [a1 + 280] = 0\n 23668: u64 [a1 + 272] = 0\n 23672: a2 = a1 + 0x100\n 23676: u64 [a2 + 0x8] = a0\n 23679: a0 = u64 [s1 + 0x1d8]\n 23683: u64 [a2 + 0x40] = a0\n 23686: a0 = u64 [s1 + 0x1e0]\n 23690: u64 [a2 + 0x38] = a0\n 23693: a0 = u64 [s1 + 0x1e8]\n 23697: u64 [a2 + 0x30] = a0\n 23700: a0 = u64 [s1 + 0x1f0]\n 23704: u64 [a2 + 0x28] = a0\n 23707: a0 = u64 [s1 + 0x1f8]\n 23711: u64 [a2 + 0x60] = a0\n 23714: a0 = u64 [s1 + 0x200]\n 23718: u64 [a2 + 0x58] = a0\n 23721: a0 = u64 [s1 + 0x208]\n 23725: u64 [a2 + 0x50] = a0\n 23728: a5 = a1\n 23730: a0 = s1 + 0x1300\n 23734: a1 = s1 + 0x12e0\n 23738: a2 = s1 + 0x12c0\n 23742: a3 = s1 + 0x12a0\n 23746: a4 = u64 [s1 + 0x210]\n 23750: u64 [a5 + 0x148] = a4\n 23754: ra = 986, jump @1443\n      : @963 [@dyn 493] (gas: 9)\n 23760: a5 = u64 [s1 + 0x188]\n 23764: a2 = 0x100000000\n 23774: a0 = 0xffffffa0\n 23784: a0 = a5 <u a0\n 23787: a1 = u64 [s1 + 0x190]\n 23791: a0 = 0 if a1 != 0\n 23793: a1 = u64 [s1 + 0xc0]\n 23797: a0 = 0 if a1 != 0\n 23799: jump @965 if a0 != 0\n      : @964 (gas: 1)\n 23802: jump @1111\n      : @965 (gas: 15)\n 23805: a4 = s1 + 0x1198\n 23809: t0 = u64 [a4 + 0x180]\n 23813: a0 = a4 + 0x100\n 23817: a1 = u64 [a0 + 0x78]\n 23820: u64 [s1 + 0x218] = a2\n 23824: a2 = u64 [a0 + 0x70]\n 23827: a3 = u64 [a0 + 0x68]\n 23830: i32 a0 = a5 + 0x60\n 23833: u64 [a4 + 0xe8] = a3\n 23837: u64 [a4 + 0xf0] = a2\n 23841: u64 [a4 + 0xf8] = a1\n 23845: a1 = s1 + 0x1280\n 23849: u64 [a4 + 0x100] = t0\n 23853: u64 [s1 + 0x118] = a0\n 23857: ra = 988, jump @19\n      : @966 [@dyn 494] (gas: 9)\n 23863: a1 = u64 [s1 + 0x188]\n 23867: a0 = u64 [s1 + 0x218]\n 23871: a0 = a0 + 0xffffffffffffff80\n 23874: a0 = a1 <u a0\n 23877: a2 = u64 [s1 + 0x190]\n 23881: a0 = 0 if a2 != 0\n 23883: a2 = u64 [s1 + 0xc0]\n 23887: a0 = 0 if a2 != 0\n 23889: jump @968 if a0 != 0\n      : @967 (gas: 1)\n 23892: jump @1111\n      : @968 (gas: 14)\n 23895: i32 a2 = a1 + 0x80\n 23899: a0 = u64 [s1 + 0x148]\n 23903: a3 = s1 + 0x1198\n 23907: u64 [a3 + 0xc8] = a0\n 23911: a0 = u64 [s1 + 0x140]\n 23915: u64 [a3 + 0xd0] = a0\n 23919: a0 = u64 [s1 + 0x138]\n 23923: u64 [a3 + 0xd8] = a0\n 23927: a1 = s1 + 0x1260\n 23931: a0 = u64 [s1 + 0x130]\n 23935: u64 [a3 + 0xe0] = a0\n 23939: u64 [s1 + 0x110] = a2\n 23943: a0 = a2\n 23945: ra = 990, jump @19\n      : @969 [@dyn 495] (gas: 5)\n 23951: a0 = s1 + 0x3000\n 23955: i32 a0 = a0 + 0x680\n 23959: a1 = 0x64\n 23962: ecalli 2 // 'call_data_load'\n 23964: fallthrough\n      : @970 (gas: 10)\n 23965: a5 = u64 [s1 + 0x188]\n 23969: a0 = 0x100000000\n 23979: u64 [s1 + 0x218] = a0\n 23983: a0 = 0xffffff60\n 23993: a0 = a5 <u a0\n 23996: a1 = u64 [s1 + 0x190]\n 24000: a0 = 0 if a1 != 0\n 24002: a1 = u64 [s1 + 0xc0]\n 24006: a0 = 0 if a1 != 0\n 24008: jump @972 if a0 != 0\n      : @971 (gas: 1)\n 24011: jump @1111\n      : @972 (gas: 14)\n 24014: a3 = s1 + 0x3198\n 24018: t0 = u64 [a3 + 0x4e8]\n 24022: a1 = u64 [a3 + 0x4f0]\n 24026: a2 = u64 [a3 + 0x4f8]\n 24030: a3 = u64 [a3 + 0x500]\n 24034: i32 a0 = a5 + 0xa0\n 24038: a4 = s1 + 0x1198\n 24042: u64 [a4 + 0xc0] = a3\n 24046: u64 [a4 + 0xb8] = a2\n 24050: u64 [a4 + 0xb0] = a1\n 24054: a1 = s1 + 0x1240\n 24058: u64 [a4 + 0xa8] = t0\n 24062: u64 [s1 + 0x108] = a0\n 24066: ra = 992, jump @19\n      : @973 [@dyn 496] (gas: 3)\n 24072: a0 = u64 [s1 + 0x218]\n 24076: a0 = a0 + 0xffffffffffffff40\n 24080: t0 = 994, jump @1600\n      : @974 [@dyn 497] (gas: 1)\n 24086: jump @976 if a0 != 0\n      : @975 (gas: 1)\n 24089: jump @1111\n      : @976 (gas: 15)\n 24092: a0 = u64 [s1 + 0x188]\n 24096: i32 a3 = a0 + 0xc0\n 24100: a0 = u64 [s1 + 0xe0]\n 24104: a2 = s1 + 0x1198\n 24108: u64 [a2 + 0x88] = a0\n 24112: a0 = u64 [s1 + 0xd8]\n 24116: u64 [a2 + 0x90] = a0\n 24120: a0 = u64 [s1 + 0xd0]\n 24124: u64 [a2 + 0x98] = a0\n 24128: a1 = s1 + 0x1220\n 24132: a0 = u64 [s1 + 0xc8]\n 24136: u64 [a2 + 0xa0] = a0\n 24140: u64 [s1 + 0xb0] = a3\n 24144: a0 = a3\n 24146: ra = 996, jump @19\n      : @977 [@dyn 498] (gas: 4)\n 24152: a0 = 0x100000000\n 24162: u64 [s1 + 0x218] = a0\n 24166: a0 = 0xffffff20\n 24176: t0 = 998, jump @1600\n      : @978 [@dyn 499] (gas: 1)\n 24182: jump @980 if a0 != 0\n      : @979 (gas: 1)\n 24185: jump @1111\n      : @980 (gas: 15)\n 24188: a0 = u64 [s1 + 0x188]\n 24192: i32 a2 = a0 + 0xe0\n 24196: a0 = s1 + 0x1198\n 24200: a1 = u64 [s1 + 0x1b8]\n 24204: u64 [a0 + 0x68] = a1\n 24207: a1 = u64 [s1 + 0x1c0]\n 24211: u64 [a0 + 0x70] = a1\n 24214: a1 = u64 [s1 + 0x1c8]\n 24218: u64 [a0 + 0x78] = a1\n 24221: a1 = s1 + 0x1200\n 24225: a3 = u64 [s1 + 0x1d0]\n 24229: u64 [a0 + 0x80] = a3\n 24233: u64 [s1 + 0xa8] = a2\n 24237: a0 = a2\n 24239: ra = 1000, jump @19\n      : @981 [@dyn 500] (gas: 3)\n 24245: a0 = u64 [s1 + 0x218]\n 24249: a0 = a0 + 0xffffffffffffff00\n 24253: t0 = 1002, jump @1600\n      : @982 [@dyn 501] (gas: 1)\n 24259: jump @984 if a0 != 0\n      : @983 (gas: 1)\n 24262: jump @1111\n      : @984 (gas: 10)\n 24265: a0 = u64 [s1 + 0x188]\n 24269: i32 a0 = a0 + 0x100\n 24273: a2 = s1 + 0x1198\n 24277: u64 [a2 + 96] = 0\n 24280: u64 [a2 + 88] = 0\n 24283: u64 [a2 + 80] = 0\n 24286: a1 = s1 + 0x11e0\n 24290: u64 [a2 + 72] = 0\n 24293: u64 [s1 + 0xa0] = a0\n 24297: ra = 1004, jump @19\n      : @985 [@dyn 502] (gas: 10)\n 24303: a0 = s1 + 0x3198\n 24307: u64 [a0 + 1312] = 0\n 24311: u64 [a0 + 1304] = 0\n 24315: u64 [a0 + 1296] = 0\n 24319: u64 [a0 + 1288] = 0\n 24323: a0 = s1 + 0x3000\n 24327: i32 a0 = a0 + 0x6a0\n 24331: ra = 0x3ee\n 24335: ecalli 15 // 'value_transferred'\n 24337: fallthrough\n      : @986 [@dyn 503] (gas: 4)\n 24338: a0 = 0x100000000\n 24348: u64 [s1 + 0x218] = a0\n 24352: a0 = 0xfffffee0\n 24362: t0 = 1008, jump @1600\n      : @987 [@dyn 504] (gas: 1)\n 24368: jump @989 if a0 != 0\n      : @988 (gas: 1)\n 24371: jump @1111\n      : @989 (gas: 16)\n 24374: a3 = s1 + 0x3198\n 24378: a0 = a3 + 0x500\n 24382: a4 = u64 [a0 + 0x8]\n 24385: a1 = u64 [a0 + 0x10]\n 24388: a2 = u64 [a0 + 0x18]\n 24391: a3 = u64 [a0 + 0x20]\n 24394: a0 = u64 [s1 + 0x188]\n 24398: i32 a0 = a0 + 0x120\n 24402: a5 = s1 + 0x1198\n 24406: u64 [a5 + 0x40] = a3\n 24409: u64 [a5 + 0x38] = a2\n 24412: u64 [a5 + 0x30] = a1\n 24415: a1 = s1 + 0x11c0\n 24419: u64 [a5 + 0x28] = a4\n 24422: u64 [s1 + 0x98] = a0\n 24426: ra = 1010, jump @19\n      : @990 [@dyn 505] (gas: 3)\n 24432: a0 = u64 [s1 + 0x218]\n 24436: a0 = a0 + 0xfffffffffffffec0\n 24440: t0 = 1012, jump @1600\n      : @991 [@dyn 506] (gas: 1)\n 24446: jump @993 if a0 != 0\n      : @992 (gas: 1)\n 24449: jump @1111\n      : @993 (gas: 10)\n 24452: a0 = u64 [s1 + 0x188]\n 24456: i32 a0 = a0 + 0x140\n 24460: a2 = s1 + 0x1198\n 24464: u64 [a2 + 32] = 0\n 24467: u64 [a2 + 24] = 0\n 24470: u64 [a2 + 16] = 0\n 24473: a1 = s1 + 0x11a0\n 24477: u64 [a2 + 8] = 0x1\n 24481: u64 [s1 + 0x70] = a0\n 24484: ra = 1014, jump @19\n      : @994 [@dyn 507] (gas: 2)\n 24490: a0 = 0xfffffea0\n 24500: t0 = 1016, jump @1600\n      : @995 [@dyn 508] (gas: 1)\n 24506: jump @997 if a0 != 0\n      : @996 (gas: 1)\n 24509: jump @1111\n      : @997 (gas: 10)\n 24512: a0 = u64 [s1 + 0x188]\n 24516: i32 a0 = a0 + 0x160\n 24520: a2 = s1 + 0x1198\n 24524: u64 [a2 + 0] = 0\n 24526: u64 [a2 + 4294967288] = 0\n 24529: u64 [a2 + 4294967280] = 0\n 24532: a1 = s1 + 0x1180\n 24536: u64 [a2 + 4294967272] = 0\n 24539: u64 [s1 + 0x50] = a0\n 24542: ra = 1018, jump @19\n      : @998 [@dyn 509] (gas: 14)\n 24548: a0 = u64 [s1 + 0x100]\n 24552: a2 = s1 + 0x7ff\n 24556: a2 = a2 + 0x191\n 24560: a3 = a2 + 0x700\n 24564: u64 [a3 + 0xe8] = a0\n 24568: a0 = u64 [s1 + 0xf8]\n 24572: u64 [a3 + 0xe0] = a0\n 24576: a0 = u64 [s1 + 0xf0]\n 24580: u64 [a3 + 0xd8] = a0\n 24584: a1 = s1 + 0x1160\n 24588: a0 = u64 [s1 + 0xe8]\n 24592: u64 [a3 + 0xd0] = a0\n 24596: a0 = 0\n 24598: ra = 1020, jump @19\n      : @999 [@dyn 510] (gas: 10)\n 24604: a1 = s1 + 0x7ff\n 24608: a1 = a1 + 0x191\n 24612: u64 [a1 + 1992] = 0\n 24616: u64 [a1 + 1984] = 0\n 24620: u64 [a1 + 1968] = 0x2\n 24625: a2 = a1\n 24627: a0 = 0x20\n 24630: a1 = s1 + 0x1140\n 24634: u64 [a2 + 1976] = 0\n 24638: ra = 1022, jump @19\n      : @1000 [@dyn 511] (gas: 8)\n 24644: a0 = sp + 0xffffffffffffffe0\n 24647: a0 = a0 & 0xffffffffffffffe0\n 24650: u64 [s1 + 0x218] = a0\n 24654: sp = a0\n 24656: a0 = 0x2020c\n 24661: u64 [s1 + 0x58] = a0\n 24664: a0 = i32 [0x2020c]\n 24669: jump @1002 if a0 >u 63\n      : @1001 (gas: 3)\n 24673: a1 = u64 [s1 + 0x58]\n 24676: u32 [a1 + 0] = 0x40\n 24679: fallthrough\n      : @1002 (gas: 29)\n 24680: a0 = sp + 0xffffffffffffffe0\n 24683: a0 = a0 & 0xffffffffffffffe0\n 24686: u64 [s1 + 0x210] = a0\n 24690: sp = a0\n 24692: i32 a2 = a0 + 0\n 24694: a1 = 0x40\n 24697: a0 = u64 [s1 + 0xb8]\n 24701: ecalli 7 // 'hash_keccak_256'\n 24703: a3 = u64 [s1 + 0x210]\n 24707: a0 = u64 [a3 + 0x18]\n 24710: a1 = u64 [a3 + 0x10]\n 24713: a2 = u64 [a3 + 0x8]\n 24716: a3 = u64 [a3]\n 24718: a4 = reverse a0\n 24720: u64 [s1 + 0x80] = a4\n 24724: a1 = reverse a1\n 24726: u64 [s1 + 0x88] = a1\n 24730: a2 = reverse a2\n 24732: u64 [s1 + 0xc0] = a2\n 24736: a0 = reverse a3\n 24738: u64 [s1 + 0x90] = a0\n 24742: a3 = u64 [s1 + 0x218]\n 24746: u64 [a3 + 0x18] = a0\n 24749: u64 [a3 + 0x10] = a2\n 24752: u64 [a3 + 0x8] = a1\n 24755: u64 [a3] = a4\n 24757: a0 = s1 + 0x1120\n 24761: a1 = u64 [s1 + 0x188]\n 24765: ra = 1024, jump @17\n      : @1003 [@dyn 512] (gas: 16)\n 24771: a3 = s1 + 0x7ff\n 24775: a3 = a3 + 0x191\n 24779: a4 = a3 + 0x700\n 24783: a0 = u64 [a4 + 0xa8]\n 24787: a1 = u64 [a4 + 0xa0]\n 24791: a2 = u64 [a4 + 0x98]\n 24795: a3 = u64 [a4 + 0x90]\n 24799: a4 = s1 + 0x3198\n 24803: a5 = a4 + 0x500\n 24807: u64 [a5 + 0x40] = a0\n 24810: u64 [a5 + 0x38] = a1\n 24813: u64 [a5 + 0x30] = a2\n 24816: u64 [a5 + 0x28] = a3\n 24819: a1 = s1 + 0x36c0\n 24823: a0 = u64 [s1 + 0x218]\n 24827: ra = 1026, jump @23\n      : @1004 [@dyn 513] (gas: 3)\n 24833: a0 = s1 + 0x1100\n 24837: a1 = u64 [s1 + 0x178]\n 24841: ra = 1028, jump @17\n      : @1005 [@dyn 514] (gas: 32)\n 24847: a0 = s1 + 0x7ff\n 24851: a0 = a0 + 0x191\n 24855: a1 = u64 [a0 + 0x770]\n 24859: u64 [s1 + 0x218] = a1\n 24863: a1 = u64 [a0 + 0x778]\n 24867: u64 [s1 + 0x210] = a1\n 24871: a1 = u32 [a0 + 0x780]\n 24875: u64 [s1 + 0x208] = a1\n 24879: a0 = sp + 0xffffffffffffffe0\n 24882: t0 = a0 & 0xffffffffffffffe0\n 24885: sp = t0\n 24887: a0 = u64 [s1 + 0x80]\n 24891: a0 = a0 + 0x1\n 24894: a1 = a0 <u 0x1\n 24897: a2 = u64 [s1 + 0x88]\n 24901: a5 = a2 + a1\n 24904: a2 = a0 | a5\n 24907: a2 = a2 <u 0x1\n 24910: a3 = u64 [s1 + 0xc0]\n 24914: a2 = a2 + a3\n 24917: a3 = a2 <u a3\n 24920: a4 = u64 [s1 + 0x90]\n 24924: a3 = a3 + a4\n 24927: a1 = t0\n 24929: u64 [s1 + 0x200] = t0\n 24933: a4 = t0\n 24935: u64 [a4 + 0x18] = a3\n 24938: u64 [a4 + 0x10] = a2\n 24941: u64 [a4 + 0x8] = a5\n 24944: u64 [a4] = a0\n 24946: a0 = s1 + 0x10e0\n 24950: ra = 1030, jump @21\n      : @1006 [@dyn 515] (gas: 18)\n 24956: a1 = s1 + 0x7ff\n 24960: a1 = a1 + 0x191\n 24964: a0 = u32 [a1 + 0x764]\n 24968: a0 = a0 << 0x20\n 24971: a1 = u64 [a1 + 0x768]\n 24975: a2 = u64 [s1 + 0x208]\n 24979: a0 = a0 | a2\n 24982: a2 = s1 + 0x3198\n 24986: a3 = u64 [s1 + 0x210]\n 24990: a4 = a2 + 0x500\n 24994: u64 [a4 + 0x50] = a3\n 24997: a3 = u64 [s1 + 0x218]\n 25001: u64 [a4 + 0x48] = a3\n 25004: u64 [a4 + 0x60] = a1\n 25007: u64 [a4 + 0x58] = a0\n 25010: a1 = s1 + 0x36e0\n 25014: a0 = u64 [s1 + 0x200]\n 25018: ra = 1032, jump @23\n      : @1007 [@dyn 516] (gas: 6)\n 25024: a0 = sp + 0xffffffffffffffe0\n 25027: a2 = a0 & 0xffffffffffffffe0\n 25030: sp = a2\n 25032: a0 = u64 [s1 + 0x80]\n 25036: a3 = a0 + 0x2\n 25039: t0 = 1034, jump @1656\n      : @1008 [@dyn 517] (gas: 17)\n 25045: a1 = a1 + a0\n 25048: a0 = a1 <u a0\n 25051: a5 = u64 [s1 + 0x90]\n 25055: a0 = a0 + a5\n 25058: a5 = s1 + 0x200\n 25062: u64 [a5 + 0x8] = a0\n 25065: u64 [a2 + 0x18] = a0\n 25068: u64 [a5] = a1\n 25070: u64 [a2 + 0x10] = a1\n 25073: u64 [a5 + 0x10] = a4\n 25076: u64 [a2 + 0x8] = a4\n 25079: u64 [s1 + 0x60] = a2\n 25082: u64 [a5 + 0x18] = a3\n 25085: u64 [a2] = a3\n 25087: a0 = s1 + 0x10c0\n 25091: a1 = u64 [s1 + 0x180]\n 25095: ra = 1036, jump @17\n      : @1009 [@dyn 518] (gas: 20)\n 25101: a1 = s1 + 0x7ff\n 25105: a1 = a1 + 0x191\n 25109: a4 = a1 + 0x700\n 25113: a2 = u64 [a4 + 0x48]\n 25116: a3 = u64 [a4 + 0x40]\n 25119: a0 = u64 [a4 + 0x38]\n 25122: a1 = u64 [a4 + 0x30]\n 25125: a4 = s1 + 0x100\n 25129: u64 [a4 + 0x88] = a0\n 25133: u64 [a4 + 0x80] = a2\n 25137: a0 = a0 | a2\n 25140: u64 [a4 + 0x90] = a1\n 25144: a1 = a1 | a3\n 25147: a1 = a1 | a0\n 25150: a1 = a1 >> 0x20\n 25153: u64 [a4 + 0x78] = a3\n 25156: a0 = a0 | a3\n 25159: a0 = a0 << 0x20\n 25162: a0 = a0 | a1\n 25165: jump @1011 if a0 == 0\n      : @1010 (gas: 1)\n 25168: jump @1111\n      : @1011 (gas: 3)\n 25171: a0 = s1 + 0x10a0\n 25175: a1 = u64 [s1 + 0x190]\n 25179: ra = 1038, jump @17\n      : @1012 [@dyn 519] (gas: 20)\n 25185: a0 = s1 + 0x7ff\n 25189: a0 = a0 + 0x191\n 25193: a4 = a0 + 0x700\n 25197: a3 = u64 [a4 + 0x28]\n 25200: a1 = u64 [a4 + 0x20]\n 25203: a2 = u64 [a4 + 0x18]\n 25206: a0 = a3 >u 0\n 25208: a4 = a1 >u 0\n 25210: a4 = a0 if a3 != 0\n 25213: a5 = s1 + 0x100\n 25217: u64 [a5 + 0xf8] = a2\n 25221: a0 = a2 >u 0\n 25223: u64 [s1 + 0x68] = a1\n 25226: u64 [a5 + 0xf0] = a3\n 25230: a1 = a1 | a3\n 25233: u64 [a5 + 0xd0] = a0\n 25237: u64 [a5 + 0xd8] = a4\n 25241: u64 [a5 + 0xe8] = a1\n 25245: a0 = a4 if a1 != 0\n 25248: jump @1014 if a0 == 0\n      : @1013 (gas: 1)\n 25251: jump @1321\n      : @1014 (gas: 7)\n 25254: a0 = s1 + 0x7ff\n 25258: a0 = a0 + 0x191\n 25262: a0 = u64 [a0 + 0x710]\n 25266: u64 [s1 + 0x78] = a0\n 25269: a0 = s1 + 0x1080\n 25273: a1 = u64 [s1 + 0x60]\n 25276: ra = 1040, jump @21\n      : @1015 [@dyn 520] (gas: 14)\n 25282: a4 = s1 + 0x7ff\n 25286: a4 = a4 + 0x191\n 25290: a5 = a4 + 0x600\n 25294: a2 = u64 [a5 + 0xf0]\n 25298: a0 = u64 [a5 + 0xf8]\n 25302: a1 = u64 [a4 + 0x700]\n 25306: a3 = u64 [a4 + 0x708]\n 25310: u64 [a5 + 0xc8] = a3\n 25314: u64 [a5 + 0xc0] = a1\n 25318: u64 [a5 + 0xb8] = a0\n 25322: a0 = s1 + 0x1060\n 25326: a1 = s1 + 0x1040\n 25330: u64 [a5 + 0xb0] = a2\n 25334: ra = 1042, jump @1354\n      : @1016 [@dyn 521] (gas: 25)\n 25340: a0 = s1 + 0x7ff\n 25344: a0 = a0 + 0x191\n 25348: a1 = a0 + 0x600\n 25352: a3 = u64 [a1 + 0xe8]\n 25356: a4 = u64 [a1 + 0xe0]\n 25360: a5 = u64 [a1 + 0xd8]\n 25364: a2 = u64 [a1 + 0xd0]\n 25368: a0 = a3 >u 0\n 25370: a1 = a4 >u 0\n 25372: a1 = a0 if a3 != 0\n 25375: a0 = a5 >u 0\n 25377: u64 [s1 + 0x170] = a2\n 25381: a2 = a2 <u 0x20\n 25384: a2 = a2 ^ 0x1\n 25387: u64 [s1 + 0x1b8] = a5\n 25391: a2 = a0 if a5 != 0\n 25394: a5 = s1 + 0x100\n 25398: u64 [a5 + 0xc0] = a3\n 25402: u64 [a5 + 0xc8] = a4\n 25406: a0 = a4 | a3\n 25409: a2 = a1 if a0 != 0\n 25412: a0 = u64 [s1 + 0x78]\n 25415: a0 = a0 <u 0x20\n 25418: u64 [a5 + 0xe0] = a0\n 25422: jump @1021 if a2 == 0\n      : @1017 (gas: 15)\n 25426: a2 = s1 + 0x7ff\n 25430: a2 = a2 + 0x191\n 25434: a3 = s1 + 0x200\n 25438: a0 = u64 [a3 + 0x18]\n 25441: a4 = a2 + 0x600\n 25445: u64 [a4 + 0x90] = a0\n 25449: a0 = u64 [a3 + 0x10]\n 25452: u64 [a4 + 0x98] = a0\n 25456: a0 = u64 [a3]\n 25458: u64 [a4 + 0xa0] = a0\n 25462: a1 = s1 + 0x1020\n 25466: a0 = u64 [a3 + 0x8]\n 25469: u64 [a4 + 0xa8] = a0\n 25473: a0 = 0\n 25475: ra = 1044, jump @19\n      : @1018 [@dyn 522] (gas: 3)\n 25481: a1 = 0x20\n 25484: a0 = 0\n 25486: ra = 1046, jump @29\n      : @1019 [@dyn 523] (gas: 4)\n 25492: a1 = sp + 0xffffffffffffffe0\n 25495: a1 = a1 & 0xffffffffffffffe0\n 25498: u64 [s1 + 0x48] = a1\n 25501: t0 = 1048, jump @1631\n      : @1020 [@dyn 524] (gas: 114)\n 25507: ecalli 7 // 'hash_keccak_256'\n 25509: a1 = u64 [s1 + 0x78]\n 25512: a0 = a1 + 0x1f\n 25515: a1 = a0 <u a1\n 25518: a4 = u64 [s1 + 0x1f8]\n 25522: a2 = a4 + a1\n 25525: t2 = a2 <u a4\n 25528: t2 = a1 if a1 == 0\n 25531: a1 = u64 [s1 + 0x68]\n 25534: t2 = t2 + a1\n 25537: a1 = t2 << 0x3b\n 25540: a3 = a2 >> 0x5\n 25543: a1 = a1 | a3\n 25546: a3 = u64 [s1 + 0x48]\n 25549: t0 = u64 [a3 + 0x18]\n 25552: a2 = a2 << 0x3b\n 25555: a5 = u64 [a3 + 0x10]\n 25558: a0 = a0 >> 0x5\n 25561: a2 = a2 | a0\n 25564: t0 = reverse t0\n 25566: a5 = reverse a5\n 25568: a3 = u64 [s1 + 0x1e0]\n 25572: a3 = 0 if a4 != 0\n 25574: a0 = u64 [s1 + 0x1e8]\n 25578: a3 = 0 if a0 != 0\n 25580: a1 = 0 if a3 != 0\n 25582: a2 = 0 if a3 != 0\n 25584: a0 = a2 + t0\n 25587: u64 [s1 + 0x40] = a0\n 25590: a2 = a0 <u a2\n 25593: t1 = a5 + a2\n 25596: t1 = t1 + a1\n 25599: u64 [s1 + 0x38] = t1\n 25602: a4 = t1 ^ a1\n 25605: t1 = t1 <u a1\n 25608: t1 = a2 if a4 == 0\n 25611: a0 = u64 [s1 + 0x170]\n 25615: ra = a0 + 0x1f\n 25618: a4 = ra <u a0\n 25621: a0 = u64 [s1 + 0x1b8]\n 25625: a1 = a0 + a4\n 25628: a2 = a1 <u a0\n 25631: a2 = a4 if a4 == 0\n 25634: a0 = u64 [s1 + 0x1c8]\n 25638: a2 = a2 + a0\n 25641: a4 = a2 << 0x3b\n 25644: a0 = a1 >> 0x5\n 25647: a0 = a0 | a4\n 25650: a1 = a1 << 0x3b\n 25653: a4 = ra >> 0x5\n 25656: a1 = a1 | a4\n 25659: ra = t0 + a1\n 25662: a1 = ra <u t0\n 25665: a4 = a5 + a1\n 25668: t0 = a4 + a0\n 25671: a4 = t0 ^ a5\n 25674: a5 = t0 <u a5\n 25677: a5 = a1 if a4 == 0\n 25680: a0 = u64 [s1 + 0x68]\n 25683: a1 = t2 <u a0\n 25686: a0 = u64 [s1 + 0x1f0]\n 25690: a0 = a0 + a1\n 25693: a4 = t2 >> 0x5\n 25696: a1 = a0 << 0x3b\n 25699: a1 = a1 | a4\n 25702: a4 = u64 [s1 + 0x48]\n 25705: t2 = u64 [a4 + 0x8]\n 25708: a4 = u64 [a4]\n 25710: a0 = a0 >> 0x5\n 25713: a0 = 0 if a3 != 0\n 25715: a1 = 0 if a3 != 0\n 25717: a3 = reverse a4\n 25719: t2 = reverse t2\n 25721: a4 = a1 + t2\n 25724: a1 = a4 <u a1\n 25727: a0 = a0 + a3\n 25730: a1 = a1 + a0\n 25733: a0 = a4 + t1\n 25736: t1 = a0 <u a4\n 25739: t1 = t1 + a1\n 25742: a1 = u64 [s1 + 0x1c8]\n 25746: a1 = a2 <u a1\n 25749: a4 = u64 [s1 + 0x1c0]\n 25753: a1 = a1 + a4\n 25756: a2 = a2 >> 0x5\n 25759: a4 = a1 << 0x3b\n 25762: a2 = a2 | a4\n 25765: a1 = a1 >> 0x5\n 25768: a1 = a1 + a3\n 25771: a2 = a2 + t2\n 25774: a3 = a2 <u t2\n 25777: a1 = a1 + a3\n 25780: a5 = a5 + a2\n 25783: a2 = a5 <u a2\n 25786: a1 = a1 + a2\n 25789: a2 = s1 + 0x7ff\n 25793: a2 = a2 + 0x191\n 25797: u64 [a2 + 0x650] = ra\n 25801: a3 = u64 [s1 + 0x40]\n 25804: a4 = a2 + 0x600\n 25808: u64 [a4 + 0x70] = a3\n 25811: u64 [a2 + 0x658] = t0\n 25815: a3 = u64 [s1 + 0x38]\n 25818: u64 [a4 + 0x78] = a3\n 25821: u64 [a4 + 0x60] = a5\n 25824: u64 [a4 + 0x80] = a0\n 25828: u64 [a4 + 0x68] = a1\n 25831: a0 = s1 + 0x1000\n 25835: a1 = s1 + 0x7ff\n 25839: a1 = a1 + 0x7e1\n 25843: u64 [a2 + 0x688] = t1\n 25847: ra = 0x41a\n 25851: t0 = 0x5fa\n 25855: jump @1661\n      : @1021 [@dyn 525] (gas: 29)\n 25858: a5 = s1 + 0x100\n 25862: a0 = u64 [a5 + 0xe0]\n 25866: a0 = a0 ^ 0x1\n 25869: a3 = u64 [a5 + 0xf8]\n 25873: a1 = u64 [a5 + 0xd0]\n 25877: a0 = a1 if a3 != 0\n 25880: a1 = u64 [a5 + 0xd8]\n 25884: a2 = u64 [a5 + 0xe8]\n 25888: a0 = a1 if a2 != 0\n 25891: a4 = u64 [a5 + 0xf0]\n 25895: a1 = a3 | a4\n 25898: u64 [s1 + 0x48] = a1\n 25901: a1 = u64 [s1 + 0x68]\n 25904: a2 = a1 >> 0x3f\n 25907: u64 [s1 + 0x38] = a2\n 25910: a2 = a4 << 0x1\n 25913: u64 [s1 + 0x30] = a2\n 25916: a2 = a3 >> 0x3f\n 25919: u64 [s1 + 0x20] = a2\n 25922: a1 = a1 << 0x1\n 25925: u64 [s1 + 0x10] = a1\n 25928: a1 = u64 [s1 + 0x78]\n 25931: a2 = a1 >> 0x3f\n 25934: u64 [s1 + 0x28] = a2\n 25937: a2 = a3 << 0x1\n 25940: u64 [s1 + 0x18] = a2\n 25943: a1 = a1 << 0x1\n 25946: u64 [s1 + 0x40] = a1\n 25949: jump @1023 if a0 != 0\n      : @1022 (gas: 1)\n 25952: jump @1119\n      : @1023 (gas: 18)\n 25955: a0 = u64 [s1 + 0x78]\n 25958: a0 = a0 & 0xffffffffffffffe0\n 25961: u64 [s1 + 0x170] = a0\n 25965: a0 = s1 + 0x7ff\n 25969: a0 = a0 + 0x191\n 25973: a1 = u64 [s1 + 0x218]\n 25977: a3 = a0 + 0x600\n 25981: u64 [a3 + 0x10] = a1\n 25984: a1 = u64 [s1 + 0x210]\n 25988: u64 [a3 + 0x18] = a1\n 25991: a1 = u64 [s1 + 0x200]\n 25995: u64 [a3 + 0x20] = a1\n 25998: a1 = s1 + 0x7ff\n 26002: a1 = a1 + 0x7a1\n 26006: a2 = u64 [s1 + 0x208]\n 26010: u64 [a3 + 0x28] = a2\n 26013: a0 = 0\n 26015: ra = 1052, jump @19\n      : @1024 [@dyn 526] (gas: 7)\n 26021: a0 = sp + 0xffffffffffffffe0\n 26024: a0 = a0 & 0xffffffffffffffe0\n 26027: u64 [s1 + 0x1f0] = a0\n 26031: sp = a0\n 26033: a1 = 0x20\n 26036: a0 = 0\n 26038: ra = 1054, jump @29\n      : @1025 [@dyn 527] (gas: 4)\n 26044: a1 = sp + 0xffffffffffffffe0\n 26047: a1 = a1 & 0xffffffffffffffe0\n 26050: u64 [s1 + 0x1e8] = a1\n 26054: t0 = 1056, jump @1631\n      : @1026 [@dyn 528] (gas: 4)\n 26060: ra = 0x422\n 26064: ecalli 7 // 'hash_keccak_256'\n 26066: t0 = 0x424\n 26070: jump @1645\n      : @1027 [@dyn 529] (gas: 1)\n 26073: t0 = 1060, jump @1645\n      : @1028 [@dyn 530] (gas: 1)\n 26079: t0 = 1062, jump @1608\n      : @1029 [@dyn 531] (gas: 9)\n 26085: t0 = a0\n 26087: a1 = u64 [s1 + 0x1f0]\n 26091: u64 [a1 + 0x18] = a0\n 26094: u64 [s1 + 0x1d0] = ra\n 26098: u64 [a1 + 0x10] = ra\n 26101: u64 [a1 + 0x8] = t2\n 26104: u64 [a1] = t1\n 26106: u64 [s1 + 0x1e8] = t0\n 26110: t0 = 1064, jump @1599\n      : @1030 [@dyn 532] (gas: 1)\n 26116: jump @1032 if a4 == 0\n      : @1031 (gas: 1)\n 26119: jump @1121\n      : @1032 (gas: 14)\n 26122: a4 = u64 [s1 + 0x218]\n 26126: a4 = a1 <u a4\n 26129: ra = ra + a4\n 26132: t0 = ra ^ a3\n 26135: u64 [s1 + 0x1b8] = a3\n 26139: a5 = ra <u a3\n 26142: a5 = a4 if t0 == 0\n 26145: a5 = a5 + a2\n 26148: t0 = a5 <u a2\n 26151: a3 = u64 [s1 + 0x210]\n 26155: a2 = a2 <u a3\n 26158: a0 = a0 + a2\n 26161: a0 = a0 + t0\n 26164: t0 = 1066, jump @1637\n      : @1033 [@dyn 533] (gas: 1)\n 26170: jump @1111 if a0 != 0\n      : @1034 (gas: 3)\n 26174: a0 = s1 + 0x7ff\n 26178: a0 = a0 + 0x181\n 26182: ra = 1068, jump @17\n      : @1035 [@dyn 534] (gas: 17)\n 26188: a1 = s1 + 0x7ff\n 26192: a1 = a1 + 0x191\n 26196: a0 = u64 [a1 + 0x8]\n 26199: a1 = u64 [a1]\n 26201: a2 = s1 + 0x1000\n 26205: a2 = u64 [a2 + 0xfffffffffffff988]\n 26209: a3 = s1 + 0x1000\n 26213: a3 = u64 [a3 + 0xfffffffffffff980]\n 26217: a4 = s1 + 0x3198\n 26221: a5 = a4 + 0x500\n 26225: u64 [a5 + 0x80] = a0\n 26229: u64 [a5 + 0x78] = a1\n 26232: u64 [a5 + 0x70] = a2\n 26235: u64 [a5 + 0x68] = a3\n 26238: a1 = s1 + 0x3700\n 26242: a0 = u64 [s1 + 0x1f0]\n 26246: ra = 1070, jump @23\n      : @1036 [@dyn 535] (gas: 1)\n 26252: t0 = 1072, jump @1596\n      : @1037 [@dyn 536] (gas: 18)\n 26258: t0 = u64 [s1 + 0x200]\n 26262: t0 = t0 + a5\n 26265: u64 [s1 + 0x200] = t0\n 26269: a5 = u64 [s1 + 0x1f0]\n 26273: u64 [a5 + 0x8] = t2\n 26276: u64 [a5] = t1\n 26278: u64 [a5 + 0x10] = ra\n 26281: t0 = a0\n 26283: u64 [a5 + 0x18] = a0\n 26286: u64 [s1 + 0x1d0] = ra\n 26290: a0 = u64 [s1 + 0x1e8]\n 26294: u64 [s1 + 0x218] = a0\n 26298: a5 = u64 [s1 + 0x1c8]\n 26302: u64 [s1 + 0x210] = a3\n 26306: a3 = a1\n 26308: u64 [s1 + 0x1e8] = t0\n 26312: t0 = 0x428\n 26316: jump @1599\n      : @1038 (gas: 8)\n 26319: a0 = t0 | a5\n 26322: a1 = a4 | a3\n 26325: a0 = a0 | a1\n 26328: a0 = a0 >> 0x20\n 26331: a1 = a1 | a5\n 26334: a1 = a1 << 0x20\n 26337: a0 = a0 | a1\n 26340: jump @1111 if a0 != 0\n      : @1039 (gas: 12)\n 26344: u64 [a2 + 1144] = 0\n 26348: u64 [a2 + 1136] = 0\n 26352: u64 [a2 + 1128] = 0\n 26356: a0 = 0x8c379a000000000\n 26366: a1 = s1 + 0x2e00\n 26370: u64 [a2 + 0x480] = a0\n 26374: a0 = t0\n 26376: u64 [s1 + 0x1a8] = t0\n 26380: u64 [s1 + 0x1a0] = a4\n 26384: u64 [s1 + 0x210] = a5\n 26388: u64 [s1 + 0x218] = a3\n 26392: ra = 1074, jump @19\n      : @1040 [@dyn 537] (gas: 11)\n 26398: a1 = u64 [s1 + 0x1a8]\n 26402: a0 = u64 [s1 + 0x218]\n 26406: a3 = u64 [s1 + 0x210]\n 26410: a3 = a3 | a0\n 26413: a4 = 0x100000000\n 26423: a0 = 0xfffffffc\n 26433: a0 = a1 <u a0\n 26436: a2 = u64 [s1 + 0x1a0]\n 26440: a0 = 0 if a2 != 0\n 26442: a0 = 0 if a3 != 0\n 26444: jump @1111 if a0 == 0\n      : @1041 (gas: 1)\n 26448: t0 = 1076, jump @1640\n      : @1042 [@dyn 538] (gas: 8)\n 26454: u64 [a2 + 1120] = 0\n 26458: u64 [a2 + 1112] = 0\n 26462: u64 [a2 + 1096] = 0x20\n 26467: a1 = s1 + 0x2de0\n 26471: u64 [a2 + 1104] = 0\n 26475: u64 [s1 + 0x218] = a3\n 26479: u64 [s1 + 0x210] = a4\n 26483: ra = 1078, jump @19\n      : @1043 [@dyn 539] (gas: 9)\n 26489: a3 = u64 [s1 + 0x218]\n 26493: a2 = u64 [s1 + 0x1a0]\n 26497: a1 = u64 [s1 + 0x1a8]\n 26501: a0 = u64 [s1 + 0x210]\n 26505: a0 = a0 + 0xffffffffffffffdc\n 26508: a0 = a1 <u a0\n 26511: a0 = 0 if a2 != 0\n 26513: a0 = 0 if a3 != 0\n 26515: jump @1111 if a0 == 0\n      : @1044 (gas: 1)\n 26519: t0 = 1080, jump @1639\n      : @1045 [@dyn 540] (gas: 6)\n 26525: u64 [a3 + 1088] = 0\n 26529: u64 [a3 + 1080] = 0\n 26533: u64 [a3 + 1064] = 0x15\n 26538: a1 = s1 + 0x2dc0\n 26542: u64 [a3 + 1072] = 0\n 26546: ra = 1082, jump @19\n      : @1046 [@dyn 541] (gas: 8)\n 26552: a3 = u64 [s1 + 0x1a8]\n 26556: a0 = 0xffffffbc\n 26566: a0 = a3 <u a0\n 26569: a1 = u64 [s1 + 0x1a0]\n 26573: a0 = 0 if a1 != 0\n 26575: a1 = u64 [s1 + 0x218]\n 26579: a0 = 0 if a1 != 0\n 26581: jump @1111 if a0 == 0\n      : @1047 (gas: 12)\n 26585: i32 a0 = a3 + 0x44\n 26588: a1 = u64 [0x20010]\n 26593: a2 = u64 [0x20018]\n 26598: a4 = s1 + 0x2998\n 26602: a3 = a4 + 0x400\n 26606: u64 [a3 + 0x20] = a1\n 26609: u64 [a3 + 0x18] = a2\n 26612: a1 = 0x61696c6564000000\n 26622: u64 [a3 + 0x10] = a1\n 26625: a1 = s1 + 0x2da0\n 26629: u64 [a4 + 1032] = 0\n 26633: ra = 1084, jump @19\n      : @1048 [@dyn 542] (gas: 3)\n 26639: a1 = 0x64\n 26642: a0 = u64 [s1 + 0x1a8]\n 26646: ra = 1086, jump @29\n      : @1049 [@dyn 543] (gas: 5)\n 26652: i32 a1 = a0 + 0\n 26654: a0 = 0x1\n 26657: a2 = 0x64\n 26660: ecalli 12 // 'seal_return'\n 26662: fallthrough\n      : @1050 (gas: 11)\n 26663: a2 = s1 + 0x100\n 26667: a3 = u64 [a2 + 0xd8]\n 26671: a0 = a3 >u 0\n 26673: a5 = u64 [a2 + 0xd0]\n 26677: a1 = a5 >u 0\n 26679: a1 = a0 if a5 == 0\n 26682: a0 = a3 | a5\n 26685: a4 = u64 [a2 + 0xe0]\n 26689: a2 = a4 >u 0\n 26691: a2 = a1 if a0 != 0\n 26694: jump @1052 if a2 == 0\n      : @1051 (gas: 1)\n 26697: jump @1324\n      : @1052 (gas: 17)\n 26700: a0 = u64 [s1 + 0x1e8]\n 26704: a0 = a0 + 0x1\n 26707: a1 = a0 <u 0x1\n 26710: t0 = a4 + a1\n 26713: a2 = a0 | t0\n 26716: a2 = a2 <u 0x1\n 26719: a2 = a2 + a3\n 26722: a3 = a2 <u a3\n 26725: a3 = a3 + a5\n 26728: a4 = s1 + 0x3998\n 26732: u64 [a4 + 0xc8] = a0\n 26736: u64 [a4 + 0xd0] = t0\n 26740: u64 [a4 + 0xd8] = a2\n 26744: u64 [a4 + 0xe0] = a3\n 26748: a1 = s1 + 0x3a60\n 26752: a0 = u64 [s1 + 0x188]\n 26756: ra = 1088, jump @23\n      : @1053 [@dyn 544] (gas: 26)\n 26762: a0 = sp + 0xffffffffffffffe0\n 26765: a0 = a0 & 0xffffffffffffffe0\n 26768: u64 [s1 + 0x158] = a0\n 26772: sp = a0\n 26774: a0 = s1 + 0x1998\n 26778: a1 = u64 [s1 + 0x1d0]\n 26782: u64 [a0 + 0x40] = a1\n 26785: a1 = u64 [s1 + 0x1d8]\n 26789: u64 [a0 + 0x38] = a1\n 26792: a1 = u64 [s1 + 0x1e0]\n 26796: u64 [a0 + 0x30] = a1\n 26799: a1 = u64 [s1 + 0x1e8]\n 26803: u64 [a0 + 0x28] = a1\n 26806: a1 = u64 [s1 + 0x168]\n 26810: u64 [a0 + 0x60] = a1\n 26813: a1 = u64 [s1 + 0x170]\n 26817: u64 [a0 + 0x58] = a1\n 26820: a1 = u64 [s1 + 0x178]\n 26824: u64 [a0 + 0x50] = a1\n 26827: a4 = a0\n 26829: a0 = s1 + 0x1a00\n 26833: a1 = s1 + 0x19e0\n 26837: a2 = s1 + 0x19c0\n 26841: a3 = u64 [s1 + 0x180]\n 26845: u64 [a4 + 0x48] = a3\n 26848: ra = 1090, jump @1480\n      : @1054 [@dyn 545] (gas: 20)\n 26854: a1 = s1 + 0x1998\n 26858: a0 = u64 [a1 + 0xa0]\n 26862: u64 [s1 + 0x1e0] = a0\n 26866: a0 = u64 [a1 + 0x98]\n 26870: u64 [s1 + 0x1d8] = a0\n 26874: a0 = u64 [a1 + 0x90]\n 26878: u64 [s1 + 0x1d0] = a0\n 26882: a0 = u64 [a1 + 0x88]\n 26886: u64 [s1 + 0x1e8] = a0\n 26890: a0 = u64 [a1 + 0x78]\n 26893: a5 = u64 [a1 + 0x80]\n 26897: a2 = u64 [a1 + 0x68]\n 26900: a3 = u64 [a1 + 0x70]\n 26903: a1 = u64 [s1 + 0x158]\n 26907: u64 [a1 + 0x10] = a0\n 26910: u64 [a1 + 0x18] = a5\n 26913: u64 [a1] = a2\n 26915: u64 [a1 + 0x8] = a3\n 26918: a0 = s1 + 0x19a0\n 26922: ra = 1092, jump @21\n      : @1055 [@dyn 546] (gas: 39)\n 26928: a0 = s1 + 0x1998\n 26932: a1 = u64 [a0 + 0x18]\n 26935: u64 [s1 + 0x170] = a1\n 26939: a1 = u64 [a0 + 0x20]\n 26942: u64 [s1 + 0x168] = a1\n 26946: a1 = u64 [a0 + 0x8]\n 26949: u64 [s1 + 0x150] = a1\n 26953: a0 = u64 [a0 + 0x10]\n 26956: u64 [s1 + 0x148] = a0\n 26960: a5 = u64 [s1 + 0x1e8]\n 26964: a0 = a5 >> 0x3d\n 26967: a2 = u64 [s1 + 0x1d0]\n 26971: a1 = a2 << 0x3\n 26974: a0 = a0 | a1\n 26977: a1 = a2 >> 0x3d\n 26980: a3 = u64 [s1 + 0x1d8]\n 26984: a2 = a3 << 0x3\n 26987: a1 = a1 | a2\n 26990: a2 = a3 >> 0x3d\n 26993: a3 = u64 [s1 + 0x1e0]\n 26997: a3 = a3 << 0x3\n 27000: a2 = a2 | a3\n 27003: a5 = a5 << 0x3\n 27006: u64 [s1 + 0x1d0] = a5\n 27010: a3 = a0 >u 0\n 27012: a4 = a5 <u 0x100\n 27016: a4 = a4 ^ 0x1\n 27019: a4 = a3 if a0 != 0\n 27022: a0 = a2 >u 0\n 27024: a3 = a1 >u 0\n 27026: a3 = a0 if a2 != 0\n 27029: a1 = a1 | a2\n 27032: a4 = a3 if a1 != 0\n 27035: u64 [s1 + 0x178] = a4\n 27039: i32 a2 = a5 + 0xffffffffffffff80\n 27042: u64 [s1 + 0x140] = a2\n 27046: a0 = u64 [s1 + 0x1c0]\n 27050: a1 = u64 [s1 + 0x1c8]\n 27054: ra = 1094, jump @1667\n      : @1056 [@dyn 547] (gas: 8)\n 27060: u64 [s1 + 0x138] = a0\n 27064: u64 [s1 + 0x1e0] = a1\n 27068: a0 = u64 [s1 + 0x1e8]\n 27072: i32 a2 = a0 << 0x3\n 27075: u64 [s1 + 0x1d8] = a2\n 27079: a0 = u64 [s1 + 0x1b8]\n 27083: a1 = u64 [s1 + 0x1b0]\n 27087: ra = 1096, jump @1667\n      : @1057 [@dyn 548] (gas: 8)\n 27093: u64 [s1 + 0x1e8] = a0\n 27097: u64 [s1 + 0x130] = a1\n 27101: a1 = u64 [s1 + 0x1d0]\n 27105: i32 a2 = 0x80 - a1\n 27109: u64 [s1 + 0x128] = a2\n 27113: a0 = u64 [s1 + 0x1c0]\n 27117: a1 = u64 [s1 + 0x1c8]\n 27121: ra = 1098, jump @1662\n      : @1058 [@dyn 549] (gas: 21)\n 27127: a2 = u64 [s1 + 0x1e8]\n 27131: a2 = a2 | a0\n 27134: a0 = u64 [s1 + 0x1d0]\n 27138: a4 = a0 <u 0x80\n 27142: u64 [s1 + 0x180] = a4\n 27146: a3 = u64 [s1 + 0x138]\n 27150: a2 = a3 if a4 == 0\n 27153: a3 = u64 [s1 + 0x1b8]\n 27157: a2 = a3 if a0 == 0\n 27160: u64 [s1 + 0x1e8] = a2\n 27164: a2 = u64 [s1 + 0x130]\n 27168: a1 = a1 | a2\n 27171: a2 = u64 [s1 + 0x1e0]\n 27175: a1 = a2 if a4 == 0\n 27178: a2 = u64 [s1 + 0x1b0]\n 27182: a1 = a2 if a0 == 0\n 27185: u64 [s1 + 0x1e0] = a1\n 27189: a0 = u64 [s1 + 0x1c0]\n 27193: a1 = u64 [s1 + 0x1c8]\n 27197: a2 = u64 [s1 + 0x1d8]\n 27201: ra = 1100, jump @1667\n      : @1059 [@dyn 550] (gas: 20)\n 27207: a2 = a1\n 27209: a1 = u64 [s1 + 0x180]\n 27213: a0 = 0 if a1 == 0\n 27215: a2 = 0 if a1 == 0\n 27217: a3 = u64 [s1 + 0x178]\n 27221: a1 = u64 [s1 + 0x1e0]\n 27225: a1 = 0 if a3 != 0\n 27227: u64 [s1 + 0x1e0] = a1\n 27231: a1 = u64 [s1 + 0x1e8]\n 27235: a1 = 0 if a3 != 0\n 27237: u64 [s1 + 0x1e8] = a1\n 27241: a2 = 0 if a3 != 0\n 27243: u64 [s1 + 0x138] = a2\n 27247: a0 = 0 if a3 != 0\n 27249: u64 [s1 + 0x130] = a0\n 27253: a0 = 0xffffffff\n 27263: u64 [s1 + 0x120] = a0\n 27267: a1 = 0\n 27269: a2 = u64 [s1 + 0x1d8]\n 27273: ra = 1102, jump @1667\n      : @1060 [@dyn 551] (gas: 6)\n 27279: u64 [s1 + 0x110] = a0\n 27283: u64 [s1 + 0x118] = a1\n 27287: a0 = 0xffffffffffffffff\n 27290: a1 = 0xffffffffffffffff\n 27293: a2 = u64 [s1 + 0x128]\n 27297: ra = 1104, jump @1662\n      : @1061 [@dyn 552] (gas: 8)\n 27303: u64 [s1 + 0x128] = a1\n 27307: a1 = u64 [s1 + 0x110]\n 27311: a0 = a0 | a1\n 27314: u64 [s1 + 0x110] = a0\n 27318: a0 = 0xffffffffffffffff\n 27321: a1 = 0xffffffffffffffff\n 27324: a2 = u64 [s1 + 0x140]\n 27328: ra = 1106, jump @1667\n      : @1062 [@dyn 553] (gas: 17)\n 27334: a2 = u64 [s1 + 0x180]\n 27338: a3 = u64 [s1 + 0x110]\n 27342: a0 = a3 if a2 != 0\n 27345: a4 = u64 [s1 + 0x1d0]\n 27349: a3 = u64 [s1 + 0x120]\n 27353: a0 = a3 if a4 == 0\n 27356: u64 [s1 + 0x140] = a0\n 27360: a0 = u64 [s1 + 0x118]\n 27364: a3 = u64 [s1 + 0x128]\n 27368: a0 = a0 | a3\n 27371: a0 = a1 if a2 == 0\n 27374: a0 = 0 if a4 == 0\n 27376: u64 [s1 + 0x1d0] = a0\n 27380: a0 = 0xffffffffffffffff\n 27383: a1 = 0xffffffffffffffff\n 27386: a2 = u64 [s1 + 0x1d8]\n 27390: ra = 1108, jump @1667\n      : @1063 [@dyn 554] (gas: 38)\n 27396: a2 = u64 [s1 + 0x180]\n 27400: a0 = 0 if a2 == 0\n 27402: a1 = 0 if a2 == 0\n 27404: a2 = u64 [s1 + 0x1d0]\n 27408: a2 = a2 ^ 0xffffffffffffffff\n 27411: a3 = u64 [s1 + 0x140]\n 27415: a3 = a3 ^ 0xffffffffffffffff\n 27418: a1 = a1 ^ 0xffffffffffffffff\n 27421: a0 = a0 ^ 0xffffffffffffffff\n 27424: a4 = u64 [s1 + 0x178]\n 27428: a3 = 0xffffffffffffffff if a4 != 0\n 27431: a2 = 0xffffffffffffffff if a4 != 0\n 27434: a0 = 0xffffffffffffffff if a4 != 0\n 27437: a1 = 0xffffffffffffffff if a4 != 0\n 27440: a4 = u64 [s1 + 0x148]\n 27444: a1 = a1 & a4\n 27447: a4 = u64 [s1 + 0x150]\n 27451: a0 = a0 & a4\n 27454: a4 = u64 [s1 + 0x168]\n 27458: a2 = a2 & a4\n 27461: a4 = u64 [s1 + 0x170]\n 27465: a3 = a3 & a4\n 27468: a4 = u64 [s1 + 0x1e8]\n 27472: a3 = a3 | a4\n 27475: a4 = u64 [s1 + 0x1e0]\n 27479: a2 = a2 | a4\n 27482: a4 = u64 [s1 + 0x130]\n 27486: a0 = a0 | a4\n 27489: a4 = u64 [s1 + 0x138]\n 27493: a1 = a1 | a4\n 27496: a4 = s1 + 0x3998\n 27500: u64 [a4 + 0xf0] = a1\n 27504: u64 [a4 + 0xe8] = a0\n 27508: u64 [a4 + 0x100] = a2\n 27512: u64 [a4 + 0xf8] = a3\n 27516: a1 = s1 + 0x3a80\n 27520: a0 = u64 [s1 + 0x158]\n 27524: ra = 1110, jump @23\n      : @1064 [@dyn 555] (gas: 13)\n 27530: a0 = u64 [s1 + 0x1a8]\n 27534: a1 = s1 + 0x1998\n 27538: u64 [a1] = a0\n 27540: a0 = u64 [s1 + 0x1a0]\n 27544: u64 [a1 + 0xfffffffffffffff8] = a0\n 27547: a0 = u64 [s1 + 0x198]\n 27551: u64 [a1 + 0xfffffffffffffff0] = a0\n 27554: a2 = a1\n 27556: a1 = s1 + 0x1980\n 27560: a0 = u64 [s1 + 0x190]\n 27564: u64 [a2 + 0xffffffffffffffe8] = a0\n 27567: a0 = 0\n 27569: ra = 1112, jump @19\n      : @1065 [@dyn 556] (gas: 8)\n 27575: a2 = s1 + 0x1198\n 27579: u64 [a2 + 2016] = 0\n 27583: u64 [a2 + 2008] = 0\n 27587: u64 [a2 + 1992] = 0x3\n 27592: a0 = 0x20\n 27595: a1 = s1 + 0x1960\n 27599: u64 [a2 + 2000] = 0\n 27603: ra = 1114, jump @19\n      : @1066 [@dyn 557] (gas: 3)\n 27609: a1 = u64 [s1 + 0x1f0]\n 27613: a0 = i32 [a1]\n 27615: jump @1068 if a0 >u 63\n      : @1067 (gas: 2)\n 27619: u32 [a1 + 0] = 0x40\n 27622: fallthrough\n      : @1068 (gas: 4)\n 27623: a0 = sp + 0xffffffffffffffe0\n 27626: a0 = a0 & 0xffffffffffffffe0\n 27629: u64 [s1 + 0x1e8] = a0\n 27633: t0 = 1116, jump @1616\n      : @1069 [@dyn 558] (gas: 4)\n 27639: ra = 0x45e\n 27643: ecalli 7 // 'hash_keccak_256'\n 27645: t0 = 0x460\n 27649: jump @1612\n      : @1070 [@dyn 559] (gas: 1)\n 27652: t0 = 1120, jump @1612\n      : @1071 [@dyn 560] (gas: 18)\n 27658: u64 [s1 + 0x180] = a0\n 27662: a0 = sp + 0xffffffffffffffe0\n 27665: a0 = a0 & 0xffffffffffffffe0\n 27668: u64 [s1 + 0x1e8] = a0\n 27672: sp = a0\n 27674: a2 = s1 + 0x1198\n 27678: a0 = u64 [s1 + 0x1b0]\n 27682: a3 = a2 + 0x700\n 27686: u64 [a3 + 0xc0] = a0\n 27690: a0 = u64 [s1 + 0x1b8]\n 27694: u64 [a3 + 0xb8] = a0\n 27698: a0 = u64 [s1 + 0x1c8]\n 27702: u64 [a3 + 0xb0] = a0\n 27706: a1 = s1 + 0x1940\n 27710: a0 = u64 [s1 + 0x1c0]\n 27714: u64 [a3 + 0xa8] = a0\n 27718: a0 = 0\n 27720: ra = 1122, jump @19\n      : @1072 [@dyn 561] (gas: 14)\n 27726: a1 = s1 + 0x1198\n 27730: a0 = u64 [s1 + 0x180]\n 27734: a2 = a1 + 0x700\n 27738: u64 [a2 + 0xa0] = a0\n 27742: a0 = u64 [s1 + 0x1d0]\n 27746: u64 [a2 + 0x98] = a0\n 27750: a0 = u64 [s1 + 0x1d8]\n 27754: u64 [a2 + 0x90] = a0\n 27758: a3 = a1\n 27760: a0 = 0x20\n 27763: a1 = s1 + 0x1920\n 27767: a2 = u64 [s1 + 0x1e0]\n 27771: u64 [a3 + 0x788] = a2\n 27775: ra = 1124, jump @19\n      : @1073 [@dyn 562] (gas: 3)\n 27781: a1 = u64 [s1 + 0x1f0]\n 27785: a0 = i32 [a1]\n 27787: jump @1075 if a0 >u 63\n      : @1074 (gas: 2)\n 27791: u32 [a1 + 0] = 0x40\n 27794: fallthrough\n      : @1075 (gas: 4)\n 27795: a0 = sp + 0xffffffffffffffe0\n 27798: a0 = a0 & 0xffffffffffffffe0\n 27801: u64 [s1 + 0x1f0] = a0\n 27805: t0 = 1126, jump @1616\n      : @1076 [@dyn 563] (gas: 5)\n 27811: ra = 0x468\n 27815: ecalli 7 // 'hash_keccak_256'\n 27817: a3 = u64 [s1 + 0x1f0]\n 27821: t0 = 0x46a\n 27825: jump @1614\n      : @1077 [@dyn 564] (gas: 2)\n 27828: a3 = u64 [s1 + 0x1f0]\n 27832: t0 = 1130, jump @1614\n      : @1078 [@dyn 565] (gas: 3)\n 27838: i32 a0 = a0 + 0xfffffffffffff900\n 27842: a0 = a0 + s1\n 27845: ra = 1132, jump @21\n      : @1079 [@dyn 566] (gas: 17)\n 27851: a3 = s1 + 0x1198\n 27855: a4 = a3 + 0x700\n 27859: a0 = u64 [a4 + 0x68]\n 27862: a1 = u64 [a4 + 0x70]\n 27865: a2 = u64 [a4 + 0x80]\n 27869: a3 = u64 [a4 + 0x78]\n 27872: a0 = a0 & 0xffffffffffffff00\n 27876: a0 = a0 | 0x1\n 27879: a4 = s1 + 0x3998\n 27883: a5 = a4 + 0x100\n 27887: u64 [a5 + 0x20] = a2\n 27890: u64 [a5 + 0x18] = a3\n 27893: u64 [a5 + 0x10] = a1\n 27896: u64 [a5 + 0x8] = a0\n 27899: a1 = s1 + 0x3aa0\n 27903: a0 = u64 [s1 + 0x1e8]\n 27907: ra = 1134, jump @23\n      : @1080 [@dyn 567] (gas: 8)\n 27913: a0 = sp + 0xffffffffffffffe0\n 27916: a5 = a0 & 0xffffffffffffffe0\n 27919: sp = a5\n 27921: a1 = u64 [s1 + 0x200]\n 27925: a0 = a1 + 0x9\n 27928: a1 = a0 <u a1\n 27931: a3 = u64 [s1 + 0x208]\n 27935: t0 = 1136, jump @1621\n      : @1081 [@dyn 568] (gas: 31)\n 27941: a1 = u64 [s1 + 0x210]\n 27945: a3 = a3 + a1\n 27948: a1 = a3 <u a1\n 27951: a4 = u64 [s1 + 0x218]\n 27955: a1 = a1 + a4\n 27958: u64 [s1 + 0x1f0] = a5\n 27962: u64 [a5 + 0x18] = a1\n 27965: u64 [a5 + 0x10] = a3\n 27968: u64 [a5 + 0x8] = a2\n 27971: u64 [a5] = a0\n 27973: a0 = s1 + 0x3998\n 27977: u64 [a0 + 320] = 0\n 27981: u64 [a0 + 312] = 0\n 27985: u64 [a0 + 304] = 0\n 27989: u64 [a0 + 296] = 0\n 27993: a0 = s1 + 0x4000\n 27997: i32 a0 = a0 + 0xfffffffffffffac0\n 28001: ecalli 15 // 'value_transferred'\n 28003: a0 = s1 + 0x3998\n 28007: a2 = a0 + 0x100\n 28011: a1 = u64 [a2 + 0x28]\n 28014: u64 [s1 + 0x218] = a1\n 28018: a1 = u64 [a2 + 0x30]\n 28021: u64 [s1 + 0x210] = a1\n 28025: a1 = u64 [a2 + 0x38]\n 28028: u64 [s1 + 0x208] = a1\n 28032: a0 = u64 [a2 + 0x40]\n 28035: u64 [s1 + 0x200] = a0\n 28039: a0 = s1 + 0x18e0\n 28043: a1 = u64 [s1 + 0x1f0]\n 28047: ra = 1138, jump @21\n      : @1082 [@dyn 569] (gas: 22)\n 28053: a4 = s1 + 0x1198\n 28057: a3 = u64 [a4 + 0x748]\n 28061: a0 = u64 [a4 + 0x750]\n 28065: a1 = u64 [a4 + 0x758]\n 28069: a2 = u64 [a4 + 0x760]\n 28073: a5 = u64 [s1 + 0x200]\n 28077: u64 [a4 + 0x700] = a5\n 28081: a5 = u64 [s1 + 0x208]\n 28085: u64 [a4 + 0x6f8] = a5\n 28089: a5 = u64 [s1 + 0x210]\n 28093: u64 [a4 + 0x6f0] = a5\n 28097: a5 = u64 [s1 + 0x218]\n 28101: u64 [a4 + 0x6e8] = a5\n 28105: a5 = a4 + 0x700\n 28109: u64 [a5 + 0x20] = a2\n 28112: u64 [a5 + 0x18] = a1\n 28115: u64 [a5 + 0x10] = a0\n 28118: a0 = s1 + 0x18c0\n 28122: a1 = s1 + 0x18a0\n 28126: a2 = s1 + 0x1880\n 28130: u64 [a5 + 0x8] = a3\n 28133: ra = 1140, jump @1427\n      : @1083 [@dyn 570] (gas: 15)\n 28139: a3 = s1 + 0x1198\n 28143: a4 = a3 + 0x700\n 28147: a0 = u64 [a4 + 0x40]\n 28150: a1 = u64 [a4 + 0x38]\n 28153: a2 = u64 [a4 + 0x30]\n 28156: a3 = u64 [a4 + 0x28]\n 28159: a4 = s1 + 0x3998\n 28163: a5 = a4 + 0x100\n 28167: u64 [a5 + 0x60] = a0\n 28170: u64 [a5 + 0x58] = a1\n 28173: u64 [a5 + 0x50] = a2\n 28176: u64 [a5 + 0x48] = a3\n 28179: a1 = s1 + 0x3ae0\n 28183: a0 = u64 [s1 + 0x1f0]\n 28187: ra = 1142, jump @23\n      : @1084 [@dyn 571] (gas: 3)\n 28193: a0 = s1 + 0x1860\n 28197: a1 = u64 [s1 + 0x188]\n 28201: ra = 1144, jump @21\n      : @1085 [@dyn 572] (gas: 14)\n 28207: a1 = s1 + 0x1198\n 28211: a2 = a1 + 0x600\n 28215: a0 = u64 [a2 + 0xe0]\n 28219: a1 = s1 + 0x200\n 28223: u64 [a1 + 0x8] = a0\n 28226: a0 = u64 [a2 + 0xd8]\n 28230: u64 [a1 + 0x18] = a0\n 28233: a0 = u64 [a2 + 0xd0]\n 28237: u64 [a1] = a0\n 28239: a0 = u64 [a2 + 0xc8]\n 28243: u64 [a1 + 0x10] = a0\n 28246: a0 = s1 + 0x1840\n 28250: a1 = 0x40\n 28253: ra = 1146, jump @17\n      : @1086 [@dyn 573] (gas: 7)\n 28259: a3 = s1 + 0x1198\n 28263: a5 = a3 + 0x600\n 28267: a0 = u64 [a5 + 0xc0]\n 28271: a1 = u64 [a5 + 0xb8]\n 28275: a2 = u64 [a5 + 0xb0]\n 28279: a4 = u64 [a5 + 0xa8]\n 28283: t0 = 1148, jump @1644\n      : @1087 [@dyn 574] (gas: 1)\n 28289: jump @1111 if a0 != 0\n      : @1088 (gas: 13)\n 28293: a0 = u64 [s1 + 0x210]\n 28297: a2 = a3 + 0x600\n 28301: u64 [a2 + 0x88] = a0\n 28305: a0 = u64 [s1 + 0x200]\n 28309: u64 [a2 + 0x90] = a0\n 28313: a0 = u64 [s1 + 0x218]\n 28317: u64 [a2 + 0x98] = a0\n 28321: a1 = s1 + 0x1820\n 28325: a0 = u64 [s1 + 0x208]\n 28329: u64 [a2 + 0xa0] = a0\n 28333: a0 = a4\n 28335: u64 [s1 + 0x1f0] = a4\n 28339: ra = 1150, jump @19\n      : @1089 [@dyn 575] (gas: 35)\n 28345: a0 = u64 [s1 + 0x1b0]\n 28349: a1 = s1 + 0x1198\n 28353: a2 = a1 + 0x600\n 28357: u64 [a2 + 0x40] = a0\n 28360: a0 = u64 [s1 + 0x1b8]\n 28364: u64 [a2 + 0x38] = a0\n 28367: a0 = u64 [s1 + 0x1c8]\n 28371: u64 [a2 + 0x30] = a0\n 28374: a0 = u64 [s1 + 0x1c0]\n 28378: u64 [a2 + 0x28] = a0\n 28381: a0 = u64 [s1 + 0x1a8]\n 28385: u64 [a2 + 0x60] = a0\n 28388: a0 = u64 [s1 + 0x1a0]\n 28392: u64 [a2 + 0x58] = a0\n 28395: a0 = u64 [s1 + 0x198]\n 28399: u64 [a2 + 0x50] = a0\n 28402: a4 = a1\n 28404: a0 = u64 [0x20120]\n 28409: a1 = u64 [0x20128]\n 28414: a2 = u64 [0x20130]\n 28419: a3 = u64 [0x20138]\n 28424: a5 = a4 + 0x600\n 28428: u64 [a5 + 0x80] = a0\n 28432: u64 [a5 + 0x78] = a1\n 28435: u64 [a5 + 0x70] = a2\n 28438: u64 [a5 + 0x68] = a3\n 28441: a5 = a4\n 28443: a1 = 0x20\n 28446: a2 = s1 + 0x1800\n 28450: a3 = s1 + 0x17e0\n 28454: a4 = s1 + 0x17c0\n 28458: a0 = u64 [s1 + 0x190]\n 28462: u64 [a5 + 0x648] = a0\n 28466: a0 = u64 [s1 + 0x1f0]\n 28470: ra = 1152, jump @26\n      : @1090 [@dyn 576] (gas: 3)\n 28476: a0 = s1 + 0x17a0\n 28480: a1 = u64 [s1 + 0x160]\n 28484: ra = 1154, jump @21\n      : @1091 [@dyn 577] (gas: 19)\n 28490: a3 = s1 + 0x1198\n 28494: a4 = a3 + 0x600\n 28498: a0 = u64 [a4 + 0x20]\n 28501: a1 = u64 [a4 + 0x10]\n 28504: a2 = u64 [a4 + 0x8]\n 28507: a3 = u64 [a4 + 0x18]\n 28510: a5 = s1 + 0x200\n 28514: a4 = u64 [a5 + 0x8]\n 28517: a0 = a0 ^ a4\n 28520: a4 = u64 [a5]\n 28522: a1 = a1 ^ a4\n 28525: a0 = a0 | a1\n 28528: a1 = u64 [a5 + 0x18]\n 28531: a1 = a1 ^ a3\n 28534: a3 = u64 [a5 + 0x10]\n 28537: a2 = a2 ^ a3\n 28540: a1 = a1 | a2\n 28543: a0 = a0 | a1\n 28546: jump @1093 if a0 != 0\n      : @1092 (gas: 13)\n 28549: a1 = s1 + 0x1198\n 28553: a3 = s1 + 0x100\n 28557: a0 = u64 [a3 + 0x90]\n 28561: a2 = a1 + 0x500\n 28565: u64 [a2 + 0xe8] = a0\n 28569: a0 = u64 [a3 + 0x98]\n 28573: u64 [a2 + 0xf0] = a0\n 28577: a0 = u64 [a3 + 0xa0]\n 28581: u64 [a2 + 0xf8] = a0\n 28585: a0 = s1 + 0x1780\n 28589: a2 = u64 [a3 + 0xa8]\n 28593: u64 [a1 + 0x600] = a2\n 28597: ra = 1156, jump @1516\n      : @1093 [@dyn 578] (gas: 6)\n 28603: a0 = 0\n 28605: a1 = u64 [s1 + 0x1f8]\n 28609: a2 = 0\n 28611: ecalli 12 // 'seal_return'\n 28613: a1 = 0x20220\n 28618: jump @1273\n      : @1094 (gas: 3)\n 28621: a0 = s1 + 0x440\n 28625: a1 = 0x40\n 28628: ra = 1158, jump @17\n      : @1095 [@dyn 579] (gas: 13)\n 28634: t0 = u64 [s1 + 0x458]\n 28638: a1 = s1 + 0x400\n 28642: a5 = u64 [a1 + 0x50]\n 28645: a3 = u64 [a1 + 0x48]\n 28648: a0 = u64 [a1 + 0x40]\n 28651: a2 = a3 | t0\n 28654: a1 = a0 | a5\n 28657: a1 = a1 | a2\n 28660: a1 = a1 >> 0x20\n 28663: a2 = a2 | a5\n 28666: a2 = a2 << 0x20\n 28669: a1 = a1 | a2\n 28672: jump @1111 if a1 != 0\n      : @1096 (gas: 22)\n 28676: a1 = a0 + 0x20\n 28679: u64 [s1 + 0x210] = a1\n 28683: a4 = a1 <u a0\n 28686: a1 = a3 + a4\n 28689: u64 [s1 + 0x218] = a1\n 28693: a1 = a1 <u a3\n 28696: a1 = a4 if a4 == 0\n 28699: a1 = a1 + a5\n 28702: u64 [s1 + 0x200] = a1\n 28706: a1 = a1 <u a5\n 28709: a1 = a1 + t0\n 28712: u64 [s1 + 0x208] = a1\n 28716: u64 [s1 + 1080] = 0\n 28720: u64 [s1 + 1072] = 0\n 28724: u64 [s1 + 1064] = 0\n 28728: a1 = s1 + 0x420\n 28732: u64 [s1 + 1056] = 0x20\n 28737: u64 [s1 + 0x190] = a0\n 28741: u64 [s1 + 0x188] = a3\n 28745: u64 [s1 + 0x180] = t0\n 28749: u64 [s1 + 0x178] = a5\n 28753: ra = 1160, jump @19\n      : @1097 [@dyn 580] (gas: 3)\n 28759: a0 = s1 + 0x400\n 28763: a1 = u64 [s1 + 0x1d0]\n 28767: ra = 1162, jump @17\n      : @1098 [@dyn 581] (gas: 1)\n 28773: t0 = 1164, jump @1628\n      : @1099 [@dyn 582] (gas: 1)\n 28779: jump @1111 if a1 != 0\n      : @1100 (gas: 16)\n 28783: a5 = s1 + 0x400\n 28787: a4 = u64 [a5 + 0x18]\n 28790: a1 = u64 [a5 + 0x10]\n 28793: a2 = u64 [a5 + 0x8]\n 28796: a3 = u64 [a5]\n 28798: u64 [s1 + 0x198] = a3\n 28802: a5 = s1 + 0x300\n 28806: u64 [a5 + 0xe0] = a3\n 28810: u64 [s1 + 0x1a0] = a2\n 28814: u64 [a5 + 0xe8] = a2\n 28818: u64 [s1 + 0x1a8] = a1\n 28822: u64 [a5 + 0xf0] = a1\n 28826: a1 = s1 + 0x3e0\n 28830: u64 [s1 + 0x1b0] = a4\n 28834: u64 [a5 + 0xf8] = a4\n 28838: ra = 1166, jump @19\n      : @1101 [@dyn 583] (gas: 24)\n 28844: ra = 0\n 28846: a5 = 0\n 28848: t2 = 0\n 28850: t1 = 0\n 28852: a3 = s1 + 0x100\n 28856: a1 = u64 [a3 + 0x90]\n 28860: a0 = a1 + 0x40\n 28863: a4 = s1 + 0x200\n 28867: u64 [a4 + 0x10] = a0\n 28870: a0 = a0 <u a1\n 28873: a2 = u64 [a3 + 0x88]\n 28877: a1 = a2 + a0\n 28880: u64 [a4 + 0x8] = a1\n 28883: a1 = a1 <u a2\n 28886: a1 = a0 if a0 == 0\n 28889: a0 = u64 [a3 + 0x78]\n 28892: a1 = a1 + a0\n 28895: u64 [a4] = a1\n 28897: a0 = a1 <u a0\n 28900: a1 = u64 [a3 + 0x80]\n 28904: a0 = a0 + a1\n 28907: u64 [a4 + 0x18] = a0\n 28910: t0 = u64 [s1 + 0x1d8]\n 28914: fallthrough\n      : @1102 (gas: 16)\n 28915: a0 = u64 [s1 + 0x198]\n 28919: a0 = ra <u a0\n 28922: a2 = u64 [s1 + 0x1a0]\n 28926: a1 = a5 ^ a2\n 28929: a2 = a5 <u a2\n 28932: a2 = a0 if a1 == 0\n 28935: a4 = u64 [s1 + 0x1a8]\n 28939: a0 = t2 <u a4\n 28942: a3 = u64 [s1 + 0x1b0]\n 28946: a1 = t1 ^ a3\n 28949: a3 = t1 <u a3\n 28952: a3 = a0 if a1 == 0\n 28955: a0 = t2 ^ a4\n 28958: a0 = a0 | a1\n 28961: a3 = a2 if a0 == 0\n 28964: jump @1112 if a3 == 0\n      : @1103 (gas: 12)\n 28968: a4 = s1 + 0x100\n 28972: a3 = u64 [a4 + 0xe0]\n 28976: a0 = t0 | a3\n 28979: a1 = u64 [a4 + 0xf0]\n 28983: a2 = u64 [a4 + 0xe8]\n 28987: a1 = a1 | a2\n 28990: a0 = a0 | a1\n 28993: a0 = a0 >> 0x20\n 28996: a1 = a1 | a3\n 28999: a1 = a1 << 0x20\n 29002: a0 = a0 | a1\n 29005: jump @1111 if a0 != 0\n      : @1104 (gas: 8)\n 29009: u64 [s1 + 0x1c0] = t2\n 29013: u64 [s1 + 0x1c8] = t1\n 29017: u64 [s1 + 0x1d0] = a5\n 29021: u64 [s1 + 0x1f8] = ra\n 29025: a0 = s1 + 0x3c0\n 29029: a1 = t0\n 29031: u64 [s1 + 0x1d8] = t0\n 29035: ra = 1168, jump @17\n      : @1105 [@dyn 584] (gas: 13)\n 29041: a1 = s1 + 0x200\n 29045: a0 = u64 [a1 + 0x10]\n 29048: a4 = u64 [a1]\n 29050: a2 = a0 | a4\n 29053: a3 = u64 [a1 + 0x18]\n 29056: a5 = u64 [a1 + 0x8]\n 29059: a1 = a5 | a3\n 29062: a2 = a2 | a1\n 29065: a2 = a2 >> 0x20\n 29068: a1 = a1 | a4\n 29071: a1 = a1 << 0x20\n 29074: a1 = a1 | a2\n 29077: jump @1111 if a1 != 0\n      : @1106 (gas: 14)\n 29081: t0 = u64 [s1 + 0x3d8]\n 29085: a1 = u64 [s1 + 0x3d0]\n 29089: a2 = u64 [s1 + 0x3c8]\n 29093: u64 [s1 + 0x218] = a3\n 29097: a3 = u64 [s1 + 0x3c0]\n 29101: u64 [s1 + 0x3a0] = a3\n 29105: u64 [s1 + 0x3a8] = a2\n 29109: u64 [s1 + 0x3b0] = a1\n 29113: a1 = s1 + 0x3a0\n 29117: u64 [s1 + 0x3b8] = t0\n 29121: u64 [s1 + 0x210] = a0\n 29125: u64 [s1 + 0x208] = a5\n 29129: u64 [s1 + 0x200] = a4\n 29133: ra = 1170, jump @19\n      : @1107 [@dyn 585] (gas: 48)\n 29139: a1 = u64 [s1 + 0x210]\n 29143: a0 = a1 + 0x20\n 29146: u64 [s1 + 0x1b8] = a0\n 29150: a2 = a0 <u a1\n 29153: a0 = u64 [s1 + 0x208]\n 29157: t0 = a0 + a2\n 29160: a3 = t0 <u a0\n 29163: a3 = a2 if a2 == 0\n 29166: a0 = u64 [s1 + 0x200]\n 29170: t2 = a0 + a3\n 29173: a3 = t2 <u a0\n 29176: a0 = u64 [s1 + 0x218]\n 29180: a0 = a0 + a3\n 29183: u64 [s1 + 0x218] = a0\n 29187: a0 = u64 [s1 + 0x1d8]\n 29191: a3 = a0 + 0x20\n 29194: a4 = a3 <u a0\n 29197: a0 = u64 [s1 + 0x1e8]\n 29201: a2 = a0 + a4\n 29204: a0 = a2 <u a0\n 29207: a0 = a4 if a4 == 0\n 29210: a1 = u64 [s1 + 0x1e0]\n 29214: a0 = a0 + a1\n 29217: a4 = a0 <u a1\n 29220: a1 = u64 [s1 + 0x1f0]\n 29224: a1 = a1 + a4\n 29227: u64 [s1 + 0x1f0] = a1\n 29231: ra = u64 [s1 + 0x1f8]\n 29235: ra = ra + 0x1\n 29238: a4 = ra <u 0x1\n 29241: a5 = u64 [s1 + 0x1d0]\n 29245: a5 = a5 + a4\n 29248: a4 = ra | a5\n 29251: a4 = a4 <u 0x1\n 29254: a1 = u64 [s1 + 0x1c0]\n 29258: a4 = a4 + a1\n 29261: a1 = a4 <u a1\n 29264: t1 = u64 [s1 + 0x1c8]\n 29268: t1 = t1 + a1\n 29271: a1 = u64 [s1 + 0x1b8]\n 29275: u64 [s1 + 0x210] = a1\n 29279: u64 [s1 + 0x208] = t0\n 29283: u64 [s1 + 0x200] = t2\n 29287: t0 = a3\n 29289: u64 [s1 + 0x1e8] = a2\n 29293: u64 [s1 + 0x1e0] = a0\n 29297: t2 = a4\n 29299: jump @1102\n      : @1108 (gas: 14)\n 29302: a0 = u64 [s1 + 0x1b0]\n 29306: t2 = u64 [s1 + 0x210]\n 29310: t0 = t2 <u a0\n 29313: a5 = u64 [s1 + 0x1a0]\n 29317: a1 = u64 [s1 + 0x208]\n 29321: a3 = a1 ^ a5\n 29324: a2 = a1 <u a5\n 29327: a2 = t0 if a3 == 0\n 29330: a3 = u64 [s1 + 0x190]\n 29334: a4 = u64 [s1 + 0x200]\n 29338: ra = a4 - a3\n 29341: t1 = a4 <u a3\n 29344: a4 = u64 [s1 + 0x198]\n 29348: fallthrough\n      : @1109 (gas: 17)\n 29349: a3 = u64 [s1 + 0x218]\n 29353: a4 = a3 - a4\n 29356: a4 = a4 - t1\n 29359: a3 = ra <u a2\n 29362: a3 = a4 - a3\n 29365: a4 = ra - a2\n 29368: a2 = a1 - a5\n 29371: a2 = a2 - t0\n 29374: a1 = t2 - a0\n 29377: a2 = a2 | a3\n 29380: a3 = a1 | a4\n 29383: a3 = a3 | a2\n 29386: a2 = a2 | a4\n 29389: a3 = a3 >> 0x20\n 29392: a2 = a2 << 0x20\n 29395: a2 = a2 | a3\n 29398: jump @1111 if a2 != 0\n      : @1110 (gas: 1)\n 29401: jump @1308\n      : @1111 (gas: 1)\n 29404: trap\n      : @1112 (gas: 14)\n 29405: a0 = u64 [s1 + 0x190]\n 29409: t2 = u64 [s1 + 0x210]\n 29413: t0 = t2 <u a0\n 29416: a5 = u64 [s1 + 0x188]\n 29420: a1 = u64 [s1 + 0x208]\n 29424: a3 = a1 ^ a5\n 29427: a2 = a1 <u a5\n 29430: a2 = t0 if a3 == 0\n 29433: a3 = u64 [s1 + 0x178]\n 29437: a4 = u64 [s1 + 0x200]\n 29441: ra = a4 - a3\n 29444: t1 = a4 <u a3\n 29447: a4 = u64 [s1 + 0x180]\n 29451: jump @1109\n      : @1113 (gas: 8)\n 29453: u64 [s1 + 880] = 0\n 29457: u64 [s1 + 872] = 0\n 29461: u64 [s1 + 864] = 0\n 29465: a0 = 0x4e487b7100000000\n 29475: a1 = s1 + 0x360\n 29479: u64 [s1 + 0x378] = a0\n 29483: a0 = 0\n 29485: ra = 1172, jump @19\n      : @1114 [@dyn 586] (gas: 7)\n 29491: u64 [s1 + 856] = 0\n 29495: u64 [s1 + 848] = 0\n 29499: u64 [s1 + 832] = 0x32\n 29504: a0 = 0x4\n 29507: a1 = s1 + 0x340\n 29511: u64 [s1 + 840] = 0\n 29515: ra = 1174, jump @19\n      : @1115 [@dyn 587] (gas: 2)\n 29521: a1 = i32 [0x2020c]\n 29526: jump @1117 if a1 >u 63\n      : @1116 (gas: 3)\n 29530: u32 [0x2020c] = 0x40\n 29536: a1 = 0x20220\n 29541: jump @1118\n      : @1117 (gas: 2)\n 29543: a1 = 0x20220\n 29548: fallthrough\n      : @1118 (gas: 6)\n 29549: i32 a1 = a1 + 0\n 29551: a0 = 0x1\n 29554: a2 = 0x24\n 29557: ra = 0x498\n 29561: ecalli 12 // 'seal_return'\n 29563: fallthrough\n      : @1119 [@dyn 588] (gas: 6)\n 29564: a0 = u64 [s1 + 0x78]\n 29567: a1 = u64 [s1 + 0x68]\n 29570: a0 = a0 | a1\n 29573: a1 = u64 [s1 + 0x48]\n 29576: a0 = a0 | a1\n 29579: jump @1133 if a0 != 0\n      : @1120 (gas: 5)\n 29583: u64 [s1 + 456] = 0\n 29587: u64 [s1 + 448] = 0\n 29591: u64 [s1 + 464] = 0\n 29595: u64 [s1 + 472] = 0\n 29599: jump @1137\n      : @1121 (gas: 10)\n 29602: t1 = u64 [s1 + 0x210]\n 29606: t0 = u64 [s1 + 0x218]\n 29610: a4 = u64 [s1 + 0x78]\n 29613: a5 = u64 [s1 + 0x170]\n 29617: a4 = a4 ^ a5\n 29620: a5 = u64 [s1 + 0x68]\n 29623: a4 = a4 | a5\n 29626: a5 = u64 [s1 + 0x48]\n 29629: a4 = a4 | a5\n 29632: jump @1132 if a4 == 0\n      : @1122 (gas: 7)\n 29636: t2 = a3\n 29638: a4 = a1 <u t0\n 29641: a3 = ra + a4\n 29644: t0 = a3 ^ t2\n 29647: a5 = a3 <u t2\n 29650: a5 = a4 if t0 == 0\n 29653: t0 = 1178, jump @1625\n      : @1123 [@dyn 589] (gas: 1)\n 29659: jump @1111 if a0 != 0\n      : @1124 (gas: 3)\n 29663: a0 = s1 + 0x7ff\n 29667: a0 = a0 + 0x781\n 29671: ra = 1180, jump @17\n      : @1125 [@dyn 590] (gas: 12)\n 29677: a0 = s1 + 0x7ff\n 29681: a0 = a0 + 0x191\n 29685: a1 = u64 [a0 + 0x608]\n 29689: u64 [s1 + 0x210] = a1\n 29693: a1 = u64 [a0 + 0x600]\n 29697: u64 [s1 + 0x208] = a1\n 29701: a1 = u64 [a0 + 0x5f8]\n 29705: u64 [s1 + 0x200] = a1\n 29709: a0 = u64 [a0 + 0x5f0]\n 29713: u64 [s1 + 0x1f8] = a0\n 29717: a0 = u64 [s1 + 0x78]\n 29720: t0 = 1182, jump @1648\n      : @1126 [@dyn 591] (gas: 1)\n 29726: ra = 1184, jump @1667\n      : @1127 [@dyn 592] (gas: 6)\n 29732: u64 [s1 + 0x1e8] = a0\n 29736: u64 [s1 + 0x1d0] = a1\n 29740: a0 = 0xffffffffffffffff\n 29743: a1 = 0xffffffffffffffff\n 29746: a2 = u64 [s1 + 0x218]\n 29750: ra = 1186, jump @1662\n      : @1128 [@dyn 593] (gas: 1)\n 29756: t0 = 1188, jump @1627\n      : @1129 [@dyn 594] (gas: 1)\n 29762: ra = 1190, jump @1662\n      : @1130 [@dyn 595] (gas: 1)\n 29768: t0 = 1192, jump @1597\n      : @1131 [@dyn 596] (gas: 8)\n 29774: a5 = a4 + 0x500\n 29778: u64 [a5 + 0xa0] = a3\n 29782: u64 [a5 + 0x98] = a2\n 29786: u64 [a5 + 0x90] = a1\n 29790: u64 [a5 + 0x88] = a0\n 29794: a1 = s1 + 0x3720\n 29798: a0 = u64 [s1 + 0x1f0]\n 29802: ra = 1194, jump @23\n      : @1132 [@dyn 597] (gas: 19)\n 29808: a0 = u64 [s1 + 0x38]\n 29811: a1 = u64 [s1 + 0x30]\n 29814: a0 = a0 | a1\n 29817: a1 = u64 [s1 + 0x20]\n 29820: a2 = u64 [s1 + 0x10]\n 29823: a1 = a1 | a2\n 29826: a2 = u64 [s1 + 0x28]\n 29829: a3 = u64 [s1 + 0x18]\n 29832: a2 = a2 | a3\n 29835: a3 = u64 [s1 + 0x40]\n 29838: a3 = a3 + 0x1\n 29841: a4 = s1 + 0x3198\n 29845: a5 = a4 + 0x500\n 29849: u64 [a5 + 0xa8] = a3\n 29853: u64 [a5 + 0xb0] = a2\n 29857: u64 [a5 + 0xb8] = a1\n 29861: u64 [a5 + 0xc0] = a0\n 29865: a0 = 0x3740\n 29869: jump @1142\n      : @1133 (gas: 1)\n 29872: t0 = 1196, jump @1622\n      : @1134 [@dyn 598] (gas: 1)\n 29878: jump @1111 if a1 == 0\n      : @1135 (gas: 5)\n 29882: a0 = u64 [s1 + 0x190]\n 29886: i32 a1 = a0 + 0x20\n 29889: a0 = s1 + 0x7ff\n 29893: a0 = a0 + 0x7c1\n 29897: ra = 1198, jump @17\n      : @1136 [@dyn 599] (gas: 13)\n 29903: a0 = s1 + 0x7ff\n 29907: a0 = a0 + 0x191\n 29911: a2 = a0 + 0x600\n 29915: a1 = u64 [a2 + 0x48]\n 29918: a3 = s1 + 0x100\n 29922: u64 [a3 + 0xd8] = a1\n 29926: a1 = u64 [a2 + 0x40]\n 29929: u64 [a3 + 0xd0] = a1\n 29933: a1 = u64 [a2 + 0x38]\n 29936: u64 [a3 + 0xc0] = a1\n 29940: a0 = u64 [a2 + 0x30]\n 29943: u64 [a3 + 0xc8] = a0\n 29947: fallthrough\n      : @1137 (gas: 19)\n 29948: a0 = u64 [s1 + 0x20]\n 29951: a1 = u64 [s1 + 0x10]\n 29954: a0 = a0 | a1\n 29957: u64 [s1 + 0x210] = a0\n 29961: a0 = u64 [s1 + 0x38]\n 29964: a1 = u64 [s1 + 0x30]\n 29967: a0 = a0 | a1\n 29970: u64 [s1 + 0x208] = a0\n 29974: a0 = u64 [s1 + 0x28]\n 29977: a1 = u64 [s1 + 0x18]\n 29980: a0 = a0 | a1\n 29983: u64 [s1 + 0x200] = a0\n 29987: a1 = u64 [s1 + 0x78]\n 29990: a1 = a1 << 0x3\n 29993: u64 [s1 + 0x218] = a1\n 29997: i32 a2 = 0x80 - a1\n 30001: a0 = 0xffffffffffffffff\n 30004: a1 = 0xffffffffffffffff\n 30007: ra = 1200, jump @1667\n      : @1138 [@dyn 600] (gas: 7)\n 30013: u64 [s1 + 0x1e0] = a0\n 30017: u64 [s1 + 0x1f8] = a1\n 30021: a0 = u64 [s1 + 0x78]\n 30024: i32 a2 = a0 << 0x3\n 30027: a0 = 0xffffffffffffffff\n 30030: a1 = 0xffffffffffffffff\n 30033: ra = 1202, jump @1662\n      : @1139 [@dyn 601] (gas: 10)\n 30039: u64 [s1 + 0x1f0] = a0\n 30043: u64 [s1 + 0x1e8] = a1\n 30047: a1 = u64 [s1 + 0x1e0]\n 30051: a0 = a0 | a1\n 30054: u64 [s1 + 0x1e0] = a0\n 30058: a0 = u64 [s1 + 0x218]\n 30062: i32 a2 = a0 + 0xffffffffffffff80\n 30065: a0 = 0xffffffffffffffff\n 30068: a1 = 0xffffffffffffffff\n 30071: ra = 1204, jump @1662\n      : @1140 [@dyn 602] (gas: 7)\n 30077: a4 = u64 [s1 + 0x218]\n 30081: a2 = a4 <u 0x80\n 30085: a3 = u64 [s1 + 0x1e0]\n 30089: a0 = a3 if a2 != 0\n 30092: a5 = u64 [s1 + 0x1e8]\n 30096: a3 = u64 [s1 + 0x1f8]\n 30100: t0 = 1206, jump @1655\n      : @1141 [@dyn 603] (gas: 27)\n 30106: a4 = u64 [s1 + 0x1f0]\n 30110: a4 = 0 if a2 == 0\n 30112: a1 = u64 [s1 + 0x1c0]\n 30116: a1 = a1 & ~a3\n 30119: a2 = u64 [s1 + 0x1c8]\n 30123: a0 = a2 & ~a0\n 30126: a2 = u64 [s1 + 0x1d0]\n 30130: a2 = a2 & ~a4\n 30133: a3 = u64 [s1 + 0x1d8]\n 30137: a3 = a3 & ~a5\n 30140: a4 = u64 [s1 + 0x40]\n 30143: a0 = a0 | a4\n 30146: a5 = s1 + 0x200\n 30150: a4 = u64 [a5]\n 30152: a1 = a1 | a4\n 30155: a4 = u64 [a5 + 0x8]\n 30158: a3 = a3 | a4\n 30161: a4 = u64 [a5 + 0x10]\n 30164: a2 = a2 | a4\n 30167: a4 = s1 + 0x3198\n 30171: a5 = a4 + 0x500\n 30175: u64 [a5 + 0xd8] = a2\n 30179: u64 [a5 + 0xe0] = a3\n 30183: u64 [a5 + 0xd0] = a1\n 30187: u64 [a5 + 0xc8] = a0\n 30191: a0 = 0x3760\n 30195: fallthrough\n      : @1142 (gas: 3)\n 30196: a1 = s1 + a0\n 30199: a0 = u64 [s1 + 0x60]\n 30202: ra = 1208, jump @23\n      : @1143 [@dyn 604] (gas: 6)\n 30208: a0 = sp + 0xffffffffffffffe0\n 30211: a2 = a0 & 0xffffffffffffffe0\n 30214: sp = a2\n 30216: a0 = u64 [s1 + 0x80]\n 30220: a3 = a0 + 0x3\n 30223: t0 = 1210, jump @1656\n      : @1144 [@dyn 605] (gas: 18)\n 30229: a5 = a0 + a1\n 30232: a0 = a5 <u a0\n 30235: a1 = u64 [s1 + 0x90]\n 30239: a0 = a0 + a1\n 30242: a1 = s1 + 0x200\n 30246: u64 [a1] = a5\n 30248: u64 [a2 + 0x10] = a5\n 30251: u64 [a1 + 0x10] = a4\n 30254: u64 [a2 + 0x8] = a4\n 30257: u64 [a1 + 0x18] = a3\n 30260: u64 [a2] = a3\n 30262: u64 [s1 + 0x78] = a2\n 30265: u64 [a1 + 0x8] = a0\n 30268: u64 [a2 + 0x18] = a0\n 30271: a0 = s1 + 0x7ff\n 30275: a0 = a0 + 0x761\n 30279: a1 = u64 [s1 + 0x118]\n 30283: ra = 1212, jump @17\n      : @1145 [@dyn 606] (gas: 20)\n 30289: a0 = s1 + 0x7ff\n 30293: a0 = a0 + 0x191\n 30297: a5 = a0 + 0x500\n 30301: a3 = u64 [a5 + 0xe8]\n 30305: a4 = u64 [a5 + 0xe0]\n 30309: a2 = u64 [a5 + 0xd8]\n 30313: a1 = u64 [a5 + 0xd0]\n 30317: a5 = s1 + 0x100\n 30321: u64 [a5 + 0x88] = a2\n 30325: u64 [a5 + 0x80] = a3\n 30329: a0 = a2 | a3\n 30332: u64 [a5 + 0x90] = a1\n 30336: a1 = a1 | a4\n 30339: a1 = a1 | a0\n 30342: a1 = a1 >> 0x20\n 30345: u64 [a5 + 0x78] = a4\n 30348: a0 = a0 | a4\n 30351: a0 = a0 << 0x20\n 30354: a0 = a0 | a1\n 30357: jump @1111 if a0 != 0\n      : @1146 (gas: 4)\n 30361: a0 = s1 + 0x7ff\n 30365: a0 = a0 + 0x741\n 30369: a1 = u64 [s1 + 0x190]\n 30373: ra = 1214, jump @17\n      : @1147 [@dyn 607] (gas: 20)\n 30379: a0 = s1 + 0x7ff\n 30383: a0 = a0 + 0x191\n 30387: a4 = a0 + 0x500\n 30391: a3 = u64 [a4 + 0xc8]\n 30395: a2 = u64 [a4 + 0xc0]\n 30399: a1 = u64 [a4 + 0xb8]\n 30403: a0 = a3 >u 0\n 30405: a4 = a2 >u 0\n 30407: a4 = a0 if a3 != 0\n 30410: u64 [s1 + 0x60] = a1\n 30413: a0 = a1 >u 0\n 30415: u64 [s1 + 0x68] = a2\n 30418: u64 [s1 + 0x48] = a3\n 30421: a2 = a2 | a3\n 30424: a1 = s1 + 0x100\n 30428: u64 [a1 + 0xe0] = a0\n 30432: u64 [a1 + 0xe8] = a4\n 30436: u64 [a1 + 0xf8] = a2\n 30440: a0 = a4 if a2 != 0\n 30443: jump @1149 if a0 == 0\n      : @1148 (gas: 1)\n 30446: jump @1329\n      : @1149 (gas: 8)\n 30449: a0 = s1 + 0x7ff\n 30453: a0 = a0 + 0x191\n 30457: a0 = u64 [a0 + 0x5b0]\n 30461: u64 [s1 + 0x118] = a0\n 30465: a0 = s1 + 0x7ff\n 30469: a0 = a0 + 0x721\n 30473: a1 = u64 [s1 + 0x78]\n 30476: ra = 1216, jump @21\n      : @1150 [@dyn 608] (gas: 16)\n 30482: a4 = s1 + 0x7ff\n 30486: a4 = a4 + 0x191\n 30490: a5 = a4 + 0x500\n 30494: a2 = u64 [a5 + 0x90]\n 30498: a0 = u64 [a5 + 0x98]\n 30502: a1 = u64 [a5 + 0xa0]\n 30506: a3 = u64 [a5 + 0xa8]\n 30510: u64 [a5 + 0x68] = a3\n 30513: u64 [a5 + 0x60] = a1\n 30516: u64 [a5 + 0x58] = a0\n 30519: a0 = s1 + 0x7ff\n 30523: a0 = a0 + 0x701\n 30527: a1 = s1 + 0x7ff\n 30531: a1 = a1 + 0x6e1\n 30535: u64 [a5 + 0x50] = a2\n 30538: ra = 1218, jump @1354\n      : @1151 [@dyn 609] (gas: 25)\n 30544: a0 = s1 + 0x7ff\n 30548: a0 = a0 + 0x191\n 30552: a1 = a0 + 0x500\n 30556: a3 = u64 [a1 + 0x88]\n 30560: a4 = u64 [a1 + 0x80]\n 30564: a5 = u64 [a1 + 0x78]\n 30567: a2 = u64 [a1 + 0x70]\n 30570: a0 = a3 >u 0\n 30572: a1 = a4 >u 0\n 30574: a1 = a0 if a3 != 0\n 30577: a0 = a5 >u 0\n 30579: u64 [s1 + 0x1c0] = a2\n 30583: a2 = a2 <u 0x20\n 30586: a2 = a2 ^ 0x1\n 30589: u64 [s1 + 0x1c8] = a5\n 30593: a2 = a0 if a5 != 0\n 30596: a5 = s1 + 0x100\n 30600: u64 [a5 + 0xd0] = a3\n 30604: u64 [a5 + 0xd8] = a4\n 30608: a0 = a4 | a3\n 30611: a2 = a1 if a0 != 0\n 30614: a0 = u64 [a5 + 0x18]\n 30617: a0 = a0 <u 0x20\n 30620: u64 [a5 + 0xf0] = a0\n 30624: jump @1156 if a2 == 0\n      : @1152 (gas: 16)\n 30628: a2 = s1 + 0x7ff\n 30632: a2 = a2 + 0x191\n 30636: a3 = s1 + 0x200\n 30640: a0 = u64 [a3 + 0x18]\n 30643: a4 = a2 + 0x500\n 30647: u64 [a4 + 0x30] = a0\n 30650: a0 = u64 [a3 + 0x10]\n 30653: u64 [a4 + 0x38] = a0\n 30656: a0 = u64 [a3]\n 30658: u64 [a4 + 0x40] = a0\n 30661: a1 = s1 + 0x7ff\n 30665: a1 = a1 + 0x6c1\n 30669: a0 = u64 [a3 + 0x8]\n 30672: u64 [a4 + 0x48] = a0\n 30675: a0 = 0\n 30677: ra = 1220, jump @19\n      : @1153 [@dyn 610] (gas: 3)\n 30683: a1 = 0x20\n 30686: a0 = 0\n 30688: ra = 1222, jump @29\n      : @1154 [@dyn 611] (gas: 4)\n 30694: a1 = sp + 0xffffffffffffffe0\n 30697: a1 = a1 & 0xffffffffffffffe0\n 30700: u64 [s1 + 0x1b8] = a1\n 30704: t0 = 1224, jump @1631\n      : @1155 [@dyn 612] (gas: 120)\n 30710: ecalli 7 // 'hash_keccak_256'\n 30712: a1 = u64 [s1 + 0x118]\n 30716: a0 = a1 + 0x1f\n 30719: a1 = a0 <u a1\n 30722: a4 = u64 [s1 + 0x60]\n 30725: a2 = a4 + a1\n 30728: t2 = a2 <u a4\n 30731: t2 = a1 if a1 == 0\n 30734: a1 = u64 [s1 + 0x68]\n 30737: a1 = a1 + t2\n 30740: u64 [s1 + 0x38] = a1\n 30743: a1 = a1 << 0x3b\n 30746: a3 = a2 >> 0x5\n 30749: t1 = a3 | a1\n 30752: a3 = u64 [s1 + 0x1b8]\n 30756: a1 = u64 [a3 + 0x18]\n 30759: a2 = a2 << 0x3b\n 30762: a3 = u64 [a3 + 0x10]\n 30765: a0 = a0 >> 0x5\n 30768: a0 = a0 | a2\n 30771: t2 = reverse a1\n 30773: a5 = reverse a3\n 30775: a3 = u64 [s1 + 0x1f0]\n 30779: a3 = 0 if a4 != 0\n 30781: a1 = u64 [s1 + 0x1f8]\n 30785: a3 = 0 if a1 != 0\n 30787: t1 = 0 if a3 != 0\n 30789: a0 = 0 if a3 != 0\n 30791: a0 = a0 + t2\n 30794: u64 [s1 + 0x170] = a0\n 30798: a1 = a0 <u t2\n 30801: a0 = a5 + a1\n 30804: a0 = a0 + t1\n 30807: u64 [s1 + 0x40] = a0\n 30810: a2 = a0 ^ a5\n 30813: ra = a0 <u a5\n 30816: ra = a1 if a2 == 0\n 30819: a0 = u64 [s1 + 0x1c0]\n 30823: t0 = a0 + 0x1f\n 30826: a0 = t0 <u a0\n 30829: a1 = u64 [s1 + 0x1c8]\n 30833: a4 = a1 + a0\n 30836: a2 = a4 <u a1\n 30839: a2 = a0 if a0 == 0\n 30842: t1 = u64 [s1 + 0x1d8]\n 30846: t1 = t1 + a2\n 30849: a0 = t1 << 0x3b\n 30852: a1 = a4 >> 0x5\n 30855: a0 = a0 | a1\n 30858: a4 = a4 << 0x3b\n 30861: a1 = t0 >> 0x5\n 30864: a1 = a1 | a4\n 30867: a1 = a1 + t2\n 30870: u64 [s1 + 0x1c8] = a1\n 30874: a4 = a1 <u t2\n 30877: t0 = a5 + a4\n 30880: t0 = t0 + a0\n 30883: a0 = t0 ^ a5\n 30886: a5 = t0 <u a5\n 30889: a5 = a4 if a0 == 0\n 30892: a1 = u64 [s1 + 0x38]\n 30895: a0 = u64 [s1 + 0x68]\n 30898: a0 = a1 <u a0\n 30901: a4 = u64 [s1 + 0x48]\n 30904: a4 = a4 + a0\n 30907: t2 = a1 >> 0x5\n 30910: a0 = a4 << 0x3b\n 30913: a0 = t2 | a0\n 30916: a1 = u64 [s1 + 0x1b8]\n 30920: t2 = u64 [a1]\n 30922: a1 = u64 [a1 + 0x8]\n 30925: a4 = a4 >> 0x5\n 30928: a0 = 0 if a3 != 0\n 30930: a4 = 0 if a3 != 0\n 30932: a3 = reverse a1\n 30934: a1 = reverse t2\n 30936: a4 = a4 + a1\n 30939: a0 = a0 + a3\n 30942: a2 = a0 <u a3\n 30945: a2 = a2 + a4\n 30948: ra = ra + a0\n 30951: t2 = ra <u a0\n 30954: t2 = t2 + a2\n 30957: a0 = u64 [s1 + 0x1d8]\n 30961: a0 = t1 <u a0\n 30964: a2 = u64 [s1 + 0x1d0]\n 30968: a0 = a0 + a2\n 30971: a2 = t1 >> 0x5\n 30974: a4 = a0 << 0x3b\n 30977: a2 = a2 | a4\n 30980: a0 = a0 >> 0x5\n 30983: a0 = a0 + a1\n 30986: a2 = a2 + a3\n 30989: a1 = a2 <u a3\n 30992: a0 = a0 + a1\n 30995: a5 = a5 + a2\n 30998: a1 = a5 <u a2\n 31001: a0 = a0 + a1\n 31004: a1 = s1 + 0x7ff\n 31008: a1 = a1 + 0x191\n 31012: a2 = u64 [s1 + 0x1c8]\n 31016: u64 [a1 + 0x4f0] = a2\n 31020: a2 = u64 [s1 + 0x170]\n 31024: a3 = a1 + 0x500\n 31028: u64 [a3 + 0x10] = a2\n 31031: u64 [a1 + 0x4f8] = t0\n 31035: a2 = u64 [s1 + 0x40]\n 31038: u64 [a3 + 0x18] = a2\n 31041: u64 [a3] = a5\n 31043: u64 [a1 + 0x520] = ra\n 31047: u64 [a3 + 0x8] = a0\n 31050: a2 = a1\n 31052: a0 = s1 + 0x7ff\n 31056: a0 = a0 + 0x6a1\n 31060: a1 = s1 + 0x7ff\n 31064: a1 = a1 + 0x681\n 31068: u64 [a2 + 0x528] = t2\n 31072: ra = 0x4ca\n 31076: t0 = 0x5fa\n 31080: jump @1661\n      : @1156 [@dyn 613] (gas: 13)\n 31083: a4 = s1 + 0x100\n 31087: a0 = u64 [a4 + 0xf0]\n 31091: a0 = a0 ^ 0x1\n 31094: a1 = u64 [s1 + 0x60]\n 31097: a2 = u64 [a4 + 0xe0]\n 31101: a0 = a2 if a1 != 0\n 31104: a2 = u64 [a4 + 0xe8]\n 31108: a3 = u64 [a4 + 0xf8]\n 31112: a0 = a2 if a3 != 0\n 31115: a2 = u64 [s1 + 0x48]\n 31118: a1 = a1 | a2\n 31121: u64 [s1 + 0x40] = a1\n 31124: jump @1171 if a0 == 0\n      : @1157 (gas: 18)\n 31128: a0 = u64 [s1 + 0x118]\n 31132: a0 = a0 & 0xffffffffffffffe0\n 31135: u64 [s1 + 0x170] = a0\n 31139: a0 = s1 + 0x7ff\n 31143: a0 = a0 + 0x191\n 31147: a1 = u64 [s1 + 0x218]\n 31151: a3 = a0 + 0x400\n 31155: u64 [a3 + 0xb0] = a1\n 31159: a1 = u64 [s1 + 0x210]\n 31163: u64 [a3 + 0xb8] = a1\n 31167: a1 = u64 [s1 + 0x200]\n 31171: u64 [a3 + 0xc0] = a1\n 31175: a1 = s1 + 0x7ff\n 31179: a1 = a1 + 0x641\n 31183: a2 = u64 [s1 + 0x208]\n 31187: u64 [a3 + 0xc8] = a2\n 31191: a0 = 0\n 31193: ra = 1228, jump @19\n      : @1158 [@dyn 614] (gas: 7)\n 31199: a0 = sp + 0xffffffffffffffe0\n 31202: a0 = a0 & 0xffffffffffffffe0\n 31205: u64 [s1 + 0x1f0] = a0\n 31209: sp = a0\n 31211: a1 = 0x20\n 31214: a0 = 0\n 31216: ra = 1230, jump @29\n      : @1159 [@dyn 615] (gas: 4)\n 31222: a1 = sp + 0xffffffffffffffe0\n 31225: a1 = a1 & 0xffffffffffffffe0\n 31228: u64 [s1 + 0x1e8] = a1\n 31232: t0 = 1232, jump @1631\n      : @1160 [@dyn 616] (gas: 4)\n 31238: ra = 0x4d2\n 31242: ecalli 7 // 'hash_keccak_256'\n 31244: t0 = 0x4d4\n 31248: jump @1645\n      : @1161 [@dyn 617] (gas: 1)\n 31251: t0 = 1236, jump @1645\n      : @1162 [@dyn 618] (gas: 1)\n 31257: t0 = 1238, jump @1608\n      : @1163 [@dyn 619] (gas: 9)\n 31263: t0 = a0\n 31265: a1 = u64 [s1 + 0x1f0]\n 31269: u64 [a1 + 0x18] = a0\n 31272: u64 [s1 + 0x1d0] = ra\n 31276: u64 [a1 + 0x10] = ra\n 31279: u64 [a1 + 0x8] = t2\n 31282: u64 [a1] = t1\n 31284: u64 [s1 + 0x1e8] = t0\n 31288: t0 = 1240, jump @1599\n      : @1164 [@dyn 620] (gas: 1)\n 31294: jump @1173 if a4 != 0\n      : @1165 (gas: 14)\n 31298: a4 = u64 [s1 + 0x218]\n 31302: a4 = a1 <u a4\n 31305: ra = ra + a4\n 31308: t0 = ra ^ a3\n 31311: u64 [s1 + 0x1b8] = a3\n 31315: a5 = ra <u a3\n 31318: a5 = a4 if t0 == 0\n 31321: a5 = a5 + a2\n 31324: t0 = a5 <u a2\n 31327: a3 = u64 [s1 + 0x210]\n 31331: a2 = a2 <u a3\n 31334: a0 = a0 + a2\n 31337: a0 = a0 + t0\n 31340: t0 = 1242, jump @1637\n      : @1166 [@dyn 621] (gas: 1)\n 31346: jump @1111 if a0 != 0\n      : @1167 (gas: 3)\n 31350: a0 = s1 + 0x7ff\n 31354: a0 = a0 + 0x1e1\n 31358: ra = 1244, jump @17\n      : @1168 [@dyn 622] (gas: 15)\n 31364: a3 = s1 + 0x7ff\n 31368: a3 = a3 + 0x191\n 31372: a0 = u64 [a3 + 0x68]\n 31375: a1 = u64 [a3 + 0x60]\n 31378: a2 = u64 [a3 + 0x58]\n 31381: a3 = u64 [a3 + 0x50]\n 31384: a4 = s1 + 0x3198\n 31388: u64 [a4 + 0x600] = a0\n 31392: a0 = a4 + 0x500\n 31396: u64 [a0 + 0xf8] = a1\n 31400: u64 [a0 + 0xf0] = a2\n 31404: u64 [a0 + 0xe8] = a3\n 31408: a1 = s1 + 0x3780\n 31412: a0 = u64 [s1 + 0x1f0]\n 31416: ra = 1246, jump @23\n      : @1169 [@dyn 623] (gas: 1)\n 31422: t0 = 1248, jump @1596\n      : @1170 [@dyn 624] (gas: 18)\n 31428: t0 = u64 [s1 + 0x200]\n 31432: t0 = t0 + a5\n 31435: u64 [s1 + 0x200] = t0\n 31439: a5 = u64 [s1 + 0x1f0]\n 31443: u64 [a5 + 0x8] = t2\n 31446: u64 [a5] = t1\n 31448: u64 [a5 + 0x10] = ra\n 31451: t0 = a0\n 31453: u64 [a5 + 0x18] = a0\n 31456: u64 [s1 + 0x1d0] = ra\n 31460: a0 = u64 [s1 + 0x1e8]\n 31464: u64 [s1 + 0x218] = a0\n 31468: a5 = u64 [s1 + 0x1c8]\n 31472: u64 [s1 + 0x210] = a3\n 31476: a3 = a1\n 31478: u64 [s1 + 0x1e8] = t0\n 31482: t0 = 0x4d8\n 31486: jump @1599\n      : @1171 (gas: 6)\n 31489: a0 = u64 [s1 + 0x118]\n 31493: a1 = u64 [s1 + 0x68]\n 31496: a0 = a0 | a1\n 31499: a1 = u64 [s1 + 0x40]\n 31502: a0 = a0 | a1\n 31505: jump @1185 if a0 != 0\n      : @1172 (gas: 5)\n 31509: u64 [s1 + 512] = 0\n 31513: u64 [s1 + 504] = 0\n 31517: u64 [s1 + 520] = 0\n 31521: u64 [s1 + 528] = 0\n 31525: jump @1189\n      : @1173 (gas: 10)\n 31528: t1 = u64 [s1 + 0x210]\n 31532: t0 = u64 [s1 + 0x218]\n 31536: a4 = u64 [s1 + 0x118]\n 31540: a5 = u64 [s1 + 0x170]\n 31544: a4 = a4 ^ a5\n 31547: a5 = u64 [s1 + 0x68]\n 31550: a4 = a4 | a5\n 31553: a5 = u64 [s1 + 0x40]\n 31556: a4 = a4 | a5\n 31559: jump @1184 if a4 == 0\n      : @1174 (gas: 7)\n 31563: t2 = a3\n 31565: a4 = a1 <u t0\n 31568: a3 = ra + a4\n 31571: t0 = a3 ^ t2\n 31574: a5 = a3 <u t2\n 31577: a5 = a4 if t0 == 0\n 31580: t0 = 1250, jump @1625\n      : @1175 [@dyn 625] (gas: 1)\n 31586: jump @1111 if a0 != 0\n      : @1176 (gas: 3)\n 31590: a0 = s1 + 0x7ff\n 31594: a0 = a0 + 0x621\n 31598: ra = 1252, jump @17\n      : @1177 [@dyn 626] (gas: 13)\n 31604: a0 = s1 + 0x7ff\n 31608: a0 = a0 + 0x191\n 31612: a2 = a0 + 0x400\n 31616: a1 = u64 [a2 + 0xa8]\n 31620: u64 [s1 + 0x210] = a1\n 31624: a1 = u64 [a2 + 0xa0]\n 31628: u64 [s1 + 0x208] = a1\n 31632: a1 = u64 [a2 + 0x98]\n 31636: u64 [s1 + 0x200] = a1\n 31640: a0 = u64 [a2 + 0x90]\n 31644: u64 [s1 + 0x1f8] = a0\n 31648: a0 = u64 [s1 + 0x118]\n 31652: t0 = 1254, jump @1648\n      : @1178 [@dyn 627] (gas: 1)\n 31658: ra = 1256, jump @1667\n      : @1179 [@dyn 628] (gas: 6)\n 31664: u64 [s1 + 0x1e8] = a0\n 31668: u64 [s1 + 0x1d0] = a1\n 31672: a0 = 0xffffffffffffffff\n 31675: a1 = 0xffffffffffffffff\n 31678: a2 = u64 [s1 + 0x218]\n 31682: ra = 1258, jump @1662\n      : @1180 [@dyn 629] (gas: 1)\n 31688: t0 = 1260, jump @1627\n      : @1181 [@dyn 630] (gas: 1)\n 31694: ra = 1262, jump @1662\n      : @1182 [@dyn 631] (gas: 1)\n 31700: t0 = 1264, jump @1597\n      : @1183 [@dyn 632] (gas: 8)\n 31706: a5 = a4 + 0x600\n 31710: u64 [a5 + 0x20] = a3\n 31713: u64 [a5 + 0x18] = a2\n 31716: u64 [a5 + 0x10] = a1\n 31719: u64 [a5 + 0x8] = a0\n 31722: a1 = s1 + 0x37a0\n 31726: a0 = u64 [s1 + 0x1f0]\n 31730: ra = 1266, jump @23\n      : @1184 [@dyn 633] (gas: 23)\n 31736: a2 = u64 [s1 + 0x68]\n 31739: a0 = a2 >> 0x3f\n 31742: a1 = u64 [s1 + 0x48]\n 31745: a1 = a1 << 0x1\n 31748: a0 = a0 | a1\n 31751: a3 = u64 [s1 + 0x60]\n 31754: a1 = a3 >> 0x3f\n 31757: a2 = a2 << 0x1\n 31760: a1 = a1 | a2\n 31763: a4 = u64 [s1 + 0x118]\n 31767: a2 = a4 >> 0x3f\n 31770: a3 = a3 << 0x1\n 31773: a2 = a2 | a3\n 31776: a3 = a4 << 0x1\n 31779: a3 = a3 + 0x1\n 31782: a4 = s1 + 0x3198\n 31786: a5 = a4 + 0x600\n 31790: u64 [a5 + 0x28] = a3\n 31793: u64 [a5 + 0x30] = a2\n 31796: u64 [a5 + 0x38] = a1\n 31799: u64 [a5 + 0x40] = a0\n 31802: a0 = 0x37c0\n 31806: jump @1194\n      : @1185 (gas: 1)\n 31809: t0 = 1268, jump @1622\n      : @1186 [@dyn 634] (gas: 1)\n 31815: jump @1111 if a1 == 0\n      : @1187 (gas: 5)\n 31819: a0 = u64 [s1 + 0x190]\n 31823: i32 a1 = a0 + 0x20\n 31826: a0 = s1 + 0x7ff\n 31830: a0 = a0 + 0x661\n 31834: ra = 1270, jump @17\n      : @1188 [@dyn 635] (gas: 13)\n 31840: a0 = s1 + 0x7ff\n 31844: a0 = a0 + 0x191\n 31848: a2 = a0 + 0x400\n 31852: a1 = u64 [a2 + 0xe8]\n 31856: a3 = s1 + 0x200\n 31860: u64 [a3 + 0x10] = a1\n 31863: a1 = u64 [a2 + 0xe0]\n 31867: u64 [a3 + 0x8] = a1\n 31870: a1 = u64 [a2 + 0xd8]\n 31874: u64 [s1 + 0x1f8] = a1\n 31878: a0 = u64 [a2 + 0xd0]\n 31882: u64 [a3] = a0\n 31884: fallthrough\n      : @1189 (gas: 24)\n 31885: a2 = u64 [s1 + 0x60]\n 31888: a0 = a2 >> 0x3f\n 31891: a3 = u64 [s1 + 0x68]\n 31894: a1 = a3 << 0x1\n 31897: a0 = a0 | a1\n 31900: u64 [s1 + 0x1f0] = a0\n 31904: a0 = a3 >> 0x3f\n 31907: a1 = u64 [s1 + 0x48]\n 31910: a1 = a1 << 0x1\n 31913: a0 = a0 | a1\n 31916: u64 [s1 + 0x1e8] = a0\n 31920: a3 = u64 [s1 + 0x118]\n 31924: a0 = a3 >> 0x3f\n 31927: a1 = a2 << 0x1\n 31930: a0 = a0 | a1\n 31933: u64 [s1 + 0x1e0] = a0\n 31937: a0 = a3 << 0x1\n 31940: u64 [s1 + 0x1d8] = a0\n 31944: a1 = a3 << 0x3\n 31947: u64 [s1 + 0x218] = a1\n 31951: i32 a2 = 0x80 - a1\n 31955: a0 = 0xffffffffffffffff\n 31958: a1 = 0xffffffffffffffff\n 31961: ra = 1272, jump @1667\n      : @1190 [@dyn 636] (gas: 7)\n 31967: u64 [s1 + 0x1b8] = a0\n 31971: u64 [s1 + 0x1d0] = a1\n 31975: a0 = u64 [s1 + 0x118]\n 31979: i32 a2 = a0 << 0x3\n 31982: a0 = 0xffffffffffffffff\n 31985: a1 = 0xffffffffffffffff\n 31988: ra = 1274, jump @1662\n      : @1191 [@dyn 637] (gas: 10)\n 31994: u64 [s1 + 0x1c8] = a0\n 31998: u64 [s1 + 0x1c0] = a1\n 32002: a1 = u64 [s1 + 0x1b8]\n 32006: a0 = a0 | a1\n 32009: u64 [s1 + 0x1b8] = a0\n 32013: a0 = u64 [s1 + 0x218]\n 32017: i32 a2 = a0 + 0xffffffffffffff80\n 32020: a0 = 0xffffffffffffffff\n 32023: a1 = 0xffffffffffffffff\n 32026: ra = 1276, jump @1662\n      : @1192 [@dyn 638] (gas: 7)\n 32032: a4 = u64 [s1 + 0x218]\n 32036: a2 = a4 <u 0x80\n 32040: a3 = u64 [s1 + 0x1b8]\n 32044: a0 = a3 if a2 != 0\n 32047: a5 = u64 [s1 + 0x1c0]\n 32051: a3 = u64 [s1 + 0x1d0]\n 32055: t0 = 1278, jump @1655\n      : @1193 [@dyn 639] (gas: 27)\n 32061: a4 = u64 [s1 + 0x1c8]\n 32065: a4 = 0 if a2 == 0\n 32067: a1 = u64 [s1 + 0x1f8]\n 32071: a1 = a1 & ~a3\n 32074: a2 = u64 [s1 + 0x200]\n 32078: a0 = a2 & ~a0\n 32081: a2 = u64 [s1 + 0x208]\n 32085: a2 = a2 & ~a4\n 32088: a3 = u64 [s1 + 0x210]\n 32092: a3 = a3 & ~a5\n 32095: a5 = s1 + 0x100\n 32099: a4 = u64 [a5 + 0xd8]\n 32103: a0 = a0 | a4\n 32106: a4 = u64 [a5 + 0xe0]\n 32110: a1 = a1 | a4\n 32113: a4 = u64 [a5 + 0xe8]\n 32117: a3 = a3 | a4\n 32120: a4 = u64 [a5 + 0xf0]\n 32124: a2 = a2 | a4\n 32127: a4 = s1 + 0x3198\n 32131: a5 = a4 + 0x600\n 32135: u64 [a5 + 0x58] = a2\n 32138: u64 [a5 + 0x60] = a3\n 32141: u64 [a5 + 0x50] = a1\n 32144: u64 [a5 + 0x48] = a0\n 32147: a0 = 0x37e0\n 32151: fallthrough\n      : @1194 (gas: 3)\n 32152: a1 = s1 + a0\n 32155: a0 = u64 [s1 + 0x78]\n 32158: ra = 1280, jump @23\n      : @1195 [@dyn 640] (gas: 4)\n 32164: a0 = s1 + 0x7ff\n 32168: a0 = a0 + 0x601\n 32172: a1 = u64 [s1 + 0x110]\n 32176: ra = 1282, jump @17\n      : @1196 [@dyn 641] (gas: 32)\n 32182: a0 = s1 + 0x7ff\n 32186: a0 = a0 + 0x191\n 32190: t0 = u64 [a0 + 0x470]\n 32194: t1 = u64 [a0 + 0x478]\n 32198: t2 = u64 [a0 + 0x480]\n 32202: a1 = a0\n 32204: a0 = u64 [s1 + 0x80]\n 32208: a3 = a0 + 0x4\n 32211: a4 = a3 <u a0\n 32214: a0 = u64 [s1 + 0x88]\n 32218: a5 = a0 + a4\n 32221: a0 = a5 <u a0\n 32224: a0 = a4 if a4 == 0\n 32227: a4 = u64 [a1 + 0x488]\n 32231: a2 = s1 + 0x3198\n 32235: u64 [a2 + 0x670] = a5\n 32239: a5 = a2 + 0x600\n 32243: u64 [a5 + 0x68] = a3\n 32246: a1 = u64 [s1 + 0xc0]\n 32250: a0 = a0 + a1\n 32253: u64 [a5 + 0x78] = a0\n 32256: a0 = a0 <u a1\n 32259: a1 = u64 [s1 + 0x90]\n 32263: a0 = a0 + a1\n 32266: u64 [a5 + 0x80] = a0\n 32270: u64 [a5 + 0xa0] = a4\n 32274: u64 [a2 + 0x698] = t2\n 32278: u64 [a2 + 0x690] = t1\n 32282: u64 [a2 + 0x688] = t0\n 32286: a0 = s1 + 0x3800\n 32290: a1 = s1 + 0x3820\n 32294: ra = 1284, jump @23\n      : @1197 [@dyn 642] (gas: 4)\n 32300: a0 = s1 + 0x7ff\n 32304: a0 = a0 + 0x5e1\n 32308: a1 = u64 [s1 + 0x108]\n 32312: ra = 1286, jump @17\n      : @1198 [@dyn 643] (gas: 31)\n 32318: a0 = s1 + 0x7ff\n 32322: a0 = a0 + 0x191\n 32326: t0 = u64 [a0 + 0x450]\n 32330: t1 = u64 [a0 + 0x458]\n 32334: t2 = u64 [a0 + 0x460]\n 32338: a3 = u64 [a0 + 0x468]\n 32342: a0 = u64 [s1 + 0x80]\n 32346: a4 = a0 + 0x5\n 32349: a5 = a4 <u a0\n 32352: a1 = u64 [s1 + 0x88]\n 32356: a0 = a1 + a5\n 32359: a1 = a0 <u a1\n 32362: a1 = a5 if a5 == 0\n 32365: a2 = u64 [s1 + 0xc0]\n 32369: a1 = a1 + a2\n 32372: a5 = a1 <u a2\n 32375: a2 = u64 [s1 + 0x90]\n 32379: a5 = a5 + a2\n 32382: a2 = s1 + 0x3198\n 32386: u64 [a2 + 0x6c0] = a5\n 32390: a5 = a2 + 0x600\n 32394: u64 [a5 + 0xb8] = a1\n 32398: u64 [a5 + 0xb0] = a0\n 32402: u64 [a5 + 0xa8] = a4\n 32406: u64 [a5 + 0xe0] = a3\n 32410: u64 [a2 + 0x6d8] = t2\n 32414: u64 [a2 + 0x6d0] = t1\n 32418: u64 [a2 + 0x6c8] = t0\n 32422: a0 = s1 + 0x3840\n 32426: a1 = s1 + 0x3860\n 32430: ra = 1288, jump @23\n      : @1199 [@dyn 644] (gas: 4)\n 32436: a0 = s1 + 0x7ff\n 32440: a0 = a0 + 0x5c1\n 32444: a1 = u64 [s1 + 0xb0]\n 32448: ra = 1290, jump @17\n      : @1200 [@dyn 645] (gas: 31)\n 32454: a0 = s1 + 0x7ff\n 32458: a0 = a0 + 0x191\n 32462: t0 = u64 [a0 + 0x430]\n 32466: t1 = u64 [a0 + 0x438]\n 32470: t2 = u64 [a0 + 0x440]\n 32474: a3 = u64 [a0 + 0x448]\n 32478: a0 = u64 [s1 + 0x80]\n 32482: a4 = a0 + 0x6\n 32485: a5 = a4 <u a0\n 32488: a0 = u64 [s1 + 0x88]\n 32492: a2 = a0 + a5\n 32495: a1 = a2 <u a0\n 32498: a1 = a5 if a5 == 0\n 32501: a0 = u64 [s1 + 0xc0]\n 32505: a1 = a1 + a0\n 32508: a5 = a1 <u a0\n 32511: a0 = u64 [s1 + 0x90]\n 32515: a5 = a5 + a0\n 32518: a0 = s1 + 0x3198\n 32522: u64 [a0 + 0x700] = a5\n 32526: a5 = a0 + 0x600\n 32530: u64 [a5 + 0xf8] = a1\n 32534: u64 [a5 + 0xf0] = a2\n 32538: u64 [a5 + 0xe8] = a4\n 32542: u64 [a0 + 0x720] = a3\n 32546: u64 [a0 + 0x718] = t2\n 32550: u64 [a0 + 0x710] = t1\n 32554: u64 [a0 + 0x708] = t0\n 32558: a0 = s1 + 0x3880\n 32562: a1 = s1 + 0x38a0\n 32566: ra = 1292, jump @23\n      : @1201 [@dyn 646] (gas: 28)\n 32572: a0 = sp + 0xffffffffffffffe0\n 32575: a5 = a0 & 0xffffffffffffffe0\n 32578: sp = a5\n 32580: a0 = u64 [s1 + 0x80]\n 32584: a2 = a0 + 0x7\n 32587: a0 = a2 <u a0\n 32590: a1 = u64 [s1 + 0x88]\n 32594: a3 = a1 + a0\n 32597: a1 = a3 <u a1\n 32600: a1 = a0 if a0 == 0\n 32603: a0 = u64 [s1 + 0xc0]\n 32607: a1 = a1 + a0\n 32610: a0 = a1 <u a0\n 32613: a4 = u64 [s1 + 0x90]\n 32617: a0 = a0 + a4\n 32620: u64 [s1 + 0x1e0] = a0\n 32624: u64 [a5 + 0x18] = a0\n 32627: u64 [s1 + 0x1d0] = a1\n 32631: u64 [a5 + 0x10] = a1\n 32634: u64 [s1 + 0x1d8] = a3\n 32638: u64 [a5 + 0x8] = a3\n 32641: u64 [s1 + 0x200] = a2\n 32645: u64 [s1 + 0x218] = a5\n 32649: u64 [a5] = a2\n 32651: a0 = s1 + 0x7ff\n 32655: a0 = a0 + 0x5a1\n 32659: a1 = u64 [s1 + 0xa8]\n 32663: ra = 1294, jump @17\n      : @1202 [@dyn 647] (gas: 24)\n 32669: a0 = s1 + 0x7ff\n 32673: a0 = a0 + 0x191\n 32677: a5 = a0 + 0x400\n 32681: a1 = u64 [a5 + 0x28]\n 32684: a2 = u64 [a5 + 0x20]\n 32687: a3 = u64 [a5 + 0x18]\n 32690: a4 = u64 [a5 + 0x10]\n 32693: a0 = sp + 0xffffffffffffffe0\n 32696: a0 = a0 & 0xffffffffffffffe0\n 32699: u64 [s1 + 0x208] = a0\n 32703: sp = a0\n 32705: a5 = s1 + 0x100\n 32709: u64 [a5 + 0xf8] = a1\n 32713: u64 [a5 + 0xe8] = a3\n 32717: a0 = a3 | a1\n 32720: u64 [s1 + 0x210] = a4\n 32724: a1 = a4 | a2\n 32727: a1 = a1 | a0\n 32730: a1 = a1 >> 0x20\n 32733: u64 [a5 + 0xf0] = a2\n 32737: a0 = a0 | a2\n 32740: a0 = a0 << 0x20\n 32743: a0 = a0 | a1\n 32746: jump @1204 if a0 == 0\n      : @1203 (gas: 1)\n 32749: jump @1111\n      : @1204 (gas: 4)\n 32752: a0 = s1 + 0x7ff\n 32756: a0 = a0 + 0x581\n 32760: a1 = u64 [s1 + 0x210]\n 32764: ra = 1296, jump @17\n      : @1205 [@dyn 648] (gas: 23)\n 32770: a0 = s1 + 0x7ff\n 32774: a0 = a0 + 0x191\n 32778: a2 = u64 [a0 + 0x400]\n 32782: a3 = u64 [a0 + 0x408]\n 32786: a1 = u64 [a0 + 0x3f0]\n 32790: a4 = u64 [a0 + 0x3f8]\n 32794: a5 = u64 [s1 + 0x208]\n 32798: u64 [a5 + 0x10] = a2\n 32801: u64 [a5 + 0x18] = a3\n 32804: u64 [s1 + 0x190] = a1\n 32808: u64 [a5] = a1\n 32810: a0 = a3 >u 0\n 32812: a1 = a2 >u 0\n 32814: a1 = a0 if a3 != 0\n 32817: u64 [s1 + 0x1c0] = a2\n 32821: u64 [s1 + 0x1b8] = a3\n 32825: a0 = a2 | a3\n 32828: a2 = a4 >u 0\n 32830: a2 = a1 if a0 != 0\n 32833: u64 [s1 + 0x188] = a4\n 32837: u64 [a5 + 0x8] = a4\n 32840: a0 = s1 + 0x7ff\n 32844: jump @1207 if a2 == 0\n      : @1206 (gas: 1)\n 32847: jump @1332\n      : @1207 (gas: 3)\n 32850: a0 = a0 + 0x561\n 32854: a1 = u64 [s1 + 0x218]\n 32858: ra = 1298, jump @21\n      : @1208 [@dyn 649] (gas: 14)\n 32864: a0 = s1 + 0x7ff\n 32868: a0 = a0 + 0x191\n 32872: a2 = a0 + 0x300\n 32876: a1 = u64 [a2 + 0xe8]\n 32880: u64 [s1 + 0x1c8] = a1\n 32884: a1 = u64 [a2 + 0xe0]\n 32888: u64 [s1 + 0x180] = a1\n 32892: a1 = u64 [a2 + 0xd8]\n 32896: u64 [s1 + 0x170] = a1\n 32900: a0 = u64 [a2 + 0xd0]\n 32904: u64 [s1 + 0x178] = a0\n 32908: a0 = u64 [s1 + 0x218]\n 32912: a1 = u64 [s1 + 0x208]\n 32916: ra = 1300, jump @23\n      : @1209 [@dyn 650] (gas: 21)\n 32922: a4 = s1 + 0x100\n 32926: a1 = u64 [a4 + 0x88]\n 32930: a2 = u64 [a4 + 0x70]\n 32933: a0 = a1 ^ a2\n 32936: a1 = a1 <u a2\n 32939: a2 = u64 [a4 + 0x90]\n 32943: a3 = u64 [a4 + 0x78]\n 32946: a2 = a2 <u a3\n 32949: a2 = a1 if a0 != 0\n 32952: a0 = u64 [a4 + 0xc0]\n 32956: a5 = u64 [a4 + 0x80]\n 32960: t0 = a0 <u a5\n 32963: a3 = u64 [a4 + 0xb8]\n 32967: a1 = u64 [a4 + 0xc8]\n 32971: a4 = a3 ^ a1\n 32974: a3 = a3 <u a1\n 32977: a3 = t0 if a4 == 0\n 32980: a0 = a0 ^ a5\n 32983: a0 = a0 | a4\n 32986: a3 = a2 if a0 == 0\n 32989: jump @1214 if a3 == 0\n      : @1210 (gas: 15)\n 32993: a2 = s1 + 0x7ff\n 32997: a2 = a2 + 0x191\n 33001: a0 = u64 [s1 + 0x200]\n 33005: a3 = a2 + 0x300\n 33009: u64 [a3 + 0xb0] = a0\n 33013: a0 = u64 [s1 + 0x1d8]\n 33017: u64 [a3 + 0xb8] = a0\n 33021: a0 = u64 [s1 + 0x1d0]\n 33025: u64 [a3 + 0xc0] = a0\n 33029: a1 = s1 + 0x7ff\n 33033: a1 = a1 + 0x541\n 33037: a0 = u64 [s1 + 0x1e0]\n 33041: u64 [a3 + 0xc8] = a0\n 33045: a0 = 0\n 33047: ra = 1302, jump @19\n      : @1211 [@dyn 651] (gas: 3)\n 33053: a1 = 0x20\n 33056: a0 = 0\n 33058: ra = 1304, jump @29\n      : @1212 [@dyn 652] (gas: 4)\n 33064: a1 = sp + 0xffffffffffffffe0\n 33067: a1 = a1 & 0xffffffffffffffe0\n 33070: u64 [s1 + 0x208] = a1\n 33074: t0 = 1306, jump @1631\n      : @1213 [@dyn 653] (gas: 70)\n 33080: ecalli 7 // 'hash_keccak_256'\n 33082: a2 = u64 [s1 + 0x208]\n 33086: a0 = u64 [a2 + 0x18]\n 33089: a1 = u64 [a2 + 0x10]\n 33092: t0 = a2\n 33094: a4 = reverse a0\n 33096: a5 = reverse a1\n 33098: a1 = u64 [s1 + 0x170]\n 33102: a1 = a1 + a5\n 33105: a0 = u64 [s1 + 0x178]\n 33109: a0 = a0 + a4\n 33112: u64 [s1 + 0x218] = a0\n 33116: a2 = a0 <u a4\n 33119: ra = a1 + a2\n 33122: a1 = ra ^ a5\n 33125: a3 = ra <u a5\n 33128: a3 = a2 if a1 == 0\n 33131: t1 = u64 [t0 + 0x8]\n 33134: t2 = u64 [t0]\n 33136: a0 = u64 [s1 + 0x190]\n 33140: a0 = a0 + a4\n 33143: u64 [s1 + 0x208] = a0\n 33147: a4 = a0 <u a4\n 33150: a1 = u64 [s1 + 0x188]\n 33154: a1 = a1 + a5\n 33157: a1 = a1 + a4\n 33160: a2 = a1 ^ a5\n 33163: a5 = a1 <u a5\n 33166: a5 = a4 if a2 == 0\n 33169: t2 = reverse t2\n 33171: a4 = reverse t1\n 33173: a2 = u64 [s1 + 0x180]\n 33177: a2 = a2 + a4\n 33180: t1 = u64 [s1 + 0x1c8]\n 33184: t1 = t1 + t2\n 33187: t0 = a2 <u a4\n 33190: t0 = t0 + t1\n 33193: a3 = a3 + a2\n 33196: a2 = a3 <u a2\n 33199: t0 = t0 + a2\n 33202: a2 = u64 [s1 + 0x1c0]\n 33206: a2 = a2 + a4\n 33209: a0 = u64 [s1 + 0x1b8]\n 33213: t2 = t2 + a0\n 33216: a4 = a2 <u a4\n 33219: a4 = a4 + t2\n 33222: a5 = a5 + a2\n 33225: a2 = a5 <u a2\n 33228: a2 = a2 + a4\n 33231: a0 = s1 + 0x7ff\n 33235: a0 = a0 + 0x191\n 33239: a4 = u64 [s1 + 0x218]\n 33243: u64 [a0 + 0x370] = a4\n 33247: a4 = u64 [s1 + 0x208]\n 33251: u64 [a0 + 0x390] = a4\n 33255: u64 [a0 + 0x378] = ra\n 33259: a4 = a0 + 0x300\n 33263: u64 [a4 + 0x98] = a1\n 33267: u64 [a4 + 0x80] = a3\n 33271: u64 [a4 + 0xa0] = a5\n 33275: u64 [a0 + 0x388] = t0\n 33279: a3 = a0\n 33281: a0 = s1 + 0x7ff\n 33285: a0 = a0 + 0x521\n 33289: a1 = s1 + 0x7ff\n 33293: a1 = a1 + 0x501\n 33297: u64 [a3 + 0x3a8] = a2\n 33301: ra = 0x51c\n 33305: t0 = 0x5fa\n 33309: jump @1661\n      : @1214 [@dyn 654] (gas: 19)\n 33312: a1 = 0xffffffff00000000\n 33322: u64 [s1 + 0xb8] = a1\n 33326: a0 = 0xffffffff\n 33336: u64 [s1 + 0x180] = a0\n 33340: a0 = s1 + 0x7ff\n 33344: a0 = a0 + 0x191\n 33348: a1 = u64 [s1 + 0x200]\n 33352: a3 = a0 + 0x300\n 33356: u64 [a3 + 0x50] = a1\n 33359: a1 = u64 [s1 + 0x1d8]\n 33363: u64 [a3 + 0x58] = a1\n 33366: a1 = u64 [s1 + 0x1d0]\n 33370: u64 [a3 + 0x60] = a1\n 33373: a1 = s1 + 0x7ff\n 33377: a1 = a1 + 0x4e1\n 33381: a2 = u64 [s1 + 0x1e0]\n 33385: u64 [a3 + 0x68] = a2\n 33388: a0 = 0\n 33390: ra = 1310, jump @19\n      : @1215 [@dyn 655] (gas: 3)\n 33397: a1 = 0x20\n 33400: a0 = 0\n 33402: ra = 1312, jump @29\n      : @1216 [@dyn 656] (gas: 4)\n 33408: a1 = sp + 0xffffffffffffffe0\n 33411: a1 = a1 & 0xffffffffffffffe0\n 33414: u64 [s1 + 0x208] = a1\n 33418: t0 = 1314, jump @1631\n      : @1217 [@dyn 657] (gas: 23)\n 33424: ecalli 7 // 'hash_keccak_256'\n 33426: ra = 0\n 33428: a5 = 0\n 33430: u64 [s1 + 536] = 0\n 33434: a3 = u64 [s1 + 0x208]\n 33438: a0 = u64 [a3]\n 33440: a1 = u64 [a3 + 0x8]\n 33443: a2 = u64 [a3 + 0x10]\n 33446: a3 = u64 [a3 + 0x18]\n 33449: a0 = reverse a0\n 33451: a4 = s1 + 0x100\n 33455: u64 [a4 + 0x70] = a0\n 33458: a0 = reverse a1\n 33460: u64 [a4 + 0x18] = a0\n 33463: a0 = reverse a2\n 33465: u64 [a4 + 0x10] = a0\n 33468: a0 = reverse a3\n 33470: u64 [a4 + 0x8] = a0\n 33473: a3 = 0\n 33475: a0 = 0xffffffe0\n 33485: u64 [a4 + 0x78] = a0\n 33488: t2 = u64 [s1 + 0x210]\n 33492: fallthrough\n      : @1218 (gas: 19)\n 33493: a0 = u64 [s1 + 0x190]\n 33497: a0 = ra <u a0\n 33500: a2 = u64 [s1 + 0x188]\n 33504: a1 = a5 ^ a2\n 33507: a2 = a5 <u a2\n 33510: a2 = a0 if a1 == 0\n 33513: a4 = u64 [s1 + 0x1c0]\n 33517: t0 = a3 <u a4\n 33520: a0 = a3\n 33522: a3 = u64 [s1 + 0x1b8]\n 33526: a1 = u64 [s1 + 0x218]\n 33530: t1 = a1 ^ a3\n 33533: a3 = a1 <u a3\n 33536: a3 = t0 if t1 == 0\n 33539: u64 [s1 + 0x210] = a0\n 33543: a0 = a0 ^ a4\n 33546: a0 = a0 | t1\n 33549: a3 = a2 if a0 == 0\n 33552: jump @1224 if a3 == 0\n      : @1219 (gas: 16)\n 33556: u64 [s1 + 0x200] = a5\n 33560: u64 [s1 + 0x208] = ra\n 33564: a0 = sp + 0xffffffffffffffe0\n 33567: a0 = a0 & 0xffffffffffffffe0\n 33570: a3 = s1 + 0x100\n 33574: u64 [a3 + 0xe0] = a0\n 33578: sp = a0\n 33580: a2 = u64 [a3 + 0xf8]\n 33584: a5 = u64 [a3 + 0xf0]\n 33588: a0 = a5 | a2\n 33591: a1 = u64 [a3 + 0x78]\n 33594: a1 = t2 <u a1\n 33597: a4 = u64 [a3 + 0xe8]\n 33601: a1 = 0 if a4 != 0\n 33603: a1 = 0 if a0 != 0\n 33605: jump @1221 if a1 != 0\n      : @1220 (gas: 1)\n 33608: jump @1111\n      : @1221 (gas: 15)\n 33611: a1 = t2 + 0x20\n 33614: a0 = a1 <u t2\n 33617: u64 [s1 + 0x1c8] = a1\n 33621: a3 = a4 + a0\n 33624: u64 [s1 + 0x1d8] = a3\n 33628: a4 = a3 <u a4\n 33631: a4 = a0 if a0 == 0\n 33634: a4 = a4 + a5\n 33637: u64 [s1 + 0x1d0] = a4\n 33641: a0 = a4 <u a5\n 33644: a2 = a2 + a0\n 33647: u64 [s1 + 0x1f8] = a2\n 33651: a0 = s1 + 0x7ff\n 33655: a0 = a0 + 0x241\n 33659: ra = 1316, jump @17\n      : @1222 [@dyn 658] (gas: 46)\n 33666: a2 = s1 + 0x7ff\n 33670: a2 = a2 + 0x191\n 33674: a0 = u64 [a2 + 0xb8]\n 33678: a1 = u64 [a2 + 0xb0]\n 33682: a2 = u64 [a2 + 0xc0]\n 33686: a0 = a0 & 0xffffffffffffffff\n 33689: a1 = a1 & 0xffffffffffffffff\n 33692: a3 = u64 [s1 + 0x180]\n 33696: a2 = a2 & a3\n 33699: t0 = u64 [s1 + 0x1e0]\n 33703: a3 = t0\n 33705: u64 [a3 + 0x10] = a2\n 33708: u64 [a3] = a1\n 33710: u64 [a3 + 0x8] = a0\n 33713: a1 = u64 [s1 + 0x208]\n 33717: a0 = u64 [s1 + 0x108]\n 33721: t1 = a1 + a0\n 33724: a1 = t1 <u a1\n 33727: a0 = u64 [s1 + 0x200]\n 33731: a2 = u64 [s1 + 0x110]\n 33735: a2 = a2 + a0\n 33738: a2 = a2 + a1\n 33741: a3 = a2 ^ a0\n 33744: a4 = a2 <u a0\n 33747: a4 = a1 if a3 == 0\n 33750: a1 = u64 [s1 + 0x118]\n 33754: a0 = u64 [s1 + 0x210]\n 33758: a1 = a1 + a0\n 33761: a3 = a1 <u a0\n 33764: a5 = u64 [s1 + 0x170]\n 33768: a0 = u64 [s1 + 0x218]\n 33772: a5 = a5 + a0\n 33775: a3 = a3 + a5\n 33778: a4 = a4 + a1\n 33781: a1 = a4 <u a1\n 33784: a1 = a1 + a3\n 33787: a3 = s1 + 0x3198\n 33791: u64 [a3 + 0x728] = t1\n 33795: a0 = a3 + 0x700\n 33799: u64 [a0 + 0x30] = a2\n 33802: u64 [a0 + 0x38] = a4\n 33805: u64 [a0 + 0x40] = a1\n 33808: u64 [t0 + 24] = 0\n 33811: a0 = s1 + 0x38c0\n 33815: a1 = t0\n 33817: ra = 1318, jump @23\n      : @1223 [@dyn 659] (gas: 22)\n 33824: a3 = s1 + 0x200\n 33828: a5 = u64 [a3]\n 33830: ra = u64 [s1 + 0x208]\n 33834: ra = ra + 0x1\n 33837: a0 = ra <u 0x1\n 33840: a5 = a5 + a0\n 33843: a0 = ra | a5\n 33846: a0 = a0 <u 0x1\n 33849: a1 = u64 [a3 + 0x10]\n 33852: a0 = a0 + a1\n 33855: a1 = a0 <u a1\n 33858: a2 = u64 [a3 + 0x18]\n 33861: a2 = a2 + a1\n 33864: u64 [a3 + 0x18] = a2\n 33867: t2 = u64 [s1 + 0x1c8]\n 33871: a2 = s1 + 0x100\n 33875: a1 = u64 [a2 + 0xd8]\n 33879: u64 [a2 + 0xe8] = a1\n 33883: a1 = u64 [a2 + 0xd0]\n 33887: u64 [a2 + 0xf0] = a1\n 33891: a3 = a0\n 33893: jump @1218\n      : @1224 (gas: 4)\n 33896: a0 = s1 + 0x7ff\n 33900: a0 = a0 + 0x4c1\n 33904: a1 = u64 [s1 + 0xa0]\n 33908: ra = 1320, jump @17\n      : @1225 [@dyn 660] (gas: 19)\n 33915: a2 = s1 + 0x7ff\n 33919: a2 = a2 + 0x191\n 33923: a3 = a2 + 0x300\n 33927: a0 = u64 [a3 + 0x30]\n 33930: a1 = u64 [a3 + 0x38]\n 33933: a2 = u64 [a3 + 0x40]\n 33936: a0 = a0 & 0xffffffffffffffff\n 33939: u64 [s1 + 0x218] = a0\n 33943: a0 = a1 & 0xffffffffffffffff\n 33946: u64 [s1 + 0x210] = a0\n 33950: a0 = u64 [s1 + 0x180]\n 33954: a0 = a0 & a2\n 33957: u64 [s1 + 0x208] = a0\n 33961: a0 = sp + 0xffffffffffffffe0\n 33964: a5 = a0 & 0xffffffffffffffe0\n 33967: sp = a5\n 33969: a1 = u64 [s1 + 0x80]\n 33973: a0 = a1 + 0x8\n 33976: t0 = 1322, jump @1635\n      : @1226 [@dyn 661] (gas: 11)\n 33982: a4 = u64 [s1 + 0x90]\n 33986: a4 = a4 + a1\n 33989: a1 = a5\n 33991: u64 [s1 + 0x200] = a5\n 33995: u64 [a5 + 0x18] = a4\n 33998: u64 [a5 + 0x10] = a3\n 34001: u64 [a5 + 0x8] = a2\n 34004: u64 [a5] = a0\n 34006: a0 = s1 + 0x7ff\n 34010: a0 = a0 + 0x4a1\n 34014: ra = 1324, jump @21\n      : @1227 [@dyn 662] (gas: 20)\n 34021: a1 = s1 + 0x7ff\n 34025: a1 = a1 + 0x191\n 34029: a0 = u64 [a1 + 0x328]\n 34033: a1 = u64 [a1 + 0x320]\n 34037: a0 = a0 & 0xffffffffffffffff\n 34040: a2 = u64 [s1 + 0xb8]\n 34044: a1 = a1 & a2\n 34047: a2 = u64 [s1 + 0x208]\n 34051: a1 = a1 | a2\n 34054: a3 = s1 + 0x3198\n 34058: a2 = u64 [s1 + 0x210]\n 34062: a4 = a3 + 0x700\n 34066: u64 [a4 + 0x50] = a2\n 34069: a2 = u64 [s1 + 0x218]\n 34073: u64 [a4 + 0x48] = a2\n 34076: u64 [a4 + 0x60] = a0\n 34079: u64 [a4 + 0x58] = a1\n 34082: a1 = s1 + 0x38e0\n 34086: a0 = u64 [s1 + 0x200]\n 34090: ra = 1326, jump @23\n      : @1228 [@dyn 663] (gas: 4)\n 34097: a0 = s1 + 0x7ff\n 34101: a0 = a0 + 0x481\n 34105: a1 = u64 [s1 + 0x98]\n 34109: ra = 1328, jump @17\n      : @1229 [@dyn 664] (gas: 31)\n 34116: a0 = s1 + 0x7ff\n 34120: a0 = a0 + 0x191\n 34124: t0 = u64 [a0 + 0x2f0]\n 34128: t1 = u64 [a0 + 0x2f8]\n 34132: t2 = u64 [a0 + 0x300]\n 34136: a3 = u64 [a0 + 0x308]\n 34140: a0 = u64 [s1 + 0x80]\n 34144: a4 = a0 + 0x9\n 34147: a5 = a4 <u a0\n 34150: a1 = u64 [s1 + 0x88]\n 34154: a0 = a1 + a5\n 34157: a1 = a0 <u a1\n 34160: a1 = a5 if a5 == 0\n 34163: a2 = u64 [s1 + 0xc0]\n 34167: a1 = a1 + a2\n 34170: a5 = a1 <u a2\n 34173: a2 = u64 [s1 + 0x90]\n 34177: a5 = a5 + a2\n 34180: a2 = s1 + 0x3198\n 34184: u64 [a2 + 0x780] = a5\n 34188: a5 = a2 + 0x700\n 34192: u64 [a5 + 0x78] = a1\n 34195: u64 [a5 + 0x70] = a0\n 34198: u64 [a5 + 0x68] = a4\n 34201: u64 [a5 + 0xa0] = a3\n 34205: u64 [a2 + 0x798] = t2\n 34209: u64 [a2 + 0x790] = t1\n 34213: u64 [a2 + 0x788] = t0\n 34217: a0 = s1 + 0x3900\n 34221: a1 = s1 + 0x3920\n 34225: ra = 1330, jump @23\n      : @1230 [@dyn 665] (gas: 7)\n 34232: a0 = sp + 0xffffffffffffffe0\n 34235: a4 = a0 & 0xffffffffffffffe0\n 34238: u64 [s1 + 0x218] = a4\n 34242: sp = a4\n 34244: a1 = u64 [s1 + 0x80]\n 34248: a0 = a1 + 0xa\n 34251: t0 = 1332, jump @1635\n      : @1231 [@dyn 666] (gas: 10)\n 34257: a5 = u64 [s1 + 0x90]\n 34261: a1 = a1 + a5\n 34264: u64 [a4 + 0x18] = a1\n 34267: u64 [a4 + 0x10] = a3\n 34270: u64 [a4 + 0x8] = a2\n 34273: u64 [a4] = a0\n 34275: a0 = s1 + 0x7ff\n 34279: a0 = a0 + 0x461\n 34283: a1 = u64 [s1 + 0x70]\n 34286: ra = 1334, jump @17\n      : @1232 [@dyn 667] (gas: 1)\n 34293: t0 = 1336, jump @1649\n      : @1233 [@dyn 668] (gas: 13)\n 34299: a0 = u64 [a4 + 0xe0]\n 34303: a1 = u64 [a4 + 0xe8]\n 34307: a2 = u64 [a4 + 0xd8]\n 34311: a3 = u64 [a4 + 0xd0]\n 34315: a1 = a1 | a2\n 34318: a0 = a0 | a3\n 34321: a0 = a0 | a1\n 34324: a0 = a0 >u 0\n 34326: u64 [s1 + 0x210] = a0\n 34330: a0 = s1 + 0x7ff\n 34334: a0 = a0 + 0x441\n 34338: a1 = u64 [s1 + 0x218]\n 34342: ra = 1338, jump @21\n      : @1234 [@dyn 669] (gas: 1)\n 34349: t0 = 1340, jump @1649\n      : @1235 [@dyn 670] (gas: 16)\n 34355: a0 = u64 [a4 + 0xb0]\n 34359: a1 = u64 [a4 + 0xb8]\n 34363: a2 = u64 [a4 + 0xc8]\n 34367: a3 = u64 [a4 + 0xc0]\n 34371: a0 = a0 & 0xffffffffffffff00\n 34375: a4 = u64 [s1 + 0x210]\n 34379: a0 = a0 | a4\n 34382: a4 = s1 + 0x3198\n 34386: a5 = a4 + 0x700\n 34390: u64 [a5 + 0xc0] = a2\n 34394: u64 [a5 + 0xb8] = a3\n 34398: u64 [a5 + 0xb0] = a1\n 34402: u64 [a5 + 0xa8] = a0\n 34406: a1 = s1 + 0x3940\n 34410: a0 = u64 [s1 + 0x218]\n 34414: ra = 1342, jump @23\n      : @1236 [@dyn 671] (gas: 4)\n 34421: a0 = s1 + 0x7ff\n 34425: a0 = a0 + 0x421\n 34429: a1 = u64 [s1 + 0x50]\n 34432: ra = 1344, jump @17\n      : @1237 [@dyn 672] (gas: 1)\n 34439: t0 = 1346, jump @1649\n      : @1238 [@dyn 673] (gas: 13)\n 34445: a0 = u64 [a4 + 0xa8]\n 34449: a1 = u64 [a4 + 0x98]\n 34453: a2 = u64 [a4 + 0xa0]\n 34457: a3 = u64 [a4 + 0x90]\n 34461: a0 = a0 | a1\n 34464: a2 = a2 | a3\n 34467: a0 = a0 | a2\n 34470: a0 = a0 >u 0\n 34472: u64 [s1 + 0x210] = a0\n 34476: a0 = s1 + 0x7ff\n 34480: a0 = a0 + 0x401\n 34484: a1 = u64 [s1 + 0x218]\n 34488: ra = 1348, jump @21\n      : @1239 [@dyn 674] (gas: 1)\n 34495: t0 = 1350, jump @1649\n      : @1240 [@dyn 675] (gas: 17)\n 34501: a0 = u64 [a4 + 0x78]\n 34504: a1 = u64 [a4 + 0x80]\n 34508: a2 = u64 [a4 + 0x88]\n 34512: a3 = u64 [a4 + 0x70]\n 34515: a4 = u64 [s1 + 0x210]\n 34519: a4 = a4 << 0x8\n 34522: a3 = a3 & 0xffffffffffff00ff\n 34527: a3 = a3 | a4\n 34530: a4 = s1 + 0x3198\n 34534: a5 = a4 + 0x700\n 34538: u64 [a5 + 0xe0] = a2\n 34542: u64 [a5 + 0xd8] = a1\n 34546: u64 [a5 + 0xd0] = a0\n 34550: u64 [a5 + 0xc8] = a3\n 34554: a1 = s1 + 0x3960\n 34558: a0 = u64 [s1 + 0x218]\n 34562: ra = 1352, jump @23\n      : @1241 [@dyn 676] (gas: 3)\n 34569: a0 = s1 + 0x7ff\n 34573: a0 = a0 + 0x3e1\n 34577: ra = 1354, jump @1508\n      : @1242 [@dyn 677] (gas: 16)\n 34583: a1 = s1 + 0x7ff\n 34587: a1 = a1 + 0x191\n 34591: a2 = a1 + 0x200\n 34595: a0 = u64 [a2 + 0x68]\n 34598: a1 = s1 + 0x100\n 34602: u64 [a1 + 0xf8] = a0\n 34606: a0 = u64 [a2 + 0x60]\n 34609: u64 [a1 + 0xf0] = a0\n 34613: a0 = u64 [a2 + 0x58]\n 34616: u64 [a1 + 0xe8] = a0\n 34620: a0 = u64 [a2 + 0x50]\n 34623: u64 [a1 + 0xe0] = a0\n 34627: a0 = s1 + 0x7ff\n 34631: a0 = a0 + 0x3c1\n 34635: a1 = 0x40\n 34638: ra = 1356, jump @17\n      : @1243 [@dyn 678] (gas: 20)\n 34645: a1 = s1 + 0x7ff\n 34649: a1 = a1 + 0x191\n 34653: a4 = a1 + 0x200\n 34657: a0 = u64 [a4 + 0x48]\n 34660: a2 = u64 [a4 + 0x40]\n 34663: a3 = u64 [a4 + 0x38]\n 34666: a1 = u64 [a4 + 0x30]\n 34669: a4 = s1 + 0x200\n 34673: u64 [a4] = a0\n 34675: u64 [a4 + 0x10] = a3\n 34678: a0 = a0 | a3\n 34681: u64 [a4 + 0x18] = a1\n 34684: a1 = a1 | a2\n 34687: a1 = a1 | a0\n 34690: a1 = a1 >> 0x20\n 34693: u64 [a4 + 0x8] = a2\n 34696: a0 = a0 | a2\n 34699: a0 = a0 << 0x20\n 34702: a0 = a0 | a1\n 34705: jump @1245 if a0 == 0\n      : @1244 (gas: 1)\n 34708: jump @1111\n      : @1245 (gas: 10)\n 34711: a2 = s1 + 0x7ff\n 34715: a2 = a2 + 0x191\n 34719: u64 [a2 + 552] = 0\n 34723: u64 [a2 + 544] = 0\n 34727: u64 [a2 + 536] = 0\n 34731: a1 = s1 + 0x7ff\n 34735: a1 = a1 + 0x3a1\n 34739: u64 [a2 + 528] = 0x80\n 34745: a0 = u64 [s1 + 0x218]\n 34749: ra = 1358, jump @19\n      : @1246 [@dyn 679] (gas: 12)\n 34756: a3 = s1 + 0x200\n 34760: a0 = u64 [a3 + 0x8]\n 34763: a1 = u64 [a3]\n 34765: a2 = a0 | a1\n 34768: a0 = 0xffffff80\n 34778: a1 = u64 [a3 + 0x18]\n 34781: a0 = a1 <u a0\n 34784: a1 = u64 [a3 + 0x10]\n 34787: a0 = 0 if a1 != 0\n 34789: u64 [s1 + 0x1d8] = a2\n 34793: a0 = 0 if a2 != 0\n 34795: jump @1248 if a0 != 0\n      : @1247 (gas: 1)\n 34798: jump @1111\n      : @1248 (gas: 15)\n 34801: a0 = u64 [s1 + 0x218]\n 34805: i32 a0 = a0 + 0x80\n 34809: a1 = u64 [s1 + 0x1b0]\n 34813: a3 = s1 + 0x7ff\n 34817: a3 = a3 + 0x191\n 34821: u64 [a3 + 0x1f0] = a1\n 34825: a1 = u64 [s1 + 0x198]\n 34829: u64 [a3 + 0x1f8] = a1\n 34833: a1 = u64 [s1 + 0x1a8]\n 34837: u64 [a3 + 0x200] = a1\n 34841: a1 = s1 + 0x7ff\n 34845: a1 = a1 + 0x381\n 34849: a2 = u64 [s1 + 0x1a0]\n 34853: u64 [a3 + 0x208] = a2\n 34857: ra = 1360, jump @19\n      : @1249 [@dyn 680] (gas: 13)\n 34864: a4 = s1 + 0x100\n 34868: a0 = u64 [a4 + 0x68]\n 34871: a2 = u64 [a4 + 0x60]\n 34874: a0 = a0 | a2\n 34877: a1 = u64 [a4 + 0x58]\n 34880: a3 = u64 [a4 + 0x50]\n 34883: a1 = a1 | a3\n 34886: a0 = a0 | a1\n 34889: a0 = a0 >> 0x20\n 34892: a1 = a1 | a2\n 34895: a1 = a1 << 0x20\n 34898: a0 = a0 | a1\n 34901: jump @1251 if a0 == 0\n      : @1250 (gas: 1)\n 34904: jump @1111\n      : @1251 (gas: 9)\n 34907: a3 = s1 + 0x100\n 34911: a0 = u64 [a3 + 0x20]\n 34914: a0 = a0 >> 0x20\n 34917: a1 = u64 [a3 + 0xa8]\n 34921: a2 = u64 [a3 + 0x28]\n 34924: a1 = a1 | a2\n 34927: a1 = a1 << 0x20\n 34930: a0 = a0 | a1\n 34933: jump @1253 if a0 == 0\n      : @1252 (gas: 1)\n 34936: jump @1111\n      : @1253 (gas: 9)\n 34939: a1 = 0xffffff60\n 34949: a0 = u64 [s1 + 0x218]\n 34953: u64 [s1 + 0x1d0] = a1\n 34957: a0 = a0 <u a1\n 34960: a1 = u64 [s1 + 0x210]\n 34964: a0 = 0 if a1 != 0\n 34966: a1 = u64 [s1 + 0x1d8]\n 34970: a0 = 0 if a1 != 0\n 34972: jump @1255 if a0 != 0\n      : @1254 (gas: 1)\n 34975: jump @1111\n      : @1255 (gas: 6)\n 34978: a0 = i32 [s1 + 0x168]\n 34982: u64 [s1 + 0x1d8] = a0\n 34986: a0 = u64 [s1 + 0x218]\n 34990: i32 a0 = a0 + 0xa0\n 34994: a1 = u64 [s1 + 0x1b0]\n 34998: ra = 1362, jump @29\n      : @1256 [@dyn 681] (gas: 6)\n 35005: i32 a0 = a0 + 0\n 35007: a1 = i32 [s1 + 0x1b0]\n 35011: a2 = u64 [s1 + 0x1d8]\n 35015: ra = 0x554\n 35019: ecalli 1 // 'call_data_copy'\n 35021: fallthrough\n      : @1257 [@dyn 682] (gas: 7)\n 35022: a0 = u64 [s1 + 0x218]\n 35026: a1 = u64 [s1 + 0x1b0]\n 35030: a0 = a0 + a1\n 35033: a1 = a0 <u a1\n 35036: a4 = u64 [s1 + 0x198]\n 35040: a2 = u64 [s1 + 0x210]\n 35044: t0 = 1366, jump @1642\n      : @1258 [@dyn 683] (gas: 17)\n 35050: a1 = u64 [s1 + 0x1a0]\n 35054: a3 = u64 [s1 + 0x200]\n 35058: a1 = a1 + a3\n 35061: a5 = u64 [s1 + 0x1a8]\n 35065: a3 = u64 [s1 + 0x208]\n 35069: a3 = a3 + a5\n 35072: a5 = a3 <u a5\n 35075: a1 = a1 + a5\n 35078: a4 = a4 + a3\n 35081: a3 = a4 <u a3\n 35084: a1 = a1 + a3\n 35087: a1 = a1 | a4\n 35090: a3 = u64 [s1 + 0x1d0]\n 35094: a3 = a0 <u a3\n 35097: a3 = 0 if a2 != 0\n 35099: a3 = 0 if a1 != 0\n 35101: jump @1260 if a3 != 0\n      : @1259 (gas: 1)\n 35104: jump @1111\n      : @1260 (gas: 10)\n 35107: i32 a0 = a0 + 0xa0\n 35111: a2 = s1 + 0x7ff\n 35115: a2 = a2 + 0x191\n 35119: u64 [a2 + 488] = 0\n 35123: u64 [a2 + 480] = 0\n 35127: u64 [a2 + 472] = 0\n 35131: a1 = s1 + 0x7ff\n 35135: a1 = a1 + 0x361\n 35139: u64 [a2 + 464] = 0\n 35143: ra = 1368, jump @19\n      : @1261 [@dyn 684] (gas: 16)\n 35150: a0 = u64 [s1 + 0x218]\n 35154: i32 a0 = a0 + 0x20\n 35157: a1 = u64 [s1 + 0x130]\n 35161: a3 = s1 + 0x7ff\n 35165: a3 = a3 + 0x191\n 35169: a4 = a3 + 0x100\n 35173: u64 [a4 + 0xc8] = a1\n 35177: a1 = u64 [s1 + 0x138]\n 35181: u64 [a4 + 0xc0] = a1\n 35185: a1 = u64 [s1 + 0x140]\n 35189: u64 [a4 + 0xb8] = a1\n 35193: a1 = s1 + 0x7ff\n 35197: a1 = a1 + 0x341\n 35201: a2 = u64 [s1 + 0x148]\n 35205: u64 [a4 + 0xb0] = a2\n 35209: ra = 1370, jump @19\n      : @1262 [@dyn 685] (gas: 23)\n 35216: a0 = s1 + 0x4000\n 35220: i32 a0 = a0 + 0xfffffffffffff980\n 35224: a1 = 0x64\n 35227: ecalli 2 // 'call_data_load'\n 35229: a0 = s1 + 0x3198\n 35233: a4 = a0 + 0x700\n 35237: a2 = u64 [a4 + 0xe8]\n 35241: a1 = u64 [a4 + 0xf0]\n 35245: a3 = u64 [a4 + 0xf8]\n 35249: a0 = s1 + 0x3998\n 35253: a4 = u64 [a0]\n 35255: a0 = u64 [s1 + 0x218]\n 35259: i32 a0 = a0 + 0x40\n 35262: a5 = s1 + 0x7ff\n 35266: a5 = a5 + 0x191\n 35270: u64 [a5 + 0x1a8] = a4\n 35274: a4 = a5 + 0x100\n 35278: u64 [a4 + 0xa0] = a3\n 35282: u64 [a4 + 0x98] = a1\n 35286: a1 = s1 + 0x7ff\n 35290: a1 = a1 + 0x321\n 35294: u64 [a4 + 0x90] = a2\n 35298: ra = 1372, jump @19\n      : @1263 [@dyn 686] (gas: 17)\n 35305: a0 = u64 [s1 + 0x218]\n 35309: i32 a0 = a0 + 0x60\n 35312: a1 = u64 [s1 + 0xc8]\n 35316: a2 = s1 + 0x7ff\n 35320: a2 = a2 + 0x191\n 35324: a3 = a2 + 0x100\n 35328: u64 [a3 + 0x88] = a1\n 35332: a1 = u64 [s1 + 0xd0]\n 35336: u64 [a3 + 0x80] = a1\n 35340: a1 = u64 [s1 + 0xd8]\n 35344: u64 [a3 + 0x78] = a1\n 35347: a3 = a2\n 35349: a1 = s1 + 0x7ff\n 35353: a1 = a1 + 0x301\n 35357: a2 = u64 [s1 + 0xe0]\n 35361: u64 [a3 + 0x170] = a2\n 35365: ra = 1374, jump @19\n      : @1264 [@dyn 687] (gas: 6)\n 35372: a0 = u64 [s1 + 0x1b0]\n 35376: a0 = a0 + 0x1f\n 35379: a2 = 0x1ffffffe0\n 35389: a0 = a0 & a2\n 35392: a1 = 0xffffff60\n 35402: jump @1266 if a0 <u a1\n      : @1265 (gas: 1)\n 35405: jump @1111\n      : @1266 (gas: 37)\n 35408: i32 a1 = a0 + 0xa0\n 35412: a3 = s1 + 0x7ff\n 35416: a3 = a3 + 0x191\n 35420: a0 = u64 [s1 + 0x1e0]\n 35424: a4 = a3 + 0x100\n 35428: u64 [a4 + 0x10] = a0\n 35431: a0 = u64 [0x20158]\n 35436: a2 = u64 [s1 + 0x1e8]\n 35440: u64 [a4 + 0x18] = a2\n 35443: a2 = u64 [0x20160]\n 35448: u64 [a4 + 0x68] = a0\n 35451: a0 = u64 [0x20168]\n 35456: u64 [a4 + 0x60] = a2\n 35459: a2 = u64 [0x20170]\n 35464: u64 [a4 + 0x58] = a0\n 35467: a0 = u64 [s1 + 0xe8]\n 35471: u64 [a4 + 0x30] = a0\n 35474: a0 = u64 [s1 + 0xf0]\n 35478: u64 [a4 + 0x38] = a0\n 35481: u64 [a4 + 0x50] = a2\n 35484: a0 = u64 [s1 + 0x1f0]\n 35488: u64 [a4 + 0x20] = a0\n 35491: a0 = u64 [s1 + 0xf8]\n 35495: u64 [a4 + 0x40] = a0\n 35498: a0 = u64 [s1 + 0x1f8]\n 35502: u64 [a4 + 0x28] = a0\n 35505: a5 = a3\n 35507: a2 = s1 + 0x7ff\n 35511: a2 = a2 + 0x2e1\n 35515: a3 = s1 + 0x7ff\n 35519: a3 = a3 + 0x2c1\n 35523: a4 = s1 + 0x7ff\n 35527: a4 = a4 + 0x2a1\n 35531: a0 = u64 [s1 + 0x100]\n 35535: u64 [a5 + 0x148] = a0\n 35539: a0 = u64 [s1 + 0x218]\n 35543: ra = 1376, jump @26\n      : @1267 [@dyn 688] (gas: 4)\n 35550: a0 = s1 + 0x7ff\n 35554: a0 = a0 + 0x281\n 35558: a1 = 0x40\n 35561: ra = 1378, jump @17\n      : @1268 [@dyn 689] (gas: 7)\n 35568: a3 = s1 + 0x7ff\n 35572: a3 = a3 + 0x191\n 35576: a0 = u64 [a3 + 0x108]\n 35580: a1 = u64 [a3 + 0x100]\n 35584: a2 = u64 [a3 + 0xf8]\n 35588: a4 = u64 [a3 + 0xf0]\n 35592: t0 = 1380, jump @1644\n      : @1269 [@dyn 690] (gas: 1)\n 35598: jump @1271 if a0 == 0\n      : @1270 (gas: 1)\n 35601: jump @1111\n      : @1271 (gas: 17)\n 35604: a3 = a4\n 35606: a0 = u64 [s1 + 0xe8]\n 35610: a2 = s1 + 0x7ff\n 35614: a2 = a2 + 0x191\n 35618: u64 [a2 + 0xd0] = a0\n 35622: a0 = u64 [s1 + 0xf0]\n 35626: u64 [a2 + 0xd8] = a0\n 35630: a0 = u64 [s1 + 0xf8]\n 35634: u64 [a2 + 0xe0] = a0\n 35638: a1 = s1 + 0x7ff\n 35642: a1 = a1 + 0x261\n 35646: a0 = u64 [s1 + 0x100]\n 35650: u64 [a2 + 0xe8] = a0\n 35654: a0 = a3\n 35656: u64 [s1 + 0x218] = a3\n 35660: ra = 0x230\n 35664: jump @19\n      : @1272 (gas: 4)\n 35668: a1 = 0x20220\n 35673: i32 a1 = a1 + 0\n 35675: a0 = 0x1\n 35678: jump @1274\n      : @1273 (gas: 6)\n 35680: i32 a1 = a1 + 0\n 35682: a0 = 0x1\n 35685: a2 = 0\n 35687: ecalli 12 // 'seal_return'\n 35689: a1 = 0x20220\n 35694: jump @1273\n      : @1274 (gas: 4)\n 35696: a2 = 0\n 35698: ecalli 12 // 'seal_return'\n 35700: a1 = 0x20220\n 35705: jump @1273\n      : @1275 (gas: 2)\n 35707: a1 = 0x20220\n 35712: jump @1273\n      : @1276 (gas: 2)\n 35714: a1 = 0x20220\n 35719: jump @1273\n      : @1277 (gas: 2)\n 35721: a1 = 0x20220\n 35726: jump @1273\n      : @1278 (gas: 2)\n 35728: a1 = 0x20220\n 35733: jump @1273\n      : @1279 (gas: 2)\n 35735: a1 = 0x20220\n 35740: jump @1273\n      : @1280 (gas: 2)\n 35742: a1 = 0x20220\n 35747: jump @1273\n      : @1281 (gas: 2)\n 35749: a1 = 0x20220\n 35754: jump @1273\n      : @1282 (gas: 2)\n 35756: a1 = 0x20220\n 35761: jump @1273\n      : @1283 (gas: 2)\n 35763: a1 = 0x20220\n 35768: jump @1273\n      : @1284 (gas: 2)\n 35770: a1 = 0x20220\n 35775: jump @1273\n      : @1285 (gas: 2)\n 35777: a1 = 0x20220\n 35782: jump @1273\n      : @1286 (gas: 2)\n 35784: a1 = 0x20220\n 35789: jump @1273\n      : @1287 (gas: 2)\n 35791: a1 = 0x20220\n 35796: jump @1273\n      : @1288 (gas: 2)\n 35798: a1 = 0x20220\n 35803: jump @1273\n      : @1289 (gas: 2)\n 35805: a1 = 0x20220\n 35810: jump @1273\n      : @1290 (gas: 2)\n 35813: a1 = 0x20220\n 35818: jump @1273\n      : @1291 (gas: 2)\n 35821: a1 = 0x20220\n 35826: jump @1273\n      : @1292 (gas: 2)\n 35829: a1 = 0x20220\n 35834: jump @1273\n      : @1293 (gas: 2)\n 35837: a1 = 0x20220\n 35842: jump @1273\n      : @1294 (gas: 2)\n 35845: a1 = 0x20220\n 35850: jump @1273\n      : @1295 (gas: 2)\n 35853: a1 = 0x20220\n 35858: jump @1273\n      : @1296 (gas: 2)\n 35861: a1 = 0x20220\n 35866: jump @1273\n      : @1297 (gas: 2)\n 35869: a1 = 0x20220\n 35874: jump @1273\n      : @1298 (gas: 2)\n 35877: a1 = 0x20220\n 35882: jump @1273\n      : @1299 (gas: 2)\n 35885: a1 = 0x20220\n 35890: jump @1273\n      : @1300 (gas: 2)\n 35893: a1 = 0x20220\n 35898: jump @1273\n      : @1301 (gas: 2)\n 35901: a1 = 0x20220\n 35906: jump @1273\n      : @1302 (gas: 2)\n 35909: a1 = 0x20220\n 35914: jump @1273\n      : @1303 (gas: 2)\n 35917: a1 = 0x20220\n 35922: jump @1273\n      : @1304 (gas: 12)\n 35925: a0 = u64 [s1 + 0x1c0]\n 35929: a2 = s1 + 0x2198\n 35933: a3 = a2 + 0x500\n 35937: u64 [a3 + 0x8] = a0\n 35940: a0 = u64 [s1 + 0x1c8]\n 35944: u64 [a3 + 0x10] = a0\n 35947: a0 = u64 [s1 + 0x1d0]\n 35951: u64 [a3 + 0x18] = a0\n 35954: a0 = s1 + 0x26a0\n 35958: a1 = u64 [s1 + 0x1d8]\n 35962: u64 [a3 + 0x20] = a1\n 35965: ra = 1382, jump @1516\n      : @1305 [@dyn 691] (gas: 3)\n 35971: a0 = 0\n 35973: a1 = u64 [s1 + 0x1b8]\n 35977: jump @1274\n      : @1306 (gas: 26)\n 35980: a4 = s1 + 0x2198\n 35984: a5 = s1 + 0x100\n 35988: a0 = u64 [a5 + 0xb8]\n 35992: u64 [a4 + 0x148] = a0\n 35996: a0 = u64 [a5 + 0xc0]\n 36000: u64 [a4 + 0x150] = a0\n 36004: a0 = u64 [0x200b8]\n 36009: a1 = u64 [0x200c0]\n 36014: a2 = u64 [0x200c8]\n 36019: a3 = u64 [0x200d0]\n 36024: u64 [a4 + 0x180] = a0\n 36028: u64 [a4 + 0x178] = a1\n 36032: a1 = a4 + 0x100\n 36036: u64 [a1 + 0x70] = a2\n 36039: u64 [a1 + 0x68] = a3\n 36042: a0 = u64 [a5 + 0xc8]\n 36046: u64 [a1 + 0x58] = a0\n 36049: a2 = s1 + 0x2300\n 36053: a3 = s1 + 0x22e0\n 36057: a0 = u64 [a5 + 0xd0]\n 36061: u64 [a1 + 0x60] = a0\n 36064: a0 = 0\n 36066: a1 = 0\n 36068: ra = 0x568\n 36072: t0 = 0x8\n 36075: jump @1661\n      : @1307 [@dyn 692] (gas: 3)\n 36078: a0 = 0\n 36080: a1 = u64 [s1 + 0x1b0]\n 36084: jump @1274\n      : @1308 (gas: 2)\n 36087: u64 [s1 + 0x218] = a1\n 36091: ra = 1386, jump @29\n      : @1309 [@dyn 693] (gas: 5)\n 36098: i32 a1 = a0 + 0\n 36100: a2 = i32 [s1 + 0x218]\n 36104: a0 = 0\n 36106: ecalli 12 // 'seal_return'\n 36108: jump @559\n      : @1310 (gas: 10)\n 36111: a0 = s1 + 0x1000\n 36115: u64 [a0 + 4294965488] = 0\n 36119: a0 = s1 + 0x1000\n 36123: u64 [a0 + 4294965480] = 0\n 36127: a0 = s1 + 0x1000\n 36131: u64 [a0 + 4294965472] = 0\n 36135: t0 = 0x56c\n 36139: a0 = 0x4e487b7100000000\n 36149: a1 = s1 + 0x7ff\n 36153: fallthrough\n      : @1311 [@dyn 694] (gas: 5)\n 36154: a1 = a1 + 0xe1\n 36158: a2 = s1 + 0x1000\n 36162: u64 [a2 + 0xfffffffffffff8f8] = a0\n 36166: a0 = 0\n 36168: ra = 1390, jump @19\n      : @1312 [@dyn 695] (gas: 12)\n 36175: a0 = s1 + 0x1000\n 36179: u64 [a0 + 4294965464] = 0\n 36183: a0 = s1 + 0x1000\n 36187: u64 [a0 + 4294965456] = 0\n 36191: a1 = s1 + 0x1000\n 36195: u64 [a1 + 4294965440] = 0x11\n 36200: a0 = 0x4\n 36203: a1 = s1 + 0x7ff\n 36207: a1 = a1 + 0xc1\n 36211: a2 = s1 + 0x1000\n 36215: u64 [a2 + 4294965448] = 0\n 36219: ra = 1392, jump @19\n      : @1313 [@dyn 696] (gas: 2)\n 36226: a1 = i32 [0x2020c]\n 36231: jump @1315 if a1 >u 63\n      : @1314 (gas: 3)\n 36235: u32 [0x2020c] = 0x40\n 36241: a1 = 0x20220\n 36246: jump @1118\n      : @1315 (gas: 2)\n 36249: a1 = 0x20220\n 36254: jump @1118\n      : @1316 (gas: 10)\n 36257: a0 = s1 + 0x1000\n 36261: u64 [a0 + 4294965552] = 0\n 36265: a0 = s1 + 0x1000\n 36269: u64 [a0 + 4294965544] = 0\n 36273: a0 = s1 + 0x1000\n 36277: u64 [a0 + 4294965536] = 0\n 36281: t0 = 0x572\n 36285: a0 = 0x4e487b7100000000\n 36295: a1 = s1 + 0x7ff\n 36299: fallthrough\n      : @1317 [@dyn 697] (gas: 5)\n 36300: a1 = a1 + 0x121\n 36304: a2 = s1 + 0x1000\n 36308: u64 [a2 + 0xfffffffffffff938] = a0\n 36312: a0 = 0\n 36314: ra = 1396, jump @19\n      : @1318 [@dyn 698] (gas: 12)\n 36321: a0 = s1 + 0x1000\n 36325: u64 [a0 + 4294965528] = 0\n 36329: a0 = s1 + 0x1000\n 36333: u64 [a0 + 4294965520] = 0\n 36337: a1 = s1 + 0x1000\n 36341: u64 [a1 + 4294965504] = 0x41\n 36346: a0 = 0x4\n 36349: a1 = s1 + 0x7ff\n 36353: a1 = a1 + 0x101\n 36357: a2 = s1 + 0x1000\n 36361: u64 [a2 + 4294965512] = 0\n 36365: ra = 1398, jump @19\n      : @1319 [@dyn 699] (gas: 2)\n 36372: a1 = i32 [0x2020c]\n 36377: jump @1337 if a1 >u 63\n      : @1320 (gas: 2)\n 36382: u32 [0x2020c] = 0x40\n 36388: jump @1337\n      : @1321 (gas: 10)\n 36391: a0 = s1 + 0x1000\n 36395: u64 [a0 + 4294965616] = 0\n 36399: a0 = s1 + 0x1000\n 36403: u64 [a0 + 4294965608] = 0\n 36407: a0 = s1 + 0x1000\n 36411: u64 [a0 + 4294965600] = 0\n 36415: t0 = 0x578\n 36419: a0 = 0x4e487b7100000000\n 36429: a1 = s1 + 0x7ff\n 36433: fallthrough\n      : @1322 [@dyn 700] (gas: 5)\n 36434: a1 = a1 + 0x161\n 36438: a2 = s1 + 0x1000\n 36442: u64 [a2 + 0xfffffffffffff978] = a0\n 36446: a0 = 0\n 36448: ra = 1402, jump @19\n      : @1323 [@dyn 701] (gas: 13)\n 36455: a0 = s1 + 0x1000\n 36459: u64 [a0 + 4294965592] = 0\n 36463: a0 = s1 + 0x1000\n 36467: u64 [a0 + 4294965584] = 0\n 36471: a1 = s1 + 0x1000\n 36475: u64 [a1 + 4294965568] = 0x41\n 36480: a0 = 0x4\n 36483: a1 = s1 + 0x7ff\n 36487: a1 = a1 + 0x141\n 36491: a2 = s1 + 0x1000\n 36495: u64 [a2 + 4294965576] = 0\n 36499: ra = 0x588\n 36503: jump @19\n      : @1324 (gas: 10)\n 36507: a0 = s1 + 0x1198\n 36511: u64 [a0 + 1496] = 0\n 36515: u64 [a0 + 1488] = 0\n 36519: u64 [a0 + 1480] = 0\n 36523: a2 = a0\n 36525: a0 = 0x4e487b7100000000\n 36535: a1 = s1 + 0x1760\n 36539: u64 [a2 + 0x5e0] = a0\n 36543: a0 = 0\n 36545: ra = 1404, jump @19\n      : @1325 [@dyn 702] (gas: 9)\n 36552: a1 = s1 + 0x1198\n 36556: u64 [a1 + 1472] = 0\n 36560: u64 [a1 + 1464] = 0\n 36564: u64 [a1 + 1448] = 0x41\n 36569: a2 = a1\n 36571: a0 = 0x4\n 36574: a1 = s1 + 0x1740\n 36578: u64 [a2 + 1456] = 0\n 36582: ra = 1406, jump @19\n      : @1326 [@dyn 703] (gas: 3)\n 36589: a0 = u64 [s1 + 0x1f0]\n 36593: a0 = i32 [a0]\n 36595: jump @1328 if a0 >u 63\n      : @1327 (gas: 3)\n 36599: a1 = u64 [s1 + 0x1f0]\n 36603: u32 [a1 + 0] = 0x40\n 36606: fallthrough\n      : @1328 (gas: 5)\n 36607: a0 = 0x1\n 36610: a2 = 0x24\n 36613: a1 = u64 [s1 + 0x1f8]\n 36617: ecalli 12 // 'seal_return'\n 36619: fallthrough\n      : @1329 (gas: 10)\n 36620: a0 = s1 + 0x7ff\n 36624: a0 = a0 + 0x191\n 36628: u64 [a0 + 64] = 0\n 36631: u64 [a0 + 56] = 0\n 36634: u64 [a0 + 48] = 0\n 36637: a2 = a0\n 36639: t0 = 0x580\n 36643: a0 = 0x4e487b7100000000\n 36653: a1 = s1 + 0x7ff\n 36657: fallthrough\n      : @1330 [@dyn 704] (gas: 4)\n 36658: a1 = a1 + 0x1c1\n 36662: u64 [a2 + 0x48] = a0\n 36665: a0 = 0\n 36667: ra = 1410, jump @19\n      : @1331 [@dyn 705] (gas: 12)\n 36674: a1 = s1 + 0x7ff\n 36678: a1 = a1 + 0x191\n 36682: u64 [a1 + 40] = 0\n 36685: u64 [a1 + 32] = 0\n 36688: u64 [a1 + 16] = 0x41\n 36692: a2 = a1\n 36694: a0 = 0x4\n 36697: a1 = s1 + 0x7ff\n 36701: a1 = a1 + 0x1a1\n 36705: u64 [a2 + 24] = 0\n 36708: ra = 0x588\n 36712: jump @19\n      : @1332 (gas: 9)\n 36716: a0 = a0 + 0x191\n 36720: u64 [a0 + 160] = 0\n 36724: u64 [a0 + 152] = 0\n 36728: u64 [a0 + 144] = 0\n 36732: a2 = a0\n 36734: t0 = 0x584\n 36738: a0 = 0x4e487b7100000000\n 36748: a1 = s1 + 0x7ff\n 36752: fallthrough\n      : @1333 [@dyn 706] (gas: 4)\n 36753: a1 = a1 + 0x221\n 36757: u64 [a2 + 0xa8] = a0\n 36761: a0 = 0\n 36763: ra = 1414, jump @19\n      : @1334 [@dyn 707] (gas: 11)\n 36770: a1 = s1 + 0x7ff\n 36774: a1 = a1 + 0x191\n 36778: u64 [a1 + 136] = 0\n 36782: u64 [a1 + 128] = 0\n 36786: u64 [a1 + 112] = 0x41\n 36790: a2 = a1\n 36792: a0 = 0x4\n 36795: a1 = s1 + 0x7ff\n 36799: a1 = a1 + 0x201\n 36803: u64 [a2 + 120] = 0\n 36806: ra = 1416, jump @19\n      : @1335 [@dyn 708] (gas: 3)\n 36813: a0 = u64 [s1 + 0x58]\n 36816: a0 = i32 [a0]\n 36818: jump @1337 if a0 >u 63\n      : @1336 (gas: 3)\n 36822: a1 = u64 [s1 + 0x58]\n 36825: u32 [a1 + 0] = 0x40\n 36828: fallthrough\n      : @1337 (gas: 6)\n 36829: a0 = 0x1\n 36832: a2 = 0x24\n 36835: a1 = u64 [s1 + 0xb8]\n 36839: ra = 0x58a\n 36843: ecalli 12 // 'seal_return'\n 36845: fallthrough\n      : @1338 [@dyn 709] (gas: 11)\n 36846: sp = sp + 0xffffffffffffffc0\n 36849: u64 [sp + 0x38] = ra\n 36852: u64 [sp + 0x30] = s0\n 36855: u64 [sp + 0x28] = s1\n 36858: s0 = sp + 0x40\n 36861: sp = sp & 0xffffffffffffffe0\n 36864: s1 = a0\n 36866: i32 a0 = sp + 0\n 36868: a1 = 0x24\n 36871: ecalli 2 // 'call_data_load'\n 36873: fallthrough\n      : @1339 (gas: 10)\n 36874: a0 = u64 [sp + 0x10]\n 36877: a1 = u64 [sp + 0x18]\n 36880: a2 = 0x100000000\n 36890: a2 = a2 ^ a0\n 36893: a2 = a2 | a1\n 36896: a3 = a0 >> 0x20\n 36899: a3 = a3 <u 0x1\n 36902: a3 = 0 if a1 != 0\n 36904: a3 = 0 if a2 == 0\n 36906: jump @1341 if a3 == 0\n      : @1340 (gas: 12)\n 36909: a2 = u64 [sp]\n 36911: a3 = u64 [sp + 0x8]\n 36914: u64 [s1] = a2\n 36916: u64 [s1 + 0x8] = a3\n 36919: u64 [s1 + 0x10] = a0\n 36922: u64 [s1 + 0x18] = a1\n 36925: sp = s0 + 0xffffffffffffffc0\n 36928: ra = u64 [sp + 0x38]\n 36931: s0 = u64 [sp + 0x30]\n 36934: s1 = u64 [sp + 0x28]\n 36937: sp = sp + 0x40\n 36940: ret\n      : @1341 (gas: 8)\n 36942: a1 = 0x20220\n 36947: i32 a1 = a1 + 0\n 36949: a0 = 0x1\n 36952: a2 = 0\n 36954: ra = 0x58c\n 36958: ecalli 12 // 'seal_return'\n 36960: t0 = 0x58e\n 36964: jump @1661\n      : @1342 [@dyn 710] (gas: 1)\n 36967: t0 = 1422, jump @1661\n      : @1343 [@dyn 711] (gas: 31)\n 36973: a4 = u64 [a1]\n 36975: s1 = u64 [a2 + 0x8]\n 36978: ra = u64 [a1 + 0x8]\n 36981: t1 = u64 [a2]\n 36983: a3 = a4 + 0x1f\n 36986: u64 [sp + 0x58] = a4\n 36989: t0 = a3 <u a4\n 36992: a5 = ra + t0\n 36995: u64 [sp + 0x40] = t1\n 36998: t1 = a3 <u t1\n 37001: a3 = a5 ^ s1\n 37004: u64 [sp + 0x48] = s1\n 37007: a4 = a5 <u s1\n 37010: a4 = t1 if a3 == 0\n 37013: t2 = u64 [a1 + 0x10]\n 37016: a3 = a5 <u ra\n 37019: a3 = t0 if t0 == 0\n 37022: t0 = u64 [a2 + 0x18]\n 37025: t1 = u64 [a1 + 0x18]\n 37028: s1 = u64 [a2 + 0x10]\n 37031: a3 = a3 + t2\n 37034: a1 = a3 <u t2\n 37037: a1 = a1 + t1\n 37040: a2 = a1 ^ t0\n 37043: a1 = a1 <s t0\n 37046: a5 = a3 <u s1\n 37049: a1 = a5 if a2 == 0\n 37052: a3 = a3 ^ s1\n 37055: a2 = a2 | a3\n 37058: a4 = a1 if a2 != 0\n 37061: jump @1350 if a4 == 0\n      : @1344 (gas: 14)\n 37065: u64 [sp + 0x28] = t0\n 37068: u64 [sp + 0x30] = s1\n 37071: u64 [sp + 0x38] = a0\n 37074: a0 = u64 [sp + 0x58]\n 37077: a0 = a0 | t2\n 37080: u64 [sp + 0x18] = t1\n 37083: a1 = ra | t1\n 37086: a0 = a0 | a1\n 37089: a0 = a0 >> 0x20\n 37092: u64 [sp + 0x20] = t2\n 37095: a1 = a1 | t2\n 37098: a1 = a1 << 0x20\n 37101: a0 = a0 | a1\n 37104: jump @1349 if a0 != 0\n      : @1345 (gas: 5)\n 37108: s1 = ra\n 37110: a1 = i32 [sp + 0x58]\n 37113: i32 a0 = sp + 0x60\n 37116: ecalli 2 // 'call_data_load'\n 37118: fallthrough\n      : @1346 (gas: 8)\n 37119: t2 = u64 [sp + 0x78]\n 37122: a0 = u64 [sp + 0x70]\n 37125: a2 = u64 [sp + 0x68]\n 37128: u64 [sp + 0x50] = a0\n 37131: a0 = a0 | t2\n 37134: a1 = a2 <u 0x1\n 37137: a1 = 0 if a0 != 0\n 37139: jump @1351 if a1 == 0\n      : @1347 (gas: 46)\n 37143: a1 = u64 [sp + 0x60]\n 37146: a0 = u64 [sp + 0x58]\n 37149: a4 = a0 + 0x20\n 37152: a3 = a4 <u a0\n 37155: t1 = s1 + a3\n 37158: u64 [sp + 0x8] = a1\n 37161: a1 = a1 + a4\n 37164: t0 = a1 <u a4\n 37167: u64 [sp + 0x10] = a2\n 37170: a2 = a2 + t1\n 37173: a2 = a2 + t0\n 37176: a5 = a2 ^ t1\n 37179: a0 = a2 <u t1\n 37182: a0 = t0 if a5 == 0\n 37185: a5 = t1 <u s1\n 37188: a5 = a3 if a3 == 0\n 37191: a3 = u64 [sp + 0x20]\n 37194: ra = a3 + a5\n 37197: s1 = ra <u a3\n 37200: t0 = u64 [sp + 0x18]\n 37203: t0 = t0 + s1\n 37206: s1 = u64 [sp + 0x48]\n 37209: a5 = a2 ^ s1\n 37212: a2 = s1 <u a2\n 37215: s1 = u64 [sp + 0x40]\n 37218: a1 = s1 <u a1\n 37221: a1 = a2 if a5 != 0\n 37224: a2 = u64 [sp + 0x50]\n 37227: a2 = a2 + ra\n 37230: a5 = a2 <u ra\n 37233: u64 [sp + 0x58] = t2\n 37236: s1 = t0 + t2\n 37239: a5 = a5 + s1\n 37242: a0 = a0 + a2\n 37245: a2 = a0 <u a2\n 37248: a2 = a2 + a5\n 37251: s1 = u64 [sp + 0x28]\n 37254: a5 = a2 ^ s1\n 37257: a2 = s1 <u a2\n 37260: t2 = u64 [sp + 0x30]\n 37263: s1 = t2 <u a0\n 37266: s1 = a2 if a5 != 0\n 37269: a0 = a0 ^ t2\n 37272: a0 = a0 | a5\n 37275: a1 = s1 if a0 != 0\n 37278: jump @1352 if a1 != 0\n      : @1348 (gas: 19)\n 37281: a0 = u64 [sp + 0x38]\n 37284: a1 = u64 [sp + 0x8]\n 37287: u64 [a0 + 0x20] = a1\n 37290: u64 [a0] = a4\n 37292: a1 = u64 [sp + 0x10]\n 37295: u64 [a0 + 0x28] = a1\n 37298: u64 [a0 + 0x8] = t1\n 37301: a1 = u64 [sp + 0x50]\n 37304: u64 [a0 + 0x30] = a1\n 37307: u64 [a0 + 0x10] = ra\n 37310: a1 = u64 [sp + 0x58]\n 37313: u64 [a0 + 0x38] = a1\n 37316: u64 [a0 + 0x18] = t0\n 37319: sp = s0 + 0xffffffffffffff60\n 37323: ra = u64 [sp + 0x98]\n 37327: s0 = u64 [sp + 0x90]\n 37331: s1 = u64 [sp + 0x88]\n 37335: sp = sp + 0xa0\n 37339: ret\n      : @1349 (gas: 1)\n 37341: trap\n      : @1350 (gas: 2)\n 37342: a1 = 0x20220\n 37347: jump @1353\n      : @1351 (gas: 2)\n 37349: a1 = 0x20220\n 37354: jump @1353\n      : @1352 (gas: 2)\n 37356: a1 = 0x20220\n 37361: fallthrough\n      : @1353 (gas: 6)\n 37362: i32 a1 = a1 + 0\n 37364: a0 = 0x1\n 37367: a2 = 0\n 37369: ra = 0x590\n 37373: ecalli 12 // 'seal_return'\n 37375: fallthrough\n      : @1354 [@dyn 712] (gas: 33)\n 37376: sp = sp + 0xffffffffffffffa0\n 37379: u64 [sp + 0x58] = ra\n 37382: u64 [sp + 0x50] = s0\n 37385: u64 [sp + 0x48] = s1\n 37388: s0 = sp + 0x60\n 37391: sp = sp & 0xfffffffffffffff0\n 37394: a2 = u64 [a1 + 0x10]\n 37397: a5 = u64 [a1 + 0x8]\n 37400: a4 = u64 [a1]\n 37402: a1 = u64 [a1 + 0x18]\n 37405: t0 = a2 << 0x3f\n 37408: a3 = a5 >> 0x1\n 37411: t0 = a3 | t0\n 37414: a3 = a1 << 0x3f\n 37417: a2 = a2 >> 0x1\n 37420: a3 = a3 | a2\n 37423: a5 = a5 << 0x3f\n 37426: a2 = a4 >> 0x1\n 37429: a5 = a5 | a2\n 37432: t1 = a1 >> 0x1\n 37435: a4 = a4 & 0x1\n 37438: a1 = -a4\n 37440: s1 = a4 <u 0x1\n 37443: a2 = a5 & 0x7f\n 37446: t2 = a1 & a3\n 37449: a3 = a1 & t0\n 37452: a2 = a5 if a4 != 0\n 37455: a4 = a1 & t1\n 37458: a1 = a2 <u 0x20\n 37461: a1 = 0 if a3 != 0\n 37463: a5 = t2 | a4\n 37466: a1 = 0 if a5 != 0\n 37468: jump @1357 if s1 != a1\n      : @1355 (gas: 5)\n 37471: u64 [a0] = a2\n 37473: u64 [a0 + 0x8] = a3\n 37476: u64 [a0 + 0x10] = t2\n 37479: u64 [a0 + 0x18] = a4\n 37482: t0 = 1426, jump @1650\n      : @1356 [@dyn 713] (gas: 1)\n 37488: ret\n      : @1357 (gas: 8)\n 37490: u64 [sp + 48] = 0\n 37493: u64 [sp + 40] = 0\n 37496: u64 [sp + 32] = 0\n 37499: a0 = 0x4e487b7100000000\n 37509: a1 = sp + 0x20\n 37512: u64 [sp + 0x38] = a0\n 37515: a0 = 0\n 37517: ra = 1428, jump @19\n      : @1358 [@dyn 714] (gas: 7)\n 37524: u64 [sp + 24] = 0\n 37527: u64 [sp + 16] = 0\n 37530: u64 [sp + 0] = 0x22\n 37533: a0 = 0x4\n 37536: a1 = sp\n 37538: u64 [sp + 8] = 0\n 37541: ra = 1430, jump @19\n      : @1359 [@dyn 715] (gas: 2)\n 37548: a1 = i32 [0x2020c]\n 37553: jump @1361 if a1 >u 63\n      : @1360 (gas: 2)\n 37557: u32 [0x2020c] = 0x40\n 37563: fallthrough\n      : @1361 (gas: 7)\n 37564: a1 = 0x20220\n 37569: i32 a1 = a1 + 0\n 37571: a0 = 0x1\n 37574: a2 = 0x24\n 37577: ra = 0x598\n 37581: ecalli 12 // 'seal_return'\n 37583: fallthrough\n      : @1362 [@dyn 716] (gas: 46)\n 37584: sp = sp + 0xffffffffffffff70\n 37588: u64 [sp + 0x88] = ra\n 37592: u64 [sp + 0x80] = s0\n 37596: u64 [sp + 0x78] = s1\n 37599: s0 = sp + 0x90\n 37603: sp = sp & 0xfffffffffffffff0\n 37606: t0 = a0\n 37608: a2 = u64 [a1]\n 37610: t2 = u64 [a0 + 0x8]\n 37613: a5 = u64 [a1 + 0x8]\n 37616: t1 = u64 [a0]\n 37618: a3 = a2 + 0x1f\n 37621: ra = a3 <u a2\n 37624: a2 = a5 + ra\n 37627: a3 = a3 & 0xffffffffffffffe0\n 37630: u64 [sp + 0x8] = t1\n 37633: t1 = t1 + a3\n 37636: a4 = t1 <u a3\n 37639: a3 = a2 + t2\n 37642: a3 = a3 + a4\n 37645: s1 = a3 ^ a2\n 37648: a0 = a3 <u a2\n 37651: a0 = a4 if s1 == 0\n 37654: a4 = u64 [t0 + 0x18]\n 37657: a5 = a2 <u a5\n 37660: s1 = u64 [a1 + 0x10]\n 37663: t0 = u64 [t0 + 0x10]\n 37666: a1 = u64 [a1 + 0x18]\n 37669: a5 = ra if ra == 0\n 37672: a5 = a5 + s1\n 37675: s1 = a5 <u s1\n 37678: a2 = a5 + t0\n 37681: a0 = a0 + a2\n 37684: a5 = a2 <u a5\n 37687: a2 = a0 <u a2\n 37690: a1 = a1 + a4\n 37693: a1 = a1 + s1\n 37696: a1 = a1 + a5\n 37699: a5 = a1 + a2\n 37702: a1 = a5 >u 0\n 37704: a2 = a0 >u 0\n 37706: a2 = a1 if a5 != 0\n 37709: a1 = a0 | a5\n 37712: s1 = a3 >u 0\n 37714: s1 = a2 if a1 != 0\n 37717: jump @1366 if s1 != 0\n      : @1363 (gas: 13)\n 37720: a1 = u64 [sp + 0x8]\n 37723: a1 = t1 <u a1\n 37726: a2 = a3 ^ t2\n 37729: s1 = a3 <u t2\n 37732: s1 = a1 if a2 == 0\n 37735: a1 = a0 <u t0\n 37738: a2 = a5 ^ a4\n 37741: a4 = a5 <u a4\n 37744: a4 = a1 if a2 == 0\n 37747: a1 = a0 ^ t0\n 37750: a1 = a1 | a2\n 37753: a4 = s1 if a1 == 0\n 37756: jump @1366 if a4 != 0\n      : @1364 (gas: 7)\n 37759: u64 [sp + 0x50] = t1\n 37762: u64 [sp + 0x58] = a3\n 37765: u64 [sp + 0x60] = a0\n 37768: a0 = 0x40\n 37771: a1 = sp + 0x50\n 37774: u64 [sp + 0x68] = a5\n 37777: ra = 1434, jump @19\n      : @1365 [@dyn 717] (gas: 6)\n 37784: sp = s0 + 0xffffffffffffff70\n 37788: ra = u64 [sp + 0x88]\n 37792: s0 = u64 [sp + 0x80]\n 37796: s1 = u64 [sp + 0x78]\n 37799: sp = sp + 0x90\n 37803: ret\n      : @1366 (gas: 1)\n 37805: t0 = 1436, jump @1646\n      : @1367 [@dyn 718] (gas: 1)\n 37811: ra = 1438, jump @19\n      : @1368 [@dyn 719] (gas: 7)\n 37818: u64 [sp + 40] = 0\n 37821: u64 [sp + 32] = 0\n 37824: u64 [sp + 16] = 0x41\n 37828: a0 = 0x4\n 37831: a1 = sp + 0x10\n 37834: u64 [sp + 24] = 0\n 37837: ra = 1440, jump @19\n      : @1369 [@dyn 720] (gas: 2)\n 37844: a1 = i32 [0x2020c]\n 37849: jump @1371 if a1 >u 63\n      : @1370 (gas: 2)\n 37853: u32 [0x2020c] = 0x40\n 37859: fallthrough\n      : @1371 (gas: 7)\n 37860: a1 = 0x20220\n 37865: i32 a1 = a1 + 0\n 37867: a0 = 0x1\n 37870: a2 = 0x24\n 37873: ra = 0x5a2\n 37877: ecalli 12 // 'seal_return'\n 37879: fallthrough\n      : @1372 [@dyn 721] (gas: 24)\n 37880: sp = sp + 0xfffffffffffffda0\n 37884: a2 = sp + 0x200\n 37888: u64 [a2 + 0x58] = ra\n 37891: u64 [a2 + 0x50] = s0\n 37894: u64 [a2 + 0x48] = s1\n 37897: s0 = sp + 0x260\n 37901: sp = sp & 0xffffffffffffffe0\n 37904: s1 = sp\n 37906: u64 [s1 + 0x10] = a0\n 37909: a0 = u64 [a1 + 0x18]\n 37912: a2 = u64 [a1 + 0x10]\n 37915: a3 = u64 [a1 + 0x8]\n 37918: a1 = u64 [a1]\n 37920: u64 [s1 + 0xb0] = a0\n 37924: u64 [s1 + 0x238] = a0\n 37928: u64 [s1 + 0xa8] = a2\n 37932: u64 [s1 + 0x230] = a2\n 37936: u64 [s1 + 0xa0] = a3\n 37940: u64 [s1 + 0x228] = a3\n 37944: u64 [s1 + 0x98] = a1\n 37948: u64 [s1 + 0x220] = a1\n 37952: a0 = s1 + 0x200\n 37956: a1 = 0x40\n 37959: ra = 1444, jump @17\n      : @1373 [@dyn 722] (gas: 12)\n 37966: a1 = s1 + 0x200\n 37970: a0 = u64 [a1 + 0x18]\n 37973: u64 [s1 + 0x18] = a0\n 37976: a0 = u64 [a1 + 0x10]\n 37979: u64 [s1 + 0x20] = a0\n 37982: a0 = u64 [a1 + 0x8]\n 37985: u64 [s1 + 0x28] = a0\n 37988: a0 = u64 [a1]\n 37990: u64 [s1 + 0x30] = a0\n 37993: a0 = s1 + 0x1e0\n 37997: a1 = s1 + 0x220\n 38001: ra = 1446, jump @21\n      : @1374 [@dyn 723] (gas: 16)\n 38008: a4 = s1 + 0x100\n 38012: a0 = u64 [a4 + 0xf8]\n 38016: a1 = u64 [a4 + 0xf0]\n 38020: a2 = u64 [a4 + 0xe8]\n 38024: a3 = u64 [a4 + 0xe0]\n 38028: u64 [s1 + 0x90] = a0\n 38032: u64 [a4 + 0xb8] = a0\n 38036: u64 [s1 + 0x88] = a1\n 38040: u64 [a4 + 0xb0] = a1\n 38044: u64 [s1 + 0x80] = a2\n 38048: u64 [a4 + 0xa8] = a2\n 38052: a0 = s1 + 0x1c0\n 38056: a1 = s1 + 0x1a0\n 38060: u64 [s1 + 0xb8] = a3\n 38064: u64 [a4 + 0xa0] = a3\n 38068: ra = 1448, jump @1354\n      : @1375 [@dyn 724] (gas: 6)\n 38074: a0 = u64 [s1 + 0x30]\n 38077: a1 = u64 [s1 + 0x18]\n 38080: a2 = u64 [s1 + 0x28]\n 38083: a2 = a2 | a1\n 38086: a3 = u64 [s1 + 0x20]\n 38089: t0 = 1450, jump @1623\n      : @1376 [@dyn 725] (gas: 1)\n 38095: jump @1394 if a1 != 0\n      : @1377 (gas: 15)\n 38099: a5 = s1 + 0x100\n 38103: a2 = u64 [a5 + 0xd8]\n 38107: a3 = u64 [a5 + 0xd0]\n 38111: a1 = u64 [a5 + 0xc8]\n 38115: a4 = u64 [a5 + 0xc0]\n 38119: u64 [s1 + 0x60] = a4\n 38122: u64 [a5 + 0x80] = a4\n 38126: u64 [s1 + 0x70] = a1\n 38129: u64 [a5 + 0x88] = a1\n 38133: u64 [s1 + 0x68] = a3\n 38136: u64 [a5 + 0x90] = a3\n 38140: a1 = s1 + 0x180\n 38144: u64 [s1 + 0x78] = a2\n 38147: u64 [a5 + 0x98] = a2\n 38151: ra = 1452, jump @19\n      : @1378 [@dyn 726] (gas: 3)\n 38158: a3 = u64 [s1 + 0xb8]\n 38162: a0 = a3 & 0x1\n 38165: jump @1384 if a0 != 0\n      : @1379 (gas: 10)\n 38169: a0 = u64 [s1 + 0x20]\n 38172: a1 = u64 [s1 + 0x18]\n 38175: a0 = a0 | a1\n 38178: a1 = 0xffffffe0\n 38188: a4 = u64 [s1 + 0x30]\n 38191: a1 = a4 <u a1\n 38194: a2 = u64 [s1 + 0x28]\n 38197: a1 = 0 if a2 != 0\n 38199: a1 = 0 if a0 != 0\n 38201: jump @1394 if a1 == 0\n      : @1380 (gas: 12)\n 38205: a1 = a3 & 0xffffffffffffff00\n 38209: i32 a0 = a4 + 0x20\n 38212: a3 = u64 [s1 + 0x80]\n 38216: a2 = s1 + 0x100\n 38220: u64 [a2 + 0x8] = a3\n 38223: u64 [a2] = a1\n 38225: a1 = u64 [s1 + 0x88]\n 38229: u64 [a2 + 0x10] = a1\n 38232: a1 = s1 + 0x100\n 38236: a3 = u64 [s1 + 0x90]\n 38240: u64 [a2 + 0x18] = a3\n 38243: ra = 1454, jump @19\n      : @1381 [@dyn 727] (gas: 14)\n 38250: t2 = 0\n 38252: t1 = 0\n 38254: t0 = 0\n 38256: a0 = u64 [s1 + 0x68]\n 38259: a1 = u64 [s1 + 0x60]\n 38262: a0 = a0 | a1\n 38265: a1 = u64 [s1 + 0x78]\n 38268: a2 = u64 [s1 + 0x70]\n 38271: a1 = a1 | a2\n 38274: a0 = a0 | a1\n 38277: a0 = a0 >u 0\n 38279: a0 = a0 << 0x5\n 38282: u64 [s1 + 0xb8] = a0\n 38286: fallthrough\n      : @1382 (gas: 24)\n 38287: a1 = u64 [s1 + 0xb8]\n 38291: a0 = a1 + 0x20\n 38294: a1 = a0 <u a1\n 38297: a2 = t2 + a1\n 38300: a3 = a2 <u t2\n 38303: a3 = a1 if a1 == 0\n 38306: a3 = a3 + t1\n 38309: a1 = a3 <u t1\n 38312: a4 = t0 + a1\n 38315: a1 = u64 [s1 + 0x30]\n 38318: u64 [s1 + 0xe0] = a1\n 38322: u64 [s1 + 0xc0] = a0\n 38326: a0 = u64 [s1 + 0x28]\n 38329: u64 [s1 + 0xe8] = a0\n 38333: a0 = u64 [s1 + 0x20]\n 38336: u64 [s1 + 0xf0] = a0\n 38340: u64 [s1 + 0xc8] = a2\n 38344: a0 = u64 [s1 + 0x18]\n 38347: u64 [s1 + 0xf8] = a0\n 38351: u64 [s1 + 0xd0] = a3\n 38355: a0 = s1 + 0xe0\n 38359: a1 = s1 + 0xc0\n 38363: u64 [s1 + 0xd8] = a4\n 38367: ra = 1456, jump @1362\n      : @1383 [@dyn 728] (gas: 16)\n 38373: a0 = u64 [s1 + 0x10]\n 38376: a1 = u64 [s1 + 0x18]\n 38379: u64 [a0 + 0x18] = a1\n 38382: a1 = u64 [s1 + 0x20]\n 38385: u64 [a0 + 0x10] = a1\n 38388: a1 = u64 [s1 + 0x28]\n 38391: u64 [a0 + 0x8] = a1\n 38394: a1 = u64 [s1 + 0x30]\n 38397: u64 [a0] = a1\n 38399: sp = s0 + 0xfffffffffffffda0\n 38403: a0 = sp + 0x200\n 38407: ra = u64 [a0 + 0x58]\n 38410: s0 = u64 [a0 + 0x50]\n 38413: s1 = u64 [a0 + 0x48]\n 38416: sp = sp + 0x260\n 38420: ret\n      : @1384 (gas: 12)\n 38422: a0 = u64 [s1 + 0x98]\n 38426: a2 = s1 + 0x100\n 38430: u64 [a2 + 0x60] = a0\n 38433: a0 = u64 [s1 + 0xa0]\n 38437: u64 [a2 + 0x68] = a0\n 38440: a0 = u64 [s1 + 0xa8]\n 38444: u64 [a2 + 0x70] = a0\n 38447: a1 = s1 + 0x160\n 38451: a0 = u64 [s1 + 0xb0]\n 38455: u64 [a2 + 0x78] = a0\n 38458: a0 = 0\n 38460: ra = 1458, jump @19\n      : @1385 [@dyn 729] (gas: 6)\n 38467: a0 = sp + 0xffffffffffffffe0\n 38470: a0 = a0 & 0xffffffffffffffe0\n 38473: u64 [s1 + 0x58] = a0\n 38476: sp = a0\n 38478: a1 = i32 [0x2020c]\n 38483: jump @1387 if a1 >u 31\n      : @1386 (gas: 2)\n 38487: u32 [0x2020c] = 0x20\n 38493: fallthrough\n      : @1387 (gas: 49)\n 38494: a0 = sp + 0xffffffffffffffe0\n 38497: a2 = a0 & 0xffffffffffffffe0\n 38500: u64 [s1 + 0xb0] = a2\n 38504: sp = a2\n 38506: a0 = 0x20220\n 38511: i32 a0 = a0 + 0\n 38513: i32 a2 = a2 + 0\n 38515: a1 = 0x20\n 38518: ecalli 7 // 'hash_keccak_256'\n 38520: u64 [s1 + 184] = 0\n 38524: t2 = 0\n 38526: t1 = 0\n 38528: t0 = 0\n 38530: a5 = u64 [s1 + 0xb0]\n 38534: a0 = u64 [a5 + 0x18]\n 38537: a1 = u64 [s1 + 0x30]\n 38540: a2 = a1 + 0x20\n 38543: u64 [s1 + 0x50] = a2\n 38546: a1 = a2 <u a1\n 38549: a2 = u64 [s1 + 0x28]\n 38552: a3 = a2 + a1\n 38555: u64 [s1 + 0x48] = a3\n 38558: a4 = a3 <u a2\n 38561: a4 = a1 if a1 == 0\n 38564: a1 = u64 [a5 + 0x10]\n 38567: a2 = u64 [a5 + 0x8]\n 38570: a3 = u64 [a5]\n 38572: a0 = reverse a0\n 38574: a1 = reverse a1\n 38576: ra = reverse a2\n 38578: a2 = reverse a3\n 38580: a5 = u64 [s1 + 0x58]\n 38583: a3 = a2\n 38585: u64 [a5 + 0x18] = a2\n 38588: a2 = ra\n 38590: u64 [s1 + 0x80] = a2\n 38594: u64 [a5 + 0x10] = a2\n 38597: u64 [s1 + 0x90] = a1\n 38601: u64 [a5 + 0x8] = a1\n 38604: a2 = a0\n 38606: u64 [a5] = a0\n 38608: a0 = u64 [s1 + 0x20]\n 38611: a4 = a4 + a0\n 38614: u64 [s1 + 0x40] = a4\n 38617: a0 = a4 <u a0\n 38620: a1 = u64 [s1 + 0x18]\n 38623: a0 = a0 + a1\n 38626: u64 [s1 + 0x38] = a0\n 38629: fallthrough\n      : @1388 (gas: 19)\n 38630: u64 [s1 + 0x88] = a3\n 38634: u64 [s1 + 0x98] = a2\n 38638: a0 = u64 [s1 + 0x60]\n 38641: a1 = u64 [s1 + 0xb8]\n 38645: a0 = a1 <u a0\n 38648: a2 = u64 [s1 + 0x70]\n 38651: a1 = t2 ^ a2\n 38654: a2 = t2 <u a2\n 38657: a2 = a0 if a1 == 0\n 38660: a4 = u64 [s1 + 0x68]\n 38663: a0 = t1 <u a4\n 38666: a3 = u64 [s1 + 0x78]\n 38669: a1 = t0 ^ a3\n 38672: a3 = t0 <u a3\n 38675: a3 = a0 if a1 == 0\n 38678: a0 = t1 ^ a4\n 38681: a0 = a0 | a1\n 38684: a3 = a2 if a0 == 0\n 38687: jump @1382 if a3 == 0\n      : @1389 (gas: 6)\n 38691: a0 = s1 + 0x140\n 38695: a1 = a5\n 38697: u64 [s1 + 0xb0] = t0\n 38701: u64 [s1 + 0xa8] = t1\n 38705: u64 [s1 + 0xa0] = t2\n 38709: ra = 1460, jump @21\n      : @1390 [@dyn 730] (gas: 7)\n 38716: a1 = u64 [s1 + 0x50]\n 38719: a0 = u64 [s1 + 0xb8]\n 38723: a0 = a0 + a1\n 38726: a1 = a0 <u a1\n 38729: a4 = u64 [s1 + 0x48]\n 38732: a2 = u64 [s1 + 0xa0]\n 38736: t0 = 1462, jump @1642\n      : @1391 [@dyn 731] (gas: 19)\n 38742: a3 = u64 [s1 + 0x40]\n 38745: a1 = u64 [s1 + 0xa8]\n 38749: a1 = a1 + a3\n 38752: t0 = a1 <u a3\n 38755: a5 = u64 [s1 + 0x38]\n 38758: a3 = u64 [s1 + 0xb0]\n 38762: a5 = a5 + a3\n 38765: a3 = a5 + t0\n 38768: a4 = a4 + a1\n 38771: a1 = a4 <u a1\n 38774: a1 = a1 + a3\n 38777: a1 = a1 | a2\n 38780: a2 = a0 | a4\n 38783: a2 = a2 | a1\n 38786: a1 = a1 | a4\n 38789: a2 = a2 >> 0x20\n 38792: a1 = a1 << 0x20\n 38795: a1 = a1 | a2\n 38798: jump @1394 if a1 != 0\n      : @1392 (gas: 11)\n 38802: a5 = s1 + 0x100\n 38806: a2 = u64 [a5 + 0x58]\n 38809: a1 = u64 [a5 + 0x50]\n 38812: a3 = u64 [a5 + 0x48]\n 38815: a4 = u64 [a5 + 0x40]\n 38818: u64 [a5 + 0x20] = a4\n 38821: u64 [a5 + 0x28] = a3\n 38824: u64 [a5 + 0x30] = a1\n 38827: a1 = s1 + 0x120\n 38831: u64 [a5 + 0x38] = a2\n 38834: ra = 1464, jump @19\n      : @1393 [@dyn 732] (gas: 38)\n 38841: a3 = u64 [s1 + 0x98]\n 38845: a3 = a3 + 0x1\n 38848: a0 = a3 <u 0x1\n 38851: t2 = u64 [s1 + 0x90]\n 38855: t2 = t2 + a0\n 38858: a0 = a3 | t2\n 38861: a0 = a0 <u 0x1\n 38864: a1 = u64 [s1 + 0x80]\n 38868: t1 = a1 + a0\n 38871: a1 = t1 <u a1\n 38874: a0 = u64 [s1 + 0x88]\n 38878: a0 = a0 + a1\n 38881: a1 = u64 [s1 + 0xb8]\n 38885: ra = a1 + 0x20\n 38888: a2 = ra <u a1\n 38891: a4 = u64 [s1 + 0xa0]\n 38895: a1 = a4 + a2\n 38898: a4 = a1 <u a4\n 38901: a4 = a2 if a2 == 0\n 38904: a2 = u64 [s1 + 0xa8]\n 38908: a4 = a4 + a2\n 38911: a2 = a4 <u a2\n 38914: t0 = u64 [s1 + 0xb0]\n 38918: t0 = t0 + a2\n 38921: a2 = t2\n 38923: u64 [s1 + 0x90] = a2\n 38927: a5 = u64 [s1 + 0x58]\n 38930: u64 [a5 + 0x8] = a2\n 38933: a2 = a3\n 38935: u64 [a5] = a3\n 38937: u64 [a5 + 0x10] = t1\n 38940: a3 = a0\n 38942: u64 [a5 + 0x18] = a0\n 38945: u64 [s1 + 0x80] = t1\n 38949: u64 [s1 + 0xb8] = ra\n 38953: t2 = a1\n 38955: t1 = a4\n 38957: jump @1388\n      : @1394 (gas: 1)\n 38960: trap\n      : @1395 (gas: 21)\n 38961: sp = sp + 0xffffffffffffff10\n 38965: u64 [sp + 0xe8] = ra\n 38969: u64 [sp + 0xe0] = s0\n 38973: u64 [sp + 0xd8] = s1\n 38977: s0 = sp + 0xf0\n 38981: sp = sp & 0xfffffffffffffff0\n 38984: a5 = u64 [a1 + 0x10]\n 38987: a4 = u64 [a1 + 0x18]\n 38990: a3 = u64 [a1 + 0x8]\n 38993: a1 = u64 [a1]\n 38995: u64 [sp + 0x28] = a3\n 38998: u64 [sp + 0x18] = a4\n 39001: a4 = a4 | a3\n 39004: a3 = a1 | a5\n 39007: a3 = a3 | a4\n 39010: a3 = a3 >> 0x20\n 39013: u64 [sp + 0x20] = a5\n 39016: a4 = a4 | a5\n 39019: a4 = a4 << 0x20\n 39022: a3 = a3 | a4\n 39025: jump @1410 if a3 != 0\n      : @1396 (gas: 11)\n 39029: u64 [sp + 0x8] = a0\n 39032: a0 = u64 [a2 + 0x18]\n 39035: u64 [sp + 0x68] = a0\n 39038: s1 = u64 [a2 + 0x10]\n 39041: a0 = u64 [a2 + 0x8]\n 39044: u64 [sp + 0x60] = a0\n 39047: a0 = u64 [a2]\n 39049: u64 [sp + 0x58] = a0\n 39052: a0 = sp + 0xb0\n 39056: u64 [sp + 0x10] = a1\n 39059: ra = 1466, jump @17\n      : @1397 [@dyn 733] (gas: 12)\n 39066: a0 = u64 [sp + 0x58]\n 39069: a2 = a0 | s1\n 39072: a1 = u64 [sp + 0x68]\n 39075: a3 = u64 [sp + 0x60]\n 39078: a1 = a1 | a3\n 39081: a2 = a2 | a1\n 39084: a2 = a2 >> 0x20\n 39087: u64 [sp + 0x50] = s1\n 39090: a1 = a1 | s1\n 39093: a1 = a1 << 0x20\n 39096: a1 = a1 | a2\n 39099: jump @1410 if a1 != 0\n      : @1398 (gas: 15)\n 39103: a2 = u64 [sp + 0xc8]\n 39107: a3 = u64 [sp + 0xc0]\n 39111: a4 = u64 [sp + 0xb8]\n 39115: a1 = u64 [sp + 0xb0]\n 39119: u64 [sp + 0x30] = a1\n 39122: u64 [sp + 0x90] = a1\n 39126: u64 [sp + 0x38] = a4\n 39129: u64 [sp + 0x98] = a4\n 39133: u64 [sp + 0x40] = a3\n 39136: u64 [sp + 0xa0] = a3\n 39140: a1 = sp + 0x90\n 39144: u64 [sp + 0x48] = a2\n 39147: u64 [sp + 0xa8] = a2\n 39151: s1 = a0\n 39153: ra = 1468, jump @19\n      : @1399 [@dyn 734] (gas: 9)\n 39160: a0 = u64 [sp + 0x68]\n 39163: a1 = u64 [sp + 0x50]\n 39166: a1 = a1 | a0\n 39169: a0 = 0xffffffe0\n 39179: a2 = s1 <u a0\n 39182: a3 = u64 [sp + 0x60]\n 39185: a2 = 0 if a3 != 0\n 39187: a2 = 0 if a1 != 0\n 39189: jump @1410 if a2 == 0\n      : @1400 (gas: 9)\n 39193: a1 = u64 [sp + 0x20]\n 39196: a2 = u64 [sp + 0x18]\n 39199: a1 = a1 | a2\n 39202: a2 = u64 [sp + 0x10]\n 39205: a0 = a2 <u a0\n 39208: a3 = u64 [sp + 0x28]\n 39211: a0 = 0 if a3 != 0\n 39213: a0 = 0 if a1 != 0\n 39215: jump @1410 if a0 == 0\n      : @1401 (gas: 13)\n 39219: a5 = s1\n 39221: s1 = u64 [sp + 0x30]\n 39224: a3 = u64 [sp + 0x40]\n 39227: a0 = s1 | a3\n 39230: a1 = u64 [sp + 0x48]\n 39233: a4 = u64 [sp + 0x38]\n 39236: a1 = a1 | a4\n 39239: a0 = a0 | a1\n 39242: a0 = a0 >> 0x20\n 39245: a1 = a1 | a3\n 39248: a1 = a1 << 0x20\n 39251: a0 = a0 | a1\n 39254: jump @1410 if a0 != 0\n      : @1402 (gas: 5)\n 39258: i32 a0 = a5 + 0x20\n 39261: i32 a1 = a2 + 0x20\n 39264: u64 [sp + 0x28] = a1\n 39267: a1 = s1\n 39269: ra = 1470, jump @29\n      : @1403 [@dyn 735] (gas: 4)\n 39276: u64 [sp + 0x20] = a0\n 39279: a0 = u64 [sp + 0x28]\n 39282: a1 = s1\n 39284: ra = 1472, jump @29\n      : @1404 [@dyn 736] (gas: 4)\n 39291: a1 = a0\n 39293: a0 = u64 [sp + 0x20]\n 39296: a2 = s1\n 39298: ra = 1474, jump @0\n      : @1405 [@dyn 737] (gas: 6)\n 39305: a0 = u64 [sp + 0x58]\n 39308: a0 = a0 + s1\n 39311: a1 = a0 <u s1\n 39314: a2 = u64 [sp + 0x60]\n 39317: a4 = u64 [sp + 0x38]\n 39320: t0 = 1476, jump @1642\n      : @1406 [@dyn 738] (gas: 17)\n 39326: a1 = u64 [sp + 0x50]\n 39329: a3 = u64 [sp + 0x40]\n 39332: a1 = a1 + a3\n 39335: a3 = a1 <u a3\n 39338: a5 = u64 [sp + 0x68]\n 39341: s1 = u64 [sp + 0x48]\n 39344: a5 = a5 + s1\n 39347: a3 = a3 + a5\n 39350: a4 = a4 + a1\n 39353: a1 = a4 <u a1\n 39356: a1 = a1 + a3\n 39359: a1 = a1 | a4\n 39362: a3 = 0xffffffe0\n 39372: a3 = a0 <u a3\n 39375: a3 = 0 if a2 != 0\n 39377: a3 = 0 if a1 != 0\n 39379: jump @1410 if a3 == 0\n      : @1407 (gas: 7)\n 39383: i32 a0 = a0 + 0x20\n 39386: u64 [sp + 136] = 0\n 39390: u64 [sp + 128] = 0\n 39394: u64 [sp + 120] = 0\n 39397: a1 = sp + 0x70\n 39400: u64 [sp + 112] = 0\n 39403: ra = 1478, jump @19\n      : @1408 [@dyn 739] (gas: 9)\n 39410: s1 = u64 [sp + 0x30]\n 39413: s1 = s1 + 0x1f\n 39416: a0 = 0x1ffffffe0\n 39426: a0 = a0 & s1\n 39429: a1 = u64 [sp + 0x58]\n 39432: a0 = a0 + a1\n 39435: a1 = a0 <u a1\n 39438: a3 = u64 [sp + 0x60]\n 39441: t0 = 1480, jump @1621\n      : @1409 [@dyn 740] (gas: 24)\n 39447: a1 = u64 [sp + 0x50]\n 39450: a3 = a3 + a1\n 39453: a1 = a3 <u a1\n 39456: a4 = u64 [sp + 0x68]\n 39459: a1 = a1 + a4\n 39462: a4 = a0 + 0x20\n 39465: a0 = a4 <u a0\n 39468: a5 = a2 + a0\n 39471: a2 = a5 <u a2\n 39474: a2 = a0 if a0 == 0\n 39477: a2 = a2 + a3\n 39480: a0 = a2 <u a3\n 39483: a0 = a0 + a1\n 39486: a1 = u64 [sp + 0x8]\n 39489: u64 [a1] = a4\n 39491: u64 [a1 + 0x8] = a5\n 39494: u64 [a1 + 0x10] = a2\n 39497: u64 [a1 + 0x18] = a0\n 39500: sp = s0 + 0xffffffffffffff10\n 39504: ra = u64 [sp + 0xe8]\n 39508: s0 = u64 [sp + 0xe0]\n 39512: s1 = u64 [sp + 0xd8]\n 39516: sp = sp + 0xf0\n 39520: ret\n      : @1410 (gas: 1)\n 39522: trap\n      : @1411 (gas: 10)\n 39523: a4 = u64 [a1 + 0x18]\n 39526: a3 = u64 [a1 + 0x10]\n 39529: t1 = u64 [a1 + 0x8]\n 39532: t0 = a4 >u 0\n 39534: a5 = a3 >u 0\n 39536: a5 = t0 if a4 != 0\n 39539: t0 = a3 | a4\n 39542: a2 = t1 >u 0\n 39544: a2 = a5 if t0 != 0\n 39547: jump @1413 if a2 != 0\n      : @1412 (gas: 24)\n 39550: a1 = u64 [a1]\n 39552: a2 = a3 >> 0x3b\n 39555: a4 = a4 << 0x5\n 39558: t0 = a4 | a2\n 39561: a4 = t1 >> 0x3b\n 39564: a3 = a3 << 0x5\n 39567: a3 = a3 | a4\n 39570: a4 = a1 >> 0x3b\n 39573: t1 = t1 << 0x5\n 39576: a4 = t1 | a4\n 39579: a1 = a1 << 0x5\n 39582: a5 = a1 + 0x20\n 39585: a1 = a5 <u a1\n 39588: a2 = a4 + a1\n 39591: a4 = a2 <u a4\n 39594: a4 = a1 if a1 == 0\n 39597: a4 = a4 + a3\n 39600: a1 = a4 <u a3\n 39603: a1 = a1 + t0\n 39606: u64 [a0] = a5\n 39608: u64 [a0 + 0x8] = a2\n 39611: u64 [a0 + 0x10] = a4\n 39614: u64 [a0 + 0x18] = a1\n 39617: ret\n      : @1413 (gas: 1)\n 39619: t0 = 1482, jump @1604\n      : @1414 [@dyn 741] (gas: 1)\n 39625: ra = 1484, jump @19\n      : @1415 [@dyn 742] (gas: 7)\n 39632: u64 [sp + 24] = 0\n 39635: u64 [sp + 16] = 0\n 39638: u64 [sp + 0] = 0x41\n 39641: a0 = 0x4\n 39644: a1 = sp\n 39646: u64 [sp + 8] = 0\n 39649: ra = 1486, jump @19\n      : @1416 [@dyn 743] (gas: 2)\n 39656: a1 = i32 [0x2020c]\n 39661: jump @1418 if a1 >u 63\n      : @1417 (gas: 2)\n 39665: u32 [0x2020c] = 0x40\n 39671: fallthrough\n      : @1418 (gas: 7)\n 39672: a1 = 0x20220\n 39677: i32 a1 = a1 + 0\n 39679: a0 = 0x1\n 39682: a2 = 0x24\n 39685: ra = 0x5d0\n 39689: ecalli 12 // 'seal_return'\n 39691: fallthrough\n      : @1419 [@dyn 744] (gas: 16)\n 39692: a2 = u64 [a1]\n 39694: t0 = u64 [a1 + 0x18]\n 39697: a3 = u64 [a1 + 0x8]\n 39700: a5 = u64 [a1 + 0x10]\n 39703: a4 = a2 + 0x1\n 39706: a2 = a4 <u 0x1\n 39709: a2 = a2 + a3\n 39712: a3 = a4 | a2\n 39715: a3 = a3 <u 0x1\n 39718: a3 = a3 + a5\n 39721: a5 = a3 <u a5\n 39724: a5 = a5 + t0\n 39727: t0 = a2 | a5\n 39730: a1 = a4 | a3\n 39733: a1 = a1 | t0\n 39736: jump @1421 if a1 == 0\n      : @1420 (gas: 5)\n 39739: u64 [a0] = a4\n 39741: u64 [a0 + 0x8] = a2\n 39744: u64 [a0 + 0x10] = a3\n 39747: u64 [a0 + 0x18] = a5\n 39750: ret\n      : @1421 (gas: 1)\n 39752: t0 = 1490, jump @1604\n      : @1422 [@dyn 745] (gas: 1)\n 39758: ra = 1492, jump @19\n      : @1423 [@dyn 746] (gas: 7)\n 39765: u64 [sp + 24] = 0\n 39768: u64 [sp + 16] = 0\n 39771: u64 [sp + 0] = 0x11\n 39774: a0 = 0x4\n 39777: a1 = sp\n 39779: u64 [sp + 8] = 0\n 39782: ra = 1494, jump @19\n      : @1424 [@dyn 747] (gas: 2)\n 39789: a1 = i32 [0x2020c]\n 39794: jump @1426 if a1 >u 63\n      : @1425 (gas: 2)\n 39798: u32 [0x2020c] = 0x40\n 39804: fallthrough\n      : @1426 (gas: 7)\n 39805: a1 = 0x20220\n 39810: i32 a1 = a1 + 0\n 39812: a0 = 0x1\n 39815: a2 = 0x24\n 39818: ra = 0x5d8\n 39822: ecalli 12 // 'seal_return'\n 39824: fallthrough\n      : @1427 [@dyn 748] (gas: 45)\n 39825: sp = sp + 0xffffffffffffff90\n 39828: u64 [sp + 0x68] = ra\n 39831: u64 [sp + 0x60] = s0\n 39834: u64 [sp + 0x58] = s1\n 39837: s0 = sp + 0x70\n 39840: sp = sp & 0xfffffffffffffff0\n 39843: a3 = u64 [a1 + 0x18]\n 39846: u64 [sp + 0x8] = a3\n 39849: a4 = u64 [a2 + 0x18]\n 39852: t2 = u64 [a1]\n 39854: u64 [sp] = t2\n 39856: a3 = u64 [a1 + 0x8]\n 39859: s1 = u64 [a2 + 0x8]\n 39862: a5 = u64 [a2]\n 39864: t1 = u64 [a1 + 0x10]\n 39867: t0 = u64 [a2 + 0x10]\n 39870: a2 = s1 + a3\n 39873: t2 = t2 + a5\n 39876: a5 = t2 <u a5\n 39879: a2 = a2 + a5\n 39882: ra = a2 ^ s1\n 39885: s1 = a2 <u s1\n 39888: s1 = a5 if ra == 0\n 39891: a1 = t0 + t1\n 39894: a5 = u64 [sp + 0x8]\n 39897: a5 = a5 + a4\n 39900: a4 = a1 <u t0\n 39903: a4 = a4 + a5\n 39906: a5 = a1 + s1\n 39909: a1 = a5 <u a1\n 39912: ra = a4 + a1\n 39915: a4 = a2 ^ a3\n 39918: a3 = a2 <u a3\n 39921: a1 = u64 [sp]\n 39923: s1 = t2 <u a1\n 39926: s1 = a3 if a4 != 0\n 39929: t0 = a5 <u t1\n 39932: a1 = u64 [sp + 0x8]\n 39935: a4 = ra ^ a1\n 39938: a3 = ra <u a1\n 39941: a3 = t0 if a4 == 0\n 39944: a1 = a5 ^ t1\n 39947: a1 = a1 | a4\n 39950: s1 = a3 if a1 != 0\n 39953: jump @1429 if s1 != 0\n      : @1428 (gas: 10)\n 39956: u64 [a0] = t2\n 39958: u64 [a0 + 0x8] = a2\n 39961: u64 [a0 + 0x10] = a5\n 39964: u64 [a0 + 0x18] = ra\n 39967: sp = s0 + 0xffffffffffffff90\n 39970: ra = u64 [sp + 0x68]\n 39973: s0 = u64 [sp + 0x60]\n 39976: s1 = u64 [sp + 0x58]\n 39979: sp = sp + 0x70\n 39982: ret\n      : @1429 (gas: 1)\n 39984: t0 = 1498, jump @1646\n      : @1430 [@dyn 749] (gas: 1)\n 39990: ra = 1500, jump @19\n      : @1431 [@dyn 750] (gas: 7)\n 39997: u64 [sp + 40] = 0\n 40000: u64 [sp + 32] = 0\n 40003: u64 [sp + 16] = 0x11\n 40007: a0 = 0x4\n 40010: a1 = sp + 0x10\n 40013: u64 [sp + 24] = 0\n 40016: ra = 1502, jump @19\n      : @1432 [@dyn 751] (gas: 2)\n 40023: a1 = i32 [0x2020c]\n 40028: jump @1434 if a1 >u 63\n      : @1433 (gas: 2)\n 40032: u32 [0x2020c] = 0x40\n 40038: fallthrough\n      : @1434 (gas: 7)\n 40039: a1 = 0x20220\n 40044: i32 a1 = a1 + 0\n 40046: a0 = 0x1\n 40049: a2 = 0x24\n 40052: ra = 0x5e0\n 40056: ecalli 12 // 'seal_return'\n 40058: fallthrough\n      : @1435 [@dyn 752] (gas: 10)\n 40059: a3 = u64 [a1 + 0x18]\n 40062: a4 = u64 [a1 + 0x10]\n 40065: t0 = u64 [a1 + 0x8]\n 40068: a5 = a3 >u 0\n 40070: a2 = a4 >u 0\n 40072: a2 = a5 if a3 != 0\n 40075: a3 = a3 | a4\n 40078: a4 = t0 >u 0\n 40080: a4 = a2 if a3 != 0\n 40083: jump @1437 if a4 != 0\n      : @1436 (gas: 16)\n 40086: a1 = u64 [a1]\n 40088: a2 = a1 + 0x1f\n 40091: a1 = a2 <u a1\n 40094: a1 = a1 + t0\n 40097: a1 = a1 & 0x1\n 40100: a2 = a2 & 0xffffffffffffffe0\n 40103: a3 = a2 + 0x20\n 40106: a2 = a3 <u a2\n 40109: a4 = a1 + a2\n 40112: a1 = a4 <u a1\n 40115: a1 = a2 if a2 == 0\n 40118: u64 [a0 + 24] = 0\n 40121: u64 [a0] = a3\n 40123: u64 [a0 + 0x8] = a4\n 40126: u64 [a0 + 0x10] = a1\n 40129: ret\n      : @1437 (gas: 1)\n 40131: t0 = 1506, jump @1604\n      : @1438 [@dyn 753] (gas: 1)\n 40137: ra = 1508, jump @19\n      : @1439 [@dyn 754] (gas: 7)\n 40144: u64 [sp + 24] = 0\n 40147: u64 [sp + 16] = 0\n 40150: u64 [sp + 0] = 0x41\n 40153: a0 = 0x4\n 40156: a1 = sp\n 40158: u64 [sp + 8] = 0\n 40161: ra = 1510, jump @19\n      : @1440 [@dyn 755] (gas: 2)\n 40168: a1 = i32 [0x2020c]\n 40173: jump @1442 if a1 >u 63\n      : @1441 (gas: 2)\n 40177: u32 [0x2020c] = 0x40\n 40183: fallthrough\n      : @1442 (gas: 7)\n 40184: a1 = 0x20220\n 40189: i32 a1 = a1 + 0\n 40191: a0 = 0x1\n 40194: a2 = 0x24\n 40197: ra = 0x5e8\n 40201: ecalli 12 // 'seal_return'\n 40203: fallthrough\n      : @1443 [@dyn 756] (gas: 38)\n 40204: sp = sp + 0xfffffffffffffe50\n 40208: u64 [sp + 0x1a8] = ra\n 40212: u64 [sp + 0x1a0] = s0\n 40216: u64 [sp + 0x198] = s1\n 40220: s0 = sp + 0x1b0\n 40224: sp = sp & 0xfffffffffffffff0\n 40227: a4 = u64 [a3 + 0x18]\n 40230: u64 [sp + 0x20] = a4\n 40233: a4 = u64 [a3 + 0x10]\n 40236: u64 [sp + 0x28] = a4\n 40239: a4 = u64 [a3 + 0x8]\n 40242: u64 [sp + 0x10] = a4\n 40245: a3 = u64 [a3]\n 40247: u64 [sp + 0x18] = a3\n 40250: a3 = u64 [a1 + 0x18]\n 40253: u64 [sp + 0x30] = a3\n 40256: a3 = u64 [a1 + 0x10]\n 40259: u64 [sp + 0x38] = a3\n 40262: a3 = u64 [a1 + 0x8]\n 40265: u64 [sp + 0x70] = a3\n 40268: a1 = u64 [a1]\n 40270: u64 [sp + 0x68] = a1\n 40273: a3 = u64 [a2]\n 40275: a1 = u64 [a2 + 0x8]\n 40278: a4 = u64 [a2 + 0x10]\n 40281: a2 = u64 [a2 + 0x18]\n 40284: u64 [sp + 0x8] = a0\n 40287: u64 [sp + 0x98] = a2\n 40291: u64 [sp + 0x168] = a2\n 40295: u64 [sp + 0x90] = a4\n 40299: u64 [sp + 0x160] = a4\n 40303: u64 [sp + 0x88] = a1\n 40307: u64 [sp + 0x158] = a1\n 40311: a0 = sp + 0x170\n 40315: a1 = sp + 0x150\n 40319: u64 [sp + 0x60] = a3\n 40322: u64 [sp + 0x150] = a3\n 40326: ra = 1514, jump @1435\n      : @1444 [@dyn 757] (gas: 11)\n 40332: a0 = u64 [sp + 0x170]\n 40336: u64 [sp + 0x58] = a0\n 40339: a0 = u64 [sp + 0x178]\n 40343: u64 [sp + 0x50] = a0\n 40346: a0 = u64 [sp + 0x180]\n 40350: u64 [sp + 0x48] = a0\n 40353: a0 = u64 [sp + 0x188]\n 40357: u64 [sp + 0x40] = a0\n 40360: a0 = sp + 0x130\n 40364: a1 = 0x40\n 40367: ra = 1516, jump @17\n      : @1445 [@dyn 758] (gas: 23)\n 40374: a1 = u64 [sp + 0x148]\n 40378: u64 [sp + 0xa8] = a1\n 40382: a2 = u64 [sp + 0x140]\n 40386: u64 [sp + 0xa0] = a2\n 40390: s1 = u64 [sp + 0x138]\n 40394: a0 = u64 [sp + 0x130]\n 40398: a3 = u64 [sp + 0x40]\n 40401: u64 [sp + 0x108] = a3\n 40405: a3 = a0\n 40407: u64 [sp + 0x80] = a0\n 40411: a0 = u64 [sp + 0x48]\n 40414: u64 [sp + 0x100] = a0\n 40418: a0 = u64 [sp + 0x50]\n 40421: u64 [sp + 0xf8] = a0\n 40425: a0 = u64 [sp + 0x58]\n 40428: u64 [sp + 0xf0] = a0\n 40432: u64 [sp + 0x128] = a1\n 40436: u64 [sp + 0x120] = a2\n 40440: u64 [sp + 0x118] = s1\n 40444: a0 = sp + 0x110\n 40448: a1 = sp + 0xf0\n 40452: u64 [sp + 0x110] = a3\n 40456: ra = 1518, jump @1362\n      : @1446 [@dyn 759] (gas: 6)\n 40462: a0 = u64 [sp + 0x80]\n 40466: u64 [sp + 0x78] = s1\n 40469: a2 = u64 [sp + 0xa8]\n 40473: a2 = a2 | s1\n 40476: a3 = u64 [sp + 0xa0]\n 40480: t0 = 1520, jump @1623\n      : @1447 [@dyn 760] (gas: 1)\n 40486: jump @1458 if a1 != 0\n      : @1448 (gas: 10)\n 40490: s1 = u64 [sp + 0x60]\n 40493: u64 [sp + 0xd0] = s1\n 40497: a1 = u64 [sp + 0x88]\n 40501: u64 [sp + 0xd8] = a1\n 40505: a1 = u64 [sp + 0x90]\n 40509: u64 [sp + 0xe0] = a1\n 40513: a1 = sp + 0xd0\n 40517: a2 = u64 [sp + 0x98]\n 40521: u64 [sp + 0xe8] = a2\n 40525: ra = 1522, jump @19\n      : @1449 [@dyn 761] (gas: 41)\n 40532: a1 = u64 [sp + 0x68]\n 40535: a1 = a1 + s1\n 40538: a2 = a1 <u s1\n 40541: a0 = u64 [sp + 0x70]\n 40544: t2 = u64 [sp + 0x88]\n 40548: a0 = a0 + t2\n 40551: a3 = a0 + a2\n 40554: a4 = a3 ^ t2\n 40557: a0 = a3 <u t2\n 40560: a0 = a2 if a4 == 0\n 40563: a4 = u64 [sp + 0x10]\n 40566: a2 = a3 ^ a4\n 40569: a3 = a4 <u a3\n 40572: a4 = u64 [sp + 0x18]\n 40575: a1 = a4 <u a1\n 40578: s1 = u64 [sp + 0x38]\n 40581: t1 = u64 [sp + 0x90]\n 40585: a4 = t1 + s1\n 40588: a1 = a3 if a2 != 0\n 40591: a2 = a4 <u t1\n 40594: ra = u64 [sp + 0x30]\n 40597: t0 = u64 [sp + 0x98]\n 40601: a3 = t0 + ra\n 40604: a2 = a2 + a3\n 40607: a0 = a0 + a4\n 40610: a3 = a0 <u a4\n 40613: a2 = a2 + a3\n 40616: a4 = u64 [sp + 0x20]\n 40619: a3 = a2 ^ a4\n 40622: a2 = a4 <u a2\n 40625: a5 = u64 [sp + 0x28]\n 40628: a4 = a5 <u a0\n 40631: a2 = a4 if a3 == 0\n 40634: a0 = a0 ^ a5\n 40637: a0 = a0 | a3\n 40640: a1 = a2 if a0 != 0\n 40643: a4 = t0\n 40645: a3 = t1\n 40647: t0 = u64 [sp + 0x60]\n 40650: t1 = u64 [sp + 0x68]\n 40653: jump @1459 if a1 != 0\n      : @1450 (gas: 9)\n 40657: a0 = t1 | s1\n 40660: a1 = u64 [sp + 0x70]\n 40663: a1 = a1 | ra\n 40666: a0 = a0 | a1\n 40669: a0 = a0 >> 0x20\n 40672: a1 = a1 | s1\n 40675: a1 = a1 << 0x20\n 40678: a0 = a0 | a1\n 40681: jump @1458 if a0 != 0\n      : @1451 (gas: 10)\n 40685: a0 = t0 | a3\n 40688: a1 = t2 | a4\n 40691: a0 = a0 | a1\n 40694: a0 = a0 >> 0x20\n 40697: a1 = a1 | a3\n 40700: a1 = a1 << 0x20\n 40703: a0 = a0 | a1\n 40706: a2 = u64 [sp + 0x78]\n 40709: a3 = u64 [sp + 0xa8]\n 40713: jump @1458 if a0 != 0\n      : @1452 (gas: 9)\n 40717: a0 = u64 [sp + 0xa0]\n 40721: a0 = a0 | a3\n 40724: a1 = 0xffffffe0\n 40734: a4 = u64 [sp + 0x80]\n 40738: u64 [sp + 0x70] = a1\n 40741: a1 = a4 <u a1\n 40744: a1 = 0 if a2 != 0\n 40746: a1 = 0 if a0 != 0\n 40748: jump @1458 if a1 == 0\n      : @1453 (gas: 6)\n 40752: i32 t1 = t1 + 0\n 40754: u64 [sp + 0x68] = t1\n 40757: i32 a0 = a4 + 0x20\n 40760: a1 = t0\n 40762: s1 = t0\n 40764: ra = 1524, jump @29\n      : @1454 [@dyn 762] (gas: 5)\n 40771: i32 a0 = a0 + 0\n 40773: i32 a1 = s1 + 0\n 40775: a2 = u64 [sp + 0x68]\n 40778: ecalli 1 // 'call_data_copy'\n 40780: fallthrough\n      : @1455 (gas: 27)\n 40781: t0 = u64 [sp + 0x80]\n 40785: a0 = t0 + s1\n 40788: a1 = a0 <u t0\n 40791: a2 = u64 [sp + 0x88]\n 40795: a4 = u64 [sp + 0x78]\n 40798: a2 = a2 + a4\n 40801: a2 = a2 + a1\n 40804: a3 = a2 ^ a4\n 40807: a4 = a2 <u a4\n 40810: a4 = a1 if a3 == 0\n 40813: a1 = u64 [sp + 0x90]\n 40817: a3 = u64 [sp + 0xa0]\n 40821: a1 = a1 + a3\n 40824: a3 = a1 <u a3\n 40827: a5 = u64 [sp + 0x98]\n 40831: s1 = u64 [sp + 0xa8]\n 40835: a5 = a5 + s1\n 40838: a3 = a3 + a5\n 40841: a4 = a4 + a1\n 40844: a1 = a4 <u a1\n 40847: a1 = a1 + a3\n 40850: a1 = a1 | a4\n 40853: a3 = u64 [sp + 0x70]\n 40856: a3 = a0 <u a3\n 40859: a3 = 0 if a2 != 0\n 40861: a3 = 0 if a1 != 0\n 40863: jump @1458 if a3 == 0\n      : @1456 (gas: 8)\n 40866: s1 = t0\n 40868: i32 a0 = a0 + 0x20\n 40871: u64 [sp + 200] = 0\n 40875: u64 [sp + 192] = 0\n 40879: u64 [sp + 184] = 0\n 40883: a1 = sp + 0xb0\n 40887: u64 [sp + 176] = 0\n 40891: ra = 1526, jump @19\n      : @1457 [@dyn 763] (gas: 14)\n 40898: a0 = u64 [sp + 0x8]\n 40901: a1 = u64 [sp + 0xa8]\n 40905: u64 [a0 + 0x18] = a1\n 40908: a1 = u64 [sp + 0xa0]\n 40912: u64 [a0 + 0x10] = a1\n 40915: a1 = u64 [sp + 0x78]\n 40918: u64 [a0 + 0x8] = a1\n 40921: u64 [a0] = s1\n 40923: sp = s0 + 0xfffffffffffffe50\n 40927: ra = u64 [sp + 0x1a8]\n 40931: s0 = u64 [sp + 0x1a0]\n 40935: s1 = u64 [sp + 0x198]\n 40939: sp = sp + 0x1b0\n 40943: ret\n      : @1458 (gas: 1)\n 40945: trap\n      : @1459 (gas: 8)\n 40946: a1 = 0x20220\n 40951: i32 a1 = a1 + 0\n 40953: a0 = 0x1\n 40956: a2 = 0\n 40958: ra = 0x5f8\n 40962: ecalli 12 // 'seal_return'\n 40964: t0 = 0x5fa\n 40968: jump @1661\n      : @1460 [@dyn 764] (gas: 1)\n 40971: t0 = 1530, jump @1661\n      : @1461 [@dyn 765] (gas: 13)\n 40977: a2 = u64 [a1 + 0x18]\n 40980: u64 [sp + 0x20] = a2\n 40983: a2 = u64 [a1 + 0x10]\n 40986: u64 [sp + 0x18] = a2\n 40989: a2 = u64 [a1 + 0x8]\n 40992: u64 [sp + 0x10] = a2\n 40995: a1 = u64 [a1]\n 40997: u64 [sp + 0x8] = a1\n 41000: t0 = u64 [a0 + 0x18]\n 41003: t1 = u64 [a0 + 0x10]\n 41006: s1 = u64 [a0 + 0x8]\n 41009: a5 = u64 [a0]\n 41011: fallthrough\n      : @1462 (gas: 20)\n 41012: a0 = u64 [sp + 0x8]\n 41015: a0 = a5 <u a0\n 41018: a2 = u64 [sp + 0x10]\n 41021: a1 = s1 ^ a2\n 41024: a2 = s1 <u a2\n 41027: a2 = a0 if a1 == 0\n 41030: a4 = u64 [sp + 0x18]\n 41033: a0 = t1 <u a4\n 41036: a3 = u64 [sp + 0x20]\n 41039: a1 = t0 ^ a3\n 41042: a3 = t0 <u a3\n 41045: a3 = a0 if a1 == 0\n 41048: a0 = t1 ^ a4\n 41051: a0 = a0 | a1\n 41054: a3 = a2 if a0 == 0\n 41057: u64 [sp + 0x40] = a5\n 41060: u64 [sp + 0x48] = s1\n 41063: u64 [sp + 0x50] = t1\n 41066: u64 [sp + 0x58] = t0\n 41069: jump @1465 if a3 == 0\n      : @1463 (gas: 10)\n 41072: u64 [sp + 120] = 0\n 41075: u64 [sp + 112] = 0\n 41078: u64 [sp + 104] = 0\n 41081: u64 [sp + 96] = 0\n 41084: a0 = sp + 0x40\n 41087: a1 = sp + 0x60\n 41090: u64 [sp + 0x38] = t0\n 41093: u64 [sp + 0x30] = a5\n 41096: u64 [sp + 0x28] = t1\n 41099: ra = 1532, jump @23\n      : @1464 [@dyn 766] (gas: 13)\n 41106: a5 = u64 [sp + 0x30]\n 41109: t0 = u64 [sp + 0x38]\n 41112: a5 = a5 + 0x1\n 41115: a0 = a5 <u 0x1\n 41118: s1 = s1 + a0\n 41121: a0 = a5 | s1\n 41124: a0 = a0 <u 0x1\n 41127: a1 = u64 [sp + 0x28]\n 41130: a0 = a0 + a1\n 41133: a1 = a0 <u a1\n 41136: t0 = t0 + a1\n 41139: t1 = a0\n 41141: jump @1462\n      : @1465 (gas: 6)\n 41144: sp = s0 + 0xffffffffffffff60\n 41148: ra = u64 [sp + 0x98]\n 41152: s0 = u64 [sp + 0x90]\n 41156: s1 = u64 [sp + 0x88]\n 41160: sp = sp + 0xa0\n 41164: ret\n      : @1466 (gas: 14)\n 41166: sp = sp + 0xffffffffffffff20\n 41170: u64 [sp + 0xd8] = ra\n 41174: u64 [sp + 0xd0] = s0\n 41178: u64 [sp + 0xc8] = s1\n 41182: s0 = sp + 0xe0\n 41186: sp = sp & 0xfffffffffffffff0\n 41189: a1 = u64 [a0 + 0x10]\n 41192: a2 = u64 [a0 + 0x18]\n 41195: a3 = u64 [a0 + 0x8]\n 41198: a0 = u64 [a0]\n 41200: a2 = a2 | a3\n 41203: a0 = a0 | a1\n 41206: a0 = a0 | a2\n 41209: jump @1468 if a0 == 0\n      : @1467 (gas: 6)\n 41212: sp = s0 + 0xffffffffffffff20\n 41216: ra = u64 [sp + 0xd8]\n 41220: s0 = u64 [sp + 0xd0]\n 41224: s1 = u64 [sp + 0xc8]\n 41228: sp = sp + 0xe0\n 41232: ret\n      : @1468 (gas: 3)\n 41234: a0 = sp + 0xa0\n 41238: a1 = 0x40\n 41241: ra = 1534, jump @17\n      : @1469 [@dyn 767] (gas: 15)\n 41248: a2 = u64 [sp + 0xb8]\n 41252: s1 = u64 [sp + 0xb0]\n 41256: a0 = u64 [sp + 0xa8]\n 41260: a1 = u64 [sp + 0xa0]\n 41264: u64 [sp + 0x10] = a0\n 41267: u64 [sp + 0x8] = a2\n 41270: a0 = a0 | a2\n 41273: u64 [sp + 0x18] = a1\n 41276: a1 = a1 | s1\n 41279: a1 = a1 | a0\n 41282: a1 = a1 >> 0x20\n 41285: a0 = a0 | s1\n 41288: a0 = a0 << 0x20\n 41291: a0 = a0 | a1\n 41294: jump @1476 if a0 != 0\n      : @1470 (gas: 8)\n 41298: u64 [sp + 144] = 0\n 41302: u64 [sp + 136] = 0\n 41306: u64 [sp + 128] = 0\n 41310: a0 = 0x8c379a000000000\n 41320: a1 = sp + 0x80\n 41324: u64 [sp + 0x98] = a0\n 41328: a0 = u64 [sp + 0x18]\n 41331: ra = 1536, jump @19\n      : @1471 [@dyn 768] (gas: 11)\n 41338: a2 = u64 [sp + 0x8]\n 41341: a2 = a2 | s1\n 41344: s1 = 0x100000000\n 41354: a0 = 0xfffffffc\n 41364: a1 = u64 [sp + 0x18]\n 41367: a0 = a1 <u a0\n 41370: a1 = u64 [sp + 0x10]\n 41373: a0 = 0 if a1 != 0\n 41375: u64 [sp + 0x8] = a2\n 41378: a0 = 0 if a2 != 0\n 41380: jump @1476 if a0 == 0\n      : @1472 (gas: 8)\n 41383: a0 = u64 [sp + 0x18]\n 41386: i32 a0 = a0 + 0x4\n 41389: u64 [sp + 120] = 0\n 41392: u64 [sp + 112] = 0\n 41395: u64 [sp + 96] = 0x20\n 41399: a1 = sp + 0x60\n 41402: u64 [sp + 104] = 0\n 41405: ra = 1538, jump @19\n      : @1473 [@dyn 769] (gas: 8)\n 41412: a0 = s1 + 0xffffffffffffffdc\n 41415: a1 = u64 [sp + 0x18]\n 41418: a0 = a1 <u a0\n 41421: a1 = u64 [sp + 0x10]\n 41424: a0 = 0 if a1 != 0\n 41426: a1 = u64 [sp + 0x8]\n 41429: a0 = 0 if a1 != 0\n 41431: jump @1476 if a0 == 0\n      : @1474 (gas: 8)\n 41434: s1 = u64 [sp + 0x18]\n 41437: i32 a0 = s1 + 0x24\n 41440: u64 [sp + 88] = 0\n 41443: u64 [sp + 80] = 0\n 41446: u64 [sp + 64] = 0x14\n 41450: a1 = sp + 0x40\n 41453: u64 [sp + 72] = 0\n 41456: ra = 1540, jump @19\n      : @1475 [@dyn 770] (gas: 7)\n 41463: a0 = 0xffffffbc\n 41473: a0 = s1 <u a0\n 41476: a1 = u64 [sp + 0x10]\n 41479: a0 = 0 if a1 != 0\n 41481: a1 = u64 [sp + 0x8]\n 41484: a0 = 0 if a1 != 0\n 41486: jump @1477 if a0 != 0\n      : @1476 (gas: 1)\n 41489: trap\n      : @1477 (gas: 11)\n 41490: s1 = u64 [sp + 0x18]\n 41493: i32 a0 = s1 + 0x44\n 41496: a1 = u64 [0x201b8]\n 41501: a2 = u64 [0x201c0]\n 41506: u64 [sp + 0x38] = a1\n 41509: u64 [sp + 0x30] = a2\n 41512: a1 = 0x7469766500000000\n 41522: u64 [sp + 0x28] = a1\n 41525: a1 = sp + 0x20\n 41528: u64 [sp + 32] = 0\n 41531: ra = 1542, jump @19\n      : @1478 [@dyn 771] (gas: 3)\n 41538: a1 = 0x64\n 41541: a0 = s1\n 41543: ra = 1544, jump @29\n      : @1479 [@dyn 772] (gas: 6)\n 41550: i32 a1 = a0 + 0\n 41552: a0 = 0x1\n 41555: a2 = 0x64\n 41558: ra = 0x60a\n 41562: ecalli 12 // 'seal_return'\n 41564: fallthrough\n      : @1480 [@dyn 773] (gas: 31)\n 41565: sp = sp + 0xfffffffffffffee0\n 41569: u64 [sp + 0x118] = ra\n 41573: u64 [sp + 0x110] = s0\n 41577: u64 [sp + 0x108] = s1\n 41581: s0 = sp + 0x120\n 41585: sp = sp & 0xffffffffffffffe0\n 41588: s1 = sp\n 41590: u64 [s1 + 0x38] = a0\n 41593: a0 = u64 [a2]\n 41595: u64 [s1 + 0x48] = a0\n 41598: a0 = u64 [a2 + 0x8]\n 41601: u64 [s1 + 0x40] = a0\n 41604: a0 = u64 [a2 + 0x10]\n 41607: u64 [s1 + 0x50] = a0\n 41610: a0 = u64 [a2 + 0x18]\n 41613: u64 [s1 + 0x58] = a0\n 41616: a0 = u64 [a1 + 0x18]\n 41619: a2 = u64 [a1 + 0x10]\n 41622: a3 = u64 [a1 + 0x8]\n 41625: a1 = u64 [a1]\n 41627: u64 [s1 + 0x30] = a0\n 41630: u64 [s1 + 0xf8] = a0\n 41634: u64 [s1 + 0x28] = a2\n 41637: u64 [s1 + 0xf0] = a2\n 41641: u64 [s1 + 0x20] = a3\n 41644: u64 [s1 + 0xe8] = a3\n 41648: u64 [s1 + 0x18] = a1\n 41651: u64 [s1 + 0xe0] = a1\n 41655: a0 = s1 + 0xc0\n 41659: a1 = s1 + 0xe0\n 41663: ra = 1548, jump @21\n      : @1481 [@dyn 774] (gas: 16)\n 41670: a0 = u64 [s1 + 0xd8]\n 41674: t0 = u64 [s1 + 0xc0]\n 41678: a2 = u64 [s1 + 0xd0]\n 41682: a3 = u64 [s1 + 0xc8]\n 41686: a1 = u64 [s1 + 0x58]\n 41689: a4 = a0 ^ a1\n 41692: a1 = a1 <u a0\n 41695: a0 = u64 [s1 + 0x50]\n 41698: a5 = a0 <u a2\n 41701: a5 = a1 if a4 != 0\n 41704: a1 = u64 [s1 + 0x40]\n 41707: t1 = a3 ^ a1\n 41710: a3 = a1 <u a3\n 41713: a1 = u64 [s1 + 0x48]\n 41716: a1 = a1 <u t0\n 41719: t0 = 1550, jump @1659\n      : @1482 [@dyn 775] (gas: 1)\n 41725: jump @1487 if a1 == 0\n      : @1483 (gas: 11)\n 41729: a0 = u64 [s1 + 0x18]\n 41732: u64 [s1 + 0x60] = a0\n 41735: a0 = u64 [s1 + 0x20]\n 41738: u64 [s1 + 0x68] = a0\n 41741: a0 = u64 [s1 + 0x28]\n 41744: u64 [s1 + 0x70] = a0\n 41747: a1 = s1 + 0x60\n 41750: a0 = u64 [s1 + 0x30]\n 41753: u64 [s1 + 0x78] = a0\n 41756: a0 = 0\n 41758: ra = 1552, jump @19\n      : @1484 [@dyn 776] (gas: 2)\n 41765: a1 = i32 [0x2020c]\n 41770: jump @1486 if a1 >u 31\n      : @1485 (gas: 2)\n 41774: u32 [0x2020c] = 0x20\n 41780: fallthrough\n      : @1486 (gas: 52)\n 41781: a0 = sp + 0xffffffffffffffe0\n 41784: a2 = a0 & 0xffffffffffffffe0\n 41787: u64 [s1 + 0x30] = a2\n 41790: sp = a2\n 41792: a0 = 0x20220\n 41797: i32 a0 = a0 + 0\n 41799: i32 a2 = a2 + 0\n 41801: a1 = 0x20\n 41804: ecalli 7 // 'hash_keccak_256'\n 41806: a3 = u64 [s1 + 0x30]\n 41809: a0 = u64 [a3]\n 41811: a1 = u64 [a3 + 0x8]\n 41814: a2 = u64 [a3 + 0x18]\n 41817: a3 = u64 [a3 + 0x10]\n 41820: t0 = reverse a0\n 41822: a1 = reverse a1\n 41824: a2 = reverse a2\n 41826: a3 = reverse a3\n 41828: a4 = u64 [s1 + 0x40]\n 41831: a4 = a4 + a3\n 41834: t1 = u64 [s1 + 0x48]\n 41837: t1 = t1 + a2\n 41840: a2 = t1 <u a2\n 41843: a4 = a4 + a2\n 41846: a0 = a4 ^ a3\n 41849: a3 = a4 <u a3\n 41852: a3 = a2 if a0 == 0\n 41855: a0 = u64 [s1 + 0x50]\n 41858: a0 = a0 + a1\n 41861: a3 = a3 + a0\n 41864: a2 = a3 <u a0\n 41867: a5 = u64 [s1 + 0x58]\n 41870: t0 = t0 + a5\n 41873: a0 = a0 <u a1\n 41876: a0 = a0 + t0\n 41879: a0 = a0 + a2\n 41882: a1 = u64 [s1 + 0x38]\n 41885: a2 = 0\n 41887: u64 [a1 + 56] = 0\n 41890: u64 [a1 + 48] = 0\n 41893: u64 [a1 + 40] = 0\n 41896: u64 [a1 + 32] = 0\n 41899: u64 [a1] = t1\n 41901: u64 [a1 + 0x8] = a4\n 41904: u64 [a1 + 0x10] = a3\n 41907: u64 [a1 + 0x18] = a0\n 41910: sp = s0 + 0xfffffffffffffee0\n 41914: ra = u64 [sp + 0x118]\n 41918: s0 = u64 [sp + 0x110]\n 41922: s1 = u64 [sp + 0x108]\n 41926: sp = sp + 0x120\n 41930: ret\n      : @1487 (gas: 8)\n 41932: u64 [s1 + 176] = 0\n 41936: u64 [s1 + 168] = 0\n 41940: u64 [s1 + 160] = 0\n 41944: a0 = 0x4e487b7100000000\n 41954: a1 = s1 + 0xa0\n 41958: u64 [s1 + 0xb8] = a0\n 41962: a0 = 0\n 41964: ra = 1554, jump @19\n      : @1488 [@dyn 777] (gas: 7)\n 41971: u64 [s1 + 152] = 0\n 41975: u64 [s1 + 144] = 0\n 41979: u64 [s1 + 128] = 0x32\n 41984: a0 = 0x4\n 41987: a1 = s1 + 0x80\n 41991: u64 [s1 + 136] = 0\n 41995: ra = 1556, jump @19\n      : @1489 [@dyn 778] (gas: 2)\n 42002: a1 = i32 [0x2020c]\n 42007: jump @1491 if a1 >u 63\n      : @1490 (gas: 2)\n 42011: u32 [0x2020c] = 0x40\n 42017: fallthrough\n      : @1491 (gas: 7)\n 42018: a1 = 0x20220\n 42023: i32 a1 = a1 + 0\n 42025: a0 = 0x1\n 42028: a2 = 0x24\n 42031: ra = 0x616\n 42035: ecalli 12 // 'seal_return'\n 42037: fallthrough\n      : @1492 [@dyn 779] (gas: 9)\n 42038: sp = sp + 0xfffffffffffffec0\n 42042: u64 [sp + 0x138] = ra\n 42046: u64 [sp + 0x130] = s0\n 42050: u64 [sp + 0x128] = s1\n 42054: s0 = sp + 0x140\n 42058: sp = sp & 0xffffffffffffffe0\n 42061: s1 = a0\n 42063: ecalli 11 // 'return_data_size'\n 42065: fallthrough\n      : @1493 (gas: 1)\n 42066: jump @1506 if a0 == 0\n      : @1494 (gas: 11)\n 42070: u64 [sp + 0x18] = s1\n 42073: ecalli 11 // 'return_data_size'\n 42075: a2 = a0\n 42077: u64 [sp + 248] = 0\n 42081: u64 [sp + 240] = 0\n 42085: u64 [sp + 232] = 0\n 42089: a0 = sp + 0x100\n 42093: a1 = sp + 0xe0\n 42097: u64 [sp + 0x20] = a2\n 42100: u64 [sp + 0xe0] = a2\n 42104: ra = 1560, jump @1435\n      : @1495 [@dyn 780] (gas: 11)\n 42110: a0 = u64 [sp + 0x100]\n 42114: u64 [sp + 0x40] = a0\n 42117: a0 = u64 [sp + 0x108]\n 42121: u64 [sp + 0x38] = a0\n 42124: a0 = u64 [sp + 0x110]\n 42128: u64 [sp + 0x30] = a0\n 42131: a0 = u64 [sp + 0x118]\n 42135: u64 [sp + 0x28] = a0\n 42138: a0 = sp + 0xc0\n 42142: a1 = 0x40\n 42145: ra = 1562, jump @17\n      : @1496 [@dyn 781] (gas: 22)\n 42152: a0 = u64 [sp + 0xd8]\n 42156: u64 [sp + 0x58] = a0\n 42159: s1 = u64 [sp + 0xd0]\n 42163: a2 = u64 [sp + 0xc8]\n 42167: u64 [sp + 0x50] = a2\n 42170: a3 = u64 [sp + 0xc0]\n 42174: u64 [sp + 0x48] = a3\n 42177: a1 = u64 [sp + 0x28]\n 42180: u64 [sp + 0x98] = a1\n 42184: a1 = u64 [sp + 0x30]\n 42187: u64 [sp + 0x90] = a1\n 42191: a1 = u64 [sp + 0x38]\n 42194: u64 [sp + 0x88] = a1\n 42198: a1 = u64 [sp + 0x40]\n 42201: u64 [sp + 0x80] = a1\n 42205: u64 [sp + 0xb8] = a0\n 42209: u64 [sp + 0xb0] = s1\n 42213: u64 [sp + 0xa8] = a2\n 42217: a0 = sp + 0xa0\n 42221: a1 = sp + 0x80\n 42225: u64 [sp + 0xa0] = a3\n 42229: ra = 1564, jump @1362\n      : @1497 [@dyn 782] (gas: 12)\n 42235: a0 = u64 [sp + 0x48]\n 42238: a1 = u64 [sp + 0x58]\n 42241: a2 = u64 [sp + 0x50]\n 42244: a2 = a2 | a1\n 42247: a1 = a0 | s1\n 42250: a1 = a1 | a2\n 42253: a1 = a1 >> 0x20\n 42256: u64 [sp + 0x40] = s1\n 42259: a2 = a2 | s1\n 42262: a2 = a2 << 0x20\n 42265: a1 = a1 | a2\n 42268: jump @1505 if a1 != 0\n      : @1498 (gas: 7)\n 42272: u64 [sp + 120] = 0\n 42275: u64 [sp + 112] = 0\n 42278: u64 [sp + 104] = 0\n 42281: a1 = sp + 0x60\n 42284: a2 = u64 [sp + 0x20]\n 42287: u64 [sp + 0x60] = a2\n 42290: ra = 1566, jump @19\n      : @1499 [@dyn 783] (gas: 2)\n 42297: ecalli 11 // 'return_data_size'\n 42299: fallthrough\n      : @1500 (gas: 10)\n 42300: a3 = u64 [sp + 0x48]\n 42303: a1 = u64 [sp + 0x40]\n 42306: a2 = u64 [sp + 0x58]\n 42309: a1 = a1 | a2\n 42312: a2 = 0xffffffe0\n 42322: a2 = a3 <u a2\n 42325: a4 = u64 [sp + 0x50]\n 42328: a2 = 0 if a4 != 0\n 42330: a2 = 0 if a1 != 0\n 42332: jump @1505 if a2 == 0\n      : @1501 (gas: 3)\n 42335: s1 = a0\n 42337: a0 = a0 >> 0x20\n 42340: jump @1505 if a0 != 0\n      : @1502 (gas: 5)\n 42343: i32 a0 = a3 + 0x20\n 42346: i32 a1 = s1 + 0\n 42348: u64 [sp + 0x38] = a1\n 42351: a1 = s1\n 42353: ra = 1568, jump @29\n      : @1503 [@dyn 784] (gas: 6)\n 42360: u32 [sp + 0x120] = s1\n 42364: i32 a0 = a0 + 0\n 42366: i32 a1 = sp + 0x120\n 42370: a2 = 0\n 42372: ecalli 10 // 'return_data_copy'\n 42374: fallthrough\n      : @1504 (gas: 8)\n 42375: a4 = u64 [sp + 0x48]\n 42378: a0 = i32 [sp + 0x120]\n 42382: s1 = u64 [sp + 0x18]\n 42385: a1 = u64 [sp + 0x58]\n 42388: a2 = u64 [sp + 0x40]\n 42391: a3 = u64 [sp + 0x50]\n 42394: a5 = u64 [sp + 0x38]\n 42397: jump @1507 if a0 >=u a5\n      : @1505 (gas: 1)\n 42400: trap\n      : @1506 (gas: 5)\n 42401: a3 = 0\n 42403: a2 = 0\n 42405: a1 = 0\n 42407: a4 = 0x60\n 42410: fallthrough\n      : @1507 (gas: 10)\n 42411: u64 [s1] = a4\n 42413: u64 [s1 + 0x8] = a3\n 42416: u64 [s1 + 0x10] = a2\n 42419: u64 [s1 + 0x18] = a1\n 42422: sp = s0 + 0xfffffffffffffec0\n 42426: ra = u64 [sp + 0x138]\n 42430: s0 = u64 [sp + 0x130]\n 42434: s1 = u64 [sp + 0x128]\n 42438: sp = sp + 0x140\n 42442: ret\n      : @1508 (gas: 14)\n 42444: sp = sp + 0xffffffffffffff40\n 42448: u64 [sp + 0xb8] = ra\n 42452: u64 [sp + 0xb0] = s0\n 42456: u64 [sp + 0xa8] = s1\n 42460: s0 = sp + 0xc0\n 42464: sp = sp & 0xffffffffffffffe0\n 42467: u64 [sp + 0x20] = a0\n 42470: u64 [sp + 120] = 0\n 42473: u64 [sp + 112] = 0\n 42476: u64 [sp + 104] = 0\n 42479: u64 [sp + 96] = 0\n 42482: a0 = sp + 0x40\n 42485: a1 = sp + 0x60\n 42488: ra = 1570, jump @21\n      : @1509 [@dyn 785] (gas: 11)\n 42495: a0 = u64 [sp + 0x48]\n 42498: u64 [sp + 0x38] = a0\n 42501: a0 = u64 [sp + 0x40]\n 42504: u64 [sp + 0x30] = a0\n 42507: a0 = u32 [sp + 0x50]\n 42510: u64 [sp + 0x28] = a0\n 42513: s1 = 0x30220\n 42518: i32 a0 = s1 + 0\n 42520: u64 [sp + 0x18] = a0\n 42523: ecalli 4 // 'caller'\n 42525: fallthrough\n      : @1510 (gas: 22)\n 42526: a0 = u64 [0x30228]\n 42531: a1 = u64 [0x30220]\n 42536: a2 = i32 [0x30230]\n 42541: a0 = reverse a0\n 42543: a3 = a0 >> 0x20\n 42546: a1 = reverse a1\n 42548: a4 = a1 << 0x20\n 42551: a3 = a3 | a4\n 42554: a0 = a0 << 0x20\n 42557: a2 = reverse a2\n 42559: a2 = a2 >> 0x20\n 42562: a0 = a0 | a2\n 42565: a1 = a1 >> 0x20\n 42568: a2 = u64 [sp + 0x28]\n 42571: a1 = a1 ^ a2\n 42574: a2 = u64 [sp + 0x30]\n 42577: a0 = a0 ^ a2\n 42580: a0 = a0 | a1\n 42583: a1 = u64 [sp + 0x38]\n 42586: a1 = a1 ^ a3\n 42589: a0 = a0 | a1\n 42592: jump @1513 if a0 != 0\n      : @1511 (gas: 21)\n 42595: a0 = u32 [0x20208]\n 42600: s1 = a0 + 0xffffffffffffffec\n 42603: a0 = s1 <u a0\n 42606: a2 = a0 + 0xffffffffffffffff\n 42609: a0 = 0 if a2 != 0\n 42611: a3 = a0 <u 0x1\n 42614: a4 = -a3\n 42616: a0 = a0 + 0xffffffffffffffff\n 42619: a3 = a3 << 0x20\n 42622: a5 = a0 >> 0x20\n 42625: a5 = a5 - a3\n 42628: a3 = a2 << 0x20\n 42631: a1 = s1 >> 0x20\n 42634: a1 = a1 | a3\n 42637: a1 = a1 | a5\n 42640: a0 = a0 << 0x20\n 42643: a2 = a2 | a4\n 42646: a2 = a2 >> 0x20\n 42649: a0 = a0 | a2\n 42652: a0 = a0 | a1\n 42655: jump @1515 if a0 != 0\n      : @1512 (gas: 14)\n 42659: i32 a1 = s1 + 0\n 42661: i32 a0 = sp + 0x80\n 42665: ecalli 2 // 'call_data_load'\n 42667: a2 = u64 [sp + 0x90]\n 42671: a3 = u64 [sp + 0x98]\n 42675: a0 = 0\n 42677: a4 = u32 [sp + 0x8c]\n 42681: a1 = a2 >> 0x20\n 42684: a5 = a3 << 0x20\n 42687: a1 = a1 | a5\n 42690: a2 = a2 << 0x20\n 42693: a2 = a2 | a4\n 42696: a3 = a3 >> 0x20\n 42699: jump @1514\n      : @1513 (gas: 17)\n 42701: a0 = u64 [sp + 0x18]\n 42704: ecalli 4 // 'caller'\n 42706: a1 = u64 [0x30228]\n 42711: a0 = 0\n 42713: a2 = u64 [0x30220]\n 42718: a3 = i32 [0x30230]\n 42723: a4 = reverse a1\n 42725: a1 = a4 >> 0x20\n 42728: a5 = reverse a2\n 42730: a2 = a5 << 0x20\n 42733: a1 = a1 | a2\n 42736: a4 = a4 << 0x20\n 42739: a2 = reverse a3\n 42741: a2 = a2 >> 0x20\n 42744: a2 = a2 | a4\n 42747: a3 = a5 >> 0x20\n 42750: fallthrough\n      : @1514 (gas: 11)\n 42751: a4 = u64 [sp + 0x20]\n 42754: u64 [a4] = a2\n 42756: u64 [a4 + 0x8] = a1\n 42759: u64 [a4 + 0x10] = a3\n 42762: u64 [a4 + 24] = 0\n 42765: sp = s0 + 0xffffffffffffff40\n 42769: ra = u64 [sp + 0xb8]\n 42773: s0 = u64 [sp + 0xb0]\n 42777: s1 = u64 [sp + 0xa8]\n 42781: sp = sp + 0xc0\n 42785: ret\n      : @1515 (gas: 1)\n 42787: trap\n      : @1516 (gas: 23)\n 42788: sp = sp + 0xfffffffffffff9a0\n 42792: a1 = sp + 0x600\n 42796: u64 [a1 + 0x58] = ra\n 42799: u64 [a1 + 0x50] = s0\n 42802: u64 [a1 + 0x48] = s1\n 42805: s0 = sp + 0x660\n 42809: sp = sp & 0xffffffffffffffe0\n 42812: s1 = sp\n 42814: a2 = u64 [a0]\n 42816: a1 = u64 [a0 + 0x8]\n 42819: a3 = u64 [a0 + 0x10]\n 42822: a0 = u64 [a0 + 0x18]\n 42825: u64 [s1 + 0x38] = a0\n 42828: u64 [s1 + 0x558] = a0\n 42832: u64 [s1 + 0x40] = a3\n 42835: u64 [s1 + 0x550] = a3\n 42839: u64 [s1 + 0x48] = a1\n 42842: u64 [s1 + 0x548] = a1\n 42846: a1 = s1 + 0x540\n 42850: u64 [s1 + 0x50] = a2\n 42853: u64 [s1 + 0x540] = a2\n 42857: a0 = 0\n 42859: ra = 1572, jump @19\n      : @1517 [@dyn 786] (gas: 7)\n 42866: u64 [s1 + 1336] = 0\n 42870: u64 [s1 + 1328] = 0\n 42874: u64 [s1 + 1312] = 0x2\n 42879: a0 = 0x20\n 42882: a1 = s1 + 0x520\n 42886: u64 [s1 + 1320] = 0\n 42890: ra = 1574, jump @19\n      : @1518 [@dyn 787] (gas: 3)\n 42897: a2 = 0x2020c\n 42902: a0 = i32 [0x2020c]\n 42907: jump @1520 if a0 >u 63\n      : @1519 (gas: 2)\n 42911: u32 [0x2020c] = 0x40\n 42917: fallthrough\n      : @1520 (gas: 46)\n 42918: u64 [s1 + 0xb0] = a2\n 42922: a0 = sp + 0xffffffffffffffe0\n 42925: a2 = a0 & 0xffffffffffffffe0\n 42928: u64 [s1 + 0x138] = a2\n 42932: sp = a2\n 42934: a0 = 0x20220\n 42939: i32 a0 = a0 + 0\n 42941: i32 a2 = a2 + 0\n 42943: a1 = 0x40\n 42946: u64 [s1 + 0xa8] = a0\n 42950: ecalli 7 // 'hash_keccak_256'\n 42952: a3 = u64 [s1 + 0x138]\n 42956: a0 = u64 [a3]\n 42958: a1 = u64 [a3 + 0x8]\n 42961: a2 = u64 [a3 + 0x10]\n 42964: a3 = u64 [a3 + 0x18]\n 42967: t0 = reverse a0\n 42969: a5 = reverse a1\n 42971: a4 = reverse a2\n 42973: a2 = reverse a3\n 42975: a0 = sp + 0xffffffffffffffe0\n 42978: a1 = a0 & 0xffffffffffffffe0\n 42981: sp = a1\n 42983: a3 = a2 + 0x7\n 42986: u64 [s1 + 0x60] = a2\n 42989: a0 = a3 <u a2\n 42992: a2 = a4 + a0\n 42995: u64 [s1 + 0x68] = a4\n 42998: a4 = a2 <u a4\n 43001: a4 = a0 if a0 == 0\n 43004: a4 = a4 + a5\n 43007: u64 [s1 + 0x70] = a5\n 43010: a0 = a4 <u a5\n 43013: u64 [s1 + 0x78] = t0\n 43016: a0 = a0 + t0\n 43019: u64 [s1 + 0x28] = a2\n 43022: u64 [a1 + 0x8] = a2\n 43025: u64 [s1 + 0x30] = a3\n 43028: u64 [a1] = a3\n 43030: u64 [s1 + 0x20] = a4\n 43033: u64 [a1 + 0x10] = a4\n 43036: u64 [s1 + 0x18] = a0\n 43039: u64 [a1 + 0x18] = a0\n 43042: a0 = s1 + 0x500\n 43046: u64 [s1 + 0xb8] = a1\n 43050: ra = 1576, jump @21\n      : @1521 [@dyn 788] (gas: 15)\n 43057: a0 = u64 [s1 + 0x518]\n 43061: u64 [s1 + 0xf8] = a0\n 43065: a0 = u64 [s1 + 0x510]\n 43069: u64 [s1 + 0xf0] = a0\n 43073: a0 = u64 [s1 + 0x508]\n 43077: u64 [s1 + 0xe8] = a0\n 43081: a0 = u64 [s1 + 0x500]\n 43085: u64 [s1 + 0xe0] = a0\n 43089: u64 [s1 + 1400] = 0\n 43093: u64 [s1 + 1392] = 0\n 43097: u64 [s1 + 1384] = 0\n 43101: u64 [s1 + 1376] = 0x4\n 43106: a0 = s1 + 0x4e0\n 43110: a1 = s1 + 0x560\n 43114: ra = 1578, jump @21\n      : @1522 [@dyn 789] (gas: 15)\n 43121: a0 = u64 [s1 + 0x4f8]\n 43125: a1 = u64 [s1 + 0x4f0]\n 43129: a2 = u64 [s1 + 0x4e8]\n 43133: a3 = u64 [s1 + 0x4e0]\n 43137: u64 [s1 + 0xd8] = a0\n 43141: u64 [s1 + 0x4b8] = a0\n 43145: u64 [s1 + 0xd0] = a1\n 43149: u64 [s1 + 0x4b0] = a1\n 43153: u64 [s1 + 0xc8] = a2\n 43157: u64 [s1 + 0x4a8] = a2\n 43161: a0 = s1 + 0x4c0\n 43165: a1 = s1 + 0x4a0\n 43169: u64 [s1 + 0xc0] = a3\n 43173: u64 [s1 + 0x4a0] = a3\n 43177: ra = 1580, jump @1419\n      : @1523 [@dyn 790] (gas: 16)\n 43183: a0 = u64 [s1 + 0x4c0]\n 43187: a1 = u64 [s1 + 0x4c8]\n 43191: a2 = u64 [s1 + 0x4d0]\n 43195: a3 = u64 [s1 + 0x4d8]\n 43199: u64 [s1 + 1432] = 0\n 43203: u64 [s1 + 1424] = 0\n 43207: u64 [s1 + 1416] = 0\n 43211: a5 = s1 + 0x500\n 43215: u64 [a5 + 128] = 0x4\n 43220: u64 [a5 + 0xb8] = a3\n 43224: u64 [a5 + 0xb0] = a2\n 43228: u64 [a5 + 0xa8] = a1\n 43232: u64 [a5 + 0xa0] = a0\n 43236: a0 = s1 + 0x580\n 43240: a1 = s1 + 0x5a0\n 43244: ra = 1582, jump @23\n      : @1524 [@dyn 791] (gas: 3)\n 43251: a0 = s1 + 0x480\n 43255: a1 = 0x40\n 43258: ra = 1584, jump @17\n      : @1525 [@dyn 792] (gas: 24)\n 43265: a4 = s1 + 0x400\n 43269: a0 = u64 [a4 + 0x80]\n 43273: a2 = u64 [a4 + 0x98]\n 43277: a1 = u64 [a4 + 0x88]\n 43281: a3 = u64 [a4 + 0x90]\n 43285: a4 = a0 + 0x20\n 43288: u64 [s1 + 0x118] = a4\n 43292: u64 [s1 + 0x138] = a0\n 43296: a0 = a4 <u a0\n 43299: a4 = a1 + a0\n 43302: u64 [s1 + 0x110] = a4\n 43306: u64 [s1 + 0x130] = a1\n 43310: a1 = a4 <u a1\n 43313: a1 = a0 if a0 == 0\n 43316: a1 = a1 + a3\n 43319: u64 [s1 + 0x100] = a1\n 43323: u64 [s1 + 0x120] = a3\n 43327: a0 = a1 <u a3\n 43330: u64 [s1 + 0x128] = a2\n 43334: a0 = a0 + a2\n 43337: u64 [s1 + 0x108] = a0\n 43341: i32 a0 = s1 + 0x5c0\n 43345: ecalli 8 // 'now'\n 43347: fallthrough\n      : @1526 (gas: 13)\n 43348: a5 = s1 + 0x100\n 43352: a0 = u64 [a5 + 0x18]\n 43355: a3 = u64 [a5]\n 43357: a2 = a0 | a3\n 43360: a1 = u64 [a5 + 0x10]\n 43363: a4 = u64 [a5 + 0x8]\n 43366: a1 = a1 | a4\n 43369: a2 = a2 | a1\n 43372: a2 = a2 >> 0x20\n 43375: a1 = a1 | a3\n 43378: a1 = a1 << 0x20\n 43381: a1 = a1 | a2\n 43384: jump @1581 if a1 != 0\n      : @1527 (gas: 12)\n 43388: a5 = s1 + 0x500\n 43392: a4 = u64 [a5 + 0xc0]\n 43396: a1 = u64 [a5 + 0xc8]\n 43400: a2 = u64 [a5 + 0xd0]\n 43404: a3 = u64 [a5 + 0xd8]\n 43408: a5 = s1 + 0x400\n 43412: u64 [a5 + 0x78] = a3\n 43415: u64 [a5 + 0x70] = a2\n 43418: u64 [a5 + 0x68] = a1\n 43421: a1 = s1 + 0x460\n 43425: u64 [a5 + 0x60] = a4\n 43428: ra = 1586, jump @19\n      : @1528 [@dyn 793] (gas: 4)\n 43435: a5 = s1 + 0x100\n 43439: a1 = u64 [a5 + 0x38]\n 43442: a0 = a1 + 0x40\n 43445: t0 = 1588, jump @1598\n      : @1529 [@dyn 794] (gas: 1)\n 43451: jump @1581 if a1 != 0\n      : @1530 (gas: 7)\n 43455: u64 [s1 + 1112] = 0\n 43459: u64 [s1 + 1104] = 0\n 43463: a1 = 0x8e1bc9bf04000\n 43473: u64 [s1 + 0x440] = a1\n 43477: a1 = s1 + 0x440\n 43481: u64 [s1 + 1096] = 0\n 43485: ra = 1590, jump @19\n      : @1531 [@dyn 795] (gas: 4)\n 43492: a5 = s1 + 0x100\n 43496: a1 = u64 [a5 + 0x38]\n 43499: a0 = a1 + 0x60\n 43502: t0 = 1592, jump @1598\n      : @1532 [@dyn 796] (gas: 1)\n 43508: jump @1581 if a1 != 0\n      : @1533 (gas: 11)\n 43512: a1 = u64 [s1 + 0xe0]\n 43516: a3 = s1 + 0x400\n 43520: u64 [a3 + 0x20] = a1\n 43523: a1 = u64 [s1 + 0xe8]\n 43527: u64 [a3 + 0x28] = a1\n 43530: a1 = u64 [s1 + 0xf0]\n 43534: u64 [a3 + 0x30] = a1\n 43537: a1 = s1 + 0x420\n 43541: a2 = u64 [s1 + 0xf8]\n 43545: u64 [a3 + 0x38] = a2\n 43548: ra = 1594, jump @19\n      : @1534 [@dyn 797] (gas: 4)\n 43555: a5 = s1 + 0x100\n 43559: a1 = u64 [a5 + 0x38]\n 43562: a0 = a1 + 0x80\n 43566: t0 = 1596, jump @1598\n      : @1535 [@dyn 798] (gas: 1)\n 43572: jump @1581 if a1 != 0\n      : @1536 (gas: 11)\n 43576: a1 = u64 [s1 + 0xc0]\n 43580: a3 = s1 + 0x400\n 43584: u64 [a3] = a1\n 43586: a1 = u64 [s1 + 0xc8]\n 43590: u64 [a3 + 0x8] = a1\n 43593: a1 = u64 [s1 + 0xd0]\n 43597: u64 [a3 + 0x10] = a1\n 43600: a1 = s1 + 0x400\n 43604: a2 = u64 [s1 + 0xd8]\n 43608: u64 [a3 + 0x18] = a2\n 43611: ra = 1598, jump @19\n      : @1537 [@dyn 799] (gas: 13)\n 43618: a4 = s1 + 0x100\n 43622: a0 = u64 [a4 + 0x38]\n 43625: a3 = u64 [a4 + 0x20]\n 43628: a0 = a0 | a3\n 43631: a1 = u64 [a4 + 0x30]\n 43634: a2 = u64 [a4 + 0x28]\n 43637: a1 = a1 | a2\n 43640: a0 = a0 | a1\n 43643: a0 = a0 >> 0x20\n 43646: a1 = a1 | a3\n 43649: a1 = a1 << 0x20\n 43652: a0 = a0 | a1\n 43655: jump @1581 if a0 != 0\n      : @1538 (gas: 7)\n 43659: u64 [s1 + 1016] = 0\n 43663: u64 [s1 + 1008] = 0\n 43667: u64 [s1 + 1000] = 0\n 43671: a1 = s1 + 0x3e0\n 43675: u64 [s1 + 992] = 0x80\n 43681: a0 = u64 [s1 + 0x138]\n 43685: ra = 1600, jump @19\n      : @1539 [@dyn 800] (gas: 15)\n 43692: u64 [s1 + 952] = 0\n 43696: u64 [s1 + 944] = 0\n 43700: u64 [s1 + 936] = 0\n 43704: u64 [s1 + 928] = 0xa0\n 43710: a0 = u64 [s1 + 0x128]\n 43714: u64 [s1 + 0x3d8] = a0\n 43718: a0 = u64 [s1 + 0x120]\n 43722: u64 [s1 + 0x3d0] = a0\n 43726: a0 = u64 [s1 + 0x130]\n 43730: u64 [s1 + 0x3c8] = a0\n 43734: a0 = s1 + 0x3c0\n 43738: a1 = s1 + 0x3a0\n 43742: a2 = u64 [s1 + 0x138]\n 43746: u64 [s1 + 0x3c0] = a2\n 43750: ra = 1602, jump @1362\n      : @1540 [@dyn 801] (gas: 3)\n 43756: a0 = s1 + 0x380\n 43760: a1 = u64 [s1 + 0x138]\n 43764: ra = 1604, jump @17\n      : @1541 [@dyn 802] (gas: 13)\n 43771: a4 = s1 + 0x300\n 43775: a0 = u64 [a4 + 0x98]\n 43779: a3 = u64 [a4 + 0x90]\n 43783: a2 = u64 [a4 + 0x88]\n 43787: a1 = u64 [a4 + 0x80]\n 43791: a0 = a0 | a2\n 43794: a2 = a1 | a3\n 43797: a2 = a2 | a0\n 43800: a2 = a2 >> 0x20\n 43803: a0 = a0 | a3\n 43806: a0 = a0 << 0x20\n 43809: a0 = a0 | a2\n 43812: jump @1581 if a0 != 0\n      : @1542 (gas: 3)\n 43816: a0 = u64 [s1 + 0x118]\n 43820: u64 [s1 + 0x138] = a1\n 43824: ra = 1606, jump @29\n      : @1543 [@dyn 803] (gas: 21)\n 43831: a1 = sp + 0xffffffffffffffe0\n 43834: a2 = a1 & 0xffffffffffffffe0\n 43837: u64 [s1 + 0x128] = a2\n 43841: sp = a2\n 43843: i32 a0 = a0 + 0\n 43845: a1 = i32 [s1 + 0x138]\n 43849: i32 a2 = a2 + 0\n 43851: ecalli 7 // 'hash_keccak_256'\n 43853: a2 = s1 + 0x100\n 43857: a1 = u64 [a2 + 0x28]\n 43860: a0 = u64 [a1 + 0x18]\n 43863: u64 [a2 + 0x30] = a0\n 43866: a0 = u64 [a1 + 0x10]\n 43869: u64 [a2 + 0x38] = a0\n 43872: a0 = u64 [a1 + 0x8]\n 43875: u64 [a2 + 0x20] = a0\n 43878: a0 = u64 [a1]\n 43880: u64 [a2 + 0x28] = a0\n 43883: a0 = s1 + 0x360\n 43887: a1 = u64 [s1 + 0xb8]\n 43891: ra = 1608, jump @21\n      : @1544 [@dyn 804] (gas: 9)\n 43898: a1 = s1 + 0x300\n 43902: a0 = u64 [a1 + 0x78]\n 43905: a5 = u64 [a1 + 0x70]\n 43908: a4 = u64 [a1 + 0x68]\n 43911: a3 = u64 [a1 + 0x60]\n 43914: a2 = a4 | a0\n 43917: a1 = a3 | a5\n 43920: ra = a1 | a2\n 43923: jump @1582 if ra == 0\n      : @1545 (gas: 84)\n 43927: a1 = u64 [s1 + 0x120]\n 43931: t0 = reverse a1\n 43933: a1 = u64 [s1 + 0x130]\n 43937: t2 = reverse a1\n 43939: a1 = u64 [s1 + 0x128]\n 43943: t1 = reverse a1\n 43945: a1 = u64 [s1 + 0x138]\n 43949: a2 = reverse a1\n 43951: u64 [s1 + 0x88] = a2\n 43955: a1 = sp + 0xffffffffffffffe0\n 43958: a1 = a1 & 0xffffffffffffffe0\n 43961: u64 [s1 + 0x10] = a1\n 43964: sp = a1\n 43966: ra = ra <u 0x1\n 43969: a1 = a2 | t1\n 43972: a2 = t2 | t0\n 43975: u64 [s1 + 0x90] = t2\n 43979: a1 = a1 | a2\n 43982: a1 = a1 <u 0x1\n 43985: a1 = ra | a1\n 43988: u64 [s1 + 0x130] = a1\n 43992: u64 [s1 + 0xd8] = a3\n 43996: a1 = clz a3\n 43998: a1 = a1 + 0x40\n 44001: a2 = clz a4\n 44003: u64 [s1 + 0xc0] = a4\n 44007: a2 = a1 if a4 == 0\n 44010: a4 = a2 + 0x80\n 44014: a1 = a4 <u a2\n 44017: a2 = a5 | a0\n 44020: a1 = 0 if a2 != 0\n 44022: u64 [s1 + 0xd0] = a5\n 44026: a3 = clz a5\n 44028: a5 = a3 + 0x40\n 44031: a3 = clz a0\n 44033: u64 [s1 + 0xc8] = a0\n 44037: a3 = a5 if a0 == 0\n 44040: a3 = a4 if a2 == 0\n 44043: ra = u64 [s1 + 0x88]\n 44047: a2 = clz ra\n 44049: a4 = clz t2\n 44051: a4 = a4 + 0x40\n 44054: a4 = a2 if ra != 0\n 44057: t2 = a4 + 0x80\n 44061: a0 = t2 <u a4\n 44064: a2 = t0\n 44066: u64 [s1 + 0x80] = t0\n 44070: a4 = t0 | t1\n 44073: a0 = 0 if a4 != 0\n 44075: t0 = clz t1\n 44077: a5 = clz a2\n 44079: a5 = a5 + 0x40\n 44082: a5 = t0 if t1 != 0\n 44085: a5 = t2 if a4 == 0\n 44088: a2 = a3 <u a5\n 44091: t0 = a1 ^ a0\n 44094: a4 = a1 <u a0\n 44097: a4 = a2 if t0 == 0\n 44100: t2 = a4 <u 0x1\n 44103: t0 = t2 + 0xffffffffffffffff\n 44106: t2 = -a4\n 44108: a1 = a1 - a0\n 44111: a2 = a1 - a2\n 44114: a5 = a3 - a5\n 44117: u64 [s1 + 0x138] = t2\n 44121: a0 = t2 >u 0\n 44123: a1 = t0 >u 0\n 44125: a1 = a0 if t0 == 0\n 44128: a0 = a2 >u 0\n 44130: a3 = a5 <u 0x100\n 44134: a3 = a3 ^ 0x1\n 44137: a3 = a0 if a2 != 0\n 44140: a3 = a1 if a4 != 0\n 44143: a4 = u64 [s1 + 0x130]\n 44147: a4 = a4 | a3\n 44150: u64 [s1 + 0x58] = t1\n 44153: t1 = 0 if a4 != 0\n 44155: t2 = u64 [s1 + 0x80]\n 44159: t2 = 0 if a4 != 0\n 44161: a3 = ra\n 44163: a3 = 0 if a4 != 0\n 44165: ra = u64 [s1 + 0x90]\n 44169: ra = 0 if a4 != 0\n 44171: jump @1561 if a4 != 0\n      : @1546 (gas: 7)\n 44175: a0 = a5\n 44177: a4 = a5 ^ 0xff\n 44181: a1 = u64 [s1 + 0x138]\n 44185: a4 = a4 | a1\n 44188: a5 = a2 | t0\n 44191: a4 = a4 | a5\n 44194: jump @1561 if a4 == 0\n      : @1547 (gas: 21)\n 44198: a3 = a0\n 44200: u64 [s1 + 0x120] = a0\n 44204: a1 = a0 + 0x1\n 44207: u64 [s1 + 0x130] = a1\n 44211: a0 = a1 <u 0x1\n 44214: a0 = a0 + a2\n 44217: u64 [s1 + 0x110] = a0\n 44221: a0 = a0 | a1\n 44224: a0 = a0 <u 0x1\n 44227: a1 = u64 [s1 + 0x138]\n 44231: a0 = a0 + a1\n 44234: u64 [s1 + 0x100] = a0\n 44238: a0 = a0 <u a1\n 44241: a0 = a0 + t0\n 44244: u64 [s1 + 0x108] = a0\n 44248: a1 = 0xff - a3\n 44252: u64 [s1 + 0x138] = a1\n 44256: a2 = 0x80 - a1\n 44260: a0 = u64 [s1 + 0x90]\n 44264: a1 = u64 [s1 + 0x88]\n 44268: ra = 1610, jump @1662\n      : @1548 [@dyn 805] (gas: 6)\n 44274: u64 [s1 + 0x128] = a0\n 44278: u64 [s1 + 0x118] = a1\n 44282: a0 = u64 [s1 + 0x80]\n 44286: a1 = u64 [s1 + 0x58]\n 44289: a2 = u64 [s1 + 0x138]\n 44293: ra = 1612, jump @1667\n      : @1549 [@dyn 806] (gas: 9)\n 44299: u64 [s1 + 0xf8] = a0\n 44303: a0 = u64 [s1 + 0x118]\n 44307: a0 = a0 | a1\n 44310: u64 [s1 + 0x118] = a0\n 44314: a1 = u64 [s1 + 0x120]\n 44318: a2 = 0x7f - a1\n 44321: a0 = u64 [s1 + 0x90]\n 44325: a1 = u64 [s1 + 0x88]\n 44329: ra = 1614, jump @1667\n      : @1550 [@dyn 807] (gas: 18)\n 44335: a2 = u64 [s1 + 0x138]\n 44339: a3 = a2 <u 0x80\n 44343: u64 [s1 + 0xf0] = a3\n 44347: a4 = u64 [s1 + 0x118]\n 44351: a1 = a4 if a3 != 0\n 44354: a4 = u64 [s1 + 0x58]\n 44357: a1 = a4 if a2 == 0\n 44360: u64 [s1 + 0x118] = a1\n 44364: a1 = u64 [s1 + 0x128]\n 44368: a4 = u64 [s1 + 0xf8]\n 44372: a1 = a1 | a4\n 44375: a1 = a0 if a3 == 0\n 44378: a0 = u64 [s1 + 0x80]\n 44382: a1 = a0 if a2 == 0\n 44385: u64 [s1 + 0x120] = a1\n 44389: a0 = u64 [s1 + 0x90]\n 44393: a1 = u64 [s1 + 0x88]\n 44397: ra = 1616, jump @1667\n      : @1551 [@dyn 808] (gas: 14)\n 44403: a4 = s1 + 0x100\n 44407: a2 = u64 [a4]\n 44409: a3 = u64 [a4 + 0x8]\n 44412: a5 = u64 [a4 + 0x10]\n 44415: ra = a1\n 44417: a5 = a5 | a3\n 44420: a1 = u64 [a4 + 0x30]\n 44423: a1 = a1 | a2\n 44426: a1 = a1 | a5\n 44429: a2 = u64 [s1 + 0xf0]\n 44433: ra = 0 if a2 == 0\n 44435: a0 = 0 if a2 == 0\n 44437: u64 [a4 + 0x28] = a0\n 44440: jump @1559 if a1 == 0\n      : @1552 (gas: 6)\n 44444: a0 = u64 [s1 + 0x130]\n 44448: a2 = a0 + 0xffffffffffffff80\n 44451: a0 = u64 [s1 + 0x80]\n 44455: a1 = u64 [s1 + 0x58]\n 44458: u64 [s1 + 0xf8] = ra\n 44462: ra = 1618, jump @1662\n      : @1553 [@dyn 809] (gas: 6)\n 44468: u64 [s1 + 0x138] = a0\n 44472: u64 [s1 + 0xe8] = a1\n 44476: a0 = u64 [s1 + 0x90]\n 44480: a1 = u64 [s1 + 0x88]\n 44484: a2 = u64 [s1 + 0x130]\n 44488: ra = 1620, jump @1662\n      : @1554 [@dyn 810] (gas: 7)\n 44494: u64 [s1 + 0xe0] = a0\n 44498: u64 [s1 + 0xf0] = a1\n 44502: a1 = u64 [s1 + 0x130]\n 44506: a2 = 0x80 - a1\n 44510: a0 = u64 [s1 + 0x80]\n 44514: a1 = u64 [s1 + 0x58]\n 44517: ra = 1622, jump @1667\n      : @1555 [@dyn 811] (gas: 21)\n 44523: a4 = u64 [s1 + 0xf0]\n 44527: a4 = a4 | a1\n 44530: a5 = s1 + 0x100\n 44534: a2 = u64 [a5 + 0x30]\n 44537: a1 = a2 <u 0x80\n 44541: u64 [s1 + 0xf0] = a1\n 44545: a3 = u64 [s1 + 0xe8]\n 44549: a4 = a3 if a1 == 0\n 44552: a3 = u64 [s1 + 0x88]\n 44556: a4 = a3 if a2 == 0\n 44559: u64 [s1 + 0xe8] = a4\n 44563: a3 = u64 [s1 + 0xe0]\n 44567: a0 = a0 | a3\n 44570: a3 = u64 [a5 + 0x38]\n 44573: a0 = a3 if a1 == 0\n 44576: a1 = u64 [s1 + 0x90]\n 44580: a0 = a1 if a2 == 0\n 44583: u64 [a5 + 0x38] = a0\n 44586: a0 = u64 [s1 + 0x80]\n 44590: a1 = u64 [s1 + 0x58]\n 44593: ra = 1624, jump @1662\n      : @1556 [@dyn 812] (gas: 24)\n 44599: t1 = u64 [s1 + 0xe8]\n 44603: ra = u64 [s1 + 0xf8]\n 44607: t2 = 0\n 44609: a2 = u64 [s1 + 0xf0]\n 44613: a1 = 0 if a2 == 0\n 44615: a0 = 0 if a2 == 0\n 44617: u64 [s1 + 0xf0] = a0\n 44621: a2 = u64 [s1 + 0xd8]\n 44625: a0 = a2 <u 0x1\n 44628: a3 = u64 [s1 + 0xc0]\n 44632: a0 = a3 - a0\n 44635: u64 [s1 + 0xb0] = a0\n 44639: a0 = a2 | a3\n 44642: a0 = a0 <u 0x1\n 44645: a3 = u64 [s1 + 0xd0]\n 44649: a4 = a3 - a0\n 44652: u64 [s1 + 0xa8] = a4\n 44656: a0 = a3 <u a0\n 44659: a3 = u64 [s1 + 0xc8]\n 44663: a3 = a3 - a0\n 44666: u64 [s1 + 0xa0] = a3\n 44670: a2 = a2 + 0xffffffffffffffff\n 44673: u64 [s1 + 0x98] = a2\n 44677: fallthrough\n      : @1557 (gas: 108)\n 44678: u64 [s1 + 0xf8] = t2\n 44682: u64 [s1 + 224] = 0\n 44686: u64 [s1 + 184] = 0\n 44690: a0 = u64 [s1 + 0x138]\n 44694: a4 = a0 >> 0x3f\n 44697: a3 = t1 << 0x1\n 44700: t0 = a3 | a4\n 44703: a4 = a0 << 0x1\n 44706: a3 = u64 [s1 + 0x118]\n 44710: a2 = a3 >> 0x3f\n 44713: a5 = a4 | a2\n 44716: u64 [s1 + 0xe8] = a5\n 44720: a0 = u64 [s1 + 0xb0]\n 44724: a2 = a0 ^ t0\n 44727: a4 = a0 <u t0\n 44730: a0 = u64 [s1 + 0x98]\n 44734: t2 = a0 <u a5\n 44737: t2 = a4 if a2 != 0\n 44740: a1 = a1 << 0x1\n 44743: a0 = u64 [s1 + 0xf0]\n 44747: a2 = a0 >> 0x3f\n 44750: a1 = a1 | a2\n 44753: u64 [s1 + 0x138] = a1\n 44757: a2 = t1 >> 0x3f\n 44760: a0 = a0 << 0x1\n 44763: t1 = a0 | a2\n 44766: a0 = a3 << 0x1\n 44769: a1 = u64 [s1 + 0x120]\n 44773: a2 = a1 >> 0x3f\n 44776: a0 = a0 | a2\n 44779: a2 = a1 << 0x1\n 44782: a4 = ra >> 0x3f\n 44785: a2 = a2 | a4\n 44788: a4 = ra << 0x1\n 44791: a5 = u64 [s1 + 0x128]\n 44795: ra = a5 >> 0x3f\n 44798: a4 = a4 | ra\n 44801: a5 = a5 << 0x1\n 44804: a1 = u64 [s1 + 0xf8]\n 44808: a1 = a1 | a5\n 44811: u64 [s1 + 0x128] = a1\n 44815: a3 = u64 [s1 + 0xe0]\n 44819: a4 = a4 | a3\n 44822: u64 [s1 + 0xf8] = a4\n 44826: a1 = a3 | a2\n 44829: u64 [s1 + 0x120] = a1\n 44833: a0 = a0 | a3\n 44836: u64 [s1 + 0x118] = a0\n 44840: a1 = u64 [s1 + 0xa8]\n 44844: a0 = a1 - t1\n 44847: a0 = a0 <u t2\n 44850: a2 = a1 <u t1\n 44853: a1 = u64 [s1 + 0xa0]\n 44857: a3 = u64 [s1 + 0x138]\n 44861: a4 = a1 - a3\n 44864: a4 = a4 - a2\n 44867: a4 = a4 - a0\n 44870: a4 = a4 >>a 0x3f\n 44873: a0 = u64 [s1 + 0xd8]\n 44877: a1 = a4 & a0\n 44880: u64 [s1 + 0xe0] = a1\n 44884: a5 = u64 [s1 + 0xc0]\n 44888: a5 = a5 & a4\n 44891: a0 = t0 ^ a5\n 44894: a2 = t0 <u a5\n 44897: t2 = u64 [s1 + 0xe8]\n 44901: ra = t2 <u a1\n 44904: a2 = ra if a0 == 0\n 44907: a1 = u64 [s1 + 0xd0]\n 44911: a3 = a4 & a1\n 44914: a1 = t1 - a3\n 44917: a0 = a1 - a2\n 44920: u64 [s1 + 0xf0] = a0\n 44924: a0 = a1 <u a2\n 44927: a1 = t1 <u a3\n 44930: a2 = u64 [s1 + 0xc8]\n 44934: a2 = a2 & a4\n 44937: a3 = u64 [s1 + 0x138]\n 44941: a2 = a3 - a2\n 44944: a1 = a2 - a1\n 44947: a1 = a1 - a0\n 44950: a3 = t0 - a5\n 44953: t1 = a3 - ra\n 44956: ra = u64 [s1 + 0xf8]\n 44960: a0 = u64 [s1 + 0xe0]\n 44964: a0 = t2 - a0\n 44967: u64 [s1 + 0x138] = a0\n 44971: a5 = u64 [s1 + 0x130]\n 44975: a2 = u64 [s1 + 0x110]\n 44979: a0 = a5 | a2\n 44982: a0 = a0 <u 0x1\n 44985: a3 = u64 [s1 + 0x100]\n 44989: t0 = a3 <u a0\n 44992: a0 = a3 - a0\n 44995: a3 = a5 <u 0x1\n 44998: a2 = a2 - a3\n 45001: a3 = u64 [s1 + 0x108]\n 45005: a3 = a3 - t0\n 45008: a5 = a5 + 0xffffffffffffffff\n 45011: u64 [s1 + 0x110] = a2\n 45015: u64 [s1 + 0x108] = a3\n 45019: a2 = a2 | a3\n 45022: u64 [s1 + 0x130] = a5\n 45026: a3 = a5 | a0\n 45029: a3 = a3 | a2\n 45032: t2 = a4 & 0x1\n 45035: u64 [s1 + 0x100] = a0\n 45039: jump @1557 if a3 != 0\n      : @1558 (gas: 1)\n 45043: jump @1560\n      : @1559 (gas: 3)\n 45045: t2 = 0\n 45047: u64 [s1 + 184] = 0\n 45051: fallthrough\n      : @1560 (gas: 20)\n 45052: a3 = s1 + 0x100\n 45056: a2 = u64 [a3 + 0x20]\n 45059: a0 = a2 >> 0x3f\n 45062: a1 = u64 [a3 + 0x18]\n 45065: a1 = a1 << 0x1\n 45068: t0 = a1 | a0\n 45071: a0 = ra >> 0x3f\n 45074: a1 = a2 << 0x1\n 45077: a1 = a1 | a0\n 45080: a0 = u64 [a3 + 0x28]\n 45083: a3 = a0 >> 0x3f\n 45086: a5 = ra << 0x1\n 45089: a0 = a0 << 0x1\n 45092: ra = t2 | a0\n 45095: a0 = u64 [s1 + 0xb8]\n 45099: a3 = a3 | a0\n 45102: a3 = a3 | a5\n 45105: t2 = a0 | a1\n 45108: t1 = a0 | t0\n 45111: fallthrough\n      : @1561 (gas: 81)\n 45112: a0 = u64 [s1 + 0xd8]\n 45116: a2 = a0 mulhu ra\n 45119: a1 = u64 [s1 + 0xc0]\n 45123: a4 = a1 * ra\n 45126: a2 = a2 + a4\n 45129: a4 = a2 <u a4\n 45132: a5 = a1 mulhu ra\n 45135: a5 = a5 + a4\n 45138: a4 = a0 * a3\n 45141: t0 = t1\n 45143: t1 = a4 + a2\n 45146: a2 = t1 <u a4\n 45149: a4 = a0 mulhu a3\n 45152: a2 = a2 + a4\n 45155: a2 = a2 + a5\n 45158: a4 = a2 <u a5\n 45161: a5 = a1 mulhu a3\n 45164: a4 = a4 + a5\n 45167: a5 = a1 * a3\n 45170: a2 = a2 + a5\n 45173: a5 = a2 <u a5\n 45176: a4 = a4 + a5\n 45179: u64 [s1 + 0x138] = a4\n 45183: a5 = t2 * a1\n 45186: a4 = t2 mulhu a0\n 45189: a4 = a4 + a5\n 45192: a5 = t0 * a0\n 45195: t0 = a4 + a5\n 45198: a1 = u64 [s1 + 0xc8]\n 45202: a5 = ra * a1\n 45205: a1 = u64 [s1 + 0xd0]\n 45209: a4 = ra mulhu a1\n 45212: a4 = a4 + a5\n 45215: a3 = a3 * a1\n 45218: a3 = a3 + a4\n 45221: a3 = a3 + t0\n 45224: a4 = ra * a1\n 45227: a1 = t2 * a0\n 45230: a4 = a4 + a1\n 45233: a1 = a4 <u a1\n 45236: a1 = a1 + a3\n 45239: a3 = u64 [s1 + 0x138]\n 45243: a1 = a1 + a3\n 45246: a4 = a4 + a2\n 45249: a2 = a4 <u a2\n 45252: t2 = a0 * ra\n 45255: a0 = u64 [s1 + 0x58]\n 45258: a2 = a0 - a2\n 45261: t0 = a2 - a1\n 45264: a0 = u64 [s1 + 0x88]\n 45268: a1 = a0 ^ t1\n 45271: a3 = a0 <u t1\n 45274: ra = u64 [s1 + 0x90]\n 45278: a5 = ra <u t2\n 45281: a3 = a5 if a1 == 0\n 45284: a2 = u64 [s1 + 0x80]\n 45288: a1 = a2 <u a4\n 45291: a4 = a2 - a4\n 45294: a2 = a4 <u a3\n 45297: a1 = a1 + a2\n 45300: t0 = t0 - a1\n 45303: a4 = a4 - a3\n 45306: a1 = a0 - a5\n 45309: a1 = a1 - t1\n 45312: a0 = ra - t2\n 45315: a2 = u64 [s1 + 0x30]\n 45318: u64 [s1 + 0x300] = a2\n 45322: a2 = u64 [s1 + 0x28]\n 45325: u64 [s1 + 0x308] = a2\n 45329: u64 [s1 + 0x2e0] = a0\n 45333: a0 = u64 [s1 + 0x20]\n 45336: u64 [s1 + 0x310] = a0\n 45340: a0 = u64 [s1 + 0x18]\n 45343: u64 [s1 + 0x318] = a0\n 45347: u64 [s1 + 0x2e8] = a1\n 45351: u64 [s1 + 0x2f0] = a4\n 45355: a0 = s1 + 0x320\n 45359: a1 = s1 + 0x300\n 45363: a2 = s1 + 0x2e0\n 45367: u64 [s1 + 0x2f8] = t0\n 45371: ra = 1626, jump @1480\n      : @1562 [@dyn 813] (gas: 20)\n 45377: a1 = s1 + 0x300\n 45381: a0 = u64 [a1 + 0x58]\n 45384: u64 [s1 + 0x118] = a0\n 45388: a0 = u64 [a1 + 0x50]\n 45391: u64 [s1 + 0x108] = a0\n 45395: a0 = u64 [a1 + 0x48]\n 45398: u64 [s1 + 0x100] = a0\n 45402: a0 = u64 [a1 + 0x40]\n 45405: u64 [s1 + 0x110] = a0\n 45409: a0 = u64 [a1 + 0x30]\n 45412: a4 = u64 [a1 + 0x38]\n 45415: a2 = u64 [a1 + 0x20]\n 45418: a3 = u64 [a1 + 0x28]\n 45421: a1 = u64 [s1 + 0x10]\n 45424: u64 [a1 + 0x10] = a0\n 45427: u64 [a1 + 0x18] = a4\n 45430: u64 [a1] = a2\n 45432: u64 [a1 + 0x8] = a3\n 45435: a0 = s1 + 0x2c0\n 45439: ra = 1628, jump @21\n      : @1563 [@dyn 814] (gas: 35)\n 45446: a0 = u64 [s1 + 0x2c0]\n 45450: u64 [s1 + 0x130] = a0\n 45454: a0 = u64 [s1 + 0x2c8]\n 45458: u64 [s1 + 0x138] = a0\n 45462: a0 = u64 [s1 + 0x2d0]\n 45466: u64 [s1 + 0x128] = a0\n 45470: a1 = u64 [s1 + 0x2d8]\n 45474: u64 [s1 + 0x120] = a1\n 45478: t2 = u64 [s1 + 0x110]\n 45482: a2 = t2 >> 0x3d\n 45485: a3 = u64 [s1 + 0x100]\n 45489: a5 = a3 << 0x3\n 45492: t1 = a5 | a2\n 45495: a3 = a3 >> 0x3d\n 45498: a5 = u64 [s1 + 0x108]\n 45502: a2 = a5 << 0x3\n 45505: t0 = a2 | a3\n 45508: a2 = a5 >> 0x3d\n 45511: a3 = u64 [s1 + 0x118]\n 45515: a3 = a3 << 0x3\n 45518: a2 = a2 | a3\n 45521: t2 = t2 << 0x3\n 45524: u64 [s1 + 0x118] = t2\n 45528: a3 = t1 >u 0\n 45530: a4 = t2 <u 0x100\n 45534: a5 = a4 ^ 0x1\n 45537: a5 = a3 if t1 != 0\n 45540: a4 = a2 >u 0\n 45542: a3 = t0 >u 0\n 45544: a3 = a4 if a2 != 0\n 45547: a2 = t0 | a2\n 45550: a5 = a3 if a2 != 0\n 45553: u64 [s1 + 0x108] = a5\n 45557: i32 a2 = t2 + 0xffffffffffffff80\n 45560: ra = 1630, jump @1662\n      : @1564 [@dyn 815] (gas: 8)\n 45566: u64 [s1 + 0x100] = a0\n 45570: u64 [s1 + 0xf8] = a1\n 45574: a0 = u64 [s1 + 0x110]\n 45578: i32 a2 = a0 << 0x3\n 45581: u64 [s1 + 0x110] = a2\n 45585: a0 = u64 [s1 + 0x130]\n 45589: a1 = u64 [s1 + 0x138]\n 45593: ra = 1632, jump @1662\n      : @1565 [@dyn 816] (gas: 7)\n 45599: u64 [s1 + 0xf0] = a0\n 45603: u64 [s1 + 0xe8] = a1\n 45607: a1 = u64 [s1 + 0x118]\n 45611: i32 a2 = 0x80 - a1\n 45615: a0 = u64 [s1 + 0x128]\n 45619: a1 = u64 [s1 + 0x120]\n 45623: ra = 1634, jump @1667\n      : @1566 [@dyn 817] (gas: 21)\n 45629: a2 = u64 [s1 + 0xe8]\n 45633: a2 = a2 | a1\n 45636: a3 = u64 [s1 + 0x118]\n 45640: a4 = a3 <u 0x80\n 45644: u64 [s1 + 0xe8] = a4\n 45648: a1 = u64 [s1 + 0xf8]\n 45652: a2 = a1 if a4 == 0\n 45655: a1 = u64 [s1 + 0x138]\n 45659: a2 = a1 if a3 == 0\n 45662: u64 [s1 + 0x138] = a2\n 45666: a1 = u64 [s1 + 0xf0]\n 45670: a1 = a1 | a0\n 45673: a0 = u64 [s1 + 0x100]\n 45677: a1 = a0 if a4 == 0\n 45680: a0 = u64 [s1 + 0x130]\n 45684: a1 = a0 if a3 == 0\n 45687: u64 [s1 + 0x130] = a1\n 45691: a0 = u64 [s1 + 0x128]\n 45695: a1 = u64 [s1 + 0x120]\n 45699: a2 = u64 [s1 + 0x110]\n 45703: ra = 1636, jump @1662\n      : @1567 [@dyn 818] (gas: 19)\n 45709: a1 = u64 [s1 + 0xe8]\n 45713: a0 = 0 if a1 == 0\n 45715: a0 = a0 << 0x20\n 45718: a2 = a0 >> 0x20\n 45721: a0 = u64 [s1 + 0x108]\n 45725: a1 = u64 [s1 + 0x130]\n 45729: a1 = 0 if a0 != 0\n 45731: u64 [s1 + 0x130] = a1\n 45735: a1 = u64 [s1 + 0x138]\n 45739: a1 = 0 if a0 != 0\n 45741: u64 [s1 + 0x138] = a1\n 45745: a2 = 0 if a0 != 0\n 45747: u64 [s1 + 0x128] = a2\n 45751: a0 = sp + 0xffffffffffffffe0\n 45754: a5 = a0 & 0xffffffffffffffe0\n 45757: sp = a5\n 45759: a1 = u64 [s1 + 0x60]\n 45762: a0 = a1 + 0x8\n 45765: t0 = 1638, jump @1606\n      : @1568 [@dyn 819] (gas: 2)\n 45771: a0 = s1 + 0x2a0\n 45775: ra = 1640, jump @21\n      : @1569 [@dyn 820] (gas: 15)\n 45782: a0 = u32 [s1 + 0x2b4]\n 45786: a0 = a0 << 0x20\n 45789: a1 = u64 [s1 + 0x2b8]\n 45793: a2 = u64 [s1 + 0x128]\n 45797: a0 = a0 | a2\n 45800: a2 = u64 [s1 + 0x138]\n 45804: a3 = s1 + 0x500\n 45808: u64 [a3 + 0xe8] = a2\n 45812: a2 = u64 [s1 + 0x130]\n 45816: u64 [a3 + 0xe0] = a2\n 45820: u64 [a3 + 0xf8] = a1\n 45824: u64 [a3 + 0xf0] = a0\n 45828: a1 = s1 + 0x5e0\n 45832: a0 = u64 [s1 + 0x120]\n 45836: ra = 1642, jump @23\n      : @1570 [@dyn 821] (gas: 6)\n 45843: a0 = sp + 0xffffffffffffffe0\n 45846: a5 = a0 & 0xffffffffffffffe0\n 45849: sp = a5\n 45851: a1 = u64 [s1 + 0x60]\n 45854: a0 = a1 + 0xa\n 45857: t0 = 1644, jump @1606\n      : @1571 [@dyn 822] (gas: 2)\n 45863: a0 = s1 + 0x280\n 45867: ra = 1646, jump @21\n      : @1572 [@dyn 823] (gas: 13)\n 45874: a0 = u64 [s1 + 0x288]\n 45878: a1 = u64 [s1 + 0x280]\n 45882: a2 = u64 [s1 + 0x290]\n 45886: a3 = u64 [s1 + 0x298]\n 45890: a1 = a1 & 0xffffffffffff0000\n 45895: a1 = a1 | 0x100\n 45899: u64 [s1 + 0x618] = a3\n 45903: u64 [s1 + 0x610] = a2\n 45907: u64 [s1 + 0x608] = a0\n 45911: u64 [s1 + 0x600] = a1\n 45915: a1 = s1 + 0x600\n 45919: a0 = u64 [s1 + 0x120]\n 45923: ra = 1648, jump @23\n      : @1573 [@dyn 824] (gas: 20)\n 45930: a1 = u64 [s1 + 0x60]\n 45933: a0 = a1 + 0x9\n 45936: a1 = a0 <u a1\n 45939: a3 = u64 [s1 + 0x68]\n 45942: a2 = a3 + a1\n 45945: a3 = a2 <u a3\n 45948: a3 = a1 if a1 == 0\n 45951: a1 = u64 [s1 + 0x70]\n 45954: a3 = a3 + a1\n 45957: a1 = a3 <u a1\n 45960: a4 = u64 [s1 + 0x78]\n 45963: a1 = a1 + a4\n 45966: a4 = s1 + 0x600\n 45970: u64 [a4 + 0x38] = a1\n 45973: u64 [a4 + 0x30] = a3\n 45976: u64 [a4 + 0x28] = a2\n 45979: u64 [a4 + 0x20] = a0\n 45982: a0 = s1 + 0x260\n 45986: a1 = s1 + 0x620\n 45990: ra = 1650, jump @21\n      : @1574 [@dyn 825] (gas: 12)\n 45997: a0 = u64 [s1 + 0x278]\n 46001: a1 = s1 + 0x100\n 46005: u64 [a1 + 0x20] = a0\n 46008: a0 = u64 [s1 + 0x270]\n 46012: u64 [a1 + 0x18] = a0\n 46015: a0 = u64 [s1 + 0x268]\n 46019: u64 [a1 + 0x10] = a0\n 46022: a0 = u64 [s1 + 0x260]\n 46026: u64 [a1 + 0x8] = a0\n 46029: a0 = s1 + 0x240\n 46033: a1 = 0x40\n 46036: ra = 1652, jump @17\n      : @1575 [@dyn 826] (gas: 1)\n 46043: t0 = 1654, jump @1633\n      : @1576 [@dyn 827] (gas: 1)\n 46049: jump @1581 if a1 != 0\n      : @1577 (gas: 11)\n 46053: a1 = u64 [s1 + 0x108]\n 46057: u64 [s1 + 0x220] = a1\n 46061: a1 = u64 [s1 + 0x110]\n 46065: u64 [s1 + 0x228] = a1\n 46069: a1 = u64 [s1 + 0x118]\n 46073: u64 [s1 + 0x230] = a1\n 46077: a1 = s1 + 0x220\n 46081: a2 = u64 [s1 + 0x120]\n 46085: u64 [s1 + 0x238] = a2\n 46089: u64 [s1 + 0x120] = a0\n 46093: ra = 1656, jump @19\n      : @1578 [@dyn 828] (gas: 30)\n 46100: u64 [s1 + 472] = 0\n 46104: a0 = u64 [s1 + 0x128]\n 46108: u64 [s1 + 0x1d0] = a0\n 46112: a0 = u64 [s1 + 0x138]\n 46116: u64 [s1 + 0x1c8] = a0\n 46120: a0 = u64 [s1 + 0x130]\n 46124: u64 [s1 + 0x1c0] = a0\n 46128: a0 = u64 [s1 + 0x38]\n 46131: u64 [s1 + 0x1f8] = a0\n 46135: a0 = u64 [s1 + 0x40]\n 46138: u64 [s1 + 0x1f0] = a0\n 46142: a0 = u64 [s1 + 0x48]\n 46145: u64 [s1 + 0x1e8] = a0\n 46149: a0 = u64 [0x201c8]\n 46154: a1 = u64 [0x201d0]\n 46159: a2 = u64 [0x201d8]\n 46164: a3 = u64 [s1 + 0x50]\n 46167: u64 [s1 + 0x1e0] = a3\n 46171: a5 = s1 + 0x200\n 46175: u64 [a5 + 0x18] = a0\n 46178: u64 [a5 + 0x10] = a1\n 46181: u64 [a5 + 0x8] = a2\n 46184: a0 = u64 [0x201e0]\n 46189: a1 = 0x20\n 46192: a2 = s1 + 0x200\n 46196: a3 = s1 + 0x1e0\n 46200: a4 = s1 + 0x1c0\n 46204: u64 [a5] = a0\n 46206: a0 = u64 [s1 + 0x120]\n 46210: ra = 1658, jump @26\n      : @1579 [@dyn 829] (gas: 24)\n 46217: a0 = u64 [s1 + 0x38]\n 46220: a4 = s1 + 0x100\n 46224: u64 [a4 + 0x98] = a0\n 46228: a0 = u64 [s1 + 0x40]\n 46231: u64 [a4 + 0x90] = a0\n 46235: a0 = u64 [s1 + 0x48]\n 46238: u64 [a4 + 0x88] = a0\n 46242: a0 = u64 [0x201e8]\n 46247: a1 = u64 [s1 + 0x50]\n 46250: u64 [a4 + 0x80] = a1\n 46254: a1 = u64 [0x201f0]\n 46259: u64 [a4 + 0xb8] = a0\n 46263: a0 = u64 [0x201f8]\n 46268: u64 [a4 + 0xb0] = a1\n 46272: a1 = u64 [0x20200]\n 46277: u64 [a4 + 0xa8] = a0\n 46281: a2 = s1 + 0x1a0\n 46285: a3 = s1 + 0x180\n 46289: u64 [a4 + 0xa0] = a1\n 46293: a0 = 0\n 46295: a1 = 0\n 46297: ra = 0x67c\n 46301: t0 = 0x8\n 46304: jump @1661\n      : @1580 [@dyn 830] (gas: 7)\n 46307: sp = s0 + 0xfffffffffffff9a0\n 46311: a0 = sp + 0x600\n 46315: ra = u64 [a0 + 0x58]\n 46318: s0 = u64 [a0 + 0x50]\n 46321: s1 = u64 [a0 + 0x48]\n 46324: sp = sp + 0x660\n 46328: ret\n      : @1581 (gas: 1)\n 46330: trap\n      : @1582 (gas: 8)\n 46331: u64 [s1 + 368] = 0\n 46335: u64 [s1 + 360] = 0\n 46339: u64 [s1 + 352] = 0\n 46343: a0 = 0x4e487b7100000000\n 46353: a1 = s1 + 0x160\n 46357: u64 [s1 + 0x178] = a0\n 46361: a0 = 0\n 46363: ra = 1662, jump @19\n      : @1583 [@dyn 831] (gas: 7)\n 46370: u64 [s1 + 344] = 0\n 46374: u64 [s1 + 336] = 0\n 46378: u64 [s1 + 320] = 0x12\n 46383: a0 = 0x4\n 46386: a1 = s1 + 0x140\n 46390: u64 [s1 + 328] = 0\n 46394: ra = 1664, jump @19\n      : @1584 [@dyn 832] (gas: 3)\n 46401: a0 = u64 [s1 + 0xb0]\n 46405: a0 = i32 [a0]\n 46407: jump @1586 if a0 >u 63\n      : @1585 (gas: 3)\n 46411: a1 = u64 [s1 + 0xb0]\n 46415: u32 [a1 + 0] = 0x40\n 46418: fallthrough\n      : @1586 (gas: 7)\n 46419: a0 = 0x1\n 46422: a2 = 0x24\n 46425: a1 = u64 [s1 + 0xa8]\n 46429: ecalli 12 // 'seal_return'\n 46431: a0 = 0\n 46433: ra = 0x682\n 46437: jump @35\n      : @1587 [export #0: 'call'] (gas: 2)\n 46441: a0 = 0\n 46443: ra = 1666, jump @35\n      : @1588 [@dyn 833] [export #1: 'deploy'] (gas: 2)\n 46450: a0 = 0x1\n 46453: ra = 1668, jump @35\n      : @1589 [@dyn 834] (gas: 12)\n 46460: a5 = s1 + 0x200\n 46464: a1 = u64 [a5 + 0x18]\n 46467: a0 = u64 [a5 + 0x8]\n 46470: a3 = u64 [a5]\n 46472: a3 = a3 | a0\n 46475: a4 = 0x100000000\n 46485: a0 = 0xfffffffc\n 46495: a0 = a1 <u a0\n 46498: a2 = u64 [a5 + 0x10]\n 46501: a0 = 0 if a2 != 0\n 46503: a0 = 0 if a3 != 0\n 46505: jump [t0]\n      : @1590 (gas: 7)\n 46507: a1 = u64 [s1 + 0x218]\n 46511: a0 = a1 <u a0\n 46514: a1 = u64 [s1 + 0x210]\n 46518: a0 = 0 if a1 != 0\n 46520: a1 = u64 [s1 + 0x1f8]\n 46524: a0 = 0 if a1 != 0\n 46526: jump [t0]\n      : @1591 (gas: 7)\n 46528: a4 = 0x100000000\n 46538: a0 = 0xfffffffc\n 46548: a0 = a1 <u a0\n 46551: a2 = u64 [a5 + 0x10]\n 46554: a0 = 0 if a2 != 0\n 46556: a0 = 0 if a3 != 0\n 46558: jump [t0]\n      : @1592 (gas: 10)\n 46560: a4 = s1 + 0x200\n 46564: a3 = u64 [a4 + 0x8]\n 46567: a2 = u64 [a4 + 0x10]\n 46570: a1 = u64 [a4 + 0x18]\n 46573: a0 = u64 [a4]\n 46575: a0 = a0 + 0xffffffffffffffdc\n 46578: a0 = a1 <u a0\n 46581: a0 = 0 if a2 != 0\n 46583: a0 = 0 if a3 != 0\n 46585: jump [t0]\n      : @1593 (gas: 9)\n 46587: a2 = s1 + 0x200\n 46591: a3 = u64 [a2 + 0x18]\n 46594: a0 = 0xffffffbc\n 46604: a0 = a3 <u a0\n 46607: a1 = u64 [a2 + 0x10]\n 46610: a0 = 0 if a1 != 0\n 46612: a1 = u64 [a2 + 0x8]\n 46615: a0 = 0 if a1 != 0\n 46617: jump [t0]\n      : @1594 (gas: 13)\n 46619: a1 = a0 <u a1\n 46622: a3 = u64 [s1 + 0x210]\n 46626: a2 = a3 + a1\n 46629: a3 = a2 <u a3\n 46632: a3 = a1 if a1 == 0\n 46635: a1 = u64 [s1 + 0x200]\n 46639: a3 = a3 + a1\n 46642: a1 = a3 <u a1\n 46645: a4 = u64 [s1 + 0x218]\n 46649: a1 = a1 + a4\n 46652: a4 = s1 + 0x3998\n 46656: a5 = a4 + 0x700\n 46660: jump [t0]\n      : @1595 (gas: 13)\n 46662: a1 = a0 <u a1\n 46665: a3 = u64 [s1 + 0x210]\n 46669: a2 = a3 + a1\n 46672: a3 = a2 <u a3\n 46675: a3 = a1 if a1 == 0\n 46678: a1 = u64 [s1 + 0x200]\n 46682: a3 = a3 + a1\n 46685: a1 = a3 <u a1\n 46688: a4 = u64 [s1 + 0x218]\n 46692: a1 = a1 + a4\n 46695: a4 = s1 + 0x3998\n 46699: a5 = a4 + 0x200\n 46703: jump [t0]\n      : @1596 (gas: 38)\n 46705: t1 = u64 [s1 + 0x1c8]\n 46709: t1 = t1 + 0x1\n 46712: a0 = t1 <u 0x1\n 46715: t2 = u64 [s1 + 0x1c0]\n 46719: t2 = t2 + a0\n 46722: a0 = t1 | t2\n 46725: a0 = a0 <u 0x1\n 46728: a1 = u64 [s1 + 0x1d0]\n 46732: ra = a1 + a0\n 46735: a1 = ra <u a1\n 46738: a0 = u64 [s1 + 0x1e8]\n 46742: a0 = a0 + a1\n 46745: a1 = u64 [s1 + 0x218]\n 46749: a2 = a1 + 0x20\n 46752: u64 [s1 + 0x1e8] = a2\n 46756: a3 = a2 <u a1\n 46759: a1 = u64 [s1 + 0x1b8]\n 46763: a2 = a1 + a3\n 46766: u64 [s1 + 0x1c8] = a2\n 46770: a4 = a2 <u a1\n 46773: a4 = a3 if a3 == 0\n 46776: a1 = u64 [s1 + 0x210]\n 46780: a3 = a1 + a4\n 46783: a4 = a3 <u a1\n 46786: a1 = u64 [s1 + 0x208]\n 46790: a1 = a1 + a4\n 46793: u64 [s1 + 0x208] = a1\n 46797: a1 = u64 [s1 + 0x1f8]\n 46801: a4 = a1 + 0x20\n 46804: a5 = a4 <u a1\n 46807: a2 = u64 [s1 + 0x1d8]\n 46811: a1 = a2 + a5\n 46814: a2 = a1 <u a2\n 46817: a2 = a5 if a5 == 0\n 46820: a5 = u64 [s1 + 0x1e0]\n 46824: a2 = a2 + a5\n 46827: a5 = a2 <u a5\n 46830: jump [t0]\n      : @1597 (gas: 23)\n 46832: a4 = u64 [s1 + 0x218]\n 46836: a2 = a4 <u 0x80\n 46840: a3 = u64 [s1 + 0x1d0]\n 46844: a1 = a3 if a2 != 0\n 46847: a5 = u64 [s1 + 0x1d8]\n 46851: a3 = u64 [s1 + 0x1e8]\n 46855: a3 = a3 | a5\n 46858: a3 = a0 if a2 == 0\n 46861: a1 = 0xffffffffffffffff if a4 == 0\n 46864: a3 = 0xffffffffffffffff if a4 == 0\n 46867: a4 = u64 [s1 + 0x1e0]\n 46871: a4 = 0 if a2 == 0\n 46873: a5 = 0 if a2 == 0\n 46875: a0 = u64 [s1 + 0x1f8]\n 46879: a0 = a0 & ~a3\n 46882: a2 = u64 [s1 + 0x200]\n 46886: a1 = a2 & ~a1\n 46889: a2 = u64 [s1 + 0x208]\n 46893: a2 = a2 & ~a5\n 46896: a3 = u64 [s1 + 0x210]\n 46900: a3 = a3 & ~a4\n 46903: a4 = s1 + 0x3198\n 46907: jump [t0]\n      : @1598 (gas: 18)\n 46909: a1 = a0 <u a1\n 46912: a3 = u64 [a5 + 0x30]\n 46915: a2 = a3 + a1\n 46918: a3 = a2 <u a3\n 46921: a3 = a1 if a1 == 0\n 46924: a1 = u64 [a5 + 0x20]\n 46927: a3 = a3 + a1\n 46930: a1 = a3 <u a1\n 46933: a4 = u64 [a5 + 0x28]\n 46936: a1 = a1 + a4\n 46939: a4 = a0 | a3\n 46942: a1 = a1 | a2\n 46945: a4 = a4 | a1\n 46948: a4 = a4 >> 0x20\n 46951: a1 = a1 | a3\n 46954: a1 = a1 << 0x20\n 46957: a1 = a1 | a4\n 46960: jump [t0]\n      : @1599 (gas: 23)\n 46962: a0 = u64 [s1 + 0x170]\n 46966: u64 [s1 + 0x1f8] = a4\n 46970: a0 = a4 <u a0\n 46973: a4 = a0 ^ 0x1\n 46976: u64 [s1 + 0x1d8] = a3\n 46980: a4 = 0x1 if a3 != 0\n 46983: u64 [s1 + 0x1e0] = a2\n 46987: a0 = u64 [s1 + 0x200]\n 46991: a0 = a0 | a2\n 46994: a4 = 0x1 if a0 != 0\n 46997: a1 = u64 [s1 + 0x190]\n 47001: a0 = u64 [s1 + 0x218]\n 47005: a1 = a1 + a0\n 47008: a3 = u64 [s1 + 0x188]\n 47012: ra = a5 + a3\n 47015: a2 = u64 [s1 + 0x178]\n 47019: a0 = u64 [s1 + 0x210]\n 47023: a2 = a2 + a0\n 47026: a0 = u64 [s1 + 0x180]\n 47030: a3 = a5\n 47032: a5 = u64 [s1 + 0x208]\n 47036: a0 = a0 + a5\n 47039: jump [t0]\n      : @1600 (gas: 7)\n 47041: a1 = u64 [s1 + 0x188]\n 47045: a0 = a1 <u a0\n 47048: a1 = u64 [s1 + 0x190]\n 47052: a0 = 0 if a1 != 0\n 47054: a1 = u64 [s1 + 0xc0]\n 47058: a0 = 0 if a1 != 0\n 47060: jump [t0]\n      : @1601 (gas: 9)\n 47062: a3 = s1 + 0x200\n 47066: a2 = u64 [a3 + 0x18]\n 47069: a0 = 0xffffffbc\n 47079: a0 = a2 <u a0\n 47082: a1 = u64 [a3 + 0x10]\n 47085: a0 = 0 if a1 != 0\n 47087: a1 = u64 [a3 + 0x8]\n 47090: a0 = 0 if a1 != 0\n 47092: jump [t0]\n      : @1602 (gas: 21)\n 47094: a3 = u64 [s1 + 0x1f0]\n 47098: a0 = u64 [a3 + 0x18]\n 47101: a1 = u64 [a3 + 0x10]\n 47104: a2 = u64 [a3 + 0x8]\n 47107: a3 = u64 [a3]\n 47109: a0 = reverse a0\n 47111: u64 [s1 + 0x1e8] = a0\n 47115: a0 = reverse a1\n 47117: u64 [s1 + 0x1e0] = a0\n 47121: a0 = reverse a2\n 47123: u64 [s1 + 0x1d8] = a0\n 47127: a0 = reverse a3\n 47129: u64 [s1 + 0x1d0] = a0\n 47133: a0 = sp + 0xffffffffffffffe0\n 47136: a0 = a0 & 0xffffffffffffffe0\n 47139: u64 [s1 + 0x1f0] = a0\n 47143: sp = a0\n 47145: a0 = u64 [s1 + 0x208]\n 47149: a0 = a0 << 0x20\n 47152: a0 = a0 >> 0x20\n 47155: jump [t0]\n      : @1603 (gas: 11)\n 47157: a0 = a2 <u a0\n 47160: a3 = u64 [s1 + 0x210]\n 47164: a1 = a3 + a0\n 47167: a3 = a1 <u a3\n 47170: a3 = a0 if a0 == 0\n 47173: a0 = u64 [s1 + 0x200]\n 47177: a3 = a3 + a0\n 47180: a0 = a3 <u a0\n 47183: a4 = u64 [s1 + 0x218]\n 47187: a0 = a0 + a4\n 47190: jump [t0]\n      : @1604 (gas: 13)\n 47192: sp = sp + 0xffffffffffffffb0\n 47195: u64 [sp + 0x48] = ra\n 47198: u64 [sp + 0x40] = s0\n 47201: s0 = sp + 0x50\n 47204: sp = sp & 0xfffffffffffffff0\n 47207: u64 [sp + 48] = 0\n 47210: u64 [sp + 40] = 0\n 47213: u64 [sp + 32] = 0\n 47216: a0 = 0x4e487b7100000000\n 47226: a1 = sp + 0x20\n 47229: u64 [sp + 0x38] = a0\n 47232: a0 = 0\n 47234: jump [t0]\n      : @1605 (gas: 19)\n 47236: a3 = u64 [s1 + 0x218]\n 47240: a0 = u64 [a3 + 0x18]\n 47243: a1 = u64 [a3 + 0x10]\n 47246: a2 = u64 [a3 + 0x8]\n 47249: a3 = u64 [a3]\n 47251: a5 = reverse a0\n 47253: u64 [s1 + 0x208] = a5\n 47257: a4 = reverse a1\n 47259: u64 [s1 + 0x210] = a4\n 47263: a2 = reverse a2\n 47265: u64 [s1 + 0x200] = a2\n 47269: a0 = reverse a3\n 47271: u64 [s1 + 0x218] = a0\n 47275: a1 = u64 [s1 + 0x1f8]\n 47279: u64 [a1 + 0x18] = a0\n 47282: u64 [a1 + 0x10] = a2\n 47285: u64 [a1 + 0x8] = a4\n 47288: u64 [a1] = a5\n 47290: jump [t0]\n      : @1606 (gas: 17)\n 47292: a1 = a0 <u a1\n 47295: a3 = u64 [s1 + 0x68]\n 47298: a2 = a3 + a1\n 47301: a3 = a2 <u a3\n 47304: a3 = a1 if a1 == 0\n 47307: a1 = u64 [s1 + 0x70]\n 47310: a3 = a3 + a1\n 47313: a1 = a3 <u a1\n 47316: a4 = u64 [s1 + 0x78]\n 47319: a4 = a4 + a1\n 47322: a1 = a5\n 47324: u64 [s1 + 0x120] = a5\n 47328: u64 [a5 + 0x18] = a4\n 47331: u64 [a5 + 0x10] = a3\n 47334: u64 [a5 + 0x8] = a2\n 47337: u64 [a5] = a0\n 47339: jump [t0]\n      : @1607 (gas: 14)\n 47341: a3 = u64 [s1 + 0x218]\n 47345: a0 = u64 [a3]\n 47347: a1 = u64 [a3 + 0x8]\n 47350: a2 = u64 [a3 + 0x10]\n 47353: a3 = u64 [a3 + 0x18]\n 47356: a0 = reverse a0\n 47358: u64 [s1 + 0x218] = a0\n 47362: a0 = reverse a1\n 47364: u64 [s1 + 0x210] = a0\n 47368: a0 = reverse a2\n 47370: u64 [s1 + 0x208] = a0\n 47374: a0 = reverse a3\n 47376: u64 [s1 + 0x200] = a0\n 47380: jump [t0]\n      : @1608 (gas: 14)\n 47382: u64 [s1 + 512] = 0\n 47386: a3 = u64 [s1 + 0x1e8]\n 47390: a0 = u64 [a3 + 0x18]\n 47393: a1 = u64 [a3 + 0x10]\n 47396: a2 = u64 [a3 + 0x8]\n 47399: a3 = u64 [a3]\n 47401: t1 = reverse a0\n 47403: t2 = reverse a1\n 47405: ra = reverse a2\n 47407: a2 = 0\n 47409: a4 = u64 [s1 + 0x1f8]\n 47413: a0 = reverse a3\n 47415: a3 = 0\n 47417: jump [t0]\n      : @1609 (gas: 13)\n 47419: a4 = s1 + 0x200\n 47423: a0 = u64 [a4 + 0x8]\n 47426: a1 = u64 [a4]\n 47428: a2 = a1 | a0\n 47431: a3 = 0x100000000\n 47441: a0 = 0xffffffe0\n 47451: a1 = u64 [a4 + 0x18]\n 47454: a0 = a1 <u a0\n 47457: a1 = u64 [a4 + 0x10]\n 47460: a0 = 0 if a1 != 0\n 47462: u64 [s1 + 0x1f8] = a2\n 47466: a0 = 0 if a2 != 0\n 47468: jump [t0]\n      : @1610 (gas: 9)\n 47470: a0 = u64 [a3]\n 47472: a1 = u64 [a3 + 0x8]\n 47475: a2 = u64 [a3 + 0x10]\n 47478: a3 = u64 [a3 + 0x18]\n 47481: a0 = reverse a0\n 47483: a1 = reverse a1\n 47485: a2 = reverse a2\n 47487: a3 = reverse a3\n 47489: jump [t0]\n      : @1611 (gas: 15)\n 47491: a3 = u64 [s1 + 0x218]\n 47495: a0 = u64 [a3 + 0x18]\n 47498: a1 = u64 [a3 + 0x10]\n 47501: a2 = u64 [a3 + 0x8]\n 47504: a3 = u64 [a3]\n 47506: a0 = reverse a0\n 47508: a4 = reverse a1\n 47510: a2 = reverse a2\n 47512: a3 = reverse a3\n 47514: a1 = u64 [s1 + 0x1f0]\n 47518: u64 [a1 + 0x18] = a3\n 47521: u64 [a1 + 0x10] = a2\n 47524: u64 [a1 + 0x8] = a4\n 47527: u64 [a1] = a0\n 47529: jump [t0]\n      : @1612 (gas: 13)\n 47531: a3 = u64 [s1 + 0x1e8]\n 47535: a0 = u64 [a3 + 0x18]\n 47538: a1 = u64 [a3 + 0x10]\n 47541: a2 = u64 [a3 + 0x8]\n 47544: a3 = u64 [a3]\n 47546: a0 = reverse a0\n 47548: u64 [s1 + 0x1e0] = a0\n 47552: a0 = reverse a1\n 47554: u64 [s1 + 0x1d8] = a0\n 47558: a0 = reverse a2\n 47560: u64 [s1 + 0x1d0] = a0\n 47564: a0 = reverse a3\n 47566: jump [t0]\n      : @1613 (gas: 12)\n 47568: a1 = a0 <u a1\n 47571: a3 = u64 [a5 + 0x8]\n 47574: a2 = a3 + a1\n 47577: a3 = a2 <u a3\n 47580: a3 = a1 if a1 == 0\n 47583: a1 = u64 [a5 + 0x10]\n 47586: a3 = a3 + a1\n 47589: a1 = a3 <u a1\n 47592: a4 = u64 [a5 + 0x18]\n 47595: a1 = a1 + a4\n 47598: a4 = s1 + 0x3998\n 47602: jump [t0]\n      : @1614 (gas: 15)\n 47604: a0 = u64 [a3 + 0x18]\n 47607: a1 = u64 [a3 + 0x10]\n 47610: a2 = u64 [a3 + 0x8]\n 47613: a3 = u64 [a3]\n 47615: a0 = reverse a0\n 47617: a4 = reverse a1\n 47619: a2 = reverse a2\n 47621: a3 = reverse a3\n 47623: a1 = u64 [s1 + 0x1e8]\n 47627: u64 [a1 + 0x18] = a3\n 47630: u64 [a1 + 0x10] = a2\n 47633: u64 [a1 + 0x8] = a4\n 47636: u64 [a1] = a0\n 47638: a0 = 0x2000\n 47642: jump [t0]\n      : @1615 (gas: 5)\n 47644: a0 = sp + 0xffffffffffffffe0\n 47647: a2 = a0 & 0xffffffffffffffe0\n 47650: u64 [s1 + 0x218] = a2\n 47654: sp = a2\n 47656: jump [t0]\n      : @1616 (gas: 5)\n 47658: sp = a0\n 47660: i32 a2 = a0 + 0\n 47662: a1 = 0x40\n 47665: a0 = u64 [s1 + 0x1f8]\n 47669: jump [t0]\n      : @1617 (gas: 4)\n 47671: a0 = 0x3998\n 47675: a3 = s1 + a0\n 47678: a4 = a3 + 0x500\n 47682: jump [t0]\n      : @1618 (gas: 4)\n 47684: i32 a0 = a1 + 0x4\n 47687: a1 = 0x2198\n 47691: a2 = s1 + a1\n 47694: jump [t0]\n      : @1619 (gas: 11)\n 47696: a1 = a0 <u a1\n 47699: a3 = u64 [s1 + 0x210]\n 47703: a2 = a3 + a1\n 47706: a3 = a2 <u a3\n 47709: a3 = a1 if a1 == 0\n 47712: a1 = u64 [s1 + 0x200]\n 47716: a3 = a3 + a1\n 47719: a1 = a3 <u a1\n 47722: a4 = u64 [s1 + 0x208]\n 47726: a4 = a4 + a1\n 47729: jump [t0]\n      : @1620 (gas: 10)\n 47731: a3 = a4 <u a3\n 47734: a5 = a2 + a3\n 47737: a2 = a5 <u a2\n 47740: a2 = a3 if a3 == 0\n 47743: a2 = a2 + a1\n 47746: a1 = a2 <u a1\n 47749: a0 = a0 + a1\n 47752: a1 = s1 + 0x3198\n 47756: a3 = a1 + 0x300\n 47760: jump [t0]\n      : @1621 (gas: 4)\n 47762: a2 = a3 + a1\n 47765: a3 = a2 <u a3\n 47768: a3 = a1 if a1 == 0\n 47771: jump [t0]\n      : @1622 (gas: 11)\n 47773: a3 = s1 + 0x100\n 47777: a0 = u64 [a3 + 0x80]\n 47781: a1 = u64 [a3 + 0x78]\n 47784: a0 = a0 | a1\n 47787: a1 = 0xffffffe0\n 47797: a2 = u64 [a3 + 0x90]\n 47801: a1 = a2 <u a1\n 47804: a2 = u64 [a3 + 0x88]\n 47808: a1 = 0 if a2 != 0\n 47810: a1 = 0 if a0 != 0\n 47812: jump [t0]\n      : @1623 (gas: 7)\n 47814: a1 = a0 | a3\n 47817: a1 = a1 | a2\n 47820: a1 = a1 >> 0x20\n 47823: a2 = a2 | a3\n 47826: a2 = a2 << 0x20\n 47829: a1 = a1 | a2\n 47832: jump [t0]\n      : @1624 (gas: 4)\n 47834: a0 = 0x3198\n 47838: a1 = s1 + a0\n 47841: a2 = a1 + 0x100\n 47845: jump [t0]\n      : @1625 (gas: 13)\n 47847: a5 = a5 + a2\n 47850: a4 = a5 <u a2\n 47853: a2 = a2 <u t1\n 47856: a0 = a0 + a2\n 47859: a0 = a0 + a4\n 47862: a2 = a1 | a5\n 47865: a0 = a0 | a3\n 47868: a2 = a2 | a0\n 47871: a2 = a2 >> 0x20\n 47874: a0 = a0 | a5\n 47877: a0 = a0 << 0x20\n 47880: a0 = a0 | a2\n 47883: jump [t0]\n      : @1626 (gas: 12)\n 47885: u64 [a3 + 0x10] = a1\n 47888: a1 = a1 | a0\n 47891: u64 [a3 + 0x8] = a0\n 47894: a0 = a1 <u 0x1\n 47897: a1 = u64 [s1 + 0x200]\n 47901: a0 = a0 + a1\n 47904: u64 [a3 + 0x18] = a0\n 47907: a0 = a0 <u a1\n 47910: a1 = u64 [s1 + 0x218]\n 47914: a0 = a0 + a1\n 47917: u64 [a3 + 0x20] = a0\n 47920: jump [t0]\n      : @1627 (gas: 10)\n 47922: u64 [s1 + 0x1d8] = a0\n 47926: u64 [s1 + 0x1e0] = a1\n 47930: a0 = u64 [s1 + 0x1d0]\n 47934: a0 = a0 | a1\n 47937: u64 [s1 + 0x1d0] = a0\n 47941: a0 = u64 [s1 + 0x218]\n 47945: a2 = a0 + 0xffffffffffffff80\n 47948: a0 = 0xffffffffffffffff\n 47951: a1 = 0xffffffffffffffff\n 47954: jump [t0]\n      : @1628 (gas: 13)\n 47956: a5 = s1 + 0x200\n 47960: a0 = u64 [a5 + 0x10]\n 47963: a3 = u64 [a5]\n 47965: a2 = a0 | a3\n 47968: a1 = u64 [a5 + 0x18]\n 47971: a4 = u64 [a5 + 0x8]\n 47974: a1 = a1 | a4\n 47977: a2 = a2 | a1\n 47980: a2 = a2 >> 0x20\n 47983: a1 = a1 | a3\n 47986: a1 = a1 << 0x20\n 47989: a1 = a1 | a2\n 47992: jump [t0]\n      : @1629 (gas: 8)\n 47994: u64 [s1 + 0x1e0] = a0\n 47998: a0 = u64 [s1 + 0x208]\n 48002: a0 = a0 + 0x1\n 48005: a1 = a0 <u 0x1\n 48008: a2 = u64 [s1 + 0x210]\n 48012: a1 = a1 + a2\n 48015: a2 = s1 + 0x3998\n 48019: jump [t0]\n      : @1630 (gas: 8)\n 48021: a2 = a3 | a4\n 48024: a1 = a0 | a5\n 48027: a1 = a1 | a2\n 48030: a1 = a1 >> 0x20\n 48033: a2 = a2 | a5\n 48036: a2 = a2 << 0x20\n 48039: a1 = a1 | a2\n 48042: jump [t0]\n      : @1631 (gas: 5)\n 48044: sp = a1\n 48046: i32 a0 = a0 + 0\n 48048: i32 a2 = a1 + 0\n 48050: a1 = 0x20\n 48053: jump [t0]\n      : @1632 (gas: 10)\n 48055: a2 = s1 + 0x200\n 48059: a4 = u64 [a2 + 0x8]\n 48062: a3 = u64 [a2 + 0x10]\n 48065: a1 = u64 [a2 + 0x18]\n 48068: a0 = u64 [a2]\n 48070: a0 = a0 + 0xffffffffffffffdc\n 48073: a0 = a1 <u a0\n 48076: a0 = 0 if a3 != 0\n 48078: a0 = 0 if a4 != 0\n 48080: jump [t0]\n      : @1633 (gas: 13)\n 48082: a4 = s1 + 0x200\n 48086: a3 = u64 [a4 + 0x58]\n 48089: a1 = u64 [a4 + 0x50]\n 48092: a2 = u64 [a4 + 0x48]\n 48095: a0 = u64 [a4 + 0x40]\n 48098: a3 = a3 | a2\n 48101: a2 = a0 | a1\n 48104: a2 = a2 | a3\n 48107: a2 = a2 >> 0x20\n 48110: a1 = a1 | a3\n 48113: a1 = a1 << 0x20\n 48116: a1 = a1 | a2\n 48119: jump [t0]\n      : @1634 (gas: 11)\n 48121: a4 = u64 [s1 + 0x210]\n 48125: a3 = a3 + a4\n 48128: a5 = a3 <u a4\n 48131: a4 = u64 [s1 + 0x218]\n 48135: a4 = a4 + a5\n 48138: u64 [a1 + 0x8] = a2\n 48141: u64 [a1] = a0\n 48143: u64 [a1 + 0x10] = a3\n 48146: u64 [a1 + 0x18] = a4\n 48149: a0 = 0x3000\n 48153: jump [t0]\n      : @1635 (gas: 9)\n 48155: a1 = a0 <u a1\n 48158: a3 = u64 [s1 + 0x88]\n 48162: a2 = a3 + a1\n 48165: a3 = a2 <u a3\n 48168: a3 = a1 if a1 == 0\n 48171: a1 = u64 [s1 + 0xc0]\n 48175: a3 = a3 + a1\n 48178: a1 = a3 <u a1\n 48181: jump [t0]\n      : @1636 (gas: 4)\n 48183: a0 = 0x1998\n 48187: a1 = s1 + a0\n 48190: a2 = a1 + 0x700\n 48194: jump [t0]\n      : @1637 (gas: 10)\n 48196: a2 = a1 | a5\n 48199: a0 = ra | a0\n 48202: a2 = a2 | a0\n 48205: a2 = a2 >> 0x20\n 48208: a0 = a0 | a5\n 48211: a0 = a0 << 0x20\n 48214: a0 = a0 | a2\n 48217: u64 [s1 + 0x1c8] = t1\n 48221: u64 [s1 + 0x1c0] = t2\n 48225: jump [t0]\n      : @1638 (gas: 4)\n 48227: i32 a0 = a1 + 0x24\n 48230: a1 = 0x2198\n 48234: a3 = s1 + a1\n 48237: jump [t0]\n      : @1639 (gas: 4)\n 48239: i32 a0 = a1 + 0x24\n 48242: a1 = 0x2998\n 48246: a3 = s1 + a1\n 48249: jump [t0]\n      : @1640 (gas: 4)\n 48251: i32 a0 = a1 + 0x4\n 48254: a1 = 0x2998\n 48258: a2 = s1 + a1\n 48261: jump [t0]\n      : @1641 (gas: 8)\n 48263: a0 = sp + 0xffffffffffffffe0\n 48266: a0 = a0 & 0xffffffffffffffe0\n 48269: u64 [s1 + 0x1f0] = a0\n 48273: sp = a0\n 48275: i32 a2 = a0 + 0\n 48277: a1 = 0x40\n 48280: a0 = u64 [s1 + 0x1e8]\n 48284: jump [t0]\n      : @1642 (gas: 6)\n 48286: a2 = a2 + a4\n 48289: a2 = a2 + a1\n 48292: a3 = a2 ^ a4\n 48295: a4 = a2 <u a4\n 48298: a4 = a1 if a3 == 0\n 48301: jump [t0]\n      : @1643 (gas: 5)\n 48303: u64 [s1 + 0x218] = a0\n 48307: u64 [s1 + 0x210] = a3\n 48311: u64 [s1 + 0x208] = a4\n 48315: u64 [s1 + 0x200] = a5\n 48319: jump [t0]\n      : @1644 (gas: 8)\n 48321: a0 = a0 | a2\n 48324: a2 = a4 | a1\n 48327: a2 = a2 | a0\n 48330: a2 = a2 >> 0x20\n 48333: a0 = a0 | a1\n 48336: a0 = a0 << 0x20\n 48339: a0 = a0 | a2\n 48342: jump [t0]\n      : @1645 (gas: 7)\n 48344: a0 = 0x20\n 48347: u64 [s1 + 0x218] = a0\n 48351: a5 = 0\n 48353: u64 [s1 + 528] = 0\n 48357: u64 [s1 + 520] = 0\n 48361: u64 [s1 + 504] = 0\n 48365: jump [t0]\n      : @1646 (gas: 8)\n 48367: u64 [sp + 64] = 0\n 48370: u64 [sp + 56] = 0\n 48373: u64 [sp + 48] = 0\n 48376: a0 = 0x4e487b7100000000\n 48386: a1 = sp + 0x30\n 48389: u64 [sp + 0x48] = a0\n 48392: a0 = 0\n 48394: jump [t0]\n      : @1647 (gas: 10)\n 48396: u64 [s1 + 0x210] = a0\n 48400: a0 = a0 | a3\n 48403: u64 [s1 + 0x218] = a1\n 48407: a1 = a1 | a4\n 48410: a1 = a1 | a0\n 48413: a1 = a1 >> 0x20\n 48416: a0 = a0 | a4\n 48419: a0 = a0 << 0x20\n 48422: a0 = a0 | a1\n 48425: jump [t0]\n      : @1648 (gas: 7)\n 48427: a0 = a0 << 0x3b\n 48430: a1 = a0 >> 0x38\n 48433: u64 [s1 + 0x218] = a1\n 48437: a2 = 0x80 - a1\n 48441: a0 = 0xffffffffffffffff\n 48444: a1 = 0xffffffffffffffff\n 48447: jump [t0]\n      : @1649 (gas: 4)\n 48449: a3 = s1 + 0x7ff\n 48453: a3 = a3 + 0x191\n 48457: a4 = a3 + 0x200\n 48461: jump [t0]\n      : @1650 (gas: 6)\n 48463: sp = s0 + 0xffffffffffffffa0\n 48466: ra = u64 [sp + 0x58]\n 48469: s0 = u64 [sp + 0x50]\n 48472: s1 = u64 [sp + 0x48]\n 48475: sp = sp + 0x60\n 48478: jump [t0]\n      : @1651 (gas: 5)\n 48480: a0 = sp + 0xffffffffffffffe0\n 48483: a1 = a0 & 0xffffffffffffffe0\n 48486: sp = a1\n 48488: a2 = u64 [s1 + 0x200]\n 48492: jump [t0]\n      : @1652 (gas: 4)\n 48494: a0 = u64 [s1 + 0x218]\n 48498: a0 = i32 [a0]\n 48500: a1 = 0x23\n 48503: jump [t0]\n      : @1653 (gas: 8)\n 48505: a0 = u64 [a4 + 0x18]\n 48508: a1 = u64 [a4 + 0x20]\n 48511: a2 = u64 [a4 + 0x10]\n 48514: a3 = u64 [a4 + 0x8]\n 48517: a1 = a1 | a2\n 48520: a0 = a0 | a3\n 48523: a0 = a0 | a1\n 48526: jump [t0]\n      : @1654 (gas: 4)\n 48528: a0 = 0x3998\n 48532: a3 = s1 + a0\n 48535: a4 = a3 + 0x100\n 48539: jump [t0]\n      : @1655 (gas: 7)\n 48541: a3 = a3 | a5\n 48544: a3 = a1 if a2 == 0\n 48547: a1 = 0xffffffffffffffff\n 48550: a0 = a1 if a4 == 0\n 48553: a3 = a1 if a4 == 0\n 48556: a5 = 0 if a2 == 0\n 48558: jump [t0]\n      : @1656 (gas: 7)\n 48560: a0 = a3 <u a0\n 48563: a1 = u64 [s1 + 0x88]\n 48567: a4 = a1 + a0\n 48570: a1 = a4 <u a1\n 48573: a1 = a0 if a0 == 0\n 48576: a0 = u64 [s1 + 0xc0]\n 48580: jump [t0]\n      : @1657 (gas: 8)\n 48582: a0 = u64 [a4 + 0xd8]\n 48586: a1 = u64 [a4 + 0xe0]\n 48590: a2 = u64 [a4 + 0xd0]\n 48594: a3 = u64 [a4 + 0xc8]\n 48598: a1 = a1 | a2\n 48601: a0 = a0 | a3\n 48604: a0 = a0 | a1\n 48607: jump [t0]\n      : @1658 (gas: 4)\n 48609: i32 a0 = a1 + 0x4\n 48612: a1 = 0x1998\n 48616: a2 = s1 + a1\n 48619: jump [t0]\n      : @1659 (gas: 5)\n 48621: a1 = a3 if t1 != 0\n 48624: a0 = a0 ^ a2\n 48627: a0 = a0 | a4\n 48630: a1 = a5 if a0 != 0\n 48633: jump [t0]\n      : @1660 (gas: 4)\n 48635: a2 = 0x2998\n 48639: a3 = s1 + a2\n 48642: a4 = a3 + 0x600\n 48646: jump [t0]\n      : @1661 (gas: 7)\n 48648: sp = sp + 0xffffffffffffff60\n 48652: u64 [sp + 0x98] = ra\n 48656: u64 [sp + 0x90] = s0\n 48660: u64 [sp + 0x88] = s1\n 48664: s0 = sp + 0xa0\n 48668: sp = sp & 0xffffffffffffffe0\n 48671: jump [t0]\n      : @1662 (gas: 2)\n 48673: a3 = a2 & 0x40\n 48676: jump @1666 if a3 != 0\n      : @1663 (gas: 1)\n 48679: jump @1665 if a2 == 0\n      : @1664 (gas: 6)\n 48682: i32 a3 = 0x40 - a2\n 48685: a3 = a1 << a3\n 48688: a1 = a1 >> a2\n 48691: a0 = a0 >> a2\n 48694: a0 = a0 | a3\n 48697: ret\n      : @1665 (gas: 1)\n 48699: ret\n      : @1666 (gas: 4)\n 48701: a0 = a2 + 0xffffffffffffffc0\n 48704: a0 = a1 >> a0\n 48707: a1 = 0\n 48709: ret\n      : @1667 (gas: 2)\n 48711: a3 = a2 & 0x40\n 48714: jump @1671 if a3 != 0\n      : @1668 (gas: 1)\n 48717: jump @1670 if a2 == 0\n      : @1669 (gas: 6)\n 48720: i32 a3 = 0x40 - a2\n 48723: a3 = a0 >> a3\n 48726: a0 = a0 << a2\n 48729: a1 = a1 << a2\n 48732: a1 = a1 | a3\n 48735: ret\n      : @1670 (gas: 1)\n 48737: ret\n      : @1671 (gas: 4)\n 48739: a1 = a2 + 0xffffffffffffffc0\n 48742: a1 = a0 << a1\n 48745: a0 = 0\n 48747: ret\n","bytecode":{"object":"50564d000008e0000000000000010700c14002c000800382082065687420746f4e000072656e6e6977727420657a6972506620726566736e61cb37831a985fa94a7d5065b935e37d33d299f7493b9c87a0262cadf513e95800657a697270206f4e69616c63206f74206f6e20657a697250616d69616c6320746320656c666661526e6f697469646e6f656d20746f6e2073726420726f6620746974726170206f4e0073746e6170696300726f74616572636320746f6e6e61436977206c65636e6169747261702068746620646e75666552918f886c283e9beafe86d0ea7a56b0dfb754e1de9d23333c53f00c7643304f066e20656c66666152766974636120746f6820656c666661526465646e652073612079646165726c41742064656e696f6a66666172207369686920656c6666615200006c6c756620730a124e3cd30c8e3389fd82f0433fd7fc270d1835ac67ed402ed951edf3b42e8d6369666675736e49746e6520746e656900006565662079722d568ba282abbaeeef9f3ab4807b74530b0a30faa064fd92fadf9ac318a273146e6f6974617275446562207473756d2076697469736f7020207461206465654e203220747361656c7069636974726170616320656c74695420656220746f6e6e6920656c66666152636120746f6e20734221f2bd6c771e9c3e5009eb23b217096590c0a190e9c8615e556af0df5bf1cb918f886c283e9beafe86d0ea7a56b0dfb754e1de9d23333c53f00c7643304f0604810510000000000400000012000000200000002e00000034000000410000004c0000005b0000005e0000006b0000007b0000008b00000096000000a8000000b300000063616c6c63616c6c5f646174615f636f707963616c6c5f646174615f6c6f616463616c6c5f646174615f73697a6563616c6c65726465706f7369745f6576656e746765745f73746f72616765686173685f6b656363616b5f3235366e6f777265665f74696d655f6c65667472657475726e5f646174615f636f707972657475726e5f646174615f73697a657365616c5f72657475726e7365745f696d6d757461626c655f646174617365745f73746f7261676576616c75655f7472616e73666572726564051302c069b50463616c6cc072b5066465706c6f7906c0c5dc834202c06dbe9b00e30127039203c6038b04930469056e05ef05fa0514066306a806b306050719072e076d0793073d084b085808b308bb08da08f8086b0973099109a509d809a70ae00a140ba00bd00b360c3c0c480c6a0c700c7c0c960c9c0cf20cf80cfe0c0a0d680d8b0da90dc90dcf0dd90d100e480e8a0ea30eb30ed20e380f3e0f4b0f6e0f750f820f9d0fa40f07100e103110a710b010dd108f119611bc11db11e2111212361289129412d8120e1328137213d913e01452156716c016de16211728174c177d179c17aa17b117bb17d017d71721184f18aa18b318d318f3186a199c19261a451aa91ab01abd1ae21ae91af61a111b181b7a1b811b881b951bb41bbb1beb1bf41b111c3d1c571c5e1c681c8b1c961ca41ccb1ceb1c191d3f1d461d741d8e1d951dc31ddd1de41d0f1e2a1e311e5b1e791ea31ec11eea1e311f4a1f691fa91fb01fef1ffd1f2a2039207e20992024212d2185219321f0210b224b225a229622b122ee22fd223d235c238e239d233f24f72415253525472552255c257725a925c725e725f92504260e262c266426a926da26602767276e278b27c527cc27fc270528252868286f289828d028ef28fd2804290e292729d529de29fe292b2a492a502a5a2a8d2ac42acd2aeb2afb2a152b4c2b892bc32bcc2bec2b0b2c192c202c642c6d2c9e2cbd2ccf2cda2ce72c4e2d7d2dba2d162e342e7b2ebb2ece2e352f3c2f6c2f732f9b2fa22f04300b3056308230993076314b32fc3213333e3344335a3386338d33b133b8330134683475349d34ac34b93404350d352d35593573357a358435ab35b635c435ee3508360f363c3656365d368a36a536ac36d936f736fe36283746376f378d379437fc37163834389e38a738d838f03828392f39683975399e39ad39f3390d3a9b3af03afd3a563b703bb43bc23bdb3b013c1b3c383c5e3c6c3ca83cc63cdf3c023d103d423d523d893d003e7b3eb93ee63e473f603f903fc23f8c40f840e0411c4285428b429742ba42c042cc42e742ed422c439343a843b443d743dd43e94304440a444944ad44b344bf44e244e84410451645bc45e2450c4612462746534659467d4683464b475847db47e947ef473348fa487349404a594a6a4a9c4a004b064b124b354b3b4b474b624b684b144c224c5d4ca64cfb4cc74dde4d424e484e544e774e7d4e894ea44eaa4eee4e554f5b4f674f8a4fcb4f33507d508b50a45008510e511a513d5143516b517151e8510e524c5252526752a652ac52e352e9526b53a25366547354e3546a557a55e355e955f55518561e5646564c569656fa5600570c572f5735575d5763579457c5570b585a582c595e598f59e459015a255a475acb5a285b8e5b045c625cd05c375d8f5d085e165e585e765eb55ec35eef5e125f305f705f7e5faa5fba5fe45f1c604460c36001610f617c61c061d5610d626162c262fc6289639463a3630265a565bc65cc65d965df65e56504663a664c668c6692661e67566779679d67b8670f681c688a68e6683069b469d569f769476a8f6aa76ac66a046b8a6bb76bd96bf76b046c0a6c4e6c856ca36cb46cbe6ccb6c096d256d956deb6d216e2f6e636e816eb96e3c6f4a6fbb6fda6f577065706b70ac707171d371337351737c73db73ed731e7424743c74427448744e747074b674cf743d7557757d759a75007615765176ab7612775077db77e677f6776b79df79f679067a137a197a1f7a3e7a727a847abe7ac47a627b747baa7bb07bc87bce7bd47bda7bf87b477c607cdf7cfa7c207d3d7da47db67d2c7e3e7eb47ec67e3c7f9d7f028060809a801d81288138812082758280829082828320847b84be84e58431854485b885d185f585fb852d863386758687868d86bf86c586098717875587c4873088bd88ce88ea884e899089e9892c8ade8af08a0e8b838cee8c028d3a8d4f8d828dcc8de18d148e528e678ec88eed8e328f428f918fa28fcd8fee8f67906d90009270929492ac92d0929893b393ba93d493f8934e947894ba94cf940e956a95e59543963c975697b9979a98f8986c997b9989999e99f299179ac99ad09ae89a0c9b4e9b559b6d9b919b369c3d9c579c7b9cc99cd09ce89c0c9d8c9db69d0e9e269e549e439fc29f0ba011a092a020a17aa1c4a1f7a142a24ea25da2c6a2fda225a3f3a312a436a47ea4a8a4fba439a578a5ffa572a791a731a871a8afa8f3a801a9aba9bba9e4a9f4a923aa34aa62aaacaaecaafbaa37ab7aabf2ac0bad2fad73adb4adceadebad37ae41b186b1feb11fb23db28db2cbb2d6b213b327b332b36ab3adb3dbb3e1b314b489b4e3b422b541b572b57cb5aa876e978a2098aa20977b2098bb20c89b0bc9ba0a979b019abbaeab20ae873751094ec87909647a017c8b95880195ac0178ab64caab9cf42836510934c87909647a017c8b95880195ac0178ab64caab9cf4281c51091a839aff01c8a80b7cbb9599ffc8a70c78cb83aaff5209f03200390810020251089b06330740020383770a0d288e069511f07b10087b1564896475330820649750100284047c78017c797c7a027c7b03978808d4980897aa1097bb18d4ba0ad4a8087c79057c7a047c7b067c7c07979908d4a90997bb1097cc18d4cb0bd4b909979920d489027c79097c7a087c7b0a7c7c0b979908d4a90997bb1097cc18d4cb0bd4b9097c7a0d7c7b0c7c7c0e7c780f97aa08d4ba0a97cc10978818d4c808d4a808978820d498037c78117c7a107c7b127c7c13978808d4a80897bb1097cc18d4cb0bd4b8087c7a157c7b147c7c167c791797aa08d4ba0a97cc10979918d4c909d4a909979920d4890a7c78197c79187c7b1a7c7c1b978808d4980897bb1097cc18d4cb0bd4b8087c791d7c7b1c7c7c1e7c771f979908d4b90997cc10977718d4c707d49707977720d487076f776fa86f396f2a7b5a187b59107b58087b57821008821595111032009511d87b10207b15187b161082897b19088289087b198285108286183308205010043c036f686f59821a6faa821b086fbb787b18787a10787908787898bc38787c1f98bc30787c1e98bc28787c1d98bc20787c1c98bc18787c1b98bc10787c1a98bb08787b1998ab38787b1798ab30787b1698ab28787b1598ab20787b1498ab18787b1398ab10787b1298aa08787a11989a38787a0f989a30787a0e989a28787a0d989a20787a0c989a18787a0b989a10787a0a98990878790998893878790798893078790698892878790598892078790498891878790398891078790298880878780182102082151882161095112832009511a07b10587b15507b16489515608411e06476828718828910828a0882886f776f996faa6f887b18187b1a107b19087b17491138491130491128491120481140208318831a20831b403309ff33070a06821738821830821928821a206f776f886f996faa7b6a187b69107b68087b675012062eba0032009511a07b10587b15509515608411e08272827a08827b108277188283828908828c108288186f746fbb6faa6f276f826fcc6f996f387b17187b1a107b1b087b147b18387b19307b1c287b12208318831a203309ff330b2033070a0e9551a0821058821550951160320082ab7b1b3882ab087b1b3082ab107b1b2882aa187b1a20829a7b1a18829a087b1a10829a107b1a088299187b19648650100a590182186f888219086f99821a106faa821b186fbb7b1b587b1a507b19487b18408218206f888219286f99821a306faa821b386fbb7b1b787b1a707b19687b18608379836a8317403308020a05955160ff8210980082159000821688009511a0003200951120ff7b10d8007b15d0007b16c8009515e0008411e082bc7b1c4082bc087b1c4882bc107b1c5082bb187b1b5833020c82ab7b1b1882ab087b1b2082ab107b1b2882aa187b1a308296829a087b1a829a107b1a088299187b19107b183833000e2892007b183850100e8c006f687b187882186f887b18708218086f887b18688218106f887b18608218186f887b1898008218206f887b1890008218286f887b1888008218306f887b1880008218406f887b18b8008218486f887b18b0008218506f887b18a8008218586f887b18a0008379811a388317603308030a05955120ff8210d8008215d0008216c8009511e00032008b7910520931c8780883881f8488e056380000012533090c0202390a0c0202ae8a093d080c02020133082002028377c887073200009511f07b10087b158475010a03013d0708020251050750101009501012c5019511c0fe7b1038017b1530017b162801951540018411e04921b8004921b0004921a8004921a0008317a0000a0f018217b0008218b8008219a800821aa000d49808d4a707d4870752072301390608020297672098772095771f8477e095788000d878077b1880007b17880094777b1790003307409518800049219800501014d5fb33078000646850101625ff8377646833090a010154161fe1009517603308800050101876fa82167082197814070000000001000000d36707d497079868208888017b1918949893785108b9008217687b17088217607b17104921d8004921d0004921c8004921c0009517409518c00050101a53fc801754821858977720d46707821918d498084921f8004921f0004921e8004921e0008219087b1908018219107b1900017b1818017b1710019517e0009518000150101c86fc95172033084050101ed7f9821738821830821928821620d49707d48609d47909989920d48707977720d497075107280033082002028388330701284433082002028388330701283833082002028388330701282c646733085010201afe8377330833090a012863f96467330850102206fe8378330733093300240a0c280a33093300240a0c01951110fe7b10e8017b15e0017b16d8019515f001951130c08411e06416956998314929800249297802492968028000330740956800344929700250102657fa33070802027b67180239070802025517040828d58300956700308377200433083300280a0201956a983181a7a4025247ba964b800a28382851475b29e3a6c009956998395147548109d71d055247c9fedae40a28bf2c52471714c31e0a28440e52476df773220a283936524712f013350a28f71b52478bdaeb380a28ec28826a18025247a9ec58470a2885215147056c2b57e8075247cec04b5d0a284c1352477131ba5f0a28f00f51476aa5b2600a28141f49292004492918044929100449290804956700408377a0fd33002a0a0f01956a983995ab000450122c34b500510707282d830050122e1cb500ac780728278300956700408377c0fd3308040a0295679839957c000482c84082c93882ca3082cb2895679821956c00017bc8d8007b78e0067bc9d0007b79d8067bcac8007b7ad006956860287bcbc0007b7bc806330750103011f933023295689821014928c0064928b8064928a806026489330720956840284929b006501034eaf839080c020256183f133308403d080c0202330236282eb1005012362ab1003307200202837783993308407b67b8010a07826a180282a782a80882a91082aa186f7b7b6b10026f8c7b6c08026f997b6900026fa77b67180295720ad87208c88907d8970ada880ac8ca0ad8ca08c8b808956b98397bb2480495b900047b97507b9a587b9860956720289568e03d5010384bf933023a95689821017c87880649288006492878067b876806956700284928700650103c43970082681802958706d88708826a000250123ef3b00082680802c88a0ad88a08826b1002c8b808956b983995bc00047bc880007bca787bc9707bc7689567e0279568003e501040def895679821957900068298487b68e8018298507b68e0018298587b68f8018297607b67f00195670040837720fe0a0801956998398297900482988804649b826ae001d3a709d8a70782baa004826ce801d8c80882bb9804db97088269f001d39a07d89a09826cf801d8cb0adb790ad3cb09d49707db7a08826b180295bb075108020182671802d87b0782690002c87908d89809da770982670802c87909d87907826a1002c8a707956a983995ac00047bcba8007bc8b0007bc9b8007bc7c0009567c0279568403e7b6bf8015010420ff895689821958900068297287b67f0018297387b67e8018297307b67e0018297407b67b001956c000282c818958705d8870882ca501244b8af0082c808c88a0ad88a0882cb10c8b808956b983995bc00047bc8e0007bcad8007bc9d0007bc7c8009567a0279568603e501046a2f7826bf801956a982195ac000682c72082c81082c90882ca18826cb001d3c707826ce001d3c808d487078268e801d3a808826af001d3a909d49808d48707510706288d43956c000282c718d87b0782c9c87908d89809da770982c708c87909d8790782ca10c8a707956a983995ac00047bcbe8007bc8f0007bc9f8007ba700059567c0269568803e50104816f7956a982195ab000582b73882b84082b93082ba28d49808d4a707d48707510707289580009567802633084050104abaf4956998218292000595980004828cf800828bf0008287e800d42b0ad4c708d4a808988820d4ca0a97aa20d4a80851080628dc664929d8044929d0044929c804140a00000000a079c308956860267b9ae0047b6718027b6b10027b6200027b6c080250104c8ef550124e46a900520706289d6650125002ae004929c0044929b8044929a80420956840264929b0047b6a08027b6b00025010525af550125476a900520706286966501256edaf00492aa004492a9804492a88040f95682026492a90045010582ef550125a65a900520706283d6683a7443a088000023a09880002956b98217bb88004492b70047bb9780495680026492b68043300ba0328f4f44929e0054929d8054929d0054929c80595670040837760ff33005c0a0f33025e2849ad0050125e45ad00501260ceb00051070628887e5012626ab000ac780628837e956700408377803308040a0295679839827b0006957c000582caf80082c8f00082c9e80095679829956c00017bcbb8007b7b20067bcac000957b00067bba187bc8c8007bb8109568a02f7bc9d0007bb90833075010645cf495689829492800064928f8054928e8050264893307209568802f4929f00550106639f439080c020256183f133308403d080c0202330268287dac0050126879ac0033072002027b67d801837783993308407b67b00133006a0a0733026c2828ab0050126c24ab009567602f50106ef9970095689829958900058297e0007b67e0018297d8007b67f0018297d000648b7b67f801956c000282c8958708d8870882ca0850127088ac0082b8c8057b68e80195689839958b00067bb7087bb91082c710c87a0a7bba18d87a0782c918c897077bb7209567402f9568a03f5010726ef4956998298097b8058298a8058299b005956b000182baf000d3a70782bae800d3a808d4870782b8f800d3980882b9e000d49808d48707510706288e33501274dcae0095970ad8970b826a0802c8ba09d8a90adabb0a5012765cad00837780fec867077b68a80150107803f4956a982982a8e804848700ff0051070628573b9567602c33084050107ab8f1956998298292e00295980002828cd800828bd0008287c800d42b0ad4c708d4a808988820d4ca0a97aa20d4a80851080628da634929b8024929b0024929a802140a00000000a079c3089568402c7b9ac0027b6718027b6b10027b6200027b6c080250107c8cf250127e44a600520706289b635022800037ad004929a0024929980249298802209568202c492990027b6a08027b6b00025020820057f25022840072a60052070628646350228600f4ac00492a8002492a7802492a6802139568002c492a70025020880028f250228a005ea60052070628356383a7443a085000023a09580002956b982995ba00027ba8607ba95814080000000000656c627ba8509568e02b492b48023300ba0328e1f14929800149297801492970014929680195670040837700fb33008c000a0f33028e00288dad0050228e0089ad0082b77882b8800082b97082ba68d49808d4a707d4870751070628707b5022900044ad00ac7806286a7b95670040837720fb3308040a02019569983982989801829aa00114070000000001000000d38707d4a7077b6810029888208888017b6a180294a89378520806282f7b829790017b670802829788017b6700024929c0014929b8014929b0014929a8019567201e9568403b5020920010f23302940095689819019589000482979800956800017b87e800829790007b87f800829788007b87f0009567001e33084050209600aeef956a981995ab000482b7800082b87882b97082bc68d49707d48c09d47909989920d48707977720d4970751070628d2618267e801977720987720826800028269f001d3980882691002d3970782690802826bf801d3b909826b1802d4b909d49808d48707887701492a6004492a58047ba748049568e01d492a500464c77b6c180233003002285df0956798394927a00549279805492790054927880595670040837720ff330098000a0f33029a0028aca80050229a00a8a80082b7980082b8a00082b9900082ba8800d49808d4a707d4870751070628fa7950229c00b9ab00ac780628f47995670040837740ff33080433009e000a023302a0002860a8005022a0005ca80082b7a80082b8b00082b9b80082bac000956b982995bc00027bca407bc9387bc8309568c02b7bc72833075020a200b3ef956898294928200249281802492808020264893307209568a02b492910025020a4008fef9517e08477e07b671802647133090c020239070c020256173f0b20030c020240017b6908029517e08479e07b69100264913307200202837783993308407b6700023300a6000a07826a10023302a80028e9a600826a10025022a800e1a60095ab07d8ab0ac8a90cd89c09daaa09c88909d88908c887077b6b1002826818027b8b7b6cf8017b8c087b69f0017b89107b67e8017b87189567802b3308405020aa00b3ed95679829827800027b685001957900018298f8007b6848018298f0007b6840018297e8007b6758019567602b826818025020ac00a9ef95680001828b40828a48828758828950d4b9095022ae00a5a70051080628b15f956898298282e0018283d801958a000182acd00082a9c8007b6980017ba9a8007b6c88017bacb0007b6390017b83b80164899568402b7b6298017b92c0015020b00053ee826858019587207b676801d8870782694001c879087b687801d89808da770882674801c878087b686001d878077b6718028267e80195689829958900017b97a0008267f0017b9798008267f8017b97900064899568202b826710027b97880133075020b200eced9517e08477e07b67a001647182690802819756171f08480920018267500182681802c887077b6770011407ffffffff000000007b67a8019517e08477e07b67180264718379330820826700020a073302330333004926f801826a180282a71882a81082a90882ac6f746f8b6f9a6fc98268a00164977b89187b6ad8017b8a1064bc7b8b087b64e0017b84956a000182a968956b00027bb91882a9787bb90882a9607bb982a9707bb91001956b00017bb7e8007bbcf00082b78000d8720782b98800d3930ad89309daa70982b79000d8700482ba980082bcf800d3ac0bd8ac0adab40ad37007d4b707da790a520a0628fd317b60c0017b63c8017b62d0019567002a5020b400d7ed95680002828c18828ad4ac0782891082620802d49208d48707987720d4a808978820d4870751070628d45d956798297b6910027b6a0002647a82777882a87082a968826ba801d2b707330bffd2b808d2b909491a607ba9487ba8509568e0297ba75864c77b6c18027b6208025020b60073ec826818029587207b67b801d8870982680802c898077b67b001d8870ada990a82670002c8a700d8700a82671002c8a7077b6710028264e0019544017b64e001884a018267f001c8a707d4740a88aa018268d801c88a0ad88a0b8269e801c8b9098262d001952201882b018263c801c8b303d4320b88bb01826cc001c8cb0bd8cb0c8268f801c8c8087b68f801647c8268a0017b87087b847b8a1064977b89187b6ad8018269b8017b6918028269b0017b6908027b60000264b02878fe492ac002492ab802492ab002492aa80295670030837740040a0f01956a983195ab000282b7b80082b8c00082b9b00082baa800d49808d4a707d48707510706286d7582671802817756174307286775956700035020b8008d79956800038287107b6708028287087b67100282877b67180295670030837760043308040a02956a983195ab000282b7c80082b8d00082b9d80082bae0007b6af8027b69f0027b68e8029568e0027b67e00233075020ba0005eb4926d8024926d0024926c002033307209568c0024926c8025020bc00e7ea33080c020239070c020256173f0b20030c020240019517e08479e07b69f00164913307200202837783997b6800023308407b67f8013300be000a073302c00028d9a0005022c000d5a0004926b8027b67b002826710027b67a8029568a002826718027b67a00233075020c20079ea956a000182a7d0007b67980282a7d8007b67900282a7e0007b6788023307209568800282a9e8007b6980025020c40048ea82680002818756173f08480840019517e08477e07b6718025022c60095a2003300c8000a073302ca0028dda1005022ca00d9a100956760025020cc00fcea826760027b671802956740023308405020ce00bbe85022d00002a40051080628025b7c6818028e89492638024926300249262802956820027b6920027b6718023300300228c0e9492900034929f8024929f0024929e80295670040837780fc3300d2000a0f01956a983995ab000282b7f80082a8000382b9f00082bae800d49808d4a707d487075107062883735022d40026a500ac7806287d73956700408377a0fc3308040a0295679839957c000382c82082c91882ca1082cb0895679821956c00017bc8d0007b7860047bc9c8007b7958047bcac0007b7a50049568e0257bcbb8007b7b480433075020d6001be93302d80095689821014928400449283804492828040264893307209568c025492930045020da00f2e839080c020256183f143308403d080c02023302dc002834a1005022dc0030a10033072002027b67e001837783993308407b67b0010a07826a180282a782a80882a91082aa186f7b6f8c6f996fa77b67e8019577018878017b69f001c89808d48709889901c8c9097b6cf801d8c90a7b6b0002c8ba0a956b983995bc00037bc7287bc8307bc9387bca409567a0259568c03c5020de004de995699821959a000482a71882a8107b68100282a8087b6818027b67d8019777209877207b670802956780255020e000378c00956a982195ab000382b7f80082b8e80082b9f00082aa0004956c000282cb08d3b70782cb18d3b80882cb10d3b909d4a909d49808d487075107062849299517e08478e06481956c000182c9e80095970ad8970b82caf000c8ba09d8a90adabb0a82cbf800c8ba0ad8ba0c826b0002c8cb0b7b89087b877b8a107b8b189567c0247b6808025020e20091e8956a982182a828038487ff005107062877319567c0223308405020e40046e6956998218292400195980001828c38828b30828728d42b0ad4c708d4a808988820d4ca0a97aa20d4a808510806286a58492918014929100149290801140a00000000a079c3089568a0227b9a20017b6718027b6b10027b6200027b6c08025020e6001ce75022e800d39a005207062829585022ea008e9f0049290001330c4929f8004929e80020956880224929f0007b6a08027b6b00025020ec00e3e65022ee00fe9a0052070628f0575022f00074a100492ae000492ad800492ac8001195686022492ad0005020f200b4e65022f400ea9a0052070628c15783a7443a08d800023a09e00002956b98217bb8c0007bb9b800140800000000000000657bb8b00095684022492ba8003300ba03286ee64929e0014929d8014929d0014929c80195670040837760fb3300f6000a0f3302f800281aa2005022f80016a2005022fa0045a200510706284b705022fc00e0a100ac780628457095670040837780fb3308043300fe000a023302000128e0a10050220001dca10082b7e80082b8f00082b9f80082aa0002956b98217bbaa0007bb998007bb89000956820227bb78800330750200201dae5330204019568982101492880004918784918680264893307209568002249197050200601b4e59517e08477e07b67f801647139080c020256183f143308403d080c02023302080128ea9d0050220801e69d0033072002028377839933084033000a010a0733020c0128319c0050220c012d9c009567e02150200e014fe6956898218287607b67f8018287587b67f0018287507b67e80182874850221001f69e00959a0002502212017e9e009567c0219568a03b5020140113e6956c982180c7387b67d80182c7307b67d00182c7287b67c8018267080295790250221601719b007bc795cb00ff7bbaf8007bb8f0009567a021956880217bb9e800502018011377956898218287207b67a8018287187b67b0018287107b67b8018287087b67c0018267080295790350221a01239b00956b981995bc00077bc7c0007bcab8007bc8b00095676021956840217bc9a80050201c01bf7650221e01f89e008297e0007b6788018297d8007b6790018297d0007b6798018297c8007b67a0018268080295870450222001d998007bc8407bca387bc9307bc728956720219568c03b5020220129e550222401a99e008297a0007b678001829798007b677801829790007b677001829788007b67680182680802958705502226018a98007bc8607bca587bc9507bc748956700219568e03b50202801dae450222a015a9e00829780007b6760018297787b6758018297707b6750018297687b6748018268080295870650222c013e98007bc880007bca787bc9707bc7689567e0209568003c50202e018de4502230010d9e008297607b6740018297587b6738018297507b6730018297487b6728018268080295870850223201f297007bc8a0007bca98007bc990007bc788009567c0209568203c502034013ee495689819808738077b672001828730077b671801828728077b6710018268080295870950223601aa97007bc8c0007bcab8007bc9b0007bc7a8009567a0209568403c50203801f6e3956c981982c720077b67080182c718077b6700018268080295870ad88708826a100250223a01af9b0082c810077b68f80082680002c88a0ad88a08826b1802c8b80882cb08077b6bf000956b983995bc00027bc8e0007bcad8007bc9d0007bc7c800956780209568603c50203c0186e3956798198277e8067b67e8009567602033084050203e0141e195699819959c000682cae00082cbd80082c7d00082c8c80050224001aa9d005107062870538267e001959c00067bc7a8008267e8017bc7b0008267f0017bc7b800956840208267f8017bc7c000826718027b6a08027b6b0002502042011ce25022440192990052070628295382671802837720956998194929a0068268c801959b00067bb888008268d0017bb89000956820207b6af001826ad8017bba980050204601d6e18267f0019577c050224801b5950052070628dc5282671802837740956998194929800649297806492968066001956800204929700650204a019be1826818029587600150224c011e9a0095689819958c00067bc9107bc7088267a8017bc7408267b0017bc7388267b8017bc7308267c0017bc7287bca18648a9567e01f9568c01f9569a01f7bab200650204e01b977140900000000010000001407a0ffffff0000000050225001199500520706284052956a981982a0480682a2500682a460067b64e00182ab58067b6be801826c1802d8c0037b60d001826a1002d3a2087b69f001d8a2097b62d80164a7da8309826a0002c9ab08d8ab0a826b0802c9b40bc9ab0bd8980ac9ab0bc99808c97209c93909c9c00a83c760956c98197bcae8057bc9f0057bc8f8059568801f7bcb000650205201a1e03302540195689819018267e001958900057b97a0008267e8017b9798008267d8017b9790008267d0017b978800826788017b97c000826790017b97b800826798017b97b000648b9567601f9568401f9569201f826aa0017bbaa80550205601b2768267f001957780502258011f9400520706284651956a981995ab000582b7e0007b67e00182b7d8007b67d80182b7d0007b67e80182b7c8007b67f0018267180283778000826868017bb868826870017bb870826878017bb8789568001f826980017bb9800050205a01d5df14090000000001000000140760ffffff0000000050225c01a7930052070628ce50826718028377a000826848017b69d001956a981995ab00057bb848826850017bb850826858017bb8589568e01e826960017bb96050205e017adf8267d001957740ff50226001589300520706287f50826718028377c00082682801956a981995ab00057bb828826830017bb830826838017bb8389568c01e826940017bb940502062012fdf14090000000001000000140720ffffff0000000050226401019300520706282850826718028377e000956a9819492a20058268100195ab00057bb808826818017bb8109568a01e7b69d001826920017bb91850206601d7de8267d001957700ff50226801b5920052070628dc4f82671802837700018268f000956a981995a900047b98e8008268f8007b98f000826800017b98f8009568801e826908017ba9000550206a0188de140700000000010000007b67d0011407e0feffff0000000050226c01569200520706287d4f7c67e8008e788267180283772001956998194929e0044929d8047b98c8049568601e4929d00450206e0137de8267d0019577c0fe50227001159200520706283c4f8268e800848700ff008e788267180283774001956998194929c0044929b8047b98a8049568401e4929b0043300b60228eddd492a4003492a3803492a3003492a2803956700308377c0040a0f01956b983195bc000382c73882c84082c93082ca28d49808d4a707d4870751070628d5678267180281775617030728d067492b6003492b5803492b5003492b4803019567c0069568e0345020720178de330720020249269001492698014926a0014926a801330b330c3304330233080c0202956900017b98f80083777b97e800956800068287d8007b97c8008287d0007b97c0008287c8007b97b8008287c0007b97b000018267b001d87b078269b801d39c08d89c09da87098267c001d87403826ac801d3a208d8a20ada830ad37407d48707da790a520a06282c0f7b6b18027b6b60067b6c10027b6c68067b6400027b647006956860067b6208027b627806330750207401cedc49265806492650064926480633072095684006492640060250207601b0dc8267f801817756173f138267f80148074033027801285d97005022780159970033007a010a07826af00133027c01282b9400826af00150227c0123940095ab0a50227e011e95007bab687bac707ba9787ba7800095672006956800355020800140dd7c6720065107880195690002829718956a00067ba78297107ba70882977ba710956800068297087ba7183307502082011cdc4926f8054926f0054926e8053307209568e0054926e0050250208401fedb8267f801817756173f138267f8014807403302860128ab960050228601a79600330088010a07826af00133028a0128799300826af00150228a0171930095ab0650228c016c94007bab88007bac90007ba998007ba7a0009567c0059568203550208e018bdc956800058287c0007b67f0018287c8007b67e0018287d0007b67d8018287d8007b67d0019567003083774005330090010a089568983128079568983101958b000382b7c0008282a80382b9b80082bab0008268d001d3870bd887088267d801d8790cdbb80c8268e001d38a03d88a0a8268f001d88208502292014b970051085a826790017b678005826798017b6788058267a0017b6790059567a005956880058269a8017b699805502094013874956800058287b800956900017b97a8008287b0007b97a0008287a8007b9798008287a0007b9790000195670002827b18827c1082620802827895bb0188b701c87c0cd4cb07887701c88707d88708c8820264742867fd5147194719680a281d6449292005492918054929100549290805956700408377a0fe330096010a0f3302980128db920050229801d7920050229a0112960051070628846482671802817756174307287f649567602950209c01696895689821958900078297d800956800027b87088297d0007b87108297c8007b8718956700408377c0fe33080433009e010a023302a001287692005022a00172920082b72882b83082b93882ba40956b982195bc00077bcac0007bc9b8007bc8b000956840297bc7a80033075020a201c9d93302a40195689821014928a007492898074928880703648933072095682029492990075020a601a0d933080c020239070c020256173f0b20030c020240019517e08479e07b69f00164913307200202837783997b6800023308407b67f8013300a8010a073302aa0128928f005022aa018e8f009569982149298007959a00077ba778826710027ba77095680029826718027ba76833075020ac012dd9956b000182b7d00095689821958900077b976082b7d8007b975882b7e0007b9750648a3307209568e02882b9e8007ba948075020ae01f5d882680002818756173f08480840019517e08477e07b6718025022b0014291003300b2010a073302b401288a90005022b4018690009567c0285020b601a9d995679821827728077b6718029567a0283308405020b80164d7956a982195ac000782cb2082c81882c91082c708d49b0bd48709d4b909989920d4b808978820d498085108062889497c6818028e88492a0007492af8067ba8e80695688028492af0067b671802330030022847d881a756172307288462956700408377a0f93308040a0295679839827820827918827a10827b0895679819956c00017bc8a8007b7840047bc9a0007b7938047bca98007b7a30049568c01d7bcb90007b7b280433075020ba01f0d73302bc0195689819014928200449281804492808040264893307209568a01d492910045020be01c7d733090c020239070c020233083fac781520030c0202407b69f0013302c001280090007b69f0015022c001f88f003307200202837783993308407b67f8013300c2010a073302c40128a88e005022c401a48e009567801d5020c601787b95689819828700047b67b0018287f8037b67b8018287f003648b7b67c8018268000295870ad88708826a08025022c8010c900082b8e8037b68c001956b98397bb7287bb93082671002c87a0a7bba38d87a0782681802c887077bb7409567601d9568c0395020ca01f3d73302cc0195689819017c87c8034928c0034928b8037b87a8039567401d4928b0035020ce01e975956c000282c89587065022d001dc8e007bb8607bba587bb9507bb7489567201d9568e0395020d201a2d79567981995790003829888007b68e801829890007b68e001829898007b68d8018297a0007b67d00195670040837700fa3300d4010a08019568983982878000828268828978828a708268d001d3870bd887088267d801d8790cdbb80c8268e001d38a03d88a0a8268e801d882085022d6016b920052080628b0188267900195699819959a00027ba7c800826798017ba7d0008267a0017ba7d8009568601c8267a8017ba7e00033075020d80102d63302da0195689819014928c0024928b8024928a8020364893307209568401c4929b0025020dc01d9d58268f001818756173f08480840019517e08477e07b67e8015022de01268e003300e0010a073302e20128968d005022e201928d007b6788019517e08477e07b67e8016471956998198267b001959a00027ba7a0008267b8017ba798008267c8017ba790009568201c8267c0017ba7880033075020e40161d53302e601956898190182678801958900027b9780008267d0017b97788267d8017b9770648a3307209568001c8269e0017ba968025020e80127d58268f001818756173f08480840019517e08477e07b67e0015022ea01748d003300ec010a07826ae0013302ee0128298d00826ae0015022ee01218d008377e0fbc867075020f001d0d5956798197c77480251070628a5239517e08478e0648182670002957a07d87a0782690802c8790bd89b09da770982671002c87909d87907826c1802c8c7077b6b78017b8b087b6a80017b8a7b6970017b89107b6768017b87189567201b7b6888015020f20169d595689819958900018297a0007b67d001829798007b67d801829790007b67e001829788007b67e8015022f401ea8f00959705d8970b826a0802c8ba09d8a90adabb0a826b1002c8ba0ad8ba0b826c1802c8cb0b7b8b187b8a107b89087b879567001b7b6860015020f601fdd48262d001956a981995ab000182b77082b86882b97882ba8000826ce001d37c0bd87c07826ce801d88c08dbb708d3a207d8a20c826ad801d89a0bdb7c0bd3a909d49707db7b08520806288628956c000282c89587045022f801c18b007bb788007bb990007bba98007bb8a0009567401a9568203a5020fa0183d4956798198278a8007b6858018278b0007b6850018278b8007b6848018277c0007b674001956798394927c0004927b8004927b0004927a80095670040837740fa3300fc010a0f01956898398287c0008282a8008289b800828ab00082684001d3870bd8870882674801d8790cdbb80c82685001d38a03d88a0a82685801d882085022fe01398f005208062869399567201733084050200002bdd1956998118292a00595980005828c9800828b900082878800d42b0ad4c708d4a808988820d4ca0a97aa20d4a80851080628de43492978054929700549296805140a00000000a079c308956800177b9a80057b6718027b6b10027b6200027b6c08025020020290d250220402478600520706289d4383870495699811492960054929580549294805209568e016492950057b6a08027b6b00025020060259d250220802748600520706286643838724956a9811492a4005492a3805492a2805169568c016492a300550200a022ad250220c0260860052070628374383a7443a084001023a094801023a0a500102956b981195bc00057bc8207bc9187bca109568a016492b08053300ba0328e8d19567983949276005492758054927500549274805956700408377e0fe33000e020a0f3302100228378a0050221002338a0082b75882b86082b95082ba48d49808d4a707d4870751070628ea5b8267180281775617030728e55b9568983949288005492878054928700549286805019567c0299568003f5020120261d295689829828740956900027b97188287387b97108287307b97088287287b979567a0293308405020140209d0956a982982a72082a81882a91082ab08502216022f8c0051070628404295679821956900028298957c00077bc8e8008298087bc8f0008298107bc8f800956880298297187ba764b77b9b183300300228eed08267180281775627a30008283e5b95670030837760053308040a0201956c983195ca000382a7e00082a8d80082a9d000d4780a889b0194ab520b0628165b82cac803826b180280b295ac04d8ac0ac8a90bd89b09daaa09c88909d88908c8870a956798114927a00449279804492790047b728804957800047b8ca8007b8bb0007b89b800647b9567601695684016956920167bbac0043300180233028e0528968c0095689811958900048297e000956a00017ba7588297d8007ba7608297d0007ba7508297c8007ba768828700057ba7a0008297f8007ba7a8008297f0007ba798008297e8007ba7b00095670030837780053308240a0201956c983182c7000482c8f80382c9f003d4780a889b0194ab520b0628465a82cae803826b180280b295ac04d8ac0ac8a90bd89b09daaa09c88909d88908c8870a956798114927200449271804492710047b720804957800047b8c287b8b307b8938647b9567e0159568c0159569a0157bba400433001a0233028e0528c18b0095689811958900048297607b67f801829758956800027b878297507b87088297487b8710829780007b67d8018297787b67e0018297707b67e8018297687b67f001956700308377a0053308440a0295689831958900048297207b6730018297187b6738018297107b6740018297087b674801956700308377c005330884000a0201956900018297a8008298b000d487078298a000829b9800d48b0bd4b70c510c062854129567600733084050201c028fcd95680007828b78828c70828a6882876050221e0289880051080628c63f492650074926480749264007140900000000a079c308956840077b695807502220027889005020220281ce956c000282c81882c70882cad47a0a502224026d8200520706287f3f8387044926380749263007492620072095682007492628077b6a08027b6b0002502026023fce502228025a8200520706284c3f83872449261807492610074926000715956800074926080750202a0214ce50222c0225840052070628213f8397443a08a801023a09b00102956a00067ba8f8007ba9f00014080000007974706d657ba8e8009568e0064926e0063300ba0328cecd9567a00633084050202e028acc956b000682b7b80082b8b00082b9a80082baa000d49707d48a09d47909989920d48707977720d4970751070628af3e9569000182979000956b00067bb78000829798007bb788008297a0007bb79000956880068297a8007bb7980064a77b6a1802502030025dcd3308208267180250203202abd0837833092033070a0c014929e0064929d8064929d0064929c80695670040837760330034020a0f01956a983995ab00065022360221890051070628865750223802bc8800ac780628815795670040837780003308040a02956a983995ab000682b7e80082b8f00082b9f80082aa0007956b983195bc00027bca607bc9587bc8509568e0337bc748330750203a02c1cc33023c0295689831014928400249283802492828020264893307209568c0334929300250203e0298cc9517e08477e07b67f801647139080c020256183f143308403d080c02023302400228ce840050224002ca8400330720020283778399330840330042020a073302440228158300502244021183009567a0335020460233cd95689831958900028297207b67f8018297187b67f0018297107b67e80182970850224802d68500959a000750224a025e8500956780339568a04050204c02f3cc956898318087f8017b67d8018287f0017b67d0018287e8017b67c8018268080295870450224e023480007bc8407bca387bc9307bc728956760339568c04050205002afcc50225202d284008297e0007b6780018297d8007b6778018297d0007b6770018297c8007b6768018268080295870550225402e57f7bc8607bca587bc9507bc748956740339568e0405020560261cc502258028484008297c0007b6760018297b8007b6758018297b0007b6750018297a8007b6748018268080295870650225a02977f7bc880007bca787bc9707bc768956720339568004150205c0212cc50225e023584008297a0007b674001829798007b673801829790007b673001829788007b6728018268080295870750226002487f7bc8a0007bca98007bc990007bc78800956700339568204150206202c0cb50226402e38300829780007b6720018297787b6718018297707b6710018297687b6708018268080295870850226602f97e7bc8c0007bcab8007bc9b0007bc7a8009567e032956840415020680271cb95689831808758017b670001828750017b67f800828748017b67f0008268080295870950226a02b27e7bc8e0007bcad8007bc9d0007bc7c8009567c0329568604150206c022acb50226e024d83008297407b67e8008297387b67e0008297307b67d8008297287b67d0008268080295870ad88708826a1002c88a09d8a90ada880a82680002c88a0ad88a08826b1802c8b808956b98417bb895b800ff7b8af8007b89f0007b87e8009567a0329568804150207002bbca956c983182c708017b67c80082670802957902502272022680007bc7e0007bcad8007bc8d00095678032956860327bc9c80050207402ca5b956b983182b700017b67b00182b7f8007b67b80182b7f0007b67c00182670802957903d87907826a1002c87a08d8a80ada770a82b7e8007b67a80182670002c87a0ad87a07826c1802c8c7077bb7a0007bba98007bb8900095674032956820327bb9880050207602605b3302780295689831018287c000956900017b9788008287b8007b9790008287b0007b9798008287a8007b97a0009567003233084050207a02b3c795699831829a8000829b7882977082986850227c0223840051070628e9398267e0017b97488267e8017b97508267f0017b97589568e0318267f8017b9760826718027b6a08027b6b000250207e029dc85022800213800052070628aa3982671802837720956898317b6af001648a4918408268c8017ba8288268d0017ba8309568c0318269d8017ba938502082025dc88267f0019577c0502284023c7c520706286439826718028377409569983149192049191849190880019568a0314919105020860227c8826818029587800150228802aa8000956c98297bc9b0077bc7a8078267b0017bc7e0078267b8017bc7d8078267c0017bc7d0078267a8017bc7c8077bcab8079567803195686031956940317bcbc00750208a02445e140900000000010000001407a0ffffff0000000050228c02a47b52070628cc38956798318274e88272f082707b60e0018277f87b67f001826c1802d8c4037b64d001826a1002d3a2087b69e801d8a2097b62d80164a7da8309826a0002826bf001c9ab08d8ab0a826b0802c9b00bc9ab0bd8980ac9ab0bc99808c97209c93909c9c40a83c760956c98297bca880795ca00077ba990007ba89800956820317baba00050208e022ac7956898298267e001958900077b97408267f0017b97388267d8017b97308267d0017b9728826788017b9760826790017b9758826798017b9750648b956700319568e0309569c030826aa0017bba480750209002475d8267e80195778050229202b47a52070628dc37956a982995ab000782b780007b67e00182b7787b67d80182b7707b67e80182b7687b67f0018267180283778000826868017bb808826870017bb810826878017bb8189568a030826980017bb920502094026fc614090000000001000000140760ffffff0000000050229602417a520706286937826718028377a000826848017b69d001956a982995a900067b98e800826850017b98f000826858017b98f80095688030826960017ba900075020980211c68267d001957740ff50229a02ef79520706281737826718028377c0008268280150229c022782007bb8c800826830017bb8d000826838017bb8d80095686030826940017bb9e00050209e02c4c514090000000001000000140720ffffff000000005022a002967952070628be36826718028377e000826808017b69d0015022a202ca81007bb8a800826810017bb8b000826818017bb8b80095684030826920017bb9c0005020a40267c58267d001957700ff5022a6024579520706286d368267180283770001956a9829492aa0068268f00095ab00067bb888008268f8007bb8900095682030826900017bb998005020a8021dc5140700000000010000007b67d0011407e0feffff000000005022aa02eb7852070628133682671802837720018268d0005022ac022381007bb8688268d8007bb8708268e0007bb878956800308269e8007bb980005020ae02c3c48267d0019577c0fe5022b002a17852070628c9357c67c8008e7882671802837740019569982949296006492958067b9848069568e02f492950065020b20283c41407a0feffff000000005022b4025f785207062887358268c800848700ff008e7882671802837760019569982949294006492938067b9828069568c02f492930065020b6023cc48262f00182601802d80203826c10028268e801d3c80ad8c809daa309826a0002826bd801c9ab07d8ab04826b0802826ae001c9ba0bc94b0bd8970ac9ab0bc9970ac9c809c93909c90207d4b909647bd4a707d49707d4a908987720978820d4870751070628ef348267180264b87b6b10025020b80220c783788169100233070a0c2875f6492a0003492af802492af002492ae80295670030837780040a0f01956b983195bc000282c7f80082b8000382c9f00082cae800d49808d4a707d4870751070628f94d8267180281775617030728f44d492b2003492b1803492b1003492b080301956760059568a0345020ba023cc48267780582687005826a6805826960057b67c8017b6738057b68c0017b6830057b6ab8017b6a280595674005956820057b69b0017b6920055020bc02b05b826740057b67f801826748057b67f001826750057b67e801826758057b67e001956700053308405020be02a5c1956800058287187b671002828a107b6a08028289087b690002828b7b6bd0018268e001956c00047bc8d8008268e8017bc8d0008268f0017bc8c8008268f8017bc8c0007bc7f8007bcaf0007bc9e8009567e0049568c0047bcbe0005020c0028f53956b000282ba088267d00182b81082b9d489095022c2026c7b5108062879338268b0017b68a0048268b8017b68a8048268c0017b68b0049568a0048269c8017b69b8045020c40235c2956a000182a7c8007b67780482a7c0007b67700482a7b8007b676804956780049568600482a9b0007b6960045020c602a75a956b000482b7800082b8980082b9880082ba90009572e0d87207c8790b95bbffd39b0cd89b09dac70995a7ffc87909d8790788aa01c9a808c88707d49208d4b707d47808988820d49707977720d4870751070628c73282691002826b0802d49b071408e0ffffff00000000826cd001d88c08826a000294a89478520806289d3264c764ac649a957920d87907c87c087b68e801d8c808da77088267180281777b671802c8b808956c00017bc8e000d8b807c8a7077bc7f0007bc9d800649764287b6210025020c80294c4837781681002826918020a01330c330b492618023303018267b001d87c078269b801d39b08d89b09da87098264c00182671802d84702826ac801d3a308d8a30ada820ad34707d48707da790a520a0628f22e956780038268d0017b6c10027b6b08027b6300025020ca0293bf826000028264080282631002956b000382b7880082b8980082b9800082ba9000d3740bd87407d89309dbb709826c1802d8ac07d3800bd88008dab708d3ac07d4b707da790852080628cd318262180298273b970805d487077b67f80198373b974905d479099737058268d801c88707d8870a8268e801c88909c8a909d3890bd8890cdaba0c984a3b972b05d4ba0a8268e001c88a0ad88a028268f001826bf801c8b808c82808c8ac0cd8ac0ac8a808d49808d4c709d48909d4c808989920978820d49808510806281d317b6320037b642803826818027b683003956820037b6038035020cc02e5bf8263000295690002829b08829c1095cc0188c701c87b0bd4bc07887701829818c88707d88708c883037b97182897fe9567202f3308405020ce026fbe956a982982a2a00595a80005828c9800828b900082878800d42b09d4c708d49808988820d4c909979920d4980851080628903064a9492a7805492a7005492a6805140a00000000a079c3089568002f7b9a80057b6718027b6b10027b6200027b6c08025020d00240bf5022d202f772520706284e305022d402ea79492960054929580549294805209568e02e492950057b6a08027b6b00025020d6020bbf5022d80226735207062819305022da02a979492a4005492a3805492a28050e9568c02e492a30055020dc02debe5022de02147352070628ec2f83a7443a080000023a09080002956b98297bb82005492b10057bb918059568a02e492b08053300ba0328a3be956760253308405020e0025fbd956b982182b2e00395b80003828cd800828ad0008287c800d42a09d4c708d49808988820d4c909979920d4980851080628802f492bb803492bb003492ba8037b6a1002140a00000000a079c308956840257bbac0037b6718027b6208027b6c00025020e20232be956c000282c81882c70882cad47a0a5022e4021e7252070628312f5022e60296764929a00349299803492988032095682025492990037b6a08027b6b00025020e802eebd5022ea02097252070628fc2e5022ec028078492a8003492a7803492a68030f95680025492a70035020ee02c1bd5022f002f77152070628cf2e83a7443a080000023a09900002956b98217bb86003492b50037bb958039568e024492b48033300ba032886bd9567001d3308405020f20242bc956998198292800395980003828c78828b70828768d42b0ad4c708d4a808988820d4ca0a97aa20d4a80851080628662e492958034929500349294803140a00000000a079c3089568e01c7b9a60037b6718027b6b10027b6200027b6c08025020f40218bd5022f602cf7052070628262e5022f8022879492940034929380349292803209568c01c492930037b6a08027b6b00025020fa02e3bc5022fc02fe7052070628f12d838724956a9819492a2003492a1803492a0803109568a01c492a10035020fe02b5bc50220003eb7052070628c32d83a7443a08e800023a09f00002956b98197bb80003492bf0027bb9f80233080020285d06956900017b9c207b9b2895689831958a000482a7407b97c80082a7387b97c00082a7307b97b80082a7287b97d000956700308377e0053308640a0201956a983195ab000482b76082b85882b94882ba508e7b8e8cdb7b0c8eab889902859901dbab09d48707db7c0952090e0c9567ff0795770133084050200203cfba95670010827b18f895670010827c10f895670010827a08f895670010827700f850220403b97551080628f72c4926f0074926e8074926e007140900000000a079c3089568e0077b69f80750220603a97650200803b3bb956c000282c81882c70882cad47a0a50220a039f6f52070628b22c8387044926d8074926d0074926c007209568c0074926c8077b6a08027b6b000250200c0372bb50220e038d6f52070628802c8387244926b8074926b0074926a0071c9568a0074926a8075020100348bb50221203597152070628562c8397443a089001023a099801023a0aa00102956b00077bb898007bb990007bba880014090000000073746e61956880077bb980003300ba0328feba8267580182681802d8780482684001826c0802d38c0ad88c09daa40982624801826a0002c92a03d82a0a82605001826b1002c90b0bc9ab0bd8930ac9ab0b7b6b1002c99303c98c09c94909826b1802c97b0b956a982995ac00017bc7687bcb487bc8707ba278017bc9507ba080017ba358019567002b9568e02a826910027bc960502014038b4b9567c02a3308405020160333b9956998298292400195980001828c38828b30828728d42b0ad4c708d4a808988820d4ca0a97aa20d4a80851080628572b9578207b681002d87803c83b087b681802d8b808da3308c8c8087b680002d8c808c828087b6808024929200149291801492910019568a02a49290801207b67b0017b6ba0017b6298017b6c900150201803eab99567802a8268580150201a03a2b850221c036b7351080628ea2a956c982982cb000182c8f80082c9f00082cae8007b6ab8017bcac8007b69c0017bc9d0007b68c8017bc8d8009568602a7b6bd0017bcbe00050201e0392b93302330b33003304956a000182a8b000958740956c00027bc710d8870782a9a000c879087bc808d89808da770882a79000c878087bc8d8780782a89800c887077bc71882a86882636001018267b801d872078269c001d39b0a7b6bf801d89b09daa709826cc801d8c007826ad001d3a40bd8a40adab70ad3c007d4b707da790a520a0628c029d4380782697001826a7801d4a909d49707987720d43909979920d4970751070628032a7b60e0017b64e8017b62f0017b6360019567402a7b6868015020200391b795680002828c10828ad4ac0782891882620802d49208d48707987720d4a808978820d4870751070628ba29956798297b6918027b6a0002647a8277b80082a8b00082a9a800826ba801d2b707330bffd2b808d2b909492aa0007ba988007ba890009568202a7ba7980064c77b6c10027b6208025020220352b8826810029587207b67d801d8870982670802c89703d8730ada990a82670002c8a709d8790a82671802c8a7077b67180282676801957a20d87a0b82677801c8b70cd87c07dabb0782686001c88707d8870b82687001c8b8087b6870018262f001952201882b018264f801c8b404d4420b88bb018268e001c88b0bd88b088260e801c880008268d8017b6810027b6308027b69000264a87b6c7801647364b7644b640464702867fe956900017b98a00082a700057b97880082a7f8047b97900082a7f0047b979800502224032673959709d8970c826b0802c8cb09d8b90adacc0a50222603a671837760fec867077b681802502028034db895679829957800048289e000828ad800828bd000828cc800d49b07d4ac08d487075207ae089567002d33084050202a03efb5956998298292800395980003828c78828b70828768d42b0ad4c708d4a808988820d4ca0a97aa20d4a808510806281328492958034929500349294803140a00000000a079c3089568e02c7b9a60037b6718027b6b10027b6200027b6c080250202c03c5b650222e037c6a52070628d327502230036f71492940034929380349292803209568c02c492930037b6a08027b6b00025020320390b650223403ab6a520706289e27502236032e71492a2003492a1803492a0803119568a02c492a10035020380363b650223a03996a52070628712783a7443a084000023a09480002956b98297bb800037bb9f8021408000000000000006d7bb8f0023308003001838880fcc86808492be8023300ba032816b67b68a80182a740037b67a00182a738037b6798018268e801958707d88708826bf001c88b0964acd8b90ada880a82c830037b689001956b983995bc00037bc7487bc9508267f801c87a0a7bca58d87a0782680002c887077bc7609567a0249568e03c50203c03a3b6956a982195ab000350223e035d7152074b098267a801847700ff9568983982699001958a00037ba9707ba768826798017ba7788267a0017ba780009568003d8267080250204003d2b69517e08478e064818269e801959709d8970b826af001c8ba09d8a90adabb0a826bf801c8ba0ad8ba0c826b0002c8cb0b7b8b187b8a107b89087b879567e0237b68e8015020420311b695679821957c000282cb6082ca5882c95082c8487b6900027b6bf001d4b9077b6808027b6af801d4a808d4870752070628b63f956798394927a0034927980349279003492788039568203d8267e8015020440334b60a09826810026f898268d8016f88988820979a20d48a0a826818026f8b330820020398992097bc20d4c9093e092802033e0a20020398bb203d0b300203956a9839956c000182c9f00095ab00037bb9c00082c9f8007bb9b800826900027bb9b000826908027bb9a8008e77fc089a797ba900047bb9f8007bb9f0007bb9e800482ac803978820988820977723d487079568403d9788209888209569803d979920d4890a82cbe00097bb2098bb209568603d978820d4b80c3308ff3309ff0a7b6718029567c0235020460375568267180252070628be3e9567a02333084050204803adb2956998218292200295980002828c18828b10828708d42b0ad4c708d4a808988820d4ca0a97aa20d4a80851080628d1244929f8014929f0014929e801140a00000000a079c308956880237b9a00027b6718027b6b10027b6200027b6c080250204a0383b350224c033a6752070628912450224e03f66b4929e0014929d8014929c80120956860234929d0017b6a08027b6b0002502050034eb3502252036967520706285c2450225403e06d492ac001492ab801492aa8010d95684023492ab0015020560321b3502258033269520706282f248397443a08b00002956a9821492a90017ba8a001140800000064656c69617ba8980195682023492a88013300ba0328e1b29567802733084050205a039db1956998218292000695980005828cf800828bf0008287e800d42b0ad4c708d4a808988820d4ca0a97aa20d4a80851080628be234929d8054929d0054929c805140a00000000a079c308956860277b9ae0057b6718027b6b10027b6200027b6c080250205c0370b250225e032766520706287e2350226003e36a4929c0054929b8054929a80520956840274929b0057b6a08027b6b0002502062033bb2956a000282a81882a79577dcd8780782a910949782a9089497520706283623838724956998214929a005492998054929880525956820274929900550206403fab195670002827a08827b10827818140900000000010000001407bcffffff00000000d8780794b794a752070628e6228387443a086000027b690002956c982195cb00057bb880003a086800023a097000023a0a7800027bb8787bb970956800277bba685020660392b1956a000282a91882a795779cd8790782a810948782a8089487520706288d22839764956a9821492a5805492a50051408000000676e6977617ba860059568e026492a48055020680348b1330884008267180250206a0395b48378330701330984000a0c019567c01b33084050206c03e7af956998198292400295980002828c38828b30828728d42b0ad4c708d4a808988820d4ca0a97aa20d4a808510806280b22492918024929100249290802140a00000000a079c3089568a01b7b9a20027b6718027b6b10027b6200027b6c080250206e03bdb050227003746452070628cb2150227203cd6c492900024929f8014929e801209568801b4929f0017b6a08027b6b00025020740388b0502276037a6a520706289621838724956998194929e0014929d8014929c8011a9568601b4929d001502078035ab050227a03906452070628682183a7443a08f800023a090001023a0a080102956b981995bc00017bc8c0007bc9b8007bcab0001409000000000000656c9568401b7bc9a8003300ba03280cb0956a000182a7d00082a8c000d4870782a8c80082a9b800d49808d487075207cf059567ff079577a10033084050207c03a3ae95670010827bb8f895670010827cb0f895670010827aa8f8956700108277a0f850227e038d6951080628cb2095680010492890f895680010492888f895680010492880f8140900000000a079c3089568ff0795888100956200107b2998f850228003696a5020820373af956c000282c81882c70882cad47a0a502284035f6352070628722083870495680010492878f895680010492870f895690010492960f8209568ff0795886195690010492968f87b6a08027b6b0002502086031faf502288033a63520706282d2083872495680010492858f895680010492850f895690010492940f8199568ff0795884195690010492948f850208a03e2ae50228c03f36452070628f01f8397443a087801023a098001023a0a880102956b00107bb838f8956800107b8930f8956800107b8a28f8140900000000000000659568ff07958821956a00107ba920f83300ba032889ae95679839492740064927380649273006492728069568c03f826718027b6918027b6a10027b6b08027b6c000250208e03c4af8268a0018487ff00ff9568983982698801958a00067ba960826990017ba958826998017ba9507ba7489568e03f8267a801502090038daf0a098268f8016f89979820826af0016faa98aa20d48a0a8268e8016f8b330820020397bc20989920d4c9093e092802033e0a20020398bb203d0b3002038e77fc089a79956a983995ab00067bb9c0007bb9b8007bb9b0007bb9a800956c000282c9187bb9800082c9107bb97882c9087bb97082c97bb968482a8806978820988820977723d487079568004097882098882095694040979920d4890a826bd80197bb2098bb2095682040978820d4b80c3308ff3309ff0a7b67d8019567402e50209203d64f9567202e3308405020940318ac9569982995970004827aa000827c9800827b9000829288048267d801510706283d12d4c207d4ab08d48707987720d4c808978820d48707510706282f1e956a000282a7959800037b87e80082a7087b87f00082a7107b87f8009568802d82a7187b97000464277b62a80150209603e2ac8267e001956b982995bc00037bc7a0008267f0017bc798008267f8017bc790008267e8017bc788008267b8017bc7c0008267c0017bc7b8008267c8017bc7b0003a072000023a082800023a09300002826ad0017bcaa8007bc7e0007bc8d8007bc9d00064bc3a073800023308209569602d956a402d956b202d7bc7c8038267a80150209803c3ae2884379567802433084050209a0311ab956a982182a2000395a80002828cf800828bf0008287e800d42b09d4c708d49808988820d4c909979920d4980851080628321d64a9492ad802492ad002492ac802140a00000000a079c308956860247b9ae0027b6718027b6b10027b6200027b6c080250209c03e2ab50229e03995f52070628f01c5022a00355644929c0024929b8024929a80220956840244929b0027b6a08027b6b00025020a203adab5022a4039f6552070628bb1c838724956998214929a00249299802492988021f95682024492990025020a6037fab5022a803b55f520706288d1c83a7443a08980002956b982195bc00027bc880003a08a000023a09a800023a0a8800027bc8787bc970956800247bca683300ba032839ab9567e01a3308405020aa03f5a9956998198292600195980001828c58828b50828748d42b0ad4c708d4a808988820d4ca0a97aa20d4a80851080628191c492938014929300149292801140a00000000a079c3089568c01a7b9a40017b6718027b6b10027b6200027b6c08025020ac03cbaa5022ae03825e52070628d91b5022b003db66492920014929180149290801209568a01a492910017b6a08027b6b00025020b20396aa5022b403b15e52070628a41b838724956a9819492a0001492af800492ae8000e9568801a492af0005020b60368aa5022b8039e5e52070628761b83a7443a081001023a09180102956b98197bb8e000492bd0007bb9d8009568601a492bc8005020ba0331aa3308648267180233003e04287bad95689831492880044928780449287004492868040195678015956800365020bc03f2aa956b981182b7000495bc000382c8f80082c9f00082cae8007b6700017bc7c0007b68f8007bc8b8007b69f0007bc9b00095676015956840157b6ae8007bcaa8005020be030743956a981195ab000382b7c80082b8d00082b9d80082bae000956b9831492ba004492b9804492b9004492b88040195bc00047bcac0007bc9b8007bc8b0007bc7a80095672036956840365020c003d5aa3307100e8268d001d67808826ab801ca7a09c898087b689001d89808d67a09c89808826ac001ca7a09c889097b69b801d88908d67a09826bc801ca7b0ac89a0ac88a0c7b6cc00194c8d89a09d67b0a8eaad4a909d49808510806285b348268d0019687100e7b67d00195670030837760060a0895699831959b000482bac80082b7d00082b8d80082b9e000956b9811826cc0017bbc6003826cb8017bbc5803826c90017bbc5003826cd0017bbc480395bc00037bc980007bc8787bc77095672015956800159569e0147bca685020c2036b4295689811958900038297a0007b67c800829798007b67d000829790007b67d800829788007b67e0009567c0145020c403744c95689811958900038297407b6780018297387b6778018297307b6770018297287b6718019567a0143308405020c603fca695689811828a20037b6ad001828918037b69c801828b10037b6bc001828c08037b6cb8014928e0024928d8024928d0024928c802207b8a00037b89f8027b8bf002648995678014956860147b9ce8025020c803f238956b000182b7b80082b8d00082b9c000d4890982bac8005022ca03cb6051080628d818956998114929c0024929b8024929b002956840144929a8025020cc03a0a7826718028179330720020283777b67b80033080a01956720143308405020ce0344a6956c981182c2a00282cb980282ca900282c388028e278eb8db27088ea7883980fe8599017b6a9001dba709d42b077b67c000db780951090628223364c495378001d8370882699001c8890cd89c0ada880ac8ba0ad8ba087b6b08017b621001c88202954800027b87687b8c707b8a78330740956800147b4280027b6388015020d003faa6956c000182c9880082ca08d4a90782c8900082cb10d4b808d48707987720d4a808978820d4870751070628e7178267e800956a981195ab00027bb7488267f0007bb7508267f8007bb7589568e013826700017bb76064975020d2039da682688801140a00000000010000001407e0ffffff00000000d878078269900194978269c0009497520706288a17838720956b98118268180195bc00027bc828826870017bc830826878017bc8389568c013826980017bc9407b6778017b6a80015020d40337a6826718028077956898114928c0014928b8014928b001958900017b97a8008267a0017b97e0008267a8017b97d800826798017b97d0008267b0017b97c800826758017b870002826760017b97f800826750017b97f000648c9567a0139568801395696013956a4013826b68017bcbe8015020d6030e4195690001829b8800829780009577c0d87b078298900094878268c000948752070628b716956c981182c2200295c70002827818827910827a0883b74095cb00017bba88007bb990007bb89800956820137bc2a0017b6780015020d80363a582671802807795689811492820014928180149281001958900017b97088267d8017b97408267e0017b97388267e8017b97308267f0017b97288267f8017b9760826700027b9758826708027b9750648c956700139568e0129569c012956aa012826b10027bcb48015020da034240826c8801140900000000010000001407a0ffffff00000000d87c078268900194878268c000948752070628e215956b981182b2800195b700018278787b691802827970827a6883c7607bbae8007bb9f0007bb8f800956880127bb200017b6718015020dc038ea48268880182671802957780d878078269900194978269c00094975207062888158389800082674801956a98117ba7c800826740017ba7d000826738017ba7d80095686012826730017ba7e0007b69100164975020de0336a495670030837780063308640a0201826c8801140700000000010000007b671802140760ffffff00000000d87c078268900194878268c0009487520706281115956a983182a2e80482a8f00482a9f80482aa000583c7a000956b98117bbac0007bb9b8007bb8b000956840127bb2a8007b6708015020e003bda382671802957740ff5022e203b15952070628c31482678801837ac0008267e000956998117b9788008267d8007b9790008267d0007b979800956820128267c8007b97a0007b6ab00064a75020e4036da3140700000000010000007b671802140720ffffff000000005022e6035159520706286314826788018379e000956798118268b8017b78688268c0017b78708268c8017b787895680012826ad0017b7a80007b69a80064975020e80310a382671802957700ff5022ea0304595207062816148267880183770001956998114919604919584919509568e0114919487b67a0005020ec03d6a29567983149272005492718054927100549270805956700308377a0063300ee030a0f01140700000000010000007b6718021407e0feffff000000005022f003975852070628a913956a983195a70005827b08827810827918827a208267880183772001956c98117bca407bc9387bc8309568c0117bcb287b6798005020f20355a2826718029577c0fe5022f4034958520706285b138267880183774001956998114919204919184919109568a011491908017b67705020f6031ba21407a0feffff000000005022f8030d58520706281f1382678801837760019569981149094919f84919f0956880114919e87b67505020fa03e1a1826700019569ff0795999101959a00077ba7e8008267f8007ba7e0008267f0007ba7d800956860118267e8007ba7d00033075020fc03a9a19568ff07958891014928c8074928c0074928b007026489330720956840114929b8075020fe0381a19517e08477e07b671802647133070c02027b675839070c020256173f0b826858480840019517e08477e07b671002647183793308408267b8000a07826a100282a71882a81082a90882aa6f7b7b6b80006f887b6888006f997b69c0006fa77b679000826a18027ba7187ba9107ba8087bab956720118268880150200004c89f956aff0795aa910195ab000782b7a80082b8a00082b9980082ba9000956b983195bc00057bc7407bc8387bc9307bca289568c03682671802502002042ea29567001182687801502004047c9f9567ff0795779101827870077b681802827878077b681002807880077b6808029517e08472e064218267800095770188780182698800c8890cd4c709889901826ac000c8a909d8a90a826b9000c8ba0a64287b620002642b7bba187bb9107bbc087bb79567e010502006043ba19568ff0795889101808764079777208288680782690802d4970795699831826a1002959b00057bba50826a18027bba487bb8607bb7589568e03682670002502008046fa19517e08479e0649182678000957a0250220a04e15bc87808d87807826c9000c8c707956c00027bc7087b97187bc87b98107bcb107b9b087b69607bca187b9a9567c0108268800150200c047e9e9568ff0795889101958b000782b94882ba4082b73882b830956b00017bb788007bb98000d497077bb89000d4a808d478089888207bba78d4a707977720d48707510706288c109567a0108268900150200e042a9e9567ff0795779101957b000782ba2882b82082b9188ea78e8bdba70b956c00017bc9f8008e977b68687bcaf000d4a8087bc7d0007bcbd8007bc8e800db8b0751070628842b9567ff0795779101827710077b67789567801082686050201004f59f956bff0795bb910195bc000682c9f00082c7f80082b8000782ba08077bcac8007bc8c0007bc7b80095676010956840107bc9b000502012040a2f9567ff079577910195780006828ae800828be000828cd8008289d0008ea78eb8dba7088ec77b6970018899208599017b6cb801dbc709956c00017bcac0007bcbc800d4ab07db78098267788877207bc7e0005109b4019569ff0795999101956a000282a718959b00067bb7900082a7107bb7980082a77bb7a0009568201082a7087bb7a8003307502014043c9e3308203307502016048ca19518e08488e07b6848502218040f580a0782687895871fd88708826bf801c88b09d8b904da8804826868c8840497483b989a05d4a808826a4882a21897993b82ac10987705d479096f226fcc826ae00194ba8267e801947a94a894a9c829077b6740d89709c89c03c883037b6338d3830bd88303dab9038267700195701fd8700b8267b801c8b708d87809dabb098267c801c87909979b3b988705d4b70797883b980b05d4b808c88200d82008c88c0bc87b02d3c20bd8c20cdab80c826768d874088267f001c88707984b0597783bd4b808826b4882b40882bb98770594a794a86fba6f44c8480bd88b08c8a707c87808c83b07d8b703c883038268c801d88908826bc001c8b808989905978b3bd4b909988805c8a808c84909d8490ac8a808c89c0cd89c09c898089569ff07959991017b905006826a40959b00067bba707b925806826a387bba787bbc607bb780007bb868956700109568ff079588e1077b93880633001a043302fa05280959956c000182c7e00085770182caf80082c8d000dba80782c8d80082c9e800db980782cbf000d4ba087b684882686898893f7b693897b9017b693098a93f7b69209788017b681082687898893f7b692897a9017b69189788017b6840520706281c0e8267788477e07b6770019567ff079577910182681802957a00067ba810826810027ba818826800027ba8209568ff079588a107826908027ba928330750201c04209c9517e08477e07b67f0016471330820330750201e04649f9518e08488e07b68e80150222004e655330022040a073302240428025750222404ff5650222604375364728268f0017b87187b60d0017b80107b84087b837b62e801502228047451510b06289b0d826b1802d8b80bc8b000d3a0027b6ab801d8a00cda2b0cc89c0cd89c02826a1002d8a909c89707c8270750222a0410565207a20c9567ff079577810150202c043f9a9568ff0795889101828708828895690010829988f9956a001082aa80f9956b983195bc00057bc780007bc8787bc9707bca68956800378267f00150202e04a39c50223004e54f82620002c8c2027b620002826cf0017bc4087bc37bc01064727bc7187b60d0018267e8017b671802826cc8017b6a1002648a7b62e8013302280428a650d4c207d4ab08d48707987720d4c808978820d487075207f80b492978044929700449296804140700000000a079c3089568002e7b97800464277b62a8017b6ba0017b6c10027b6a180250203204a79a8268a80182671802826a1002d47a0a140b00000000010000001407fcffffff00000000d878078269a001949794a75107900b502234042b55492960044929580449294804209568e02d492950047b6a18027b6b1002502036044c9a826a18028269a0018268a801826710029577dcd87807949794a75107490b50223804d854492a4004492a3804492a2804159568c02d492a300450203a040d9a826aa8011407bcffffff00000000d87a078268a00194878268180294875107070b83a7443a081000023a09180002956b982995ba00047ba8207ba918140800000064656c69617ba8109568a02d492b080450203c04b6993308648267a80150203e04049d83783307013309640a0c0195690001829ad8008ea7829cd0008ec8dac708d4ca07829be0008eb9db78095109062852268267e801957701887801c88b02d42709889901c8a909d8a90ac8ca0a956b98397bb7c8007bb2d0007bb9d8007bbae0009568603a8267880150204004a59a9517e08477e07b6758016471956798198268d0017b78408268d8017b78388268e0017b78308268e8017b7828826868017b7860826870017b7858826878017b7850647b9567001a9568e0199569c019826a80017bba48502042047d39956898198287a0007b67e001828798007b67d801828790007b67d001828788007b67e801828778828c8000828968828a70826858017b87107b8c187b897b8a089567a019502044048799956798198278187b6870018278207b6868018278087b6850018277107b674801826ce80198c73d8269d001979803d4870798983d826ad80197a903d4980898a93d826ae00197aa03d4a90997cc037b6cd0018e7a88cb000185bb01db7a0b8e978e8adb970ad49808db8a0b7b6b780183c9807b6940018267c0018268c8015020460499547b6738017b68e0018267e8018a79037b69d8018267b8018268b0015020480478547b67e8017b6830018268d0018d8980007b6928018267c0018268c80150204a0430548269e801d479098267d001887b80007b6b8001826a3801daba09826ab801da7a097b69e80182693001d498088269e001dab9088269b001da79087b68e0018267c0018268c8018269d80150204c04065464898268800193879389826a78018268e00194a87b68e0018268e80194a87b68e80194a97b69380194a77b6730011407ffffffff000000007b67200133088269d80150204e04be537b6710017b6818013307ff3308ff826928015020500480537b68280182681001d487077b6710013307ff3308ff8269400150205204875382698001826a1001db9a07826bd001826a2001daba077b67400182671801826a2801d4a707da980793b77b67d0013307ff3308ff8269d80150205404495382698001939793988269d0018599ff826a400185aaff8588ff8577ff826b780194baff94b9ff94b7ff94b8ff826b4801d2b808826b5001d2b707826b6801d2b909826b7001d2ba0a826be801d4ba0a826be001d4b909826b3001d4b707826b3801d4b808956b98397bb8f0007bb7e8007bb900017bbaf8009568803a8267580150205604a5978267a801956898197b878267a0017b87f8826798017b87f0648995688019826790017b97e83307502058040e96956998114929e0074929d8074929c80703330720956860194929d00750205a04ec958268f001818756173f08480840019517e08477e07b67e80150225c04394e33005e040a073302600428aa4d50226004a74d7b6780019517e08477e07b67e8016471956998118267b001959a00077ba7c0008267b8017ba7b8008267c8017ba7b000956840198267c0017ba7a80033075020620477959568981182678001958900077b97a0008267d0017b9798008267d8017b979000648a330720956820198269e0017ba988075020640440958268f001818756173f08480840019517e08477e07b67f001502266048d4d330068040a07826af00133026a0428434d826af00150226a043c4d837700f9c8670750206c04ec95956a981195ab000782b76882b87082b9800082ba78847700ff867701956b983995bc00017bc9207bca187bc8107bc7089568a03a8267e80150206e0426969517e0847ce064c182680002958709d88708826a080250227004734d82681002c88a0ad88a08826b1802c8b8087b6cf0017bc8187bca107bc9087bc79567983949274001492738014927300149272801956700408377c0fa0a0f95679839957900018298287b6818028298307b6810028298387b6808028297407b6700029567e0188268f001502072042295956b981182ba480782b7500782b8580782b96007826c00027bbc0007826c08027bbcf806826c10027bbcf006826c18027bbce80695bc00077bc9207bc8187bc7109567c0189568a018956980187bca0850207404ac2d956a981195ab000782b74082b83882b93082ba28956b983995bc00017bc7607bc8587bc9507bca489568e03a8267f001502076040e95956760188268880150207804889495689811958900068297e000956800027b87088297d8007b87188297d0007b878297c8007b87109567401833084050207a042892956a981195ac000682c7c00082c8b80082c9b00082cba80050227c04464e52075b048267100295a900067b978800826700027b979000826718027b97980095682018826708027b97a00064b77b6bf00150207e040c938267b00195689811958900067b97408267b8017b97388267c8017b97308267c0017b97288267a8017b97608267a0017b9758826798017b9750648b3a072001023a082801023a093001023a0a38010295bc00067bc780007bc8787bc9707bca6864bc33082095690018956ae017956bc017826790017bc748068267f00150208004f1949567a01782686001502082046d93956a981195ab000682b72082b81082b90882ba18956c000282cb08d3b70782cbd3b808d4870782c818d3a80882ca10d3a909d49808d4870752073995689811956a000182a79000958900057b97e80082a798007b97f00082a7a0007b97f8009567801782a9a8007b890006502084046f3733078268f80133090a0c330820020228961b9567400433084050208604b1908262580495680004828c50828a48828740d42a09d4c708d49808988820d4c909979920d498085208dc029578207b681002d8780bc8ba087b681802d8a808dabb08c8c8087b680002d8c808c828087b6808024926380449263004492628049568200449262004207b6790017b6a88017b6280017b6c7801502088046e91956700048268d00150208a04269050228c04ef4a52087102956c000482cb1882c81082c90882ca7b6a9801956c00037bcae0007b69a0017bc9e8007b68a8017bc8f0009568e0037b6bb0017bcbf80050208e0419913300330c33043303956a000182a89000958740956b00027bb710d8870782a98800c879087bb808d89808da770882a778c878087bb8d8780782a88000c887077bb7188262d8010182679801d870078269a001d39c08d89c09da8709826ba801d8b407826ab001d3a308d8a30ada870ad3b407d48707da790a510ab901956b000182bae000d4a20782b8f00082b9e800d49808d48707987720d4a808978820d4870752078f017b64c0017b63c8017b6cd0017b60f8019567c00364287b62d801502090041a8f95680002828710828bd4b709828a18828c08d4ac08d48909989920d4b808978820d49808520847018262d8038268d0038269c8037b6a1802826ac0037b6aa0037b69a8037b68b0039568a0037b62b8037b6710027b6c08027b6b000250209204f28f826810029587207b67b801d8870982670802c89702d8720ada990a82670002c8a704d8740a82671802c8a7077b6718028267d801957a20d87a0b8267e801c8b709d87907dabb078268e001c88707d8870b8268f001c8b8087b68f0018260f801950001880b01826cd001c8bc0cd4c00b88bb018268c001c88b0bd88b088263c801c883038268b8017b6810027b6208027b64000264a27b69e8017b67e00164b42880fe8267b00182641002d87402826ca00182680802d3c80ad8c809daa209826a9001826b0002c9ab00d8ab03826b980101826a1802c9ba0bc93b0bd8900ac9ab0ac9900bc9c809c92909c97408d4a909d4b80ad49a0ad4b90998aa20979920d4a909520906281e1a008267900182641002d87402826c880182680802d3c80ad8c809daa209826a7801826b0002c9ab00d8ab03826b8001289a492670034926680349266003140700000000717b484e956860037b677803330750209404928e49265803492650034926400332330704956840034926480350209604748e39080c020256183f1120030c020240330820020228083308200202018388330701330924330098040a0c01826778826868d48707826848d48707520725014926c8014926c0014926d0014926d801285d018263100282621802826b78826c7001d3cb0b826c68d4cb0b826c48d4cb0b510bb00064a4d8280bc8b00ad34a02d84a0cda2b0c50229a041247520701ff9567ff079577810750209c049e8c9567ff0795779101827808067b681002827800067b6808028278f8057b6800028277f0057b67f80182677850229e0413495020a004294a7b67e8017b68d0013307ff3308ff826918025020a204eb495022a404f6465020a604df495022a804a84295bc00057bcaa0007bc998007bc890007bc78800956820378267f0015020aa04bf8e826738826830d48707826820826910d49808826928826a18d4a909826a4095aa01956b983195bc00057bcaa8007bc9b0007bc8b8007bc7c000330740372847015022ac04ed45510826fe826790018378209567ff079577c1075020ae04bc8b9567ff079577910195790006829848956a00017ba8d8008298407ba8d0008298387ba8c0008297307ba7c80001826720826810d487077b671002826738826830d487077b670802826728826818d487077b6700028268789788037b6818028d8980003307ff3308ff5020b00410497b67e0017b68f8018267788a79033307ff3308ff5020b204d0487b67f0017b68e8018268e001d487077b67e001826718028379803307ff3308ff5020b404aa48826b180288b98000826ae001db9a07826ce801826af8015022b6040948826bf001939b8268c001e0a8088269c801e079078269d001e0b909826ad801e0ca0a826b40d4b707956c000282cbd4b80882cb08d4ba0a82cb10d4b909956b983195bc00057bc9d8007bcae0007bc8d0007bc7c8003307603701c876088267605020b8042f8d9517e08479e0649182678000957a035022ba04a147c8870cd87c0782689000c88707956800027b8c7b9c107b8b107b9b087b8a187b9a7b69787b87087b97189567ff0795776107826818015020bc043a8a9567ff0795779101957c000582cae80082cbe00082c9d80082c8d000956c00017bc988007bca8000d4a9077bc89000d4b808d478089888207bcb78d4b707977720d48707520747fc9567ff0795774107826890015020be04e0899567ff0795779101957b000582bac80082b9c00082b8b8008ea78e9bdba70b7b68608e877b69687b6a48d4a909956800017b87e0007b8be8007b89f800db9b07510706281e189567ff07957791018277b0057b6718019567ff07957721078268785020c004a58b956bff0795bb910195bc000582c9900082c7980082c8a00082caa8007bca687bc8607bc7589567ff07957701079568ff079588e1067bc9505020c204b61a9567ff079577910195780005828a8800828b8000828c788289708ea78eb8dba7088ec77b69c0018899208599017b6cc801dbc709956c00017bcad0007bcbd800d4ab07db780982c7188877207bc7f0005109cb019569ff0795999101956a000282a718959b00057bb73082a7107bb73882a77bb7409568ff079588c10682a7087bb74833075020c404ea8933082033075020c6043a8d9518e08488e07b68b8015022c804bc430a078268180195871fd88708826b60c88b09d8b904da8804826868c848087b683897883b989a05d48a03826ab80182a81897993b82aa10987705d497076f846fac826af00194ba8268f801948a94a394a7c847077b677001d84708c88c07c837077b6740d3c709d8c700da98008267c00195721fd872078268c801c8780bd88b09da77098263d801c8930397373b98b805d4870797bb3b982805d4b808c848087b68c801d8480bc8bc02c87202d3c207d8c20cda7b0c826838826768d87807826b48c87b0b98840597b73bd474078268b801828482880898bb0594a794ab6f8a6f48c88b0bc8a707d8a709c8b909c87000d87004c894048267d801d873078269d001c89707983905977b3bd4b909987705c88707c8a909d8a908c88707c89c0cd89c08c887079568ff07958891018269c8017b89f00482697001958a00057ba9107b82f8048269407ba9187bac7b8020057ba70864899567ff079577a1069568ff07958881067b9428053300ca043302fa0528a044956b000182b7f00085770182686082b9e000db890782b9e80082baf800dba907826948d498087b684051076d01826718018477e07b6770019567ff079577910182681802957a00047ba8b000826810027ba8b800826800027ba8c0009568ff0795884106826908027ba9c80033075020cc04e6879517e08477e07b67f001647133082033075020ce042a8b9518e08488e07b68e8015022d004ac413300d2040a073302d40428c8425022d404c5425022d604fd3e64728268f0017b87187b60d0017b80107b84087b837b62e8015022d8043a3d520bea00826b1802d8b80bc8b000d3a0027b6ab801d8a00cda2b0cc89c0cd89c02826a1002d8a909c89707c827075022da04d84152076af89567ff079577e1015020dc040786956aff0795aa910182a76882a86082a95882aa50956b98317bb7000695b700057b78f8007b79f0007b7ae800956880378267f0015020de0471885022e004b33b82620002c8c2027b620002826cf0017bc4087bc37bc01064727bc7187b60d0018267e8017b671802826cc8017b6a1002648a7b62e8013302d80428743c82671801826868d48707826840d4870752073001492600024926f80149260802492610022868018263100282621802826b1801826c7001d3cb0b826c68d4cb0b826c40d4cb0b510bb10064a4d8280bc8b00ad34a02d84a0cda2b0c5022e2048b3f52077af79567ff07957721065020e40417859567ff0795779101957900048298a8007b6810028298a0007b680802829898007b680002829790007b67f801826718015022e60487415020e8049d427b67e8017b68d0013307ff3308ff826918025020ea045f425022ec046a3f5020ee0453425022f0041c3b95bc00067bca207bc9187bc8107bc7089568a0378267f0015020f204378782696898973f826848978801d48707826a6098a83f979901d49808826b180198b93f97aa01d4a90997ba0195aa01956b983195bc00067bca287bc9307bc8387bc7403307c037285a015022f4045c3e510895f6826790018378209567ff07957761065020f6042b849567ff0795779101957900048298e800956a00027ba8108298e0007ba8088298d8007b68f8018297d0007ba70182696098973f826a6897a801d487077b67f00198a73f826848978801d487077b67e801826a180198a73f979801d487077b67e00197a7017b67d80197a8037b6818028d8980003307ff3308ff5020f8046e417b67b8017b68d001826718018a79033307ff3308ff5020fa042d417b67c8017b68c0018268b801d487077b67b801826718028379803307ff3308ff5020fc040741826b180288b98000826ab801db9a07826cc001826ad0015022fe046640826bc801939b8268f801e0a80882690002e0790782690802e0b909826a1002e0ca0a956c000182cbd800d4b70782cbe000d4b80882cbe800d4ba0a82cbf000d4b909956b983195bc00067bc9587bca607bc8507bc7483307e03701c87608826778502000058b859567ff07957701068268100150200205d5829567ff0795779101827270048273780482748004647882678000957a04d87a0b82678800c8b70cd87c07dabb07828b8804956998317b9c7006959c00067bca688268c000c887077bc778d8870782689000c887077bc780007bcba0007b9498067b9390067b92880695670038956820385020040503859567ff079577e10582680801502006054d829567ff0795779101827250048273580482746004827a680482678000957b05d87b0c82688800c8c807d88708dacc088269c000c89808d8980c82699000c89c0c956998317b9cc006959c00067bc8b8007bc7b0007bcba8007bcae0007b94d8067b93d0067b92c8069567403895686038502008057b849567ff079577c1058268b00050200a05c5819567ff0795779101827230048273380482744004827a480482678000957b06d87b0c82678800c8c709d87908dacc088267c000c87808d8780c82679000c87c0c956798317b7c0007957c00067bc8f8007bc9f0007bcbe8007b7a20077b7418077b7310077b720807956780389568a03850200c05f3839517e0847ce064c182678000957907d8790782688800c8780ad88a08da77088267c000c87808d87807826b9000c8b7077b67e0017bc7187b68d0017bc8107b6ad8017bca087b6900027b6c18027bc99567ff079577a1058268a80050200e05ee809567ff0795779101957c000482c82882c92082ca1882cb109517e08477e07b6708026471956c00017bc8f8007bcae800d48a077b6b1002d49b08d478089888207bc9f000d49707977720d4870751070628eff29567ff0795778105826810025020100589809567ff079577910182790004827a08048278f003827bf803826c08027bc9107bca187b6890017bc88ea78e98dba7087b69c0017b6ab801d4a9078eb9db78097b6b88017bcb089567ff07510906281d0f95776105826818025020120557829567ff0795779101957900038298e8007b68c8018298e0007b6880018298d8007b6870018297d0007b6778018267180282680802502014059582956b000182b8880082b970d39807d8980882b9900082ba78d8a909db780982b7c00082bc8000d8c70282bab80082b8c800d38a0bd88a0adab20ad3c707d4b707da790a510a43019569ff079599910182670002959a00037ba7b0008267d8017ba7b8008267d0017ba7c0009568ff07958841058267e0017ba7c800330750201605a880330820330750201805f8839518e08488e07b68080250221a057a3a0a078269080282971882981064926f7b6f8c82687001c8c80882677801c8b7077b671802d8b709c89800d3c008d8c00ada890a822308822482679001c8b7077b670802d8b70b82688801c8c808c8b808d3c809d8c80cda9b0c6f446f3b82698001c8b9098263c801c84303d8b902c83202c89a0ad89a09c892028269c001c8b9098267b801c87404d8b90bc84b0bc89c0cd89c09c8b9099567ff0795779101826b18027b7b7003826b08027b7b90037b707803957b00037bb898007bba80007bbca0007b728803647a9567ff07957721059568ff07958801057ba9a80333001c053302fa0528eb3b140800000000ffffffff7b68b8001407ffffffff000000007b6780019567ff079577910182680002957a00037ba8508268d8017ba8588268d0017ba8609568ff079588e1048269e0017ba968330750201e05517fff330820330750202005a0829518e08488e07b6808025022220522390a073300330c49261802826a080282a782a80882a91082aa186f77956b00017bb7706f877bb7186f977bb7106fa77bb708330a1407e0ffffff000000007bb778826410020182679001d8700782698801d39c08d89c09da8709826bc001d8ba0264a7826ab80182681802d3a803d8a80ada320a7b671002d3b707d43707da790a510a58017b6c00027b6008029517e08477e0956a00017ba7e000647182a9f80082acf000d49c0782a878d8840882abe80094b894785208062894ef954820d848077b68c801c87b0a7b6ad801d8ba0bda770bc8cb0b7b6bd001d8cb07c879097b69f8019567ff0795774102502024050a7dff9569ff07959991018297b8008298b0008299c0008477ff8488ff826a8001d2a9098262e001642a7ba9107ba87ba7088268080282670801c87803d883088267000282691001c87909c88909d3790ad8790bdaa80b8268180182671002c87808d8780a826c700182671802c87c0cc8ca0ac88b0bd88b08c8a808956a98317ba3280795a700077b79307b7b387b78404912189567c038642850202605107fff956a000282ac82600802950001880701c87c0cd4c00788770182a810c88707d8870882a918c889097ba9188264c801956900018298d8007b98e8008298d0007b98f000647a2870fe9567ff079577c1048268a00050202805117cff9569ff0795999101959a000382a73082a83882a9408477ff7b6718028487ff7b67100282678001d297077b6708029517e0847ce064c18268800095870850222a056337826b9000c88b0b64c87b6c00027bcb187bca107bc9087bc79567ff079577a10450202c05d37dff9568ff079588910182872803828820038477ff8269b800d2980882690802d49808956a98318269100295ab00077bb950826918027bb9487bb7607bb8589568e0388267000250202e05ff7dff9567ff07957781048268980050203005487bff9567ff07957791018272f0028273f80282740003827a080382678000957b09d87b0c82688800c8c807d88708dacc088269c000c89808d8980c82699000c89c0c956998317b9c8007959c00077bc8787bc7707bcb687bcaa0007b9498077b9390077b928807956700399568203950203205787dff9517e0847be07b6b180264b18268800095870a502234055036826c9000c8c8087bb8187bba107bb9087bb79567ff079577610482687050203605977aff502238054c3782b7e00082b8e80082b9d80082bad000d49808d4a707d487078e777b6710029567ff07957741048268180250203a058b7cff50223c05143782b7b00082b8b80082b9c80082bac000847700ff826b1002d4b707956b983195bc00077bc9c0007bcab8007bc8b0007bc7a800956840398267180250203e05bb7cff9567ff079577210482685050204005057aff50224205ba3682b7a80082b8980082b9a00082ba9000d48707d4a909d497078e777b6710029567ff07957701048268180250204405f97bff50224605823682b77882b8800082b9880082ba70826b100297bb0884aaff00ffd4ba0a956b983195bc00077bc9e0007bc8d8007bc7d0007bcac800956860398267180250204805277cff9567ff079577e10350204a05bb1e9568ff079588910195890002829768956800017b87f8008297607b87f0008297587b87e8008297507b87e0009567ff079577c10333084050204c053779ff9568ff0795889101958b000282b74882b94082ba3882b830956b00027bb77bba10d4a7077bb818d49808d478089888207bb908d49707977720d487075107062848eb9569ff07959991014929280249292002492918029568ff079588a1034929100280008267180250204e05027aff956a000282a70882a8d48709140780ffffff0000000082a818d8780782a81094877b69d801949752070628eeea82671802837780008268b001956aff0795aa91017ba8f001826898017ba8f8018268a8017ba800029568ff07958881038269a0017ba90802502050059679ff956b000182b76882b960d4970782b85882ba50d4a808d48707987720d49808978820d487075107062884ea956a000182a72098772082a8a80082a928d49808978820d487075107062864ea140860ffffff00000000826718027b68d001d887078268100294878268d8019487520706283dea816768017b67d801826718028377a0008268b00150205205647cff83778168b0018269d801330054050a0101826718028268b001c88707d88708826b98018269100250225605ba338268a001826a0002c8a808826ca801826a0802c8ca0ad8ca0cc8c808c8ab0bd8ab0ac8a808d4b808826ad001d8a70a949a948a520a0628bce98377a0009569ff07959991014929e8014929e0014929d8019568ff07958861034929d001502058057878ff8267180283772082683001956aff0795aa910195ab00017bb8c800826838017bb8c000826840017bb8b8009568ff0795884103826948017bb9b00050205a053678ff95670040837780f93308640a0295679831957b000782b9e80082b8f00082baf80095679839827b82671802837740956cff0795cc91017bcba80195cb00017bbaa0007bb898009568ff07958821037bb9900050205c05dd77ff826718028377608268c8009569ff0795999101959a00017ba888008268d0007ba880008268d8007ba878649a9568ff07958801038269e0007ba9700150205e059a77ff8267b00195771f1409e0ffffff01000000d29707140860ffffff00000000ac8706288fe88378a000956aff0795aa91018267e00195ab00017bb7103a075801028269e8017bb9183a096001027bb7683a076801027bb9603a097001027bb7588267e8007bb7308267f0007bb7387bb9508267f0017bb7208267f8007bb7408267f8017bb72864ac9569ff079599e102956aff0795aac102956bff0795bba102826700017bc7480182671802502060055079ff9567ff0795778102330840502062059c75ff956aff0795aa910182a7080182a8000182a9f80082abf00050226405b93151070628cbe764ba8267e8009569ff07959991017b97d0008267f0007b97d8008267f8007b97e0009568ff0795886102826700017b97e80064a77b6a180233003002286f76ff330820020283883307012812838833070133090a0c330820020228f233090a0c330820020228e7330820020228e0330820020228d9330820020228d2330820020228cb330820020228c4330820020228bd330820020228b6330820020228af330820020228a8330820020228a13308200202289a330820020228933308200202288c330820020228853308200202287eff33082002022876ff3308200202286eff33082002022866ff3308200202285eff33082002022856ff3308200202284eff33082002022846ff3308200202283eff33082002022836ff3308200202282eff33082002022826ff3308200202281eff33082002022816ff3308200202280eff8267c00195699821959a00057ba7088267c8017ba7108267d0017ba7189567a0268268d8017ba82050206605a71a33078268b80128e7fe956b9821956c000182c7b8007bb7480182c7c0007bb750013a07b800023a08c000023a09c800023a0ad000027bb780017bb8780195b800017b89707b8a6882c7c8007b875895690023956ae02282c7d0007b87603307330833006805330208281d3133078268b001287cfe7b68180250206a051f78ff83788169180233070a0c2873a7956700104927f0f8956700104927e8f8956700104927e0f833026c05140700000000717b484e9568ff07019588e100956900107b97f8f8330750206e057774ff956700104927d8f8956700104927d0f8956800104928c0f8113307049568ff079588c100956900104929c8f8502070054474ff39080c020256183f1220030c020240330820020228d7e5330820020228cfe595670010492730f995670010492728f995670010492720f933027205140700000000717b484e9568ff070195882101956900107b9738f9330750207405e573ff95670010492718f995670010492710f995680010492800f9413307049568ff079588010195690010492908f950207605b273ff39080c020256183fc40120030c02024028b90195670010492770f995670010492768f995670010492760f933027805140700000000717b484e9568ff070195886101956900107b9778f9330750207a055f73ff95670010492758f995670010492750f995680010492840f9413307049568ff079588410195690010492948f933008805282873ff956798114927d8054927d0054927c8056479140700000000717b484e956860177b97e005330750207c05fe72ff956898114928c0054928b8054928a805416489330704956840174929b00550207e05d972ff8267f001817756173f0c8268f001480840013307013309248268f8010a0c019567ff0795779101491740491738491730647933028005140700000000717b484e9568ff07019588c1017b97483307502082058472ff9568ff07958891014918284918204918104164893307049568ff079588a10149191833008805285772ff957791014927a0004927980049279000647933028405140700000000717b484e9568ff0701958821027b97a8003307502086052472ff9568ff079588910149288800492880004918704164893307049568ff079588010249197850208805f971ff826758817756173f0b826858480840013307013309248268b80033008a050a0c019511c07b10387b15307b16289515408411e0647683173308240a020182171082181814090000000001000000d37909d48909987a2088aa01948a939a510a248219821a087b697b6a087b67107b68189551c0821038821530821628951140320033082002028388330701330933008c050a0c33028e0528a42d50228e05a12d828b829608828008829395ba1f7b1b58d8ba02c8200c7b1340d83a03d36c0a7b1648d86c0bdaa30b828410d80c0ada220a829218828318829610c84a0ad84a08c83808d32809d92808d86a0cda9c08d36a0ad4a909db980b510b19017b12287b16307b1738821758d447077b1318d43008d487079877207b1420d44808978820d487075207ed0064068118588317600a02018214788217708219687b1750d4470788980194785108d200821860821758957b20d87b0ac8a6037b1808c8b808d8b8027b1910c83909c82909d3390cd83907dac207d8630cdaaa0c821a20c8ca00d8a006821218c86202821648d3690cd89609821640d88608dbc908821950c80909d8090c7b1458c84206c86c0cc89707d89709c8c909821628d3690cd89609821430d87406dbc906d34707d4c707db760852084e8217388218087b78207b7b8218107b78287b73088218507b78307b70108218587b78387b7218955160ff8210980082159000821688009511a0003200003308200202280f3308200202280833082002020183883307013309330090050a0c019511a07b10587b15507b16489515608411f0828910828c08828b82881897923f98ca01d42a02978a3f989901d49a0a97cc3f98b901d49c0c98830184bb019ab888b60184c97fd2a804d2280adbbc09d2380b88982094a8d4b40c94c8ab86167b797b7a087b74107b7b1850229205e52a3200491130491128491120140700000000717b484e9518207b1738330750209405326fff4911184911104901223307046418491108502096051a6fff39080c020256183f0b20030c0202400133082002028388330701330924330098050a0c01951170ff7b1088007b1580007b1678951590008411f064728289827408828c088273959a1fd89a00c80c0984aae07b1308c8a303d8a30bc8490ac8ba0ad39a06d89a07da6b07822b18d8c90c828610822210828818da000cc86c0cd86c06c82c09c89707d8c90cd89709c8b808c86808c8c808c8980c8ec88e79dbc809d4c7088ea6db8906520658821808d88308d34a09d84a06da9806d82708d3bc09d8bc0bda980bd32708d49808da860b520b317b13507b1a587b17603307409518507b1c6850209a052e6eff955170ff821088008215800082167895119000320050229c05422950209e050c6eff491128491120491110413307049518104911185020a005f26dff39080c020256183f0b20030c02024001330820020283883307013309243300a2050a0c019511a0fd951900027b90587b95507b9648951560028411e064167b6710828718828910828a0882887b67b0007b6738027b69a8007b6930027b6aa0007b6a28027b6898007b682002956700023308405020a4053e6cff956800028287187b67188287107b67208287087b672882877b67309567e001956820025020a605406eff956b000182b7f80082b8f00082b9e80082bae0007b6790007bb7b8007b6888007bb8b0007b6980007bb9a8009567c0019568a0017b6ab8007bbaa0005020a8054cfd826730826818826928d48909826a205022aa05fd2552086103956c000182c9d80082cad00082c8c80082cbc0007b6b607bcb80007b68707bc888007b6a687bca9000956880017b69787bc998005020ac05b86cff826ab80084a70152070101826720826818d487071408e0ffffff00000000826b30d88b08826928949894785108f70284a800ff83b720826a8000956900017b9a087b98826888007b981095680001826a90007b9a185020ae055c6cff330433033302826768826860d48707826878826970d49808d487078e779777057b67b800018268b800958720d88708c88409d8490ada880ac83a0ad83a08c8820b8268307b68e0007b67c0008267287b67e8008267207b67f0007b69c8008267187b67f8007b6ad0009567e0009568c0007b6bd8005020b005f1fc8267108268187b78188268207b78108268287b78088268307b789551a0fd9517000282705882755082764895116002320082679800956900017b97608267a0007b97688267a8007b9770956860018267b0007b977833075020b205836bff9517e08477e07b6758647139080c020256181f0b20030c020220019517e08479e07b69b00064913307200202837783993308200a074926b800330433033302826cb00082c7188268309589207b6950d88908826928c8890a7b6a48d89a0bda880b82c81082c90882ca6f776f886f906fa9826c58649a7bc91864097b6980007bc9107b6890007bc80864797bc7826720c87b0b7b6b40d87b07826818c887077b6738017b6a88007b6998008267608268b800d87807826970d39408d89409da8709826b68d8b307826a78d3a208d8a20ada870ad3b307d48707da790a510a70fe9567400164c87b62b0007b63a8007b64a0005020b4057c6bff8268508267b800c88707d88708826b488269a0005022b6054e25826a408268a800c8a808d8a802826c38826ab000c8ac0cc82c0ac88b0bd88b08c8a808d49808d4b709d48909d4b808989920978820d498085208a200956c000182c95882c85082ca4882cb407bcb207bca287bc830956820017bc9385020b8050d6aff826a980095aa0188a70182649000c87404d44a0788770182688000c87803d8830882678800c887078268b800958020d88009826ba000c89b08d8b80bda990b8269a800c89b0bd89b098262b000c8920264497b699000826c587bc90864a97bca7bc310647a7bc7187b6380007b60b800648464b328b9fe00951110ff7b10e8007b15e0007b16d8009515f0008411f0828c10828b18828a0882887b1a287b1b18d4ab0bd4c80ad4ba0a98aa207b1c20d4cb0b97bb20d4ba0a520af1017b17088297187b17688296108297087b176082977b17589517b0007b18105020ba05f267ff821758d46709821868821a60d4a808d489099899207b1650d46808978820d498085208a7018219c800821ac000821bb8008218b0007b18307b1890007b1b387b1b98007b1a407b1aa000951890007b19487b19a80064765020bc05ce68ff821768821850d478081407e0ffffff00000000d87609821a6094a9948951094d01821820821918d49808821910d87907821a2894a7948751073301646c821630821a40d4a607821848821b38d4b808d48707987720d4a808978820d4870752070c0183c7208398207b182864685020be05b56bff7b172082172864685020c005a66bff647882172064695020c2057e66ff821758c86707d86708821960821b385022c4050623821850821a40c8a808d8a80a821c68821648c86c0cc8ca0ac88b0bd88b08c8a808d4b808140ae0ffffff00000000d8a70a949a948a510a8f0083772049218800492180004911789518704911705020c605d467ff82163095661f1407e0ffffff01000000d26707821858c88707d88708821a605022c8058120821850c88a0ad88a08821b68c8b808957b20d87b07c8790cd89c09da7709c8a909d8a907c887078218087b8b7b8c087b89107b8718955110ff8210e8008215e0008216d8009511f000320000828b18828a108283088eb28eacdbb20cd4ba028e39db2c09520948828898a93b97bb05d49b02983b3b97aa05d4ba0a988b3b973305d4b30b978805958c20d88c08c88b09d8b90bda880bc8ab0bd8ab08c828087b7c7b79087b7b107b781832005022ca05951d5020cc05f666ff49111849111049014133070464184911085020ce05de66ff39080c020256183f0b20030c02024001330820020283883307013309243300d0050a0c018289828218828a08828c10959b0188b901c8a909d49b0a88aa01c8ca0ad8ca0cc82c0cd4c902d4ab08d428085108107b7b7b79087b7a107b7c1832005022d205101d5020d4057166ff49111849111049011133070464184911085020d6055966ff39080c020256183f0b20030c02024001330820020283883307013309243300d8050a0c019511907b10687b15607b16589515708411f0828a187b1a08829b1882847b14828a08829608829c828310829210c8a609c8c404d8c40cc8c909d36900d86906da0c06c83208821c08c8bc0cd8280bc8cb0bc8680cd88c08c88b00d3a90bd8a90a8218d88406dbba06d83c02821808d3800bd8800adab20ad33c08d4b808db8a0652061f7b747b79087b7c107b701895519082106882156082165895117032005022da05bf205020dc058965ff491128491120491110113307049518104911185020de056f65ff39080c020256183f0b20030c02024001330820020283883307013309243300e0050a0c01828a18828b108282088eac8eb9dbac09d4ba0a8e2bdba90b520b30828895891fd88908c828088488018499e0959a20d89a09c8980bd88b08da99084917187b7a7b7b087b781032005022e205951b5020e405f664ff49111849111049014133070464184911085020e605de64ff39080c020256183f0b20030c02024001330820020283883307013309243300e8050a0c01951150fe7b10a8017b15a0017b1698019515b0018411f082ab187b1b2082ab107b1b2882ab087b1b1082aa7b1a18828a187b1a30828a107b1a38828a087b1a7082887b1868829a829808829b108299187b17087b1998007b1968017b1b90007b1b60017b1888007b18580195177001951850017b1a607b1a50015020ea05f5fe821770017b1758821778017b1750821780017b1748821788017b1740951730013308405020ec05d662ff821848017b18a800821940017b19a0008216380182173001821a407b1a0801647a7b1780008217487b1700018217507b17f8008217587b17f0007b1828017b1920017b161801951710019518f0007b1a10015020ee05c8f4821780007b16788219a800d46909821aa0005022f005a61c5208cb018216607b16d000821888007b18d800821890007b18e0009518d000821998007b19e8005020f2057263ff821868c86808d8680982177082148800c84707c8970ad34a0bd84a07dab907821b10d3ba09d8ab0a821b18d88b0882163882139000c8630bdb9a08d83b0982103082129800c8020ac8a909c8b707d8b70ac8a909821b20d3b90ad89b09821c28d87c0bdaab09d3c707d4a707db7908642b643a82126082136852082501d46307821870d40808d48707987720d46808978820d4870752070801d4a207d4b408d48707987720d4a808978820d48707821978821aa8005207e8008217a000d4a7071408e0ffffff00000000821b80007b1870d88b08949894785108c50083337b136883b720642864265020f405de65ff837783688219680a010182128000c86207d8270882198800821b78c8b909c88909d3b90ad8b90bdaa80b82189000821aa000c8a808d8a80a821c98008216a800c86c0cc8ca0ac88b0bd88b08c8a808d4b808821a70d8a70a949a948a510a5264268377204921c8004921c0004921b8009518b0004921b0005020f6050462ff8217088218a8007b78188218a0007b78108218787b78087b76955150fe8210a8018215a001821698019511b0013200003308200202838833070133093300f8050a0c3302fa0528001e5022fa05fd1d8289187b19208289107b19188289087b191082887b1808827218827310827608827c01821708d87c07821910d39608d89609da8709821b18d8b307821a20d3a208d8a20ada870ad3b307d48707da790a7b1c407b16487b13507b1258510a4b4911784911704911684911609517409518607b12387b1c307b13285020fc059e62ff821c3082123895cc0188c701c87606d46c07887701821828c88707d88708c882026473287fff955160ff8210980082159000821688009511a0003200951120ff7b10d8007b15d0007b16c8009515e0008411f0827810827918827a088277d4a909d48707d49707510719955120ff8210d8008215d0008216c8009511e00032009517a0003308405020fe056c5fff8219b8008216b0008217a8008218a0007b17107b1908d497077b1818d46808d47808988820d46707977720d487075207c300492190004921880049218000140700000000a079c308951880007b179800821718502000064c60ff821908d46909140600000000010000001407fcffffff00000000821818d8780782181094877b1908949751076d82171883770449117849117049116020951860491168502002060260ff9567dc821818d878078218109487821808948751073a8216188367244911584911504911401495184049114850200406cf5fff1407bcffffff00000000d8760782181094878218089487520704008216188367443a08b801023a09c001027b18387b1930140800000000657669747b182895182049112050200606845fff330864646750200806d362ff837833070133096433000a060a0c019511e0fe7b1018017b1510017b160801951520018411e064167b673882977b67488297087b67408297107b67508297187b6758828718828910828a0882887b67307b67f8007b69287b69f0007b6a207b6ae8007b68187b68e0009567c0009568e00050200c06f25fff8267d8008262c0008269d000826ac800826858d3870bd87808826750d8970cdbb80c826840d38a03d8a80a826848d8280850220e06f61a5108cf008267187b67608267207b67688267287b67709568608267307b6778330750201006a15eff39080c020256181f0b20030c020220019517e08479e07b693064913307200202837783993308200a07826a3082a782a80882a91882aa106f726f886f996faa826b40c8ab0b826348c89303d89309c89b0bd3ab07d8ab0ada790a826750c88707c87a0ad87a09826c58c8c202d88707c82707c8970782683833094918384918304918284918207b837b8b087b8a107b87189551e0fe8210180182151001821608019511200132004926b0004926a8004926a000140700000000717b484e9568a0007b67b800330750201206d35dff49269800492690004926800032330704956880004926880050201406b45dff39080c020256183f0b20030c0202400133082002028388330701330924330016060a0c019511c0fe7b1038017b1530017b162801951540018411e064760a0b0151074f017b16180a0b64794921f8004921f0004921e800951700019518e0007b19207b19e0005020180603f8821700017b1740821708017b1738821710017b1730821718017b17289517c00033084050201a06e45bff8217d8007b17588216d0008219c8007b1950821ac0007b1a488218287b1898008218307b1890008218387b1888008218407b1880007b17b8007b16b0007b19a8009517a000951880007b1aa00050201c06dbed821748821858821950d48909d46708d498089888207b1640d46909979920d49808520884004911784911704911689518608219207b196050201e068d5cff0a0b01821a48821840821958d498081409e0ffffff00000000d89a09821b5094b99489510944647698772052073c83a72083687b1838646850202006a95fff7a16200183778318200133090a0a01821b4881172001821618821858821940821a50821c38aec70e00330a33093308330b60017b6b7b6a087b69107b68189551c0fe821038018215300182162801951140013200951140ff7b10b8007b15b0007b16a8009515c0008411e07b172049117849117049116849116095174095186050202206b95cff8217487b17388217407b17308017507b1728330620020383677b17180a04013a072802033a0820020339093002036f77987a206f88978b20d4ba0a9777206f99989920d49707988820821928d39808821930d39707d48707821838d3a808d4870752076d38070802029576ecd876079579ff9497887a019aab9577ff97aa20987c20c9ac0c979a20986820d4a808d4c808977720d4b909989920d49707d48707520784008368831780000a0282199000821a98003307801b8c0098982097ac20d4c808979920d4b90998aa2028348217180a043a0828020333073a09200203390a3002036f8b98b8206f9c97c920d4980897bb206fa9989920d4b90998ca2001821b207bb97bb8087bba10491b18955140ff8210b8008215b0008216a8009511c0003200009511a0f9951800067b80587b85507b8648951560068411e064168279827808827a108277187b67387b6758057b6a407b6a50057b68487b684805956840057b69507b694005330750202406545aff49263805492630054926200502330720956820054926280550202606355aff33090c020239070c020256173f0b20030c020240017b69b0009517e08479e07b69380164913307200202837783993308407b67a8000a07826a380182a782a80882a91082aa186f726f8c6f9b6fa99517e08478e06481959a077b6960d89a07c87b097b6b68d8b90bda770bc8cb0b7b6c70d8cb077b6278c827077b69287b89087b6a307b8a7b6b207b8b107b67187b8718956700057b68b80050202806875aff826718057b67f800826710057b67f000826708057b67e800826700057b67e00049267805492670054926680549266005049567e0049568600550202a06475aff8267f8048268f0048269e804826ae0047b67d8007b67b8047b68d0007b68b0047b69c8007b69a8049567c0049568a0047b6ac0007b6aa00450202c0663f28267c0048268c8048269d004826ad804492698054926900549268805956c0005492c8000047bcab8007bc9b0007bc8a8007bc7a000956780059568a00550202e063d5aff95678004330840502030068b57ff956b000482b7800082b9980082b8880082ba9000957b207b6b18017b673801d87b07c8780b7b6b10017b683001d88b08da7708c8a8087b6800017b6a2001d8a8077b692801c897077b6708018367c0050a0801956c000182c71882cad4a70982c81082cb08d4b808d48909989920d4a808978820d498085208820b956c000582cbc00082c8c80082c9d00082cad800956c00047bca787bc9707bc868956860047bcb60502032061b58ff956c000182c83895874050223406880d52083f0b492658044926500414080040f09bbce108007b684004956840044926480450203606e257ff956c000182c838958760502238064f0d5208060b8268e000956a00047ba8208268e8007ba8288268f0007ba830956820048269f8007ba93850203a06a357ff956c000182c8389587800050223c060f0d5208c60a8268c000956a00047ba88268c8007ba8088268d0007ba810956800048269d8007ba91850203e066457ff956b000182b73882ba20d4a70782b83082b928d49808d48707987720d4a808978820d487075207730a4926f8034926f0034926e8039568e0034926e003800082673801502040061a57ff4926b8034926b0034926a8034926a003a000826728017b67d803826720017b67d003826730017b67c8039567c0039568a003826938017b69c00350204206eae79567800382683801502044069155ff956b000382b7980082ba900082b9880082b88000d49707d4a809d47909989920d4a707977720d497075207d609826718017b68380150204606ea59ff9518e08489e07b692801649183778168380183990a07956900018298288287187b97308287107b97388287087b972082877b9728956760038268b800502048063e57ff95680003828778828c70828b68828a60d47b09d4ca08d4980051006809826820016f82826830016f84826828016f83826838016f897b6988009518e08488e07b68106481880001d43908d424097b649000d49808888801d480087b6830017b6ad80068a895884068b97b6bc000dab809959b8000d89b08d47c0994987b6cd00068ca95ac40687a7b67c800da7c0ada9b0a826088006809684b95bb40db090b95b48000d8b40764297b628000d4320b94b76832689c95cc40db320cdab40cd8ca09d37802d8780bda290b88b4019542ff9ab4c97808c99809c9ca0c7b6438018e478e28da27088e9788ca000185aa01db970adbb80a826b3001d4ab0b7b635894b38264800094b4640a94ba8260900094b0520bad0364c785cbff0082683801d48b0bd4290cd4cb0b510b9603647a7b6720019578017b683001888701c897077b671001d4870788770182683801c887077b670001d88707c827077b6708019aa8ff007b6838019a898000826790008268880050204a0635117b6728017b681801826780008268588269380150204c0642117b67f80082671801d487077b671801826820019a897f826790008268880050204e061e1182693801889a80007b6af000826b1801dbab08826b58da9b087b68180182682801826bf800d4b808daa70882678000da97087b682001826790008268880050205006da10956b000182b982ba0882bc106480d4ac0c82b830d49808d4c8088269f000939093977bb72851085d0282673001957980826780008268587b60f8005020520673107b6738017b68e8008267900082688800826930015020540659107b67e0007b68f000826830019a89800082678000826858502056066210826bf000d48b0b956c000182c930889880007b68f000826ae800da8a0b826a8800da9a0b7b6be800826ae000d4a70782ca38da8a0782689000da98077bc7388267800082685850205806f00f8263e8008260f80033048269f000939893977b67f0008269d800889701826ac000c97a077b67b000d4a907887701826ad000c97a0b7b6ba800d87a07826ac800c97a0a7b6aa0009599ff7b699800017b64f8004926e0004926b80082673801987b3f973a01d4ba02977b01826a180198a93fd49b0c7b6ce8008267b000d32709d8270b82679800d8c704db9b049788018267f00098793fd498087b68380198393f977701d4970397a7018268200198893fd49707978901980b3fd4b909970b01826c280198c03fd40b0b97cc018268f800d4c8087b682801826ae000d4ab0b7b6bf800d49a087b682001d4a7077b6718018268a800c93807d84707d838098268a000826a3801c9a80bc99b0bc97b0b99bb3f8267d800d27b087b68e000826cc000d2bc0cd3c207d8c2098264e800d88400da70098268d000d28b0ac9a308c998077b67f000d89807d8a3088269c800d2b909826a3801c99a09c98908c97808c9c20ac90a038260f8008267e000c974077b673801826c300182691001d49c07887701826a0001d87a02c97a0788ca01c9a909826a0801c92a0a95ccff7b6910017b6a0801d4a9097b6c3001d47c0ad49a0a84b4017b670001520a97fe280933044926b80001956a000182a92098973f82a818978801d4780298073f979801d4780882a728987a3f970c01977701d474008267b800d47a0ad4ca0ad48704d42703018267d800d607098268c000ca080bc8b909d8b90bd6080cc8bc0ccaa70b6432c89b03d8b309d6a70bc8b909c8c909d8c90bd6a80cc8cb0bcaa80cc8c909d8c90cc8cb0b7b6b3801ca840cd6740bc8cb0bca720cc8cb028268c800ca800c8268d000d6800bc8cb0bca8a0ac8ba0ac82a0aca800bca7408c88b0bd88b08c8a808826a3801c8a808c89b0bd89b09ca0704826758c99709c9890282678800d33708d8370a82609000d8400cda8c0a82698000d8b908c9b90bd8ab09c89808c98202c9ab0bc9c708c93808c940078269307b6900038269287b6908037b67e0028267207b6710038267187b6718037b68e8027b6bf00295672003956800039569e0027b62f80250205a0622f1956800038287587b6718018287507b6708018287487b6700018287407b671001828730828b38828920828a288268107b87107b8b187b897b8a089567c00250205c063251ff8267c0027b6730018267c8027b6738018267d0027b6728018268d8027b6820018264100198493d826a000197ac03d49c0398aa3d826c080197c903d4a90298c93d826a180197aa03d4a9099744037b6418018e3a884b000185bc01db3a0c8e9b8e2adb9b0ad49209db9a0c7b6c080183498050205e06290c7b6700017b68f800826710018a79037b691001826730018268380150206006080c7b67f0007b68e800826818018d898000826728018268200150206206100c8269e800d48909826a180188ab80007b6be8008268f800dab80982683801daa8097b6938018268f000d4780882670001dab70882673001daa7087b683001826728018268200182691001502064069a0b8268e8009387977720987920826708018268300194787b6830018268380194787b68380194797b6928019517e0847ce064c182686095870850226606f7059567a00250206806e24fff8067b4029777208268b80282692801d4970782693801956a00057ba9e800826930017ba9e0007ba8f8007ba7f0009568e0058267200150206a061d50ff9517e0847ce064c182686095870a50226c069b059567800250206e06864fff826788028268800282699002826a980284880000ff868800017b6a18067b6910067b6708067b680006956800068267200150207006c64fff826860958709d88708826a68c88a09d8a90ada880a826870c88a0ad88a08826b78c8b808956b00067bb8387bba307bb9287bb7209567600295682006502072060b4fff82677802956800017b8720826770027b8718826768027b8710826760027b87089567400233084050207406b14cff50227606f70752081901826808017b682002826810017b682802826818017b68300295682002826920017b6938027b67200150207806b24dff4926d801826728017b67d001826738017b67c801826730017b67c0018267387b67f8018267407b67f0018267487b67e8013a07c801023a08d001023a09d80102826a507b6ae001956c00027bc7187bc8107bc9083a07e0010233082095690002956ae001956bc0017bc78267200150207a06a54fff826738956b00017bb798008267407bb790008267487bb788003a07e801028268507bb880003a08f001027bb7b8003a07f801027bb8b0003a080002027bb7a8009569a001956a80017bb8a0003307330833007c063302082828099551a0f99517000682705882755082764895116006320000492670014926680149266001140700000000717b484e956860017b677801330750207e06a44cff49265801492650014926400112330704956840014926480150208006854cff8267b000817756173f0c8268b000480840013307013309248268a8000a0c33073300820628ea4fff330750208206e44fff33070150208406da4fff956c000282c81882c70882cad47a0a140b00000000010000001407fcffffff00000000d8780782c910949794a7320282681802d878078268100294878268f80194873202140b00000000010000001407fcffffff00000000d8780782c910949794a73202956b000282ba0882b91082b81882b79577dcd87807949794a7320295690002829a181407bcffffff00000000d87a07829810948782980894873202d88708826a1002c88a09d8a90ada880a82680002c88a0ad88a08826b1802c8b808956b983995bc00073202d88708826a1002c88a09d8a90ada880a82680002c88a0ad88a08826b1802c8b808956b983995bc000232028263c8019533018837018264c001c87404d443078877018268d001c87800d880088267e801c88707826818029589207b69e801d8890a8268b801c8a8097b69c801d8890bdaaa0b82681002c8b80ad88a0b82680802c8b8087b6808028268f801958b20d88b0c8269d801c8c908d89809dacc09826ce001c8c909d8c90c3202826b180288b98000826ad001db9a08826cd801826ae801d4ca0ada970a93b8ff93baff826be001939b939c8267f801e0a70782690002e0890882690802e0c909826a1002e0ba0a956b98313202d8870882ca30c88a09d8a90ada880a82c820c88a0ad88a0882cb28c8b808d4a70bd49808d48b0b98bb20d4a808978820d4b8083202826770017b6bf801d87b07857b017b6ad80194ab017b69e00182670002d49707947b018268900182671802c87808826a8801c8ac008269780182671002c879098267800164ca826c0802c8c707320282688801d878078268900194878268c00094873202956a000282a9181407bcffffff00000000d8790782a810948782a80894873202826af00182a71882a81082a90882aa6f777b67e8016f877b67e0016f977b67d8016fa77b67d0019517e08477e07b67f0016471826708029777209877203202d87907826a1002c87a08d8a80ada770a82670002c87a0ad87a07826b1802c8b70732029511b07b10487b15409515508411f0491130491128491120140700000000717b484e9518207b173833073202826a180282a71882a81082a90882aa6f7c7b6c08026f8b7b6b10026f997b6900026fa77b6718028268f8017b87187b89107b8b087b8c3202d88708826a68c88a09d8a90ada880a826870c88a0ad88a08826b78c88b0b64c87b6c20017bcb187bca107bc9087bc73202826a180282a782a80882a91082aa186f777b6718026f877b6710026f977b6708026fa77b670002320249260002826ae80182a71882a81082a90882aa6f736f846f903309826bf8016fa7330a3202956b000282b70882b8d47809140a00000000010000001407e0ffffff0000000082b818d8780782b81094877b69f8019497320282a782a80882a91082aa186f776f886f996faa3202826a180282a71882a81082a90882aa6f776f8b6f996faa8268f0017b8a187b89107b8b087b873202826ae80182a71882a81082a90882aa6f777b67e0016f877b67d8016f977b67d0016fa73202d8870882ca08c88a09d8a90ada880a82c810c88a0ad88a0882cb18c8b808956b9839320282a71882a81082a90882aa6f776f8b6f996faa8268e8017b8a187b89107b8b087b873307002032029517e08479e07b69180264913202647183793308408267f801320233079839c8760a95ab0005320283870433089821c886093202d88708826a1002c88a09d8a90ada880a82680002c88a0ad88a08826b0802c88b0b3202d8ab0ac8a90cd89c09daaa09c88909d88908c8870795689831958a00033202c88a09d8a90ada880a3202956a000182a7800082a878d487071408e0ffffff0000000082a99000d8890882a98800949894783202d4a708d49808988820d4a909979920d49808320233079831c87608958900013202c89c0cd89c0bd83909c89707c8b707d4c809d4a707d47909989920d4c707977720d4970732027ba810d478087ba70888870182680002c887077ba718d8870782681802c887077ba72032027b67d8017b68e0018267d001d487077b67d001826718029579803307ff3308ff3202956c000282c71082cad4a70982c81882cb08d4b808d48909989920d4a808978820d4980832027b67e0018267080295770188780182691002c89808956998393202d4ba09d4c708d49808988820d4c909979920d498083202648183778389330820320295690002829b08829a1082981882979577dcd8780794a794b73202956b000282ba5882b85082b94882b740d49a0ad48709d4a909989920d4a808978820d498083202826b1002c8ba0ad8ba0c826b1802c8cb0b7b89087b877b8a107b8b18330700303202d88708826a8800c88a09d8a90ada880a8268c000c88a0ad88a08320233079819c87608958900073202d4c809d47007d47909989920d4c707977720d497077b63c8017b64c001320283872433089821c8860a320283872433089829c8860a320283870433089829c8860932029517e08477e07b67f001647183793308408267e8013202c8b909c88909d3b90ad8b90bdaa80b32027b6718027b6a10027b6b08027b6c00023202d49707d48b09d47909989920d48707977720d4970732023307207b671802330c49261002492608024926f8013202491140491138491130140700000000717b484e9518307b1748330732027b671002d4a7077b681802d4b808d47808988820d4b707977720d48707320297773b9878387b6818029a8980003307ff3308ff3202956aff0795aa910195ab000232029551a082105882155082164895116032029517e08478e06481826900023202826718028177330823320282b71882b82082b91082ba08d49808d4a707d48707320233079839c8760a95ab00013202d4ca0ada980a3308ffdab807dab80a939c3202d87a0782688800c8780bd88b08da77088267c000320282b7d80082b8e00082b9d00082bac800d49808d4a707d48707320283870433089819c886093202db3a08d39707d4b707db7c08320233099829c8960a95ab00063202951160ff7b1098007b1590007b1688009515a0008411e03202849a40520a195109148d9a40cfa80ad09808d09707d4a707320032009597c0d0780733083200849a40520a195109148d9a40d0a70acf9707cf9808d4a808320032009598c0cf87083307320049922425494b2a252da9944c4949214225a952484992244992244992244992244992244992244992244992244992244992244992542529a524292949a84a494a922449922449922449922449922449922449922449929224294955494a9228492549559282922425294955559292a42495249524494a92a442a5949224a59492a4922222a28888484992242549925292244928959494142952a4489122458a92141111254982101286d2a434244244442422221a119124429244228a448428540d8990049024a94892888844489224222291888808494892244992a1144aa154a12a15aa54694444448a88201121448888288d0824200202092490400289400202092490888888342248048988149124111111111151488c08252284484804a11245498aa22892244922224944488c8888082289209248442489081189442211d1882892884422892449242291249248444444448488442291882405499288888888101149128924124992484a9224898888880811499224110911111149922489880022222242900411212222044910112242902484888888484444444a04411224911411111111119148440a11114a4408919008425422258208222222a288920411114992248908111111892412491224912488448808492444444424499224220288888808411288081111412009448488209024848824804444222222a288402249920492883422024822894a222222222282881111111191202292244992249288442212491211114524222222a28840444492249044248a084444442489144444281141128510c148a25089282222902449125124128904111111111111412449024944444444444411114422914822918888888828220a92288a8c4804104954a22a2249555122258a4492948c8848248944244992444404919248922489889244922489141144229148228944241249228944124922894491522222224a444444232222922451248248248a88141111111111051121114108114ca2509188220211111151101111118988208a4c221045042288880481248a888888444444442322229224812422452449444444444414448c08252208911011085189a22455914492442211491211442491882422101111114992244992229248124924251141442491202292244992242202888888080249208a101111049240448808024942888800222212111111450402492089481411888888888828881889120992284442442054a2884004914824128840441089442212282222228844229188042222222282404444444424902411412022222222124892882010914824228148121104128944221288888808222222221288888808222222920844441289888888880822221244444404928888888888880802492422222222228248208944441011440422924824124911114100010492888888884424122592489224494444441031222222222222228a88882012482222222222222291484404010410482222221289442488082411119148242241000104928888884422224144208988888888888820800820904411111111414420895044444444242222a21149922489221111228210115115228a8888888818892491489224898888888882884884208a4844208a8808249024228288489494480a222211822822118128222290404444441011111111115114232222924822890412111111111144444444448c244a9224298144444444118140124522888848241291282290241111115110312294882084082651a8484411818848242205111189444a440451641281282210414444828824499224491411111129129122492222222222a220624428114108491011110895882202114444441491442022924812494410312222228812489288202222222222221a91249248228904928888888888288818114a441045261188220291441111111111511031222291121141149944208a8808448288242992481249241245221141444444444420892491449214114444928824922492244994404444441011111111111111118d8888482289241248224144444492244922228088888820902422424444104812112122082409214424898844444444141148922449148988081141249224291244920492882212894825128544a41111919444942449121111111145444444444422914844444444441a1191944494244912111191a48888888848244a9288442211912212894422221a11894892481049124822228088401049092489081111412049448808024942888800222212092222224992241111111111510489a0d488884834229004928814111111912452103122948820894224440442258a084410914824128840441011111191409244048188888888489024114120222222221244928820101111111109222222824044229188041111114144444444828888882090482412914492482251444444101191404444441011111191449288482211111141c488888888880411490249241289484404812412512291880491208944122241442022222222222222220820802089a448442212891291449224492222222288884422914824524444049120898848241211914824224100010449444444444444441011241111888888880802082048222202111111114144904444444444440401440041121181442211114404491411111111041024118a8888880822129124228948922449499224510445252222a211111149922812112122888888888888880822222222224124128922222222222222228248a404494444444404111111111111444444922449922449922411092012955449228922114944455044158d44928844922449444404111111114912499224892491249144922449241149922449924444440411499224499248101111912449922222808888882048828810111104491011228220490811111191481011119124499288880022222288a404491011222282200922424410240921222222120922224992244922228088888820488288101111044922224404419210222222914424128944441a9124959224114910111111112411114044104452822411212222089244848820481242888808202212918824114944924492484492484444248804119124499224892492441211112122228808822422222222222222a88a4824912491124962241249249224491291244912111111444a22499224228a8848928888282288442249249188249244128948224924918888a2aa444444440449240922114444442489481011499224491211014444440441124484888820488288101104494288880022462212111191444a222292481249441011444444249188882029924812492449114144924424224922222222288a9244214908091111111111114544449244124924912423824822414424499224494404101111110449101122228220092242441024091111404444224144444492244922228088888820488288101111444a524a1211212288240104904a122222420849248894a4942422028888202228d14810114992244912110144444404411244848888204812112122089284102222228088484424228988041111111141121111114044441044528224111111221111419024222242242208928410222222028844442222222222228810118944121114254aa290248484282222221249522249228924924892114124888888882449922451442211892288888888888888880821444444211111112412444444244992a4880820222222089220224444044192880811419024444408218944224144244992244944041011111104491011222282204944848820481242444444908844448488202222222222222222888888888808111111114424924812492491244a4a92888828222222222222222292884810111111111141442291484482888888888888101145441011910892888888200a4545828888a81489249214892449442249222288482249922411914824220511400089a224119148242211411411111111111111111151444444101149142511912411111111441111914824128944224544440411400089a2242212492222228288248a92888888888888828834028800124549444444444444041141121111111111110501440041121191482422a22022482222492482888888880610010449449244449248041141121149221204102411511249101111111111511011114a4490442121924954a248525114452429228888888888248908228288888888a44822492491a2244510118948442492440449912089445292a488202292242212499224890822224925a2442222494424124444444444444410111111952289444492444444221245240a5290242849244992244952515449922489249244922449922449244952aa922449249224499224221289249188888844242211892449922449922449222222914844a42089529044104582a04824459044924892481244441091222222224944104422524a444414912449121111404411114144248000121541448888082222928a202244041140a228124244124022824450d288a2244a1249922411111111245144229148241229222241444444442492484a049148241291481249224914492589444410118988202222228248444422118944222282a2228a288a228028828824828844124144221211499144101589249124914824128944221111111144148914918288088908a2c824822812441245444444444441444444448988208a4c228822124124884822918824890892228920924824292222228a48241289882022222222222222494424884892882489082282888844a24824888888082222222222a2082222914824128914420811494a44444410114424492425499224222222222222282a241244244992249148224924111111222282882088485244444444445015914822499212498c44924824491211894892242222a20822254992242222222222222288442249249188249244128948224924918888224a4422924424319224499224493222114922922822028828880889084204a1b0249a2489888844249224519224888820222222222241109144100441444444044992244922222222414422828848442291982492449248229220224982884844922022121144914824924449928888889804499120894449529288082222222222124992242222888888a8a424111149222222124444444492888804111191548a2412114912111189242522294841124191244992249124a928aa449224892492449224492449922449122555499224124992244912111191488a14111111894822114912918888888888888882244a411241140982229114414492489248124444109124111111114110894829111151442249222222111149922849124444101111111111110411490441104492440449922489244944924482884404111191484434491249129124128948828848124444229204119188208a4422918844229188248949101141444414492489884824894444444410114144444424912492484444444444441011414444442491249248444444444444901449248924128944228a882022922489222291249224111144444444125522522291440411111111111111442489241189489224222222222222a22005490445524522912449914824492a124992442249928888888888882222222201440011119148242252200549045544498a94520a2031124922452489241191441491242a4922912492880844444412895222928824494412912489882489025124499224898888281111888824894424922241a448524420222291484424924404222210111111492489241211492222220249140922498a482088884852444420888888484444444420228120222249111181201189844444444404228288484422918848202292244a92244992888888082210290124294a22222222222222029124499224892492240920225194444444a088684412114424224992442a898888888840242222222222220211292222a2484444444404221111111129222210092001241111911009090989441289448a88888888404402111111415244444444444411114aa542150a8542a15028140a8542a1502824242424242424242424242424242422128944242812111111420811914422221549910814958888880820464481888808898808840842422222222280181105222222242222104290888888082046448188880889888888882880880211114a44208ac8241a91a40820460a44245122121111510410230a4444448948204532896892249526012449a594244952284591a0a424499224499224499224922449922451d224498a24499224499224499224499224499224499294244992888868281496a249922425499224494992a4949204250920299024251022184aa211914825254992244992244992244925254992244992244902119128082491241022184aa2114922254911111111914024495222021111111111111111244982888888442211894024920490a4221291221109544992a4c448922449442211898888204992a488245144229188144852886012854a51459224499254955224524992644422499224499288222290481241224924499224494492248904228924914422892491448aa452222a232222494a92244922499212092449922489888844221189024902482a9224a928499224492429901428059224419224499204908a442409240124498224499224494a1211114d52494949922449922449490a024952022182a1245a922449922429494120494a20443094449324495249499224499224494a92244952922449412089248110c150124d524949499224494a0a024952022182a1241a11114992a42449524a928888888844108944229140444444a24824121111114124124124222222229024912449922492249224499224a9249224492249922422124024152515a834924892242289489224a9948888082412498a888886521409922429499a2449922449922449922409244992242911115144442449491211114502111149922449444400110924010490a4942489249024a524492481009252262124012409a44049342222524a9224494a2412898840444492244992209224495220443049a1524a5295244992244992a4242949444414110144148808890884088692684444a4462a2222124124128944029188441289442222222248922449124992049a2401249592940251d4449224ab2c494444141111499224812449426908a194a42449922409494a4992244992288a289224298542282529c9942422221a91245249128944240a448444044288602451a8445192aaa42449922449529244042222222222224404222222222222228288888888101111118804222222114944928844221a294992241111119124128824888800222210491011894422128844101145221109449224499288880822101141444444444410118888882449121181242a2a922449890844922489288aa24852924812518a44529422894a2245aa24499294242a4592488a2a8a22924491482289441211111144442288484422828888241191442222889292242a118944101111414444248844222291882491448288a22212892412894462444492441291449248224922499248128948241291242249221149228924914422491291884822492289482489a81849922449924892914892a424499224892449249224499248922491441249922449242291888888082291482492244989404444444424924492481245524922414424228288888820121191484422918888204a228a288aa424884024221111111111484a820844448488888808244992244924494420229148241208222222222222101111118944228490882421115104129148844488102122a2228948128d8800220a44844404a2884ca2220a241049092080a48a44510104905491a4a48a0490944a248924125122492491882289249144229148249144229248124911918824898a44229128499224499224452491882422918844912251542480a45424a9288a2289222991249248499224012415492a8aa288249524499214492a4a521445514492aaa28a94000248525449aa8a245545928a241545514992244994a4aa4852944455a2489448892491444a92241125292209201255922445a224499224294922492445442292142949922445249128499254a548525245922449922289a4244a2489a448942449224aa4444aa4242a5192a488889224498922a2240124158924494a229222a22449495194922449912849528924514444921229498a441111919224492aa92449924a0a00"},"methodIdentifiers":{"cancelRaffle(uint256)":"5fba3171","claimPrize(uint256)":"d7098154","createRaffle(string,string,uint256,uint256,uint256)":"38ebda8b","drawWinner(uint256)":"60b2a56a","getActiveRafflesCount()":"3513f012","getAllRaffleIds()":"2273f76d","getCurrentRaffleId()":"804b96ba","getRaffle(uint256)":"e4dafec9","getRaffleParticipants(uint256)":"a6e3295b","hasJoined(uint256,address)":"68194719","isTrustedForwarder(address)":"572b6c05","joinRaffle(uint256)":"4758eca9","raffles(uint256)":"5d4bc0ce","userHasJoined(uint256,address)":"1ec31417"}},"hash":"4918c56fe6f90fe965e68a34176b63122485cafb2d86c82c86f5e57d33505022","factoryDependencies":{}}}}