{"contracts/MetaTxRelayer.sol":{"MetaTxRelayer":{"abi":[{"anonymous":false,"inputs":[{"indexed":true,"internalType":"address","name":"user","type":"address"},{"indexed":false,"internalType":"uint256","name":"amount","type":"uint256"}],"name":"DepositReceived","type":"event"},{"anonymous":false,"inputs":[{"indexed":true,"internalType":"address","name":"from","type":"address"},{"indexed":true,"internalType":"address","name":"to","type":"address"},{"indexed":true,"internalType":"bytes","name":"data","type":"bytes"},{"indexed":false,"internalType":"bool","name":"success","type":"bool"},{"indexed":false,"internalType":"bytes","name":"returndata","type":"bytes"}],"name":"MetaTransactionExecuted","type":"event"},{"anonymous":false,"inputs":[{"indexed":true,"internalType":"address","name":"user","type":"address"}],"name":"RelayerApproved","type":"event"},{"inputs":[],"name":"approve","outputs":[],"stateMutability":"nonpayable","type":"function"},{"inputs":[{"components":[{"internalType":"address","name":"from","type":"address"},{"internalType":"address","name":"to","type":"address"},{"internalType":"uint256","name":"value","type":"uint256"},{"internalType":"uint256","name":"gas","type":"uint256"},{"internalType":"uint256","name":"nonce","type":"uint256"},{"internalType":"bytes","name":"data","type":"bytes"}],"internalType":"struct MetaTxRelayer.ForwardRequest","name":"req","type":"tuple"},{"internalType":"bytes","name":"signature","type":"bytes"}],"name":"execute","outputs":[{"internalType":"bool","name":"success","type":"bool"},{"internalType":"bytes","name":"returndata","type":"bytes"}],"stateMutability":"nonpayable","type":"function"},{"inputs":[{"internalType":"address","name":"user","type":"address"}],"name":"getDeposit","outputs":[{"internalType":"uint256","name":"","type":"uint256"}],"stateMutability":"view","type":"function"},{"inputs":[{"internalType":"address","name":"from","type":"address"}],"name":"getNonce","outputs":[{"internalType":"uint256","name":"","type":"uint256"}],"stateMutability":"view","type":"function"},{"inputs":[{"internalType":"address","name":"user","type":"address"}],"name":"isApproved","outputs":[{"internalType":"bool","name":"","type":"bool"}],"stateMutability":"view","type":"function"},{"stateMutability":"payable","type":"receive"}],"evm":{"assembly":"// RO data = 0/0 bytes\n// RW data = 488/66080 bytes\n// Stack size = 32768 bytes\n\n// Instructions = 6509\n// Code size = 22252 bytes\n\n      : @0 (gas: 1)\n     0: jump @14 if a0 == a1\n      : @1 (gas: 9)\n     3: a3 = a1 << 0x20\n     6: a3 = a3 >> 0x20\n     9: a4 = a0 << 0x20\n    12: a4 = a4 >> 0x20\n    15: a4 = a4 + a2\n    18: a3 = a3 - a4\n    21: a4 = a2 << 0x1\n    24: a4 = -a4\n    26: jump @7 if a4 >=u a3\n      : @2 (gas: 1)\n    29: jump @11 if a0 >=u a1\n      : @3 (gas: 1)\n    32: jump @14 if a2 == 0\n      : @4 (gas: 3)\n    35: a2 = a2 + a0\n    38: a3 = a0\n    40: fallthrough\n      : @5 (gas: 6)\n    41: a4 = u8 [a1]\n    43: a1 = a1 + 0x1\n    46: a5 = a3 + 0x1\n    49: u8 [a3] = a4\n    51: a3 = a5\n    53: jump @5 if a5 != a2\n      : @6 (gas: 1)\n    56: jump @14\n      : @7 (gas: 1)\n    58: jump @14 if a2 == 0\n      : @8 (gas: 3)\n    61: a2 = a2 + a0\n    64: a3 = a0\n    66: fallthrough\n      : @9 (gas: 6)\n    67: a4 = u8 [a1]\n    69: a1 = a1 + 0x1\n    72: a5 = a3 + 0x1\n    75: u8 [a3] = a4\n    77: a3 = a5\n    79: jump @9 if a5 != a2\n      : @10 (gas: 1)\n    82: jump @14\n      : @11 (gas: 1)\n    84: jump @14 if a2 == 0\n      : @12 (gas: 2)\n    87: i32 a3 = a2 + 0xffffffffffffffff\n    90: fallthrough\n      : @13 (gas: 7)\n    91: a4 = a1 + a3\n    94: a4 = u8 [a4]\n    96: a2 = a2 + 0xffffffffffffffff\n    99: a5 = a0 + a3\n   102: u8 [a5] = a4\n   104: i32 a3 = a3 + 0xffffffffffffffff\n   107: jump @13 if a2 != 0\n      : @14 (gas: 1)\n   110: ret\n      : @15 (gas: 2)\n   112: a1 = i32 [0x201f0]\n   117: jump @45 if a1 == 0\n      : @16 (gas: 4)\n   121: a0 = 0x30220\n   126: i32 a0 = a0 + 0\n   128: ecalli 14 // 'set_immutable_data'\n   130: jump @45\n      : @17 (gas: 8)\n   133: sp = sp + 0xfffffffffffffff0\n   136: u64 [sp + 0x8] = ra\n   139: u64 [sp] = s0\n   141: a2 = a1\n   143: s0 = a0\n   145: a1 = 0x20\n   148: a0 = a2\n   150: ra = 2, jump @28\n      : @18 [@dyn 1] (gas: 100)\n   155: a1 = u8 [a0 + 0x1]\n   158: a2 = u8 [a0]\n   160: a3 = u8 [a0 + 0x2]\n   163: a4 = u8 [a0 + 0x3]\n   166: a1 = a1 << 0x8\n   169: a1 = a1 | a2\n   172: a3 = a3 << 0x10\n   175: a4 = a4 << 0x18\n   178: a3 = a3 | a4\n   181: a1 = a1 | a3\n   184: a2 = u8 [a0 + 0x5]\n   187: a3 = u8 [a0 + 0x4]\n   190: a4 = u8 [a0 + 0x6]\n   193: a5 = u8 [a0 + 0x7]\n   196: a2 = a2 << 0x8\n   199: a2 = a2 | a3\n   202: a4 = a4 << 0x10\n   205: a5 = a5 << 0x18\n   208: a4 = a4 | a5\n   211: a2 = a2 | a4\n   214: a2 = a2 << 0x20\n   217: t0 = a2 | a1\n   220: a2 = u8 [a0 + 0x9]\n   223: a3 = u8 [a0 + 0x8]\n   226: a4 = u8 [a0 + 0xa]\n   229: a5 = u8 [a0 + 0xb]\n   232: a2 = a2 << 0x8\n   235: a2 = a2 | a3\n   238: a4 = a4 << 0x10\n   241: a5 = a5 << 0x18\n   244: a4 = a4 | a5\n   247: a2 = a2 | a4\n   250: a3 = u8 [a0 + 0xd]\n   253: a4 = u8 [a0 + 0xc]\n   256: a5 = u8 [a0 + 0xe]\n   259: a1 = u8 [a0 + 0xf]\n   262: a3 = a3 << 0x8\n   265: a3 = a3 | a4\n   268: a5 = a5 << 0x10\n   271: a1 = a1 << 0x18\n   274: a1 = a1 | a5\n   277: a1 = a1 | a3\n   280: a1 = a1 << 0x20\n   283: t1 = a1 | a2\n   286: a1 = u8 [a0 + 0x11]\n   289: a3 = u8 [a0 + 0x10]\n   292: a4 = u8 [a0 + 0x12]\n   295: a5 = u8 [a0 + 0x13]\n   298: a1 = a1 << 0x8\n   301: a1 = a1 | a3\n   304: a4 = a4 << 0x10\n   307: a5 = a5 << 0x18\n   310: a4 = a4 | a5\n   313: a1 = a1 | a4\n   316: a3 = u8 [a0 + 0x15]\n   319: a4 = u8 [a0 + 0x14]\n   322: a5 = u8 [a0 + 0x16]\n   325: a2 = u8 [a0 + 0x17]\n   328: a3 = a3 << 0x8\n   331: a3 = a3 | a4\n   334: a5 = a5 << 0x10\n   337: a2 = a2 << 0x18\n   340: a2 = a2 | a5\n   343: a2 = a2 | a3\n   346: a2 = a2 << 0x20\n   349: a3 = a2 | a1\n   352: a1 = u8 [a0 + 0x19]\n   355: a2 = u8 [a0 + 0x18]\n   358: a4 = u8 [a0 + 0x1a]\n   361: a5 = u8 [a0 + 0x1b]\n   364: a1 = a1 << 0x8\n   367: a1 = a1 | a2\n   370: a4 = a4 << 0x10\n   373: a5 = a5 << 0x18\n   376: a4 = a4 | a5\n   379: a1 = a1 | a4\n   382: a2 = u8 [a0 + 0x1d]\n   385: a4 = u8 [a0 + 0x1c]\n   388: a5 = u8 [a0 + 0x1e]\n   391: a0 = u8 [a0 + 0x1f]\n   394: a2 = a2 << 0x8\n   397: a2 = a2 | a4\n   400: a5 = a5 << 0x10\n   403: a0 = a0 << 0x18\n   406: a0 = a0 | a5\n   409: a0 = a0 | a2\n   412: a0 = a0 << 0x20\n   415: a0 = a0 | a1\n   418: a0 = reverse a0\n   420: a1 = reverse a3\n   422: a2 = reverse t1\n   424: a3 = reverse t0\n   426: u64 [s0 + 0x18] = a3\n   429: u64 [s0 + 0x10] = a2\n   432: u64 [s0 + 0x8] = a1\n   435: u64 [s0] = a0\n   437: ra = u64 [sp + 0x8]\n   440: s0 = u64 [sp]\n   442: sp = sp + 0x10\n   445: ret\n      : @19 (gas: 12)\n   447: sp = sp + 0xffffffffffffffd8\n   450: u64 [sp + 0x20] = ra\n   453: u64 [sp + 0x18] = s0\n   456: u64 [sp + 0x10] = s1\n   459: a2 = u64 [a1]\n   461: u64 [sp + 0x8] = a2\n   464: a2 = u64 [a1 + 0x8]\n   467: u64 [sp] = a2\n   469: s0 = u64 [a1 + 0x10]\n   472: s1 = u64 [a1 + 0x18]\n   475: a1 = 0x20\n   478: ra = 4, jump @28\n      : @20 [@dyn 2] (gas: 71)\n   483: a1 = reverse s1\n   485: a2 = reverse s0\n   487: a3 = u64 [sp]\n   489: a3 = reverse a3\n   491: a4 = u64 [sp + 0x8]\n   494: a4 = reverse a4\n   496: u8 [a0 + 0x18] = a4\n   499: u8 [a0 + 0x10] = a3\n   502: u8 [a0 + 0x8] = a2\n   505: u8 [a0] = a1\n   507: a5 = a4 >> 0x38\n   510: u8 [a0 + 0x1f] = a5\n   513: a5 = a4 >> 0x30\n   516: u8 [a0 + 0x1e] = a5\n   519: a5 = a4 >> 0x28\n   522: u8 [a0 + 0x1d] = a5\n   525: a5 = a4 >> 0x20\n   528: u8 [a0 + 0x1c] = a5\n   531: a5 = a4 >> 0x18\n   534: u8 [a0 + 0x1b] = a5\n   537: a5 = a4 >> 0x10\n   540: u8 [a0 + 0x1a] = a5\n   543: a4 = a4 >> 0x8\n   546: u8 [a0 + 0x19] = a4\n   549: a4 = a3 >> 0x38\n   552: u8 [a0 + 0x17] = a4\n   555: a4 = a3 >> 0x30\n   558: u8 [a0 + 0x16] = a4\n   561: a4 = a3 >> 0x28\n   564: u8 [a0 + 0x15] = a4\n   567: a4 = a3 >> 0x20\n   570: u8 [a0 + 0x14] = a4\n   573: a4 = a3 >> 0x18\n   576: u8 [a0 + 0x13] = a4\n   579: a4 = a3 >> 0x10\n   582: u8 [a0 + 0x12] = a4\n   585: a3 = a3 >> 0x8\n   588: u8 [a0 + 0x11] = a3\n   591: a3 = a2 >> 0x38\n   594: u8 [a0 + 0xf] = a3\n   597: a3 = a2 >> 0x30\n   600: u8 [a0 + 0xe] = a3\n   603: a3 = a2 >> 0x28\n   606: u8 [a0 + 0xd] = a3\n   609: a3 = a2 >> 0x20\n   612: u8 [a0 + 0xc] = a3\n   615: a3 = a2 >> 0x18\n   618: u8 [a0 + 0xb] = a3\n   621: a3 = a2 >> 0x10\n   624: u8 [a0 + 0xa] = a3\n   627: a2 = a2 >> 0x8\n   630: u8 [a0 + 0x9] = a2\n   633: a2 = a1 >> 0x38\n   636: u8 [a0 + 0x7] = a2\n   639: a2 = a1 >> 0x30\n   642: u8 [a0 + 0x6] = a2\n   645: a2 = a1 >> 0x28\n   648: u8 [a0 + 0x5] = a2\n   651: a2 = a1 >> 0x20\n   654: u8 [a0 + 0x4] = a2\n   657: a2 = a1 >> 0x18\n   660: u8 [a0 + 0x3] = a2\n   663: a2 = a1 >> 0x10\n   666: u8 [a0 + 0x2] = a2\n   669: a1 = a1 >> 0x8\n   672: u8 [a0 + 0x1] = a1\n   675: ra = u64 [sp + 0x20]\n   678: s0 = u64 [sp + 0x18]\n   681: s1 = u64 [sp + 0x10]\n   684: sp = sp + 0x28\n   687: ret\n      : @21 [@dyn 3] (gas: 32)\n   689: a0 = reverse a0\n   691: a2 = reverse a2\n   693: a3 = reverse a3\n   695: a1 = reverse a1\n   697: u64 [sp + 0x18] = a1\n   700: u64 [sp + 0x10] = a3\n   703: u64 [sp + 0x8] = a2\n   706: u64 [sp] = a0\n   708: u64 [sp + 56] = 0\n   711: u64 [sp + 48] = 0\n   714: u64 [sp + 40] = 0\n   717: u64 [sp + 32] = 0\n   720: u32 [sp + 64] = 0x20\n   724: i32 a1 = sp + 0\n   726: i32 a3 = sp + 0x20\n   729: i32 a4 = sp + 0x40\n   732: a2 = 0xffffffffffffffff\n   735: a0 = 0\n   737: ecalli 8 // 'get_storage'\n   739: a0 = u64 [sp + 0x38]\n   742: a1 = u64 [sp + 0x30]\n   745: a2 = u64 [sp + 0x28]\n   748: a3 = u64 [sp + 0x20]\n   751: a0 = reverse a0\n   753: a1 = reverse a1\n   755: a2 = reverse a2\n   757: a3 = reverse a3\n   759: u64 [s1 + 0x18] = a3\n   762: u64 [s1 + 0x10] = a2\n   765: u64 [s1 + 0x8] = a1\n   768: u64 [s1] = a0\n   770: t0 = 8, jump @752\n      : @22 [@dyn 4] (gas: 1)\n   775: ret\n      : @23 (gas: 40)\n   777: sp = sp + 0xffffffffffffffa0\n   780: u64 [sp + 0x58] = ra\n   783: u64 [sp + 0x50] = s0\n   786: s0 = sp + 0x60\n   789: sp = sp & 0xffffffffffffffe0\n   792: t0 = u64 [a0]\n   794: a3 = u64 [a0 + 0x8]\n   797: a4 = u64 [a0 + 0x10]\n   800: a0 = u64 [a0 + 0x18]\n   803: t1 = u64 [a1]\n   805: a2 = u64 [a1 + 0x8]\n   808: a5 = u64 [a1 + 0x10]\n   811: a1 = u64 [a1 + 0x18]\n   814: t2 = reverse a0\n   816: a4 = reverse a4\n   818: a3 = reverse a3\n   820: a0 = reverse t0\n   822: t0 = reverse a1\n   824: a5 = reverse a5\n   826: a2 = reverse a2\n   828: a1 = reverse t1\n   830: u64 [sp + 0x18] = a0\n   833: u64 [sp + 0x10] = a3\n   836: u64 [sp + 0x8] = a4\n   839: u64 [sp] = t2\n   841: u64 [sp + 0x38] = a1\n   844: u64 [sp + 0x30] = a2\n   847: u64 [sp + 0x28] = a5\n   850: u64 [sp + 0x20] = t0\n   853: i32 a1 = sp + 0\n   855: i32 a3 = sp + 0x20\n   858: a2 = 0xffffffffffffffff\n   861: a4 = 0x20\n   864: a0 = 0\n   866: ecalli 15 // 'set_storage'\n   868: sp = s0 + 0xffffffffffffffa0\n   871: ra = u64 [sp + 0x58]\n   874: s0 = u64 [sp + 0x50]\n   877: sp = sp + 0x60\n   880: ret\n      : @24 (gas: 24)\n   882: sp = sp + 0xffffffffffffff60\n   886: u64 [sp + 0x98] = ra\n   890: u64 [sp + 0x90] = s0\n   894: u64 [sp + 0x88] = s1\n   898: s0 = sp + 0xa0\n   902: sp = sp & 0xffffffffffffffe0\n   905: a4 = u64 [a3]\n   907: u64 [sp + 0x38] = a4\n   910: a4 = u64 [a3 + 0x8]\n   913: u64 [sp + 0x30] = a4\n   916: a4 = u64 [a3 + 0x10]\n   919: u64 [sp + 0x28] = a4\n   922: a3 = u64 [a3 + 0x18]\n   925: u64 [sp + 0x20] = a3\n   928: a3 = u64 [a2]\n   930: u64 [sp + 0x18] = a3\n   933: a3 = u64 [a2 + 0x8]\n   936: u64 [sp + 0x10] = a3\n   939: a3 = u64 [a2 + 0x10]\n   942: u64 [sp + 0x8] = a3\n   945: a2 = u64 [a2 + 0x18]\n   948: u64 [sp] = a2\n   950: s1 = a1\n   952: ra = 10, jump @28\n      : @25 [@dyn 5] (gas: 35)\n   957: a1 = u64 [sp]\n   959: a1 = reverse a1\n   961: a2 = u64 [sp + 0x8]\n   964: a2 = reverse a2\n   966: a3 = u64 [sp + 0x10]\n   969: a3 = reverse a3\n   971: a4 = u64 [sp + 0x18]\n   974: a4 = reverse a4\n   976: u64 [sp + 0x58] = a4\n   979: u64 [sp + 0x50] = a3\n   982: u64 [sp + 0x48] = a2\n   985: u64 [sp + 0x40] = a1\n   988: a1 = u64 [sp + 0x20]\n   991: a1 = reverse a1\n   993: a2 = u64 [sp + 0x28]\n   996: a2 = reverse a2\n   998: a3 = u64 [sp + 0x30]\n  1001: a3 = reverse a3\n  1003: a4 = u64 [sp + 0x38]\n  1006: a4 = reverse a4\n  1008: u64 [sp + 0x78] = a4\n  1011: u64 [sp + 0x70] = a3\n  1014: u64 [sp + 0x68] = a2\n  1017: u64 [sp + 0x60] = a1\n  1020: i32 a2 = a0 + 0\n  1022: i32 a3 = s1 + 0\n  1024: i32 a0 = sp + 0x40\n  1027: a1 = 0x2\n  1030: ecalli 7 // 'deposit_event'\n  1032: sp = s0 + 0xffffffffffffff60\n  1036: ra = u64 [sp + 0x98]\n  1040: s0 = u64 [sp + 0x90]\n  1044: s1 = u64 [sp + 0x88]\n  1048: sp = sp + 0xa0\n  1052: ret\n      : @26 [@dyn 6] (gas: 2)\n  1054: u64 [sp + 0x58] = a1\n  1057: ra = 14, jump @28\n      : @27 [@dyn 7] (gas: 58)\n  1062: a1 = reverse s1\n  1064: u64 [sp + 0x98] = a1\n  1068: a1 = u64 [sp]\n  1070: a1 = reverse a1\n  1072: u64 [sp + 0x90] = a1\n  1076: a1 = u64 [sp + 0x8]\n  1079: a1 = reverse a1\n  1081: u64 [sp + 0x88] = a1\n  1085: a1 = u64 [sp + 0x10]\n  1088: a1 = reverse a1\n  1090: u64 [sp + 0x80] = a1\n  1094: a1 = u64 [sp + 0x18]\n  1097: a1 = reverse a1\n  1099: u64 [sp + 0xb8] = a1\n  1103: a1 = u64 [sp + 0x20]\n  1106: a1 = reverse a1\n  1108: u64 [sp + 0xb0] = a1\n  1112: a1 = u64 [sp + 0x28]\n  1115: a1 = reverse a1\n  1117: u64 [sp + 0xa8] = a1\n  1121: a1 = u64 [sp + 0x30]\n  1124: a1 = reverse a1\n  1126: u64 [sp + 0xa0] = a1\n  1130: a1 = u64 [sp + 0x38]\n  1133: a1 = reverse a1\n  1135: u64 [sp + 0xd8] = a1\n  1139: a1 = u64 [sp + 0x40]\n  1142: a1 = reverse a1\n  1144: u64 [sp + 0xd0] = a1\n  1148: a1 = u64 [sp + 0x48]\n  1151: a1 = reverse a1\n  1153: u64 [sp + 0xc8] = a1\n  1157: a1 = u64 [sp + 0x50]\n  1160: a1 = reverse a1\n  1162: u64 [sp + 0xc0] = a1\n  1166: a1 = u64 [sp + 0x60]\n  1169: a1 = reverse a1\n  1171: u64 [sp + 0xf8] = a1\n  1175: a1 = u64 [sp + 0x68]\n  1178: a1 = reverse a1\n  1180: u64 [sp + 0xf0] = a1\n  1184: a1 = u64 [sp + 0x70]\n  1187: a1 = reverse a1\n  1189: u64 [sp + 0xe8] = a1\n  1193: a1 = u64 [sp + 0x78]\n  1196: a1 = reverse a1\n  1198: u64 [sp + 0xe0] = a1\n  1202: i32 a2 = a0 + 0\n  1204: a3 = i32 [sp + 0x58]\n  1207: i32 a0 = sp + 0x80\n  1211: a1 = 0x4\n  1214: ecalli 7 // 'deposit_event'\n  1216: sp = s0 + 0xfffffffffffffee0\n  1220: ra = u64 [sp + 0x118]\n  1224: s0 = u64 [sp + 0x110]\n  1228: s1 = u64 [sp + 0x108]\n  1232: sp = sp + 0x120\n  1236: ret\n      : @28 (gas: 2)\n  1238: i32 a2 = a0 >> 0x10\n  1241: jump @33 if a2 != 0\n      : @29 (gas: 4)\n  1244: a1 = a1 + a0\n  1247: i32 a1 = a1 + 0x1f\n  1250: a1 = a1 & 0xffffffffffffffe0\n  1253: jump @33 if a1 >u 65536\n      : @30 (gas: 3)\n  1259: a2 = 0x201ec\n  1264: a3 = i32 [0x201ec]\n  1269: jump @32 if a3 >=u a1\n      : @31 (gas: 2)\n  1272: u32 [0x201ec] = a1\n  1277: fallthrough\n      : @32 (gas: 4)\n  1278: a1 = 0x20200\n  1283: i32 a0 = a0 + 0\n  1285: a0 = a0 + a1\n  1288: ret\n      : @33 (gas: 1)\n  1290: trap\n      : @34 (gas: 6)\n  1291: sp = sp + 0xfffffffffffffff0\n  1294: u64 [sp + 0x8] = ra\n  1297: u64 [sp] = s0\n  1299: s0 = a0 & 0x1\n  1302: ecalli 4 // 'call_data_size'\n  1304: fallthrough\n      : @35 (gas: 2)\n  1305: u32 [0x201e8] = a0\n  1310: jump @37 if s0 == 0\n      : @36 (gas: 1)\n  1313: ra = 16, jump @38\n      : @37 [@dyn 8] (gas: 1)\n  1317: ra = 18, jump @47\n      : @38 [@dyn 9] (gas: 12)\n  1322: sp = sp + 0xffffffffffffffa0\n  1325: u64 [sp + 0x58] = ra\n  1328: u64 [sp + 0x50] = s0\n  1331: s0 = sp + 0x60\n  1334: sp = sp & 0xffffffffffffffe0\n  1337: u64 [sp + 24] = 0\n  1340: u64 [sp + 16] = 0\n  1343: u64 [sp + 0] = 0x80\n  1347: a0 = 0x40\n  1350: a1 = sp\n  1352: u64 [sp + 8] = 0\n  1355: ra = 20, jump @19\n      : @39 [@dyn 10] (gas: 7)\n  1360: u64 [sp + 56] = 0\n  1363: u64 [sp + 48] = 0\n  1366: u64 [sp + 40] = 0\n  1369: u64 [sp + 32] = 0\n  1372: i32 a0 = sp + 0x20\n  1375: ecalli 16 // 'value_transferred'\n  1377: fallthrough\n      : @40 (gas: 8)\n  1378: a0 = u64 [sp + 0x30]\n  1381: a1 = u64 [sp + 0x38]\n  1384: a2 = u64 [sp + 0x28]\n  1387: a3 = u64 [sp + 0x20]\n  1390: a1 = a1 | a2\n  1393: a0 = a0 | a3\n  1396: a0 = a0 | a1\n  1399: jump @42 if a0 == 0\n      : @41 (gas: 7)\n  1402: a1 = 0x20200\n  1407: i32 a1 = a1 + 0\n  1409: a0 = 0x1\n  1412: a2 = 0\n  1414: ra = 0x18\n  1417: ecalli 13 // 'seal_return'\n  1419: jump @47\n      : @42 (gas: 2)\n  1421: a1 = i32 [0x201ec]\n  1426: jump @44 if a1 >u 127\n      : @43 (gas: 2)\n  1430: u32 [0x201ec] = 0x80\n  1437: fallthrough\n      : @44 (gas: 6)\n  1438: a0 = 0x20200\n  1443: i32 a0 = a0 + 0x80\n  1447: a1 = 0\n  1449: a2 = 0\n  1451: ecalli 2 // 'call_data_copy'\n  1453: jump @15\n      : @45 (gas: 3)\n  1456: a0 = 0x80\n  1460: a1 = 0\n  1462: ra = 22, jump @28\n      : @46 [@dyn 11] (gas: 6)\n  1467: i32 a1 = a0 + 0\n  1469: a0 = 0\n  1471: a2 = 0\n  1473: ra = 0x18\n  1476: ecalli 13 // 'seal_return'\n  1478: fallthrough\n      : @47 [@dyn 12] (gas: 15)\n  1479: sp = sp + 0xfffffffffffffda0\n  1483: a0 = sp + 0x200\n  1487: u64 [a0 + 0x58] = ra\n  1490: u64 [a0 + 0x50] = s0\n  1493: u64 [a0 + 0x48] = s1\n  1496: s0 = sp + 0x260\n  1500: sp = sp & 0xffffffffffffffe0\n  1503: s1 = sp\n  1505: u64 [s1 + 472] = 0\n  1509: u64 [s1 + 464] = 0\n  1513: u64 [s1 + 448] = 0x80\n  1519: a0 = 0x40\n  1522: a1 = s1 + 0x1c0\n  1526: u64 [s1 + 456] = 0\n  1530: ra = 26, jump @19\n      : @48 [@dyn 13] (gas: 4)\n  1535: a0 = 0x201e8\n  1540: u64 [s1 + 0x38] = a0\n  1543: a0 = i32 [0x201e8]\n  1548: jump @63 if a0 <u 4\n      : @49 (gas: 5)\n  1553: i32 a0 = s1 + 0x1e0\n  1557: a1 = 0\n  1559: ra = 0x1c\n  1562: ecalli 3 // 'call_data_load'\n  1564: fallthrough\n      : @50 [@dyn 14] (gas: 3)\n  1565: a0 = i32 [s1 + 0x1fc]\n  1569: a1 = 0xffffffffe1254fba\n  1575: jump @55 if a0 == a1\n      : @51 (gas: 2)\n  1578: a1 = 0x2d0335ab\n  1584: jump @54 if a0 == a1\n      : @52 (gas: 1)\n  1587: jump @56 if a0 != 1192574850\n      : @53 (gas: 15)\n  1594: ra = 0x1e\n  1597: sp = sp + 0xfffffffffffffdc0\n  1601: a0 = sp + 0x200\n  1605: u64 [a0 + 0x38] = ra\n  1608: u64 [a0 + 0x30] = s0\n  1611: u64 [a0 + 0x28] = s1\n  1614: s0 = sp + 0x240\n  1618: sp = sp & 0xffffffffffffffe0\n  1621: u64 [sp + 440] = 0\n  1625: u64 [sp + 432] = 0\n  1629: u64 [sp + 424] = 0\n  1633: u64 [sp + 416] = 0\n  1637: i32 a0 = sp + 0x1a0\n  1641: ecalli 16 // 'value_transferred'\n  1643: jump @143\n      : @54 [@dyn 15] (gas: 3)\n  1646: ra = 0x20\n  1649: t0 = 0x4e\n  1652: jump @735\n      : @55 [@dyn 16] (gas: 3)\n  1655: ra = 0x22\n  1658: t0 = 0xb0\n  1662: jump @735\n      : @56 [@dyn 17] (gas: 2)\n  1665: a1 = 0x673448dd\n  1671: jump @58 if a0 != a1\n      : @57 (gas: 3)\n  1674: ra = 0x24\n  1677: t0 = 0x90\n  1681: jump @735\n      : @58 [@dyn 18] (gas: 1)\n  1684: jump @62 if a0 != 306335295\n      : @59 (gas: 7)\n  1691: u64 [s1 + 536] = 0\n  1695: u64 [s1 + 528] = 0\n  1699: u64 [s1 + 520] = 0\n  1703: u64 [s1 + 512] = 0\n  1707: i32 a0 = s1 + 0x200\n  1711: ecalli 16 // 'value_transferred'\n  1713: fallthrough\n      : @60 (gas: 9)\n  1714: a4 = s1 + 0x200\n  1718: a0 = u64 [a4 + 0x10]\n  1721: a1 = u64 [a4 + 0x18]\n  1724: a2 = u64 [a4 + 0x8]\n  1727: a3 = u64 [a4]\n  1729: a1 = a1 | a2\n  1732: a0 = a0 | a3\n  1735: a0 = a0 | a1\n  1738: jump @67 if a0 == 0\n      : @61 (gas: 6)\n  1741: a1 = 0x20200\n  1746: i32 a1 = a1 + 0\n  1748: a0 = 0x1\n  1751: a2 = 0\n  1753: ecalli 13 // 'seal_return'\n  1755: jump @67\n      : @62 (gas: 3)\n  1757: a0 = u64 [s1 + 0x38]\n  1760: a0 = i32 [a0]\n  1762: fallthrough\n      : @63 (gas: 1)\n  1763: jump @65 if a0 == 0\n      : @64 (gas: 6)\n  1766: a1 = 0x20200\n  1771: i32 a1 = a1 + 0\n  1773: a0 = 0x1\n  1776: a2 = 0\n  1778: ecalli 13 // 'seal_return'\n  1780: jump @67\n      : @65 (gas: 17)\n  1782: ra = 0x26\n  1785: sp = sp + 0xfffffffffffffe60\n  1789: u64 [sp + 0x198] = ra\n  1793: u64 [sp + 0x190] = s0\n  1797: u64 [sp + 0x188] = s1\n  1801: s0 = sp + 0x1a0\n  1805: sp = sp & 0xffffffffffffffe0\n  1808: s1 = sp\n  1810: a0 = 0x30200\n  1815: u64 [s1 + 0x28] = a0\n  1818: i32 a0 = a0 + 0\n  1820: u64 [s1 + 0x8] = a0\n  1823: ra = 0x20e\n  1827: ecalli 5 // 'caller'\n  1829: a2 = u64 [s1 + 0x28]\n  1832: t0 = 0x210\n  1836: jump @733\n      : @66 [@dyn 19] (gas: 6)\n  1839: a1 = 0x20200\n  1844: i32 a1 = a1 + 0\n  1846: a0 = 0\n  1848: a2 = 0\n  1850: ecalli 13 // 'seal_return'\n  1852: fallthrough\n      : @67 (gas: 3)\n  1853: a0 = u64 [s1 + 0x38]\n  1856: a0 = i32 [a0]\n  1858: jump @69 if a0 >u 3\n      : @68 (gas: 6)\n  1862: a1 = 0x20200\n  1867: i32 a1 = a1 + 0\n  1869: a0 = 0x1\n  1872: a2 = 0\n  1874: ecalli 13 // 'seal_return'\n  1876: jump @67\n      : @69 (gas: 9)\n  1878: a0 = 0x30200\n  1883: u64 [s1 + 0x38] = a0\n  1886: i32 a0 = a0 + 0\n  1888: u64 [s1 + 0x20] = a0\n  1891: ra = 0x28\n  1894: ecalli 5 // 'caller'\n  1896: a2 = u64 [s1 + 0x38]\n  1899: t0 = 0x2a\n  1902: jump @733\n      : @70 [@dyn 20] (gas: 2)\n  1905: a2 = u64 [s1 + 0x38]\n  1908: t0 = 42, jump @733\n      : @71 [@dyn 21] (gas: 7)\n  1913: u64 [s1 + 440] = 0\n  1917: u64 [s1 + 0x1b0] = a1\n  1921: u64 [s1 + 0x1a8] = a0\n  1925: a1 = s1 + 0x1a0\n  1929: u64 [s1 + 0x1a0] = a3\n  1933: a0 = 0\n  1935: ra = 44, jump @19\n      : @72 [@dyn 22] (gas: 7)\n  1940: u64 [s1 + 408] = 0\n  1944: u64 [s1 + 400] = 0\n  1948: u64 [s1 + 384] = 0x1\n  1953: a0 = 0x20\n  1956: a1 = s1 + 0x180\n  1960: u64 [s1 + 392] = 0\n  1964: ra = 46, jump @19\n      : @73 [@dyn 23] (gas: 4)\n  1969: a0 = 0x201ec\n  1974: u64 [s1 + 0x30] = a0\n  1977: a0 = i32 [0x201ec]\n  1982: jump @75 if a0 >u 63\n      : @74 (gas: 3)\n  1986: a1 = u64 [s1 + 0x30]\n  1989: u32 [a1 + 0] = 0x40\n  1992: fallthrough\n      : @75 (gas: 15)\n  1993: a0 = sp + 0xffffffffffffffe0\n  1996: a2 = a0 & 0xffffffffffffffe0\n  1999: u64 [s1 + 0x28] = a2\n  2002: sp = a2\n  2004: a0 = 0x20200\n  2009: u64 [s1 + 0x18] = a0\n  2012: i32 a0 = a0 + 0\n  2014: i32 a2 = a2 + 0\n  2016: a1 = 0x40\n  2019: u64 [s1 + 0x10] = a0\n  2022: ra = 0x30\n  2025: ecalli 9 // 'hash_keccak_256'\n  2027: a3 = u64 [s1 + 0x28]\n  2030: t0 = 0x32\n  2033: jump @740\n      : @76 [@dyn 24] (gas: 2)\n  2036: a3 = u64 [s1 + 0x28]\n  2039: t0 = 50, jump @740\n      : @77 [@dyn 25] (gas: 10)\n  2044: a4 = s1 + 0x200\n  2048: u64 [a4 + 0x38] = a3\n  2051: u64 [a4 + 0x30] = a2\n  2054: u64 [a4 + 0x28] = a1\n  2057: u64 [a4 + 0x20] = a0\n  2060: a0 = s1 + 0x160\n  2064: a1 = s1 + 0x220\n  2068: ra = 0x34\n  2071: t0 = 0x6\n  2074: jump @739\n      : @78 [@dyn 26] (gas: 2)\n  2077: a0 = u8 [s1 + 0x160]\n  2081: jump @86 if a0 == 0\n      : @79 (gas: 8)\n  2085: u64 [s1 + 336] = 0\n  2089: u64 [s1 + 328] = 0\n  2093: a0 = 0x8c379a000000000\n  2103: u64 [s1 + 0x158] = a0\n  2107: a0 = 0x80\n  2111: a1 = s1 + 0x140\n  2115: u64 [s1 + 320] = 0\n  2119: ra = 54, jump @19\n      : @80 [@dyn 27] (gas: 7)\n  2124: u64 [s1 + 312] = 0\n  2128: u64 [s1 + 304] = 0\n  2132: u64 [s1 + 288] = 0x20\n  2137: a0 = 0x84\n  2141: a1 = s1 + 0x120\n  2145: u64 [s1 + 296] = 0\n  2149: ra = 56, jump @19\n      : @81 [@dyn 28] (gas: 7)\n  2154: u64 [s1 + 280] = 0\n  2158: u64 [s1 + 272] = 0\n  2162: u64 [s1 + 256] = 0x1f\n  2167: a0 = 0xa4\n  2171: a1 = s1 + 0x100\n  2175: u64 [s1 + 264] = 0\n  2179: ra = 58, jump @19\n      : @82 [@dyn 29] (gas: 11)\n  2184: a0 = u64 [0x20000]\n  2189: a1 = u64 [0x20008]\n  2194: u64 [s1 + 0xf8] = a0\n  2198: a0 = u64 [0x20010]\n  2203: u64 [s1 + 0xf0] = a1\n  2207: a2 = u64 [0x20018]\n  2212: u64 [s1 + 0xe8] = a0\n  2216: a0 = 0xc4\n  2220: a1 = s1 + 0xe0\n  2224: u64 [s1 + 0xe0] = a2\n  2228: ra = 60, jump @19\n      : @83 [@dyn 30] (gas: 3)\n  2233: a0 = u64 [s1 + 0x30]\n  2236: a0 = i32 [a0]\n  2238: jump @85 if a0 >u 255\n      : @84 (gas: 3)\n  2243: a1 = u64 [s1 + 0x30]\n  2246: u32 [a1 + 0] = 0x100\n  2250: fallthrough\n      : @85 (gas: 6)\n  2251: a0 = u64 [s1 + 0x18]\n  2254: i32 a1 = a0 + 0x80\n  2258: a0 = 0x1\n  2261: a2 = 0x64\n  2264: ecalli 13 // 'seal_return'\n  2266: fallthrough\n      : @86 (gas: 6)\n  2267: a0 = u64 [s1 + 0x20]\n  2270: ra = 0x3e\n  2273: ecalli 5 // 'caller'\n  2275: a2 = u64 [s1 + 0x38]\n  2278: t0 = 0x40\n  2281: jump @733\n      : @87 [@dyn 31] (gas: 2)\n  2284: a2 = u64 [s1 + 0x38]\n  2287: t0 = 64, jump @733\n      : @88 [@dyn 32] (gas: 9)\n  2292: u64 [s1 + 184] = 0\n  2296: u64 [s1 + 0xb0] = a1\n  2300: u64 [s1 + 0xa8] = a0\n  2304: a0 = s1 + 0xc0\n  2308: a1 = s1 + 0xa0\n  2312: u64 [s1 + 0xa0] = a3\n  2316: ra = 0x42\n  2319: t0 = 0xd8\n  2323: jump @730\n      : @89 [@dyn 33] (gas: 28)\n  2326: a1 = u64 [s1 + 0xc0]\n  2330: a0 = u64 [s1 + 0xc8]\n  2334: a2 = u64 [s1 + 0xd0]\n  2338: a3 = u64 [s1 + 0xd8]\n  2342: u64 [s1 + 0x98] = a3\n  2346: u64 [s1 + 0x90] = a2\n  2350: u64 [s1 + 0x88] = a0\n  2354: a0 = s1 + 0x80\n  2358: u64 [s1 + 0x80] = a1\n  2362: ra = 0x44\n  2365: sp = sp + 0xffffffffffffff80\n  2368: u64 [sp + 0x78] = ra\n  2371: u64 [sp + 0x70] = s0\n  2374: s0 = sp + 0x80\n  2378: sp = sp & 0xffffffffffffffe0\n  2381: a1 = u64 [a0 + 0x18]\n  2384: a2 = u64 [a0 + 0x10]\n  2387: a3 = u64 [a0 + 0x8]\n  2390: a0 = u64 [a0]\n  2392: u64 [sp + 0x38] = a1\n  2395: u64 [sp + 0x30] = a2\n  2398: u64 [sp + 0x28] = a3\n  2401: u64 [sp + 0x20] = a0\n  2404: a0 = sp\n  2406: a1 = sp + 0x20\n  2409: ra = 0xf6\n  2413: t0 = 0x6\n  2416: jump @739\n      : @90 [@dyn 34] (gas: 6)\n  2419: a0 = u64 [s1 + 0x20]\n  2422: ra = 0x46\n  2425: ecalli 5 // 'caller'\n  2427: a2 = u64 [s1 + 0x38]\n  2430: t0 = 0x48\n  2433: jump @757\n      : @91 [@dyn 35] (gas: 2)\n  2436: a2 = u64 [s1 + 0x38]\n  2439: t0 = 72, jump @757\n      : @92 [@dyn 36] (gas: 23)\n  2444: t0 = a1 | a0\n  2447: a3 = a3 >> 0x20\n  2450: a1 = reverse a2\n  2452: a2 = a1 << 0x20\n  2455: a2 = a2 | a3\n  2458: a1 = a1 >> 0x20\n  2461: u64 [s1 + 88] = 0\n  2464: a3 = u64 [0x20020]\n  2469: a4 = u64 [0x20028]\n  2474: a5 = u64 [0x20030]\n  2479: a0 = u64 [0x20038]\n  2484: u64 [s1 + 0x78] = a3\n  2487: u64 [s1 + 0x70] = a4\n  2490: u64 [s1 + 0x68] = a5\n  2493: u64 [s1 + 0x60] = a0\n  2496: u64 [s1 + 0x50] = a1\n  2499: u64 [s1 + 0x48] = a2\n  2502: a2 = s1 + 0x60\n  2505: a3 = s1 + 0x40\n  2508: u64 [s1 + 0x40] = t0\n  2511: a0 = 0\n  2513: a1 = 0\n  2515: ra = 74, jump @24\n      : @93 [@dyn 37] (gas: 5)\n  2520: a0 = 0\n  2522: a1 = u64 [s1 + 0x10]\n  2525: a2 = 0\n  2527: ecalli 13 // 'seal_return'\n  2529: jump @67\n      : @94 (gas: 10)\n  2532: a1 = u64 [a0 + 0x10]\n  2535: a0 = u64 [a0 + 0x18]\n  2538: a2 = 0x100000000\n  2548: a2 = a2 ^ a1\n  2551: a2 = a2 | a0\n  2554: a1 = a1 >> 0x20\n  2557: a1 = a1 <u 0x1\n  2560: a1 = 0 if a0 != 0\n  2562: a1 = 0 if a2 == 0\n  2564: jump @96 if a1 == 0\n      : @95 (gas: 1)\n  2567: ret\n      : @96 (gas: 10)\n  2569: sp = sp + 0xfffffffffffffff8\n  2572: u64 [sp] = ra\n  2574: a1 = 0x20200\n  2579: i32 a1 = a1 + 0\n  2581: a0 = 0x1\n  2584: a2 = 0\n  2586: ra = 0x4c\n  2589: ecalli 13 // 'seal_return'\n  2591: t0 = 0x4e\n  2594: jump @735\n      : @97 [@dyn 38] (gas: 1)\n  2597: t0 = 78, jump @735\n      : @98 [@dyn 39] (gas: 4)\n  2602: ra = 0x50\n  2605: ecalli 16 // 'value_transferred'\n  2607: t0 = 0x52\n  2610: jump @754\n      : @99 [@dyn 40] (gas: 1)\n  2613: t0 = 82, jump @754\n      : @100 [@dyn 41] (gas: 1)\n  2618: jump @118 if a0 != 0\n      : @101 (gas: 2)\n  2622: a0 = i32 [0x201e8]\n  2627: jump @119 if a0 <=u 35\n      : @102 (gas: 6)\n  2632: i32 a0 = s1 + 0x100\n  2636: a1 = 0x4\n  2639: ra = 0x54\n  2642: ecalli 3 // 'call_data_load'\n  2644: t0 = 0x56\n  2647: jump @734\n      : @103 [@dyn 42] (gas: 1)\n  2650: t0 = 86, jump @734\n      : @104 [@dyn 43] (gas: 1)\n  2655: ra = 88, jump @94\n      : @105 [@dyn 44] (gas: 1)\n  2659: t0 = 90, jump @738\n      : @106 [@dyn 45] (gas: 1)\n  2664: ra = 92, jump @19\n      : @107 [@dyn 46] (gas: 7)\n  2669: u64 [s1 + 152] = 0\n  2673: u64 [s1 + 144] = 0\n  2677: u64 [s1 + 136] = 0\n  2681: a0 = 0x20\n  2684: a1 = s1 + 0x80\n  2688: u64 [s1 + 128] = 0\n  2692: ra = 94, jump @19\n      : @108 [@dyn 47] (gas: 2)\n  2697: a1 = i32 [0x201ec]\n  2702: jump @110 if a1 >u 63\n      : @109 (gas: 2)\n  2706: u32 [0x201ec] = 0x40\n  2712: fallthrough\n      : @110 (gas: 12)\n  2713: a0 = sp + 0xffffffffffffffe0\n  2716: a2 = a0 & 0xffffffffffffffe0\n  2719: u64 [s1 + 0x18] = a2\n  2722: sp = a2\n  2724: a0 = 0x20200\n  2729: i32 a0 = a0 + 0\n  2731: i32 a2 = a2 + 0\n  2733: a1 = 0x40\n  2736: ra = 0x60\n  2739: ecalli 9 // 'hash_keccak_256'\n  2741: t0 = 0x62\n  2744: jump @727\n      : @111 [@dyn 48] (gas: 1)\n  2747: t0 = 98, jump @727\n      : @112 [@dyn 49] (gas: 3)\n  2752: ra = 0x64\n  2755: t0 = 0x6\n  2758: jump @739\n      : @113 [@dyn 50] (gas: 1)\n  2761: t0 = 102, jump @747\n      : @114 [@dyn 51] (gas: 1)\n  2766: ra = 104, jump @17\n      : @115 [@dyn 52] (gas: 1)\n  2771: t0 = 106, jump @746\n      : @116 [@dyn 53] (gas: 1)\n  2776: jump @121 if a0 == 0\n      : @117 (gas: 1)\n  2779: trap\n      : @118 (gas: 2)\n  2780: a1 = 0x20200\n  2785: jump @120\n      : @119 (gas: 2)\n  2787: a1 = 0x20200\n  2792: fallthrough\n      : @120 (gas: 7)\n  2793: i32 a1 = a1 + 0\n  2795: a0 = 0x1\n  2798: a2 = 0\n  2800: ra = 0x6c\n  2803: ecalli 13 // 'seal_return'\n  2805: t0 = 0x6e\n  2808: jump @745\n      : @121 [@dyn 54] (gas: 1)\n  2811: t0 = 110, jump @745\n      : @122 [@dyn 55] (gas: 1)\n  2816: ra = 112, jump @19\n      : @123 [@dyn 56] (gas: 3)\n  2821: a1 = 0x20\n  2824: a0 = u64 [s1 + 0x18]\n  2827: ra = 114, jump @28\n      : @124 [@dyn 57] (gas: 6)\n  2832: i32 a1 = a0 + 0\n  2834: a2 = 0x20\n  2837: a0 = 0\n  2839: ra = 0x74\n  2842: ecalli 13 // 'seal_return'\n  2844: fallthrough\n      : @125 [@dyn 58] (gas: 21)\n  2845: sp = sp + 0xfffffffffffffed0\n  2849: u64 [sp + 0x128] = ra\n  2853: u64 [sp + 0x120] = s0\n  2857: u64 [sp + 0x118] = s1\n  2861: s0 = sp + 0x130\n  2865: sp = sp & 0xfffffffffffffff0\n  2868: s1 = u64 [a1 + 0x10]\n  2871: a4 = u64 [a1 + 0x18]\n  2874: a5 = u64 [a1 + 0x8]\n  2877: t0 = u64 [a1]\n  2879: u64 [sp + 0x58] = a4\n  2882: u64 [sp + 0x68] = a5\n  2885: a1 = a5 | a4\n  2888: a4 = t0 | s1\n  2891: a4 = a4 | a1\n  2894: a4 = a4 >> 0x20\n  2897: a1 = a1 | s1\n  2900: a1 = a1 << 0x20\n  2903: a1 = a1 | a4\n  2906: u64 [sp] = a0\n  2908: jump @142 if a1 != 0\n      : @126 (gas: 24)\n  2912: a0 = u64 [a3 + 0x18]\n  2915: u64 [sp + 0x48] = a0\n  2918: a0 = u64 [a3 + 0x10]\n  2921: u64 [sp + 0x40] = a0\n  2924: a0 = u64 [a2 + 0x18]\n  2927: a1 = u64 [a2 + 0x10]\n  2930: a4 = u64 [a2]\n  2932: a2 = u64 [a2 + 0x8]\n  2935: a5 = u64 [a3 + 0x8]\n  2938: u64 [sp + 0x38] = a5\n  2941: a3 = u64 [a3]\n  2943: u64 [sp + 0x50] = a3\n  2946: a1 = a1 | a4\n  2949: a0 = a0 | a2\n  2952: a0 = a0 | a1\n  2955: a0 = a0 >u 0\n  2957: u64 [sp + 264] = 0\n  2961: u64 [sp + 256] = 0\n  2965: u64 [sp + 248] = 0\n  2969: a1 = sp + 0xf0\n  2973: u64 [sp + 0xf0] = a0\n  2977: a0 = t0\n  2979: u64 [sp + 0x60] = t0\n  2982: ra = 118, jump @19\n      : @127 [@dyn 59] (gas: 11)\n  2987: a2 = u64 [sp + 0x60]\n  2990: u64 [sp + 0x28] = s1\n  2993: a1 = u64 [sp + 0x58]\n  2996: a1 = a1 | s1\n  2999: a0 = 0xffffffe0\n  3009: a0 = a2 <u a0\n  3012: a3 = u64 [sp + 0x68]\n  3015: a0 = 0 if a3 != 0\n  3017: u64 [sp + 0x30] = a1\n  3020: a0 = 0 if a1 != 0\n  3022: jump @142 if a0 == 0\n      : @128 (gas: 8)\n  3026: i32 a0 = a2 + 0x20\n  3029: u64 [sp + 232] = 0\n  3033: u64 [sp + 224] = 0\n  3037: u64 [sp + 208] = 0x40\n  3042: a1 = sp + 0xd0\n  3046: u64 [sp + 216] = 0\n  3050: s1 = a2\n  3052: ra = 120, jump @19\n      : @129 [@dyn 60] (gas: 12)\n  3057: a2 = u64 [sp + 0x40]\n  3060: a3 = u64 [sp + 0x50]\n  3063: a0 = a3 | a2\n  3066: a1 = u64 [sp + 0x48]\n  3069: a4 = u64 [sp + 0x38]\n  3072: a1 = a1 | a4\n  3075: a0 = a0 | a1\n  3078: a0 = a0 >> 0x20\n  3081: a1 = a1 | a2\n  3084: a1 = a1 << 0x20\n  3087: a0 = a0 | a1\n  3090: jump @142 if a0 != 0\n      : @130 (gas: 3)\n  3094: a1 = a3\n  3096: a0 = sp + 0xb0\n  3100: ra = 122, jump @17\n      : @131 [@dyn 61] (gas: 9)\n  3105: a0 = 0x100000000\n  3115: u64 [sp + 0x8] = a0\n  3118: a0 = 0xffffffc0\n  3128: a0 = s1 <u a0\n  3131: a1 = u64 [sp + 0x68]\n  3134: a0 = 0 if a1 != 0\n  3136: a1 = u64 [sp + 0x30]\n  3139: a0 = 0 if a1 != 0\n  3141: jump @142 if a0 == 0\n      : @132 (gas: 15)\n  3145: a2 = u64 [sp + 0xc8]\n  3149: a3 = u64 [sp + 0xc0]\n  3153: a5 = u64 [sp + 0xb8]\n  3157: a4 = u64 [sp + 0xb0]\n  3161: i32 a0 = s1 + 0x40\n  3164: u64 [sp + 0x10] = a4\n  3167: u64 [sp + 0x90] = a4\n  3171: u64 [sp + 0x18] = a5\n  3174: u64 [sp + 0x98] = a5\n  3178: s1 = a3\n  3180: u64 [sp + 0xa0] = a3\n  3184: a1 = sp + 0x90\n  3188: u64 [sp + 0x20] = a2\n  3191: u64 [sp + 0xa8] = a2\n  3195: ra = 124, jump @19\n      : @133 [@dyn 62] (gas: 9)\n  3200: a2 = u64 [sp + 0x60]\n  3203: a0 = u64 [sp + 0x8]\n  3206: a0 = a0 + 0xffffffffffffffa0\n  3209: a0 = a2 <u a0\n  3212: a1 = u64 [sp + 0x68]\n  3215: a0 = 0 if a1 != 0\n  3217: a1 = u64 [sp + 0x30]\n  3220: a0 = 0 if a1 != 0\n  3222: jump @142 if a0 == 0\n      : @134 (gas: 10)\n  3226: a0 = u64 [sp + 0x48]\n  3229: a1 = u64 [sp + 0x40]\n  3232: a0 = a0 | a1\n  3235: a1 = 0xffffffe0\n  3245: a3 = u64 [sp + 0x50]\n  3248: a1 = a3 <u a1\n  3251: a4 = u64 [sp + 0x38]\n  3254: a1 = 0 if a4 != 0\n  3256: a1 = 0 if a0 != 0\n  3258: jump @142 if a1 == 0\n      : @135 (gas: 12)\n  3262: a1 = u64 [sp + 0x10]\n  3265: a0 = a1 | s1\n  3268: a4 = u64 [sp + 0x20]\n  3271: a5 = u64 [sp + 0x18]\n  3274: a4 = a4 | a5\n  3277: a0 = a0 | a4\n  3280: a0 = a0 >> 0x20\n  3283: u64 [sp + 0x48] = s1\n  3286: a4 = a4 | s1\n  3289: a4 = a4 << 0x20\n  3292: a0 = a0 | a4\n  3295: jump @142 if a0 != 0\n      : @136 (gas: 5)\n  3299: i32 a0 = a2 + 0x60\n  3302: i32 a3 = a3 + 0x20\n  3305: u64 [sp + 0x50] = a3\n  3308: s1 = a1\n  3310: ra = 126, jump @28\n      : @137 [@dyn 63] (gas: 4)\n  3315: u64 [sp + 0x40] = a0\n  3318: a0 = u64 [sp + 0x50]\n  3321: a1 = s1\n  3323: ra = 128, jump @28\n      : @138 [@dyn 64] (gas: 4)\n  3329: a1 = a0\n  3331: a0 = u64 [sp + 0x40]\n  3334: a2 = s1\n  3336: ra = 130, jump @0\n      : @139 [@dyn 65] (gas: 27)\n  3342: a0 = u64 [sp + 0x60]\n  3345: a0 = a0 + s1\n  3348: a1 = a0 <u s1\n  3351: a2 = u64 [sp + 0x68]\n  3354: a4 = u64 [sp + 0x18]\n  3357: a2 = a2 + a4\n  3360: a2 = a2 + a1\n  3363: a3 = a2 ^ a4\n  3366: a4 = a2 <u a4\n  3369: a4 = a1 if a3 == 0\n  3372: a1 = u64 [sp + 0x28]\n  3375: a3 = u64 [sp + 0x48]\n  3378: a1 = a1 + a3\n  3381: a3 = a1 <u a3\n  3384: a5 = u64 [sp + 0x58]\n  3387: s1 = u64 [sp + 0x20]\n  3390: a5 = a5 + s1\n  3393: a3 = a3 + a5\n  3396: a4 = a4 + a1\n  3399: a1 = a4 <u a1\n  3402: a1 = a1 + a3\n  3405: a1 = a1 | a4\n  3408: a3 = 0xffffffa0\n  3418: a3 = a0 <u a3\n  3421: a3 = 0 if a2 != 0\n  3423: a3 = 0 if a1 != 0\n  3425: jump @142 if a3 == 0\n      : @140 (gas: 7)\n  3429: i32 a0 = a0 + 0x60\n  3432: u64 [sp + 136] = 0\n  3436: u64 [sp + 128] = 0\n  3440: u64 [sp + 120] = 0\n  3443: a1 = sp + 0x70\n  3446: u64 [sp + 112] = 0\n  3449: ra = 132, jump @19\n      : @141 [@dyn 66] (gas: 35)\n  3455: s1 = u64 [sp + 0x10]\n  3458: s1 = s1 + 0x1f\n  3461: a0 = 0x1ffffffe0\n  3471: a0 = a0 & s1\n  3474: a1 = u64 [sp + 0x60]\n  3477: a0 = a0 + a1\n  3480: a1 = a0 <u a1\n  3483: a3 = u64 [sp + 0x68]\n  3486: a2 = a3 + a1\n  3489: a3 = a2 <u a3\n  3492: a3 = a1 if a1 == 0\n  3495: a1 = u64 [sp + 0x28]\n  3498: a3 = a3 + a1\n  3501: a1 = a3 <u a1\n  3504: a4 = u64 [sp + 0x58]\n  3507: a1 = a1 + a4\n  3510: a4 = a0 + 0x60\n  3513: a0 = a4 <u a0\n  3516: a5 = a2 + a0\n  3519: a2 = a5 <u a2\n  3522: a2 = a0 if a0 == 0\n  3525: a2 = a2 + a3\n  3528: a0 = a2 <u a3\n  3531: a0 = a0 + a1\n  3534: a1 = u64 [sp]\n  3536: u64 [a1] = a4\n  3538: u64 [a1 + 0x8] = a5\n  3541: u64 [a1 + 0x10] = a2\n  3544: u64 [a1 + 0x18] = a0\n  3547: sp = s0 + 0xfffffffffffffed0\n  3551: ra = u64 [sp + 0x128]\n  3555: s0 = u64 [sp + 0x120]\n  3559: s1 = u64 [sp + 0x118]\n  3563: sp = sp + 0x130\n  3567: ret\n      : @142 (gas: 1)\n  3569: trap\n      : @143 (gas: 8)\n  3570: a0 = u64 [sp + 0x1b0]\n  3574: a1 = u64 [sp + 0x1b8]\n  3578: a2 = u64 [sp + 0x1a8]\n  3582: a3 = u64 [sp + 0x1a0]\n  3586: a1 = a1 | a2\n  3589: a0 = a0 | a3\n  3592: a0 = a0 | a1\n  3595: jump @160 if a0 != 0\n      : @144 (gas: 4)\n  3599: a0 = 0x201e8\n  3604: u64 [sp + 0x58] = a0\n  3607: a0 = i32 [0x201e8]\n  3612: jump @161 if a0 <=u 67\n      : @145 (gas: 4)\n  3617: i32 a0 = sp + 0x1c0\n  3621: a1 = 0x4\n  3624: ecalli 3 // 'call_data_load'\n  3626: fallthrough\n      : @146 (gas: 7)\n  3627: t0 = u64 [sp + 0x1d8]\n  3631: a5 = u64 [sp + 0x1d0]\n  3635: s1 = u64 [sp + 0x1c8]\n  3639: a0 = a5 | t0\n  3642: a1 = s1 <u 0x1\n  3645: a1 = 0 if a0 != 0\n  3647: jump @162 if a1 == 0\n      : @147 (gas: 29)\n  3651: a4 = u64 [sp + 0x1c0]\n  3655: a0 = u64 [sp + 0x58]\n  3658: a0 = u32 [a0]\n  3660: a1 = a0 <u a4\n  3663: a2 = s1 >u 0\n  3665: a2 = a1 if s1 == 0\n  3668: a3 = -a5\n  3670: t1 = a3 - a2\n  3673: a2 = a3 <u a2\n  3676: u64 [sp + 0x48] = a5\n  3679: a3 = a5 >u 0\n  3681: a3 = a3 + t0\n  3684: a3 = -a3\n  3686: a3 = a3 - a2\n  3689: u64 [sp + 0x40] = s1\n  3692: a2 = -s1\n  3694: a2 = a2 - a1\n  3697: u64 [sp + 0x38] = a4\n  3700: a0 = a0 - a4\n  3703: a1 = a3 >s 0\n  3705: a5 = t1 >u 0\n  3707: a5 = a1 if a3 != 0\n  3710: a0 = a0 <u 0xc4\n  3714: a0 = a0 ^ 0x1\n  3717: a1 = a2 >u 0\n  3719: a1 = a0 if a2 == 0\n  3722: a3 = t1 | a3\n  3725: a1 = a5 if a3 != 0\n  3728: jump @163 if a1 == 0\n      : @148 (gas: 5)\n  3732: u64 [sp + 0x50] = t0\n  3735: i32 a0 = sp + 0x1e0\n  3739: a1 = 0x24\n  3742: ecalli 3 // 'call_data_load'\n  3744: fallthrough\n      : @149 (gas: 7)\n  3745: a5 = u64 [sp + 0x1f8]\n  3749: a3 = u64 [sp + 0x1f0]\n  3753: a4 = u64 [sp + 0x1e8]\n  3757: a0 = a3 | a5\n  3760: a1 = a4 <u 0x1\n  3763: a1 = 0 if a0 != 0\n  3765: jump @164 if a1 == 0\n      : @150 (gas: 19)\n  3769: s1 = u64 [sp + 0x1e0]\n  3773: a0 = u64 [sp + 0x58]\n  3776: a0 = u32 [a0]\n  3778: a1 = s1 + 0x23\n  3781: a2 = a1 <u s1\n  3784: t0 = a4 + a2\n  3787: u64 [sp + 0x18] = a4\n  3790: a4 = t0 <u a4\n  3793: a4 = a2 if a2 == 0\n  3796: a4 = a4 + a3\n  3799: u64 [sp + 0x20] = a3\n  3802: a2 = a4 <u a3\n  3805: u64 [sp + 0x28] = a5\n  3808: a2 = a2 + a5\n  3811: a2 = a2 | a4\n  3814: a0 = a1 <u a0\n  3817: a0 = 0 if t0 != 0\n  3819: a0 = 0 if a2 != 0\n  3821: jump @165 if a0 == 0\n      : @151 (gas: 4)\n  3825: i32 a1 = s1 + 0x4\n  3828: i32 a0 = sp + 0x200\n  3832: ecalli 3 // 'call_data_load'\n  3834: fallthrough\n      : @152 (gas: 9)\n  3835: a1 = sp + 0x200\n  3839: a0 = u64 [a1 + 0x18]\n  3842: t0 = u64 [a1 + 0x10]\n  3845: a5 = u64 [a1 + 0x8]\n  3848: u64 [sp + 0x30] = a0\n  3851: a0 = t0 | a0\n  3854: a3 = a5 <u 0x1\n  3857: a3 = 0 if a0 != 0\n  3859: jump @166 if a3 == 0\n      : @153 (gas: 44)\n  3863: a0 = u64 [sp + 0x200]\n  3867: a2 = s1 + 0x24\n  3870: a3 = a2 <u s1\n  3873: a1 = u64 [sp + 0x18]\n  3876: ra = a1 + a3\n  3879: a4 = ra <u a1\n  3882: a4 = a3 if a3 == 0\n  3885: a1 = u64 [sp + 0x20]\n  3888: a3 = a1 + a4\n  3891: t1 = a3 <u a1\n  3894: a1 = u64 [sp + 0x28]\n  3897: t2 = a1 + t1\n  3900: u64 [sp + 0x20] = a0\n  3903: a4 = a2 + a0\n  3906: u64 [sp + 0x8] = a2\n  3909: a1 = a4 <u a2\n  3912: u64 [sp + 0x10] = a5\n  3915: s1 = ra + a5\n  3918: s1 = s1 + a1\n  3921: a0 = s1 ^ ra\n  3924: t1 = s1 <u ra\n  3927: t1 = a1 if a0 == 0\n  3930: u64 [sp + 0x28] = t0\n  3933: a1 = a3 + t0\n  3936: a2 = a1 <u a3\n  3939: t0 = u64 [sp + 0x30]\n  3942: u64 [sp + 0x18] = t2\n  3945: a0 = t2 + t0\n  3948: a0 = a0 + a2\n  3951: a2 = u64 [sp + 0x58]\n  3954: a2 = u32 [a2]\n  3956: t1 = t1 + a1\n  3959: a1 = t1 <u a1\n  3962: a0 = a0 + a1\n  3965: a1 = a2 <u a4\n  3968: a2 = s1 <u 0x1\n  3971: a1 = a1 ^ 0x1\n  3974: a1 = a2 if s1 != 0\n  3977: a2 = a0 <u 0x1\n  3980: a4 = t1 <u 0x1\n  3983: a4 = a2 if a0 != 0\n  3986: a0 = t1 | a0\n  3989: a1 = a4 if a0 != 0\n  3992: jump @167 if a1 == 0\n      : @154 (gas: 80)\n  3996: a1 = u64 [sp + 0x38]\n  3999: a0 = a1 + 0x4\n  4002: a1 = a0 <u a1\n  4005: a4 = u64 [sp + 0x40]\n  4008: a2 = a4 + a1\n  4011: a4 = a2 <u a4\n  4014: a4 = a1 if a1 == 0\n  4017: a1 = u64 [sp + 0x48]\n  4020: a4 = a4 + a1\n  4023: a1 = a4 <u a1\n  4026: s1 = u64 [sp + 0x50]\n  4029: s1 = s1 + a1\n  4032: a1 = u64 [sp + 0x20]\n  4035: u64 [sp + 0x100] = a1\n  4039: a1 = u64 [sp + 0x8]\n  4042: u64 [sp + 0x120] = a1\n  4046: a1 = u64 [sp + 0x10]\n  4049: u64 [sp + 0x108] = a1\n  4053: u64 [sp + 0x128] = ra\n  4057: u64 [sp + 0x140] = a0\n  4061: a0 = u64 [sp + 0x28]\n  4064: u64 [sp + 0x110] = a0\n  4068: u64 [sp + 0x130] = a3\n  4072: u64 [sp + 0x118] = t0\n  4076: a0 = u64 [sp + 0x18]\n  4079: u64 [sp + 0x138] = a0\n  4083: u64 [sp + 0x148] = a2\n  4087: u64 [sp + 0x150] = a4\n  4091: a0 = sp + 0x160\n  4095: a1 = sp + 0x140\n  4099: a2 = sp + 0x120\n  4103: a3 = sp + 0x100\n  4107: u64 [sp + 0x158] = s1\n  4111: ra = 0x86\n  4115: sp = sp + 0xfffffffffffff808\n  4119: a4 = sp + 0x700\n  4123: u64 [a4 + 0xf0] = ra\n  4127: u64 [a4 + 0xe8] = s0\n  4131: u64 [a4 + 0xe0] = s1\n  4135: s0 = sp + 0x7f8\n  4139: sp = sp + 0xfffffffffffffb78\n  4143: sp = sp & 0xffffffffffffffe0\n  4146: s1 = sp\n  4148: a4 = u64 [a3 + 0x18]\n  4151: u64 [s1 + 0x100] = a4\n  4155: a4 = u64 [a3 + 0x10]\n  4158: u64 [s1 + 0x108] = a4\n  4162: a4 = u64 [a3 + 0x8]\n  4165: u64 [s1 + 0x110] = a4\n  4169: a3 = u64 [a3]\n  4171: u64 [s1 + 0x118] = a3\n  4175: a3 = u64 [a2 + 0x18]\n  4178: u64 [s1 + 0x120] = a3\n  4182: a3 = u64 [a2 + 0x10]\n  4185: u64 [s1 + 0x128] = a3\n  4189: a3 = u64 [a2 + 0x8]\n  4192: u64 [s1 + 0x130] = a3\n  4196: a2 = u64 [a2]\n  4198: u64 [s1 + 0x138] = a2\n  4202: a4 = u64 [a1]\n  4204: u64 [s1 + 0x158] = a4\n  4208: a3 = u64 [a1 + 0x8]\n  4211: u64 [s1 + 0x150] = a3\n  4215: a2 = u64 [a1 + 0x10]\n  4218: u64 [s1 + 0x148] = a2\n  4222: a1 = u64 [a1 + 0x18]\n  4225: u64 [s1 + 0x140] = a1\n  4229: u64 [s1 + 0x80] = a0\n  4233: a5 = s1 + 0x7ff\n  4237: a5 = a5 + 0xd9\n  4241: u64 [a5 + 0x200] = a1\n  4245: u64 [a5 + 0x1f8] = a2\n  4249: u64 [a5 + 0x1f0] = a3\n  4253: a0 = s1 + 0x7ff\n  4257: a0 = a0 + 0x2e1\n  4261: a1 = s1 + 0x7ff\n  4265: a1 = a1 + 0x2c1\n  4269: u64 [a5 + 0x1e8] = a4\n  4273: ra = 0x1b0\n  4277: jump @248\n      : @155 [@dyn 67] (gas: 19)\n  4280: a0 = u64 [sp + 0x160]\n  4284: u64 [sp + 0x50] = a0\n  4287: a0 = u64 [sp + 0x168]\n  4291: u64 [sp + 0x48] = a0\n  4294: a0 = u64 [sp + 0x170]\n  4298: u64 [sp + 0x40] = a0\n  4301: a0 = u64 [sp + 0x178]\n  4305: u64 [sp + 0x38] = a0\n  4308: a0 = u64 [sp + 0x180]\n  4312: u64 [sp + 0x30] = a0\n  4315: a0 = u64 [sp + 0x188]\n  4319: u64 [sp + 0x28] = a0\n  4322: a0 = u64 [sp + 0x190]\n  4326: u64 [sp + 0x20] = a0\n  4329: a0 = u64 [sp + 0x198]\n  4333: u64 [sp + 0x10] = a0\n  4336: a0 = sp + 0xe0\n  4340: a1 = 0x40\n  4343: ra = 136, jump @17\n      : @156 [@dyn 68] (gas: 32)\n  4349: a3 = u64 [sp + 0xf8]\n  4353: u64 [sp + 0x58] = a3\n  4356: a0 = u64 [sp + 0xf0]\n  4360: u64 [sp + 0x18] = a0\n  4363: a2 = u64 [sp + 0xe8]\n  4367: u64 [sp + 0x8] = a2\n  4370: s1 = u64 [sp + 0xe0]\n  4374: a1 = u64 [sp + 0x10]\n  4377: u64 [sp + 0x78] = a1\n  4380: a1 = u64 [sp + 0x20]\n  4383: u64 [sp + 0x70] = a1\n  4386: a1 = u64 [sp + 0x28]\n  4389: u64 [sp + 0x68] = a1\n  4392: a1 = u64 [sp + 0x30]\n  4395: u64 [sp + 0x60] = a1\n  4398: a1 = u64 [sp + 0x38]\n  4401: u64 [sp + 0x98] = a1\n  4405: a1 = u64 [sp + 0x40]\n  4408: u64 [sp + 0x90] = a1\n  4412: a1 = u64 [sp + 0x48]\n  4415: u64 [sp + 0x88] = a1\n  4419: a1 = u64 [sp + 0x50]\n  4422: u64 [sp + 0x80] = a1\n  4426: u64 [sp + 0xb8] = a3\n  4430: u64 [sp + 0xb0] = a0\n  4434: u64 [sp + 0xa8] = a2\n  4438: a0 = sp + 0xc0\n  4442: a1 = sp + 0xa0\n  4446: a2 = sp + 0x80\n  4450: a3 = sp + 0x60\n  4453: u64 [sp + 0xa0] = s1\n  4457: ra = 138, jump @125\n      : @157 [@dyn 69] (gas: 12)\n  4463: a4 = u64 [sp + 0x8]\n  4466: a2 = s1\n  4468: a0 = u64 [sp + 0x58]\n  4471: a0 = a0 | a4\n  4474: s1 = u64 [sp + 0x18]\n  4477: a1 = a2 | s1\n  4480: a1 = a1 | a0\n  4483: a1 = a1 >> 0x20\n  4486: a0 = a0 | s1\n  4489: a0 = a0 << 0x20\n  4492: a0 = a0 | a1\n  4495: jump @159 if a0 != 0\n      : @158 (gas: 29)\n  4498: a0 = u64 [sp + 0xc8]\n  4502: a1 = u64 [sp + 0xd8]\n  4506: u64 [sp + 0x50] = a1\n  4509: t1 = u64 [sp + 0xc0]\n  4513: a1 = u64 [sp + 0xd0]\n  4517: t2 = a0 ^ a4\n  4520: a5 = a0 <u a4\n  4523: ra = t1 <u a2\n  4526: a5 = ra if t2 == 0\n  4529: a3 = a1 - s1\n  4532: t2 = a3 - a5\n  4535: t0 = a3 <u a5\n  4538: a3 = a1 <u s1\n  4541: a1 = u64 [sp + 0x58]\n  4544: a5 = u64 [sp + 0x50]\n  4547: a5 = a5 - a1\n  4550: a5 = a5 - a3\n  4553: a5 = a5 - t0\n  4556: a0 = a0 - a4\n  4559: a0 = a0 - ra\n  4562: s1 = t1 - a2\n  4565: a0 = a0 | a5\n  4568: a1 = s1 | t2\n  4571: a1 = a1 | a0\n  4574: a0 = a0 | t2\n  4577: a1 = a1 >> 0x20\n  4580: a0 = a0 << 0x20\n  4583: a0 = a0 | a1\n  4586: jump @169 if a0 == 0\n      : @159 (gas: 1)\n  4589: trap\n      : @160 (gas: 2)\n  4590: a1 = 0x20200\n  4595: jump @168\n      : @161 (gas: 2)\n  4597: a1 = 0x20200\n  4602: jump @168\n      : @162 (gas: 2)\n  4604: a1 = 0x20200\n  4609: jump @168\n      : @163 (gas: 2)\n  4611: a1 = 0x20200\n  4616: jump @168\n      : @164 (gas: 2)\n  4618: a1 = 0x20200\n  4623: jump @168\n      : @165 (gas: 2)\n  4625: a1 = 0x20200\n  4630: jump @168\n      : @166 (gas: 2)\n  4632: a1 = 0x20200\n  4637: jump @168\n      : @167 (gas: 2)\n  4639: a1 = 0x20200\n  4644: fallthrough\n      : @168 (gas: 5)\n  4645: i32 a1 = a1 + 0\n  4647: a0 = 0x1\n  4650: a2 = 0\n  4652: ecalli 13 // 'seal_return'\n  4654: fallthrough\n      : @169 (gas: 3)\n  4655: a0 = a2\n  4657: a1 = s1\n  4659: ra = 140, jump @28\n      : @170 [@dyn 70] (gas: 7)\n  4665: i32 a1 = a0 + 0\n  4667: i32 a2 = s1 + 0\n  4669: a0 = 0\n  4671: ra = 0x8e\n  4675: ecalli 13 // 'seal_return'\n  4677: t0 = 0x90\n  4681: jump @735\n      : @171 [@dyn 71] (gas: 1)\n  4684: t0 = 144, jump @735\n      : @172 [@dyn 72] (gas: 4)\n  4690: ra = 0x92\n  4694: ecalli 16 // 'value_transferred'\n  4696: t0 = 0x94\n  4700: jump @754\n      : @173 [@dyn 73] (gas: 1)\n  4703: t0 = 148, jump @754\n      : @174 [@dyn 74] (gas: 1)\n  4709: jump @190 if a0 != 0\n      : @175 (gas: 2)\n  4713: a0 = i32 [0x201e8]\n  4718: jump @191 if a0 <=u 35\n      : @176 (gas: 6)\n  4723: i32 a0 = s1 + 0x100\n  4727: a1 = 0x4\n  4730: ra = 0x96\n  4734: ecalli 3 // 'call_data_load'\n  4736: t0 = 0x98\n  4740: jump @734\n      : @177 [@dyn 75] (gas: 1)\n  4743: t0 = 152, jump @734\n      : @178 [@dyn 76] (gas: 1)\n  4749: ra = 154, jump @94\n      : @179 [@dyn 77] (gas: 1)\n  4755: t0 = 156, jump @738\n      : @180 [@dyn 78] (gas: 1)\n  4761: ra = 158, jump @19\n      : @181 [@dyn 79] (gas: 7)\n  4767: u64 [s1 + 152] = 0\n  4771: u64 [s1 + 144] = 0\n  4775: u64 [s1 + 128] = 0x1\n  4780: a0 = 0x20\n  4783: a1 = s1 + 0x80\n  4787: u64 [s1 + 136] = 0\n  4791: ra = 160, jump @19\n      : @182 [@dyn 80] (gas: 2)\n  4797: a1 = i32 [0x201ec]\n  4802: jump @184 if a1 >u 63\n      : @183 (gas: 2)\n  4806: u32 [0x201ec] = 0x40\n  4812: fallthrough\n      : @184 (gas: 12)\n  4813: a0 = sp + 0xffffffffffffffe0\n  4816: a2 = a0 & 0xffffffffffffffe0\n  4819: u64 [s1 + 0x18] = a2\n  4822: sp = a2\n  4824: a0 = 0x20200\n  4829: i32 a0 = a0 + 0\n  4831: i32 a2 = a2 + 0\n  4833: a1 = 0x40\n  4836: ra = 0xa2\n  4840: ecalli 9 // 'hash_keccak_256'\n  4842: t0 = 0xa4\n  4846: jump @727\n      : @185 [@dyn 81] (gas: 1)\n  4849: t0 = 164, jump @727\n      : @186 [@dyn 82] (gas: 3)\n  4855: ra = 0xa6\n  4859: t0 = 0x6\n  4862: jump @739\n      : @187 [@dyn 83] (gas: 5)\n  4865: a0 = u64 [s1 + 0x60]\n  4868: u64 [s1 + 0x18] = a0\n  4871: a0 = s1 + 0x40\n  4874: a1 = 0x40\n  4877: ra = 168, jump @17\n      : @188 [@dyn 84] (gas: 12)\n  4883: a3 = u64 [s1 + 0x58]\n  4886: a1 = u64 [s1 + 0x50]\n  4889: a2 = u64 [s1 + 0x48]\n  4892: a0 = u64 [s1 + 0x40]\n  4895: a3 = a3 | a2\n  4898: a2 = a0 | a1\n  4901: a2 = a2 | a3\n  4904: a2 = a2 >> 0x20\n  4907: a1 = a1 | a3\n  4910: a1 = a1 << 0x20\n  4913: a1 = a1 | a2\n  4916: jump @193 if a1 == 0\n      : @189 (gas: 1)\n  4919: trap\n      : @190 (gas: 2)\n  4920: a1 = 0x20200\n  4925: jump @192\n      : @191 (gas: 2)\n  4927: a1 = 0x20200\n  4932: fallthrough\n      : @192 (gas: 5)\n  4933: i32 a1 = a1 + 0\n  4935: a0 = 0x1\n  4938: a2 = 0\n  4940: ecalli 13 // 'seal_return'\n  4942: fallthrough\n      : @193 (gas: 9)\n  4943: a1 = u8 [s1 + 0x18]\n  4946: a2 = a1 >u 0\n  4948: u64 [s1 + 56] = 0\n  4951: u64 [s1 + 48] = 0\n  4954: u64 [s1 + 40] = 0\n  4957: a1 = s1 + 0x20\n  4960: u64 [s1 + 0x20] = a2\n  4963: u64 [s1 + 0x18] = a0\n  4966: ra = 170, jump @19\n      : @194 [@dyn 85] (gas: 3)\n  4972: a1 = 0x20\n  4975: a0 = u64 [s1 + 0x18]\n  4978: ra = 172, jump @28\n      : @195 [@dyn 86] (gas: 7)\n  4984: i32 a1 = a0 + 0\n  4986: a2 = 0x20\n  4989: a0 = 0\n  4991: ra = 0xae\n  4995: ecalli 13 // 'seal_return'\n  4997: t0 = 0xb0\n  5001: jump @735\n      : @196 [@dyn 87] (gas: 1)\n  5004: t0 = 176, jump @735\n      : @197 [@dyn 88] (gas: 4)\n  5010: ra = 0xb2\n  5014: ecalli 16 // 'value_transferred'\n  5016: t0 = 0xb4\n  5020: jump @754\n      : @198 [@dyn 89] (gas: 1)\n  5023: t0 = 180, jump @754\n      : @199 [@dyn 90] (gas: 1)\n  5029: jump @217 if a0 != 0\n      : @200 (gas: 2)\n  5033: a0 = i32 [0x201e8]\n  5038: jump @218 if a0 <=u 35\n      : @201 (gas: 6)\n  5043: i32 a0 = s1 + 0x100\n  5047: a1 = 0x4\n  5050: ra = 0xb6\n  5054: ecalli 3 // 'call_data_load'\n  5056: t0 = 0xb8\n  5060: jump @734\n      : @202 [@dyn 91] (gas: 1)\n  5063: t0 = 184, jump @734\n      : @203 [@dyn 92] (gas: 1)\n  5069: ra = 186, jump @94\n      : @204 [@dyn 93] (gas: 1)\n  5075: t0 = 188, jump @738\n      : @205 [@dyn 94] (gas: 1)\n  5081: ra = 190, jump @19\n      : @206 [@dyn 95] (gas: 7)\n  5087: u64 [s1 + 152] = 0\n  5091: u64 [s1 + 144] = 0\n  5095: u64 [s1 + 128] = 0x2\n  5100: a0 = 0x20\n  5103: a1 = s1 + 0x80\n  5107: u64 [s1 + 136] = 0\n  5111: ra = 192, jump @19\n      : @207 [@dyn 96] (gas: 2)\n  5117: a1 = i32 [0x201ec]\n  5122: jump @209 if a1 >u 63\n      : @208 (gas: 2)\n  5126: u32 [0x201ec] = 0x40\n  5132: fallthrough\n      : @209 (gas: 12)\n  5133: a0 = sp + 0xffffffffffffffe0\n  5136: a2 = a0 & 0xffffffffffffffe0\n  5139: u64 [s1 + 0x18] = a2\n  5142: sp = a2\n  5144: a0 = 0x20200\n  5149: i32 a0 = a0 + 0\n  5151: i32 a2 = a2 + 0\n  5153: a1 = 0x40\n  5156: ra = 0xc2\n  5160: ecalli 9 // 'hash_keccak_256'\n  5162: t0 = 0xc4\n  5166: jump @727\n      : @210 [@dyn 97] (gas: 1)\n  5169: t0 = 196, jump @727\n      : @211 [@dyn 98] (gas: 3)\n  5175: ra = 0xc6\n  5179: t0 = 0x6\n  5182: jump @739\n      : @212 [@dyn 99] (gas: 1)\n  5185: t0 = 200, jump @747\n      : @213 [@dyn 100] (gas: 1)\n  5191: ra = 202, jump @17\n      : @214 [@dyn 101] (gas: 1)\n  5197: t0 = 204, jump @746\n      : @215 [@dyn 102] (gas: 1)\n  5203: jump @220 if a0 == 0\n      : @216 (gas: 1)\n  5206: trap\n      : @217 (gas: 2)\n  5207: a1 = 0x20200\n  5212: jump @219\n      : @218 (gas: 2)\n  5214: a1 = 0x20200\n  5219: fallthrough\n      : @219 (gas: 7)\n  5220: i32 a1 = a1 + 0\n  5222: a0 = 0x1\n  5225: a2 = 0\n  5227: ra = 0xce\n  5231: ecalli 13 // 'seal_return'\n  5233: t0 = 0xd0\n  5237: jump @745\n      : @220 [@dyn 103] (gas: 1)\n  5240: t0 = 208, jump @745\n      : @221 [@dyn 104] (gas: 1)\n  5246: ra = 210, jump @19\n      : @222 [@dyn 105] (gas: 3)\n  5252: a1 = 0x20\n  5255: a0 = u64 [s1 + 0x18]\n  5258: ra = 212, jump @28\n      : @223 [@dyn 106] (gas: 7)\n  5264: i32 a1 = a0 + 0\n  5266: a2 = 0x20\n  5269: a0 = 0\n  5271: ra = 0xd6\n  5275: ecalli 13 // 'seal_return'\n  5277: t0 = 0xd8\n  5281: jump @730\n      : @224 [@dyn 107] (gas: 1)\n  5284: t0 = 216, jump @730\n      : @225 [@dyn 108] (gas: 1)\n  5290: ra = 218, jump @19\n      : @226 [@dyn 109] (gas: 7)\n  5296: u64 [s1 + 56] = 0\n  5299: u64 [s1 + 48] = 0\n  5302: u64 [s1 + 32] = 0x1\n  5306: a0 = 0x20\n  5309: a1 = s1 + a0\n  5312: u64 [s1 + 40] = 0\n  5315: ra = 220, jump @19\n      : @227 [@dyn 110] (gas: 2)\n  5321: a1 = i32 [0x201ec]\n  5326: jump @229 if a1 >u 63\n      : @228 (gas: 2)\n  5330: u32 [0x201ec] = 0x40\n  5336: fallthrough\n      : @229 (gas: 10)\n  5337: a0 = sp + 0xffffffffffffffe0\n  5340: a2 = a0 & 0xffffffffffffffe0\n  5343: u64 [s1 + 0x10] = a2\n  5346: sp = a2\n  5348: a0 = 0x20200\n  5353: i32 a0 = a0 + 0\n  5355: i32 a2 = a2 + 0\n  5357: a1 = 0x40\n  5360: ecalli 9 // 'hash_keccak_256'\n  5362: t0 = 222, jump @726\n      : @230 [@dyn 111] (gas: 1)\n  5368: ret\n      : @231 [@dyn 112] (gas: 1)\n  5370: ra = 226, jump @19\n      : @232 [@dyn 113] (gas: 7)\n  5376: u64 [s1 + 56] = 0\n  5379: u64 [s1 + 48] = 0\n  5382: u64 [s1 + 40] = 0\n  5385: a0 = 0x20\n  5388: a1 = s1 + a0\n  5391: u64 [s1 + 32] = 0\n  5394: ra = 228, jump @19\n      : @233 [@dyn 114] (gas: 2)\n  5400: a1 = i32 [0x201ec]\n  5405: jump @235 if a1 >u 63\n      : @234 (gas: 2)\n  5409: u32 [0x201ec] = 0x40\n  5415: fallthrough\n      : @235 (gas: 10)\n  5416: a0 = sp + 0xffffffffffffffe0\n  5419: a2 = a0 & 0xffffffffffffffe0\n  5422: u64 [s1 + 0x10] = a2\n  5425: sp = a2\n  5427: a0 = 0x20200\n  5432: i32 a0 = a0 + 0\n  5434: i32 a2 = a2 + 0\n  5436: a1 = 0x40\n  5439: ecalli 9 // 'hash_keccak_256'\n  5441: t0 = 230, jump @726\n      : @236 [@dyn 115] (gas: 1)\n  5447: ret\n      : @237 [@dyn 116] (gas: 1)\n  5449: ra = 234, jump @19\n      : @238 [@dyn 117] (gas: 7)\n  5455: u64 [s1 + 56] = 0\n  5458: u64 [s1 + 48] = 0\n  5461: u64 [s1 + 32] = 0x2\n  5465: a0 = 0x20\n  5468: a1 = s1 + a0\n  5471: u64 [s1 + 40] = 0\n  5474: ra = 236, jump @19\n      : @239 [@dyn 118] (gas: 2)\n  5480: a1 = i32 [0x201ec]\n  5485: jump @241 if a1 >u 63\n      : @240 (gas: 2)\n  5489: u32 [0x201ec] = 0x40\n  5495: fallthrough\n      : @241 (gas: 10)\n  5496: a0 = sp + 0xffffffffffffffe0\n  5499: a2 = a0 & 0xffffffffffffffe0\n  5502: u64 [s1 + 0x10] = a2\n  5505: sp = a2\n  5507: a0 = 0x20200\n  5512: i32 a0 = a0 + 0\n  5514: i32 a2 = a2 + 0\n  5516: a1 = 0x40\n  5519: ecalli 9 // 'hash_keccak_256'\n  5521: t0 = 238, jump @726\n      : @242 [@dyn 119] (gas: 1)\n  5527: ret\n      : @243 [@dyn 120] (gas: 9)\n  5529: u64 [sp + 0x38] = a0\n  5532: u64 [sp + 0x30] = a2\n  5535: u64 [sp + 0x28] = a3\n  5538: u64 [sp + 0x20] = a1\n  5541: a0 = sp\n  5543: a1 = sp + 0x20\n  5546: ra = 0xf2\n  5550: t0 = 0x6\n  5553: jump @739\n      : @244 [@dyn 121] (gas: 7)\n  5556: a0 = u8 [sp]\n  5558: a1 = 0\n  5560: u64 [s1 + 24] = 0\n  5563: u64 [s1 + 16] = 0\n  5566: u64 [s1 + 8] = 0\n  5569: u64 [s1] = a0\n  5571: t0 = 244, jump @752\n      : @245 [@dyn 122] (gas: 1)\n  5577: ret\n      : @246 [@dyn 123] (gas: 13)\n  5579: a0 = u64 [sp]\n  5581: a1 = u64 [sp + 0x8]\n  5584: a2 = u64 [sp + 0x18]\n  5587: a3 = u64 [sp + 0x10]\n  5590: a0 = a0 & 0xffffffffffffff00\n  5594: a0 = a0 | 0x1\n  5597: u64 [sp + 0x58] = a2\n  5600: u64 [sp + 0x50] = a3\n  5603: u64 [sp + 0x48] = a1\n  5606: u64 [sp + 0x40] = a0\n  5609: a0 = sp + 0x20\n  5612: a1 = sp + 0x40\n  5615: ra = 248, jump @23\n      : @247 [@dyn 124] (gas: 5)\n  5621: sp = s0 + 0xffffffffffffff80\n  5624: ra = u64 [sp + 0x78]\n  5627: s0 = u64 [sp + 0x70]\n  5630: sp = sp + 0x80\n  5634: ret\n      : @248 (gas: 12)\n  5636: a2 = u64 [a1 + 0x10]\n  5639: a3 = u64 [a1 + 0x18]\n  5642: a4 = u64 [a1 + 0x8]\n  5645: a1 = u64 [a1]\n  5647: a3 = a3 | a4\n  5650: a4 = a1 | a2\n  5653: a4 = a4 | a3\n  5656: a4 = a4 >> 0x20\n  5659: a2 = a2 | a3\n  5662: a2 = a2 << 0x20\n  5665: a2 = a2 | a4\n  5668: jump @251 if a2 != 0\n      : @249 (gas: 24)\n  5671: sp = sp + 0xffffffffffffff80\n  5674: u64 [sp + 0x78] = ra\n  5677: u64 [sp + 0x70] = s0\n  5680: u64 [sp + 0x68] = s1\n  5683: s0 = sp + 0x80\n  5687: sp = sp & 0xffffffffffffffe0\n  5690: s1 = a0\n  5692: i32 a1 = a1 + 0\n  5694: i32 a0 = sp + 0x40\n  5697: ecalli 3 // 'call_data_load'\n  5699: a1 = u64 [sp + 0x40]\n  5702: u64 [sp] = a1\n  5704: a0 = u64 [sp + 0x48]\n  5707: u64 [sp + 0x18] = a0\n  5710: a2 = u64 [sp + 0x50]\n  5713: u64 [sp + 0x10] = a2\n  5716: a3 = u64 [sp + 0x58]\n  5719: u64 [sp + 0x8] = a3\n  5722: u64 [sp + 0x38] = a3\n  5725: u64 [sp + 0x30] = a2\n  5728: u64 [sp + 0x28] = a0\n  5731: a0 = sp + 0x20\n  5734: u64 [sp + 0x20] = a1\n  5737: ra = 250, jump @94\n      : @250 [@dyn 125] (gas: 14)\n  5743: a0 = u64 [sp + 0x8]\n  5746: u64 [s1 + 0x18] = a0\n  5749: a0 = u64 [sp + 0x10]\n  5752: u64 [s1 + 0x10] = a0\n  5755: a0 = u64 [sp + 0x18]\n  5758: u64 [s1 + 0x8] = a0\n  5761: a0 = u64 [sp]\n  5763: u64 [s1] = a0\n  5765: sp = s0 + 0xffffffffffffff80\n  5768: ra = u64 [sp + 0x78]\n  5771: s0 = u64 [sp + 0x70]\n  5774: s1 = u64 [sp + 0x68]\n  5777: sp = sp + 0x80\n  5781: ret\n      : @251 (gas: 1)\n  5783: trap\n      : @252 [@dyn 126] (gas: 1)\n  5784: jump @255 if a0 == 0\n      : @253 (gas: 1)\n  5787: t0 = 254, jump @756\n      : @254 [@dyn 127] (gas: 1)\n  5793: ret\n      : @255 (gas: 3)\n  5795: a0 = sp + 0xc0\n  5799: a1 = 0x40\n  5802: ra = 256, jump @17\n      : @256 [@dyn 128] (gas: 5)\n  5808: a2 = u64 [sp + 0xd8]\n  5812: s1 = u64 [sp + 0xd0]\n  5816: a0 = u64 [sp + 0xc8]\n  5820: a1 = u64 [sp + 0xc0]\n  5824: t0 = 258, jump @731\n      : @257 [@dyn 129] (gas: 1)\n  5830: jump @273 if a0 != 0\n      : @258 (gas: 1)\n  5834: t0 = 260, jump @736\n      : @259 [@dyn 130] (gas: 1)\n  5840: ra = 262, jump @19\n      : @260 [@dyn 131] (gas: 1)\n  5846: t0 = 264, jump @725\n      : @261 [@dyn 132] (gas: 1)\n  5852: jump @273 if a0 == 0\n      : @262 (gas: 1)\n  5856: t0 = 266, jump @741\n      : @263 [@dyn 133] (gas: 1)\n  5862: ra = 268, jump @19\n      : @264 [@dyn 134] (gas: 1)\n  5868: t0 = 270, jump @729\n      : @265 [@dyn 135] (gas: 1)\n  5874: jump @273 if a0 == 0\n      : @266 (gas: 1)\n  5877: t0 = 272, jump @755\n      : @267 [@dyn 136] (gas: 1)\n  5883: ra = 274, jump @19\n      : @268 [@dyn 137] (gas: 4)\n  5889: a0 = 0x100000000\n  5899: u64 [sp] = a0\n  5901: a0 = 0xffffffbc\n  5911: t0 = 276, jump @728\n      : @269 [@dyn 138] (gas: 1)\n  5917: jump @273 if a0 == 0\n      : @270 (gas: 12)\n  5920: s1 = u64 [sp + 0x18]\n  5923: i32 a0 = s1 + 0x44\n  5926: a1 = u64 [0x20040]\n  5931: u64 [sp + 0x58] = a1\n  5934: a1 = u64 [0x20048]\n  5939: a2 = u64 [0x20050]\n  5944: a3 = u64 [0x20058]\n  5949: u64 [sp + 0x50] = a1\n  5952: u64 [sp + 0x48] = a2\n  5955: a1 = sp + 0x40\n  5958: u64 [sp + 0x40] = a3\n  5961: ra = 278, jump @19\n      : @271 [@dyn 139] (gas: 3)\n  5967: a0 = u64 [sp]\n  5969: a0 = a0 + 0xffffffffffffff9c\n  5972: t0 = 280, jump @728\n      : @272 [@dyn 140] (gas: 1)\n  5978: jump @274 if a0 != 0\n      : @273 (gas: 1)\n  5981: trap\n      : @274 (gas: 9)\n  5982: s1 = u64 [sp + 0x18]\n  5985: i32 a0 = s1 + 0x64\n  5988: u64 [sp + 48] = 0\n  5991: u64 [sp + 40] = 0\n  5994: a1 = 0x6564000000000000\n  6004: u64 [sp + 0x38] = a1\n  6007: a1 = sp + 0x20\n  6010: u64 [sp + 32] = 0\n  6013: ra = 282, jump @19\n      : @275 [@dyn 141] (gas: 3)\n  6019: a1 = 0x84\n  6023: a0 = s1\n  6025: ra = 284, jump @28\n      : @276 [@dyn 142] (gas: 7)\n  6031: i32 a1 = a0 + 0\n  6033: a0 = 0x1\n  6036: a2 = 0x84\n  6040: ra = 0x11e\n  6044: ecalli 13 // 'seal_return'\n  6046: t0 = 0x120\n  6050: jump @744\n      : @277 [@dyn 143] (gas: 1)\n  6053: t0 = 288, jump @744\n      : @278 [@dyn 144] (gas: 1)\n  6059: jump @280 if a0 == 0\n      : @279 (gas: 6)\n  6062: sp = s0 + 0xffffffffffffff20\n  6066: ra = u64 [sp + 0xd8]\n  6070: s0 = u64 [sp + 0xd0]\n  6074: s1 = u64 [sp + 0xc8]\n  6078: sp = sp + 0xe0\n  6082: ret\n      : @280 (gas: 3)\n  6084: a0 = sp + 0xa0\n  6088: a1 = 0x40\n  6091: ra = 290, jump @17\n      : @281 [@dyn 145] (gas: 5)\n  6097: a2 = u64 [sp + 0xb8]\n  6101: s1 = u64 [sp + 0xb0]\n  6105: a0 = u64 [sp + 0xa8]\n  6109: a1 = u64 [sp + 0xa0]\n  6113: t0 = 292, jump @731\n      : @282 [@dyn 146] (gas: 1)\n  6119: jump @293 if a0 != 0\n      : @283 (gas: 1)\n  6122: t0 = 294, jump @751\n      : @284 [@dyn 147] (gas: 1)\n  6128: ra = 296, jump @19\n      : @285 [@dyn 148] (gas: 1)\n  6134: t0 = 298, jump @725\n      : @286 [@dyn 149] (gas: 1)\n  6140: jump @293 if a0 == 0\n      : @287 (gas: 8)\n  6143: a0 = u64 [sp + 0x18]\n  6146: i32 a0 = a0 + 0x4\n  6149: u64 [sp + 120] = 0\n  6152: u64 [sp + 112] = 0\n  6155: u64 [sp + 96] = 0x20\n  6159: a1 = sp + 0x60\n  6162: u64 [sp + 104] = 0\n  6165: ra = 300, jump @19\n      : @288 [@dyn 150] (gas: 1)\n  6171: t0 = 302, jump @729\n      : @289 [@dyn 151] (gas: 1)\n  6177: jump @293 if a0 == 0\n      : @290 (gas: 8)\n  6180: s1 = u64 [sp + 0x18]\n  6183: i32 a0 = s1 + 0x24\n  6186: u64 [sp + 88] = 0\n  6189: u64 [sp + 80] = 0\n  6192: u64 [sp + 64] = 0x1c\n  6196: a1 = sp + 0x40\n  6199: u64 [sp + 72] = 0\n  6202: ra = 304, jump @19\n      : @291 [@dyn 152] (gas: 2)\n  6208: a0 = 0xffffffbc\n  6218: t0 = 306, jump @728\n      : @292 [@dyn 153] (gas: 1)\n  6224: jump @294 if a0 != 0\n      : @293 (gas: 1)\n  6227: trap\n      : @294 (gas: 12)\n  6228: s1 = u64 [sp + 0x18]\n  6231: i32 a0 = s1 + 0x44\n  6234: a1 = u64 [0x20060]\n  6239: a2 = u64 [0x20068]\n  6244: a3 = u64 [0x20070]\n  6249: u64 [sp + 0x38] = a1\n  6252: u64 [sp + 0x30] = a2\n  6255: u64 [sp + 0x28] = a3\n  6258: a2 = 0x6f6e636500000000\n  6268: a1 = sp + 0x20\n  6271: u64 [sp + 0x20] = a2\n  6274: ra = 308, jump @19\n      : @295 [@dyn 154] (gas: 3)\n  6280: a1 = 0x64\n  6283: a0 = s1\n  6285: ra = 310, jump @28\n      : @296 [@dyn 155] (gas: 7)\n  6291: i32 a1 = a0 + 0\n  6293: a0 = 0x1\n  6296: a2 = 0x64\n  6299: ra = 0x138\n  6303: ecalli 13 // 'seal_return'\n  6305: t0 = 0x13a\n  6309: jump @732\n      : @297 [@dyn 156] (gas: 1)\n  6312: t0 = 314, jump @732\n      : @298 [@dyn 157] (gas: 1)\n  6318: jump @301 if a0 == 0\n      : @299 (gas: 1)\n  6321: t0 = 316, jump @756\n      : @300 [@dyn 158] (gas: 1)\n  6327: ret\n      : @301 (gas: 3)\n  6329: a0 = sp + 0xc0\n  6333: a1 = 0x40\n  6336: ra = 318, jump @17\n      : @302 [@dyn 159] (gas: 5)\n  6342: a2 = u64 [sp + 0xd8]\n  6346: s1 = u64 [sp + 0xd0]\n  6350: a0 = u64 [sp + 0xc8]\n  6354: a1 = u64 [sp + 0xc0]\n  6358: t0 = 320, jump @731\n      : @303 [@dyn 160] (gas: 1)\n  6364: jump @318 if a0 != 0\n      : @304 (gas: 1)\n  6368: t0 = 322, jump @736\n      : @305 [@dyn 161] (gas: 1)\n  6374: ra = 324, jump @19\n      : @306 [@dyn 162] (gas: 1)\n  6380: t0 = 326, jump @725\n      : @307 [@dyn 163] (gas: 1)\n  6386: jump @318 if a0 == 0\n      : @308 (gas: 1)\n  6390: t0 = 328, jump @741\n      : @309 [@dyn 164] (gas: 1)\n  6396: ra = 330, jump @19\n      : @310 [@dyn 165] (gas: 1)\n  6402: t0 = 332, jump @729\n      : @311 [@dyn 166] (gas: 1)\n  6408: jump @318 if a0 == 0\n      : @312 (gas: 8)\n  6411: s1 = u64 [sp + 0x18]\n  6414: i32 a0 = s1 + 0x24\n  6417: u64 [sp + 120] = 0\n  6420: u64 [sp + 112] = 0\n  6423: u64 [sp + 96] = 0x2c\n  6427: a1 = sp + 0x60\n  6430: u64 [sp + 104] = 0\n  6433: ra = 334, jump @19\n      : @313 [@dyn 167] (gas: 4)\n  6439: a0 = 0x100000000\n  6449: u64 [sp] = a0\n  6451: a0 = 0xffffffbc\n  6461: t0 = 336, jump @728\n      : @314 [@dyn 168] (gas: 1)\n  6467: jump @318 if a0 == 0\n      : @315 (gas: 12)\n  6470: s1 = u64 [sp + 0x18]\n  6473: i32 a0 = s1 + 0x44\n  6476: a1 = u64 [0x20078]\n  6481: u64 [sp + 0x58] = a1\n  6484: a1 = u64 [0x20080]\n  6489: a2 = u64 [0x20088]\n  6494: a3 = u64 [0x20090]\n  6499: u64 [sp + 0x50] = a1\n  6502: u64 [sp + 0x48] = a2\n  6505: a1 = sp + 0x40\n  6508: u64 [sp + 0x40] = a3\n  6511: ra = 338, jump @19\n      : @316 [@dyn 169] (gas: 3)\n  6517: a0 = u64 [sp]\n  6519: a0 = a0 + 0xffffffffffffff9c\n  6522: t0 = 340, jump @728\n      : @317 [@dyn 170] (gas: 1)\n  6528: jump @319 if a0 != 0\n      : @318 (gas: 1)\n  6531: trap\n      : @319 (gas: 10)\n  6532: s1 = u64 [sp + 0x18]\n  6535: i32 a0 = s1 + 0x64\n  6538: a1 = u64 [0x20098]\n  6543: u64 [sp + 40] = 0\n  6546: u64 [sp + 0x38] = a1\n  6549: a1 = 0x696c656400000000\n  6559: u64 [sp + 0x30] = a1\n  6562: a1 = sp + 0x20\n  6565: u64 [sp + 32] = 0\n  6568: ra = 342, jump @19\n      : @320 [@dyn 171] (gas: 3)\n  6574: a1 = 0x84\n  6578: a0 = s1\n  6580: ra = 344, jump @28\n      : @321 [@dyn 172] (gas: 7)\n  6586: i32 a1 = a0 + 0\n  6588: a0 = 0x1\n  6591: a2 = 0x84\n  6595: ra = 0x15a\n  6599: ecalli 13 // 'seal_return'\n  6601: t0 = 0x15c\n  6605: jump @732\n      : @322 [@dyn 173] (gas: 1)\n  6608: t0 = 348, jump @732\n      : @323 [@dyn 174] (gas: 1)\n  6614: jump @326 if a0 == 0\n      : @324 (gas: 1)\n  6617: t0 = 350, jump @756\n      : @325 [@dyn 175] (gas: 1)\n  6623: ret\n      : @326 (gas: 3)\n  6625: a0 = sp + 0xc0\n  6629: a1 = 0x40\n  6632: ra = 352, jump @17\n      : @327 [@dyn 176] (gas: 5)\n  6638: a2 = u64 [sp + 0xd8]\n  6642: s1 = u64 [sp + 0xd0]\n  6646: a0 = u64 [sp + 0xc8]\n  6650: a1 = u64 [sp + 0xc0]\n  6654: t0 = 354, jump @731\n      : @328 [@dyn 177] (gas: 1)\n  6660: jump @343 if a0 != 0\n      : @329 (gas: 1)\n  6664: t0 = 356, jump @736\n      : @330 [@dyn 178] (gas: 1)\n  6670: ra = 358, jump @19\n      : @331 [@dyn 179] (gas: 1)\n  6676: t0 = 360, jump @725\n      : @332 [@dyn 180] (gas: 1)\n  6682: jump @343 if a0 == 0\n      : @333 (gas: 1)\n  6686: t0 = 362, jump @741\n      : @334 [@dyn 181] (gas: 1)\n  6692: ra = 364, jump @19\n      : @335 [@dyn 182] (gas: 1)\n  6698: t0 = 366, jump @729\n      : @336 [@dyn 183] (gas: 1)\n  6704: jump @343 if a0 == 0\n      : @337 (gas: 8)\n  6707: s1 = u64 [sp + 0x18]\n  6710: i32 a0 = s1 + 0x24\n  6713: u64 [sp + 120] = 0\n  6716: u64 [sp + 112] = 0\n  6719: u64 [sp + 96] = 0x23\n  6723: a1 = sp + 0x60\n  6726: u64 [sp + 104] = 0\n  6729: ra = 368, jump @19\n      : @338 [@dyn 184] (gas: 4)\n  6735: a0 = 0x100000000\n  6745: u64 [sp] = a0\n  6747: a0 = 0xffffffbc\n  6757: t0 = 370, jump @728\n      : @339 [@dyn 185] (gas: 1)\n  6763: jump @343 if a0 == 0\n      : @340 (gas: 12)\n  6766: s1 = u64 [sp + 0x18]\n  6769: i32 a0 = s1 + 0x44\n  6772: a1 = u64 [0x200a0]\n  6777: u64 [sp + 0x58] = a1\n  6780: a1 = u64 [0x200a8]\n  6785: a2 = u64 [0x200b0]\n  6790: a3 = u64 [0x200b8]\n  6795: u64 [sp + 0x50] = a1\n  6798: u64 [sp + 0x48] = a2\n  6801: a1 = sp + 0x40\n  6804: u64 [sp + 0x40] = a3\n  6807: ra = 372, jump @19\n      : @341 [@dyn 186] (gas: 3)\n  6813: a0 = u64 [sp]\n  6815: a0 = a0 + 0xffffffffffffff9c\n  6818: t0 = 374, jump @728\n      : @342 [@dyn 187] (gas: 1)\n  6824: jump @344 if a0 != 0\n      : @343 (gas: 1)\n  6827: trap\n      : @344 (gas: 9)\n  6828: s1 = u64 [sp + 0x18]\n  6831: i32 a0 = s1 + 0x64\n  6834: u64 [sp + 48] = 0\n  6837: u64 [sp + 40] = 0\n  6840: a1 = 0x7369740000000000\n  6850: u64 [sp + 0x38] = a1\n  6853: a1 = sp + 0x20\n  6856: u64 [sp + 32] = 0\n  6859: ra = 376, jump @19\n      : @345 [@dyn 188] (gas: 3)\n  6865: a1 = 0x84\n  6869: a0 = s1\n  6871: ra = 378, jump @28\n      : @346 [@dyn 189] (gas: 7)\n  6877: i32 a1 = a0 + 0\n  6879: a0 = 0x1\n  6882: a2 = 0x84\n  6886: ra = 0x17c\n  6890: ecalli 13 // 'seal_return'\n  6892: t0 = 0x17e\n  6896: jump @742\n      : @347 [@dyn 190] (gas: 1)\n  6899: t0 = 382, jump @742\n      : @348 [@dyn 191] (gas: 1)\n  6905: ra = 384, jump @19\n      : @349 [@dyn 192] (gas: 7)\n  6911: u64 [sp + 24] = 0\n  6914: u64 [sp + 16] = 0\n  6917: u64 [sp + 0] = 0x11\n  6920: a0 = 0x4\n  6923: a1 = sp\n  6925: u64 [sp + 8] = 0\n  6928: ra = 386, jump @19\n      : @350 [@dyn 193] (gas: 2)\n  6934: a1 = i32 [0x201ec]\n  6939: jump @352 if a1 >u 63\n      : @351 (gas: 2)\n  6943: u32 [0x201ec] = 0x40\n  6949: fallthrough\n      : @352 (gas: 7)\n  6950: a1 = 0x20200\n  6955: i32 a1 = a1 + 0\n  6957: a0 = 0x1\n  6960: a2 = 0x24\n  6963: ra = 0x184\n  6967: ecalli 13 // 'seal_return'\n  6969: fallthrough\n      : @353 [@dyn 194] (gas: 16)\n  6970: a2 = u64 [a1]\n  6972: t0 = u64 [a1 + 0x18]\n  6975: a3 = u64 [a1 + 0x8]\n  6978: a5 = u64 [a1 + 0x10]\n  6981: a4 = a2 + 0x1\n  6984: a2 = a4 <u 0x1\n  6987: a2 = a2 + a3\n  6990: a3 = a4 | a2\n  6993: a3 = a3 <u 0x1\n  6996: a3 = a3 + a5\n  6999: a5 = a3 <u a5\n  7002: a5 = a5 + t0\n  7005: t0 = a2 | a5\n  7008: a1 = a4 | a3\n  7011: a1 = a1 | t0\n  7014: jump @355 if a1 == 0\n      : @354 (gas: 5)\n  7017: u64 [a0] = a4\n  7019: u64 [a0 + 0x8] = a2\n  7022: u64 [a0 + 0x10] = a3\n  7025: u64 [a0 + 0x18] = a5\n  7028: ret\n      : @355 (gas: 3)\n  7030: ra = 0x186\n  7034: t0 = 0x17e\n  7038: jump @742\n      : @356 [@dyn 195] (gas: 28)\n  7041: sp = sp + 0xffffffffffffffc8\n  7044: u64 [sp + 0x30] = ra\n  7047: u64 [sp + 0x28] = s0\n  7050: u64 [sp + 0x20] = s1\n  7053: a4 = u64 [a2]\n  7055: a3 = u64 [a1]\n  7057: s1 = u64 [a2 + 0x8]\n  7060: t2 = u64 [a1 + 0x8]\n  7063: ra = u64 [a2 + 0x10]\n  7066: a5 = u64 [a1 + 0x10]\n  7069: a2 = u64 [a2 + 0x18]\n  7072: t0 = u64 [a1 + 0x18]\n  7075: s0 = t2 ^ s1\n  7078: u64 [sp + 0x8] = s1\n  7081: s1 = t2 <u s1\n  7084: u64 [sp + 0x18] = a4\n  7087: u64 [sp + 0x10] = a3\n  7090: a1 = a3 <u a4\n  7093: u64 [sp] = a1\n  7095: s1 = a1 if s0 == 0\n  7098: a1 = t0 ^ a2\n  7101: t1 = t0 <u a2\n  7104: s0 = a5 <u ra\n  7107: t1 = s0 if a1 == 0\n  7110: a4 = a5 ^ ra\n  7113: a1 = a1 | a4\n  7116: t1 = s1 if a1 == 0\n  7119: jump @358 if t1 != 0\n      : @357 (gas: 22)\n  7122: a1 = a5 - ra\n  7125: a4 = a1 <u s1\n  7128: a2 = t0 - a2\n  7131: a2 = a2 - s0\n  7134: a2 = a2 - a4\n  7137: a1 = a1 - s1\n  7140: a3 = u64 [sp + 0x8]\n  7143: a3 = t2 - a3\n  7146: a4 = u64 [sp]\n  7148: a3 = a3 - a4\n  7151: a4 = u64 [sp + 0x18]\n  7154: a5 = u64 [sp + 0x10]\n  7157: a4 = a5 - a4\n  7160: u64 [a0] = a4\n  7162: u64 [a0 + 0x8] = a3\n  7165: u64 [a0 + 0x10] = a1\n  7168: u64 [a0 + 0x18] = a2\n  7171: ra = u64 [sp + 0x30]\n  7174: s0 = u64 [sp + 0x28]\n  7177: s1 = u64 [sp + 0x20]\n  7180: sp = sp + 0x38\n  7183: ret\n      : @358 (gas: 3)\n  7185: ra = 0x188\n  7189: t0 = 0x17e\n  7193: jump @742\n      : @359 [@dyn 196] (gas: 19)\n  7196: sp = sp + 0xffffffffffffff60\n  7200: u64 [sp + 0x98] = ra\n  7204: u64 [sp + 0x90] = s0\n  7208: u64 [sp + 0x88] = s1\n  7212: s0 = sp + 0xa0\n  7216: sp = sp & 0xffffffffffffffe0\n  7219: a3 = u64 [a2 + 0x10]\n  7222: a4 = u64 [a2 + 0x18]\n  7225: a5 = u64 [a2 + 0x8]\n  7228: a2 = u64 [a2]\n  7230: a4 = a4 | a5\n  7233: a5 = a2 | a3\n  7236: a5 = a5 | a4\n  7239: a5 = a5 >> 0x20\n  7242: a3 = a3 | a4\n  7245: a3 = a3 << 0x20\n  7248: a3 = a3 | a5\n  7251: u64 [sp + 0x20] = a0\n  7254: jump @367 if a3 != 0\n      : @360 (gas: 11)\n  7258: a0 = u64 [a1 + 0x18]\n  7261: u64 [sp + 0x38] = a0\n  7264: a0 = u64 [a1 + 0x10]\n  7267: u64 [sp + 0x30] = a0\n  7270: s1 = u64 [a1 + 0x8]\n  7273: a0 = u64 [a1]\n  7275: u64 [sp + 0x28] = a0\n  7278: i32 a1 = a2 + 0\n  7280: i32 a0 = sp + 0x40\n  7283: ecalli 3 // 'call_data_load'\n  7285: fallthrough\n      : @361 (gas: 51)\n  7286: a0 = 0x201e8\n  7291: u64 [sp + 0x8] = a0\n  7294: a2 = u32 [0x201e8]\n  7299: a0 = u64 [sp + 0x58]\n  7302: u64 [sp + 0x10] = a0\n  7305: t1 = u64 [sp + 0x50]\n  7308: a1 = u64 [sp + 0x28]\n  7311: a3 = a2 <u a1\n  7314: a4 = s1 >u 0\n  7316: a4 = a3 if s1 == 0\n  7319: t0 = u64 [sp + 0x30]\n  7322: t2 = -t0\n  7324: u64 [sp + 0x18] = s1\n  7327: a5 = s1 + a3\n  7330: a0 = -a5\n  7332: a2 = a2 - a1\n  7335: a3 = a2 + 0xffffffffffffffe1\n  7338: a2 = a3 <u a2\n  7341: a5 = a5 ^ 0xffffffffffffffff\n  7344: a5 = a5 + a2\n  7347: a1 = a5 ^ a0\n  7350: a0 = a5 <u a0\n  7353: a0 = a2 if a1 == 0\n  7356: a1 = t2 <u a4\n  7359: a2 = t0\n  7361: t0 = u64 [sp + 0x10]\n  7364: a2 = a2 >u 0\n  7366: s1 = u64 [sp + 0x38]\n  7369: a2 = a2 + s1\n  7372: a1 = a1 + a2\n  7375: a2 = u64 [sp + 0x48]\n  7378: s1 = t2 - a4\n  7381: a4 = s1 <u 0x1\n  7384: a1 = a1 + a4\n  7387: a4 = u64 [sp + 0x40]\n  7390: s1 = s1 + 0xffffffffffffffff\n  7393: a0 = a0 + s1\n  7396: s1 = a0 <u s1\n  7399: s1 = s1 - a1\n  7402: a1 = a2 ^ a5\n  7405: a5 = a2 <u a5\n  7408: a3 = a4 <u a3\n  7411: a3 = a5 if a1 != 0\n  7414: a1 = t1 <u a0\n  7417: a5 = t0 ^ s1\n  7420: s1 = t0 <s s1\n  7423: s1 = a1 if a5 == 0\n  7426: a0 = t1 ^ a0\n  7429: a0 = a0 | a5\n  7432: a3 = s1 if a0 != 0\n  7435: jump @368 if a3 == 0\n      : @362 (gas: 28)\n  7439: a0 = u64 [sp + 0x28]\n  7442: a5 = a4 + a0\n  7445: a0 = a5 <u a4\n  7448: s1 = u64 [sp + 0x18]\n  7451: s1 = s1 + a2\n  7454: s1 = s1 + a0\n  7457: a1 = s1 ^ a2\n  7460: a2 = s1 <u a2\n  7463: a2 = a0 if a1 == 0\n  7466: a0 = u64 [sp + 0x30]\n  7469: a0 = a0 + t1\n  7472: a3 = a0 + a2\n  7475: a1 = a3 <u a0\n  7478: a0 = a0 <u t1\n  7481: a2 = u64 [sp + 0x38]\n  7484: t0 = t0 + a2\n  7487: a0 = a0 + t0\n  7490: a1 = a1 + a0\n  7493: a0 = a5 | a3\n  7496: u64 [sp + 0x30] = a1\n  7499: a1 = a1 | s1\n  7502: a0 = a0 | a1\n  7505: a0 = a0 >> 0x20\n  7508: u64 [sp + 0x38] = a3\n  7511: a1 = a1 | a3\n  7514: a1 = a1 << 0x20\n  7517: a0 = a0 | a1\n  7520: jump @367 if a0 != 0\n      : @363 (gas: 5)\n  7524: u64 [sp + 0x28] = a5\n  7527: i32 a1 = a5 + 0\n  7529: i32 a0 = sp + 0x60\n  7532: ecalli 3 // 'call_data_load'\n  7534: fallthrough\n      : @364 (gas: 7)\n  7535: ra = u64 [sp + 0x78]\n  7538: a2 = u64 [sp + 0x70]\n  7541: a5 = u64 [sp + 0x68]\n  7544: a0 = a2 | ra\n  7547: a3 = a5 <u 0x1\n  7550: a3 = 0 if a0 != 0\n  7552: jump @369 if a3 == 0\n      : @365 (gas: 51)\n  7556: t1 = u64 [sp + 0x60]\n  7559: a0 = u64 [sp + 0x28]\n  7562: a1 = a0 + 0x20\n  7565: u64 [sp + 0x18] = a1\n  7568: a0 = a1 <u a0\n  7571: a1 = s1 + a0\n  7574: u64 [sp + 0x10] = a1\n  7577: a3 = a1 <u s1\n  7580: a3 = a0 if a0 == 0\n  7583: a0 = u64 [sp + 0x8]\n  7586: s1 = u32 [a0]\n  7588: a0 = u64 [sp + 0x38]\n  7591: a3 = a3 + a0\n  7594: a0 = a3 <u a0\n  7597: a1 = u64 [sp + 0x30]\n  7600: a0 = a0 + a1\n  7603: u64 [sp + 0x8] = a0\n  7606: a4 = s1 <u t1\n  7609: a1 = a5 >u 0\n  7611: a1 = a4 if a5 == 0\n  7614: t0 = -a2\n  7616: a0 = t0 <u a1\n  7619: u64 [sp + 0x28] = a0\n  7622: u64 [sp + 0x30] = a2\n  7625: t2 = a2 >u 0\n  7627: u64 [sp + 0x38] = ra\n  7630: t2 = t2 + ra\n  7633: ra = u64 [sp + 0x8]\n  7636: a0 = -t2\n  7638: a2 = u64 [sp + 0x28]\n  7641: a0 = a0 - a2\n  7644: a2 = u64 [sp + 0x10]\n  7647: a1 = t0 - a1\n  7650: u64 [sp + 0x28] = t1\n  7653: t2 = s1 - t1\n  7656: t1 = a5\n  7658: s1 = -a5\n  7660: s1 = s1 - a4\n  7663: a4 = a2 ^ s1\n  7666: s1 = s1 <u a2\n  7669: t0 = u64 [sp + 0x18]\n  7672: a5 = t2 <u t0\n  7675: a5 = s1 if a4 != 0\n  7678: a4 = a1 <u a3\n  7681: s1 = ra ^ a0\n  7684: a0 = a0 <s ra\n  7687: a0 = a4 if s1 == 0\n  7690: a1 = a1 ^ a3\n  7693: a1 = a1 | s1\n  7696: a5 = a0 if a1 != 0\n  7699: jump @370 if a5 != 0\n      : @366 (gas: 18)\n  7702: a0 = u64 [sp + 0x20]\n  7705: a1 = u64 [sp + 0x28]\n  7708: u64 [a0 + 0x20] = a1\n  7711: u64 [a0] = t0\n  7713: u64 [a0 + 0x28] = t1\n  7716: u64 [a0 + 0x8] = a2\n  7719: a1 = u64 [sp + 0x30]\n  7722: u64 [a0 + 0x30] = a1\n  7725: u64 [a0 + 0x10] = a3\n  7728: a1 = u64 [sp + 0x38]\n  7731: u64 [a0 + 0x38] = a1\n  7734: u64 [a0 + 0x18] = ra\n  7737: sp = s0 + 0xffffffffffffff60\n  7741: ra = u64 [sp + 0x98]\n  7745: s0 = u64 [sp + 0x90]\n  7749: s1 = u64 [sp + 0x88]\n  7753: sp = sp + 0xa0\n  7757: ret\n      : @367 (gas: 1)\n  7759: trap\n      : @368 (gas: 2)\n  7760: a1 = 0x20200\n  7765: jump @371\n      : @369 (gas: 2)\n  7767: a1 = 0x20200\n  7772: jump @371\n      : @370 (gas: 2)\n  7774: a1 = 0x20200\n  7779: fallthrough\n      : @371 (gas: 6)\n  7780: i32 a1 = a1 + 0\n  7782: a0 = 0x1\n  7785: a2 = 0\n  7787: ra = 0x18a\n  7791: ecalli 13 // 'seal_return'\n  7793: fallthrough\n      : @372 [@dyn 197] (gas: 18)\n  7794: sp = sp + 0xffffffffffffff60\n  7798: u64 [sp + 0x98] = ra\n  7802: u64 [sp + 0x90] = s0\n  7806: u64 [sp + 0x88] = s1\n  7810: s0 = sp + 0xa0\n  7814: sp = sp & 0xfffffffffffffff0\n  7817: a5 = u64 [a2 + 0x10]\n  7820: t0 = u64 [a2 + 0x18]\n  7823: s1 = u64 [a2 + 0x8]\n  7826: t1 = u64 [a2]\n  7828: s1 = s1 | t0\n  7831: a2 = t1 | a5\n  7834: a2 = a2 | s1\n  7837: a2 = a2 >> 0x20\n  7840: a5 = a5 | s1\n  7843: a5 = a5 << 0x20\n  7846: a2 = a2 | a5\n  7849: jump @380 if a2 != 0\n      : @373 (gas: 12)\n  7853: t0 = u64 [a3 + 0x18]\n  7856: a5 = u64 [a3 + 0x10]\n  7859: t2 = u64 [a3]\n  7861: s1 = u64 [a3 + 0x8]\n  7864: a3 = t2 | a5\n  7867: a2 = s1 | t0\n  7870: a3 = a3 | a2\n  7873: a3 = a3 >> 0x20\n  7876: a2 = a2 | a5\n  7879: a2 = a2 << 0x20\n  7882: a2 = a2 | a3\n  7885: jump @380 if a2 != 0\n      : @374 (gas: 19)\n  7889: u64 [sp + 0x48] = s1\n  7892: u64 [sp + 0x50] = a5\n  7895: u64 [sp + 0x58] = t0\n  7898: u64 [sp + 0x28] = a0\n  7901: a2 = u64 [a1 + 0x18]\n  7904: a3 = u64 [a1 + 0x10]\n  7907: a5 = u64 [a1]\n  7909: a1 = u64 [a1 + 0x8]\n  7912: a0 = a5 | a3\n  7915: u64 [sp + 0x40] = a2\n  7918: u64 [sp + 0x30] = a1\n  7921: a1 = a1 | a2\n  7924: a0 = a0 | a1\n  7927: a0 = a0 >> 0x20\n  7930: u64 [sp + 0x38] = a3\n  7933: a1 = a1 | a3\n  7936: a1 = a1 << 0x20\n  7939: a0 = a0 | a1\n  7942: jump @380 if a0 != 0\n      : @375 (gas: 13)\n  7946: a0 = u64 [a4 + 0x10]\n  7949: u64 [sp] = a0\n  7951: a0 = u64 [a4 + 0x8]\n  7954: u64 [sp + 0x8] = a0\n  7957: a0 = u64 [a4]\n  7959: u64 [sp + 0x10] = a0\n  7962: i32 t1 = t1 + 0\n  7964: u64 [sp + 0x20] = t1\n  7967: a0 = a5\n  7969: a1 = t2\n  7971: s1 = t2\n  7973: u64 [sp + 0x18] = a5\n  7976: ra = 396, jump @28\n      : @376 [@dyn 198] (gas: 5)\n  7982: i32 a0 = a0 + 0\n  7984: i32 a1 = s1 + 0\n  7986: a2 = u64 [sp + 0x20]\n  7989: ecalli 2 // 'call_data_copy'\n  7991: fallthrough\n      : @377 (gas: 32)\n  7992: a4 = u64 [sp + 0x18]\n  7995: a4 = a4 + s1\n  7998: a0 = a4 <u s1\n  8001: a2 = u64 [sp + 0x48]\n  8004: a1 = u64 [sp + 0x30]\n  8007: a1 = a1 + a2\n  8010: a3 = a1 + a0\n  8013: a1 = a3 ^ a2\n  8016: s1 = a3 <u a2\n  8019: s1 = a0 if a1 == 0\n  8022: a2 = u64 [sp + 0x50]\n  8025: a0 = u64 [sp + 0x38]\n  8028: a0 = a0 + a2\n  8031: s1 = s1 + a0\n  8034: a1 = s1 <u a0\n  8037: a0 = a0 <u a2\n  8040: a2 = u64 [sp + 0x58]\n  8043: a5 = u64 [sp + 0x40]\n  8046: a2 = a2 + a5\n  8049: a0 = a0 + a2\n  8052: a1 = a1 + a0\n  8055: a0 = a4 | s1\n  8058: u64 [sp + 0x58] = a3\n  8061: u64 [sp + 0x48] = a1\n  8064: a1 = a1 | a3\n  8067: a0 = a0 | a1\n  8070: a0 = a0 >> 0x20\n  8073: u64 [sp + 0x50] = s1\n  8076: a1 = a1 | s1\n  8079: a1 = a1 << 0x20\n  8082: a0 = a0 | a1\n  8085: jump @380 if a0 != 0\n      : @378 (gas: 18)\n  8088: a2 = u64 [sp + 0x8]\n  8091: a0 = a2 >> 0x20\n  8094: a1 = u64 [sp]\n  8096: a1 = a1 << 0x20\n  8099: a0 = a0 | a1\n  8102: a3 = u64 [sp + 0x10]\n  8105: a1 = a3 >> 0x20\n  8108: a2 = a2 << 0x20\n  8111: a1 = a1 | a2\n  8114: a2 = a3 << 0x20\n  8117: u64 [sp + 96] = 0\n  8120: u64 [sp + 0x68] = a2\n  8123: u64 [sp + 0x70] = a1\n  8126: a1 = sp + 0x60\n  8129: u64 [sp + 0x78] = a0\n  8132: a0 = a4\n  8134: s1 = a4\n  8136: ra = 398, jump @19\n      : @379 [@dyn 199] (gas: 22)\n  8142: a0 = s1 + 0x14\n  8145: a1 = a0 <u s1\n  8148: a3 = u64 [sp + 0x58]\n  8151: a2 = a3 + a1\n  8154: a3 = a2 <u a3\n  8157: a3 = a1 if a1 == 0\n  8160: a1 = u64 [sp + 0x50]\n  8163: a3 = a3 + a1\n  8166: a1 = a3 <u a1\n  8169: a4 = u64 [sp + 0x48]\n  8172: a1 = a1 + a4\n  8175: a4 = u64 [sp + 0x28]\n  8178: u64 [a4 + 0x10] = a3\n  8181: u64 [a4 + 0x8] = a2\n  8184: u64 [a4] = a0\n  8186: u64 [a4 + 0x18] = a1\n  8189: sp = s0 + 0xffffffffffffff60\n  8193: ra = u64 [sp + 0x98]\n  8197: s0 = u64 [sp + 0x90]\n  8201: s1 = u64 [sp + 0x88]\n  8205: sp = sp + 0xa0\n  8209: ret\n      : @380 (gas: 1)\n  8211: trap\n      : @381 [@dyn 200] (gas: 1)\n  8212: ra = 402, jump @19\n      : @382 [@dyn 201] (gas: 7)\n  8218: u64 [sp + 24] = 0\n  8221: u64 [sp + 16] = 0\n  8224: u64 [sp + 0] = 0x41\n  8227: a0 = 0x4\n  8230: a1 = sp\n  8232: u64 [sp + 8] = 0\n  8235: ra = 404, jump @19\n      : @383 [@dyn 202] (gas: 2)\n  8241: a1 = i32 [0x201ec]\n  8246: jump @385 if a1 >u 63\n      : @384 (gas: 2)\n  8250: u32 [0x201ec] = 0x40\n  8256: fallthrough\n      : @385 (gas: 7)\n  8257: a1 = 0x20200\n  8262: i32 a1 = a1 + 0\n  8264: a0 = 0x1\n  8267: a2 = 0x24\n  8270: ra = 0x196\n  8274: ecalli 13 // 'seal_return'\n  8276: fallthrough\n      : @386 [@dyn 203] (gas: 46)\n  8277: sp = sp + 0xffffffffffffffb0\n  8280: u64 [sp + 0x48] = ra\n  8283: u64 [sp + 0x40] = s0\n  8286: u64 [sp + 0x38] = s1\n  8289: s0 = sp + 0x50\n  8292: sp = sp & 0xfffffffffffffff0\n  8295: t0 = a0\n  8297: a2 = u64 [a1]\n  8299: t2 = u64 [a0 + 0x8]\n  8302: a5 = u64 [a1 + 0x8]\n  8305: t1 = u64 [a0]\n  8307: a3 = a2 + 0x1f\n  8310: ra = a3 <u a2\n  8313: a2 = a5 + ra\n  8316: a3 = a3 & 0xffffffffffffffe0\n  8319: u64 [sp + 0x8] = t1\n  8322: t1 = t1 + a3\n  8325: a4 = t1 <u a3\n  8328: a3 = a2 + t2\n  8331: a3 = a3 + a4\n  8334: s1 = a3 ^ a2\n  8337: a0 = a3 <u a2\n  8340: a0 = a4 if s1 == 0\n  8343: a4 = u64 [t0 + 0x18]\n  8346: a5 = a2 <u a5\n  8349: s1 = u64 [a1 + 0x10]\n  8352: t0 = u64 [t0 + 0x10]\n  8355: a1 = u64 [a1 + 0x18]\n  8358: a5 = ra if ra == 0\n  8361: a5 = a5 + s1\n  8364: s1 = a5 <u s1\n  8367: a2 = a5 + t0\n  8370: a0 = a0 + a2\n  8373: a5 = a2 <u a5\n  8376: a2 = a0 <u a2\n  8379: a1 = a1 + a4\n  8382: a1 = a1 + s1\n  8385: a1 = a1 + a5\n  8388: a5 = a1 + a2\n  8391: a1 = a5 >u 0\n  8393: a2 = a0 >u 0\n  8395: a2 = a1 if a5 != 0\n  8398: a1 = a0 | a5\n  8401: s1 = a3 >u 0\n  8403: s1 = a2 if a1 != 0\n  8406: jump @390 if s1 != 0\n      : @387 (gas: 13)\n  8409: a1 = u64 [sp + 0x8]\n  8412: a1 = t1 <u a1\n  8415: a2 = a3 ^ t2\n  8418: s1 = a3 <u t2\n  8421: s1 = a1 if a2 == 0\n  8424: a1 = a0 <u t0\n  8427: a2 = a5 ^ a4\n  8430: a4 = a5 <u a4\n  8433: a4 = a1 if a2 == 0\n  8436: a1 = a0 ^ t0\n  8439: a1 = a1 | a2\n  8442: a4 = s1 if a1 == 0\n  8445: jump @390 if a4 != 0\n      : @388 (gas: 7)\n  8448: u64 [sp + 0x10] = t1\n  8451: u64 [sp + 0x18] = a3\n  8454: u64 [sp + 0x20] = a0\n  8457: a0 = 0x40\n  8460: a1 = sp + 0x10\n  8463: u64 [sp + 0x28] = a5\n  8466: ra = 408, jump @19\n      : @389 [@dyn 204] (gas: 6)\n  8472: sp = s0 + 0xffffffffffffffb0\n  8475: ra = u64 [sp + 0x48]\n  8478: s0 = u64 [sp + 0x40]\n  8481: s1 = u64 [sp + 0x38]\n  8484: sp = sp + 0x50\n  8487: ret\n      : @390 (gas: 3)\n  8489: ra = 0x19a\n  8493: t0 = 0x190\n  8497: jump @742\n      : @391 [@dyn 205] (gas: 7)\n  8500: a3 = u64 [a1 + 0x18]\n  8503: a4 = u64 [a1 + 0x10]\n  8506: a2 = u64 [a1 + 0x8]\n  8509: a3 = a3 | a4\n  8512: a4 = a2 <u 0x1\n  8515: a4 = 0 if a3 != 0\n  8517: jump @393 if a4 == 0\n      : @392 (gas: 16)\n  8520: a1 = u64 [a1]\n  8522: a3 = a1 + 0x1f\n  8525: a1 = a3 <u a1\n  8528: a1 = a1 + a2\n  8531: a1 = a1 & 0x1\n  8534: a3 = a3 & 0xffffffffffffffe0\n  8537: a2 = a3 + 0x20\n  8540: a3 = a2 <u a3\n  8543: a4 = a1 + a3\n  8546: a1 = a4 <u a1\n  8549: a1 = a3 if a3 == 0\n  8552: u64 [a0 + 24] = 0\n  8555: u64 [a0] = a2\n  8557: u64 [a0 + 0x8] = a4\n  8560: u64 [a0 + 0x10] = a1\n  8563: ret\n      : @393 (gas: 3)\n  8565: ra = 0x19c\n  8569: t0 = 0x190\n  8573: jump @742\n      : @394 [@dyn 206] (gas: 9)\n  8576: sp = sp + 0xfffffffffffffec0\n  8580: u64 [sp + 0x138] = ra\n  8584: u64 [sp + 0x130] = s0\n  8588: u64 [sp + 0x128] = s1\n  8592: s0 = sp + 0x140\n  8596: sp = sp & 0xffffffffffffffe0\n  8599: s1 = a0\n  8601: ecalli 12 // 'return_data_size'\n  8603: fallthrough\n      : @395 (gas: 1)\n  8604: jump @408 if a0 == 0\n      : @396 (gas: 11)\n  8608: u64 [sp + 0x18] = s1\n  8611: ecalli 12 // 'return_data_size'\n  8613: a2 = a0\n  8615: u64 [sp + 248] = 0\n  8619: u64 [sp + 240] = 0\n  8623: u64 [sp + 232] = 0\n  8627: a0 = sp + 0x100\n  8631: a1 = sp + 0xe0\n  8635: u64 [sp + 0x20] = a2\n  8638: u64 [sp + 0xe0] = a2\n  8642: ra = 414, jump @391\n      : @397 [@dyn 207] (gas: 11)\n  8648: a0 = u64 [sp + 0x100]\n  8652: u64 [sp + 0x40] = a0\n  8655: a0 = u64 [sp + 0x108]\n  8659: u64 [sp + 0x38] = a0\n  8662: a0 = u64 [sp + 0x110]\n  8666: u64 [sp + 0x30] = a0\n  8669: a0 = u64 [sp + 0x118]\n  8673: u64 [sp + 0x28] = a0\n  8676: a0 = sp + 0xc0\n  8680: a1 = 0x40\n  8683: ra = 416, jump @17\n      : @398 [@dyn 208] (gas: 22)\n  8689: a0 = u64 [sp + 0xd8]\n  8693: u64 [sp + 0x58] = a0\n  8696: s1 = u64 [sp + 0xd0]\n  8700: a2 = u64 [sp + 0xc8]\n  8704: u64 [sp + 0x50] = a2\n  8707: a3 = u64 [sp + 0xc0]\n  8711: u64 [sp + 0x48] = a3\n  8714: a1 = u64 [sp + 0x28]\n  8717: u64 [sp + 0x98] = a1\n  8721: a1 = u64 [sp + 0x30]\n  8724: u64 [sp + 0x90] = a1\n  8728: a1 = u64 [sp + 0x38]\n  8731: u64 [sp + 0x88] = a1\n  8735: a1 = u64 [sp + 0x40]\n  8738: u64 [sp + 0x80] = a1\n  8742: u64 [sp + 0xb8] = a0\n  8746: u64 [sp + 0xb0] = s1\n  8750: u64 [sp + 0xa8] = a2\n  8754: a0 = sp + 0xa0\n  8758: a1 = sp + 0x80\n  8762: u64 [sp + 0xa0] = a3\n  8766: ra = 418, jump @386\n      : @399 [@dyn 209] (gas: 12)\n  8772: a0 = u64 [sp + 0x48]\n  8775: a1 = u64 [sp + 0x58]\n  8778: a2 = u64 [sp + 0x50]\n  8781: a2 = a2 | a1\n  8784: a1 = a0 | s1\n  8787: a1 = a1 | a2\n  8790: a1 = a1 >> 0x20\n  8793: u64 [sp + 0x40] = s1\n  8796: a2 = a2 | s1\n  8799: a2 = a2 << 0x20\n  8802: a1 = a1 | a2\n  8805: jump @407 if a1 != 0\n      : @400 (gas: 7)\n  8809: u64 [sp + 120] = 0\n  8812: u64 [sp + 112] = 0\n  8815: u64 [sp + 104] = 0\n  8818: a1 = sp + 0x60\n  8821: a2 = u64 [sp + 0x20]\n  8824: u64 [sp + 0x60] = a2\n  8827: ra = 420, jump @19\n      : @401 [@dyn 210] (gas: 2)\n  8833: ecalli 12 // 'return_data_size'\n  8835: fallthrough\n      : @402 (gas: 10)\n  8836: a3 = u64 [sp + 0x48]\n  8839: a1 = u64 [sp + 0x40]\n  8842: a2 = u64 [sp + 0x58]\n  8845: a1 = a1 | a2\n  8848: a2 = 0xffffffe0\n  8858: a2 = a3 <u a2\n  8861: a4 = u64 [sp + 0x50]\n  8864: a2 = 0 if a4 != 0\n  8866: a2 = 0 if a1 != 0\n  8868: jump @407 if a2 == 0\n      : @403 (gas: 3)\n  8871: s1 = a0\n  8873: a0 = a0 >> 0x20\n  8876: jump @407 if a0 != 0\n      : @404 (gas: 5)\n  8879: i32 a0 = a3 + 0x20\n  8882: i32 a1 = s1 + 0\n  8884: u64 [sp + 0x38] = a1\n  8887: a1 = s1\n  8889: ra = 422, jump @28\n      : @405 [@dyn 211] (gas: 6)\n  8895: u32 [sp + 0x120] = s1\n  8899: i32 a0 = a0 + 0\n  8901: i32 a1 = sp + 0x120\n  8905: a2 = 0\n  8907: ecalli 11 // 'return_data_copy'\n  8909: fallthrough\n      : @406 (gas: 8)\n  8910: a4 = u64 [sp + 0x48]\n  8913: a0 = i32 [sp + 0x120]\n  8917: s1 = u64 [sp + 0x18]\n  8920: a1 = u64 [sp + 0x58]\n  8923: a2 = u64 [sp + 0x40]\n  8926: a3 = u64 [sp + 0x50]\n  8929: a5 = u64 [sp + 0x38]\n  8932: jump @409 if a0 >=u a5\n      : @407 (gas: 1)\n  8935: trap\n      : @408 (gas: 5)\n  8936: a3 = 0\n  8938: a2 = 0\n  8940: a1 = 0\n  8942: a4 = 0x60\n  8945: fallthrough\n      : @409 (gas: 10)\n  8946: u64 [s1] = a4\n  8948: u64 [s1 + 0x8] = a3\n  8951: u64 [s1 + 0x10] = a2\n  8954: u64 [s1 + 0x18] = a1\n  8957: sp = s0 + 0xfffffffffffffec0\n  8961: ra = u64 [sp + 0x138]\n  8965: s0 = u64 [sp + 0x130]\n  8969: s1 = u64 [sp + 0x128]\n  8973: sp = sp + 0x140\n  8977: ret\n      : @410 [@dyn 212] (gas: 12)\n  8979: t0 = u64 [s1 + 0x28]\n  8982: a0 = u64 [s1 + 0x30]\n  8985: a1 = u64 [s1 + 0x20]\n  8988: a0 = a0 | a1\n  8991: a2 = u64 [s1 + 0x58]\n  8994: a1 = t0 | a2\n  8997: a1 = a1 | a0\n  9000: a1 = a1 >> 0x20\n  9003: a0 = a0 | a2\n  9006: a0 = a0 << 0x20\n  9009: a0 = a0 | a1\n  9012: jump @419 if a0 != 0\n      : @411 (gas: 12)\n  9016: a2 = u64 [s1 + 0x48]\n  9019: a4 = u64 [s1 + 0x38]\n  9022: a0 = a4 | a2\n  9025: a1 = u64 [s1 + 0x50]\n  9028: a3 = u64 [s1 + 0x40]\n  9031: a1 = a1 | a3\n  9034: a0 = a0 | a1\n  9037: a0 = a0 >> 0x20\n  9040: a1 = a1 | a2\n  9043: a1 = a1 << 0x20\n  9046: a0 = a0 | a1\n  9049: jump @419 if a0 != 0\n      : @412 (gas: 15)\n  9053: a5 = u64 [s1 + 0x98]\n  9057: a3 = u64 [s1 + 0x90]\n  9061: a0 = u64 [s1 + 0x80]\n  9065: a1 = u64 [s1 + 0x88]\n  9069: a2 = a0 | a3\n  9072: u64 [s1 + 0x20] = a5\n  9075: u64 [s1 + 0x8] = a1\n  9078: a1 = a1 | a5\n  9081: a2 = a2 | a1\n  9084: a2 = a2 >> 0x20\n  9087: u64 [s1 + 0x10] = a3\n  9090: a1 = a1 | a3\n  9093: a1 = a1 << 0x20\n  9096: a1 = a1 | a2\n  9099: jump @419 if a1 != 0\n      : @413 (gas: 6)\n  9103: i32 t0 = t0 + 0\n  9105: u64 [s1 + 0x28] = t0\n  9108: i32 a1 = a4 + 0\n  9110: u64 [s1 + 0x58] = a1\n  9113: u64 [s1 + 0x30] = a0\n  9116: ra = 426, jump @28\n      : @414 [@dyn 213] (gas: 5)\n  9122: i32 a0 = a0 + 0\n  9124: a1 = u64 [s1 + 0x58]\n  9127: a2 = u64 [s1 + 0x28]\n  9130: ecalli 2 // 'call_data_copy'\n  9132: fallthrough\n      : @415 (gas: 30)\n  9133: a1 = u64 [s1 + 0x30]\n  9136: a0 = u64 [s1 + 0x38]\n  9139: a0 = a0 + a1\n  9142: a1 = a0 <u a1\n  9145: a2 = u64 [s1 + 0x40]\n  9148: a4 = u64 [s1 + 0x8]\n  9151: a2 = a2 + a4\n  9154: a2 = a2 + a1\n  9157: a3 = a2 ^ a4\n  9160: a4 = a2 <u a4\n  9163: a4 = a1 if a3 == 0\n  9166: a1 = u64 [s1 + 0x48]\n  9169: a3 = u64 [s1 + 0x10]\n  9172: a1 = a1 + a3\n  9175: a4 = a4 + a1\n  9178: t0 = a4 <u a1\n  9181: a1 = a1 <u a3\n  9184: a5 = u64 [s1 + 0x50]\n  9187: a3 = u64 [s1 + 0x20]\n  9190: a5 = a5 + a3\n  9193: a1 = a1 + a5\n  9196: a1 = a1 + t0\n  9199: a3 = a0 | a4\n  9202: a1 = a1 | a2\n  9205: a3 = a3 | a1\n  9208: a3 = a3 >> 0x20\n  9211: a1 = a1 | a4\n  9214: a1 = a1 << 0x20\n  9217: a1 = a1 | a3\n  9220: jump @419 if a1 != 0\n      : @416 (gas: 6)\n  9223: u64 [s1 + 120] = 0\n  9226: u64 [s1 + 112] = 0\n  9229: u64 [s1 + 104] = 0\n  9232: a1 = s1 + 0x60\n  9235: u64 [s1 + 96] = 0\n  9238: ra = 428, jump @19\n      : @417 [@dyn 214] (gas: 3)\n  9244: a0 = u64 [s1 + 0x30]\n  9247: a1 = u64 [s1 + 0x58]\n  9250: ra = 430, jump @28\n      : @418 [@dyn 215] (gas: 28)\n  9256: a1 = sp + 0xffffffffffffffe0\n  9259: a1 = a1 & 0xffffffffffffffe0\n  9262: u64 [s1 + 0x50] = a1\n  9265: sp = a1\n  9267: i32 a0 = a0 + 0\n  9269: i32 a2 = a1 + 0\n  9271: a1 = u64 [s1 + 0x58]\n  9274: ecalli 9 // 'hash_keccak_256'\n  9276: a3 = u64 [s1 + 0x50]\n  9279: a0 = u64 [a3 + 0x18]\n  9282: a1 = u64 [a3 + 0x10]\n  9285: a2 = u64 [a3 + 0x8]\n  9288: a3 = u64 [a3]\n  9290: a0 = reverse a0\n  9292: a1 = reverse a1\n  9294: a2 = reverse a2\n  9296: a3 = reverse a3\n  9298: a4 = u64 [s1 + 0x18]\n  9301: u64 [a4 + 0x18] = a3\n  9304: u64 [a4 + 0x10] = a2\n  9307: u64 [a4 + 0x8] = a1\n  9310: u64 [a4] = a0\n  9312: sp = s0 + 0xffffffffffffff40\n  9316: ra = u64 [sp + 0xb8]\n  9320: s0 = u64 [sp + 0xb0]\n  9324: s1 = u64 [sp + 0xa8]\n  9328: sp = sp + 0xc0\n  9332: ret\n      : @419 (gas: 1)\n  9334: trap\n      : @420 [@dyn 216] (gas: 1)\n  9335: t0 = 434, jump @753\n      : @421 [@dyn 217] (gas: 16)\n  9341: a2 = u64 [a5 + 0x8]\n  9344: a0 = u64 [a5 + 0x10]\n  9347: a1 = u64 [a5 + 0x18]\n  9350: a3 = u64 [a5 + 0x20]\n  9353: a5 = a4 + 0x100\n  9357: u64 [a5 + 0xc0] = a3\n  9361: u64 [a5 + 0xb8] = a1\n  9365: u64 [a5 + 0xb0] = a0\n  9369: a0 = s1 + 0x7ff\n  9373: a0 = a0 + 0x2a1\n  9377: a1 = s1 + 0x7ff\n  9381: a1 = a1 + 0x281\n  9385: u64 [a5 + 0xa8] = a2\n  9389: ra = 0x1b4\n  9393: t0 = 0xd8\n  9397: jump @730\n      : @422 [@dyn 218] (gas: 18)\n  9400: a4 = s1 + 0x7ff\n  9404: a4 = a4 + 0xd9\n  9408: a5 = a4 + 0x100\n  9412: a2 = u64 [a5 + 0xc8]\n  9416: a0 = u64 [a5 + 0xd0]\n  9420: a1 = u64 [a5 + 0xd8]\n  9424: a3 = u64 [a5 + 0xe0]\n  9428: u64 [a5 + 0x80] = a3\n  9432: u64 [a5 + 0x78] = a1\n  9435: u64 [a5 + 0x70] = a0\n  9438: a0 = s1 + 0x7ff\n  9442: a0 = a0 + 0x261\n  9446: a1 = s1 + 0x7ff\n  9450: a1 = a1 + 0x241\n  9454: u64 [a5 + 0x68] = a2\n  9457: ra = 0x1b6\n  9461: t0 = 0xf0\n  9465: jump @739\n      : @423 [@dyn 219] (gas: 16)\n  9468: a4 = s1 + 0x7ff\n  9472: a4 = a4 + 0xd9\n  9476: a5 = a4 + 0x100\n  9480: a1 = u64 [a5 + 0x88]\n  9484: a0 = u64 [a5 + 0x90]\n  9488: a2 = u64 [a5 + 0x98]\n  9492: a3 = u64 [a5 + 0xa0]\n  9496: u64 [a5 + 0x60] = a3\n  9499: u64 [a5 + 0x58] = a2\n  9502: u64 [a5 + 0x50] = a0\n  9505: a0 = s1 + 0x7ff\n  9509: a0 = a0 + 0x221\n  9513: u64 [a5 + 0x48] = a1\n  9516: ra = 0x1b8\n  9520: t0 = 0xfc\n  9524: jump @732\n      : @424 [@dyn 220] (gas: 16)\n  9527: a0 = u64 [s1 + 0x140]\n  9531: a3 = s1 + 0x7ff\n  9535: a3 = a3 + 0xd9\n  9539: a4 = a3 + 0x100\n  9543: u64 [a4 + 0x20] = a0\n  9546: a0 = u64 [s1 + 0x148]\n  9550: u64 [a4 + 0x18] = a0\n  9553: a0 = u64 [s1 + 0x150]\n  9557: u64 [a4 + 0x10] = a0\n  9560: a0 = s1 + 0x7ff\n  9564: a0 = a0 + 0x201\n  9568: a1 = s1 + 0x7ff\n  9572: a1 = a1 + 0x1e1\n  9576: a2 = u64 [s1 + 0x158]\n  9580: u64 [a4 + 0x8] = a2\n  9583: ra = 442, jump @248\n      : @425 [@dyn 221] (gas: 18)\n  9589: a4 = s1 + 0x7ff\n  9593: a4 = a4 + 0xd9\n  9597: a5 = a4 + 0x100\n  9601: a2 = u64 [a5 + 0x28]\n  9604: a0 = u64 [a5 + 0x30]\n  9607: a1 = u64 [a5 + 0x38]\n  9610: a3 = u64 [a5 + 0x40]\n  9613: u64 [a4 + 0xe0] = a3\n  9617: u64 [a4 + 0xd8] = a1\n  9621: u64 [a4 + 0xd0] = a0\n  9625: a0 = s1 + 0x7ff\n  9629: a0 = a0 + 0x1c1\n  9633: a1 = s1 + 0x7ff\n  9637: a1 = a1 + 0x1a1\n  9641: u64 [a4 + 0xc8] = a2\n  9645: ra = 0x1bc\n  9649: t0 = 0xe0\n  9653: jump @730\n      : @426 [@dyn 222] (gas: 18)\n  9656: a4 = s1 + 0x7ff\n  9660: a4 = a4 + 0xd9\n  9664: a0 = u64 [a4 + 0x100]\n  9668: a1 = u64 [a4 + 0xf8]\n  9672: a2 = u64 [a4 + 0xf0]\n  9676: a3 = u64 [a4 + 0xe8]\n  9680: a5 = a4 + 0x200\n  9684: u64 [a5 + 0x40] = a0\n  9687: u64 [a5 + 0x38] = a1\n  9690: u64 [a5 + 0x30] = a2\n  9693: u64 [a5 + 0x28] = a3\n  9696: a0 = s1 + 0x7ff\n  9700: a0 = a0 + 0x181\n  9704: a1 = s1 + 0x7ff\n  9708: a1 = a1 + 0x301\n  9712: ra = 0x1be\n  9716: t0 = 0x6\n  9719: jump @739\n      : @427 [@dyn 223] (gas: 4)\n  9722: a5 = s1 + 0x100\n  9726: a0 = u64 [a5 + 0x58]\n  9729: a1 = a0 + 0x80\n  9733: t0 = 448, jump @737\n      : @428 [@dyn 224] (gas: 1)\n  9739: jump @474 if a0 != 0\n      : @429 (gas: 17)\n  9743: a2 = s1 + 0x7ff\n  9747: a2 = a2 + 0xd9\n  9751: a0 = u64 [a2 + 0xc0]\n  9755: u64 [s1 + 0xe8] = a0\n  9759: a0 = u64 [a2 + 0xb8]\n  9763: u64 [s1 + 0xf8] = a0\n  9767: a0 = u64 [a2 + 0xb0]\n  9771: u64 [s1 + 0xe0] = a0\n  9775: a0 = u64 [a2 + 0xa8]\n  9779: u64 [s1 + 0xf0] = a0\n  9783: i32 a1 = a1 + 0\n  9785: a0 = s1 + 0x1000\n  9789: i32 a0 = a0 + 0xfffffffffffffb20\n  9793: ra = 0x1c2\n  9797: ecalli 3 // 'call_data_load'\n  9799: t0 = 0x1c4\n  9803: jump @753\n      : @430 [@dyn 225] (gas: 1)\n  9806: t0 = 452, jump @753\n      : @431 [@dyn 226] (gas: 29)\n  9812: a0 = u64 [a5 + 0x60]\n  9815: a1 = u64 [a5 + 0x50]\n  9818: a3 = u64 [a5 + 0x58]\n  9821: a2 = u64 [a5 + 0x48]\n  9824: u64 [s1 + 0xd8] = a0\n  9828: a5 = u64 [s1 + 0xe8]\n  9832: a0 = a0 ^ a5\n  9835: u64 [s1 + 0xe8] = a1\n  9839: a5 = u64 [s1 + 0xe0]\n  9843: a1 = a1 ^ a5\n  9846: a0 = a0 | a1\n  9849: u64 [s1 + 0xe0] = a3\n  9853: a1 = u64 [s1 + 0xf8]\n  9857: a1 = a1 ^ a3\n  9860: u64 [s1 + 0xf8] = a2\n  9864: a3 = u64 [s1 + 0xf0]\n  9868: a2 = a2 ^ a3\n  9871: a1 = a1 | a2\n  9874: a0 = a0 | a1\n  9877: a0 = a0 <u 0x1\n  9880: u64 [a4 + 160] = 0\n  9884: u64 [a4 + 152] = 0\n  9888: u64 [a4 + 0x88] = a0\n  9892: a0 = s1 + 0x7ff\n  9896: a0 = a0 + 0x161\n  9900: u64 [a4 + 144] = 0\n  9904: ra = 0x1c6\n  9908: t0 = 0x120\n  9912: jump @744\n      : @432 [@dyn 227] (gas: 36)\n  9915: a0 = u64 [s1 + 0x100]\n  9919: a1 = s1 + 0x7ff\n  9923: a1 = a1 + 0xd9\n  9927: u64 [a1 + 0x20] = a0\n  9930: a0 = u64 [s1 + 0x108]\n  9934: u64 [a1 + 0x18] = a0\n  9937: a0 = u64 [s1 + 0x110]\n  9941: u64 [a1 + 0x10] = a0\n  9944: a0 = u64 [s1 + 0x118]\n  9948: u64 [a1 + 0x8] = a0\n  9951: a0 = u64 [s1 + 0x120]\n  9955: u64 [a1 + 0x40] = a0\n  9958: a0 = u64 [s1 + 0x128]\n  9962: u64 [a1 + 0x38] = a0\n  9965: a0 = u64 [s1 + 0x130]\n  9969: u64 [a1 + 0x30] = a0\n  9972: a0 = u64 [s1 + 0x138]\n  9976: u64 [a1 + 0x28] = a0\n  9979: a0 = u64 [s1 + 0x140]\n  9983: u64 [a1 + 0x60] = a0\n  9986: a0 = u64 [s1 + 0x148]\n  9990: u64 [a1 + 0x58] = a0\n  9993: a0 = u64 [s1 + 0x150]\n  9997: u64 [a1 + 0x50] = a0\n 10000: a5 = a1\n 10002: a0 = s1 + 0x7ff\n 10006: a0 = a0 + 0x141\n 10010: a1 = s1 + 0x7ff\n 10014: a1 = a1 + 0x121\n 10018: a2 = s1 + 0x7ff\n 10022: a2 = a2 + 0x101\n 10026: a3 = s1 + 0x7ff\n 10030: a3 = a3 + 0xe1\n 10034: a4 = u64 [s1 + 0x158]\n 10038: u64 [a5 + 0x48] = a4\n 10041: ra = 456, jump @512\n      : @433 [@dyn 228] (gas: 17)\n 10047: a4 = s1 + 0x7ff\n 10051: a4 = a4 + 0xd9\n 10055: a1 = u64 [a4 + 0x68]\n 10058: a0 = u64 [a4 + 0x70]\n 10061: a2 = u64 [a4 + 0x78]\n 10064: a3 = u64 [a4 + 0x80]\n 10068: u64 [a4] = a3\n 10070: u64 [a4 + 0xfffffffffffffff8] = a2\n 10073: a2 = s1 + 0x1000\n 10077: u64 [a2 + 0xfffffffffffff8c8] = a0\n 10081: a0 = s1 + 0x7ff\n 10085: a0 = a0 + 0xc1\n 10089: a2 = s1 + 0x1000\n 10093: u64 [a2 + 0xfffffffffffff8c0] = a1\n 10097: ra = 0x1ca\n 10101: t0 = 0x13a\n 10105: jump @732\n      : @434 [@dyn 229] (gas: 17)\n 10108: a0 = u64 [s1 + 0x140]\n 10112: a1 = s1 + 0x1000\n 10116: u64 [a1 + 0xfffffffffffff898] = a0\n 10120: a0 = u64 [s1 + 0x148]\n 10124: a1 = s1 + 0x1000\n 10128: u64 [a1 + 0xfffffffffffff890] = a0\n 10132: a0 = u64 [s1 + 0x150]\n 10136: a1 = s1 + 0x1000\n 10140: u64 [a1 + 0xfffffffffffff888] = a0\n 10144: a0 = s1 + 0x7ff\n 10148: a0 = a0 + 0xa1\n 10152: a1 = s1 + 0x7ff\n 10156: a1 = a1 + 0x81\n 10160: a2 = u64 [s1 + 0x158]\n 10164: a3 = s1 + 0x1000\n 10168: u64 [a3 + 0xfffffffffffff880] = a2\n 10172: ra = 460, jump @248\n      : @435 [@dyn 230] (gas: 23)\n 10178: a0 = s1 + 0x1000\n 10182: a2 = u64 [a0 + 0xfffffffffffff8a0]\n 10186: a0 = s1 + 0x1000\n 10190: a0 = u64 [a0 + 0xfffffffffffff8a8]\n 10194: a1 = s1 + 0x1000\n 10198: a1 = u64 [a1 + 0xfffffffffffff8b0]\n 10202: a3 = s1 + 0x1000\n 10206: a3 = u64 [a3 + 0xfffffffffffff8b8]\n 10210: a4 = s1 + 0x1000\n 10214: u64 [a4 + 0xfffffffffffff858] = a3\n 10218: a3 = s1 + 0x1000\n 10222: u64 [a3 + 0xfffffffffffff850] = a1\n 10226: a1 = s1 + 0x1000\n 10230: u64 [a1 + 0xfffffffffffff848] = a0\n 10234: a0 = s1 + 0x7ff\n 10238: a0 = a0 + 0x61\n 10241: a1 = s1 + 0x7ff\n 10245: a1 = a1 + 0x41\n 10248: a3 = s1 + 0x1000\n 10252: u64 [a3 + 0xfffffffffffff840] = a2\n 10256: ra = 0x1ce\n 10260: t0 = 0xe8\n 10264: jump @730\n      : @436 [@dyn 231] (gas: 9)\n 10267: a0 = s1 + 0x1000\n 10271: a0 = u64 [a0 + 0xfffffffffffff878]\n 10275: a1 = s1 + 0x1000\n 10279: a1 = u64 [a1 + 0xfffffffffffff870]\n 10283: a2 = s1 + 0x1000\n 10287: a2 = u64 [a2 + 0xfffffffffffff868]\n 10291: a3 = s1 + 0x1000\n 10295: a3 = u64 [a3 + 0xfffffffffffff860]\n 10299: t0 = 464, jump @753\n      : @437 [@dyn 232] (gas: 11)\n 10305: u64 [a5 + 0x80] = a0\n 10309: u64 [a5 + 0x78] = a1\n 10312: u64 [a5 + 0x70] = a2\n 10315: u64 [a5 + 0x68] = a3\n 10318: a0 = s1 + 0x7ff\n 10322: a0 = a0 + 0x21\n 10325: a1 = s1 + 0x7ff\n 10329: a1 = a1 + 0x341\n 10333: ra = 0x1d2\n 10337: t0 = 0x6\n 10340: jump @739\n      : @438 [@dyn 233] (gas: 4)\n 10343: a5 = s1 + 0x100\n 10347: a0 = u64 [a5 + 0x58]\n 10350: a1 = a0 + 0x40\n 10353: t0 = 468, jump @737\n      : @439 [@dyn 234] (gas: 1)\n 10359: jump @474 if a0 != 0\n      : @440 (gas: 56)\n 10363: a0 = s1 + 0x1000\n 10367: a0 = u64 [a0 + 0xfffffffffffff838]\n 10371: u64 [s1 + 0x130] = a0\n 10375: a0 = s1 + 0x1000\n 10379: a0 = u64 [a0 + 0xfffffffffffff830]\n 10383: u64 [s1 + 0x138] = a0\n 10387: a0 = s1 + 0x1000\n 10391: a0 = u64 [a0 + 0xfffffffffffff828]\n 10395: u64 [s1 + 0x100] = a0\n 10399: a0 = s1 + 0x1000\n 10403: a0 = u64 [a0 + 0xfffffffffffff820]\n 10407: u64 [s1 + 0x128] = a0\n 10411: i32 a1 = a1 + 0\n 10413: a0 = s1 + 0x1000\n 10417: i32 a0 = a0 + 0xfffffffffffffb60\n 10421: ecalli 3 // 'call_data_load'\n 10423: a0 = s1 + 0x7ff\n 10427: a0 = a0 + 0xd9\n 10431: a3 = a0 + 0x200\n 10435: a1 = u64 [a3 + 0x90]\n 10439: u64 [s1 + 0x118] = a1\n 10443: a4 = u64 [a3 + 0xa0]\n 10447: a2 = u64 [a3 + 0x88]\n 10451: u64 [s1 + 0x120] = a2\n 10455: a5 = u64 [a3 + 0x98]\n 10459: a3 = u64 [s1 + 0x100]\n 10463: a0 = a3 ^ a1\n 10466: a1 = a3 <u a1\n 10469: a3 = u64 [s1 + 0x128]\n 10473: a2 = a3 <u a2\n 10476: a2 = a1 if a0 != 0\n 10479: u64 [s1 + 0x110] = a4\n 10483: a1 = u64 [s1 + 0x130]\n 10487: a0 = a1 ^ a4\n 10490: a1 = a1 <u a4\n 10493: u64 [s1 + 0x108] = a5\n 10497: a4 = u64 [s1 + 0x138]\n 10501: a3 = a4 <u a5\n 10504: a3 = a1 if a0 != 0\n 10507: a1 = a4 ^ a5\n 10510: a0 = a0 | a1\n 10513: a2 = a3 if a0 != 0\n 10516: a0 = a2 ^ 0x1\n 10519: a1 = s1 + 0x1000\n 10523: u64 [a1 + 4294965272] = 0\n 10527: a1 = s1 + 0x1000\n 10531: u64 [a1 + 4294965264] = 0\n 10535: a1 = s1 + 0x1000\n 10539: u64 [a1 + 0xfffffffffffff800] = a0\n 10543: a0 = s1 + 0x7ff\n 10547: a0 = a0 + 0x1\n 10550: a1 = s1 + 0x1000\n 10554: u64 [a1 + 4294965256] = 0\n 10558: ra = 0x1d6\n 10562: t0 = 0x15c\n 10566: jump @732\n      : @441 [@dyn 235] (gas: 11)\n 10569: a0 = u64 [s1 + 0xd8]\n 10573: u64 [s1 + 0x7d8] = a0\n 10577: a0 = u64 [s1 + 0xe0]\n 10581: u64 [s1 + 0x7d0] = a0\n 10585: a0 = u64 [s1 + 0xe8]\n 10589: u64 [s1 + 0x7c8] = a0\n 10593: a0 = s1 + 0x7e0\n 10597: a1 = s1 + 0x7c0\n 10601: a2 = u64 [s1 + 0xf8]\n 10605: u64 [s1 + 0x7c0] = a2\n 10609: ra = 472, jump @353\n      : @442 [@dyn 236] (gas: 19)\n 10615: a0 = u64 [s1 + 0x7e0]\n 10619: u64 [s1 + 0x138] = a0\n 10623: a0 = u64 [s1 + 0x7e8]\n 10627: u64 [s1 + 0x130] = a0\n 10631: a0 = u64 [s1 + 0x7f0]\n 10635: u64 [s1 + 0x128] = a0\n 10639: a0 = u64 [s1 + 0x7f8]\n 10643: u64 [s1 + 0x100] = a0\n 10647: a0 = u64 [s1 + 0x140]\n 10651: u64 [s1 + 0x798] = a0\n 10655: a0 = u64 [s1 + 0x148]\n 10659: u64 [s1 + 0x790] = a0\n 10663: a0 = u64 [s1 + 0x150]\n 10667: u64 [s1 + 0x788] = a0\n 10671: a0 = s1 + 0x7a0\n 10675: a1 = s1 + 0x780\n 10679: a2 = u64 [s1 + 0x158]\n 10683: u64 [s1 + 0x780] = a2\n 10687: ra = 474, jump @248\n      : @443 [@dyn 237] (gas: 13)\n 10693: a2 = u64 [s1 + 0x7a0]\n 10697: a0 = u64 [s1 + 0x7a8]\n 10701: a1 = u64 [s1 + 0x7b0]\n 10705: a3 = u64 [s1 + 0x7b8]\n 10709: u64 [s1 + 0x758] = a3\n 10713: u64 [s1 + 0x750] = a1\n 10717: u64 [s1 + 0x748] = a0\n 10721: a0 = s1 + 0x760\n 10725: a1 = s1 + 0x740\n 10729: u64 [s1 + 0x740] = a2\n 10733: ra = 0x1dc\n 10737: t0 = 0xe0\n 10741: jump @730\n      : @444 [@dyn 238] (gas: 5)\n 10744: a0 = u64 [s1 + 0x778]\n 10748: a1 = u64 [s1 + 0x770]\n 10752: a2 = u64 [s1 + 0x768]\n 10756: a3 = u64 [s1 + 0x760]\n 10760: t0 = 478, jump @753\n      : @445 [@dyn 239] (gas: 17)\n 10766: u64 [a5 + 0xc0] = a0\n 10770: u64 [a5 + 0xb8] = a1\n 10774: u64 [a5 + 0xb0] = a2\n 10778: u64 [a5 + 0xa8] = a3\n 10782: a0 = u64 [s1 + 0x100]\n 10786: u64 [a5 + 0xe0] = a0\n 10790: a0 = u64 [s1 + 0x128]\n 10794: u64 [a5 + 0xd8] = a0\n 10798: a0 = u64 [s1 + 0x130]\n 10802: u64 [a5 + 0xd0] = a0\n 10806: a0 = u64 [s1 + 0x138]\n 10810: u64 [a5 + 0xc8] = a0\n 10814: a0 = s1 + 0x7ff\n 10818: a0 = a0 + 0x381\n 10822: a1 = s1 + 0x7ff\n 10826: a1 = a1 + 0x3a1\n 10830: ra = 480, jump @23\n      : @446 [@dyn 240] (gas: 15)\n 10836: a0 = sp + 0xffffffffffffffe0\n 10839: a0 = a0 & 0xffffffffffffffe0\n 10842: u64 [s1 + 0x138] = a0\n 10846: sp = a0\n 10848: a0 = u64 [s1 + 0x140]\n 10852: u64 [s1 + 0x718] = a0\n 10856: a0 = u64 [s1 + 0x148]\n 10860: u64 [s1 + 0x710] = a0\n 10864: a0 = u64 [s1 + 0x150]\n 10868: u64 [s1 + 0x708] = a0\n 10872: a0 = s1 + 0x720\n 10876: a1 = s1 + 0x700\n 10880: a2 = u64 [s1 + 0x158]\n 10884: u64 [s1 + 0x700] = a2\n 10888: ra = 482, jump @248\n      : @447 [@dyn 241] (gas: 14)\n 10894: a4 = s1 + 0x700\n 10898: a2 = u64 [a4 + 0x20]\n 10901: a0 = u64 [a4 + 0x28]\n 10904: a1 = u64 [a4 + 0x30]\n 10907: a3 = u64 [a4 + 0x38]\n 10910: u64 [s1 + 0x6d8] = a3\n 10914: u64 [s1 + 0x6d0] = a1\n 10918: u64 [s1 + 0x6c8] = a0\n 10922: a0 = s1 + 0x6e0\n 10926: a1 = s1 + 0x6c0\n 10930: u64 [s1 + 0x6c0] = a2\n 10934: ra = 0x1e4\n 10938: t0 = 0xe8\n 10942: jump @730\n      : @448 [@dyn 242] (gas: 13)\n 10945: a0 = u64 [s1 + 0x6f0]\n 10949: a4 = u64 [s1 + 0x6f8]\n 10953: a2 = u64 [s1 + 0x6e0]\n 10957: a3 = u64 [s1 + 0x6e8]\n 10961: a1 = u64 [s1 + 0x138]\n 10965: u64 [a1 + 0x10] = a0\n 10968: u64 [a1 + 0x18] = a4\n 10971: u64 [a1] = a2\n 10973: u64 [a1 + 0x8] = a3\n 10976: a0 = s1 + 0x6a0\n 10980: ra = 0x1e6\n 10984: t0 = 0x6\n 10987: jump @739\n      : @449 [@dyn 243] (gas: 20)\n 10990: a3 = u64 [s1 + 0x6a0]\n 10994: a0 = u64 [s1 + 0x6a8]\n 10998: a1 = u64 [s1 + 0x6b0]\n 11002: a2 = u64 [s1 + 0x6b8]\n 11006: a4 = u64 [s1 + 0x110]\n 11010: u64 [s1 + 0x658] = a4\n 11014: a4 = u64 [s1 + 0x108]\n 11018: u64 [s1 + 0x650] = a4\n 11022: a4 = u64 [s1 + 0x118]\n 11026: u64 [s1 + 0x648] = a4\n 11030: a4 = u64 [s1 + 0x120]\n 11034: u64 [s1 + 0x640] = a4\n 11038: u64 [s1 + 0x678] = a2\n 11042: u64 [s1 + 0x670] = a1\n 11046: u64 [s1 + 0x668] = a0\n 11050: a0 = s1 + 0x680\n 11054: a1 = s1 + 0x660\n 11058: a2 = s1 + 0x640\n 11062: u64 [s1 + 0x660] = a3\n 11066: ra = 488, jump @356\n      : @450 [@dyn 244] (gas: 15)\n 11072: a0 = u64 [s1 + 0x698]\n 11076: a1 = u64 [s1 + 0x690]\n 11080: a2 = u64 [s1 + 0x688]\n 11084: a3 = u64 [s1 + 0x680]\n 11088: a4 = s1 + 0x7ff\n 11092: a4 = a4 + 0xd9\n 11096: u64 [a4 + 0x300] = a0\n 11100: a0 = a4 + 0x200\n 11104: u64 [a0 + 0xf8] = a1\n 11108: u64 [a0 + 0xf0] = a2\n 11112: u64 [a0 + 0xe8] = a3\n 11116: a1 = s1 + 0x7ff\n 11120: a1 = a1 + 0x3c1\n 11124: a0 = u64 [s1 + 0x138]\n 11128: ra = 490, jump @23\n      : @451 [@dyn 245] (gas: 23)\n 11134: a0 = u64 [s1 + 0x158]\n 11138: a2 = a0 + 0x20\n 11141: a0 = a2 <u a0\n 11144: a1 = u64 [s1 + 0x150]\n 11148: a3 = a1 + a0\n 11151: a1 = a3 <u a1\n 11154: a1 = a0 if a0 == 0\n 11157: a0 = u64 [s1 + 0x148]\n 11161: a1 = a1 + a0\n 11164: a0 = a1 <u a0\n 11167: a4 = u64 [s1 + 0x140]\n 11171: a0 = a0 + a4\n 11174: u64 [s1 + 0x60] = a0\n 11177: u64 [s1 + 0x618] = a0\n 11181: u64 [s1 + 0x68] = a1\n 11184: u64 [s1 + 0x610] = a1\n 11188: u64 [s1 + 0x70] = a3\n 11191: u64 [s1 + 0x608] = a3\n 11195: a0 = s1 + 0x620\n 11199: a1 = s1 + 0x600\n 11203: u64 [s1 + 0x78] = a2\n 11206: u64 [s1 + 0x600] = a2\n 11210: ra = 492, jump @248\n      : @452 [@dyn 246] (gas: 54)\n 11216: a1 = s1 + 0x600\n 11220: a0 = u64 [a1 + 0x30]\n 11223: u64 [s1 + 0x90] = a0\n 11227: a0 = u64 [a1 + 0x28]\n 11230: u64 [s1 + 0x88] = a0\n 11234: a0 = u64 [a1 + 0x20]\n 11237: u64 [s1 + 0x98] = a0\n 11241: a0 = u64 [s1 + 0x158]\n 11245: i32 a1 = a0 + 0x60\n 11248: a0 = s1 + 0x1000\n 11252: i32 a0 = a0 + 0xfffffffffffffbe0\n 11256: ecalli 3 // 'call_data_load'\n 11258: a1 = s1 + 0x7ff\n 11262: a1 = a1 + 0xd9\n 11266: a2 = a1 + 0x300\n 11270: a0 = u64 [a2 + 0x20]\n 11273: u64 [s1 + 0x38] = a0\n 11276: a0 = u64 [a2 + 0x18]\n 11279: u64 [s1 + 0x30] = a0\n 11282: a0 = u64 [a2 + 0x10]\n 11285: u64 [s1 + 0x28] = a0\n 11288: a0 = u64 [a2 + 0x8]\n 11291: u64 [s1 + 0x20] = a0\n 11294: a1 = u64 [s1 + 0x158]\n 11298: a2 = a1 + 0xa0\n 11302: a0 = a2 <u a1\n 11305: t0 = a1\n 11307: a4 = u64 [s1 + 0x150]\n 11311: a3 = a4 + a0\n 11314: a1 = a3 <u a4\n 11317: t1 = a4\n 11319: a1 = a0 if a0 == 0\n 11322: a4 = u64 [s1 + 0x148]\n 11326: a1 = a1 + a4\n 11329: a0 = a1 <u a4\n 11332: a5 = a4\n 11334: a4 = u64 [s1 + 0x140]\n 11338: a0 = a0 + a4\n 11341: u64 [s1 + 0x40] = a0\n 11344: u64 [s1 + 0x598] = a0\n 11348: u64 [s1 + 0x48] = a1\n 11351: u64 [s1 + 0x590] = a1\n 11355: u64 [s1 + 0x50] = a3\n 11358: u64 [s1 + 0x588] = a3\n 11362: u64 [s1 + 0x58] = a2\n 11365: u64 [s1 + 0x580] = a2\n 11369: u64 [s1 + 0x5b8] = a4\n 11373: u64 [s1 + 0x5b0] = a5\n 11377: u64 [s1 + 0x5a8] = t1\n 11381: a0 = s1 + 0x5c0\n 11385: a1 = s1 + 0x5a0\n 11389: a2 = s1 + 0x580\n 11393: u64 [s1 + 0x5a0] = t0\n 11397: ra = 494, jump @359\n      : @453 [@dyn 247] (gas: 27)\n 11403: a0 = u64 [s1 + 0x5c0]\n 11407: u64 [s1 + 0xf8] = a0\n 11411: a0 = u64 [s1 + 0x5c8]\n 11415: u64 [s1 + 0xf0] = a0\n 11419: a0 = u64 [s1 + 0x5d0]\n 11423: u64 [s1 + 0xe8] = a0\n 11427: a0 = u64 [s1 + 0x5d8]\n 11431: u64 [s1 + 0xe0] = a0\n 11435: a0 = u64 [s1 + 0x5e0]\n 11439: u64 [s1 + 0xd8] = a0\n 11443: a0 = u64 [s1 + 0x5e8]\n 11447: u64 [s1 + 0xd0] = a0\n 11451: a0 = u64 [s1 + 0x5f0]\n 11455: u64 [s1 + 0xc8] = a0\n 11459: a0 = u64 [s1 + 0x5f8]\n 11463: u64 [s1 + 0xc0] = a0\n 11467: a0 = u64 [s1 + 0x140]\n 11471: u64 [s1 + 0x558] = a0\n 11475: a0 = u64 [s1 + 0x148]\n 11479: u64 [s1 + 0x550] = a0\n 11483: a0 = u64 [s1 + 0x150]\n 11487: u64 [s1 + 0x548] = a0\n 11491: a0 = s1 + 0x560\n 11495: a1 = s1 + 0x540\n 11499: a2 = u64 [s1 + 0x158]\n 11503: u64 [s1 + 0x540] = a2\n 11507: ra = 496, jump @248\n      : @454 [@dyn 248] (gas: 11)\n 11513: a0 = u64 [s1 + 0x560]\n 11517: u64 [s1 + 0xb8] = a0\n 11521: a0 = u64 [s1 + 0x568]\n 11525: u64 [s1 + 0xb0] = a0\n 11529: a0 = u64 [s1 + 0x570]\n 11533: u64 [s1 + 0xa8] = a0\n 11537: a0 = u64 [s1 + 0x578]\n 11541: u64 [s1 + 0xa0] = a0\n 11545: a0 = s1 + 0x520\n 11549: a1 = 0x40\n 11552: ra = 498, jump @17\n      : @455 [@dyn 249] (gas: 55)\n 11558: a2 = s1 + 0x500\n 11562: a0 = u64 [a2 + 0x20]\n 11565: u64 [s1 + 0x138] = a0\n 11569: a5 = u64 [a2 + 0x38]\n 11572: u64 [s1 + 0x130] = a5\n 11576: a1 = u64 [a2 + 0x28]\n 11579: u64 [s1 + 0x100] = a1\n 11583: t0 = u64 [s1 + 0x530]\n 11587: a2 = a0 + 0x20\n 11590: a0 = a2 <u a0\n 11593: a3 = a1 + a0\n 11596: a1 = a3 <u a1\n 11599: a1 = a0 if a0 == 0\n 11602: u64 [s1 + 0x128] = t0\n 11606: a1 = a1 + t0\n 11609: a0 = a1 <u t0\n 11612: a5 = a5 + a0\n 11615: a0 = u64 [s1 + 0xa0]\n 11619: u64 [s1 + 0x498] = a0\n 11623: a0 = u64 [s1 + 0xa8]\n 11627: u64 [s1 + 0x490] = a0\n 11631: a0 = u64 [s1 + 0xb0]\n 11635: u64 [s1 + 0x488] = a0\n 11639: a0 = u64 [s1 + 0xb8]\n 11643: u64 [s1 + 0x480] = a0\n 11647: a0 = u64 [s1 + 0xc0]\n 11651: u64 [s1 + 0x4b8] = a0\n 11655: a0 = u64 [s1 + 0xc8]\n 11659: u64 [s1 + 0x4b0] = a0\n 11663: a0 = u64 [s1 + 0xd0]\n 11667: u64 [s1 + 0x4a8] = a0\n 11671: a0 = u64 [s1 + 0xd8]\n 11675: u64 [s1 + 0x4a0] = a0\n 11679: a0 = u64 [s1 + 0xe0]\n 11683: u64 [s1 + 0x4d8] = a0\n 11687: a0 = u64 [s1 + 0xe8]\n 11691: u64 [s1 + 0x4d0] = a0\n 11695: a0 = u64 [s1 + 0xf0]\n 11699: u64 [s1 + 0x4c8] = a0\n 11703: a0 = u64 [s1 + 0xf8]\n 11707: u64 [s1 + 0x4c0] = a0\n 11711: u64 [s1 + 0xf8] = a2\n 11715: u64 [s1 + 0x4e0] = a2\n 11719: u64 [s1 + 0xf0] = a3\n 11723: u64 [s1 + 0x4e8] = a3\n 11727: u64 [s1 + 0xe8] = a1\n 11731: u64 [s1 + 0x4f0] = a1\n 11735: a0 = s1 + 0x500\n 11739: a1 = s1 + 0x4e0\n 11743: a2 = s1 + 0x4c0\n 11747: a3 = s1 + 0x4a0\n 11751: a4 = s1 + 0x480\n 11755: u64 [s1 + 0xe0] = a5\n 11759: u64 [s1 + 0x4f8] = a5\n 11763: ra = 500, jump @372\n      : @456 [@dyn 250] (gas: 15)\n 11769: a5 = s1 + 0x100\n 11773: a1 = u64 [a5]\n 11775: a4 = a1\n 11777: a0 = u64 [a5 + 0x30]\n 11780: a0 = a0 | a1\n 11783: a1 = u64 [a5 + 0x38]\n 11786: a2 = a1\n 11788: a3 = u64 [a5 + 0x28]\n 11791: a1 = a1 | a3\n 11794: a1 = a1 | a0\n 11797: a1 = a1 >> 0x20\n 11800: a0 = a0 | a3\n 11803: a0 = a0 << 0x20\n 11806: a0 = a0 | a1\n 11809: jump @474 if a0 != 0\n      : @457 (gas: 46)\n 11813: t2 = u64 [s1 + 0x500]\n 11817: a5 = u64 [s1 + 0x508]\n 11821: a0 = u64 [s1 + 0x518]\n 11825: u64 [s1 + 0xd8] = a0\n 11829: t0 = u64 [s1 + 0x510]\n 11833: t1 = t2 <u a2\n 11836: a1 = a5 ^ a4\n 11839: a2 = a5 <u a4\n 11842: a2 = t1 if a1 == 0\n 11845: a0 = u64 [s1 + 0x128]\n 11849: a3 = t0 - a0\n 11852: ra = a3 <u a2\n 11855: t0 = t0 <u a0\n 11858: a0 = u64 [s1 + 0x130]\n 11862: a1 = u64 [s1 + 0xd8]\n 11866: a0 = a1 - a0\n 11869: a0 = a0 - t0\n 11872: t0 = a0 - ra\n 11875: u64 [s1 + 0xc8] = t0\n 11879: ra = a3 - a2\n 11882: a0 = a5 - a4\n 11885: a3 = a0 - t1\n 11888: u64 [s1 + 0xd0] = a3\n 11892: a0 = u64 [s1 + 0x138]\n 11896: a1 = t2 - a0\n 11899: u64 [s1 + 0xd8] = a1\n 11903: a5 = a1 + 0xffffffffffffffe0\n 11906: a1 = a5 <u a1\n 11909: a2 = a3 + a1\n 11912: a2 = a2 + 0xffffffffffffffff\n 11915: t1 = a2 ^ a3\n 11918: a4 = a2 <u a3\n 11921: a4 = a1 if t1 == 0\n 11924: u64 [s1 + 0xc0] = ra\n 11928: a1 = ra <u 0x1\n 11931: t1 = t0 - a1\n 11934: a1 = ra + 0xffffffffffffffff\n 11937: a4 = a4 + a1\n 11940: a3 = a4 <u a1\n 11943: a3 = a3 + t1\n 11946: u64 [s1 + 0x460] = a5\n 11950: u64 [s1 + 0x468] = a2\n 11954: u64 [s1 + 0x470] = a4\n 11958: a1 = s1 + 0x460\n 11962: u64 [s1 + 0x478] = a3\n 11966: ra = 502, jump @19\n      : @458 [@dyn 251] (gas: 19)\n 11972: a0 = u64 [s1 + 0xc8]\n 11976: u64 [s1 + 0x438] = a0\n 11980: a0 = u64 [s1 + 0xc0]\n 11984: u64 [s1 + 0x430] = a0\n 11988: a0 = u64 [s1 + 0xd0]\n 11992: u64 [s1 + 0x428] = a0\n 11996: a0 = u64 [s1 + 0xd8]\n 12000: u64 [s1 + 0x420] = a0\n 12004: a0 = u64 [s1 + 0x130]\n 12008: u64 [s1 + 0x458] = a0\n 12012: a0 = u64 [s1 + 0x128]\n 12016: u64 [s1 + 0x450] = a0\n 12020: a0 = u64 [s1 + 0x100]\n 12024: u64 [s1 + 0x448] = a0\n 12028: a0 = s1 + 0x440\n 12032: a1 = s1 + 0x420\n 12036: a2 = u64 [s1 + 0x138]\n 12040: u64 [s1 + 0x440] = a2\n 12044: ra = 504, jump @386\n      : @459 [@dyn 252] (gas: 3)\n 12050: a0 = s1 + 0x400\n 12054: a1 = u64 [s1 + 0x138]\n 12058: ra = 506, jump @17\n      : @460 [@dyn 253] (gas: 43)\n 12064: a0 = u64 [s1 + 0x88]\n 12068: a0 = reverse a0\n 12070: a1 = u64 [s1 + 0x90]\n 12074: a1 = reverse a1\n 12076: a1 = a1 >> 0x20\n 12079: a2 = a0 << 0x20\n 12082: a3 = a1 | a2\n 12085: a1 = u64 [s1 + 0x98]\n 12089: a4 = reverse a1\n 12091: a0 = a0 >> 0x20\n 12094: a1 = a4 << 0x20\n 12097: a1 = a1 | a0\n 12100: a5 = 0x30200\n 12105: t0 = u64 [s1 + 0x418]\n 12109: t2 = u64 [s1 + 0x410]\n 12113: t1 = u64 [s1 + 0x408]\n 12117: a2 = u64 [s1 + 0x400]\n 12121: u64 [0x30208] = a1\n 12126: u64 [0x30200] = a3\n 12131: a4 = a4 >> 0x20\n 12134: u32 [0x30210] = a4\n 12139: ra = s1 + 0x7ff\n 12143: ra = ra + 0xd9\n 12147: a3 = u64 [s1 + 0x110]\n 12151: u64 [ra + 0x340] = a3\n 12155: a3 = u64 [s1 + 0x108]\n 12159: u64 [ra + 0x338] = a3\n 12163: a3 = u64 [s1 + 0x118]\n 12167: u64 [ra + 0x330] = a3\n 12171: a0 = u64 [s1 + 0xf0]\n 12175: a1 = u64 [s1 + 0xe0]\n 12179: a1 = a1 | a0\n 12182: a0 = u64 [s1 + 0xf8]\n 12186: a3 = u64 [s1 + 0xe8]\n 12190: a4 = a0 | a3\n 12193: a4 = a4 | a1\n 12196: a3 = a3 | a1\n 12199: a4 = a4 >> 0x20\n 12202: a3 = a3 << 0x20\n 12205: a3 = a3 | a4\n 12208: a4 = u64 [s1 + 0x120]\n 12212: u64 [ra + 0x328] = a4\n 12216: jump @474 if a3 != 0\n      : @461 (gas: 9)\n 12220: u64 [s1 + 0x138] = a5\n 12224: a3 = a2 | t2\n 12227: a1 = t1 | t0\n 12230: a3 = a3 | a1\n 12233: a3 = a3 >> 0x20\n 12236: a1 = a1 | t2\n 12239: a1 = a1 << 0x20\n 12242: a1 = a1 | a3\n 12245: jump @474 if a1 != 0\n      : @462 (gas: 5)\n 12249: i32 a1 = a2 + 0\n 12251: u64 [s1 + 0x128] = a1\n 12255: a1 = a2\n 12257: u64 [s1 + 0x130] = a2\n 12261: ra = 508, jump @28\n      : @463 [@dyn 254] (gas: 57)\n 12267: a2 = u64 [s1 + 0x20]\n 12270: a1 = a2 >u 0x8fc\n 12274: a3 = u64 [s1 + 0x28]\n 12277: a2 = a3 >u 0\n 12279: a2 = a1 if a3 == 0\n 12282: a5 = u64 [s1 + 0x30]\n 12285: a1 = a5 >u 0\n 12287: a4 = u64 [s1 + 0x38]\n 12290: a3 = a4 >u 0\n 12292: a3 = a1 if a4 == 0\n 12295: a1 = a5 | a4\n 12298: a2 = a3 if a1 != 0\n 12301: a1 = u64 [s1 + 0x128]\n 12305: a1 = a1 >u 0\n 12307: a1 = a1 | a2\n 12310: a2 = -a1\n 12312: a3 = s1 + 0x7ff\n 12316: a3 = a3 + 0xd9\n 12320: a4 = a3 + 0x300\n 12324: u64 [a4 + 0x80] = a2\n 12328: u64 [a4 + 0x78] = a2\n 12331: u64 [a4 + 0x70] = a2\n 12334: u64 [a4 + 0x68] = a2\n 12337: u32 [a3 + 840] = 0\n 12341: a2 = u64 [s1 + 0x138]\n 12345: a2 = a2 << 0x20\n 12348: a2 = a2 >> 0x20\n 12351: a1 = a1 << 0x23\n 12354: t0 = a1 | a2\n 12357: a1 = s1 + 0x7ff\n 12361: a1 = a1 + 0x401\n 12365: a1 = a1 << 0x20\n 12368: a1 = a1 >> 0x20\n 12371: a2 = s1 + 0x7ff\n 12375: a2 = a2 + 0x441\n 12379: a2 = a2 << 0x20\n 12382: a3 = a2 | a1\n 12385: a0 = a0 << 0x20\n 12388: a1 = 0x20200\n 12393: a0 = a0 >> 0x20\n 12396: a4 = u64 [s1 + 0x130]\n 12400: a4 = a4 << 0x20\n 12403: a4 = a4 | a0\n 12406: a1 = a1 << 0x20\n 12409: a1 = a1 >> 0x20\n 12412: a0 = s1 + 0x7ff\n 12416: a0 = a0 + 0x421\n 12420: a0 = a0 << 0x20\n 12423: a5 = a0 | a1\n 12426: a1 = 0xffffffffffffffff\n 12429: a2 = 0xffffffffffffffff\n 12432: a0 = t0\n 12434: ecalli 1 // 'call'\n 12436: a0 = a0 <u 0x1\n 12439: u64 [s1 + 0x138] = a0\n 12443: a0 = s1 + 0x3e0\n 12447: ra = 510, jump @394\n      : @464 [@dyn 255] (gas: 19)\n 12453: a0 = u64 [s1 + 0x3f8]\n 12457: u64 [s1 + 0x118] = a0\n 12461: a0 = u64 [s1 + 0x3f0]\n 12465: u64 [s1 + 0x120] = a0\n 12469: a0 = u64 [s1 + 0x3e8]\n 12473: u64 [s1 + 0x128] = a0\n 12477: a0 = u64 [s1 + 0x3e0]\n 12481: u64 [s1 + 0x130] = a0\n 12485: a0 = u64 [s1 + 0x140]\n 12489: u64 [s1 + 0x3b8] = a0\n 12493: a0 = u64 [s1 + 0x148]\n 12497: u64 [s1 + 0x3b0] = a0\n 12501: a0 = u64 [s1 + 0x150]\n 12505: u64 [s1 + 0x3a8] = a0\n 12509: a0 = s1 + 0x3c0\n 12513: a1 = s1 + 0x3a0\n 12517: a2 = u64 [s1 + 0x158]\n 12521: u64 [s1 + 0x3a0] = a2\n 12525: ra = 512, jump @248\n      : @465 [@dyn 256] (gas: 17)\n 12531: a0 = u64 [s1 + 0x3d0]\n 12535: u64 [s1 + 0x100] = a0\n 12539: a0 = u64 [s1 + 0x3c8]\n 12543: u64 [s1 + 0x110] = a0\n 12547: a0 = u64 [s1 + 0x3c0]\n 12551: u64 [s1 + 0x108] = a0\n 12555: a0 = u64 [s1 + 0x60]\n 12558: u64 [s1 + 0x378] = a0\n 12562: a0 = u64 [s1 + 0x68]\n 12565: u64 [s1 + 0x370] = a0\n 12569: a0 = u64 [s1 + 0x70]\n 12572: u64 [s1 + 0x368] = a0\n 12576: a0 = s1 + 0x380\n 12580: a1 = s1 + 0x360\n 12584: a2 = u64 [s1 + 0x78]\n 12587: u64 [s1 + 0x360] = a2\n 12591: ra = 514, jump @248\n      : @466 [@dyn 257] (gas: 26)\n 12597: a0 = u64 [s1 + 0x390]\n 12601: u64 [s1 + 0xe8] = a0\n 12605: a0 = u64 [s1 + 0x388]\n 12609: u64 [s1 + 0xf8] = a0\n 12613: a0 = u64 [s1 + 0x380]\n 12617: u64 [s1 + 0xf0] = a0\n 12621: a0 = u64 [s1 + 0x40]\n 12624: u64 [s1 + 0x2f8] = a0\n 12628: a0 = u64 [s1 + 0x48]\n 12631: u64 [s1 + 0x2f0] = a0\n 12635: a0 = u64 [s1 + 0x50]\n 12638: u64 [s1 + 0x2e8] = a0\n 12642: a0 = u64 [s1 + 0x58]\n 12645: u64 [s1 + 0x2e0] = a0\n 12649: a0 = u64 [s1 + 0x140]\n 12653: u64 [s1 + 0x318] = a0\n 12657: a0 = u64 [s1 + 0x148]\n 12661: u64 [s1 + 0x310] = a0\n 12665: a0 = u64 [s1 + 0x150]\n 12669: u64 [s1 + 0x308] = a0\n 12673: a0 = s1 + 0x320\n 12677: a1 = s1 + 0x300\n 12681: a2 = s1 + 0x2e0\n 12685: a3 = u64 [s1 + 0x158]\n 12689: u64 [s1 + 0x300] = a3\n 12693: ra = 516, jump @359\n      : @467 [@dyn 258] (gas: 48)\n 12699: t0 = u64 [s1 + 0x320]\n 12703: t1 = u64 [s1 + 0x328]\n 12707: a1 = u64 [s1 + 0x330]\n 12711: a2 = u64 [s1 + 0x338]\n 12715: a4 = u64 [s1 + 0x340]\n 12719: a5 = u64 [s1 + 0x348]\n 12723: a3 = u64 [s1 + 0x350]\n 12727: a0 = u64 [s1 + 0x358]\n 12731: u64 [s1 + 0x298] = a0\n 12735: u64 [s1 + 0x290] = a3\n 12739: u64 [s1 + 0x288] = a5\n 12743: u64 [s1 + 0x280] = a4\n 12747: u64 [s1 + 0x2b8] = a2\n 12751: u64 [s1 + 0x2b0] = a1\n 12755: u64 [s1 + 0x2a8] = t1\n 12759: a0 = s1 + 0x2c0\n 12763: a1 = s1 + 0x2a0\n 12767: a2 = s1 + 0x280\n 12771: u64 [s1 + 0x2a0] = t0\n 12775: ra = 0x206\n 12779: sp = sp + 0xffffffffffffff40\n 12783: u64 [sp + 0xb8] = ra\n 12787: u64 [sp + 0xb0] = s0\n 12791: u64 [sp + 0xa8] = s1\n 12795: s0 = sp + 0xc0\n 12799: sp = sp & 0xffffffffffffffe0\n 12802: s1 = sp\n 12804: a3 = u64 [a2 + 0x18]\n 12807: u64 [s1 + 0x50] = a3\n 12810: a3 = u64 [a2 + 0x10]\n 12813: u64 [s1 + 0x48] = a3\n 12816: a3 = u64 [a2 + 0x8]\n 12819: u64 [s1 + 0x40] = a3\n 12822: a2 = u64 [a2]\n 12824: u64 [s1 + 0x38] = a2\n 12827: a2 = u64 [a1 + 0x10]\n 12830: u64 [s1 + 0x58] = a2\n 12833: a2 = u64 [a1]\n 12835: u64 [s1 + 0x28] = a2\n 12838: a2 = u64 [a1 + 0x18]\n 12841: u64 [s1 + 0x30] = a2\n 12844: a1 = u64 [a1 + 0x8]\n 12847: u64 [s1 + 0x20] = a1\n 12850: u64 [s1 + 0x18] = a0\n 12853: a0 = s1 + 0x80\n 12857: a1 = 0x40\n 12860: ra = 0x1a8\n 12864: jump @17\n      : @468 [@dyn 259] (gas: 11)\n 12867: a0 = u64 [s1 + 0x2d8]\n 12871: u64 [s1 + 0xe0] = a0\n 12875: a0 = u64 [s1 + 0x2d0]\n 12879: u64 [s1 + 0xd8] = a0\n 12883: a0 = u64 [s1 + 0x2c8]\n 12887: u64 [s1 + 0xd0] = a0\n 12891: a0 = u64 [s1 + 0x2c0]\n 12895: u64 [s1 + 0xc8] = a0\n 12899: a0 = s1 + 0x260\n 12903: a1 = 0x40\n 12906: ra = 520, jump @17\n      : @469 [@dyn 260] (gas: 31)\n 12912: a5 = s1 + 0x200\n 12916: a2 = u64 [a5 + 0x78]\n 12919: u64 [s1 + 0x150] = a2\n 12923: a1 = u64 [a5 + 0x70]\n 12926: u64 [s1 + 0x148] = a1\n 12930: a3 = u64 [a5 + 0x68]\n 12933: u64 [s1 + 0x140] = a3\n 12937: a4 = u64 [a5 + 0x60]\n 12940: u64 [s1 + 0x158] = a4\n 12944: a0 = u64 [s1 + 0x118]\n 12948: u64 [s1 + 0x1f8] = a0\n 12952: a0 = u64 [s1 + 0x120]\n 12956: u64 [s1 + 0x1f0] = a0\n 12960: a0 = u64 [s1 + 0x128]\n 12964: u64 [s1 + 0x1e8] = a0\n 12968: a0 = u64 [s1 + 0x130]\n 12972: u64 [s1 + 0x1e0] = a0\n 12976: u64 [s1 + 536] = 0\n 12980: u64 [s1 + 528] = 0\n 12984: u64 [s1 + 520] = 0\n 12988: a0 = u64 [s1 + 0x138]\n 12992: u64 [a5] = a0\n 12994: u64 [a5 + 0x38] = a2\n 12997: u64 [a5 + 0x30] = a1\n 13000: u64 [a5 + 0x28] = a3\n 13003: a0 = s1 + 0x240\n 13007: a1 = s1 + 0x220\n 13011: a2 = s1 + 0x200\n 13015: a3 = s1 + 0x1e0\n 13019: u64 [a5 + 0x20] = a4\n 13022: ra = 522, jump @125\n      : @470 [@dyn 261] (gas: 13)\n 13028: a4 = s1 + 0x100\n 13032: a2 = u64 [a4 + 0x40]\n 13035: a0 = u64 [a4 + 0x50]\n 13038: a0 = a0 | a2\n 13041: a3 = u64 [a4 + 0x48]\n 13044: a1 = u64 [a4 + 0x58]\n 13047: a1 = a1 | a3\n 13050: a1 = a1 | a0\n 13053: a1 = a1 >> 0x20\n 13056: a0 = a0 | a3\n 13059: a0 = a0 << 0x20\n 13062: a0 = a0 | a1\n 13065: jump @474 if a0 != 0\n      : @471 (gas: 34)\n 13069: ra = a3\n 13071: a4 = s1 + 0x200\n 13075: a0 = u64 [a4 + 0x48]\n 13078: a1 = u64 [a4 + 0x58]\n 13081: u64 [s1 + 0xc0] = a1\n 13085: t1 = u64 [s1 + 0x240]\n 13089: a3 = u64 [a4 + 0x50]\n 13092: a4 = a0 ^ a2\n 13095: a5 = a0 <u a2\n 13098: t0 = u64 [s1 + 0x158]\n 13102: a1 = t1 <u t0\n 13105: a5 = a1 if a4 == 0\n 13108: a4 = a3 - ra\n 13111: t2 = a4 - a5\n 13114: a4 = a4 <u a5\n 13117: u64 [s1 + 0xb8] = a4\n 13121: a3 = a3 <u ra\n 13124: a5 = u64 [s1 + 0x150]\n 13128: a4 = u64 [s1 + 0xc0]\n 13132: a5 = a4 - a5\n 13135: a5 = a5 - a3\n 13138: a3 = u64 [s1 + 0xb8]\n 13142: a5 = a5 - a3\n 13145: a0 = a0 - a2\n 13148: a0 = a0 - a1\n 13151: a1 = t1 - t0\n 13154: a0 = a0 | a5\n 13157: a3 = a1 | t2\n 13160: a3 = a3 | a0\n 13163: a0 = a0 | t2\n 13166: a3 = a3 >> 0x20\n 13169: a0 = a0 << 0x20\n 13172: a0 = a0 | a3\n 13175: jump @474 if a0 != 0\n      : @472 (gas: 81)\n 13179: a0 = u64 [s1 + 0x100]\n 13183: a0 = a0 << 0x20\n 13186: t0 = a0 >> 0x20\n 13189: a2 = u64 [s1 + 0xe8]\n 13193: a2 = a2 << 0x20\n 13196: a2 = a2 >> 0x20\n 13199: a0 = u64 [s1 + 0xc8]\n 13203: u64 [s1 + 0x160] = a0\n 13207: a0 = u64 [s1 + 0xf0]\n 13211: u64 [s1 + 0x180] = a0\n 13215: u64 [s1 + 408] = 0\n 13219: u64 [s1 + 440] = 0\n 13223: a0 = u64 [s1 + 0x108]\n 13227: u64 [s1 + 0x1a0] = a0\n 13231: a0 = u64 [s1 + 0xd0]\n 13235: u64 [s1 + 0x168] = a0\n 13239: a0 = u64 [s1 + 0xf8]\n 13243: u64 [s1 + 0x188] = a0\n 13247: a0 = u64 [s1 + 0x110]\n 13251: u64 [s1 + 0x1a8] = a0\n 13255: a3 = u64 [0x200c0]\n 13260: a4 = u64 [0x200c8]\n 13265: a5 = u64 [0x200d0]\n 13270: a0 = u64 [0x200d8]\n 13275: u64 [s1 + 0x1d8] = a3\n 13279: u64 [s1 + 0x1d0] = a4\n 13283: u64 [s1 + 0x1c8] = a5\n 13287: u64 [s1 + 0x1c0] = a0\n 13291: a0 = u64 [s1 + 0xd8]\n 13295: u64 [s1 + 0x170] = a0\n 13299: a0 = u64 [s1 + 0xe0]\n 13303: u64 [s1 + 0x178] = a0\n 13307: u64 [s1 + 0x190] = a2\n 13311: a2 = s1 + 0x1c0\n 13315: a3 = s1 + 0x1a0\n 13319: a4 = s1 + 0x180\n 13323: a5 = s1 + 0x160\n 13327: u64 [s1 + 0x1b0] = t0\n 13331: a0 = u64 [s1 + 0x158]\n 13335: ra = 0x20c\n 13339: sp = sp + 0xfffffffffffffee0\n 13343: u64 [sp + 0x118] = ra\n 13347: u64 [sp + 0x110] = s0\n 13351: u64 [sp + 0x108] = s1\n 13355: s0 = sp + 0x120\n 13359: sp = sp & 0xffffffffffffffe0\n 13362: s1 = u64 [a5]\n 13364: u64 [sp + 0x60] = s1\n 13367: s1 = u64 [a5 + 0x8]\n 13370: u64 [sp + 0x68] = s1\n 13373: s1 = u64 [a5 + 0x10]\n 13376: u64 [sp + 0x70] = s1\n 13379: a5 = u64 [a5 + 0x18]\n 13382: u64 [sp + 0x78] = a5\n 13385: a5 = u64 [a4]\n 13387: u64 [sp + 0x38] = a5\n 13390: a5 = u64 [a4 + 0x8]\n 13393: u64 [sp + 0x40] = a5\n 13396: a5 = u64 [a4 + 0x10]\n 13399: u64 [sp + 0x48] = a5\n 13402: a4 = u64 [a4 + 0x18]\n 13405: u64 [sp + 0x50] = a4\n 13408: t0 = 0xc\n 13411: a4 = u64 [a3]\n 13413: u64 [sp + 0x18] = a4\n 13416: a4 = u64 [a3 + 0x8]\n 13419: u64 [sp + 0x20] = a4\n 13422: a4 = u64 [a3 + 0x10]\n 13425: u64 [sp + 0x28] = a4\n 13428: a3 = u64 [a3 + 0x18]\n 13431: u64 [sp + 0x30] = a3\n 13434: s1 = u64 [a2]\n 13436: a3 = u64 [a2 + 0x8]\n 13439: u64 [sp] = a3\n 13441: a3 = u64 [a2 + 0x10]\n 13444: u64 [sp + 0x8] = a3\n 13447: a2 = u64 [a2 + 0x18]\n 13450: u64 [sp + 0x10] = a2\n 13453: u64 [sp + 0x58] = a1\n 13456: ra = 0xe\n 13459: jump @28\n      : @473 [@dyn 262] (gas: 24)\n 13462: a0 = u64 [s1 + 0x80]\n 13466: a2 = s1 + 0x100\n 13470: a1 = u64 [a2 + 0x18]\n 13473: u64 [a0 + 0x38] = a1\n 13476: a1 = u64 [a2 + 0x20]\n 13479: u64 [a0 + 0x30] = a1\n 13482: a1 = u64 [a2 + 0x28]\n 13485: u64 [a0 + 0x28] = a1\n 13488: a1 = u64 [a2 + 0x30]\n 13491: u64 [a0 + 0x20] = a1\n 13494: u64 [a0 + 24] = 0\n 13497: u64 [a0 + 16] = 0\n 13500: u64 [a0 + 8] = 0\n 13503: a1 = u64 [a2 + 0x38]\n 13506: u64 [a0] = a1\n 13508: sp = s0 + 0xfffffffffffff800\n 13512: sp = sp + 0xfffffffffffffb80\n 13516: sp = sp + 0x488\n 13520: a0 = sp + 0x700\n 13524: ra = u64 [a0 + 0xf0]\n 13528: s0 = u64 [a0 + 0xe8]\n 13532: s1 = u64 [a0 + 0xe0]\n 13536: sp = sp + 0x7f8\n 13540: ret\n      : @474 (gas: 1)\n 13542: trap\n      : @475 [@dyn 263] (gas: 2)\n 13543: a2 = u64 [s1 + 0x28]\n 13546: t0 = 528, jump @733\n      : @476 [@dyn 264] (gas: 8)\n 13552: u64 [s1 + 280] = 0\n 13556: a2 = s1 + 0x100\n 13560: u64 [a2 + 0x10] = a1\n 13563: u64 [a2 + 0x8] = a0\n 13566: a1 = s1 + 0x100\n 13570: u64 [a2] = a3\n 13572: a0 = 0\n 13574: ra = 530, jump @19\n      : @477 [@dyn 265] (gas: 7)\n 13580: u64 [s1 + 248] = 0\n 13584: u64 [s1 + 240] = 0\n 13588: u64 [s1 + 224] = 0x2\n 13593: a0 = 0x20\n 13596: a1 = s1 + 0xe0\n 13600: u64 [s1 + 232] = 0\n 13604: ra = 532, jump @19\n      : @478 [@dyn 266] (gas: 2)\n 13610: a1 = i32 [0x201ec]\n 13615: jump @480 if a1 >u 63\n      : @479 (gas: 2)\n 13619: u32 [0x201ec] = 0x40\n 13625: fallthrough\n      : @480 (gas: 13)\n 13626: a0 = sp + 0xffffffffffffffe0\n 13629: a2 = a0 & 0xffffffffffffffe0\n 13632: u64 [s1 + 0x38] = a2\n 13635: sp = a2\n 13637: a0 = 0x20200\n 13642: i32 a0 = a0 + 0\n 13644: i32 a2 = a2 + 0\n 13646: a1 = 0x40\n 13649: ra = 0x216\n 13653: ecalli 9 // 'hash_keccak_256'\n 13655: a3 = u64 [s1 + 0x38]\n 13658: t0 = 0x218\n 13662: jump @740\n      : @481 [@dyn 267] (gas: 2)\n 13665: a3 = u64 [s1 + 0x38]\n 13668: t0 = 536, jump @740\n      : @482 [@dyn 268] (gas: 9)\n 13674: u64 [s1 + 0x138] = a3\n 13678: u64 [s1 + 0x130] = a2\n 13682: u64 [s1 + 0x128] = a1\n 13686: u64 [s1 + 0x120] = a0\n 13690: a0 = s1 + 0xc0\n 13694: a1 = s1 + 0x120\n 13698: ra = 0x21a\n 13702: t0 = 0x6\n 13705: jump @739\n      : @483 [@dyn 269] (gas: 19)\n 13708: a0 = u64 [s1 + 0xd8]\n 13712: u64 [s1 + 0x18] = a0\n 13715: a0 = u64 [s1 + 0xd0]\n 13719: u64 [s1 + 0x38] = a0\n 13722: a0 = u64 [s1 + 0xc0]\n 13726: u64 [s1 + 0x10] = a0\n 13729: a0 = u64 [s1 + 0xc8]\n 13733: u64 [s1 + 0x30] = a0\n 13736: a0 = sp + 0xffffffffffffffe0\n 13739: a0 = a0 & 0xffffffffffffffe0\n 13742: u64 [s1 + 0x20] = a0\n 13745: sp = a0\n 13747: u64 [s1 + 344] = 0\n 13751: u64 [s1 + 336] = 0\n 13755: u64 [s1 + 328] = 0\n 13759: u64 [s1 + 320] = 0\n 13763: i32 a0 = s1 + 0x140\n 13767: ecalli 16 // 'value_transferred'\n 13769: fallthrough\n      : @484 (gas: 42)\n 13770: a0 = s1 + 0x100\n 13774: a2 = u64 [a0 + 0x48]\n 13777: a1 = u64 [a0 + 0x40]\n 13780: t0 = u64 [s1 + 0x158]\n 13784: a4 = u64 [a0 + 0x50]\n 13787: a5 = u64 [s1 + 0x30]\n 13790: a5 = a5 + a2\n 13793: a0 = u64 [s1 + 0x10]\n 13796: t1 = a1 + a0\n 13799: a1 = t1 <u a1\n 13802: a5 = a5 + a1\n 13805: a3 = a5 ^ a2\n 13808: a2 = a5 <u a2\n 13811: a2 = a1 if a3 == 0\n 13814: a1 = u64 [s1 + 0x38]\n 13817: a1 = a1 + a4\n 13820: ra = u64 [s1 + 0x18]\n 13823: t0 = t0 + ra\n 13826: a3 = a1 <u a4\n 13829: a3 = a3 + t0\n 13832: a2 = a2 + a1\n 13835: a1 = a2 <u a1\n 13838: t2 = a3 + a1\n 13841: a3 = u64 [s1 + 0x30]\n 13844: a1 = a3 ^ a5\n 13847: a4 = a5 <u a3\n 13850: a0 = t1 <u a0\n 13853: a0 = a4 if a1 != 0\n 13856: a3 = u64 [s1 + 0x38]\n 13859: t0 = a2 <u a3\n 13862: a4 = ra ^ t2\n 13865: a1 = t2 <u ra\n 13868: a1 = t0 if a4 == 0\n 13871: a3 = a3 ^ a2\n 13874: a3 = a3 | a4\n 13877: a0 = a1 if a3 != 0\n 13880: a1 = u64 [s1 + 0x20]\n 13883: u64 [a1] = t1\n 13885: u64 [a1 + 0x8] = a5\n 13888: u64 [a1 + 0x10] = a2\n 13891: u64 [a1 + 0x18] = t2\n 13894: jump @494 if a0 != 0\n      : @485 (gas: 2)\n 13898: a0 = s1 + 0x120\n 13902: ra = 540, jump @23\n      : @486 [@dyn 270] (gas: 3)\n 13908: a0 = s1 + 0xa0\n 13912: a1 = 0x40\n 13915: ra = 542, jump @17\n      : @487 [@dyn 271] (gas: 15)\n 13921: a0 = u64 [s1 + 0xb8]\n 13925: u64 [s1 + 0x30] = a0\n 13928: a0 = u64 [s1 + 0xb0]\n 13932: u64 [s1 + 0x20] = a0\n 13935: a0 = u64 [s1 + 0xa8]\n 13939: u64 [s1 + 0x18] = a0\n 13942: a0 = u64 [s1 + 0xa0]\n 13946: u64 [s1 + 0x38] = a0\n 13949: u64 [s1 + 376] = 0\n 13953: u64 [s1 + 368] = 0\n 13957: u64 [s1 + 360] = 0\n 13961: u64 [s1 + 352] = 0\n 13965: i32 a0 = s1 + 0x160\n 13969: ecalli 16 // 'value_transferred'\n 13971: fallthrough\n      : @488 (gas: 13)\n 13972: a0 = u64 [s1 + 0x30]\n 13975: a1 = u64 [s1 + 0x18]\n 13978: a0 = a0 | a1\n 13981: a1 = u64 [s1 + 0x38]\n 13984: a4 = a1\n 13986: a2 = u64 [s1 + 0x20]\n 13989: a1 = a1 | a2\n 13992: a1 = a1 | a0\n 13995: a1 = a1 >> 0x20\n 13998: a0 = a0 | a2\n 14001: a0 = a0 << 0x20\n 14004: a0 = a0 | a1\n 14007: jump @495 if a0 != 0\n      : @489 (gas: 12)\n 14011: a5 = s1 + 0x100\n 14015: a0 = u64 [a5 + 0x60]\n 14018: a1 = u64 [a5 + 0x68]\n 14021: a2 = u64 [a5 + 0x70]\n 14024: a3 = u64 [a5 + 0x78]\n 14027: u64 [s1 + 0x98] = a3\n 14031: u64 [s1 + 0x90] = a2\n 14035: u64 [s1 + 0x88] = a1\n 14039: a1 = s1 + 0x80\n 14043: u64 [s1 + 0x80] = a0\n 14047: a0 = a4\n 14049: ra = 544, jump @19\n      : @490 [@dyn 272] (gas: 6)\n 14055: a0 = u64 [s1 + 0x8]\n 14058: ra = 0x222\n 14062: ecalli 5 // 'caller'\n 14064: a2 = u64 [s1 + 0x28]\n 14067: t0 = 0x224\n 14071: jump @757\n      : @491 [@dyn 273] (gas: 2)\n 14074: a2 = u64 [s1 + 0x28]\n 14077: t0 = 548, jump @757\n      : @492 [@dyn 274] (gas: 23)\n 14083: t0 = a1 | a0\n 14086: a3 = a3 >> 0x20\n 14089: a2 = reverse a2\n 14091: a1 = a2 << 0x20\n 14094: a1 = a1 | a3\n 14097: a2 = a2 >> 0x20\n 14100: u64 [s1 + 88] = 0\n 14103: a3 = u64 [0x200e0]\n 14108: a4 = u64 [0x200e8]\n 14113: a5 = u64 [0x200f0]\n 14118: a0 = u64 [0x200f8]\n 14123: u64 [s1 + 0x78] = a3\n 14126: u64 [s1 + 0x70] = a4\n 14129: u64 [s1 + 0x68] = a5\n 14132: u64 [s1 + 0x60] = a0\n 14135: u64 [s1 + 0x50] = a2\n 14138: u64 [s1 + 0x48] = a1\n 14141: a1 = 0x20\n 14144: a2 = s1 + 0x60\n 14147: a3 = s1 + 0x40\n 14150: u64 [s1 + 0x40] = t0\n 14153: a0 = u64 [s1 + 0x38]\n 14156: ra = 550, jump @24\n      : @493 [@dyn 275] (gas: 6)\n 14162: sp = s0 + 0xfffffffffffffe60\n 14166: ra = u64 [sp + 0x198]\n 14170: s0 = u64 [sp + 0x190]\n 14174: s1 = u64 [sp + 0x188]\n 14178: sp = sp + 0x1a0\n 14182: ret\n      : @494 (gas: 3)\n 14184: ra = 0x228\n 14188: t0 = 0x17e\n 14192: jump @742\n      : @495 [@dyn 276] (gas: 1)\n 14195: trap\n      : @496 (gas: 38)\n 14196: sp = sp + 0xfffffffffffffe50\n 14200: u64 [sp + 0x1a8] = ra\n 14204: u64 [sp + 0x1a0] = s0\n 14208: u64 [sp + 0x198] = s1\n 14212: s0 = sp + 0x1b0\n 14216: sp = sp & 0xfffffffffffffff0\n 14219: a4 = u64 [a3 + 0x18]\n 14222: u64 [sp + 0x20] = a4\n 14225: a4 = u64 [a3 + 0x10]\n 14228: u64 [sp + 0x28] = a4\n 14231: a4 = u64 [a3 + 0x8]\n 14234: u64 [sp + 0x10] = a4\n 14237: a3 = u64 [a3]\n 14239: u64 [sp + 0x18] = a3\n 14242: a3 = u64 [a1 + 0x18]\n 14245: u64 [sp + 0x30] = a3\n 14248: a3 = u64 [a1 + 0x10]\n 14251: u64 [sp + 0x38] = a3\n 14254: a3 = u64 [a1 + 0x8]\n 14257: u64 [sp + 0x70] = a3\n 14260: a1 = u64 [a1]\n 14262: u64 [sp + 0x68] = a1\n 14265: a3 = u64 [a2]\n 14267: a1 = u64 [a2 + 0x8]\n 14270: a4 = u64 [a2 + 0x10]\n 14273: a2 = u64 [a2 + 0x18]\n 14276: u64 [sp + 0x8] = a0\n 14279: u64 [sp + 0x98] = a2\n 14283: u64 [sp + 0x168] = a2\n 14287: u64 [sp + 0x90] = a4\n 14291: u64 [sp + 0x160] = a4\n 14295: u64 [sp + 0x88] = a1\n 14299: u64 [sp + 0x158] = a1\n 14303: a0 = sp + 0x170\n 14307: a1 = sp + 0x150\n 14311: u64 [sp + 0x60] = a3\n 14314: u64 [sp + 0x150] = a3\n 14318: ra = 554, jump @391\n      : @497 [@dyn 277] (gas: 11)\n 14324: a0 = u64 [sp + 0x170]\n 14328: u64 [sp + 0x58] = a0\n 14331: a0 = u64 [sp + 0x178]\n 14335: u64 [sp + 0x50] = a0\n 14338: a0 = u64 [sp + 0x180]\n 14342: u64 [sp + 0x48] = a0\n 14345: a0 = u64 [sp + 0x188]\n 14349: u64 [sp + 0x40] = a0\n 14352: a0 = sp + 0x130\n 14356: a1 = 0x40\n 14359: ra = 556, jump @17\n      : @498 [@dyn 278] (gas: 23)\n 14365: a1 = u64 [sp + 0x148]\n 14369: u64 [sp + 0xa8] = a1\n 14373: a2 = u64 [sp + 0x140]\n 14377: u64 [sp + 0xa0] = a2\n 14381: s1 = u64 [sp + 0x138]\n 14385: a0 = u64 [sp + 0x130]\n 14389: a3 = u64 [sp + 0x40]\n 14392: u64 [sp + 0x108] = a3\n 14396: a3 = a0\n 14398: u64 [sp + 0x80] = a0\n 14402: a0 = u64 [sp + 0x48]\n 14405: u64 [sp + 0x100] = a0\n 14409: a0 = u64 [sp + 0x50]\n 14412: u64 [sp + 0xf8] = a0\n 14416: a0 = u64 [sp + 0x58]\n 14419: u64 [sp + 0xf0] = a0\n 14423: u64 [sp + 0x128] = a1\n 14427: u64 [sp + 0x120] = a2\n 14431: u64 [sp + 0x118] = s1\n 14435: a0 = sp + 0x110\n 14439: a1 = sp + 0xf0\n 14443: u64 [sp + 0x110] = a3\n 14447: ra = 558, jump @386\n      : @499 [@dyn 279] (gas: 12)\n 14453: a0 = u64 [sp + 0x80]\n 14457: u64 [sp + 0x78] = s1\n 14460: a2 = u64 [sp + 0xa8]\n 14464: a2 = a2 | s1\n 14467: a3 = u64 [sp + 0xa0]\n 14471: a1 = a0 | a3\n 14474: a1 = a1 | a2\n 14477: a1 = a1 >> 0x20\n 14480: a2 = a2 | a3\n 14483: a2 = a2 << 0x20\n 14486: a1 = a1 | a2\n 14489: jump @510 if a1 != 0\n      : @500 (gas: 10)\n 14493: s1 = u64 [sp + 0x60]\n 14496: u64 [sp + 0xd0] = s1\n 14500: a1 = u64 [sp + 0x88]\n 14504: u64 [sp + 0xd8] = a1\n 14508: a1 = u64 [sp + 0x90]\n 14512: u64 [sp + 0xe0] = a1\n 14516: a1 = sp + 0xd0\n 14520: a2 = u64 [sp + 0x98]\n 14524: u64 [sp + 0xe8] = a2\n 14528: ra = 560, jump @19\n      : @501 [@dyn 280] (gas: 41)\n 14534: a1 = u64 [sp + 0x68]\n 14537: a1 = a1 + s1\n 14540: a2 = a1 <u s1\n 14543: a0 = u64 [sp + 0x70]\n 14546: t2 = u64 [sp + 0x88]\n 14550: a0 = a0 + t2\n 14553: a3 = a0 + a2\n 14556: a4 = a3 ^ t2\n 14559: a0 = a3 <u t2\n 14562: a0 = a2 if a4 == 0\n 14565: a4 = u64 [sp + 0x10]\n 14568: a2 = a3 ^ a4\n 14571: a3 = a4 <u a3\n 14574: a4 = u64 [sp + 0x18]\n 14577: a1 = a4 <u a1\n 14580: s1 = u64 [sp + 0x38]\n 14583: t1 = u64 [sp + 0x90]\n 14587: a4 = t1 + s1\n 14590: a1 = a3 if a2 != 0\n 14593: a2 = a4 <u t1\n 14596: ra = u64 [sp + 0x30]\n 14599: t0 = u64 [sp + 0x98]\n 14603: a3 = t0 + ra\n 14606: a2 = a2 + a3\n 14609: a0 = a0 + a4\n 14612: a3 = a0 <u a4\n 14615: a2 = a2 + a3\n 14618: a4 = u64 [sp + 0x20]\n 14621: a3 = a2 ^ a4\n 14624: a2 = a4 <u a2\n 14627: a5 = u64 [sp + 0x28]\n 14630: a4 = a5 <u a0\n 14633: a2 = a4 if a3 == 0\n 14636: a0 = a0 ^ a5\n 14639: a0 = a0 | a3\n 14642: a1 = a2 if a0 != 0\n 14645: a4 = t0\n 14647: a3 = t1\n 14649: t0 = u64 [sp + 0x60]\n 14652: t1 = u64 [sp + 0x68]\n 14655: jump @511 if a1 != 0\n      : @502 (gas: 9)\n 14659: a0 = t1 | s1\n 14662: a1 = u64 [sp + 0x70]\n 14665: a1 = a1 | ra\n 14668: a0 = a0 | a1\n 14671: a0 = a0 >> 0x20\n 14674: a1 = a1 | s1\n 14677: a1 = a1 << 0x20\n 14680: a0 = a0 | a1\n 14683: jump @510 if a0 != 0\n      : @503 (gas: 10)\n 14687: a0 = t0 | a3\n 14690: a1 = t2 | a4\n 14693: a0 = a0 | a1\n 14696: a0 = a0 >> 0x20\n 14699: a1 = a1 | a3\n 14702: a1 = a1 << 0x20\n 14705: a0 = a0 | a1\n 14708: a2 = u64 [sp + 0x78]\n 14711: a3 = u64 [sp + 0xa8]\n 14715: jump @510 if a0 != 0\n      : @504 (gas: 9)\n 14719: a0 = u64 [sp + 0xa0]\n 14723: a0 = a0 | a3\n 14726: a1 = 0xffffffe0\n 14736: a4 = u64 [sp + 0x80]\n 14740: u64 [sp + 0x70] = a1\n 14743: a1 = a4 <u a1\n 14746: a1 = 0 if a2 != 0\n 14748: a1 = 0 if a0 != 0\n 14750: jump @510 if a1 == 0\n      : @505 (gas: 6)\n 14754: i32 t1 = t1 + 0\n 14756: u64 [sp + 0x68] = t1\n 14759: i32 a0 = a4 + 0x20\n 14762: a1 = t0\n 14764: s1 = t0\n 14766: ra = 562, jump @28\n      : @506 [@dyn 281] (gas: 5)\n 14772: i32 a0 = a0 + 0\n 14774: i32 a1 = s1 + 0\n 14776: a2 = u64 [sp + 0x68]\n 14779: ecalli 2 // 'call_data_copy'\n 14781: fallthrough\n      : @507 (gas: 27)\n 14782: t0 = u64 [sp + 0x80]\n 14786: a0 = t0 + s1\n 14789: a1 = a0 <u t0\n 14792: a2 = u64 [sp + 0x88]\n 14796: a4 = u64 [sp + 0x78]\n 14799: a2 = a2 + a4\n 14802: a2 = a2 + a1\n 14805: a3 = a2 ^ a4\n 14808: a4 = a2 <u a4\n 14811: a4 = a1 if a3 == 0\n 14814: a1 = u64 [sp + 0x90]\n 14818: a3 = u64 [sp + 0xa0]\n 14822: a1 = a1 + a3\n 14825: a3 = a1 <u a3\n 14828: a5 = u64 [sp + 0x98]\n 14832: s1 = u64 [sp + 0xa8]\n 14836: a5 = a5 + s1\n 14839: a3 = a3 + a5\n 14842: a4 = a4 + a1\n 14845: a1 = a4 <u a1\n 14848: a1 = a1 + a3\n 14851: a1 = a1 | a4\n 14854: a3 = u64 [sp + 0x70]\n 14857: a3 = a0 <u a3\n 14860: a3 = 0 if a2 != 0\n 14862: a3 = 0 if a1 != 0\n 14864: jump @510 if a3 == 0\n      : @508 (gas: 8)\n 14867: s1 = t0\n 14869: i32 a0 = a0 + 0x20\n 14872: u64 [sp + 200] = 0\n 14876: u64 [sp + 192] = 0\n 14880: u64 [sp + 184] = 0\n 14884: a1 = sp + 0xb0\n 14888: u64 [sp + 176] = 0\n 14892: ra = 564, jump @19\n      : @509 [@dyn 282] (gas: 14)\n 14898: a0 = u64 [sp + 0x8]\n 14901: a1 = u64 [sp + 0xa8]\n 14905: u64 [a0 + 0x18] = a1\n 14908: a1 = u64 [sp + 0xa0]\n 14912: u64 [a0 + 0x10] = a1\n 14915: a1 = u64 [sp + 0x78]\n 14918: u64 [a0 + 0x8] = a1\n 14921: u64 [a0] = s1\n 14923: sp = s0 + 0xfffffffffffffe50\n 14927: ra = u64 [sp + 0x1a8]\n 14931: s0 = u64 [sp + 0x1a0]\n 14935: s1 = u64 [sp + 0x198]\n 14939: sp = sp + 0x1b0\n 14943: ret\n      : @510 (gas: 1)\n 14945: trap\n      : @511 (gas: 7)\n 14946: a1 = 0x20200\n 14951: i32 a1 = a1 + 0\n 14953: a0 = 0x1\n 14956: a2 = 0\n 14958: ra = 0x236\n 14962: ecalli 13 // 'seal_return'\n 14964: fallthrough\n      : @512 [@dyn 283] (gas: 24)\n 14965: sp = sp + 0xfffffffffffff9a0\n 14969: a4 = sp + 0x600\n 14973: u64 [a4 + 0x58] = ra\n 14976: u64 [a4 + 0x50] = s0\n 14979: u64 [a4 + 0x48] = s1\n 14982: s0 = sp + 0x660\n 14986: sp = sp & 0xffffffffffffffe0\n 14989: s1 = sp\n 14991: a5 = u64 [a1 + 0x10]\n 14994: t1 = u64 [a1 + 0x18]\n 14997: a4 = u64 [a1 + 0x8]\n 15000: t0 = u64 [a1]\n 15002: u64 [s1 + 0x138] = a4\n 15006: u64 [s1 + 0x120] = t1\n 15010: a1 = a4 | t1\n 15013: a4 = t0 | a5\n 15016: a4 = a4 | a1\n 15019: a4 = a4 >> 0x20\n 15022: u64 [s1 + 0x128] = a5\n 15026: a1 = a1 | a5\n 15029: a1 = a1 << 0x20\n 15032: a1 = a1 | a4\n 15035: u64 [s1 + 0xc8] = a0\n 15039: jump @566 if a1 != 0\n      : @513 (gas: 35)\n 15043: a0 = u64 [a3 + 0x18]\n 15046: u64 [s1 + 0x88] = a0\n 15050: a0 = u64 [a3 + 0x10]\n 15053: u64 [s1 + 0x90] = a0\n 15057: a0 = u64 [a3 + 0x8]\n 15060: u64 [s1 + 0x98] = a0\n 15064: a0 = u64 [a3]\n 15066: u64 [s1 + 0xa0] = a0\n 15070: a0 = u64 [a2 + 0x18]\n 15073: u64 [s1 + 0xa8] = a0\n 15077: a0 = u64 [a2 + 0x10]\n 15080: u64 [s1 + 0xb0] = a0\n 15084: a0 = u64 [a2 + 0x8]\n 15087: u64 [s1 + 0xb8] = a0\n 15091: a0 = u64 [a2]\n 15093: u64 [s1 + 0xc0] = a0\n 15097: i32 a1 = t0 + 0\n 15099: i32 a0 = s1 + 0x5a0\n 15103: u64 [s1 + 0x158] = a1\n 15107: u64 [s1 + 0x130] = t0\n 15111: ecalli 3 // 'call_data_load'\n 15113: a4 = s1 + 0x500\n 15117: a0 = u64 [a4 + 0xb8]\n 15121: a3 = u64 [a4 + 0xb0]\n 15125: a1 = u64 [a4 + 0xa8]\n 15129: a2 = u64 [a4 + 0xa0]\n 15133: u64 [a4 + 0x98] = a0\n 15137: u64 [s1 + 0x108] = a3\n 15141: u64 [a4 + 0x90] = a3\n 15145: u64 [s1 + 0x118] = a1\n 15149: u64 [a4 + 0x88] = a1\n 15153: a0 = s1 + 0x580\n 15157: u64 [s1 + 0x110] = a2\n 15161: u64 [a4 + 0x80] = a2\n 15165: ra = 568, jump @94\n      : @514 [@dyn 284] (gas: 14)\n 15171: a3 = s1 + 0x100\n 15175: a0 = u64 [a3 + 0x28]\n 15178: a2 = u64 [a3 + 0x20]\n 15181: a2 = a2 | a0\n 15184: a0 = 0x100000000\n 15194: u64 [a3 + 0x48] = a0\n 15197: a0 = 0xffffffe0\n 15207: a1 = u64 [a3 + 0x30]\n 15210: a0 = a1 <u a0\n 15213: a1 = u64 [a3 + 0x38]\n 15216: a0 = 0 if a1 != 0\n 15218: u64 [a3 + 0x50] = a2\n 15221: a0 = 0 if a2 != 0\n 15223: jump @566 if a0 == 0\n      : @515 (gas: 18)\n 15227: a0 = u64 [s1 + 0x158]\n 15231: i32 a1 = a0 + 0x20\n 15234: i32 a0 = s1 + 0x5c0\n 15238: ecalli 3 // 'call_data_load'\n 15240: a4 = s1 + 0x500\n 15244: a0 = u64 [a4 + 0xd8]\n 15248: a3 = u64 [a4 + 0xd0]\n 15252: a2 = u64 [a4 + 0xc8]\n 15256: a1 = u64 [a4 + 0xc0]\n 15260: u64 [a4 + 0x78] = a0\n 15263: u64 [s1 + 0xf0] = a3\n 15267: u64 [a4 + 0x70] = a3\n 15270: u64 [s1 + 0xf8] = a2\n 15274: u64 [a4 + 0x68] = a2\n 15277: a0 = s1 + 0x560\n 15281: u64 [s1 + 0x100] = a1\n 15285: u64 [a4 + 0x60] = a1\n 15288: ra = 570, jump @94\n      : @516 [@dyn 285] (gas: 4)\n 15294: a2 = s1 + 0x100\n 15298: a0 = u64 [a2 + 0x48]\n 15301: a0 = a0 + 0xffffffffffffffc0\n 15304: t0 = 572, jump @743\n      : @517 [@dyn 286] (gas: 1)\n 15310: jump @566 if a0 == 0\n      : @518 (gas: 6)\n 15314: a0 = u64 [s1 + 0x158]\n 15318: i32 a1 = a0 + 0x40\n 15321: i32 a0 = s1 + 0x5e0\n 15325: ra = 0x23e\n 15329: ecalli 3 // 'call_data_load'\n 15331: fallthrough\n      : @519 [@dyn 287] (gas: 5)\n 15332: a0 = 0x100000000\n 15342: a2 = s1 + 0x100\n 15346: u64 [a2 + 0x48] = a0\n 15349: a0 = 0xffffffa0\n 15359: t0 = 576, jump @743\n      : @520 [@dyn 288] (gas: 1)\n 15365: jump @566 if a0 == 0\n      : @521 (gas: 15)\n 15369: a1 = s1 + 0x500\n 15373: a0 = u64 [a1 + 0xf8]\n 15377: u64 [s1 + 0xe8] = a0\n 15381: a0 = u64 [a1 + 0xf0]\n 15385: u64 [s1 + 0xe0] = a0\n 15389: a0 = u64 [a1 + 0xe8]\n 15393: u64 [s1 + 0xd8] = a0\n 15397: a0 = u64 [a1 + 0xe0]\n 15401: u64 [s1 + 0xd0] = a0\n 15405: a0 = u64 [s1 + 0x158]\n 15409: i32 a1 = a0 + 0x60\n 15412: i32 a0 = s1 + 0x600\n 15416: ra = 0x242\n 15420: ecalli 3 // 'call_data_load'\n 15422: fallthrough\n      : @522 [@dyn 289] (gas: 4)\n 15423: a2 = s1 + 0x100\n 15427: a0 = u64 [a2 + 0x48]\n 15430: a0 = a0 + 0xffffffffffffff80\n 15433: t0 = 580, jump @743\n      : @523 [@dyn 290] (gas: 1)\n 15439: jump @566 if a0 == 0\n      : @524 (gas: 45)\n 15443: a0 = u64 [s1 + 0x618]\n 15447: u64 [s1 + 0x80] = a0\n 15451: a0 = u64 [s1 + 0x610]\n 15455: u64 [s1 + 0x78] = a0\n 15458: a0 = u64 [s1 + 0x608]\n 15462: u64 [s1 + 0x70] = a0\n 15465: a0 = u64 [s1 + 0x600]\n 15469: u64 [s1 + 0x68] = a0\n 15472: a0 = u64 [s1 + 0x158]\n 15476: i32 a1 = a0 + 0x80\n 15480: i32 a0 = s1 + 0x620\n 15484: ecalli 3 // 'call_data_load'\n 15486: a1 = s1 + 0x600\n 15490: a0 = u64 [a1 + 0x38]\n 15493: u64 [s1 + 0x60] = a0\n 15496: a0 = u64 [a1 + 0x30]\n 15499: u64 [s1 + 0x58] = a0\n 15502: a0 = u64 [a1 + 0x28]\n 15505: u64 [s1 + 0x50] = a0\n 15508: a0 = u64 [a1 + 0x20]\n 15511: u64 [s1 + 0x48] = a0\n 15514: a0 = u64 [s1 + 0x130]\n 15518: t1 = a0 + 0xa0\n 15522: a1 = t1 <u a0\n 15525: a2 = u64 [s1 + 0x138]\n 15529: t2 = a2 + a1\n 15532: a3 = t2 <u a2\n 15535: a3 = a1 if a1 == 0\n 15538: a5 = u64 [s1 + 0x128]\n 15542: a3 = a3 + a5\n 15545: a1 = a3 <u a5\n 15548: a4 = u64 [s1 + 0x120]\n 15552: t0 = a4 + a1\n 15555: u64 [s1 + 0x4e8] = t2\n 15559: u64 [s1 + 0x4e0] = t1\n 15563: u64 [s1 + 0x518] = a4\n 15567: u64 [s1 + 0x510] = a5\n 15571: u64 [s1 + 0x508] = a2\n 15575: u64 [s1 + 0x500] = a0\n 15579: u64 [s1 + 0x4f0] = a3\n 15583: a0 = s1 + 0x520\n 15587: a1 = s1 + 0x500\n 15591: a2 = s1 + 0x4e0\n 15595: u64 [s1 + 0x4f8] = t0\n 15599: ra = 582, jump @359\n      : @525 [@dyn 291] (gas: 28)\n 15605: t0 = u64 [s1 + 0x520]\n 15609: t1 = u64 [s1 + 0x528]\n 15613: t2 = u64 [s1 + 0x530]\n 15617: a2 = u64 [s1 + 0x538]\n 15621: a3 = u64 [s1 + 0x540]\n 15625: a1 = 0x201e8\n 15630: a5 = u64 [s1 + 0x548]\n 15634: a4 = u64 [s1 + 0x550]\n 15638: a0 = u64 [s1 + 0x558]\n 15642: u64 [s1 + 0x40] = a1\n 15645: a1 = u32 [0x201e8]\n 15650: u64 [s1 + 1144] = 0\n 15654: u64 [s1 + 1136] = 0\n 15658: u64 [s1 + 1128] = 0\n 15662: u64 [s1 + 0x460] = a1\n 15666: u64 [s1 + 0x498] = a0\n 15670: u64 [s1 + 0x490] = a4\n 15674: u64 [s1 + 0x488] = a5\n 15678: u64 [s1 + 0x480] = a3\n 15682: u64 [s1 + 0x4b8] = a2\n 15686: u64 [s1 + 0x4b0] = t2\n 15690: u64 [s1 + 0x4a8] = t1\n 15694: a0 = s1 + 0x4c0\n 15698: a1 = s1 + 0x4a0\n 15702: a2 = s1 + 0x480\n 15706: a3 = s1 + 0x460\n 15710: u64 [s1 + 0x4a0] = t0\n 15714: ra = 584, jump @496\n      : @526 [@dyn 292] (gas: 17)\n 15720: a4 = s1 + 0x400\n 15724: a2 = u64 [a4 + 0xd8]\n 15728: a3 = u64 [a4 + 0xd0]\n 15732: a0 = u64 [a4 + 0xc8]\n 15736: a1 = u64 [a4 + 0xc0]\n 15740: a4 = s1 + 0x100\n 15744: u64 [a4 + 0x58] = a0\n 15747: u64 [a4 + 0x50] = a2\n 15750: a0 = a0 | a2\n 15753: a2 = a1 | a3\n 15756: a2 = a2 | a0\n 15759: a2 = a2 >> 0x20\n 15762: u64 [a4 + 0x48] = a3\n 15765: a0 = a0 | a3\n 15768: a0 = a0 << 0x20\n 15771: a0 = a0 | a2\n 15774: jump @566 if a0 != 0\n      : @527 (gas: 3)\n 15778: a0 = s1 + 0x440\n 15782: u64 [s1 + 0x140] = a1\n 15786: ra = 586, jump @17\n      : @528 [@dyn 293] (gas: 11)\n 15792: a3 = s1 + 0x100\n 15796: a4 = u64 [a3 + 0x40]\n 15799: a0 = u64 [a3 + 0x50]\n 15802: a1 = u64 [a3 + 0x48]\n 15805: a0 = a0 | a1\n 15808: a1 = 0xffffffe0\n 15818: a1 = a4 <u a1\n 15821: a2 = u64 [a3 + 0x58]\n 15824: a1 = 0 if a2 != 0\n 15826: a1 = 0 if a0 != 0\n 15828: jump @566 if a1 == 0\n      : @529 (gas: 13)\n 15832: a3 = s1 + 0x400\n 15836: a0 = u64 [a3 + 0x58]\n 15839: a5 = u64 [a3 + 0x50]\n 15842: a1 = u64 [a3 + 0x40]\n 15845: a2 = u64 [a3 + 0x48]\n 15848: a3 = a1 | a5\n 15851: a0 = a0 | a2\n 15854: a3 = a3 | a0\n 15857: a3 = a3 >> 0x20\n 15860: a0 = a0 | a5\n 15863: a0 = a0 << 0x20\n 15866: a0 = a0 | a3\n 15869: jump @566 if a0 != 0\n      : @530 (gas: 3)\n 15873: i32 a0 = a4 + 0x20\n 15876: u64 [s1 + 0x158] = a1\n 15880: ra = 588, jump @28\n      : @531 [@dyn 294] (gas: 1)\n 15886: t0 = 590, jump @750\n      : @532 [@dyn 295] (gas: 13)\n 15892: ecalli 9 // 'hash_keccak_256'\n 15894: a1 = u64 [s1 + 0x150]\n 15898: a0 = u64 [a1 + 0x18]\n 15901: u64 [s1 + 0x38] = a0\n 15904: a0 = u64 [a1 + 0x10]\n 15907: u64 [s1 + 0x30] = a0\n 15910: a0 = u64 [a1 + 0x8]\n 15913: u64 [s1 + 0x28] = a0\n 15916: a0 = u64 [a1]\n 15918: u64 [s1 + 0x20] = a0\n 15921: a0 = s1 + 0x420\n 15925: a1 = 0x40\n 15928: ra = 592, jump @17\n      : @533 [@dyn 296] (gas: 25)\n 15934: a1 = s1 + 0x400\n 15938: a0 = u64 [a1 + 0x20]\n 15941: a3 = u64 [a1 + 0x38]\n 15944: a2 = u64 [a1 + 0x28]\n 15947: a5 = u64 [a1 + 0x30]\n 15950: a4 = a0 + 0x20\n 15953: u64 [s1 + 0x158] = a0\n 15957: a0 = a4 <u a0\n 15960: a1 = a2 + a0\n 15963: u64 [s1 + 0x150] = a2\n 15967: a2 = a1 <u a2\n 15970: a2 = a0 if a0 == 0\n 15973: a2 = a2 + a5\n 15976: u64 [s1 + 0x140] = a5\n 15980: a0 = a2 <u a5\n 15983: u64 [s1 + 0x148] = a3\n 15987: a0 = a0 + a3\n 15990: a3 = a4 | a2\n 15993: a0 = a0 | a1\n 15996: a3 = a3 | a0\n 15999: a3 = a3 >> 0x20\n 16002: a0 = a0 | a2\n 16005: a0 = a0 << 0x20\n 16008: a0 = a0 | a3\n 16011: jump @566 if a0 != 0\n      : @534 (gas: 13)\n 16015: a0 = u64 [0x20100]\n 16020: a3 = s1 + 0x400\n 16024: u64 [a3 + 0x18] = a0\n 16027: a0 = u64 [0x20108]\n 16032: a1 = u64 [0x20110]\n 16037: a2 = u64 [0x20118]\n 16042: u64 [a3 + 0x10] = a0\n 16045: u64 [a3 + 0x8] = a1\n 16048: a1 = s1 + 0x400\n 16052: u64 [a3] = a2\n 16054: u64 [s1 + 0x18] = a4\n 16057: a0 = a4\n 16059: ra = 594, jump @19\n      : @535 [@dyn 297] (gas: 4)\n 16065: a5 = s1 + 0x100\n 16069: a1 = u64 [a5 + 0x58]\n 16072: a0 = a1 + 0x40\n 16075: t0 = 596, jump @724\n      : @536 [@dyn 298] (gas: 1)\n 16081: jump @566 if a1 != 0\n      : @537 (gas: 12)\n 16085: a1 = u64 [s1 + 0x108]\n 16089: a1 = a1 << 0x20\n 16092: a2 = a1 >> 0x20\n 16095: u64 [s1 + 1016] = 0\n 16099: a1 = u64 [s1 + 0x110]\n 16103: a3 = s1 + 0x300\n 16107: u64 [a3 + 0xe0] = a1\n 16111: a1 = u64 [s1 + 0x118]\n 16115: u64 [a3 + 0xe8] = a1\n 16119: a1 = s1 + 0x3e0\n 16123: u64 [a3 + 0xf0] = a2\n 16127: ra = 598, jump @19\n      : @538 [@dyn 299] (gas: 4)\n 16133: a5 = s1 + 0x100\n 16137: a1 = u64 [a5 + 0x58]\n 16140: a0 = a1 + 0x60\n 16143: t0 = 600, jump @724\n      : @539 [@dyn 300] (gas: 1)\n 16149: jump @566 if a1 != 0\n      : @540 (gas: 15)\n 16153: a1 = 0xffffffff\n 16163: u64 [s1 + 0x118] = a1\n 16167: a2 = u64 [s1 + 0xf0]\n 16171: a2 = a2 & a1\n 16174: a1 = u64 [s1 + 0xf8]\n 16178: a1 = a1 & 0xffffffffffffffff\n 16181: a4 = u64 [s1 + 0x100]\n 16185: a3 = a4 & 0xffffffffffffffff\n 16188: u64 [s1 + 984] = 0\n 16192: a4 = s1 + 0x300\n 16196: u64 [a4 + 0xc0] = a3\n 16200: u64 [a4 + 0xc8] = a1\n 16204: a1 = s1 + 0x3c0\n 16208: u64 [a4 + 0xd0] = a2\n 16212: ra = 602, jump @19\n      : @541 [@dyn 301] (gas: 4)\n 16218: a5 = s1 + 0x100\n 16222: a1 = u64 [a5 + 0x58]\n 16225: a0 = a1 + 0x80\n 16229: t0 = 604, jump @724\n      : @542 [@dyn 302] (gas: 1)\n 16235: jump @566 if a1 != 0\n      : @543 (gas: 11)\n 16239: a1 = u64 [s1 + 0xd0]\n 16243: a3 = s1 + 0x300\n 16247: u64 [a3 + 0xa0] = a1\n 16251: a1 = u64 [s1 + 0xd8]\n 16255: u64 [a3 + 0xa8] = a1\n 16259: a1 = u64 [s1 + 0xe0]\n 16263: u64 [a3 + 0xb0] = a1\n 16267: a1 = s1 + 0x3a0\n 16271: a2 = u64 [s1 + 0xe8]\n 16275: u64 [a3 + 0xb8] = a2\n 16279: ra = 606, jump @19\n      : @544 [@dyn 303] (gas: 4)\n 16285: a5 = s1 + 0x100\n 16289: a1 = u64 [a5 + 0x58]\n 16292: a0 = a1 + 0xa0\n 16296: t0 = 608, jump @724\n      : @545 [@dyn 304] (gas: 1)\n 16302: jump @566 if a1 != 0\n      : @546 (gas: 11)\n 16306: a1 = u64 [s1 + 0x68]\n 16309: a3 = s1 + 0x300\n 16313: u64 [a3 + 0x80] = a1\n 16317: a1 = u64 [s1 + 0x70]\n 16320: u64 [a3 + 0x88] = a1\n 16324: a1 = u64 [s1 + 0x78]\n 16327: u64 [a3 + 0x90] = a1\n 16331: a1 = s1 + 0x380\n 16335: a2 = u64 [s1 + 0x80]\n 16339: u64 [a3 + 0x98] = a2\n 16343: ra = 610, jump @19\n      : @547 [@dyn 305] (gas: 4)\n 16349: a5 = s1 + 0x100\n 16353: a1 = u64 [a5 + 0x58]\n 16356: a0 = a1 + 0xc0\n 16360: t0 = 612, jump @724\n      : @548 [@dyn 306] (gas: 1)\n 16366: jump @566 if a1 != 0\n      : @549 (gas: 11)\n 16370: a1 = u64 [s1 + 0x48]\n 16373: a3 = s1 + 0x300\n 16377: u64 [a3 + 0x60] = a1\n 16380: a1 = u64 [s1 + 0x50]\n 16383: u64 [a3 + 0x68] = a1\n 16386: a1 = u64 [s1 + 0x58]\n 16389: u64 [a3 + 0x70] = a1\n 16392: a1 = s1 + 0x360\n 16396: a2 = u64 [s1 + 0x60]\n 16399: u64 [a3 + 0x78] = a2\n 16402: ra = 614, jump @19\n      : @550 [@dyn 307] (gas: 4)\n 16408: a5 = s1 + 0x100\n 16412: a1 = u64 [a5 + 0x58]\n 16415: a0 = a1 + 0xe0\n 16419: t0 = 616, jump @724\n      : @551 [@dyn 308] (gas: 1)\n 16425: jump @566 if a1 != 0\n      : @552 (gas: 15)\n 16429: a1 = u64 [s1 + 0x20]\n 16432: a2 = reverse a1\n 16434: a1 = u64 [s1 + 0x28]\n 16437: a1 = reverse a1\n 16439: a3 = u64 [s1 + 0x30]\n 16442: a3 = reverse a3\n 16444: a4 = u64 [s1 + 0x38]\n 16447: a4 = reverse a4\n 16449: a5 = s1 + 0x300\n 16453: u64 [a5 + 0x40] = a4\n 16456: u64 [a5 + 0x48] = a3\n 16459: u64 [a5 + 0x50] = a1\n 16462: a1 = s1 + 0x340\n 16466: u64 [a5 + 0x58] = a2\n 16469: ra = 618, jump @19\n      : @553 [@dyn 309] (gas: 13)\n 16475: a4 = s1 + 0x100\n 16479: a0 = u64 [a4 + 0x58]\n 16482: a3 = u64 [a4 + 0x40]\n 16485: a0 = a0 | a3\n 16488: a1 = u64 [a4 + 0x50]\n 16491: a2 = u64 [a4 + 0x48]\n 16494: a1 = a1 | a2\n 16497: a0 = a0 | a1\n 16500: a0 = a0 >> 0x20\n 16503: a1 = a1 | a3\n 16506: a1 = a1 << 0x20\n 16509: a0 = a0 | a1\n 16512: jump @566 if a0 != 0\n      : @554 (gas: 7)\n 16516: u64 [s1 + 824] = 0\n 16520: u64 [s1 + 816] = 0\n 16524: u64 [s1 + 808] = 0\n 16528: a1 = s1 + 0x320\n 16532: u64 [s1 + 800] = 0xe0\n 16538: a0 = u64 [s1 + 0x158]\n 16542: ra = 620, jump @19\n      : @555 [@dyn 310] (gas: 16)\n 16548: u64 [s1 + 760] = 0\n 16552: u64 [s1 + 752] = 0\n 16556: u64 [s1 + 744] = 0\n 16560: u64 [s1 + 736] = 0x100\n 16566: a0 = u64 [s1 + 0x148]\n 16570: a3 = s1 + 0x300\n 16574: u64 [a3 + 0x18] = a0\n 16577: a0 = u64 [s1 + 0x140]\n 16581: u64 [a3 + 0x10] = a0\n 16584: a0 = u64 [s1 + 0x150]\n 16588: u64 [a3 + 0x8] = a0\n 16591: a0 = s1 + 0x300\n 16595: a1 = s1 + 0x2e0\n 16599: a2 = u64 [s1 + 0x158]\n 16603: u64 [a3] = a2\n 16605: ra = 622, jump @386\n      : @556 [@dyn 311] (gas: 3)\n 16611: a0 = s1 + 0x2c0\n 16615: a1 = u64 [s1 + 0x158]\n 16619: ra = 624, jump @17\n      : @557 [@dyn 312] (gas: 6)\n 16625: a4 = s1 + 0x200\n 16629: a0 = u64 [a4 + 0xd8]\n 16633: a3 = u64 [a4 + 0xd0]\n 16637: a2 = u64 [a4 + 0xc8]\n 16641: a1 = u64 [a4 + 0xc0]\n 16645: t0 = 626, jump @748\n      : @558 [@dyn 313] (gas: 1)\n 16651: jump @566 if a0 != 0\n      : @559 (gas: 3)\n 16655: a0 = u64 [s1 + 0x18]\n 16658: u64 [s1 + 0x158] = a1\n 16662: ra = 628, jump @28\n      : @560 [@dyn 314] (gas: 1)\n 16668: t0 = 630, jump @750\n      : @561 [@dyn 315] (gas: 38)\n 16674: ecalli 9 // 'hash_keccak_256'\n 16676: a3 = u64 [s1 + 0x150]\n 16680: a0 = u64 [a3 + 0x18]\n 16683: a1 = u64 [a3 + 0x10]\n 16686: a2 = u64 [a3 + 0x8]\n 16689: a3 = u64 [a3]\n 16691: a4 = reverse a0\n 16693: a0 = reverse a1\n 16695: a1 = reverse a2\n 16697: a2 = reverse a3\n 16699: u64 [s1 + 0x298] = a2\n 16703: u64 [s1 + 0x290] = a1\n 16707: u64 [s1 + 0x288] = a0\n 16711: a0 = s1 + 0x2a0\n 16715: a1 = s1 + 0x280\n 16719: u64 [s1 + 0x280] = a4\n 16723: ra = 0x278\n 16727: sp = sp + 0xfffffffffffffd00\n 16731: a2 = sp + 0x200\n 16735: u64 [a2 + 0xf8] = ra\n 16739: u64 [a2 + 0xf0] = s0\n 16743: u64 [a2 + 0xe8] = s1\n 16747: s0 = sp + 0x300\n 16751: sp = sp & 0xffffffffffffffe0\n 16754: s1 = sp\n 16756: a2 = u64 [a1 + 0x18]\n 16759: u64 [s1 + 0x48] = a2\n 16762: a2 = u64 [a1 + 0x10]\n 16765: u64 [s1 + 0x40] = a2\n 16768: a2 = u64 [a1 + 0x8]\n 16771: u64 [s1 + 0x38] = a2\n 16774: a1 = u64 [a1]\n 16776: u64 [s1 + 0x30] = a1\n 16779: u64 [s1 + 0x28] = a0\n 16782: a0 = s1 + 0x2a0\n 16786: a1 = 0x40\n 16789: ra = 0x280\n 16793: jump @17\n      : @562 [@dyn 316] (gas: 35)\n 16796: a0 = u64 [s1 + 0x2a0]\n 16800: u64 [s1 + 0x158] = a0\n 16804: a0 = u64 [s1 + 0x2a8]\n 16808: u64 [s1 + 0x150] = a0\n 16812: a0 = u64 [s1 + 0x2b0]\n 16816: u64 [s1 + 0x148] = a0\n 16820: a0 = u64 [s1 + 0x2b8]\n 16824: u64 [s1 + 0x140] = a0\n 16828: a0 = u64 [s1 + 0x40]\n 16831: a0 = u32 [a0]\n 16833: u64 [s1 + 536] = 0\n 16837: u64 [s1 + 528] = 0\n 16841: u64 [s1 + 520] = 0\n 16845: u64 [s1 + 0x200] = a0\n 16849: a0 = u64 [s1 + 0x88]\n 16853: u64 [s1 + 0x238] = a0\n 16857: a0 = u64 [s1 + 0x90]\n 16861: u64 [s1 + 0x230] = a0\n 16865: a0 = u64 [s1 + 0x98]\n 16869: u64 [s1 + 0x228] = a0\n 16873: a0 = u64 [s1 + 0xa0]\n 16877: u64 [s1 + 0x220] = a0\n 16881: a0 = u64 [s1 + 0xa8]\n 16885: u64 [s1 + 0x258] = a0\n 16889: a0 = u64 [s1 + 0xb0]\n 16893: u64 [s1 + 0x250] = a0\n 16897: a0 = u64 [s1 + 0xb8]\n 16901: u64 [s1 + 0x248] = a0\n 16905: a0 = s1 + 0x260\n 16909: a1 = s1 + 0x240\n 16913: a2 = s1 + 0x220\n 16917: a3 = s1 + 0x200\n 16921: a4 = u64 [s1 + 0xc0]\n 16925: u64 [s1 + 0x240] = a4\n 16929: ra = 634, jump @496\n      : @563 [@dyn 317] (gas: 21)\n 16935: a4 = s1 + 0x200\n 16939: a0 = u64 [a4 + 0x60]\n 16942: a1 = u64 [a4 + 0x68]\n 16945: a2 = u64 [a4 + 0x70]\n 16948: a3 = u64 [a4 + 0x78]\n 16951: u64 [s1 + 0x1b8] = a3\n 16955: u64 [s1 + 0x1b0] = a2\n 16959: u64 [s1 + 0x1a8] = a1\n 16963: u64 [s1 + 0x1a0] = a0\n 16967: a0 = u64 [s1 + 0x140]\n 16971: u64 [s1 + 0x1d8] = a0\n 16975: a0 = u64 [s1 + 0x148]\n 16979: u64 [s1 + 0x1d0] = a0\n 16983: a0 = u64 [s1 + 0x150]\n 16987: u64 [s1 + 0x1c8] = a0\n 16991: a0 = s1 + 0x1e0\n 16995: a1 = s1 + 0x1c0\n 16999: a2 = s1 + 0x1a0\n 17003: a3 = u64 [s1 + 0x158]\n 17007: u64 [s1 + 0x1c0] = a3\n 17011: ra = 636, jump @612\n      : @564 [@dyn 318] (gas: 17)\n 17017: a0 = u64 [s1 + 0x1e8]\n 17021: u64 [s1 + 0x158] = a0\n 17025: a0 = u64 [s1 + 0x1f0]\n 17029: u64 [s1 + 0x150] = a0\n 17033: a0 = u64 [s1 + 0x1e0]\n 17037: u64 [s1 + 0x148] = a0\n 17041: a0 = u64 [s1 + 0x120]\n 17045: u64 [s1 + 0x178] = a0\n 17049: a0 = u64 [s1 + 0x128]\n 17053: u64 [s1 + 0x170] = a0\n 17057: a0 = u64 [s1 + 0x138]\n 17061: u64 [s1 + 0x168] = a0\n 17065: a0 = s1 + 0x180\n 17069: a1 = s1 + 0x160\n 17073: a2 = u64 [s1 + 0x130]\n 17077: u64 [s1 + 0x160] = a2\n 17081: ra = 638, jump @248\n      : @565 [@dyn 319] (gas: 31)\n 17087: a5 = s1 + 0x100\n 17091: a0 = u64 [a5 + 0x80]\n 17095: a1 = u64 [a5 + 0x90]\n 17099: a2 = u64 [a5 + 0x88]\n 17103: a3 = u64 [a5 + 0x48]\n 17106: a0 = a0 ^ a3\n 17109: a3 = u64 [a5 + 0x50]\n 17112: a1 = a1 ^ a3\n 17115: a3 = u64 [a5 + 0x58]\n 17118: a2 = a2 ^ a3\n 17121: a3 = 0xffffffffffffffff\n 17124: a2 = a2 & a3\n 17127: a4 = u64 [a5 + 0x18]\n 17130: a1 = a1 & a4\n 17133: a0 = a0 & a3\n 17136: a0 = a0 | a1\n 17139: a0 = a0 | a2\n 17142: a0 = a0 <u 0x1\n 17145: a1 = u64 [s1 + 0xc8]\n 17149: a2 = 0\n 17151: u64 [a1 + 16] = 0\n 17154: u64 [a1 + 24] = 0\n 17157: u64 [a1 + 8] = 0\n 17160: u64 [a1] = a0\n 17162: sp = s0 + 0xfffffffffffff9a0\n 17166: a0 = sp + 0x600\n 17170: ra = u64 [a0 + 0x58]\n 17173: s0 = u64 [a0 + 0x50]\n 17176: s1 = u64 [a0 + 0x48]\n 17179: sp = sp + 0x660\n 17183: ret\n      : @566 (gas: 1)\n 17185: trap\n      : @567 [@dyn 320] (gas: 25)\n 17186: a1 = s1 + 0x200\n 17190: a0 = u64 [a1 + 0xa0]\n 17194: a3 = u64 [a1 + 0xb8]\n 17198: a2 = u64 [a1 + 0xa8]\n 17202: a5 = u64 [a1 + 0xb0]\n 17206: a4 = a0 + 0x20\n 17209: u64 [s1 + 0x78] = a0\n 17212: a0 = a4 <u a0\n 17215: a1 = a2 + a0\n 17218: u64 [s1 + 0x70] = a2\n 17221: a2 = a1 <u a2\n 17224: a2 = a0 if a0 == 0\n 17227: a2 = a2 + a5\n 17230: u64 [s1 + 0x60] = a5\n 17233: a0 = a2 <u a5\n 17236: u64 [s1 + 0x68] = a3\n 17239: a0 = a0 + a3\n 17242: a3 = a4 | a2\n 17245: a0 = a0 | a1\n 17248: a3 = a3 | a0\n 17251: a3 = a3 >> 0x20\n 17254: a0 = a0 | a2\n 17257: a0 = a0 << 0x20\n 17260: a0 = a0 | a3\n 17263: jump @611 if a0 != 0\n      : @568 (gas: 13)\n 17267: a0 = u64 [0x20120]\n 17272: a3 = s1 + 0x200\n 17276: u64 [a3 + 0x98] = a0\n 17280: a0 = u64 [0x20128]\n 17285: a1 = u64 [0x20130]\n 17290: a2 = u64 [0x20138]\n 17295: u64 [a3 + 0x90] = a0\n 17299: u64 [a3 + 0x88] = a1\n 17303: a1 = s1 + 0x280\n 17307: u64 [a3 + 0x80] = a2\n 17311: u64 [s1 + 0x58] = a4\n 17314: a0 = a4\n 17316: ra = 642, jump @19\n      : @569 [@dyn 321] (gas: 3)\n 17322: a1 = u64 [s1 + 0x78]\n 17325: a0 = a1 + 0x40\n 17328: t0 = 644, jump @723\n      : @570 [@dyn 322] (gas: 1)\n 17334: jump @611 if a1 != 0\n      : @571 (gas: 11)\n 17338: a1 = u64 [0x20140]\n 17343: a4 = s1 + 0x200\n 17347: u64 [a4 + 0x78] = a1\n 17350: a1 = u64 [0x20148]\n 17355: a2 = u64 [0x20150]\n 17360: a3 = u64 [0x20158]\n 17365: u64 [a4 + 0x70] = a1\n 17368: u64 [a4 + 0x68] = a2\n 17371: a1 = s1 + 0x260\n 17375: u64 [a4 + 0x60] = a3\n 17378: ra = 646, jump @19\n      : @572 [@dyn 323] (gas: 3)\n 17384: a1 = u64 [s1 + 0x78]\n 17387: a0 = a1 + 0x60\n 17390: t0 = 648, jump @723\n      : @573 [@dyn 324] (gas: 1)\n 17396: jump @611 if a1 != 0\n      : @574 (gas: 11)\n 17400: a1 = u64 [0x20160]\n 17405: a4 = s1 + 0x200\n 17409: u64 [a4 + 0x58] = a1\n 17412: a1 = u64 [0x20168]\n 17417: a2 = u64 [0x20170]\n 17422: a3 = u64 [0x20178]\n 17427: u64 [a4 + 0x50] = a1\n 17430: u64 [a4 + 0x48] = a2\n 17433: a1 = s1 + 0x240\n 17437: u64 [a4 + 0x40] = a3\n 17440: ra = 650, jump @19\n      : @575 [@dyn 325] (gas: 4)\n 17446: i32 a0 = s1 + 0x2c0\n 17450: ra = 0x28c\n 17454: ecalli 6 // 'chain_id'\n 17456: fallthrough\n      : @576 [@dyn 326] (gas: 3)\n 17457: a1 = u64 [s1 + 0x78]\n 17460: a0 = a1 + 0x80\n 17464: t0 = 654, jump @723\n      : @577 [@dyn 327] (gas: 1)\n 17470: jump @611 if a1 != 0\n      : @578 (gas: 11)\n 17474: a5 = s1 + 0x200\n 17478: a2 = u64 [a5 + 0xc0]\n 17482: a1 = u64 [a5 + 0xc8]\n 17486: a3 = u64 [a5 + 0xd0]\n 17490: a4 = u64 [a5 + 0xd8]\n 17494: u64 [a5 + 0x38] = a4\n 17497: u64 [a5 + 0x30] = a3\n 17500: u64 [a5 + 0x28] = a1\n 17503: a1 = s1 + 0x220\n 17507: u64 [a5 + 0x20] = a2\n 17510: ra = 656, jump @19\n      : @579 [@dyn 328] (gas: 6)\n 17516: a0 = 0x30200\n 17521: u64 [s1 + 0x50] = a0\n 17524: i32 a0 = a0 + 0\n 17526: ra = 0x292\n 17530: ecalli 0 // 'address'\n 17531: fallthrough\n      : @580 [@dyn 329] (gas: 3)\n 17532: a1 = u64 [s1 + 0x78]\n 17535: a0 = a1 + 0xa0\n 17539: t0 = 660, jump @723\n      : @581 [@dyn 330] (gas: 1)\n 17545: jump @611 if a1 != 0\n      : @582 (gas: 21)\n 17549: a3 = u64 [s1 + 0x50]\n 17552: a1 = u64 [a3 + 0x8]\n 17555: a2 = i32 [a3 + 0x10]\n 17558: a3 = u64 [a3]\n 17560: a1 = reverse a1\n 17562: a4 = a1 << 0x20\n 17565: a2 = reverse a2\n 17567: a2 = a2 >> 0x20\n 17570: a2 = a2 | a4\n 17573: a1 = a1 >> 0x20\n 17576: a3 = reverse a3\n 17578: a4 = a3 << 0x20\n 17581: a1 = a1 | a4\n 17584: a3 = a3 >> 0x20\n 17587: u64 [s1 + 536] = 0\n 17591: a4 = s1 + 0x200\n 17595: u64 [a4 + 0x10] = a3\n 17598: u64 [a4 + 0x8] = a1\n 17601: a1 = s1 + 0x200\n 17605: u64 [a4] = a2\n 17607: ra = 662, jump @19\n      : @583 [@dyn 331] (gas: 1)\n 17613: t0 = 664, jump @749\n      : @584 [@dyn 332] (gas: 1)\n 17619: jump @611 if a0 != 0\n      : @585 (gas: 7)\n 17623: u64 [s1 + 504] = 0\n 17627: u64 [s1 + 496] = 0\n 17631: u64 [s1 + 488] = 0\n 17635: a1 = s1 + 0x1e0\n 17639: u64 [s1 + 480] = 0xa0\n 17645: a0 = u64 [s1 + 0x78]\n 17648: ra = 666, jump @19\n      : @586 [@dyn 333] (gas: 15)\n 17654: u64 [s1 + 440] = 0\n 17658: u64 [s1 + 432] = 0\n 17662: u64 [s1 + 424] = 0\n 17666: u64 [s1 + 416] = 0xc0\n 17672: a0 = u64 [s1 + 0x68]\n 17675: u64 [s1 + 0x1d8] = a0\n 17679: a0 = u64 [s1 + 0x60]\n 17682: u64 [s1 + 0x1d0] = a0\n 17686: a0 = u64 [s1 + 0x70]\n 17689: u64 [s1 + 0x1c8] = a0\n 17693: a0 = s1 + 0x1c0\n 17697: a1 = s1 + 0x1a0\n 17701: a2 = u64 [s1 + 0x78]\n 17704: u64 [s1 + 0x1c0] = a2\n 17708: ra = 668, jump @386\n      : @587 [@dyn 334] (gas: 3)\n 17714: a0 = s1 + 0x180\n 17718: a1 = u64 [s1 + 0x78]\n 17721: ra = 670, jump @17\n      : @588 [@dyn 335] (gas: 6)\n 17727: a4 = s1 + 0x100\n 17731: a0 = u64 [a4 + 0x98]\n 17735: a3 = u64 [a4 + 0x90]\n 17739: a2 = u64 [a4 + 0x88]\n 17743: a1 = u64 [a4 + 0x80]\n 17747: t0 = 672, jump @748\n      : @589 [@dyn 336] (gas: 1)\n 17753: jump @611 if a0 != 0\n      : @590 (gas: 3)\n 17757: a0 = u64 [s1 + 0x58]\n 17760: u64 [s1 + 0x78] = a1\n 17763: ra = 674, jump @28\n      : @591 [@dyn 337] (gas: 20)\n 17769: a1 = sp + 0xffffffffffffffe0\n 17772: a2 = a1 & 0xffffffffffffffe0\n 17775: u64 [s1 + 0x70] = a2\n 17778: sp = a2\n 17780: i32 a0 = a0 + 0\n 17782: a1 = i32 [s1 + 0x78]\n 17785: i32 a2 = a2 + 0\n 17787: ecalli 9 // 'hash_keccak_256'\n 17789: a1 = u64 [s1 + 0x70]\n 17792: a0 = u64 [a1 + 0x18]\n 17795: u64 [s1 + 0x58] = a0\n 17798: a0 = u64 [a1 + 0x10]\n 17801: u64 [s1 + 0x50] = a0\n 17804: a0 = u64 [a1 + 0x8]\n 17807: u64 [s1 + 0x20] = a0\n 17810: a0 = u64 [a1]\n 17812: u64 [s1 + 0x18] = a0\n 17815: a0 = s1 + 0x160\n 17819: a1 = 0x40\n 17822: ra = 676, jump @17\n      : @592 [@dyn 338] (gas: 25)\n 17828: a0 = s1 + 0x100\n 17832: a1 = u64 [a0 + 0x60]\n 17835: a4 = u64 [a0 + 0x78]\n 17838: a2 = u64 [a0 + 0x68]\n 17841: a5 = u64 [a0 + 0x70]\n 17844: a0 = a1 + 0x20\n 17847: u64 [s1 + 0x78] = a1\n 17850: a3 = a0 <u a1\n 17853: a1 = a2 + a3\n 17856: u64 [s1 + 0x70] = a2\n 17859: a2 = a1 <u a2\n 17862: a2 = a3 if a3 == 0\n 17865: a2 = a2 + a5\n 17868: u64 [s1 + 0x60] = a5\n 17871: a3 = a2 <u a5\n 17874: u64 [s1 + 0x68] = a4\n 17877: a4 = a4 + a3\n 17880: a3 = a0 | a2\n 17883: a1 = a1 | a4\n 17886: a3 = a3 | a1\n 17889: a3 = a3 >> 0x20\n 17892: a1 = a1 | a2\n 17895: a1 = a1 << 0x20\n 17898: a1 = a1 | a3\n 17901: jump @611 if a1 != 0\n      : @593 (gas: 8)\n 17905: u64 [s1 + 336] = 0\n 17909: u64 [s1 + 328] = 0\n 17913: u64 [s1 + 320] = 0\n 17917: a2 = 0x1901000000000000\n 17927: a1 = s1 + 0x140\n 17931: u64 [s1 + 0x158] = a2\n 17935: u64 [s1 + 0x10] = a0\n 17938: ra = 678, jump @19\n      : @594 [@dyn 339] (gas: 3)\n 17944: a1 = u64 [s1 + 0x78]\n 17947: a0 = a1 + 0x22\n 17950: t0 = 680, jump @723\n      : @595 [@dyn 340] (gas: 1)\n 17956: jump @611 if a1 != 0\n      : @596 (gas: 15)\n 17960: a1 = u64 [s1 + 0x18]\n 17963: a2 = reverse a1\n 17965: a1 = u64 [s1 + 0x20]\n 17968: a1 = reverse a1\n 17970: a3 = u64 [s1 + 0x50]\n 17973: a3 = reverse a3\n 17975: a4 = u64 [s1 + 0x58]\n 17978: a4 = reverse a4\n 17980: a5 = s1 + 0x100\n 17984: u64 [a5 + 0x20] = a4\n 17987: u64 [a5 + 0x28] = a3\n 17990: u64 [a5 + 0x30] = a1\n 17993: a1 = s1 + 0x120\n 17997: u64 [a5 + 0x38] = a2\n 18000: ra = 682, jump @19\n      : @597 [@dyn 341] (gas: 3)\n 18006: a1 = u64 [s1 + 0x78]\n 18009: a0 = a1 + 0x42\n 18012: t0 = 684, jump @723\n      : @598 [@dyn 342] (gas: 1)\n 18018: jump @611 if a1 != 0\n      : @599 (gas: 11)\n 18022: a1 = u64 [s1 + 0x30]\n 18025: a3 = s1 + 0x100\n 18029: u64 [a3] = a1\n 18031: a1 = u64 [s1 + 0x38]\n 18034: u64 [a3 + 0x8] = a1\n 18037: a1 = u64 [s1 + 0x40]\n 18040: u64 [a3 + 0x10] = a1\n 18043: a1 = s1 + 0x100\n 18047: a2 = u64 [s1 + 0x48]\n 18050: u64 [a3 + 0x18] = a2\n 18053: ra = 686, jump @19\n      : @600 [@dyn 343] (gas: 1)\n 18059: t0 = 688, jump @749\n      : @601 [@dyn 344] (gas: 1)\n 18065: jump @611 if a0 != 0\n      : @602 (gas: 7)\n 18069: u64 [s1 + 248] = 0\n 18073: u64 [s1 + 240] = 0\n 18077: u64 [s1 + 232] = 0\n 18081: a1 = s1 + 0xe0\n 18085: u64 [s1 + 224] = 0x42\n 18090: a0 = u64 [s1 + 0x78]\n 18093: ra = 690, jump @19\n      : @603 [@dyn 345] (gas: 15)\n 18099: u64 [s1 + 184] = 0\n 18103: u64 [s1 + 176] = 0\n 18107: u64 [s1 + 168] = 0\n 18111: u64 [s1 + 160] = 0x62\n 18116: a0 = u64 [s1 + 0x68]\n 18119: u64 [s1 + 0xd8] = a0\n 18123: a0 = u64 [s1 + 0x60]\n 18126: u64 [s1 + 0xd0] = a0\n 18130: a0 = u64 [s1 + 0x70]\n 18133: u64 [s1 + 0xc8] = a0\n 18137: a0 = s1 + 0xc0\n 18141: a1 = s1 + 0xa0\n 18145: a2 = u64 [s1 + 0x78]\n 18148: u64 [s1 + 0xc0] = a2\n 18152: ra = 692, jump @386\n      : @604 [@dyn 346] (gas: 3)\n 18158: a0 = s1 + 0x80\n 18162: a1 = u64 [s1 + 0x78]\n 18165: ra = 694, jump @17\n      : @605 [@dyn 347] (gas: 5)\n 18171: a0 = u64 [s1 + 0x98]\n 18175: a3 = u64 [s1 + 0x90]\n 18179: a2 = u64 [s1 + 0x88]\n 18183: a1 = u64 [s1 + 0x80]\n 18187: t0 = 696, jump @748\n      : @606 [@dyn 348] (gas: 1)\n 18193: jump @611 if a0 != 0\n      : @607 (gas: 3)\n 18196: a0 = u64 [s1 + 0x10]\n 18199: u64 [s1 + 0x78] = a1\n 18202: ra = 698, jump @28\n      : @608 [@dyn 349] (gas: 12)\n 18208: a1 = sp + 0xffffffffffffffe0\n 18211: a2 = a1 & 0xffffffffffffffe0\n 18214: u64 [s1 + 0x70] = a2\n 18217: sp = a2\n 18219: i32 a0 = a0 + 0\n 18221: a1 = i32 [s1 + 0x78]\n 18224: i32 a2 = a2 + 0\n 18226: ra = 0x2bc\n 18230: ecalli 9 // 'hash_keccak_256'\n 18232: a3 = u64 [s1 + 0x70]\n 18235: t0 = 0x2be\n 18239: jump @740\n      : @609 [@dyn 350] (gas: 2)\n 18242: a3 = u64 [s1 + 0x70]\n 18245: t0 = 702, jump @740\n      : @610 [@dyn 351] (gas: 12)\n 18251: a4 = u64 [s1 + 0x28]\n 18254: u64 [a4 + 0x18] = a3\n 18257: u64 [a4 + 0x10] = a2\n 18260: u64 [a4 + 0x8] = a1\n 18263: u64 [a4] = a0\n 18265: sp = s0 + 0xfffffffffffffd00\n 18269: a0 = sp + 0x200\n 18273: ra = u64 [a0 + 0xf8]\n 18277: s0 = u64 [a0 + 0xf0]\n 18281: s1 = u64 [a0 + 0xe8]\n 18285: sp = sp + 0x300\n 18289: ret\n      : @611 (gas: 1)\n 18291: trap\n      : @612 (gas: 22)\n 18292: sp = sp + 0xfffffffffffffc60\n 18296: a3 = sp + 0x300\n 18300: u64 [a3 + 0x98] = ra\n 18304: u64 [a3 + 0x90] = s0\n 18308: u64 [a3 + 0x88] = s1\n 18312: s0 = sp + 0x3a0\n 18316: sp = sp & 0xffffffffffffffe0\n 18319: s1 = u64 [a2 + 0x10]\n 18322: a5 = u64 [a2 + 0x18]\n 18325: a3 = u64 [a2 + 0x8]\n 18328: a4 = u64 [a2]\n 18330: u64 [sp + 0x78] = a3\n 18333: u64 [sp + 0x60] = a5\n 18336: a2 = a3 | a5\n 18339: a3 = a4 | s1\n 18342: a3 = a3 | a2\n 18345: a3 = a3 >> 0x20\n 18348: a2 = a2 | s1\n 18351: a2 = a2 << 0x20\n 18354: a2 = a2 | a3\n 18357: u64 [sp + 0x68] = a0\n 18360: jump @649 if a2 != 0\n      : @613 (gas: 12)\n 18364: a0 = u64 [a1 + 0x18]\n 18367: u64 [sp + 0x40] = a0\n 18370: a0 = u64 [a1 + 0x10]\n 18373: u64 [sp + 0x48] = a0\n 18376: a0 = u64 [a1 + 0x8]\n 18379: u64 [sp + 0x50] = a0\n 18382: a0 = u64 [a1]\n 18384: u64 [sp + 0x58] = a0\n 18387: a0 = sp + 0x300\n 18391: u64 [sp + 0x70] = a4\n 18394: a1 = a4\n 18396: ra = 704, jump @17\n      : @614 [@dyn 352] (gas: 10)\n 18402: a4 = sp + 0x300\n 18406: a0 = u64 [a4 + 0x18]\n 18409: a1 = u64 [a4 + 0x8]\n 18412: a2 = u64 [a4]\n 18414: a3 = u64 [a4 + 0x10]\n 18417: a0 = a0 | a1\n 18420: a1 = a2 ^ 0x41\n 18423: a1 = a1 | a3\n 18426: a0 = a0 | a1\n 18429: jump @637 if a0 != 0\n      : @615 (gas: 11)\n 18433: a2 = u64 [sp + 0x60]\n 18436: a2 = a2 | s1\n 18439: s1 = 0x100000000\n 18449: a0 = 0xffffffe0\n 18459: a1 = u64 [sp + 0x70]\n 18462: a0 = a1 <u a0\n 18465: a3 = u64 [sp + 0x78]\n 18468: a0 = 0 if a3 != 0\n 18470: u64 [sp + 0x60] = a2\n 18473: a0 = 0 if a2 != 0\n 18475: jump @649 if a0 == 0\n      : @616 (gas: 3)\n 18479: i32 a1 = a1 + 0x20\n 18482: a0 = sp + 0x2e0\n 18486: ra = 706, jump @17\n      : @617 [@dyn 353] (gas: 8)\n 18492: a1 = u64 [sp + 0x70]\n 18495: a0 = s1 + 0xffffffffffffffc0\n 18498: a0 = a1 <u a0\n 18501: a2 = u64 [sp + 0x78]\n 18504: a0 = 0 if a2 != 0\n 18506: a2 = u64 [sp + 0x60]\n 18509: a0 = 0 if a2 != 0\n 18511: jump @649 if a0 == 0\n      : @618 (gas: 11)\n 18515: a2 = sp + 0x200\n 18519: a0 = u64 [a2 + 0xf8]\n 18523: u64 [sp + 0x20] = a0\n 18526: a0 = u64 [a2 + 0xf0]\n 18530: u64 [sp + 0x28] = a0\n 18533: a0 = u64 [a2 + 0xe8]\n 18537: u64 [sp + 0x30] = a0\n 18540: s1 = u64 [a2 + 0xe0]\n 18544: i32 a1 = a1 + 0x40\n 18547: a0 = sp + 0x2c0\n 18551: ra = 708, jump @17\n      : @619 [@dyn 354] (gas: 8)\n 18557: a1 = u64 [sp + 0x70]\n 18560: a0 = 0xffffffa0\n 18570: a0 = a1 <u a0\n 18573: a2 = u64 [sp + 0x78]\n 18576: a0 = 0 if a2 != 0\n 18578: a2 = u64 [sp + 0x60]\n 18581: a0 = 0 if a2 != 0\n 18583: jump @649 if a0 == 0\n      : @620 (gas: 12)\n 18587: u64 [sp + 0x18] = s1\n 18590: a2 = sp + 0x200\n 18594: a0 = u64 [a2 + 0xd8]\n 18598: u64 [sp + 0x38] = a0\n 18601: a0 = u64 [a2 + 0xd0]\n 18605: u64 [sp + 0x60] = a0\n 18608: s1 = u64 [a2 + 0xc8]\n 18612: a0 = u64 [a2 + 0xc0]\n 18616: u64 [sp + 0x78] = a0\n 18619: i32 a1 = a1 + 0x60\n 18622: a0 = sp + 0x2a0\n 18626: ra = 710, jump @17\n      : @621 [@dyn 355] (gas: 18)\n 18632: a0 = u64 [0x20180]\n 18637: a1 = u64 [0x20188]\n 18642: a2 = s1 ^ a0\n 18645: u64 [sp + 0x70] = s1\n 18648: a0 = s1 <u a0\n 18651: a3 = u64 [sp + 0x78]\n 18654: a1 = a3 <u a1\n 18657: a1 = a0 if a2 != 0\n 18660: a0 = 0x7fffffffffffffff\n 18670: a3 = u64 [sp + 0x38]\n 18673: a2 = a3 ^ a0\n 18676: a0 = a3 <u a0\n 18679: a4 = u64 [sp + 0x60]\n 18682: a3 = a4 <u 0xffffffffffffffff\n 18685: a3 = a0 if a2 != 0\n 18688: a0 = a2 | ~a4\n 18691: a3 = a1 if a0 == 0\n 18694: jump @639 if a3 == 0\n      : @622 (gas: 17)\n 18698: a2 = sp + 0x200\n 18702: s1 = u64 [a2 + 0xb8]\n 18706: s1 = s1 >> 0x38\n 18709: a0 = s1 + 0xffffffffffffffe5\n 18712: a1 = a0 <u s1\n 18715: a0 = a0 <u 0x2\n 18718: a0 = 0 if a1 == 0\n 18720: a1 = 0 if a1 == 0\n 18722: a0 = 0 if a1 == 0\n 18724: u64 [a2 + 152] = 0\n 18728: u64 [a2 + 144] = 0\n 18732: u64 [a2 + 0x80] = a0\n 18736: a0 = sp + 0x280\n 18740: u64 [a2 + 136] = 0\n 18744: ra = 0x2c8\n 18748: t0 = 0x2e8\n 18752: jump @732\n      : @623 [@dyn 356] (gas: 3)\n 18755: a0 = sp + 0x260\n 18759: a1 = 0x40\n 18762: ra = 714, jump @17\n      : @624 [@dyn 357] (gas: 47)\n 18768: a1 = u64 [sp + 0x278]\n 18772: u64 [sp + 0x10] = a1\n 18775: a2 = u64 [sp + 0x270]\n 18779: u64 [sp + 0x8] = a2\n 18782: a3 = u64 [sp + 0x268]\n 18786: t0 = u64 [sp + 0x260]\n 18790: u64 [sp] = t0\n 18792: a0 = u64 [sp + 0x38]\n 18795: u64 [sp + 0x1b8] = a0\n 18799: a0 = u64 [sp + 0x60]\n 18802: u64 [sp + 0x1b0] = a0\n 18806: a0 = u64 [sp + 0x70]\n 18809: u64 [sp + 0x1a8] = a0\n 18813: a0 = u64 [sp + 0x78]\n 18816: u64 [sp + 0x1a0] = a0\n 18820: a0 = u64 [sp + 0x20]\n 18823: u64 [sp + 0x1d8] = a0\n 18827: a0 = u64 [sp + 0x28]\n 18830: u64 [sp + 0x1d0] = a0\n 18834: a0 = u64 [sp + 0x30]\n 18837: u64 [sp + 0x1c8] = a0\n 18841: a0 = u64 [sp + 0x18]\n 18844: u64 [sp + 0x1c0] = a0\n 18848: u64 [sp + 504] = 0\n 18852: u64 [sp + 496] = 0\n 18856: u64 [sp + 488] = 0\n 18860: u64 [sp + 0x1e0] = s1\n 18864: a0 = u64 [sp + 0x40]\n 18867: u64 [sp + 0x218] = a0\n 18871: a0 = u64 [sp + 0x48]\n 18874: u64 [sp + 0x210] = a0\n 18878: a0 = u64 [sp + 0x50]\n 18881: u64 [sp + 0x208] = a0\n 18885: a0 = u64 [sp + 0x58]\n 18888: u64 [sp + 0x200] = a0\n 18892: u64 [sp + 0x238] = a1\n 18896: u64 [sp + 0x230] = a2\n 18900: u64 [sp + 0x228] = a3\n 18904: s1 = a3\n 18906: a0 = sp + 0x240\n 18910: a1 = sp + 0x220\n 18914: a2 = sp + 0x200\n 18918: a3 = sp + 0x1e0\n 18922: a4 = sp + 0x1c0\n 18926: a5 = sp + 0x1a0\n 18930: u64 [sp + 0x220] = t0\n 18934: ra = 716, jump @680\n      : @625 [@dyn 358] (gas: 16)\n 18940: a1 = sp + 0x200\n 18944: a0 = u64 [a1 + 0x58]\n 18947: u64 [sp + 0x70] = a0\n 18950: a0 = u64 [a1 + 0x50]\n 18953: u64 [sp + 0x58] = a0\n 18956: a0 = u64 [a1 + 0x40]\n 18959: u64 [sp + 0x78] = a0\n 18962: a0 = u64 [a1 + 0x48]\n 18965: u64 [sp + 0x60] = a0\n 18968: u64 [sp + 408] = 0\n 18972: u64 [sp + 400] = 0\n 18976: u64 [sp + 392] = 0\n 18980: a1 = sp + 0x180\n 18984: u64 [sp + 384] = 0\n 18988: a0 = 0\n 18990: ra = 718, jump @19\n      : @626 [@dyn 359] (gas: 2)\n 18996: ecalli 10 // 'ref_time_left'\n 18998: fallthrough\n      : @627 (gas: 20)\n 18999: a4 = u64 [sp + 0x8]\n 19002: t0 = u64 [sp + 0x10]\n 19005: t1 = u64 [sp]\n 19007: a2 = 0x30200\n 19012: u64 [0x30208] = 0\n 19017: u64 [0x30200] = 0\n 19022: u32 [0x30210] = 0x1000000\n 19031: a3 = sp + 0x300\n 19035: u64 [a3 + 56] = 0\n 19038: u64 [a3 + 48] = 0\n 19041: u64 [a3 + 40] = 0\n 19044: a0 = s1 | t0\n 19047: a1 = t1 | a4\n 19050: a1 = a1 | a0\n 19053: a1 = a1 >> 0x20\n 19056: a0 = a0 | a4\n 19059: a0 = a0 << 0x20\n 19062: a0 = a0 | a1\n 19065: u64 [a3 + 32] = 0\n 19068: jump @649 if a0 != 0\n      : @628 (gas: 27)\n 19072: u64 [sp + 0x50] = a2\n 19075: a3 = u64 [sp + 0x60]\n 19078: a0 = a3 ^ s1\n 19081: a1 = a3 <u s1\n 19084: ra = u64 [sp + 0x78]\n 19087: a2 = ra <u t1\n 19090: a1 = a2 if a0 == 0\n 19093: a5 = u64 [sp + 0x58]\n 19096: a0 = a5 - a4\n 19099: t2 = a0 - a1\n 19102: a0 = a0 <u a1\n 19105: a1 = a5 <u a4\n 19108: a4 = u64 [sp + 0x70]\n 19111: a4 = a4 - t0\n 19114: a4 = a4 - a1\n 19117: a4 = a4 - a0\n 19120: a0 = a3 - s1\n 19123: a0 = a0 - a2\n 19126: s1 = ra - t1\n 19129: a0 = a0 | a4\n 19132: a1 = s1 | t2\n 19135: a1 = a1 | a0\n 19138: a0 = a0 | t2\n 19141: a1 = a1 >> 0x20\n 19144: a0 = a0 << 0x20\n 19147: a0 = a0 | a1\n 19150: jump @649 if a0 != 0\n      : @629 (gas: 3)\n 19154: a0 = t1\n 19156: a1 = s1\n 19158: ra = 720, jump @28\n      : @630 [@dyn 360] (gas: 3)\n 19164: a3 = i32 [0x201ec]\n 19169: a1 = a0\n 19171: jump @632 if a3 >u 31\n      : @631 (gas: 2)\n 19175: u32 [0x201ec] = 0x20\n 19181: fallthrough\n      : @632 (gas: 31)\n 19182: a2 = sp + 0x300\n 19186: u32 [a2 + 64] = 0x20\n 19190: u64 [a2 + 120] = 0\n 19193: u64 [a2 + 112] = 0\n 19196: u64 [a2 + 104] = 0\n 19199: u64 [a2 + 96] = 0\n 19202: a0 = u64 [sp + 0x50]\n 19205: a0 = a0 << 0x20\n 19208: a0 = a0 >> 0x20\n 19211: a2 = 0x1800000000\n 19221: a0 = a0 | a2\n 19224: a2 = sp + 0x320\n 19228: a2 = a2 << 0x20\n 19231: a2 = a2 >> 0x20\n 19234: a3 = sp + 0x360\n 19238: a3 = a3 << 0x20\n 19241: a3 = a3 | a2\n 19244: a1 = a1 << 0x20\n 19247: a2 = 0x20200\n 19252: a1 = a1 >> 0x20\n 19255: a4 = s1 << 0x20\n 19258: a4 = a4 | a1\n 19261: a2 = a2 << 0x20\n 19264: a2 = a2 >> 0x20\n 19267: a1 = sp + 0x340\n 19271: a1 = a1 << 0x20\n 19274: a5 = a1 | a2\n 19277: a1 = 0xffffffffffffffff\n 19280: a2 = 0xffffffffffffffff\n 19283: ecalli 1 // 'call'\n 19285: fallthrough\n      : @633 (gas: 1)\n 19286: jump @650 if a0 != 0\n      : @634 (gas: 3)\n 19290: a0 = sp + 0x160\n 19294: a1 = 0\n 19296: ra = 722, jump @17\n      : @635 [@dyn 361] (gas: 20)\n 19302: a1 = u64 [sp + 0x170]\n 19306: u64 [sp + 0x70] = a1\n 19309: a2 = u64 [sp + 0x168]\n 19313: u64 [sp + 0x60] = a2\n 19316: s1 = u64 [sp + 0x160]\n 19320: a0 = u64 [sp + 0x178]\n 19324: u64 [sp + 0x78] = a0\n 19327: a0 = a1 << 0x20\n 19330: a0 = a0 >> 0x20\n 19333: a1 = s1 | a2\n 19336: a0 = a0 | a1\n 19339: a0 = a0 >u 0\n 19341: u64 [sp + 344] = 0\n 19345: u64 [sp + 336] = 0\n 19349: u64 [sp + 0x140] = a0\n 19353: a0 = sp + 0x140\n 19357: u64 [sp + 328] = 0\n 19361: ra = 0x2d4\n 19365: t0 = 0x31c\n 19369: jump @744\n      : @636 [@dyn 362] (gas: 4)\n 19372: a3 = u64 [sp + 0x78]\n 19375: a2 = u64 [sp + 0x60]\n 19378: a1 = u64 [sp + 0x70]\n 19381: jump @638\n      : @637 (gas: 5)\n 19383: s1 = 0\n 19385: a2 = 0\n 19387: a1 = 0\n 19389: a3 = 0\n 19391: fallthrough\n      : @638 (gas: 12)\n 19392: a0 = u64 [sp + 0x68]\n 19395: u64 [a0] = s1\n 19397: u64 [a0 + 0x8] = a2\n 19400: u64 [a0 + 0x10] = a1\n 19403: u64 [a0 + 0x18] = a3\n 19406: sp = s0 + 0xfffffffffffffc60\n 19410: a0 = sp + 0x300\n 19414: ra = u64 [a0 + 0x98]\n 19418: s0 = u64 [a0 + 0x90]\n 19422: s1 = u64 [a0 + 0x88]\n 19426: sp = sp + 0x3a0\n 19430: ret\n      : @639 (gas: 3)\n 19432: a0 = sp + 0x120\n 19436: a1 = 0x40\n 19439: ra = 726, jump @17\n      : @640 [@dyn 363] (gas: 15)\n 19445: a2 = u64 [sp + 0x138]\n 19449: s1 = u64 [sp + 0x130]\n 19453: a0 = u64 [sp + 0x128]\n 19457: a1 = u64 [sp + 0x120]\n 19461: u64 [sp + 0x70] = a0\n 19464: u64 [sp + 0x68] = a2\n 19467: a0 = a0 | a2\n 19470: u64 [sp + 0x78] = a1\n 19473: a1 = a1 | s1\n 19476: a1 = a1 | a0\n 19479: a1 = a1 >> 0x20\n 19482: a0 = a0 | s1\n 19485: a0 = a0 << 0x20\n 19488: a0 = a0 | a1\n 19491: jump @649 if a0 != 0\n      : @641 (gas: 8)\n 19495: u64 [sp + 272] = 0\n 19499: u64 [sp + 264] = 0\n 19503: u64 [sp + 256] = 0\n 19507: a0 = 0x8c379a000000000\n 19517: a1 = sp + 0x100\n 19521: u64 [sp + 0x118] = a0\n 19525: a0 = u64 [sp + 0x78]\n 19528: ra = 728, jump @19\n      : @642 [@dyn 364] (gas: 11)\n 19534: a2 = u64 [sp + 0x68]\n 19537: a2 = a2 | s1\n 19540: s1 = 0x100000000\n 19550: a0 = 0xfffffffc\n 19560: a1 = u64 [sp + 0x78]\n 19563: a0 = a1 <u a0\n 19566: a1 = u64 [sp + 0x70]\n 19569: a0 = 0 if a1 != 0\n 19571: u64 [sp + 0x68] = a2\n 19574: a0 = 0 if a2 != 0\n 19576: jump @649 if a0 == 0\n      : @643 (gas: 8)\n 19580: a0 = u64 [sp + 0x78]\n 19583: i32 a0 = a0 + 0x4\n 19586: u64 [sp + 248] = 0\n 19590: u64 [sp + 240] = 0\n 19594: u64 [sp + 224] = 0x20\n 19599: a1 = sp + 0xe0\n 19603: u64 [sp + 232] = 0\n 19607: ra = 730, jump @19\n      : @644 [@dyn 365] (gas: 8)\n 19613: a0 = s1 + 0xffffffffffffffdc\n 19616: a1 = u64 [sp + 0x78]\n 19619: a0 = a1 <u a0\n 19622: a1 = u64 [sp + 0x70]\n 19625: a0 = 0 if a1 != 0\n 19627: a1 = u64 [sp + 0x68]\n 19630: a0 = 0 if a1 != 0\n 19632: jump @649 if a0 == 0\n      : @645 (gas: 8)\n 19636: s1 = u64 [sp + 0x78]\n 19639: i32 a0 = s1 + 0x24\n 19642: u64 [sp + 216] = 0\n 19646: u64 [sp + 208] = 0\n 19650: u64 [sp + 192] = 0x22\n 19655: a1 = sp + 0xc0\n 19659: u64 [sp + 200] = 0\n 19663: ra = 732, jump @19\n      : @646 [@dyn 366] (gas: 9)\n 19669: a0 = 0x100000000\n 19679: u64 [sp + 0x60] = a0\n 19682: a0 = 0xffffffbc\n 19692: a0 = s1 <u a0\n 19695: a1 = u64 [sp + 0x70]\n 19698: a0 = 0 if a1 != 0\n 19700: a1 = u64 [sp + 0x68]\n 19703: a0 = 0 if a1 != 0\n 19705: jump @649 if a0 == 0\n      : @647 (gas: 12)\n 19708: s1 = u64 [sp + 0x78]\n 19711: i32 a0 = s1 + 0x44\n 19714: a1 = u64 [0x20190]\n 19719: u64 [sp + 0xb8] = a1\n 19723: a1 = u64 [0x20198]\n 19728: a2 = u64 [0x201a0]\n 19733: a3 = u64 [0x201a8]\n 19738: u64 [sp + 0xb0] = a1\n 19742: u64 [sp + 0xa8] = a2\n 19746: a1 = sp + 0xa0\n 19750: u64 [sp + 0xa0] = a3\n 19754: ra = 734, jump @19\n      : @648 [@dyn 367] (gas: 8)\n 19760: a0 = u64 [sp + 0x60]\n 19763: a0 = a0 + 0xffffffffffffff9c\n 19766: a0 = s1 <u a0\n 19769: a1 = u64 [sp + 0x70]\n 19772: a0 = 0 if a1 != 0\n 19774: a1 = u64 [sp + 0x68]\n 19777: a0 = 0 if a1 != 0\n 19779: jump @651 if a0 != 0\n      : @649 (gas: 1)\n 19782: trap\n      : @650 (gas: 11)\n 19783: ra = 0x2e0\n 19787: sp = sp + 0xffffffffffffffa0\n 19790: u64 [sp + 0x58] = ra\n 19793: u64 [sp + 0x50] = s0\n 19796: u64 [sp + 0x48] = s1\n 19799: s0 = sp + 0x60\n 19802: sp = sp & 0xffffffffffffffe0\n 19805: a0 = sp + 0x20\n 19808: a1 = 0x40\n 19811: ra = 0x314\n 19815: jump @17\n      : @651 [@dyn 368] (gas: 9)\n 19818: s1 = u64 [sp + 0x78]\n 19821: i32 a0 = s1 + 0x64\n 19824: u64 [sp + 144] = 0\n 19828: u64 [sp + 136] = 0\n 19832: a1 = 0x7565000000000000\n 19842: u64 [sp + 0x98] = a1\n 19846: a1 = sp + 0x80\n 19850: u64 [sp + 128] = 0\n 19854: ra = 738, jump @19\n      : @652 [@dyn 369] (gas: 3)\n 19860: a1 = 0x84\n 19864: a0 = s1\n 19866: ra = 740, jump @28\n      : @653 [@dyn 370] (gas: 7)\n 19872: i32 a1 = a0 + 0\n 19874: a0 = 0x1\n 19877: a2 = 0x84\n 19881: ra = 0x2e6\n 19885: ecalli 13 // 'seal_return'\n 19887: t0 = 0x2e8\n 19891: jump @732\n      : @654 [@dyn 371] (gas: 1)\n 19894: t0 = 744, jump @732\n      : @655 [@dyn 372] (gas: 1)\n 19900: jump @658 if a0 == 0\n      : @656 (gas: 1)\n 19903: t0 = 746, jump @756\n      : @657 [@dyn 373] (gas: 1)\n 19909: ret\n      : @658 (gas: 3)\n 19911: a0 = sp + 0xc0\n 19915: a1 = 0x40\n 19918: ra = 748, jump @17\n      : @659 [@dyn 374] (gas: 5)\n 19924: a2 = u64 [sp + 0xd8]\n 19928: s1 = u64 [sp + 0xd0]\n 19932: a0 = u64 [sp + 0xc8]\n 19936: a1 = u64 [sp + 0xc0]\n 19940: t0 = 750, jump @731\n      : @660 [@dyn 375] (gas: 1)\n 19946: jump @676 if a0 != 0\n      : @661 (gas: 1)\n 19950: t0 = 752, jump @736\n      : @662 [@dyn 376] (gas: 1)\n 19956: ra = 754, jump @19\n      : @663 [@dyn 377] (gas: 1)\n 19962: t0 = 756, jump @725\n      : @664 [@dyn 378] (gas: 1)\n 19968: jump @676 if a0 == 0\n      : @665 (gas: 1)\n 19972: t0 = 758, jump @741\n      : @666 [@dyn 379] (gas: 1)\n 19978: ra = 760, jump @19\n      : @667 [@dyn 380] (gas: 1)\n 19984: t0 = 762, jump @729\n      : @668 [@dyn 381] (gas: 1)\n 19990: jump @676 if a0 == 0\n      : @669 (gas: 1)\n 19993: t0 = 764, jump @755\n      : @670 [@dyn 382] (gas: 1)\n 19999: ra = 766, jump @19\n      : @671 [@dyn 383] (gas: 4)\n 20005: a0 = 0x100000000\n 20015: u64 [sp] = a0\n 20017: a0 = 0xffffffbc\n 20027: t0 = 768, jump @728\n      : @672 [@dyn 384] (gas: 1)\n 20033: jump @676 if a0 == 0\n      : @673 (gas: 12)\n 20036: s1 = u64 [sp + 0x18]\n 20039: i32 a0 = s1 + 0x44\n 20042: a1 = u64 [0x201b0]\n 20047: u64 [sp + 0x58] = a1\n 20050: a1 = u64 [0x201b8]\n 20055: a2 = u64 [0x201c0]\n 20060: a3 = u64 [0x201c8]\n 20065: u64 [sp + 0x50] = a1\n 20068: u64 [sp + 0x48] = a2\n 20071: a1 = sp + 0x40\n 20074: u64 [sp + 0x40] = a3\n 20077: ra = 770, jump @19\n      : @674 [@dyn 385] (gas: 3)\n 20083: a0 = u64 [sp]\n 20085: a0 = a0 + 0xffffffffffffff9c\n 20088: t0 = 772, jump @728\n      : @675 [@dyn 386] (gas: 1)\n 20094: jump @677 if a0 != 0\n      : @676 (gas: 1)\n 20097: trap\n      : @677 (gas: 9)\n 20098: s1 = u64 [sp + 0x18]\n 20101: i32 a0 = s1 + 0x64\n 20104: u64 [sp + 48] = 0\n 20107: u64 [sp + 40] = 0\n 20110: a1 = 0x7565000000000000\n 20120: u64 [sp + 0x38] = a1\n 20123: a1 = sp + 0x20\n 20126: u64 [sp + 32] = 0\n 20129: ra = 774, jump @19\n      : @678 [@dyn 387] (gas: 3)\n 20135: a1 = 0x84\n 20139: a0 = s1\n 20141: ra = 776, jump @28\n      : @679 [@dyn 388] (gas: 6)\n 20147: i32 a1 = a0 + 0\n 20149: a0 = 0x1\n 20152: a2 = 0x84\n 20156: ra = 0x30a\n 20160: ecalli 13 // 'seal_return'\n 20162: fallthrough\n      : @680 [@dyn 389] (gas: 23)\n 20163: sp = sp + 0xfffffffffffffee0\n 20167: u64 [sp + 0x118] = ra\n 20171: u64 [sp + 0x110] = s0\n 20175: u64 [sp + 0x108] = s1\n 20179: s0 = sp + 0x120\n 20183: sp = sp & 0xfffffffffffffff0\n 20186: t1 = u64 [a1 + 0x10]\n 20189: t2 = u64 [a1 + 0x18]\n 20192: t0 = u64 [a1 + 0x8]\n 20195: s1 = u64 [a1]\n 20197: u64 [sp + 0x70] = t0\n 20200: u64 [sp + 0x60] = t2\n 20203: a1 = t0 | t2\n 20206: u64 [sp + 0x78] = s1\n 20209: s1 = s1 | t1\n 20212: s1 = s1 | a1\n 20215: s1 = s1 >> 0x20\n 20218: u64 [sp + 0x68] = t1\n 20221: a1 = a1 | t1\n 20224: a1 = a1 << 0x20\n 20227: a1 = a1 | s1\n 20230: u64 [sp + 0x40] = a0\n 20233: jump @689 if a1 != 0\n      : @681 (gas: 30)\n 20237: a0 = u64 [a5 + 0x18]\n 20240: u64 [sp + 0x18] = a0\n 20243: a0 = u64 [a5 + 0x10]\n 20246: u64 [sp + 0x10] = a0\n 20249: a0 = u64 [a5 + 0x8]\n 20252: u64 [sp + 0x8] = a0\n 20255: a0 = u64 [a5]\n 20257: u64 [sp] = a0\n 20259: a0 = u64 [a4 + 0x18]\n 20262: u64 [sp + 0x38] = a0\n 20265: a0 = u64 [a4 + 0x10]\n 20268: u64 [sp + 0x30] = a0\n 20271: a0 = u64 [a4 + 0x8]\n 20274: u64 [sp + 0x28] = a0\n 20277: a0 = u64 [a4]\n 20279: u64 [sp + 0x20] = a0\n 20282: a0 = u64 [a3]\n 20284: u64 [sp + 0x50] = a0\n 20287: a0 = u64 [a2 + 0x18]\n 20290: a1 = u64 [a2 + 0x10]\n 20293: a3 = u64 [a2 + 0x8]\n 20296: a2 = u64 [a2]\n 20298: u64 [sp + 0xe0] = a2\n 20302: u64 [sp + 0xe8] = a3\n 20306: u64 [sp + 0xf0] = a1\n 20310: a1 = sp + 0xe0\n 20314: u64 [sp + 0xf8] = a0\n 20318: s1 = u64 [sp + 0x78]\n 20321: a0 = s1\n 20323: ra = 780, jump @19\n      : @682 [@dyn 390] (gas: 12)\n 20329: a0 = u64 [sp + 0x68]\n 20332: a2 = u64 [sp + 0x60]\n 20335: a2 = a2 | a0\n 20338: a0 = 0x100000000\n 20348: u64 [sp + 0x48] = a0\n 20351: a0 = 0xffffffe0\n 20361: a0 = s1 <u a0\n 20364: a1 = u64 [sp + 0x70]\n 20367: a0 = 0 if a1 != 0\n 20369: u64 [sp + 0x58] = a2\n 20372: a0 = 0 if a2 != 0\n 20374: jump @689 if a0 == 0\n      : @683 (gas: 9)\n 20378: a1 = u8 [sp + 0x50]\n 20381: s1 = u64 [sp + 0x78]\n 20384: i32 a0 = s1 + 0x20\n 20387: u64 [sp + 216] = 0\n 20391: u64 [sp + 208] = 0\n 20395: u64 [sp + 0xc0] = a1\n 20399: a1 = sp + 0xc0\n 20403: u64 [sp + 200] = 0\n 20407: ra = 782, jump @19\n      : @684 [@dyn 391] (gas: 8)\n 20413: a0 = u64 [sp + 0x48]\n 20416: a0 = a0 + 0xffffffffffffffc0\n 20419: a0 = s1 <u a0\n 20422: a1 = u64 [sp + 0x70]\n 20425: a0 = 0 if a1 != 0\n 20427: a1 = u64 [sp + 0x58]\n 20430: a0 = 0 if a1 != 0\n 20432: jump @689 if a0 == 0\n      : @685 (gas: 12)\n 20436: s1 = u64 [sp + 0x78]\n 20439: i32 a0 = s1 + 0x40\n 20442: a1 = u64 [sp + 0x20]\n 20445: u64 [sp + 0xa0] = a1\n 20449: a1 = u64 [sp + 0x28]\n 20452: u64 [sp + 0xa8] = a1\n 20456: a1 = u64 [sp + 0x30]\n 20459: u64 [sp + 0xb0] = a1\n 20463: a1 = sp + 0xa0\n 20467: a2 = u64 [sp + 0x38]\n 20470: u64 [sp + 0xb8] = a2\n 20474: ra = 784, jump @19\n      : @686 [@dyn 392] (gas: 7)\n 20480: a0 = 0xffffffa0\n 20490: a0 = s1 <u a0\n 20493: a1 = u64 [sp + 0x70]\n 20496: a0 = 0 if a1 != 0\n 20498: a1 = u64 [sp + 0x58]\n 20501: a0 = 0 if a1 != 0\n 20503: jump @689 if a0 == 0\n      : @687 (gas: 26)\n 20507: a2 = u64 [sp + 0x78]\n 20510: a0 = a2 + 0x80\n 20514: u64 [sp + 0x58] = a0\n 20517: a0 = a0 <u a2\n 20520: a1 = u64 [sp + 0x70]\n 20523: a3 = a1 + a0\n 20526: u64 [sp + 0x50] = a3\n 20529: a1 = a3 <u a1\n 20532: a1 = a0 if a0 == 0\n 20535: a0 = u64 [sp + 0x68]\n 20538: s1 = a0 + a1\n 20541: a0 = s1 <u a0\n 20544: a1 = u64 [sp + 0x60]\n 20547: a0 = a0 + a1\n 20550: u64 [sp + 0x70] = a0\n 20553: i32 a0 = a2 + 0x60\n 20556: a1 = u64 [sp]\n 20558: u64 [sp + 0x80] = a1\n 20562: a1 = u64 [sp + 0x8]\n 20565: u64 [sp + 0x88] = a1\n 20569: a1 = u64 [sp + 0x10]\n 20572: u64 [sp + 0x90] = a1\n 20576: a1 = sp + 0x80\n 20580: a2 = u64 [sp + 0x18]\n 20583: u64 [sp + 0x98] = a2\n 20587: ra = 786, jump @19\n      : @688 [@dyn 393] (gas: 14)\n 20593: a0 = u64 [sp + 0x40]\n 20596: u64 [a0 + 0x10] = s1\n 20599: a1 = u64 [sp + 0x50]\n 20602: u64 [a0 + 0x8] = a1\n 20605: a1 = u64 [sp + 0x58]\n 20608: u64 [a0] = a1\n 20610: a1 = u64 [sp + 0x70]\n 20613: u64 [a0 + 0x18] = a1\n 20616: sp = s0 + 0xfffffffffffffee0\n 20620: ra = u64 [sp + 0x118]\n 20624: s0 = u64 [sp + 0x110]\n 20628: s1 = u64 [sp + 0x108]\n 20632: sp = sp + 0x120\n 20636: ret\n      : @689 (gas: 1)\n 20638: trap\n      : @690 [@dyn 394] (gas: 9)\n 20639: a0 = u64 [sp + 0x38]\n 20642: u64 [sp + 0x18] = a0\n 20645: a0 = u64 [sp + 0x30]\n 20648: u64 [sp + 0x10] = a0\n 20651: a0 = u64 [sp + 0x28]\n 20654: u64 [sp + 0x8] = a0\n 20657: s1 = u64 [sp + 0x20]\n 20660: ecalli 12 // 'return_data_size'\n 20662: fallthrough\n      : @691 (gas: 12)\n 20663: a1 = u64 [sp + 0x18]\n 20666: a2 = u64 [sp + 0x8]\n 20669: a1 = a1 | a2\n 20672: u64 [sp + 0x18] = s1\n 20675: a3 = u64 [sp + 0x10]\n 20678: a2 = s1 | a3\n 20681: a2 = a2 | a1\n 20684: a2 = a2 >> 0x20\n 20687: a1 = a1 | a3\n 20690: a1 = a1 << 0x20\n 20693: a1 = a1 | a2\n 20696: jump @698 if a1 != 0\n      : @692 (gas: 3)\n 20699: s1 = a0\n 20701: a0 = a0 >> 0x20\n 20704: jump @698 if a0 != 0\n      : @693 (gas: 5)\n 20707: i32 a0 = s1 + 0\n 20709: u64 [sp + 0x10] = a0\n 20712: a0 = u64 [sp + 0x18]\n 20715: a1 = s1\n 20717: ra = 790, jump @28\n      : @694 [@dyn 395] (gas: 6)\n 20723: u32 [sp + 0x40] = s1\n 20726: i32 a0 = a0 + 0\n 20728: i32 a1 = sp + 0x40\n 20731: a2 = 0\n 20733: ecalli 11 // 'return_data_copy'\n 20735: fallthrough\n      : @695 (gas: 3)\n 20736: a0 = i32 [sp + 0x40]\n 20739: a1 = u64 [sp + 0x10]\n 20742: jump @698 if a0 <u a1\n      : @696 (gas: 2)\n 20745: ecalli 12 // 'return_data_size'\n 20747: fallthrough\n      : @697 (gas: 3)\n 20748: s1 = a0\n 20750: a0 = a0 >> 0x20\n 20753: jump @699 if a0 == 0\n      : @698 (gas: 1)\n 20756: trap\n      : @699 (gas: 3)\n 20757: a0 = u64 [sp + 0x18]\n 20760: a1 = s1\n 20762: ra = 792, jump @28\n      : @700 [@dyn 396] (gas: 7)\n 20768: i32 a1 = a0 + 0\n 20770: i32 a2 = s1 + 0\n 20772: a0 = 0x1\n 20775: ra = 0x31a\n 20779: ecalli 13 // 'seal_return'\n 20781: t0 = 0x31c\n 20785: jump @744\n      : @701 [@dyn 397] (gas: 1)\n 20788: t0 = 796, jump @744\n      : @702 [@dyn 398] (gas: 1)\n 20794: jump @704 if a0 == 0\n      : @703 (gas: 6)\n 20797: sp = s0 + 0xffffffffffffff20\n 20801: ra = u64 [sp + 0xd8]\n 20805: s0 = u64 [sp + 0xd0]\n 20809: s1 = u64 [sp + 0xc8]\n 20813: sp = sp + 0xe0\n 20817: ret\n      : @704 (gas: 3)\n 20819: a0 = sp + 0xa0\n 20823: a1 = 0x40\n 20826: ra = 798, jump @17\n      : @705 [@dyn 399] (gas: 5)\n 20832: a2 = u64 [sp + 0xb8]\n 20836: s1 = u64 [sp + 0xb0]\n 20840: a0 = u64 [sp + 0xa8]\n 20844: a1 = u64 [sp + 0xa0]\n 20848: t0 = 800, jump @731\n      : @706 [@dyn 400] (gas: 1)\n 20854: jump @717 if a0 != 0\n      : @707 (gas: 1)\n 20857: t0 = 802, jump @751\n      : @708 [@dyn 401] (gas: 1)\n 20863: ra = 804, jump @19\n      : @709 [@dyn 402] (gas: 1)\n 20869: t0 = 806, jump @725\n      : @710 [@dyn 403] (gas: 1)\n 20875: jump @717 if a0 == 0\n      : @711 (gas: 8)\n 20878: a0 = u64 [sp + 0x18]\n 20881: i32 a0 = a0 + 0x4\n 20884: u64 [sp + 120] = 0\n 20887: u64 [sp + 112] = 0\n 20890: u64 [sp + 96] = 0x20\n 20894: a1 = sp + 0x60\n 20897: u64 [sp + 104] = 0\n 20900: ra = 808, jump @19\n      : @712 [@dyn 404] (gas: 1)\n 20906: t0 = 810, jump @729\n      : @713 [@dyn 405] (gas: 1)\n 20912: jump @717 if a0 == 0\n      : @714 (gas: 8)\n 20915: s1 = u64 [sp + 0x18]\n 20918: i32 a0 = s1 + 0x24\n 20921: u64 [sp + 88] = 0\n 20924: u64 [sp + 80] = 0\n 20927: u64 [sp + 64] = 0x18\n 20931: a1 = sp + 0x40\n 20934: u64 [sp + 72] = 0\n 20937: ra = 812, jump @19\n      : @715 [@dyn 406] (gas: 2)\n 20943: a0 = 0xffffffbc\n 20953: t0 = 814, jump @728\n      : @716 [@dyn 407] (gas: 1)\n 20959: jump @718 if a0 != 0\n      : @717 (gas: 1)\n 20962: trap\n      : @718 (gas: 11)\n 20963: s1 = u64 [sp + 0x18]\n 20966: i32 a0 = s1 + 0x44\n 20969: a1 = u64 [0x201d0]\n 20974: a2 = u64 [0x201d8]\n 20979: a3 = u64 [0x201e0]\n 20984: u64 [sp + 0x38] = a1\n 20987: u64 [sp + 0x30] = a2\n 20990: u64 [sp + 0x28] = a3\n 20993: a1 = sp + 0x20\n 20996: u64 [sp + 32] = 0\n 20999: ra = 816, jump @19\n      : @719 [@dyn 408] (gas: 3)\n 21005: a1 = 0x64\n 21008: a0 = s1\n 21010: ra = 818, jump @28\n      : @720 [@dyn 409] (gas: 7)\n 21016: i32 a1 = a0 + 0\n 21018: a0 = 0x1\n 21021: a2 = 0x64\n 21024: ecalli 13 // 'seal_return'\n 21026: a0 = 0\n 21028: ra = 0x334\n 21032: jump @34\n      : @721 [export #0: 'call'] (gas: 2)\n 21035: a0 = 0\n 21037: ra = 820, jump @34\n      : @722 [@dyn 410] [export #1: 'deploy'] (gas: 2)\n 21043: a0 = 0x1\n 21046: ra = 822, jump @34\n      : @723 [@dyn 411] (gas: 18)\n 21052: a1 = a0 <u a1\n 21055: a3 = u64 [s1 + 0x70]\n 21058: a2 = a3 + a1\n 21061: a3 = a2 <u a3\n 21064: a3 = a1 if a1 == 0\n 21067: a1 = u64 [s1 + 0x60]\n 21070: a3 = a3 + a1\n 21073: a1 = a3 <u a1\n 21076: a4 = u64 [s1 + 0x68]\n 21079: a1 = a1 + a4\n 21082: a4 = a0 | a3\n 21085: a1 = a1 | a2\n 21088: a4 = a4 | a1\n 21091: a4 = a4 >> 0x20\n 21094: a1 = a1 | a3\n 21097: a1 = a1 << 0x20\n 21100: a1 = a1 | a4\n 21103: jump [t0]\n      : @724 (gas: 18)\n 21105: a1 = a0 <u a1\n 21108: a3 = u64 [a5 + 0x50]\n 21111: a2 = a3 + a1\n 21114: a3 = a2 <u a3\n 21117: a3 = a1 if a1 == 0\n 21120: a1 = u64 [a5 + 0x40]\n 21123: a3 = a3 + a1\n 21126: a1 = a3 <u a1\n 21129: a4 = u64 [a5 + 0x48]\n 21132: a1 = a1 + a4\n 21135: a4 = a0 | a3\n 21138: a1 = a1 | a2\n 21141: a4 = a4 | a1\n 21144: a4 = a4 >> 0x20\n 21147: a1 = a1 | a3\n 21150: a1 = a1 << 0x20\n 21153: a1 = a1 | a4\n 21156: jump [t0]\n      : @725 (gas: 11)\n 21158: a2 = u64 [sp + 0x8]\n 21161: a2 = a2 | s1\n 21164: s1 = 0x100000000\n 21174: a0 = 0xfffffffc\n 21184: a1 = u64 [sp + 0x18]\n 21187: a0 = a1 <u a0\n 21190: a1 = u64 [sp + 0x10]\n 21193: a0 = 0 if a1 != 0\n 21195: u64 [sp + 0x8] = a2\n 21198: a0 = 0 if a2 != 0\n 21200: jump [t0]\n      : @726 (gas: 20)\n 21202: a3 = u64 [s1 + 0x10]\n 21205: a0 = u64 [a3 + 0x18]\n 21208: a1 = u64 [a3 + 0x10]\n 21211: a2 = u64 [a3 + 0x8]\n 21214: a3 = u64 [a3]\n 21216: a0 = reverse a0\n 21218: a1 = reverse a1\n 21220: a2 = reverse a2\n 21222: a3 = reverse a3\n 21224: a4 = u64 [s1 + 0x18]\n 21227: u64 [a4 + 0x18] = a3\n 21230: u64 [a4 + 0x10] = a2\n 21233: u64 [a4 + 0x8] = a1\n 21236: u64 [a4] = a0\n 21238: sp = s0 + 0xffffffffffffff80\n 21241: ra = u64 [sp + 0x78]\n 21244: s0 = u64 [sp + 0x70]\n 21247: s1 = u64 [sp + 0x68]\n 21250: sp = sp + 0x80\n 21254: jump [t0]\n      : @727 (gas: 17)\n 21256: a3 = u64 [s1 + 0x18]\n 21259: a0 = u64 [a3 + 0x18]\n 21262: a1 = u64 [a3 + 0x10]\n 21265: a2 = u64 [a3 + 0x8]\n 21268: a3 = u64 [a3]\n 21270: a0 = reverse a0\n 21272: a1 = reverse a1\n 21274: a2 = reverse a2\n 21276: a3 = reverse a3\n 21278: a4 = s1 + 0x100\n 21282: u64 [a4 + 0x38] = a3\n 21285: u64 [a4 + 0x30] = a2\n 21288: u64 [a4 + 0x28] = a1\n 21291: u64 [a4 + 0x20] = a0\n 21294: a0 = s1 + 0x60\n 21297: a1 = s1 + 0x120\n 21301: jump [t0]\n      : @728 (gas: 6)\n 21303: a0 = s1 <u a0\n 21306: a1 = u64 [sp + 0x10]\n 21309: a0 = 0 if a1 != 0\n 21311: a1 = u64 [sp + 0x8]\n 21314: a0 = 0 if a1 != 0\n 21316: jump [t0]\n      : @729 (gas: 8)\n 21318: a0 = s1 + 0xffffffffffffffdc\n 21321: a1 = u64 [sp + 0x18]\n 21324: a0 = a1 <u a0\n 21327: a1 = u64 [sp + 0x10]\n 21330: a0 = 0 if a1 != 0\n 21332: a1 = u64 [sp + 0x8]\n 21335: a0 = 0 if a1 != 0\n 21337: jump [t0]\n      : @730 (gas: 18)\n 21339: sp = sp + 0xffffffffffffff80\n 21342: u64 [sp + 0x78] = ra\n 21345: u64 [sp + 0x70] = s0\n 21348: u64 [sp + 0x68] = s1\n 21351: s0 = sp + 0x80\n 21355: sp = sp & 0xffffffffffffffe0\n 21358: s1 = sp\n 21360: a2 = u64 [a1]\n 21362: a3 = u64 [a1 + 0x8]\n 21365: a1 = u32 [a1 + 0x10]\n 21368: u64 [s1 + 0x18] = a0\n 21371: u64 [s1 + 88] = 0\n 21374: u64 [s1 + 0x50] = a1\n 21377: u64 [s1 + 0x48] = a3\n 21380: a1 = s1 + 0x40\n 21383: u64 [s1 + 0x40] = a2\n 21386: a0 = 0\n 21388: jump [t0]\n      : @731 (gas: 11)\n 21390: u64 [sp + 0x10] = a0\n 21393: u64 [sp + 0x8] = a2\n 21396: a0 = a0 | a2\n 21399: u64 [sp + 0x18] = a1\n 21402: a1 = a1 | s1\n 21405: a1 = a1 | a0\n 21408: a1 = a1 >> 0x20\n 21411: a0 = a0 | s1\n 21414: a0 = a0 << 0x20\n 21417: a0 = a0 | a1\n 21420: jump [t0]\n      : @732 (gas: 14)\n 21422: sp = sp + 0xffffffffffffff00\n 21426: u64 [sp + 0xf8] = ra\n 21430: u64 [sp + 0xf0] = s0\n 21434: u64 [sp + 0xe8] = s1\n 21438: s0 = sp + 0x100\n 21442: sp = sp & 0xfffffffffffffff0\n 21445: a1 = u64 [a0 + 0x10]\n 21448: a2 = u64 [a0 + 0x18]\n 21451: a3 = u64 [a0 + 0x8]\n 21454: a0 = u64 [a0]\n 21456: a2 = a2 | a3\n 21459: a0 = a0 | a1\n 21462: a0 = a0 | a2\n 21465: jump [t0]\n      : @733 (gas: 14)\n 21467: a0 = u64 [a2 + 0x8]\n 21470: a1 = i32 [a2 + 0x10]\n 21473: a2 = u64 [a2]\n 21475: a0 = reverse a0\n 21477: a3 = a0 << 0x20\n 21480: a1 = reverse a1\n 21482: a1 = a1 >> 0x20\n 21485: a3 = a3 | a1\n 21488: a0 = a0 >> 0x20\n 21491: a1 = reverse a2\n 21493: a2 = a1 << 0x20\n 21496: a0 = a0 | a2\n 21499: a1 = a1 >> 0x20\n 21502: jump [t0]\n      : @734 (gas: 14)\n 21504: a4 = s1 + 0x100\n 21508: a1 = u64 [a4]\n 21510: u64 [s1 + 0x18] = a1\n 21513: a2 = u64 [a4 + 0x8]\n 21516: u64 [s1 + 0x10] = a2\n 21519: a3 = u64 [a4 + 0x10]\n 21522: u64 [s1 + 0x8] = a3\n 21525: a0 = u64 [a4 + 0x18]\n 21528: u64 [s1 + 0xd8] = a0\n 21532: u64 [s1 + 0xd0] = a3\n 21536: u64 [s1 + 0xc8] = a2\n 21540: a0 = s1 + 0xc0\n 21544: u64 [s1 + 0xc0] = a1\n 21548: jump [t0]\n      : @735 (gas: 13)\n 21550: sp = sp + 0xfffffffffffffea0\n 21554: u64 [sp + 0x158] = ra\n 21558: u64 [sp + 0x150] = s0\n 21562: u64 [sp + 0x148] = s1\n 21566: s0 = sp + 0x160\n 21570: sp = sp & 0xffffffffffffffe0\n 21573: s1 = sp\n 21575: u64 [s1 + 248] = 0\n 21579: u64 [s1 + 240] = 0\n 21583: u64 [s1 + 232] = 0\n 21587: u64 [s1 + 224] = 0\n 21591: i32 a0 = s1 + 0xe0\n 21595: jump [t0]\n      : @736 (gas: 8)\n 21597: u64 [sp + 176] = 0\n 21601: u64 [sp + 168] = 0\n 21605: u64 [sp + 160] = 0\n 21609: a0 = 0x8c379a000000000\n 21619: a1 = sp + 0xa0\n 21623: u64 [sp + 0xb8] = a0\n 21627: a0 = u64 [sp + 0x18]\n 21630: jump [t0]\n      : @737 (gas: 18)\n 21632: a0 = a1 <u a0\n 21635: a3 = u64 [a5 + 0x50]\n 21638: a2 = a3 + a0\n 21641: a3 = a2 <u a3\n 21644: a3 = a0 if a0 == 0\n 21647: a0 = u64 [a5 + 0x48]\n 21650: a3 = a3 + a0\n 21653: a0 = a3 <u a0\n 21656: a4 = u64 [a5 + 0x40]\n 21659: a0 = a0 + a4\n 21662: a4 = a1 | a3\n 21665: a0 = a0 | a2\n 21668: a4 = a4 | a0\n 21671: a4 = a4 >> 0x20\n 21674: a0 = a0 | a3\n 21677: a0 = a0 << 0x20\n 21680: a0 = a0 | a4\n 21683: jump [t0]\n      : @738 (gas: 12)\n 21685: a0 = u64 [s1 + 0x8]\n 21688: a0 = a0 << 0x20\n 21691: a0 = a0 >> 0x20\n 21694: u64 [s1 + 184] = 0\n 21698: u64 [s1 + 0xb0] = a0\n 21702: a0 = u64 [s1 + 0x10]\n 21705: u64 [s1 + 0xa8] = a0\n 21709: a1 = s1 + 0xa0\n 21713: a0 = u64 [s1 + 0x18]\n 21716: u64 [s1 + 0xa0] = a0\n 21720: a0 = 0\n 21722: jump [t0]\n      : @739 (gas: 12)\n 21724: sp = sp + 0xffffffffffffffa0\n 21727: u64 [sp + 0x58] = ra\n 21730: u64 [sp + 0x50] = s0\n 21733: u64 [sp + 0x48] = s1\n 21736: s0 = sp + 0x60\n 21739: sp = sp & 0xffffffffffffffe0\n 21742: s1 = a0\n 21744: a0 = u64 [a1 + 0x18]\n 21747: a2 = u64 [a1 + 0x10]\n 21750: a3 = u64 [a1 + 0x8]\n 21753: a1 = u64 [a1]\n 21755: jump [t0]\n      : @740 (gas: 9)\n 21757: a0 = u64 [a3 + 0x18]\n 21760: a1 = u64 [a3 + 0x10]\n 21763: a2 = u64 [a3 + 0x8]\n 21766: a3 = u64 [a3]\n 21768: a0 = reverse a0\n 21770: a1 = reverse a1\n 21772: a2 = reverse a2\n 21774: a3 = reverse a3\n 21776: jump [t0]\n      : @741 (gas: 8)\n 21778: a0 = u64 [sp + 0x18]\n 21781: i32 a0 = a0 + 0x4\n 21784: u64 [sp + 152] = 0\n 21788: u64 [sp + 144] = 0\n 21792: u64 [sp + 128] = 0x20\n 21797: a1 = sp + 0x80\n 21801: u64 [sp + 136] = 0\n 21805: jump [t0]\n      : @742 (gas: 13)\n 21807: sp = sp + 0xffffffffffffffb0\n 21810: u64 [sp + 0x48] = ra\n 21813: u64 [sp + 0x40] = s0\n 21816: s0 = sp + 0x50\n 21819: sp = sp & 0xfffffffffffffff0\n 21822: u64 [sp + 48] = 0\n 21825: u64 [sp + 40] = 0\n 21828: u64 [sp + 32] = 0\n 21831: a0 = 0x4e487b7100000000\n 21841: a1 = sp + 0x20\n 21844: u64 [sp + 0x38] = a0\n 21847: a0 = 0\n 21849: jump [t0]\n      : @743 (gas: 7)\n 21851: a1 = u64 [a2 + 0x30]\n 21854: a0 = a1 <u a0\n 21857: a1 = u64 [a2 + 0x38]\n 21860: a0 = 0 if a1 != 0\n 21862: a1 = u64 [a2 + 0x50]\n 21865: a0 = 0 if a1 != 0\n 21867: jump [t0]\n      : @744 (gas: 14)\n 21869: sp = sp + 0xffffffffffffff20\n 21873: u64 [sp + 0xd8] = ra\n 21877: u64 [sp + 0xd0] = s0\n 21881: u64 [sp + 0xc8] = s1\n 21885: s0 = sp + 0xe0\n 21889: sp = sp & 0xfffffffffffffff0\n 21892: a1 = u64 [a0 + 0x10]\n 21895: a2 = u64 [a0 + 0x18]\n 21898: a3 = u64 [a0 + 0x8]\n 21901: a0 = u64 [a0]\n 21903: a2 = a2 | a3\n 21906: a0 = a0 | a1\n 21909: a0 = a0 | a2\n 21912: jump [t0]\n      : @745 (gas: 12)\n 21914: a0 = u64 [s1]\n 21916: u64 [s1 + 0x20] = a0\n 21919: a0 = u64 [s1 + 0x8]\n 21922: u64 [s1 + 0x28] = a0\n 21925: a0 = u64 [s1 + 0x10]\n 21928: u64 [s1 + 0x30] = a0\n 21931: a1 = s1 + 0x20\n 21934: a0 = u64 [s1 + 0x18]\n 21937: u64 [s1 + 0x38] = a0\n 21940: a0 = a3\n 21942: u64 [s1 + 0x18] = a3\n 21945: jump [t0]\n      : @746 (gas: 12)\n 21947: a0 = u64 [s1 + 0x58]\n 21950: a1 = u64 [s1 + 0x50]\n 21953: a2 = u64 [s1 + 0x48]\n 21956: a3 = u64 [s1 + 0x40]\n 21959: a0 = a0 | a2\n 21962: a2 = a3 | a1\n 21965: a2 = a2 | a0\n 21968: a2 = a2 >> 0x20\n 21971: a0 = a0 | a1\n 21974: a0 = a0 << 0x20\n 21977: a0 = a0 | a2\n 21980: jump [t0]\n      : @747 (gas: 11)\n 21982: a0 = u64 [s1 + 0x78]\n 21985: u64 [s1 + 0x18] = a0\n 21988: a0 = u64 [s1 + 0x70]\n 21991: u64 [s1 + 0x10] = a0\n 21994: a0 = u64 [s1 + 0x68]\n 21997: u64 [s1 + 0x8] = a0\n 22000: a0 = u64 [s1 + 0x60]\n 22003: u64 [s1] = a0\n 22005: a0 = s1 + 0x40\n 22008: a1 = 0x40\n 22011: jump [t0]\n      : @748 (gas: 8)\n 22013: a0 = a0 | a2\n 22016: a2 = a1 | a3\n 22019: a2 = a2 | a0\n 22022: a2 = a2 >> 0x20\n 22025: a0 = a0 | a3\n 22028: a0 = a0 << 0x20\n 22031: a0 = a0 | a2\n 22034: jump [t0]\n      : @749 (gas: 12)\n 22036: a0 = u64 [s1 + 0x78]\n 22039: a3 = u64 [s1 + 0x60]\n 22042: a0 = a0 | a3\n 22045: a1 = u64 [s1 + 0x70]\n 22048: a2 = u64 [s1 + 0x68]\n 22051: a1 = a1 | a2\n 22054: a0 = a0 | a1\n 22057: a0 = a0 >> 0x20\n 22060: a1 = a1 | a3\n 22063: a1 = a1 << 0x20\n 22066: a0 = a0 | a1\n 22069: jump [t0]\n      : @750 (gas: 8)\n 22071: a1 = sp + 0xffffffffffffffe0\n 22074: a2 = a1 & 0xffffffffffffffe0\n 22077: u64 [s1 + 0x150] = a2\n 22081: sp = a2\n 22083: i32 a0 = a0 + 0\n 22085: a1 = i32 [s1 + 0x158]\n 22089: i32 a2 = a2 + 0\n 22091: jump [t0]\n      : @751 (gas: 8)\n 22093: u64 [sp + 144] = 0\n 22097: u64 [sp + 136] = 0\n 22101: u64 [sp + 128] = 0\n 22105: a0 = 0x8c379a000000000\n 22115: a1 = sp + 0x80\n 22119: u64 [sp + 0x98] = a0\n 22123: a0 = u64 [sp + 0x18]\n 22126: jump [t0]\n      : @752 (gas: 6)\n 22128: sp = s0 + 0xffffffffffffffa0\n 22131: ra = u64 [sp + 0x58]\n 22134: s0 = u64 [sp + 0x50]\n 22137: s1 = u64 [sp + 0x48]\n 22140: sp = sp + 0x60\n 22143: jump [t0]\n      : @753 (gas: 4)\n 22145: a4 = s1 + 0x7ff\n 22149: a4 = a4 + 0xd9\n 22153: a5 = a4 + 0x200\n 22157: jump [t0]\n      : @754 (gas: 8)\n 22159: a0 = u64 [s1 + 0xf0]\n 22163: a1 = u64 [s1 + 0xf8]\n 22167: a2 = u64 [s1 + 0xe8]\n 22171: a3 = u64 [s1 + 0xe0]\n 22175: a1 = a1 | a2\n 22178: a0 = a0 | a3\n 22181: a0 = a0 | a1\n 22184: jump [t0]\n      : @755 (gas: 8)\n 22186: s1 = u64 [sp + 0x18]\n 22189: i32 a0 = s1 + 0x24\n 22192: u64 [sp + 120] = 0\n 22195: u64 [sp + 112] = 0\n 22198: u64 [sp + 96] = 0x22\n 22202: a1 = sp + 0x60\n 22205: u64 [sp + 104] = 0\n 22208: jump [t0]\n      : @756 (gas: 6)\n 22210: sp = s0 + 0xffffffffffffff00\n 22214: ra = u64 [sp + 0xf8]\n 22218: s0 = u64 [sp + 0xf0]\n 22222: s1 = u64 [sp + 0xe8]\n 22226: sp = sp + 0x100\n 22230: jump [t0]\n      : @757 (gas: 8)\n 22232: a0 = u64 [a2 + 0x8]\n 22235: a1 = i32 [a2 + 0x10]\n 22238: a2 = u64 [a2]\n 22240: a3 = reverse a0\n 22242: a0 = a3 << 0x20\n 22245: a1 = reverse a1\n 22247: a1 = a1 >> 0x20\n 22250: jump [t0]\n","bytecode":{"object":"50564d00003968000000000000010700c12002c000800381e8655278546174654d61203a726579616c612079646165726c006465766f727070a7cf0a4122ff81fc7ffa0f898eafbc65619e1e6755051054a7c630c4474728c7655278546174654d73203a726579616c6f6e207265646e65766f727070612074655278546174654d69203a726579616c6e2064696c61766e655278546174654d73203a726579616c65727574616e676963696669726576206166206e6f697461655278546174654d69203a726579616c696369666675736e6f70656420746e65b00d39413842573e969a1fc9d1483a468298eddbf300e2a66ea17fcdef6f8cb476f965456a74369948a7568ff868a76f275679c10a78787c7e5369525cc7d1733e39f4b0704b8fdd2806a32891d39b8819b89e6a81618ba7487e6549a3e759973dfeb89bc6c3738b79cc59f74ccc2e51cafa0f9b177b9f230f40392b525da7a9ee4ae4cb6dcee6e077d9865552498d3b684d03e9fb09a473e16a88c7f9618cff0cf2c054aafd9ec85009df822861df7acd07037e6351a9f5c68b8b292f674ccb1d50a457736e575da1201b68462fe9df69203a4153444345732064696c61766e65727574616e67696c6176202773272069203a4153444345732064696c61766e65727574616e67696c6176202776272069203a4153444345732064696c61766e65727574616e67690481151100000000070000000b0000001900000027000000350000003b00000043000000500000005b0000006a000000770000008700000097000000a2000000b4000000bf0000006164647265737363616c6c63616c6c5f646174615f636f707963616c6c5f646174615f6c6f616463616c6c5f646174615f73697a6563616c6c6572636861696e5f69646465706f7369745f6576656e746765745f73746f72616765686173685f6b656363616b5f3235367265665f74696d655f6c65667472657475726e5f646174615f636f707972657475726e5f646174615f73697a657365616c5f72657475726e7365745f696d6d757461626c655f646174617365745f73746f7261676576616c75655f7472616e73666572726564051302c02b520463616c6cc03352066465706c6f7906c00665819b02c0ec569b00e301b1020703bd031e04260425052a055005bb05c705ff051d066e067706810694062f07710779079407b107f407fc071d084c086a088808b908ec08f4081609730984098c09d809250a2a0a350a3a0a5a0a5f0a630a680a6d0a890abb0ac00ac90ace0ad30ad80afb0a000b050b100b1d0bab0bf10b210c800cf30c010d0e0d7f0db810fd106f1139124c1252125f12651287128d12931299129f12bd12f112f712011313136c1378138c1392139f13a513c713cd13d313d913df13fd1331143714411447144d14531478147e1484149014a414aa14b014c914f814fa1400151815471549154f15681597159915b415c915cb15f5156f169816a116b016c616d016d616dc16e616ec16f216fb1601171d174f175a1783178f17a517ab17d117e717f017f617fc171b1821184018501888189318a818ae18b718c618dc18e618ec18f218fc18021908192719431975198019ae19ba19d019d619df19ee19041a0e1a141a1a1a241a2a1a301a4f1a6b1a9d1aa81ad11add1af31af91aff1a161b3a1b811b1c1c721e2e1fce1f14201a2031205520182134218021c821f12144228122bf221323a2231c24282477247d24b824fc2437257525b825fa250b264e265426bb263f277c27c2271b2841286728772849297729c529f8290e2a542a8e2ac12aee2a402b7e2bd02b8b2cf92c262df92dc42e122f202feb2fa530f33035319b3143327032e4329634e734f0340c352a3561356a358c3554366136e736fa36033752377337f4371d387538c638b439323a753a433bbe3bce3be43b053c3f3c4f3cf53c683db03d0e3e143e3e3ec13ed13e053f153f5a3f6b3f9d3fae3fdd3fee3f184029405b40a440e340f1400b411c4122419c4127427942bf422243aa43b643e843f443264431443e446c447c448944cd44d344f64432453f4559456945a44518462446564662468b469146b346ee46fb461147204742474b47e2473c487d48c84843495049fc49344adc4a664bac4bf54b4e4c9d4cd54c304d6a4d944da04db64dbc4dc54dd44dea4df44dfa4d004e0a4e104e164e1f4e254e414e734e7e4ea74eb34ec34e694fbd4f005071509f50f350205134513a51605176517f5185518b51aa51b051cf51df510d52185233523c52aa876e978a2098aa20977b2098bb20c89b0bc9ba0a979b019abbaeab20ae873751094ec87909647a017c8b95880195ac0178ab64caab9cf42836510934c87909647a017c8b95880195ac0178ab64caab9cf4281c51091a839aff01c8a80b7cbb9599ffc8a70c78cb83aaff5209f032003908f0010251083b05330720020383770a0e282e059511f07b10087b1564896475330820649750100240047c78017c797c7a027c7b03978808d4980897aa1097bb18d4ba0ad4a8087c79057c7a047c7b067c7c07979908d4a90997bb1097cc18d4cb0bd4b909979920d489027c79097c7a087c7b0a7c7c0b979908d4a90997bb1097cc18d4cb0bd4b9097c7a0d7c7b0c7c7c0e7c780f97aa08d4ba0a97cc10978818d4c808d4a808978820d498037c78117c7a107c7b127c7c13978808d4a80897bb1097cc18d4cb0bd4b8087c7a157c7b147c7c167c791797aa08d4ba0a97cc10979918d4c909d4a909979920d4890a7c78197c79187c7b1a7c7c1b978808d4980897bb1097cc18d4cb0bd4b8087c791d7c7b1c7c7c1e7c771f979908d4b90997cc10977718d4c707d49707977720d487076f776fa86f396f2a7b5a187b59107b58087b57821008821595111032009511d87b10207b15187b161082897b19088289087b19828510828618330820501004f8026f686f59821a6faa821b086fbb787b18787a10787908787898bc38787c1f98bc30787c1e98bc28787c1d98bc20787c1c98bc18787c1b98bc10787c1a98bb08787b1998ab38787b1798ab30787b1698ab28787b1598ab20787b1498ab18787b1398ab10787b1298aa08787a11989a38787a0f989a30787a0e989a28787a0d989a20787a0c989a18787a0b989a10787a0a98990878790998893878790798893078790698892878790598892078790498891878790398891078790298880878780182102082151882161095112832006f776f996faa6f887b18187b1a107b19087b17491138491130491128491120481140208318831a20831b403309ff33070a08821738821830821928821a206f776f886f996faa7b6a187b69107b68087b675012086e5332009511a07b10587b15509515608411e08272827a08827b108277188283828908828c108288186f746fbb6faa6f276f826fcc6f996f387b17187b1a107b1b087b147b18387b19307b1c287b12208318831a203309ff330b2033070a0f9551a08210588215509511603200951160ff7b1098007b1590007b1688009515a0008411e082ab7b1b3882ab087b1b3082ab107b1b2882aa187b1a20829a7b1a18829a087b1a10829a107b1a088299187b19648650100a1e0182186f888219086f99821a106faa821b186fbb7b1b587b1a507b19487b18408218206f888219286f99821a306faa821b386fbb7b1b787b1a707b19687b18608379836a8317403308020a07955160ff8210980082159000821688009511a00032007b185850100eb5006f687b18980082186f887b1890008218086f887b1888008218106f887b1880008218186f887b18b8008218206f887b18b0008218286f887b18a8008218306f887b18a0008218386f887b18d8008218406f887b18d0008218486f887b18c8008218506f887b18c0008218606f887b18f8008218686f887b18f0008218706f887b18e8008218786f887b18e0008379811a58831780003308040a079551e0fe8210180182151001821608019511200132008b7910520931c8780883881f8488e05638000001253309ec0102390aec0102ae8a093d08ec01020133080002028377c887073200009511f07b10087b158475010a04013d07e8010251050750101009501012a2009511a07b10587b15509515608411e049111849111049018000330740641849110850101474fc4911384911304911284911208317200a1001821730821838821928821a20d49808d4a707d487075107163308000202838833070133093300180a0d283c3908ec010256187f0c2003ec0102800001330700020283778000330833090a0228c3fa33078000330850101620ff8378330733093300180a0d019511a0fd951700027b70587b75507b7648951560028411e064164926d8014926d0014926c00180003307409568c0014926c80150101ac5fb3307e801027b67383907e80102531704d7008367e001330833001c0a03018167fc013308ba4f25e1aa87503308ab35032daa873e5247823f15474e33001e9511c0fd951700027b70387b75307b7628951540028411e04921b8014921b0014921a8014921a0018317a0010a1028870733002033024e28ba4d3300223302b00028b04d3308dd483467ab870d33002433029000289d4d52473f4e42124949261802492610024926080249260002836700020a1001956b000282b71082b81882b90882bad49808d4a707d487075107733308000202838833070133090a0d28628267388177015107133308000202838833070133090a0d2849330026951160fe7b1098017b1590017b1688019515a0018411e0641633070002037b672883777b670833000e020a058269283302100228af4c33080002028388330733090a0d018267388177561703143308000202838833070133090a0d28e933070002037b673883777b67203300280a0582693833022a286d4c82693850122a674c4926b8017b68b0017b67a8019568a0017b6aa001330750102c30fa49269801492690014926800101330720956880014926880150102e13fa3307ec01027b67303907ec010256173f0b826830480840019517e08479e07b6928649133070002027b6718837783993308407b67103300300a09826a28330232280c4d826a28501232064d956b00027bba387bb9307bb8287bb720956760019568200233003433020628c24c7c6760015107ba004926500149264801140700000000a079c3087b67580133078000956840014926400150103678f9492638014926300149262001203307840095682001492628015010385af94926180149261001492600011f3307a400956800014926080150103a3cf93a070000023a080800027b67f8003a071000027b68f0003a091800027b67e8003307c4009568e0007b69e00050103c0bf982673081775627ff000d8268304808000101826718837880003307013309640a0d0182672033003e0a0582693833024028f24a826938501240ec4a4926b8007b68b0007b67a8009567c0009568a0007b6aa0003300423302d80028484a8268c0008267c8008269d000826ad8007b6a98007b6990007b678800956780007b6880003300449511807b10787b1570951580008411e0827818827910827a0882777b18387b19307b1a287b172064179518203300f600330206286c4b8267203300460a0582693833024828574d826938501248514dd4780298aa206f98978920d4a9099888204916583a0a2000023a0b2800023a0c3000023a073800027b6a787b6b707b6c687b67607b68507b6948956960956a407b62403307330850104a9ff9330782681033090a0d285cfd82781082771814090000000001000000d38909d479099888208888019478939851080532009511f87b1033080002028388330701330933004c0a0d33024e280c4a50124e094a3300500a10330252285d4c5012525a4c5207a2003907e80102541723a000836700013308043300540a0333025628a949501256a6495010588550125a524a50105c57f7492698004926900049268800330720956880004926800050105e3bf73908ec010256183f0b2003ec010240019517e08479e07b691864913307000202837783993308403300600a093302622850485012624d4833006433020628164a501266154b501068b7f550126ae84a51072300330800020228083308000202018388330701330933006c0a0d33026e28a24a50126e9f4a501070bff6330820826718501072cbf9837833092033073300740a0d019511d0fe7b1028017b1520017b161801951530018411f0828610828b18828c0882827b1b587b1c68d4bc08d4620bd48b0b98bb20d46808978820d4b8087b175208950282a7187b174882a7107b1740829718829810829b82990882ac087b1c3882aa7b1a50d4b808d49707d487078e7749210801492100014921f8009518f0007b17f00064277b126050107619f68219607b1628821858d468081407e0ffffff00000000d87907821a6894a77b18309487510723028397204921e8004921e0004921d000409518d0004921d8006496501078d3f5821940821a50d49a07821848821b38d4b808d48707987720d49808978820d487075207df0164a89517b00050107a69f4140700000000010000007b17081407c0ffffff00000000d87607821868948782183094875107ac018219c800821ac000821cb800821bb0008367407b1b107b1b90007b1c187b1c980064a67b1aa000951890007b19207b19a80050107c44f58219608217089577a0d879078218689487821830948751075b01821748821840d487071408e0ffffff00000000821a50d88a08821b3894b8947851083701821810d46807821b20821c18d4cb0bd4b7079877207b1648d46b0b97bb20d4b7075207120183976083aa207b1a50648650107ee8f77b1740821750646850208000dbf76478821740646950208200f8f2821760c86707d86708821968821b18c8b909c88909d3b90ad8b90bdaa80b821828821a48c8a808d8a80a821c58821620c86c0cc8ca0ac88b0bd88b08c8a808d4b808140aa0ffffff00000000d8a70a949a948a510a900083776049218800492180004911789518704911705020840046f482161095661f1407e0ffffff01000000d26707821860c88707d88708821a68c88a09d8a90ada880a821828c88a0ad88a08821b58c8b808957b60d87b07c8790cd89c09da7709c8a909d8a907c8870782187b8b7b8c087b89107b87189551d0fe821028018215200182161801951130013200008217b0018218b8018219a801821aa001d49808d4a707d487075207e3033307e801027b17583907e80102541743d9038317c0013308040a03018212d801821cd0018216c801d42c0788680194785108bd03821bc0018217588077d8b7088e69da68099acac99a03d89a097b1c488ecac82a0a9aaac99a0a7b16409a69c989097b1b38c9b7078fa88e3cdba80c8877c4008577018e98da9708d4a30adbac08510873037b12508317e0013308240a0301821cf801821af001821be801d4ca0788b8019478510855038216e0018217588077956823d86809c89b027b1b18d8b20bda990bc8ab0b7b1a20d8ab097b1c28c8c909d4b909d878079427949751072403836804831700020a030195180002828718828210828c087b1730d4720788ca01947a510a050382170002956924d8690a821818c8a800d8800bdaaa0b821820c8b80ad88a03821828c838047b1720c8790b7b1908d89b087b1c10c8c006c88606d30607d80603da78037b1228c82a08d8a8098212307b1418c82407c897078219588099c88303d88308c88707d8b908886901858801db6908887901883b01db790bd47307db7b0851088702821838958704d88708821b40c88b09d8b90bda880b821848c88b0bd88b08821650c886068218207b1800018218087b1820018218107b1808017b1028017b1740018217287b1710017b1a30017b1218018217187b1738017b1948017b1b5001951760019518400195192001951a00017b16580133008600951108f8951b00077bb0f0007bb5e8007bb6e0009515f807951178fb8411e0641682ab187b6b000182ab107b6b080182ab087b6b100182aa7b6a1801829a187b6a2001829a107b6a2801829a087b6a300182997b693801828b7b6b5801828a087b6a50018289107b6948018288187b6840017b678000956cff0795ccd9007bc800027bc9f8017bcaf0019567ff079577e1029568ff079588c1027bcbe8013300b001284f05821760017b1750821768017b1748821770017b1740821778017b1738821780017b1730821788017b1728821790017b1720821798017b17109517e000330840502088008eef821af8007b1a588217f0007b17188219e8007b19088216e0008218107b18788218207b18708218287b18688218307b18608218387b1898008218407b1890008218487b1888008218507b1880007b1ab8007b17b0007b19a8009517c0009518a00095198000951a607b16a00050208a00b4f9821b086469821758d4b707821618d46908d47808988820d46707977720d4870752075e8217c8008218d8007b18508213c0008218d000d3b704d8b70cd89300da400cc9680ac9ca04d8ca02d8680a821858821c50c98c0cc9ac0cc92c0cc9b707c90707c99306d4c707d44608d47808d44707988820977720d4870751074500330800020228323308000202282b330800020228243308000202281d330800020228163308000202280f33080002022808330800020201838833070133090a0d016497646850208c00a3f283788369330733008e000a0d3302900028e54150229000e241330092000a10330294002833445022940030445207d3003907e80102541723d10083670001330804330096000a0333029800287c4150229800794150209a0057f750229c00224250209e0026ef4926980049269000492680000133072095688000492688005020a00008ef3908ec010256183f0b2003ec010240019517e08479e07b691864913307000202837783993308403300a2000a093302a400281a405022a40017403300a60033020628de418267607b67189567403308405020a80078ed826a58826850826948826740d49a0ad48709d4a909989920d4a808978820d4980851081b0033080002022808330800020201838833070133090a0d017c68188e894916384916304916289568207b69207b67185020aa0059ee3308208267185020ac0064f1837833092033073300ae000a0d3302b00028a5405022b000a2403300b2000a103302b40028f3425022b400f0425207b2003907e80102541723b000836700013308043300b6000a033302b800283c405022b80039405020ba0017f65022bc00e2405020be00e6ed4926980049269000492680000233072095688000492688005020c000c8ed3908ec010256183f0b2003ec010240019517e08479e07b691864913307000202837783993308403300c2000a093302c40028da3e5022c400d73e3300c600330206289e405022c8009d415020ca003eec5022cc006e415107250033080002022808330800020201838833070133093300ce000a0d3302d0002825415022d00022415020d20041ed3308208267185020d4004cf0837833092033073300d6000a0d3302d80028ba3e5022d800b73e5020da0015ed49163849163049162001330720c876084916285020dc00fcec3908ec010256183f0b2003ec010240019517e08479e07b691064913307000202837783993308400a095022de00e03d32005020e200c5ec491638491630491628330720c876084916205020e400adec3908ec010256183f0b2003ec010240019517e08479e07b691064913307000202837783993308400a095022e600913d32005020ea0076ec49163849163049162002330720c876084916285020ec005dec3908ec010256183f0b2003ec010240019517e08479e07b691064913307000202837783993308400a095022ee00413d32007b17387b19307b1a287b182064179518203300f200330206282b3f7c1733084916184916104916087b675022f400ad4032008217821808821918821a10847700ff8677017b19587b1a507b18487b17409517209518405020f8001aed955180821078821570951180003200828910828a18828b088288d4ba0ad4980bd4ab0b98bb20d4a909979920d4b9095209739511807b10787b15707b1668951580008411e0647683888317400a038218407b188217487b17188219507b1910821a587b1a087b1a387b19307b17289517207b18205020fa007bf38217087b67188217107b67108217187b670882177b679551808210788215708216689511800032000051070b5022fe00274032009517c00033084050200001dbe98219d8008216d0008217c8008218c00050220201ce3c5207970050220401933d50200601efea50220801d03b5107810050220a01323e50200c01d9ea50220e015a3c51076b50221001b53f50201201c4ea140700000000010000007b171407bcffffff0000000050221401203c5107408216188367443a084000027b18583a084800023a095000023a0a5800027b18507b19489518407b1a405020160176ea821795779c50221801e33b52070400821618836764491130491128140800000000000064657b183895182049112050201a0142ea33088400646750201c014ded83783307013309840033001e010a0d3302200128cb3d50222001c83d510719955120ff8210d8008215d0008216c8009511e00032009517a00033084050202201bae88219b8008216b0008217a8008218a00050222401ad3b52076c50222601633e50202801cfe950222a01b03a5107578217188377044911784911704911602095186049116850202c01aae950222e012b3b5107328216188367244911584911504911401c9518404911485020300185e91407bcffffff0000000050223201ed3a520704008216188367443a086000023a096800023a0a7000027b18387b19307b1a2814090000000065636e6f9518207b1920502034013de933086464675020360149ec8378330701330964330038010a0d33023a0128093b50223a01063b51070b50223c01113e32009517c00033084050203e01c5e78219d8008216d0008217c8008218c00050224001b83a5207a700502242017d3b50204401d9e850224601ba3951079100502248011c3c50204a01c3e850224c01443a51077b8216188367244911784911704911602c95186049116850204e019ee8140700000000010000007b171407bcffffff0000000050225001fa395107408216188367443a087800027b18583a088000023a098800023a0a9000027b18507b19489518407b1a405020520150e8821795779c50225401bd39520704008216188367643a089800024911287b183814080000000064656c697b18309518204911205020560117e83308840064675020580122eb83783307013309840033005a010a0d33025c0128e13950225c01de3951070b50225e01e93c32009517c000330840502060019de68219d8008216d0008217c8008218c0005022620190395207a70050226401553a50206601b1e75022680192385107910050226a01f43a50206c019be750226e011c3951077b821618836724491178491170491160239518604911685020700176e7140700000000010000007b171407bcffffff0000000050227201d2385107408216188367443a08a000027b18583a08a800023a09b000023a0ab800027b18507b19489518407b1a405020740128e7821795779c50227601953852070400821618836764491130491128140800000000007469737b183895182049112050207801f4e633088400646750207a01ffe983783307013309840033007c010a0d33027e01283f3a50227e013c3a50208001c6e6491118491110490111330704641849110850208201afe63908ec010256183f0b2003ec0102400133080002028388330701330924330084010a0d018289828218828a08828c10959b0188b901c8a909d49b0a88aa01c8ca0ad8ca0cc82c0cd4c902d4ab08d428085108107b7b7b79087b7a107b7c1832003300860133027e0128b1399511c87b10307b15287b1620829b828a829608828408829010828c10829918828218d364057b1608d864067b1b187b1a10d8ba087b18da5806d39208d89203d80c05da8503d30c0bd4b808da8603520342c90c08d8680bc99209c95909c9b909c96808821a08c9a40a821bc9ba0a821b18821c10c9bc0b7b7b7b7a087b78107b791882103082152882162095113832003300880133027e01281639951160ff7b1098007b1590007b1688009515a0008411e0829a10829b18829c088299d4cb0bd4a90cd4bc0c98cc20d4ba0a97aa20d4ca0a7b1720520af9018287187b17388287107b173082860882877b172883988317400a03013307e801027b17083809e801028217587b1710821350821828d8890a8e6bda6a0b8212309a247b1618c8a60c9ac7c98909959ae1d89a0985ccffc89c0cd37c08d87c07da8907d8b40864298212108e99821638c86909c89808821948c9b406886b01c8b808821b409566ffc86707d86706c98606d3c908d8c90cd8ab0adb8c0ad87308d3620cd96206dac806d37307d4c707db760a510a4501821728c87b0cd8bc07821618c89606c87606d39608d89609da8709821730c83707c8970ad87a08d83707821938c89202c82707c87808d4ac077b1830d46808d487079877207b1a38d4a808978820d487075207ef007b1c2883c88317600a0301821078821970821c68d4090788ca01947a510ad7008213608217289578207b1818d87807c876087b1810d8680ada770a8217088076821738c87a0ad87a07821830c887077b1708d8360b8ec8dacb089a92d882077b17287b19308e947b1038c804048210089a47821928c99707821910c982087b1328c9360464c39ac6c9b606d3690bd89606821218d8240cdbb60cd8a80bd37006d90707da6b07d3a808d46808db870c520c4b8217208218287b78207b727b73287b79088218307b78307b7a108218387b78387b7018955160ff8210980082159000821688009511a0003200003308000202280f330800020228083308000202018388330701330933008a010a0d01951160ff7b1098007b1590007b1688009515a0008411f0829c108292188296088293d42606d4c309d46909989920d46c0c97cc20d4c90952096a0182a21882ac1082a482a608d4c40ad42609d49a0a98aa20d4c909979920d4a909520946017b16487b1c507b12587b1728828918828a10828c828808d4ac077b19407b1830d49808d487079877207b1a38d4a808978820d4870752070d0182b7107b1782b7087b170882b77b171083337b132064c7644864467b1c1850208c01aee5837783688219200a0201821b18c86b0bd86b07821948821830c89808c8780ad39a08d89a06da8706821950821738c89707c87606d87608d89707821958821c40c8c909c89707c87808d46b077b1a587b1848d4a808d487079877207b1650d46808978820d4870752077e8219089897208218978820d48707821a1098a820979920d4980897a9204911607b19687b18709518607b177864b764b650208e01f7e1956714d86708821a58c88a09d8a90ada880a821850c88a0ad88a08821b48c8b808821b287bba107bb9087bb77bb818955160ff8210980082159000821688009511a00032000050209201abe149111849111049014133070464184911085020940194e13908ec010256183f0b2003ec0102400133080002028388330701330924330096010a0d019511b07b10487b15407b16389515508411f064728289827408828c088273959a1fd89a00c80c0984aae07b1308c8a303d8a30bc8490ac8ba0ad39a06d89a07da6b07822b18d8c90c828610822210828818da000cc86c0cd86c06c82c09c89707d8c90cd89709c8b808c86808c8c808c8980c8ec88e79dbc809d4c7088ea6db8906520653821808d88308d34a09d84a06da9806d82708d3bc09d8bc0bda980bd32708d49808da860b520b2c7b13107b1a187b17203307409518107b1c2850209801ade09551b0821048821540821638951150320033009a013302900128fe33828a18828b10828908d4ba0a889b0194ab510b308288958a1fd88a08c8980884880184aae095a920d8a90ac8a80bd88b08daaa084917187b797b7b087b7810320033009c013302900128b2339511c0fe7b1038017b1530017b162801951540018411e064760a0c0151074c017b16180a0c64794921f8004921f0004921e800951700019518e0007b19207b19e00050209e0172ff821700017b1740821708017b1738821710017b1730821718017b17289517c0003308405020a0019ade8217d8007b17588216d0008219c8007b1950821ac0007b1a488218287b1898008218307b1890008218387b1888008218407b1880007b17b8007b16b0007b19a8009517a000951880007b1aa0005020a20117fe821748821858821950d48909d46708d498089888207b1640d46909979920d49808520882004911784911704911689518608219207b19605020a40144df0a0c01821a48821840821958d498081409e0ffffff00000000d89a09821b5094b99489510943647698772052073b83a72083687b183864685020a6011de27a16200183778318200133090a0b01821b4881172001821618821858821940821a50821c38aec70e00330a33093308330b60017b6b7b6a087b69107b68189551c0fe821038018215300182162801951140013200826228826730826820d48707826958d49208d47808988820d49707977720d4870752074201826948826b38d49b07826850826a40d4a808d48707987720d49808978820d4870752071d01826c9800826a90008267800082688800d4a7097b6c207b6808d4c808d489099899207b6a10d4a808978820d498085208eb0083227b622883b87b68587b67305020aa013ae183778268588269280a0201826830826738c88707d88708826940826b08c8b909c88909d3b90ad8b90bdaa80b826848826a10c8a808c88b0bd88b02d8a808826c50826a20c8ac0cc8c808c82808d4b70ad49808d48a0a98aa20d4b808978820d4a8085208724916784916704916689568604916605020ac01a9dd8267308268585020ae01b4e09518e08488e07b68506481837783898268580a09826a5082a71882a81082a90882aa6f776f886f996faa826b187bba187bb9107bb8087bb7955140ff8210b8008215b0008216a8009511c0003200005022b2010a3282c90882c71082c81882ca2095bc00017bcac0007bc8b8007bc7b0009567ff079577a1029568ff07958881027bc9a8003300b4013302d80028a62e956bff0795bbd90095bc000182c9c80082c7d00082c8d80082cae0007bca80007bc8787bc7709567ff07957761029568ff07958841027bc9683300b6013302f00028e32f956bff0795bbd90095bc000182c8880082c7900082c9980082caa0007bca607bc9587bc7509567ff07957721027bc8483300b8013302fc00287a2e82674001956aff0795aad90095ab00017bb720826748017bb718826750017bb7109567ff07957701029568ff079588e101826958017bb9085020ba0195f0956bff0795bbd90095bc000182c92882c73082c83882ca407bbae0007bb8d8007bb7d0009567ff079577c1019568ff079588a1017bb9c8003300bc013302e00028a62d956bff0795bbd90082b7000182b8f80082b9f00082bae80095bc00027bc7407bc8387bc9307bca289567ff07957781019568ff07958801033300be0133020628e52e956c000182c758957880005022c0017b2e5207db0e9569ff079599d9008297c0007b67e8008297b8007b67f8008297b0007b67e0008297a8007b67f000838895670010837720fb3300c2010a033302c4012836305022c401333082c76082c85082ca5882c9487b67d800826ce800d3c7077b68e800826ce000d3c808d487077b6ae0008268f800d3a8087b69f800826af000d3a909d49808d48707887701492ba000492b98007bb788009567ff0795776101492b90003300c6013302200128b52e826700019568ff079588d9007b8720826708017b8718826710017b8710826718017b8708826720017b8740826728017b8738826730017b8730826738017b8728826740017b8760826748017b8758826750017b8750648c9567ff07957741019568ff07958821019569ff0795990101956aff0795aae100826b58017bcb485020c8013c13956bff0795bbd90082b86882b77082b97882ba80007bba7bb9f8956900107b97c8f89567ff079577c100956900107b98c0f83300ca0133023a0128352c82674001956800107b8798f882674801956800107b8790f882675001956800107b8788f89567ff079577a1009568ff079588810082695801956a00107ba980f85020cc0148ee956700108279a0f8956700108277a8f8956800108288b0f8956a001082aab8f8956b00107bba58f8956a00107ba850f8956800107b8748f89567ff079577619568ff07958841956a00107ba940f83300ce013302e80028432b95670010827778f895680010828870f895690010829968f8956a001082aa60f85022d001462e7bc780007bc8787bc9707bca689567ff079577219568ff07958841033300d20133020628782c956c000182c7589578405022d4010f2c52076f0c95670010827738f87b67300195670010827730f87b67380195670010827728f87b67000195670010827720f87b672801838895670010837760fb0a039567ff079577d900957a000282a890007b68180182aba00082a988007b69200182ac9800826a0001d38a07d88a08826a2801d89a09db78097b6b100182683001d3b807d8b8087b6c0801826b3801d8cb0adb780ad3cb08d48707db7a0985970195680010492818f895680010492810f8956800107b8700f89567ff0795770195680010492808f83300d60133025c0128682a8267d8007b67d8078267e0007b67d0078267e8007b67c8079567e0079568c0078269f8007b69c0075020d801c9f18267e0077b6738018267e8077b6730018267f0077b6728018267f8077b670001826740017b679807826748017b679007826750017b6788079567a00795688007826958017b6980075020da0145ec8269a0078267a8078268b007826ab8077b6a58077b6850077b67480795676007956840077b6940073300dc013302e000286629826778078268700782696807826a60075022de01792c7bc7c0007bc8b8007bc9b0007bcaa800826700017bc7e000826728017bc7d800826730017bc7d000826738017bc7c8009567ff07957781039568ff079588a1035020e001bbd89517e08477e07b6738016471826740017b671807826748017b671007826750017b6708079567200795680007826958017b6900075020e2017ceb956b000782b92082b72882b83082ba387b6ad8067b68d0067b67c8069567e0069568c0067b69c0063300e4013302e800289d288267f006826bf8068269e006826ae806826838017b87107b8b187b897b8a089567a0063300e60133020628f129826aa0068267a8068268b0068269b806826b10017b6b5806826b08017b6b5006826b18017b6b4806826b20017b6b40067b6978067b6870067b6768069567800695686006956940067b6a60065020e80147f0826798068268900682698806826a8006956bff0795bbd9007bb7000395b700027b78f8007b79f0007b7ae8009568ff079588c103826738015020ea0191d782675801957920d8790782685001c8780ad88a08da770882674801c87808d87807826b4001c8b7077b67607b6718067b68687b6810067b6a707b6a080695672006956800067b69787b6900065020ec013aea956800068287307b6790008287287b6788008287207b67980082675801837860956700108377e0fb0a039568ff079588d900958900038297207b67388297187b67308297107b67288297087b6720826858019589a000d889076482826b5001c87b0ad8ba0864b3da7708826b4801c8b808d8b80764bc826b4001c8b7077b67407b6798057b68487b6890057b6a507b6a88057b69587b6980057b6bb8057b6cb0057b63a8059567c0059568a005956980057b62a0055020ee0197ef8267c0057b67f8008267c8057b67f0008267d0057b67e8008267d8057b67e0008267e0057b67d8008267e8057b67d0008267f0057b67c8008267f8057b67c000826740017b675805826748017b675005826750017b6748059567600595684005826958017b6940055020f00111e9826760057b67b800826768057b67b000826770057b67a800826778057b67a000956720053308405020f20165d3956900058297207b673801829c387b6c30018298287b68000182623005957920d87907c8780ad88a08da77087b622801c82808d82807c87c0c8267a0007b6798048267a8007b6790048267b0007b6788048267b8007b6780048267c0007b67b8048267c8007b67b0048267d0007b67a8048267d8007b67a0048267e0007b67d8048267e8007b67d0048267f0007b67c8048267f8007b67c0047b69f8007b69e0047b6af0007b6ae8047b68e8007b68f004956700059568e0049569c004956aa004956b80047b6ce0007b6cf8045020f4017ff0956c000182c8648b82c730d4870782c838648982ca28d4a808d47808988820d4a707977720d487075207c50682640005826c0805826718057b67d80082621005d89403d3bc08d8bc09da830982672801c9720ad89a00d87202826730018268d800c97807c92707c907027b62c800c99a00c9bc07c9370a7b6ad00082673801c974087b68d800958ce0d88c08c88a099599ffd3a903d8a90bda380b7b60c000880801c982039508ffc88b0bd88b0ac83a0a7b6c60047b6968047b6b7004956860047b6a78045020f60101d38267c8007b6738048267c0007b6730048267d0007b6728048267d8007b672004826730017b675804826728017b675004826700017b6748049567400495682004826938017b6940045020f80149f195670004826838015020fa016bd1826788006f77826890006f88988820977920d4980a826898006f8b98772097b820d47808330c000203826218048264100482630804826900043e080802033e0a00020398bb203d0b1002039560ff079500d900826a10017b0a4003826a08017b0a3803826a18017b0a30038267f0008268e000d478088267f800826ae800d4a70bd48b0bd48a0a98bb2097aa20d4ba0a826b20017b0b2803520a2e057b6c3801d4490ad42308d48a0a98aa20d44808978820d4a8085208110583987b68280164987b6930015020fc01f1d48269208e98fc08826a288ea9daa809826c308ec8826b388ebadab80ad4bc08db8a09826828018e88d498089a89956aff0795aad90095ab00037bb980007bb9787bb9707bb968482a480382693801979920989920978823d498029568ff07958801049788209888209569ff0795994104979920d4890a9777203308000202987720826b300197bb20d47b0b9788209888209567ff0795772104977720d4870c3308ff3309ff64270a018877017b6738019567e0035020fe01e1f08267f8037b6718018267f0037b6720018267e8037b6728018267e0037b673001826740017b67b803826748017b67b003826750017b67a8039567c0039568a003826958017b69a0035020000217e58267d0037b6700018267c8037b6710018267c0037b6708018267607b6778038267687b6770038267707b67680395678003956860038269787b69600350200202d5e4826790037b67e800826788037b67f800826780037b67f0008267407b67f8028267487b67f0028267507b67e8028267587b67e002826740017b671803826748017b671003826750017b67080395672003956800039569e002826a58017b6a00035020040287ea82622003826328038268300382693803826b4003826c4803826a5003826758037b6798027b6a90027b6c88027b6b80027b69b8027b68b0027b63a8029567c0029568a002956980027b62a00233000602951140ff7b10b8007b15b0007b16a8009515c0008411e06416829a187b6a50829a107b6a48829a087b6a4082997b69388289107b695882897b69288289187b69308288087b68207b6718956780003308403300a8012845ce8267d8027b67e0008267d0027b67d8008267c8027b67d0008267c0027b67c80095676002330840502008021bce956c000282c9787b69500182c8707b68480182ca687b6a400182cb607b6b5801826718017b67f801826720017b67f001826728017b67e801826730017b67e001492618024926100249260802826738017bc77bc9387bc8307bca28956740029568200295690002956ae0017bcb2050200a023fd8956b000182b94082b750d4970782ba4882b858d4a808d47808988820d4a707977720d487075207dd0164a0956b000282b74882b8587b68c0008263400282ba50d3970bd8970c82625801d82308dab80cc90a0bc9cb04d8cb0b7b6bb800d80a0a826c5001826bc000c9cb0cc9ac0c826ab800c9ac0cc99707c98707c92308d4c707d4480ad47a0ad4470798aa20977720d4a70752076f01826700019777209872208269e8009799209899208267c8007b6760018267f0007b678001492698014926b801826708017b67a0018267d0007b6768018267f8007b678801826710017b67a8013a0ac000023a0bc800023a0cd000023a07d800027b6ad8017b6bd0017b6cc8017b67c0018267d8007b6770018267e0007b6778017b6990019569c001956aa001956b8001956c60017b62b0018267580133000c029511e0fe7b1018017b1510017b160801951520018411e082c67b166082c6087b166882c6107b167082cc187b1c7882bc7b1c3882bc087b1c4082bc107b1c4882bb187b1b5033020c82ab7b1b1882ab087b1b2082ab107b1b2882aa187b1a308296829a087b1a829a107b1a088299187b19107b185833000e2843d082678000956900018298187b78388298207b78308298287b78288298307b78204917184917104917088298387b78955100f8951180fb95118804951700078270f0008275e8008276e0009511f80732000082692850221002f11e49261801956900017b98107b9708956800017b9a330750201202b9cc4926f8004926f0004926e000023307209568e0004926e800502014029bcc3908ec010256183f0b2003ec010240019517e08479e07b69386491330700020283778399330840330016020a09826a3833021802289f1f826a3850221802991f7b6a38017b6930017b6828017b6720019567c0009568200133001a0233020628531f8267d8007b67188267d0007b67388267c0007b67108267c8007b67309517e08477e07b6720647149265801492650014926480149264001836740010a10019567000182794882784082625801827b50826c30c89c0c826710c87803d88308c88c0cd39c0ad89c09daa809826838c8b808826018c80202d8b80ac82a0ac88909d88908c88a04826a30d3ca08d8ac0bd87307db8b07826a38d8a902d3400bd80408dab208d39a0ad4ba0adba8078268207b837b8c087b89107b8418520722019567200150201c02bbcc9567a00033084050201e022aca8267b8007b67308267b0007b67208267a8007b67188267a0007b673849267801492670014926680149266001836760010a1001826730826818d48707826838648b826920d49808d47808988820d49707977720d487075207bc00956c000182c76082c86882c97082ca787b6a98007b6990007b688800956880007b67800064b750202002deca826708330022020a058269283302240228e11f82692850222402db1fd4780298aa206f99979820d4a8089899204916583a0ae000023a0be800023a0cf000023a07f800027b6a787b6b707b6c687b67607b69507b6848330820956960956a407b62408267385020260226cc955160fe8210980182159001821688019511a00132003300280233027e0128bf1d00951150fe7b10a8017b15a0017b1698019515b0018411f082ab187b1b2082ab107b1b2882ab087b1b1082aa7b1a18828a187b1a30828a107b1a38828a087b1a7082887b1868829a829808829b108299187b17087b1998007b1968017b1b90007b1b60017b1888007b18580195177001951850017b1a607b1a500150202a0246e9821770017b1758821778017b1750821780017b1748821788017b17409517300133084050202c026ec8821848017b18a800821940017b19a0008216380182173001821a407b1a0801647a7b1780008217487b1700018217507b17f8008217587b17f0007b1828017b1920017b161801951710019518f0007b1a100150202e02e6e7821780007b16788219a800d46909821aa000d4a708d49808988820d4a909979920d498085208c8018216607b16d000821888007b18d800821890007b18e0009518d000821998007b19e80050203002ffc8821868c86808d8680982177082148800c84707c8970ad34a0bd84a07dab907821b10d3ba09d8ab0a821b18d88b0882163882139000c8630bdb9a08d83b0982103082129800c8020ac8a909c8b707d8b70ac8a909821b20d3b90ad89b09821c28d87c0bdaab09d3c707d4a707db7908642b643a82126082136852082301d46307821870d40808d48707987720d46808978820d4870752070601d4a207d4b408d48707987720d4a808978820d48707821978821aa8005207e6008217a000d4a7071408e0ffffff00000000821b80007b1870d88b08949894785108c30083337b136883b720642864265020320228cb837783688219680a020182128000c86207d8270882198800821b78c8b909c88909d3b90ad8b90bdaa80b82189000821aa000c8a808d8a80a821c98008216a800c86c0cc8ca0ac88b0bd88b08c8a808d4b808821a70d8a70a949a948a510a5164268377204921c8004921c0004921b8009518b0004921b0005020340293c78217088218a8007b78188218a0007b78108218787b78087b76955150fe8210a8018215a001821698019511b001320000330800020283883307013309330036020a0d019511a0f9951b00067bb0587bb5507bb648951560068411e06416828c10828318828b0882827b6b38017b632001d43b08d4c20bd48b0b98bb207b6c2801d4c808978820d4b8087b67c8005208620882a7187b67880082a7107b67900082a7087b67980082a77b67a0008297187b67a8008297107b67b0008297087b67b80082977b67c00083288367a0057b6858017b6230010a03956b000582b7b80082bab00082b8a80082b9a0007bb798007b6a08017bba90007b6818017bb88800956780057b6910017bb9800050203802a7ce956a000182a72882a920d47909140700000000010000007ba7481407e0ffffff0000000082a830d8780782a83894877ba95094975107aa07826758018378208367c0050a03956b000582b7d80082bad00082b9c80082b8c0007bb7787b6af0007bba707b69f8007bb968956760057b6800017bb86050203a022cce956900018297489577c050223c02931951075307826758018378408367e00533003e020a030114070000000001000000956900017b97481407a0ffffff00000000502240025c1951071c07956800058287f8007b67e8008287f0007b67e0008287e8007b67d8008287e0007b67d0008267580183786083670006330042020a0301956900018297489577805022440212195107d206826718067b678000826710067b6778826708067b6770826700067b67688267580183788000836720060a03956800068287387b67608287307b67588287287b67508287207b6748826730019573a000d8730882693801c88904d8940ada880a826c2801c8ca0ad8ca08826b2001c88b027b64e8047b63e0047b6b18057b6c10057b6908057b6700057b6af00495672005956800059569e0047b62f804502046022ddf82622005826328058264300582693805826a40053308e80102826c4805826b5005826758057b68403808e801024926780449267004492668047b6860047b6798047b6b90047b6c88047b6a80047b69b8047b64b0047b63a8049567c0049568a00495698004956a60047b62a0045020480212fa956b000482b9d80082bad00082b7c80082b8c000956b00017bb7587bb950d49707d4a809d479099899207bba48d4a707977720d4970752078305956740047b68400150204a02dbc2956a000182ab4082a75082a848d487071408e0ffffff00000000d88b0882a9589498947851084d05956a000482a75882ac5082a84082a948d4c80ad49707d47a0a98aa20d4c707977720d4a7075207240583b7207b68580150204c02cec650224e0229180a09826850018287187b67388287107b67308287087b672882877b672095672004330840502050024dc295680004828720828a38828928828c30957b207b675801d87b07c879087b695001d89809da7709c8c9097b6c4001d8c9077b6a4801c8a707d49b0ad48707d47a0a98aa20d49707977720d4a707520796043a07000102956a00047ba7183a070801023a081001023a091801027ba7107ba808956800047ba97b6b1864b75020520204c3956c000182c85895874050225402a61352085004826808019788209889204926f80382681001956a00037ba8e000826818017ba8e8009568e0037ba9f00050205602c0c2956c000182c85895876050225802621352080c041408ffffffff000000007b6818018269f000d289098268f8008488ff826b000184baff4926d803956b00037bbac0007bb8c8009568c0037bb9d00050205a026bc2956c000182c8589587800050225c020c135208b6038268d000956a00037ba8a0008268d8007ba8a8008268e0007ba8b0009568a0038269e8007ba9b80050205e0228c2956c000182c8589587a00050226002c91252087303826868956a00037ba880008268707ba888008268787ba8900095688003826980007ba9980050206202e8c1956c000182c8589587c00050226402891252083303826848956a00037ba8608268507ba8688268587ba870956860038269607ba97850206602adc1956c000182c8589587e000502268024e125208f8028268206f898268286f88826a306faa826b386fbb956c00037bcb407bca487bc850956840037bc95850206a026ac1956b000182b75882ba40d4a70782b85082b948d49808d48707987720d4a808978820d487075207a1024926380349263003492628039568200349262003e0008267580150206c0221c14926f8024926f0024926e8024926e002000182674801956a00037ba718826740017ba710826750017ba708956700039568e002826958017ba950206e0278df9567c00282685801502070029abf956b000282b7d80082bad00082b9c80082b8c00050227202f814520716028267187b68580150207402c0c3502276021b150a09826a500182a71882a81082a90882aa6f7b6f876f986fa97b6998027b6890027b6788029567a002956880027b6b800233007802951100fd951900027b90f8007b95f0007b96e800951500038411e064168289187b69488289107b69408289087b693882887b68307b67289567a0023308403300800228ecbe8267a0027b6758018267a8027b6750018267b0027b6748018267b8027b67400182674080774926180249261002492608027b670002826788007b673802826790007b673002826798007b6728028267a0007b6720028267a8007b6758028267b0007b6750028267b8007b674802956760029568400295692002956a0002826bc0007b6b400250207a0253f5956b000282b76082b86882b97082ba787b6ab8017b69b0017b68a8017b67a001826740017b67d801826748017b67d001826750017b67c8019567e0019568c0019569a001826a58017b6ac00150207c0201058267e8017b6758018267f0017b6750018267e0017b674801826720017b677801826728017b677001826738017b6768019567800195686001826930017b69600150207e024bd3956c000182c7800082c8900082c9880082ca48d3a70782ca50d3a80882ca58d3a909330affd2a90982cb18d2b808d2a707d48707d497078877018268c80033094918104918184918087b879551a0f99517000682705882755082764895116006320000956800028287a000828ab8008289a800828cb000957b207b6778d87b07c879087b6970d89809da7709c8c9097b6c60d8c9077b6a68c8a707d49b0ad48707d47a0a98aa20d49707977720d4a707520704043a07200102956a00027ba798003a072801023a083001023a093801027ba790007ba88800956880027ba980007b6b5864b7502082021bbe826878958740502284028c0e5208bd033a08400102956b00027bb8783a084801023a095001023a0a5801027bb8707bb968956860027bba6050208602ddbd826878958760502288024e0e52087f033a08600102956b00027bb8583a086801023a097001023a0a7801027bb8507bb948956840027bba4050208a029fbd8367c00233008c020a06018268789587800050228e02040e52083503956c000282c9c00082c8c80082cad00082cbd8007bcb387bca307bc828956820027bc9205020900259bd33070002037b67508377330092020a018268789587a00050229402b90d5208ea02826a5082a80881a91082aa6f88978b206f99989920d4b9099888206faa97ab20d4b80898aa2049261802956b00027bba107bb808956800027bb950209602f8bc5022980247115207a0024926f8014926f0014926e8019568e0014926e001a00082677850209a02cfbc4926b8014926b0014926a8014926a001c0008267687b67d8018267607b67d0018267707b67c8019567c0019568a0018269787b69c00150209c0229db9567800182687850209e024cbb956b000182b7980082ba900082b9880082b880005022a002aa1052071a028267587b68785020a20273bf9518e08489e07b69706491837781687883990a098268708287187b67588287107b67508287087b672082877b6718956760013308405020a402e7ba95670001827860827b78827968827c709587207b6878d8870ac8a9087b6970d89809daaa09c8c9097b6c60d8c90a7b6b68c8ab0bd4970ad4b808d48a0a98aa20d49808978820d4a8085208860149265001492648014926400114090000000000000119956840017b6958017b67105020a602adbb8268789587225022a8021e0c52084f018268186f898268206f88826a506faa826b586fbb956c00017bcb207bca287bc830956820017bc9385020aa026fbb8268789587425022ac02e00b52081101826830956a00017ba88268387ba8088268407ba810956800018269487ba9185020ae023abb5022b002890f5207e2004926f8004926f0004926e8009568e0004926e000428267785020b20212bb4926b8004926b0004926a8004926a000628267687b67d8008267607b67d0008267707b67c8009567c0009568a0008269787b69c0005020b4026dd9956780008268785020b60290b982679800826a900082698800826880005022b802f20e5207628267107b68785020ba02bcbd9518e08489e07b69706491837781687883993300bc020a09826a703302be0228be0d826a705022be02b80d826b287bba187bb9107bb8087bb7955100fd951700028270f8008275f0008276e80095110003320000951160fc951a00037ba098007ba590007ba688009515a0038411e0829610829c18829a08829b7b1a787b1c60d4ca09d46b0ad49a0a98aa20d46909979920d4a9097b176852098e058287187b17408287107b17488287087b175082877b1758951700037b1b7064b85020c002a9b8951b000382b71882b80882b982ba10d48707859841d4a808d487075207ba03821960d46909140600000000010000001407e0ffffff00000000821870d87807821a7894a77b1960949751071b058388209517e0025020c2024fb88218709567c0d87807821978949782196094975107f704951900028297f8007b17208297f0007b17288297e8007b17308296e0008388409517c0025020c4020eb88218701407a0ffffff00000000d87807821978949782196094975107af047b1618951900028297d8007b17388297d0007b17608296c8008297c0007b17788388609517a0025020c602c3b73a078001023a08880102d376097b1670d87607821a78d88a08db97081407ffffffffffffff7f821a38d37a09d87a07821b6088baffdb970ae1b907da780a510ae202951900028296b8009866389567e5d8670888770293879388938749299800492990007b97800095178002492988003300c8023302e802286e0a951760023308405020ca023bb7821878027b1810821970027b1908821a6802821260027b128217387b17b8018217607b17b0018217707b17a8018217787b17a0018217207b17d8018217287b17d0018217307b17c8018217187b17c0014921f8014921f0014921e8017b16e0018217407b1718028217487b1710028217507b1708028217587b1700027b1838027b1930027b1a280264a6951740029518200295190002951ae001951bc001951ca0017b1220025020cc02cd04951800028287587b17708287507b17588287407b17788287487b1760492198014921900149218801951880014921800133075020ce0291b70a0a01821b088212108213330900020321030802032103000203200310020300000001951a0003491a38491a30491a28d42607d4b308d47808988820d4b707977720d48707491a205207ca027b1950821a60d36a07d86a08821078d83009da7908821c58c9bc07c98704d88707d8bc08821b70c92b0bc98b0bc97b0bc96a07c99707c93006d4b707d44608d47808d44707988820977720d4870752077802643764685020d00200ba390aec01026478561a1f0b2003ec01022001951900034819402049197849197049196849196082175097772098772014090000000018000000d4970795192003979920989920951a600397aa20d49a0a9788203309000202988820976b20d48b0b97992098992095184003978820d4980c3308ff3309ff0a01015207f1019517600133085020d20225b5821870017b1870821968017b196082166001821778017b1778978720987720d49608d487078e7749215801492150017b17400195174001492148013300d40233021c0328c409821a78821960821870280b330633093308330a018217687b767b79087b78107b7a18955160fc951700038270980082759000827688009511a0033200951720013308405020d60296b4821938018216300182172801821820017b17707b1968d497077b1878d46808d47808988820d46707977720d4870752072301492110014921080149210001140700000000a079c308951800017b1718018217785020d80277b5821968d46909140600000000010000001407fcffffff00000000821878d8780782187094877b196894975107ce008217788377044921f8004921f0004921e000209518e0004921e8005020da0228b59567dc821878d8780782187094878218689487510796008216788367244921d8004921d0004921c000229518c0004921c8005020dc02f0b4140700000000010000007b17601407bcffffff00000000d876078218709487821868948751074d8216788367443a089001027b18b8003a089801023a09a001023a0aa801027b18b0007b19a8009518a0007b1aa0005020de0295b482176095779cd8760782187094878218689487520727003300e0029511a07b10587b15507b16489515608411e095172033084033001403281eb38216788367644921900049218800140800000000000065757b18980095188000492180005020e20231b43308840064675020e4023cb78378330701330984003300e6020a0d3302e80228fb055022e802f80551070b5022ea02030932009517c0003308405020ec02b7b28219d8008216d0008217c8008218c0005022ee02aa05520797005022f0026f065020f202cbb35022f402ac04510781005022f6020e075020f802b5b35022fa02360551076b5022fc0291085020fe02a0b3140700000000010000007b171407bcffffff0000000050220003fc045107408216188367443a08b001027b18583a08b801023a09c001023a0ac801027b18507b19489518407b1a405020020352b3821795779c50220403bf0452070400821618836764491130491128140800000000000065757b1838951820491120502006031eb33308840064675020080329b683783307013309840033000a030a0d019511e0fe7b1018017b1510017b160801951520018411f082831082841882820882867b12707b1460d442087b1678d43606d486069866207b1368d43808978820d468087b17405208950182c7187b171882c7107b171082c7087b170882c77b1782b7187b173882b7107b173082b7087b172882b77b172082a77b1750829718829810829a0882997b19e0007b1ae8007b18f0009518e0007b17f800821678646750200c035cb2821768821960d47909140700000000010000007b17481407e0ffffff00000000d8760782187094877b19589497510708017c18508216788367204921d8004921d0007b18c0009518c0004921c80050200e0308b28217489577c0d87607821870948782185894875107ce008216788367408218207b18a0008218287b18a8008218307b18b0009518a0008219387b19b80050201003c5b11407a0ffffff00000000d876078218709487821858948751078700821978959780007b1758d89707821870c8780a7b1a50d88a08da7708821768c88706d87607821860c887077b177083976082187b1880008218087b1888008218107b189000951880008219187b1998005020120354b18217407b76108218507b78088218587b788218707b78189551e0fe821018018215100182160801951120013200008217387b17188217307b17108217287b17088216200a0c01821818821908d498087b1618821a10d4a609d48909989920d4a808978820d4980852083c647698772052073483677b1710821718646850201603e9b37a1640837783184033090a0b01811740821810ac870e0a0c01647698772051070400821718646850201803bcb38378836933070133001a030a0d33021c03283c0450221c033904510719955120ff8210d8008215d0008216c8009511e00032009517a00033084050201e032baf8219b8008216b0008217a8008218a000502220031e0252076c50222203d4045020240340b050222603210151075782171883770449117849117049116020951860491168502028031bb050222a039c015107328216188367244911584911504911401895184049114850202c03f6af1407bcffffff0000000050222e035e01520704008216188367443a08d001023a09d801023a0ae001027b18387b19307b1a2895182049112050203003b8af330864646750203203c4b283783307013309640a0d33073300340328e3b2330750203403deb233070150203603d5b2d88708826a70c88a09d8a90ada880a826860c88a0ad88a08826b68c8b808d4a70bd49808d48b0b98bb20d4a808978820d4b8083202d8870882ca50c88a09d8a90ada880a82c840c88a0ad88a0882cb48c8b808d4a70bd49808d48b0b98bb20d4a808978820d4b8083202821908d46909140600000000010000001407fcffffff00000000821818d8780782181094877b190894973202826a1082a71882a81082a90882aa6f776f886f996faa826b187bba187bb9107bb8087bb7955180821078821570821668951180003202826a1882a71882a81082a90882aa6f776f886f996faa956b00017bba387bb9307bb8287bb720956760956820013202d876078218109487821808948732029567dc821818d878078218109487821808948732029511807b10787b15707b1668951580008411e064168289828a088088107b67184916587b68507b6a489568407b6940330732027b17107b1908d497077b1818d46808d47808988820d46707977720d487073202951100ff7b10f8007b15f0007b16e800951500018411f0827810827918827a088277d4a909d48707d49707320282970881981082996f77977a206f88988820d48a0a9877206f98978920d497079888203202956b000182b87b681882b9087b691082ba107b6a0882b7187b67d8007b6ad0007b69c8009567c0007b68c00032029511a0fe7b1058017b1550017b164801951560018411e064164926f8004926f0004926e8004926e0008367e00032024921b0004921a8004921a000140700000000a079c3089518a0007b17b8008217183202d8780782ca50c87a09d8a90ada770a82c748c87a0ad87a0782cb40c8b707d4a80bd49707d47b0b98bb20d4a707977720d4b70732028267089777209877204926b8007b67b0008267107b67a8009568a0008267187b67a000330732029511a07b10587b15507b16489515608411e06476828718828910828a088288320282a71882a81082a90882aa6f776f886f996faa320282171883770449219800492190004921800020951880004921880032029511b07b10487b15409515508411f0491130491128491120140700000000717b484e9518207b173833073202829830d87807829838948782985094873202951120ff7b10d8007b15d0007b16c8009515e0008411f0827810827918827a088277d4a909d48707d49707320282677b67208267087b67288267107b67309568208267187b673864a77b6a183202826758826850826948826a40d49707d48a09d47909989920d48707977720d4970732028267787b67188267707b67108267687b67088267607b679567403308403202d49707d4a809d47909989920d4a707977720d497073202826778826a60d4a707826870826968d49808d48707987720d4a808978820d4870732029518e08489e07b695001649183778168580183993202492190004921880049218000140700000000a079c308951880007b17980082171832029551a08210588215508216489511603202956bff0795bbd90095bc000232028267f0008268f8008269e800826ae000d49808d4a707d487073202821618836724491178491170491160229518604911683202955100ff8210f8008215f0008216e80095110001320282970881981082996f7a97a7206f88988820320249922425494b2a252da9944c4949214225a952484992244992244992244992244992244992244992244992244992244992244992542529a524292949a84a494a92244992244992244992244992244992244992244992aa92942451924a92aa2485922425294955559292a42495244544444a9224254952a1524a4992524a49524911115142519122458a142952a4489122458a14295294481111519224082161284d4a43222449924809499226499284522a4460882a51a8d2882491228244849010a2348204092422492422224a924482241288888846929224942a4d2855222222859428915035452855484949122222a210111211424224931452494a9210491291242222808888101122224484880821448810111152484c244d4a9210111191484444444424492449495222494a929094242184902449920aa592049024955228a524a42444089194840821221211420493142a2909494208190a4b29092109a534222292a424499214499294a4242922224a4892009252242244149224499244110248004929222292481491084992522409204945922449924852480a4a41922449922449922401a4221149822480244992244992244925898888464424899010228d88a4889452925252924aa42491482322292225499224492a128d24498a48922449922449922449929424499224912449922489442222119188888888888888889448248a4422511489442222222222222291482412894422912012894492244922914844444424829424499244242249922449922449926428140a8542a1b0d40aaa28124491204288449120088288908820443049a11245824892244892244992a1b0d49424499004a528124491204288449120088288908820443049a1124582488220c850588a22419004a5281204492409420493142a05054992042182490a9582822492042182490a958292a44452490a2a49244992204994a42449922489544a499224498224492a49a2098a0411114104411041102408022880204948082149821264920490248882125124484444140922228204419024892408922491040104998410920490042928892241822241444410411044100449924882000a20481212424892a0049984248024411494882241822241444410411044100449924882000a20481212424892a0049924012409a2a044140982242941886028899624499224494a524492a492244992a4244992244992942425499222121111495292244924494a69484892949494244992529224499224499224892449922449922449922491d22449912449929424494a494a529224952449922449929224492222a2a150588a46444492942449222949922492242949922449a4a4942a41a54992244992244992244992244949922449524192244992242522221a244909420443493449924a4a922449922449922449924a4a9224499224499204499222922429254992242929221111911aa98888480491482412092211892412894444444490244992249224099a24012495929482286a22499255962422224a9224491249922449222222499224895212943449922449922449922449922449900449aa94245525491111d1204922222222222211111111494444221211111149221291888844221111912022922422222222221111119124111191442288888888888822a24890241189482212912411111111898844229148241289442245444444448288245122222222121111111111111111444444444444444422111189888888082249242292488288888888888828a288888888882492882422499288888848444422222222228288888888888888888820222222222222111141444444444444444490441111111111412449444444442222222911494444444444444444440411111111111111412491249248229188480491482422114544922449448aa44452249148242222222288888888888888888888888888082222222222412412894892449288888888888888888888888888888888888808a29294244922222292249244248924118924491249924444441011111111111111111144045194244a122222424888888888884844922411114992248a2248a4a494244a11114922922422894812124912912495882022222222222222222288888848241211892022222291482422222222222288888888888888888888888888942449494a92241289888888880491482412111111111111258988481049922449a24822924492241291449224499288249288888888888888104288888888888888888888889424494a922429499294922449449224499214111111d104114954101112118408262954a244124444444412894422498a8888461249922449922449922449922429494410092291482422229a24254992882489888882448924484a9210424892244912444444111911114992a42449524a92888888884410894422912022222251241289888888201289244922111111114192449224499248924892244992a4924892248924499288480091549454506924912449441291244952291111112412498a88888652342249a4244524492489482412452291288a8822222222222222882401248024a5884411119148242241244144221a40248020222222222212d1488288884422115124499244249244128988888888882022224244244444444444444444041111114992244944049124012415912449922412415024495222412449228924914892248910092124510a22092292888888882092200288482412111111442288888888888820124124229188882012412492249104910822a594224924882449922411111144101141442291882888082222228844101449aa8a88888888888894244949241211111191222222222222222222222222824892888888888888880822222222222222228288882449922449a224452489464444922449922449920811218488881424418448082189044910211242482241441341444444924810529c082249a524258948a2208888882041440489442222114482888808220992542a49929448104992244992244992242222808804491029a5144922411244a224892408222222248888904824221241248888089204492a45892448922222221a111191242549922491244989144452922492000248528a449024a58848241289200124a5484422114904212449124092244944244915111111890491484489442291482412111189442211114544444410499224111151d0a410428048922449124992244992244992244954108a60449224092091449290248924694441241291242922222292a4aa294944444491202222499224898808202241124000494a9144848820494a914484882080049094928408214444044952ca489224892411014444100525a24890a0481011114410041104418220800208928484109224284126490049822828118d88882429499224492249924a92a494244544440a9204900092522489888820494a9124128948040124a548244992244952241291089224251111d12449d22449922429292948a9495a32059528122422228a04111141822048924412044992488200824c420849922005251529489024499224499292244992244952124000494a254955495292444952552449a2a45492944a9248254992549224495244442449494a2a2529495192241111514444a4888828220288484992244992242949442212952449492a4955251121a224499200924a522a222292a424952449524a9224495292242929499294244992a4242a2a22028848499222a288882425492445444449a50400"},"methodIdentifiers":{"approve()":"12424e3f","execute((address,address,uint256,uint256,uint256,bytes),bytes)":"47153f82","getDeposit(address)":"e1254fba","getNonce(address)":"2d0335ab","isApproved(address)":"673448dd"}},"hash":"64b4864226ce1902857721ad3527496b8441f48b9e66b278bd740e6bfcff6455","factoryDependencies":{}}}}